{
  "_format": "hh-sol-artifact-1",
  "contractName": "ZaaNetAdmin",
  "sourceName": "contracts/ZaaNetAdmin.sol",
  "abi": [
    {
      "inputs": [
        {
          "internalType": "address",
          "name": "_storageContract",
          "type": "address"
        },
        {
          "internalType": "address",
          "name": "_treasuryAddress",
          "type": "address"
        },
        {
          "internalType": "address",
          "name": "_paymentAddress",
          "type": "address"
        },
        {
          "internalType": "uint256",
          "name": "_platformFeePercent",
          "type": "uint256"
        },
        {
          "internalType": "uint256",
          "name": "_hostingFee",
          "type": "uint256"
        }
      ],
      "stateMutability": "nonpayable",
      "type": "constructor"
    },
    {
      "inputs": [],
      "name": "EnforcedPause",
      "type": "error"
    },
    {
      "inputs": [],
      "name": "ExpectedPause",
      "type": "error"
    },
    {
      "inputs": [
        {
          "internalType": "address",
          "name": "owner",
          "type": "address"
        }
      ],
      "name": "OwnableInvalidOwner",
      "type": "error"
    },
    {
      "inputs": [
        {
          "internalType": "address",
          "name": "account",
          "type": "address"
        }
      ],
      "name": "OwnableUnauthorizedAccount",
      "type": "error"
    },
    {
      "inputs": [],
      "name": "ReentrancyGuardReentrantCall",
      "type": "error"
    },
    {
      "anonymous": false,
      "inputs": [
        {
          "indexed": true,
          "internalType": "address",
          "name": "triggeredBy",
          "type": "address"
        }
      ],
      "name": "AdminPaused",
      "type": "event"
    },
    {
      "anonymous": false,
      "inputs": [
        {
          "indexed": true,
          "internalType": "address",
          "name": "triggeredBy",
          "type": "address"
        }
      ],
      "name": "AdminUnpaused",
      "type": "event"
    },
    {
      "anonymous": false,
      "inputs": [
        {
          "indexed": true,
          "internalType": "address",
          "name": "storageContract",
          "type": "address"
        },
        {
          "indexed": false,
          "internalType": "uint256",
          "name": "timestamp",
          "type": "uint256"
        }
      ],
      "name": "ContractsInitialized",
      "type": "event"
    },
    {
      "anonymous": false,
      "inputs": [
        {
          "indexed": false,
          "internalType": "bool",
          "name": "enabled",
          "type": "bool"
        },
        {
          "indexed": true,
          "internalType": "address",
          "name": "triggeredBy",
          "type": "address"
        }
      ],
      "name": "EmergencyModeToggled",
      "type": "event"
    },
    {
      "anonymous": false,
      "inputs": [
        {
          "indexed": true,
          "internalType": "address",
          "name": "operator",
          "type": "address"
        },
        {
          "indexed": false,
          "internalType": "bool",
          "name": "status",
          "type": "bool"
        },
        {
          "indexed": true,
          "internalType": "address",
          "name": "updatedBy",
          "type": "address"
        }
      ],
      "name": "EmergencyOperatorUpdated",
      "type": "event"
    },
    {
      "anonymous": false,
      "inputs": [
        {
          "indexed": true,
          "internalType": "uint256",
          "name": "oldFee",
          "type": "uint256"
        },
        {
          "indexed": true,
          "internalType": "uint256",
          "name": "newFee",
          "type": "uint256"
        },
        {
          "indexed": true,
          "internalType": "address",
          "name": "changedBy",
          "type": "address"
        }
      ],
      "name": "HostingFeeUpdated",
      "type": "event"
    },
    {
      "anonymous": false,
      "inputs": [
        {
          "indexed": true,
          "internalType": "address",
          "name": "previousOwner",
          "type": "address"
        },
        {
          "indexed": true,
          "internalType": "address",
          "name": "newOwner",
          "type": "address"
        }
      ],
      "name": "OwnershipTransferred",
      "type": "event"
    },
    {
      "anonymous": false,
      "inputs": [
        {
          "indexed": false,
          "internalType": "address",
          "name": "account",
          "type": "address"
        }
      ],
      "name": "Paused",
      "type": "event"
    },
    {
      "anonymous": false,
      "inputs": [
        {
          "indexed": true,
          "internalType": "uint256",
          "name": "oldFee",
          "type": "uint256"
        },
        {
          "indexed": true,
          "internalType": "uint256",
          "name": "newFee",
          "type": "uint256"
        },
        {
          "indexed": true,
          "internalType": "address",
          "name": "changedBy",
          "type": "address"
        }
      ],
      "name": "PlatformFeeUpdated",
      "type": "event"
    },
    {
      "anonymous": false,
      "inputs": [
        {
          "indexed": true,
          "internalType": "address",
          "name": "oldTreasury",
          "type": "address"
        },
        {
          "indexed": true,
          "internalType": "address",
          "name": "newTreasury",
          "type": "address"
        },
        {
          "indexed": true,
          "internalType": "address",
          "name": "changedBy",
          "type": "address"
        }
      ],
      "name": "TreasuryUpdated",
      "type": "event"
    },
    {
      "anonymous": false,
      "inputs": [
        {
          "indexed": false,
          "internalType": "address",
          "name": "account",
          "type": "address"
        }
      ],
      "name": "Unpaused",
      "type": "event"
    },
    {
      "inputs": [],
      "name": "MAX_HOSTING_FEE",
      "outputs": [
        {
          "internalType": "uint256",
          "name": "",
          "type": "uint256"
        }
      ],
      "stateMutability": "view",
      "type": "function"
    },
    {
      "inputs": [],
      "name": "MAX_PLATFORM_FEE",
      "outputs": [
        {
          "internalType": "uint256",
          "name": "",
          "type": "uint256"
        }
      ],
      "stateMutability": "view",
      "type": "function"
    },
    {
      "inputs": [],
      "name": "MIN_HOSTING_FEE",
      "outputs": [
        {
          "internalType": "uint256",
          "name": "",
          "type": "uint256"
        }
      ],
      "stateMutability": "view",
      "type": "function"
    },
    {
      "inputs": [],
      "name": "MIN_PLATFORM_FEE",
      "outputs": [
        {
          "internalType": "uint256",
          "name": "",
          "type": "uint256"
        }
      ],
      "stateMutability": "view",
      "type": "function"
    },
    {
      "inputs": [],
      "name": "admin",
      "outputs": [
        {
          "internalType": "address",
          "name": "",
          "type": "address"
        }
      ],
      "stateMutability": "view",
      "type": "function"
    },
    {
      "inputs": [
        {
          "internalType": "uint256",
          "name": "amount",
          "type": "uint256"
        }
      ],
      "name": "calculatePlatformFee",
      "outputs": [
        {
          "internalType": "uint256",
          "name": "",
          "type": "uint256"
        }
      ],
      "stateMutability": "view",
      "type": "function"
    },
    {
      "inputs": [
        {
          "internalType": "uint256",
          "name": "networkId",
          "type": "uint256"
        }
      ],
      "name": "emergencyDeactivateNetwork",
      "outputs": [],
      "stateMutability": "nonpayable",
      "type": "function"
    },
    {
      "inputs": [],
      "name": "emergencyMode",
      "outputs": [
        {
          "internalType": "bool",
          "name": "",
          "type": "bool"
        }
      ],
      "stateMutability": "view",
      "type": "function"
    },
    {
      "inputs": [
        {
          "internalType": "address",
          "name": "",
          "type": "address"
        }
      ],
      "name": "emergencyOperators",
      "outputs": [
        {
          "internalType": "bool",
          "name": "",
          "type": "bool"
        }
      ],
      "stateMutability": "view",
      "type": "function"
    },
    {
      "inputs": [
        {
          "internalType": "uint256",
          "name": "_newFee",
          "type": "uint256"
        }
      ],
      "name": "emergencySetHostingFee",
      "outputs": [],
      "stateMutability": "nonpayable",
      "type": "function"
    },
    {
      "inputs": [
        {
          "internalType": "uint256",
          "name": "_newFeePercent",
          "type": "uint256"
        }
      ],
      "name": "emergencySetPlatformFee",
      "outputs": [],
      "stateMutability": "nonpayable",
      "type": "function"
    },
    {
      "inputs": [
        {
          "internalType": "uint256",
          "name": "",
          "type": "uint256"
        }
      ],
      "name": "feeHistory",
      "outputs": [
        {
          "internalType": "uint256",
          "name": "oldFee",
          "type": "uint256"
        },
        {
          "internalType": "uint256",
          "name": "newFee",
          "type": "uint256"
        },
        {
          "internalType": "uint256",
          "name": "timestamp",
          "type": "uint256"
        },
        {
          "internalType": "address",
          "name": "changedBy",
          "type": "address"
        }
      ],
      "stateMutability": "view",
      "type": "function"
    },
    {
      "inputs": [],
      "name": "getAdminStats",
      "outputs": [
        {
          "internalType": "uint256",
          "name": "totalFeeChanges",
          "type": "uint256"
        },
        {
          "internalType": "uint256",
          "name": "totalTreasuryChanges",
          "type": "uint256"
        },
        {
          "internalType": "uint256",
          "name": "totalHostingFeeChanges",
          "type": "uint256"
        },
        {
          "internalType": "bool",
          "name": "isEmergencyMode",
          "type": "bool"
        },
        {
          "internalType": "uint256",
          "name": "currentPlatformFee",
          "type": "uint256"
        },
        {
          "internalType": "uint256",
          "name": "currentHostingFee",
          "type": "uint256"
        },
        {
          "internalType": "address",
          "name": "currentTreasury",
          "type": "address"
        }
      ],
      "stateMutability": "view",
      "type": "function"
    },
    {
      "inputs": [],
      "name": "getCurrentFees",
      "outputs": [
        {
          "internalType": "uint256",
          "name": "platformFeePercentage",
          "type": "uint256"
        },
        {
          "internalType": "uint256",
          "name": "hostingFeeAmount",
          "type": "uint256"
        }
      ],
      "stateMutability": "view",
      "type": "function"
    },
    {
      "inputs": [],
      "name": "getFeeHistory",
      "outputs": [
        {
          "components": [
            {
              "internalType": "uint256",
              "name": "oldFee",
              "type": "uint256"
            },
            {
              "internalType": "uint256",
              "name": "newFee",
              "type": "uint256"
            },
            {
              "internalType": "uint256",
              "name": "timestamp",
              "type": "uint256"
            },
            {
              "internalType": "address",
              "name": "changedBy",
              "type": "address"
            }
          ],
          "internalType": "struct ZaaNetAdmin.FeeChange[]",
          "name": "",
          "type": "tuple[]"
        }
      ],
      "stateMutability": "view",
      "type": "function"
    },
    {
      "inputs": [],
      "name": "getHostingFeeHistory",
      "outputs": [
        {
          "components": [
            {
              "internalType": "uint256",
              "name": "oldFee",
              "type": "uint256"
            },
            {
              "internalType": "uint256",
              "name": "newFee",
              "type": "uint256"
            },
            {
              "internalType": "uint256",
              "name": "timestamp",
              "type": "uint256"
            },
            {
              "internalType": "address",
              "name": "changedBy",
              "type": "address"
            }
          ],
          "internalType": "struct ZaaNetAdmin.HostingFeeChange[]",
          "name": "",
          "type": "tuple[]"
        }
      ],
      "stateMutability": "view",
      "type": "function"
    },
    {
      "inputs": [],
      "name": "getLatestFeeChange",
      "outputs": [
        {
          "components": [
            {
              "internalType": "uint256",
              "name": "oldFee",
              "type": "uint256"
            },
            {
              "internalType": "uint256",
              "name": "newFee",
              "type": "uint256"
            },
            {
              "internalType": "uint256",
              "name": "timestamp",
              "type": "uint256"
            },
            {
              "internalType": "address",
              "name": "changedBy",
              "type": "address"
            }
          ],
          "internalType": "struct ZaaNetAdmin.FeeChange",
          "name": "",
          "type": "tuple"
        }
      ],
      "stateMutability": "view",
      "type": "function"
    },
    {
      "inputs": [],
      "name": "getLatestHostingFeeChange",
      "outputs": [
        {
          "components": [
            {
              "internalType": "uint256",
              "name": "oldFee",
              "type": "uint256"
            },
            {
              "internalType": "uint256",
              "name": "newFee",
              "type": "uint256"
            },
            {
              "internalType": "uint256",
              "name": "timestamp",
              "type": "uint256"
            },
            {
              "internalType": "address",
              "name": "changedBy",
              "type": "address"
            }
          ],
          "internalType": "struct ZaaNetAdmin.HostingFeeChange",
          "name": "",
          "type": "tuple"
        }
      ],
      "stateMutability": "view",
      "type": "function"
    },
    {
      "inputs": [],
      "name": "getLatestTreasuryChange",
      "outputs": [
        {
          "components": [
            {
              "internalType": "address",
              "name": "oldTreasury",
              "type": "address"
            },
            {
              "internalType": "address",
              "name": "newTreasury",
              "type": "address"
            },
            {
              "internalType": "uint256",
              "name": "timestamp",
              "type": "uint256"
            },
            {
              "internalType": "address",
              "name": "changedBy",
              "type": "address"
            }
          ],
          "internalType": "struct ZaaNetAdmin.TreasuryChange",
          "name": "",
          "type": "tuple"
        }
      ],
      "stateMutability": "view",
      "type": "function"
    },
    {
      "inputs": [],
      "name": "getPlatformFeeBasisPoints",
      "outputs": [
        {
          "internalType": "uint256",
          "name": "",
          "type": "uint256"
        }
      ],
      "stateMutability": "view",
      "type": "function"
    },
    {
      "inputs": [],
      "name": "getTreasuryHistory",
      "outputs": [
        {
          "components": [
            {
              "internalType": "address",
              "name": "oldTreasury",
              "type": "address"
            },
            {
              "internalType": "address",
              "name": "newTreasury",
              "type": "address"
            },
            {
              "internalType": "uint256",
              "name": "timestamp",
              "type": "uint256"
            },
            {
              "internalType": "address",
              "name": "changedBy",
              "type": "address"
            }
          ],
          "internalType": "struct ZaaNetAdmin.TreasuryChange[]",
          "name": "",
          "type": "tuple[]"
        }
      ],
      "stateMutability": "view",
      "type": "function"
    },
    {
      "inputs": [],
      "name": "hostingFee",
      "outputs": [
        {
          "internalType": "uint256",
          "name": "",
          "type": "uint256"
        }
      ],
      "stateMutability": "view",
      "type": "function"
    },
    {
      "inputs": [
        {
          "internalType": "uint256",
          "name": "",
          "type": "uint256"
        }
      ],
      "name": "hostingFeeHistory",
      "outputs": [
        {
          "internalType": "uint256",
          "name": "oldFee",
          "type": "uint256"
        },
        {
          "internalType": "uint256",
          "name": "newFee",
          "type": "uint256"
        },
        {
          "internalType": "uint256",
          "name": "timestamp",
          "type": "uint256"
        },
        {
          "internalType": "address",
          "name": "changedBy",
          "type": "address"
        }
      ],
      "stateMutability": "view",
      "type": "function"
    },
    {
      "inputs": [
        {
          "internalType": "address",
          "name": "operator",
          "type": "address"
        }
      ],
      "name": "isEmergencyOperator",
      "outputs": [
        {
          "internalType": "bool",
          "name": "",
          "type": "bool"
        }
      ],
      "stateMutability": "view",
      "type": "function"
    },
    {
      "inputs": [],
      "name": "owner",
      "outputs": [
        {
          "internalType": "address",
          "name": "",
          "type": "address"
        }
      ],
      "stateMutability": "view",
      "type": "function"
    },
    {
      "inputs": [],
      "name": "pause",
      "outputs": [],
      "stateMutability": "nonpayable",
      "type": "function"
    },
    {
      "inputs": [],
      "name": "paused",
      "outputs": [
        {
          "internalType": "bool",
          "name": "",
          "type": "bool"
        }
      ],
      "stateMutability": "view",
      "type": "function"
    },
    {
      "inputs": [],
      "name": "payment",
      "outputs": [
        {
          "internalType": "address",
          "name": "",
          "type": "address"
        }
      ],
      "stateMutability": "view",
      "type": "function"
    },
    {
      "inputs": [],
      "name": "paymentAddress",
      "outputs": [
        {
          "internalType": "address",
          "name": "",
          "type": "address"
        }
      ],
      "stateMutability": "view",
      "type": "function"
    },
    {
      "inputs": [],
      "name": "platformFeePercent",
      "outputs": [
        {
          "internalType": "uint256",
          "name": "",
          "type": "uint256"
        }
      ],
      "stateMutability": "view",
      "type": "function"
    },
    {
      "inputs": [],
      "name": "renounceOwnership",
      "outputs": [],
      "stateMutability": "nonpayable",
      "type": "function"
    },
    {
      "inputs": [
        {
          "internalType": "address",
          "name": "operator",
          "type": "address"
        },
        {
          "internalType": "bool",
          "name": "status",
          "type": "bool"
        }
      ],
      "name": "setEmergencyOperator",
      "outputs": [],
      "stateMutability": "nonpayable",
      "type": "function"
    },
    {
      "inputs": [
        {
          "internalType": "uint256",
          "name": "_newFee",
          "type": "uint256"
        }
      ],
      "name": "setHostingFee",
      "outputs": [],
      "stateMutability": "nonpayable",
      "type": "function"
    },
    {
      "inputs": [
        {
          "internalType": "address",
          "name": "_newPaymentAddress",
          "type": "address"
        }
      ],
      "name": "setPaymentAddress",
      "outputs": [],
      "stateMutability": "nonpayable",
      "type": "function"
    },
    {
      "inputs": [
        {
          "internalType": "uint256",
          "name": "_newFeePercent",
          "type": "uint256"
        }
      ],
      "name": "setPlatformFee",
      "outputs": [],
      "stateMutability": "nonpayable",
      "type": "function"
    },
    {
      "inputs": [
        {
          "internalType": "address",
          "name": "_newTreasuryAddress",
          "type": "address"
        }
      ],
      "name": "setTreasuryAddress",
      "outputs": [],
      "stateMutability": "nonpayable",
      "type": "function"
    },
    {
      "inputs": [],
      "name": "storageContract",
      "outputs": [
        {
          "internalType": "contract ZaaNetStorage",
          "name": "",
          "type": "address"
        }
      ],
      "stateMutability": "view",
      "type": "function"
    },
    {
      "inputs": [],
      "name": "toggleEmergencyMode",
      "outputs": [],
      "stateMutability": "nonpayable",
      "type": "function"
    },
    {
      "inputs": [
        {
          "internalType": "address",
          "name": "newOwner",
          "type": "address"
        }
      ],
      "name": "transferOwnership",
      "outputs": [],
      "stateMutability": "nonpayable",
      "type": "function"
    },
    {
      "inputs": [],
      "name": "treasury",
      "outputs": [
        {
          "internalType": "address",
          "name": "",
          "type": "address"
        }
      ],
      "stateMutability": "view",
      "type": "function"
    },
    {
      "inputs": [],
      "name": "treasuryAddress",
      "outputs": [
        {
          "internalType": "address",
          "name": "",
          "type": "address"
        }
      ],
      "stateMutability": "view",
      "type": "function"
    },
    {
      "inputs": [
        {
          "internalType": "uint256",
          "name": "",
          "type": "uint256"
        }
      ],
      "name": "treasuryHistory",
      "outputs": [
        {
          "internalType": "address",
          "name": "oldTreasury",
          "type": "address"
        },
        {
          "internalType": "address",
          "name": "newTreasury",
          "type": "address"
        },
        {
          "internalType": "uint256",
          "name": "timestamp",
          "type": "uint256"
        },
        {
          "internalType": "address",
          "name": "changedBy",
          "type": "address"
        }
      ],
      "stateMutability": "view",
      "type": "function"
    },
    {
      "inputs": [],
      "name": "unpause",
      "outputs": [],
      "stateMutability": "nonpayable",
      "type": "function"
    }
  ],
  "bytecode": "0x6080604052346105d1576040516000611ee73881900390601f8201601f191684016001600160401b038111858210176105bd579180859260a0946040528339810103126105ba5761004f826105f5565b9061005c602084016105f5565b92610069604082016105f5565b92608060608301519201519333156105a6578354336001600160a01b031982168117865560405197916001600160a01b03167f8be0079c531659141344cd1fd0a4f28419497f9722a3daafe3b4186f6b6457e08780a3600180556007805460ff191690556001600160a01b03169586156105645750600183101580610559575b15610504576001600160a01b03169081156104b0576305f5e1008511610458576001600160a01b031680610414575b508460018060a01b0319600354161760035560018060a01b03196004541617600455806005558260065561014a6105d6565b9082825260208201524260408201523360608201526009546801000000000000000081101561040057600181016009556009548110156103ae57600983526101b99190839060021b7f6e1540171b6c0c960b71a7020d9f60077f6af931a8bbf590da0223dacf75c7af01610609565b6101c16105d6565b9281845260208401908152604084014281526060850191338352600a5495680100000000000000008710156103ec5760018701600a55600a548710156103d857600a909452925160029590951b7fc65a7bb8d6351c1cf70c95a316cc6a92839c986682d98bc35f958f4883f9d2a8810180546001600160a01b03199081166001600160a01b039889161790915593517fc65a7bb8d6351c1cf70c95a316cc6a92839c986682d98bc35f958f4883f9d2a982018054861691881691909117905590517fc65a7bb8d6351c1cf70c95a316cc6a92839c986682d98bc35f958f4883f9d2aa82015590517fc65a7bb8d6351c1cf70c95a316cc6a92839c986682d98bc35f958f4883f9d2ab90910180549092169316929092179091556102e26105d6565b90600082526020820152426040820152336060820152600b5490680100000000000000008210156103c25760018201600b55600091600b548110156103ae57600b9092526103579160009060021b7f0175b7a638427703f0dbe7bb9bbf987a2551717b34e79f33b5b1008d1fa01db901610609565b3360005260086020526040600020600160ff198254161790556040516001815233907f1d05944b75552398d6505993a2bc80206d8219c4454def4cfd2e97793edbbfce60203392a360405161187f90816106688239f35b634e487b7160e01b83526032600452602483fd5b634e487b7160e01b600052604160045260246000fd5b634e487b7160e01b85526032600452602485fd5b634e487b7160e01b85526041600452602485fd5b634e487b7160e01b83526041600452602483fd5b600280546001600160a01b031916821790556040514281527f7f7d6e7886dca58922d0593a44928fb5066cd0e04369c371d72eb96e61368fa890602090a238610118565b60405162461bcd60e51b815260206004820152602a60248201527f486f7374696e6720666565206d757374206265206265747765656e203020616e60448201526919080c4c0c081554d11560b21b6064820152608490fd5b60405162461bcd60e51b815260206004820152602660248201527f5061796d656e7420616464726573732063616e6e6f74206265207a65726f206160448201526564647265737360d01b6064820152608490fd5b60405162461bcd60e51b815260206004820152602760248201527f506c6174666f726d20666565206d757374206265206265747765656e20312520604482015266616e642032302560c81b6064820152608490fd5b5060148311156100e9565b62461bcd60e51b815260206004820152601f60248201527f54726561737572792063616e6e6f74206265207a65726f2061646472657373006044820152606490fd5b631e4fbdf760e01b84526004849052602484fd5b80fd5b634e487b7160e01b84526041600452602484fd5b600080fd5b60405190608082016001600160401b038111838210176103c257604052565b51906001600160a01b03821682036105d157565b9190610651578051825560208101516001830155604081015160028301556060015160039190910180546001600160a01b0319166001600160a01b0392909216919091179055565b634e487b7160e01b600052600060045260246000fdfe6080604052600436101561001257600080fd5b6000803560e01c806302e88899146113cf5780630905f560146113ac57806309705de81461075d5780630cbab4f7146113755780630d35a1671461134d57806311ce02671461132457806312e8e2c31461127557806318b4f23b146111c65780633998a681146111aa5780633f4ba83a1461111757806342f6487a14610b135780634863687e14611052578063492adaa814610f5c5780634c17b53014610ed35780635071f27b14610e5057806354d7494114610e345780635707ed4514610d3f5780635a2f406f14610c4f5780635c975abb14610c2a5780635e1e100414610b3c57806361d027b3146105e2578063633423be14610b135780636605bfda146109475780636f04d9941461092b578063715018a6146108d157806371908a03146108ac5780637a9b93c6146108795780638456cb59146107e15780638c639a85146107c35780638da5cb5b1461079c578063a10eb3541461075d578063a380b86b146106f7578063bb8f0b65146106d8578063bbeecdf014610669578063c116d9361461060b578063c5f956af146105e2578063d2643f1d1461050f578063d4ab4b401461041a578063e53377eb146103b0578063ebe7fdaa14610392578063edfbf4f1146102a5578063f2fde38b1461021f5763f851a440146101f657600080fd5b3461021c578060031936011261021c57546040516001600160a01b039091168152602090f35b80fd5b503461021c57602036600319011261021c5761023961149f565b610241611820565b6001600160a01b031680156102915781546001600160a01b03198116821783556001600160a01b03167f8be0079c531659141344cd1fd0a4f28419497f9722a3daafe3b4186f6b6457e08380a380f35b631e4fbdf760e01b82526004829052602482fd5b503461021c57602036600319011261021c576004356102c2611820565b6102d160ff6007541615611549565b6305f5e100811161034257600654906102ec82821415611595565b806006556103196040516102ff816115d1565b8381528260208201524260408201523360608201526117fb565b33917feb710718efc8ce303613ea1c9fb97a21bd1154a827cdb5ed5607eadd10e8cf968480a480f35b60405162461bcd60e51b815260206004820152602260248201527f466565206d757374206265206265747765656e203020616e6420313030205553604482015261111560f21b6064820152608490fd5b503461021c578060031936011261021c576020600654604051908152f35b503461021c57602036600319011261021c57600435600b54811015610416576103d89061150e565b50805460018201546002830154600390930154604080519384526020840192909252908201929092526001600160a01b039091166060820152608090f35b5080fd5b503461021c578060031936011261021c57600b54610437816117a8565b6104446040519182611603565b818152600b83526020810191837f0175b7a638427703f0dbe7bb9bbf987a2551717b34e79f33b5b1008d1fa01db9845b8383106104f157868587604051928392602084019060208552518091526040840192915b8181106104a6575050500390f35b9193509160206080826104e360019488516060908051835260208101516020840152604081015160408401528160018060a01b0391015116910152565b019401910191849392610498565b60046020600192610501856117c0565b815201920192019190610474565b503461021c578060031936011261021c57610528611741565b50600b5490811561059d57600019820191821161058957608061055361054d8461150e565b506117c0565b61058760405180926060908051835260208101516020840152604081015160408401528160018060a01b0391015116910152565bf35b634e487b7160e01b81526011600452602490fd5b60405162461bcd60e51b815260206004820152601f60248201527f4e6f20686f7374696e6720666565206368616e676573207265636f72646564006044820152606490fd5b503461021c578060031936011261021c576003546040516001600160a01b039091168152602090f35b503461021c578060031936011261021c5760e0600954600a54600b5460ff60075416600554906006549260018060a01b0360035416946040519687526020870152604086015215156060850152608084015260a083015260c0820152f35b503461021c57602036600319011261021c57600435338252600860205260ff60408320541680156106c5575b61069e906116b0565b6106ae6305f5e1008211156116f5565b60065490806006556103196040516102ff816115d1565b5081546001600160a01b03163314610695565b503461021c578060031936011261021c5760206040516305f5e1008152f35b503461021c57602036600319011261021c5760043590600a5482101561021c576080610722836114ef565b50805460018201546002830154600390930154604080516001600160a01b039485168152928416602084015282019390935291166060820152f35b503461021c57602036600319011261021c5760209060ff906040906001600160a01b0361078861149f565b168152600884522054166040519015158152f35b503461021c578060031936011261021c57546040516001600160a01b039091168152602090f35b503461021c578060031936011261021c576020600554604051908152f35b503461021c578060031936011261021c576107fa611820565b805460ff8160a01c1661086a5760ff60a01b1916600160a01b1781556040513381527f62e78cea01bee320cd4e420270b5ea74000d11b0c9f74754ebdbfc544b05a25890602090a1337ff9c91e483ce8bc4cc31645e7cc0f01a3371813e76469a71104841507f01402908280a280f35b63d93c066560e01b8252600482fd5b503461021c578060031936011261021c576005549060648202918083046064149015171561058957602082604051908152f35b503461021c578060031936011261021c57604060055460065482519182526020820152f35b503461021c578060031936011261021c576108ea611820565b80546001600160a01b03198116825581906001600160a01b03167f8be0079c531659141344cd1fd0a4f28419497f9722a3daafe3b4186f6b6457e08280a380f35b503461021c578060031936011261021c57602060405160018152f35b503461021c57602036600319011261021c5761096161149f565b610969611820565b61097860ff6007541615611549565b6001600160a01b03168015610ace576003546001600160a01b0381169190828214610a94576001600160a01b03191681176003556040516109b8816115d1565b82815260208101828152604082014281526060830191338352600a54600160401b811015610a80578060016109f09201600a556114ef565b949094610a6c575184546001600160a01b03199081166001600160a01b03928316178655915160018601805484169183169190911790559151600285015591516003939093018054909216921691909117905533917f23c12d5579081c5f1077c04a6b1c114d0f3de239e81a436836d30ecb099ffa138480a480f35b634e487b7160e01b88526004889052602488fd5b634e487b7160e01b88526041600452602488fd5b60405162461bcd60e51b8152602060048201526012602482015271151c99585cdd5c9e481d5b98da185b99d95960721b6044820152606490fd5b60405162461bcd60e51b815260206004820152601860248201527f496e76616c6964207472656173757279206164647265737300000000000000006044820152606490fd5b503461021c578060031936011261021c576004546040516001600160a01b039091168152602090f35b503461021c57602036600319011261021c57610b5661149f565b610b5e611820565b610b6d60ff6007541615611549565b6001600160a01b03168015610be5576004546001600160a01b0381168214610ba0576001600160a01b0319161760045580f35b60405162461bcd60e51b815260206004820152601960248201527f5061796d656e74206164647265737320756e6368616e676564000000000000006044820152606490fd5b60405162461bcd60e51b815260206004820152601760248201527f496e76616c6964207061796d656e7420616464726573730000000000000000006044820152606490fd5b503461021c578060031936011261021c5760ff6020915460a01c166040519015158152f35b503461021c57602036600319011261021c57338152600860205260ff6040822054168015610d2c575b610c81906116b0565b6002546001600160a01b03168015610ce7578082913b15610ce457818091602460405180958193635a2f406f60e01b835260043560048401525af18015610cd757610cc95780f35b610cd291611603565b388180f35b50604051903d90823e3d90fd5b50fd5b60405162461bcd60e51b815260206004820152601760248201527f53746f72616765206e6f7420696e697469616c697a65640000000000000000006044820152606490fd5b5080546001600160a01b03163314610c78565b503461021c578060031936011261021c57600954610d5c816117a8565b610d696040519182611603565b818152600983526020810191837f6e1540171b6c0c960b71a7020d9f60077f6af931a8bbf590da0223dacf75c7af845b838310610e1657868587604051928392602084019060208552518091526040840192915b818110610dcb575050500390f35b919350916020608082610e0860019488516060908051835260208101516020840152604081015160408401528160018060a01b0391015116910152565b019401910191849392610dbd565b60046020600192610e26856117c0565b815201920192019190610d99565b503461021c578060031936011261021c57602090604051908152f35b503461021c578060031936011261021c57610e69611741565b50600954908115610e8e57600019820191821161058957608061055361054d846114ba565b60405162461bcd60e51b815260206004820152601760248201527f4e6f20666565206368616e676573207265636f726465640000000000000000006044820152606490fd5b503461021c578060031936011261021c57338152600860205260ff6040822054168015610f49575b610f04906116b0565b60075460ff8082161516809160ff19161760075560405190151581527fc35ed978e97c366b3a5f9375508bcfbca850fca66bf334b9477118918e6eaa4060203392a280f35b5080546001600160a01b03163314610efb565b503461021c578060031936011261021c57600a54610f79816117a8565b610f866040519182611603565b818152600a83526020810191837fc65a7bb8d6351c1cf70c95a316cc6a92839c986682d98bc35f958f4883f9d2a8845b83831061103457868587604051928392602084019060208552518091526040840192915b818110610fe8575050500390f35b825180516001600160a01b039081168652602080830151821681880152604080840151908801526060928301519091169186019190915286955060809094019390920191600101610fda565b6004602060019261104485611766565b815201920192019190610fb6565b503461021c578060031936011261021c5761106b611741565b50600a549081156110d2576000198201918211610589576080611096611090846114ef565b50611766565b6040805182516001600160a01b039081168252602080850151821690830152838301519282019290925260609283015190911691810191909152f35b60405162461bcd60e51b815260206004820152601c60248201527f4e6f207472656173757279206368616e676573207265636f72646564000000006044820152606490fd5b503461021c578060031936011261021c57611130611820565b805460ff8160a01c161561119b5760ff60a01b191681556040513381527f5db9ee0a495bf2e6ff9c91a7834c1ba4fdd244a5e8aa4e537bd38aeae4b073aa90602090a1337fcc2b689b01792ccc45f7d02099e9ef3ffd7058e45803395690c61efdd0f0c6348280a280f35b638dfc202b60e01b8252600482fd5b503461021c578060031936011261021c57602060405160148152f35b503461021c57602036600319011261021c57600435338252600860205260ff6040832054168015611262575b6111fb906116b0565b61120860148211156116f5565b600554908060055561123960405161121f816115d1565b838152826020820152426040820152336060820152611683565b33917f9e74d2175d1604ca094d3c60971771fb54aa1a0adbadcedcb69c48cfbd4feb998480a480f35b5081546001600160a01b031633146111f2565b503461021c57602036600319011261021c57600435611292611820565b6112a160ff6007541615611549565b600181101580611319575b156112d457600554906112c182821415611595565b8060055561123960405161121f816115d1565b60405162461bcd60e51b815260206004820152601e60248201527f466565206d757374206265206265747765656e20312520616e642032302500006044820152606490fd5b5060148111156112ac565b503461021c578060031936011261021c576002546040516001600160a01b039091168152602090f35b503461021c57602036600319011261021c57600435600954811015610416576103d8906114ba565b503461021c57602036600319011261021c576005546004358181029291811591840414171561058957602082606460405191048152f35b503461021c578060031936011261021c57602060ff600754166040519015158152f35b503461021c57604036600319011261021c576113e961149f565b6024359081151580920361149b576113ff611820565b6001600160a01b031680156114565780835260086020526040832060ff1981541660ff84161790556040519182527f1d05944b75552398d6505993a2bc80206d8219c4454def4cfd2e97793edbbfce60203393a380f35b60405162461bcd60e51b815260206004820152601860248201527f496e76616c6964206f70657261746f72206164647265737300000000000000006044820152606490fd5b8280fd5b600435906001600160a01b03821682036114b557565b600080fd5b6009548110156114d957600960005260206000209060021b0190600090565b634e487b7160e01b600052603260045260246000fd5b600a548110156114d957600a60005260206000209060021b0190600090565b600b548110156114d957600b60005260206000209060021b0190600090565b80548210156114d95760005260206000209060021b0190600090565b1561155057565b60405162461bcd60e51b815260206004820152601860248201527f53797374656d20696e20656d657267656e6379206d6f646500000000000000006044820152606490fd5b1561159c57565b60405162461bcd60e51b815260206004820152600d60248201526c119959481d5b98da185b99d959609a1b6044820152606490fd5b6080810190811067ffffffffffffffff8211176115ed57604052565b634e487b7160e01b600052604160045260246000fd5b90601f8019910116810190811067ffffffffffffffff8211176115ed57604052565b919061166d578051825560208101516001830155604081015160028301556060015160039190910180546001600160a01b0319166001600160a01b0392909216919091179055565b634e487b7160e01b600052600060045260246000fd5b60095490600160401b8210156115ed576116a88260016116ae9401600955600961152d565b90611625565b565b156116b757565b60405162461bcd60e51b81526020600482015260166024820152752737ba1032b6b2b933b2b731bc9037b832b930ba37b960511b6044820152606490fd5b156116fc57565b60405162461bcd60e51b815260206004820152601960248201527f4665652063616e6e6f7420657863656564206d6178696d756d000000000000006044820152606490fd5b6040519061174e826115d1565b60006060838281528260208201528260408201520152565b90604051611773816115d1565b82546001600160a01b039081168252600184015481166020830152600284015460408301526003909301549092166060830152565b67ffffffffffffffff81116115ed5760051b60200190565b906040516117cd816115d1565b8254815260018301546020820152600283015460408201526003909201546001600160a01b03166060830152565b600b5490600160401b8210156115ed576116a88260016116ae9401600b55600b61152d565b6000546001600160a01b0316330361183457565b63118cdaa760e01b6000523360045260246000fdfea2646970667358221220539c33fc38db905eb3ef87fc0944d8df450f45295a2f7939cf6191904a7e79a364736f6c634300081c0033",
  "linkReferences": {},
  "deployedLinkReferences": {}
}