{
  "_format": "hh-sol-artifact-1",
  "contractName": "ZaaNetStorage",
  "sourceName": "contracts/ZaaNetStorage.sol",
  "abi": [
    {
      "inputs": [],
      "stateMutability": "nonpayable",
      "type": "constructor"
    },
    {
      "inputs": [
        {
          "internalType": "address",
          "name": "owner",
          "type": "address"
        }
      ],
      "name": "OwnableInvalidOwner",
      "type": "error"
    },
    {
      "inputs": [
        {
          "internalType": "address",
          "name": "account",
          "type": "address"
        }
      ],
      "name": "OwnableUnauthorizedAccount",
      "type": "error"
    },
    {
      "inputs": [],
      "name": "ReentrancyGuardReentrantCall",
      "type": "error"
    },
    {
      "anonymous": false,
      "inputs": [
        {
          "indexed": true,
          "internalType": "address",
          "name": "caller",
          "type": "address"
        },
        {
          "indexed": false,
          "internalType": "bool",
          "name": "status",
          "type": "bool"
        }
      ],
      "name": "AllowedCallerUpdated",
      "type": "event"
    },
    {
      "anonymous": false,
      "inputs": [
        {
          "indexed": true,
          "internalType": "address",
          "name": "hostAddress",
          "type": "address"
        },
        {
          "indexed": false,
          "internalType": "uint256",
          "name": "totalEarned",
          "type": "uint256"
        }
      ],
      "name": "HostEarningsUpdated",
      "type": "event"
    },
    {
      "anonymous": false,
      "inputs": [
        {
          "indexed": true,
          "internalType": "uint256",
          "name": "id",
          "type": "uint256"
        },
        {
          "indexed": true,
          "internalType": "address",
          "name": "hostAddress",
          "type": "address"
        },
        {
          "indexed": false,
          "internalType": "uint256",
          "name": "pricePerSession",
          "type": "uint256"
        }
      ],
      "name": "NetworkStored",
      "type": "event"
    },
    {
      "anonymous": false,
      "inputs": [
        {
          "indexed": true,
          "internalType": "uint256",
          "name": "id",
          "type": "uint256"
        },
        {
          "indexed": true,
          "internalType": "address",
          "name": "hostAddress",
          "type": "address"
        }
      ],
      "name": "NetworkUpdated",
      "type": "event"
    },
    {
      "anonymous": false,
      "inputs": [
        {
          "indexed": true,
          "internalType": "address",
          "name": "previousOwner",
          "type": "address"
        },
        {
          "indexed": true,
          "internalType": "address",
          "name": "newOwner",
          "type": "address"
        }
      ],
      "name": "OwnershipTransferred",
      "type": "event"
    },
    {
      "anonymous": false,
      "inputs": [
        {
          "indexed": true,
          "internalType": "uint256",
          "name": "sessionId",
          "type": "uint256"
        },
        {
          "indexed": true,
          "internalType": "address",
          "name": "paymentAddress",
          "type": "address"
        },
        {
          "indexed": false,
          "internalType": "uint256",
          "name": "amount",
          "type": "uint256"
        }
      ],
      "name": "SessionStored",
      "type": "event"
    },
    {
      "anonymous": false,
      "inputs": [
        {
          "indexed": false,
          "internalType": "uint256",
          "name": "totalEarned",
          "type": "uint256"
        }
      ],
      "name": "ZaaNetEarningsUpdated",
      "type": "event"
    },
    {
      "inputs": [
        {
          "internalType": "address",
          "name": "",
          "type": "address"
        }
      ],
      "name": "allowedCallers",
      "outputs": [
        {
          "internalType": "bool",
          "name": "",
          "type": "bool"
        }
      ],
      "stateMutability": "view",
      "type": "function"
    },
    {
      "inputs": [
        {
          "internalType": "uint256",
          "name": "networkId",
          "type": "uint256"
        }
      ],
      "name": "emergencyDeactivateNetwork",
      "outputs": [],
      "stateMutability": "nonpayable",
      "type": "function"
    },
    {
      "inputs": [
        {
          "internalType": "address",
          "name": "hostAddress",
          "type": "address"
        }
      ],
      "name": "getHostEarnings",
      "outputs": [
        {
          "internalType": "uint256",
          "name": "",
          "type": "uint256"
        }
      ],
      "stateMutability": "view",
      "type": "function"
    },
    {
      "inputs": [
        {
          "internalType": "address",
          "name": "hostAddress",
          "type": "address"
        }
      ],
      "name": "getHostNetworks",
      "outputs": [
        {
          "internalType": "uint256[]",
          "name": "",
          "type": "uint256[]"
        }
      ],
      "stateMutability": "view",
      "type": "function"
    },
    {
      "inputs": [
        {
          "internalType": "uint256",
          "name": "id",
          "type": "uint256"
        }
      ],
      "name": "getNetwork",
      "outputs": [
        {
          "components": [
            {
              "internalType": "uint256",
              "name": "id",
              "type": "uint256"
            },
            {
              "internalType": "address",
              "name": "hostAddress",
              "type": "address"
            },
            {
              "internalType": "uint256",
              "name": "pricePerSession",
              "type": "uint256"
            },
            {
              "internalType": "string",
              "name": "mongoDataId",
              "type": "string"
            },
            {
              "internalType": "bool",
              "name": "isActive",
              "type": "bool"
            },
            {
              "internalType": "uint256",
              "name": "createdAt",
              "type": "uint256"
            },
            {
              "internalType": "uint256",
              "name": "updatedAt",
              "type": "uint256"
            }
          ],
          "internalType": "struct ZaaNetStorage.Network",
          "name": "",
          "type": "tuple"
        }
      ],
      "stateMutability": "view",
      "type": "function"
    },
    {
      "inputs": [
        {
          "internalType": "uint256",
          "name": "offset",
          "type": "uint256"
        },
        {
          "internalType": "uint256",
          "name": "limit",
          "type": "uint256"
        }
      ],
      "name": "getNetworksPaginated",
      "outputs": [
        {
          "components": [
            {
              "internalType": "uint256",
              "name": "id",
              "type": "uint256"
            },
            {
              "internalType": "address",
              "name": "hostAddress",
              "type": "address"
            },
            {
              "internalType": "uint256",
              "name": "pricePerSession",
              "type": "uint256"
            },
            {
              "internalType": "string",
              "name": "mongoDataId",
              "type": "string"
            },
            {
              "internalType": "bool",
              "name": "isActive",
              "type": "bool"
            },
            {
              "internalType": "uint256",
              "name": "createdAt",
              "type": "uint256"
            },
            {
              "internalType": "uint256",
              "name": "updatedAt",
              "type": "uint256"
            }
          ],
          "internalType": "struct ZaaNetStorage.Network[]",
          "name": "",
          "type": "tuple[]"
        },
        {
          "internalType": "uint256",
          "name": "total",
          "type": "uint256"
        }
      ],
      "stateMutability": "view",
      "type": "function"
    },
    {
      "inputs": [],
      "name": "getZaaNetEarnings",
      "outputs": [
        {
          "internalType": "uint256",
          "name": "",
          "type": "uint256"
        }
      ],
      "stateMutability": "view",
      "type": "function"
    },
    {
      "inputs": [
        {
          "internalType": "address",
          "name": "",
          "type": "address"
        }
      ],
      "name": "hostEarnings",
      "outputs": [
        {
          "internalType": "uint256",
          "name": "",
          "type": "uint256"
        }
      ],
      "stateMutability": "view",
      "type": "function"
    },
    {
      "inputs": [
        {
          "internalType": "address",
          "name": "",
          "type": "address"
        },
        {
          "internalType": "uint256",
          "name": "",
          "type": "uint256"
        }
      ],
      "name": "hostNetworkIds",
      "outputs": [
        {
          "internalType": "uint256",
          "name": "",
          "type": "uint256"
        }
      ],
      "stateMutability": "view",
      "type": "function"
    },
    {
      "inputs": [
        {
          "internalType": "address",
          "name": "hostAddress",
          "type": "address"
        },
        {
          "internalType": "uint256",
          "name": "amount",
          "type": "uint256"
        }
      ],
      "name": "increaseHostEarnings",
      "outputs": [],
      "stateMutability": "nonpayable",
      "type": "function"
    },
    {
      "inputs": [
        {
          "internalType": "uint256",
          "name": "amount",
          "type": "uint256"
        }
      ],
      "name": "increaseZaaNetEarnings",
      "outputs": [],
      "stateMutability": "nonpayable",
      "type": "function"
    },
    {
      "inputs": [],
      "name": "incrementNetworkId",
      "outputs": [
        {
          "internalType": "uint256",
          "name": "",
          "type": "uint256"
        }
      ],
      "stateMutability": "nonpayable",
      "type": "function"
    },
    {
      "inputs": [
        {
          "internalType": "uint256",
          "name": "",
          "type": "uint256"
        }
      ],
      "name": "networkExists",
      "outputs": [
        {
          "internalType": "bool",
          "name": "",
          "type": "bool"
        }
      ],
      "stateMutability": "view",
      "type": "function"
    },
    {
      "inputs": [],
      "name": "networkIdCounter",
      "outputs": [
        {
          "internalType": "uint256",
          "name": "",
          "type": "uint256"
        }
      ],
      "stateMutability": "view",
      "type": "function"
    },
    {
      "inputs": [
        {
          "internalType": "uint256",
          "name": "",
          "type": "uint256"
        }
      ],
      "name": "networks",
      "outputs": [
        {
          "internalType": "uint256",
          "name": "id",
          "type": "uint256"
        },
        {
          "internalType": "address",
          "name": "hostAddress",
          "type": "address"
        },
        {
          "internalType": "uint256",
          "name": "pricePerSession",
          "type": "uint256"
        },
        {
          "internalType": "string",
          "name": "mongoDataId",
          "type": "string"
        },
        {
          "internalType": "bool",
          "name": "isActive",
          "type": "bool"
        },
        {
          "internalType": "uint256",
          "name": "createdAt",
          "type": "uint256"
        },
        {
          "internalType": "uint256",
          "name": "updatedAt",
          "type": "uint256"
        }
      ],
      "stateMutability": "view",
      "type": "function"
    },
    {
      "inputs": [],
      "name": "owner",
      "outputs": [
        {
          "internalType": "address",
          "name": "",
          "type": "address"
        }
      ],
      "stateMutability": "view",
      "type": "function"
    },
    {
      "inputs": [],
      "name": "renounceOwnership",
      "outputs": [],
      "stateMutability": "nonpayable",
      "type": "function"
    },
    {
      "inputs": [
        {
          "internalType": "uint256",
          "name": "",
          "type": "uint256"
        }
      ],
      "name": "sessionExists",
      "outputs": [
        {
          "internalType": "bool",
          "name": "",
          "type": "bool"
        }
      ],
      "stateMutability": "view",
      "type": "function"
    },
    {
      "inputs": [
        {
          "internalType": "address",
          "name": "_caller",
          "type": "address"
        },
        {
          "internalType": "bool",
          "name": "status",
          "type": "bool"
        }
      ],
      "name": "setAllowedCaller",
      "outputs": [],
      "stateMutability": "nonpayable",
      "type": "function"
    },
    {
      "inputs": [
        {
          "internalType": "address[]",
          "name": "_callers",
          "type": "address[]"
        },
        {
          "internalType": "bool",
          "name": "status",
          "type": "bool"
        }
      ],
      "name": "setAllowedCallers",
      "outputs": [],
      "stateMutability": "nonpayable",
      "type": "function"
    },
    {
      "inputs": [
        {
          "internalType": "uint256",
          "name": "id",
          "type": "uint256"
        },
        {
          "components": [
            {
              "internalType": "uint256",
              "name": "id",
              "type": "uint256"
            },
            {
              "internalType": "address",
              "name": "hostAddress",
              "type": "address"
            },
            {
              "internalType": "uint256",
              "name": "pricePerSession",
              "type": "uint256"
            },
            {
              "internalType": "string",
              "name": "mongoDataId",
              "type": "string"
            },
            {
              "internalType": "bool",
              "name": "isActive",
              "type": "bool"
            },
            {
              "internalType": "uint256",
              "name": "createdAt",
              "type": "uint256"
            },
            {
              "internalType": "uint256",
              "name": "updatedAt",
              "type": "uint256"
            }
          ],
          "internalType": "struct ZaaNetStorage.Network",
          "name": "net",
          "type": "tuple"
        }
      ],
      "name": "setNetwork",
      "outputs": [],
      "stateMutability": "nonpayable",
      "type": "function"
    },
    {
      "inputs": [
        {
          "internalType": "address",
          "name": "newOwner",
          "type": "address"
        }
      ],
      "name": "transferOwnership",
      "outputs": [],
      "stateMutability": "nonpayable",
      "type": "function"
    },
    {
      "inputs": [],
      "name": "zaanetEarnings",
      "outputs": [
        {
          "internalType": "uint256",
          "name": "",
          "type": "uint256"
        }
      ],
      "stateMutability": "view",
      "type": "function"
    }
  ],
  "bytecode": "0x60808060405234607e57331560685760008054336001600160a01b0319821681178355916001600160a01b03909116907f8be0079c531659141344cd1fd0a4f28419497f9722a3daafe3b4186f6b6457e09080a36001805560006004556114e190816100848239f35b631e4fbdf760e01b600052600060045260246000fd5b600080fdfe608080604052600436101561001357600080fd5b60003560e01c908163217c682d14610e965750806322a4808b14610e7857806329c718b5146107e05780634ce083be14610e7857806350c0d41c146109915780635290ffc6146109165780635a2f406f1461088b57806369009a131461081a5780636d65573f146107e0578063715018a61461078757806373f9a5d71461066c57806379f0dc57146105b25780637b334154146105735780637bae8f5e1461051a578063879ecf10146104e95780638bb0a17c146104565780638da5cb5b1461042d57806395ea5717146103c6578063d8b0e71614610337578063e1c7a8aa14610262578063ec13f2a114610231578063f2fde38b146101a85763fa9c81a41461011c57600080fd5b346101a35760403660031901126101a35761013b60243560043561134f565b9060405190604082016040835281518091526060830190602060608260051b8601019301916000905b828210610178578580868960208301520390f35b90919293602080610195600193605f198a82030186528851611061565b960192019201909291610164565b600080fd5b346101a35760203660031901126101a3576101c1610eb1565b6101c9611460565b6001600160a01b0316801561021b57600080546001600160a01b03198116831782556001600160a01b0316907f8be0079c531659141344cd1fd0a4f28419497f9722a3daafe3b4186f6b6457e09080a3005b631e4fbdf760e01b600052600060045260246000fd5b346101a35760203660031901126101a3576004356000526008602052602060ff604060002054166040519015158152f35b346101a35760403660031901126101a35761027b610eb1565b6024359033600052600260205260ff604060002054168015610323575b6102a1906110bd565b6102a9611489565b6001600160a01b0316906102be82151561110e565b6102c98115156111c9565b8160005260066020526102e26040600020918254611215565b90558060005260066020527f61a8b1a557e4d03803db90d13ff76db2c25fba3ed24882cecda8c8423b9b2be06020604060002054604051908152a260018055005b506000546001600160a01b03163314610298565b346101a35760403660031901126101a357610350610eb1565b7fd6fc3082ae3a144ca59421d96180398241c1dd021d45d5a24fb5bf96c9f8212f602061037b610ec7565b92610384611460565b6001600160a01b031692610399841515611232565b83600052600282526103bb8160406000209060ff801983541691151516179055565b6040519015158152a2005b346101a35760203660031901126101a3576004356103e2611277565b508060005260086020526103fd60ff60406000205416611184565b600052600560205261042961041560406000206112ae565b604051918291602083526020830190611061565b0390f35b346101a35760003660031901126101a3576000546040516001600160a01b039091168152602090f35b346101a35760203660031901126101a35760043560005260056020526040600020805460018060a01b0360018301541691600281015461049860038301610f7c565b916104d360ff60048301541693600660058401549301549360405197889788526020880152604087015260e0606087015260e0860190611020565b921515608085015260a084015260c08301520390f35b346101a35760203660031901126101a3576004356000526009602052602060ff604060002054166040519015158152f35b346101a35760403660031901126101a357610533610eb1565b6001600160a01b03166000908152600760205260409020805460243591908210156101a35760209161056491610ed6565b90549060031b1c604051908152f35b346101a35760203660031901126101a3576001600160a01b03610594610eb1565b166000526002602052602060ff604060002054166040519015158152f35b346101a35760203660031901126101a3576001600160a01b036105d3610eb1565b16600052600760205260406000206040518060208354918281520190819360005260206000209060005b8181106106565750505081610613910382610f5a565b6040519182916020830190602084525180915260408301919060005b81811061063d575050500390f35b825184528594506020938401939092019160010161062f565b82548452602090930192600192830192016105fd565b346101a35760403660031901126101a35760043567ffffffffffffffff81116101a357366023820112156101a357806004013567ffffffffffffffff81116101a3576024820191602436918360051b0101116101a3576106ca610ec7565b6106d2611460565b8015159060005b8381106106e257005b60019061070b6001600160a01b036107036106fe84898b611222565b6110fa565b161515611232565b818060a01b0361071f6106fe83888a611222565b1660005260026020526107428360406000209060ff801983541691151516179055565b818060a01b036107566106fe83888a611222565b167fd6fc3082ae3a144ca59421d96180398241c1dd021d45d5a24fb5bf96c9f8212f6020604051878152a2016106d9565b346101a35760003660031901126101a3576107a0611460565b600080546001600160a01b0319811682556001600160a01b03167f8be0079c531659141344cd1fd0a4f28419497f9722a3daafe3b4186f6b6457e08280a3005b346101a35760203660031901126101a3576001600160a01b03610801610eb1565b1660005260066020526020604060002054604051908152f35b346101a35760203660031901126101a35761086e60043533600052600260205260ff604060002054168015610877575b610853906110bd565b61085b611489565b6108668115156111c9565b600454611215565b60045560018055005b506000546001600160a01b0316331461084a565b346101a35760203660031901126101a3576004356108a7611460565b8060005260086020526108c160ff60406000205416611184565b600081815260056020526040812060048101805460ff19169055426006820155600101546001600160a01b031691907f14796949d4d1a6824063ec05e354db666bde3356a8cf646c6075272b5353185c9080a3005b346101a35760003660031901126101a35733600052600260205260ff60406000205416801561097d575b610949906110bd565b60035460001981146109675760016020910180600355604051908152f35b634e487b7160e01b600052601160045260246000fd5b506000546001600160a01b03163314610940565b346101a35760403660031901126101a35760243560043567ffffffffffffffff82116101a357816004019160e060031982360301126101a35733600052600260205260ff604060002054168015610e64575b6109ec906110bd565b8115610e2a576024810190610a136001600160a01b03610a0b846110fa565b16151561110e565b6044810135938415610de55760648201610a2d8183611151565b905015610da957846000526008602052608460ff604060002054161593610a5d610a56876110fa565b9385611151565b9290910135908115158092036101a3578515610d915742925b60405195610a8387610f3e565b3586526001600160a01b0390941660208601908152604086018a8152909467ffffffffffffffff8111610c7a5760405192610ac8601f8301601f191660200185610f5a565b81845236828201116101a357816000926020928387013784010152606086019182526080860192835260a086019384524260c0870190815260008a81526005602052604090209651875594516001870180546001600160a01b0319166001600160a01b0392909216919091179055516002860155518051600386019167ffffffffffffffff8211610c7a57610b5d8354610f04565b601f8111610d49575b50602090601f8311600114610cd9579180610bb79492600698979694600092610cce575b50508160011b916000199060031b1c19161790555b511515600486019060ff801983541691151516179055565b5160058401555191015515610c90576000828152600860205260409020805460ff191660011790556001600160a01b03610bf0826110fa565b16600052600760205260406000209081549068010000000000000000821015610c7a57610c46827f3a3ee326dd9451112d67d1babdaf697562d06e41e2571ddd356b4e9be0de478e946001602095018155610ed6565b815460001960039290921b91821b19169086901b1790556001600160a01b0390610c6f906110fa565b1693604051908152a3005b634e487b7160e01b600052604160045260246000fd5b9091506001600160a01b0390610ca5906110fa565b16907f14796949d4d1a6824063ec05e354db666bde3356a8cf646c6075272b5353185c600080a3005b015190508d80610b8a565b90601f1983169184600052816000209260005b818110610d31575092600192859260069a999896610bb7989610610d18575b505050811b019055610b9f565b015160001960f88460031b161c191690558d8080610d0b565b92936020600181928786015181550195019301610cec565b836000526020600020601f840160051c81019160208510610d87575b601f0160051c01905b818110610d7b5750610b66565b60008155600101610d6e565b9091508190610d65565b87600052600560205260056040600020015492610a76565b60405162461bcd60e51b8152602060048201526014602482015273135bdb99dbd1185d185251081c995c5d5a5c995960621b6044820152606490fd5b60405162461bcd60e51b815260206004820152601c60248201527f5072696365206d7573742062652067726561746572207468616e2030000000006044820152606490fd5b60405162461bcd60e51b8152602060048201526012602482015271125b9d985b1a59081b995d1ddbdc9ac8125160721b6044820152606490fd5b506000546001600160a01b031633146109e3565b346101a35760003660031901126101a3576020600454604051908152f35b346101a35760003660031901126101a3576020906003548152f35b600435906001600160a01b03821682036101a357565b6024359081151582036101a357565b8054821015610eee5760005260206000200190600090565b634e487b7160e01b600052603260045260246000fd5b90600182811c92168015610f34575b6020831014610f1e57565b634e487b7160e01b600052602260045260246000fd5b91607f1691610f13565b60e0810190811067ffffffffffffffff821117610c7a57604052565b90601f8019910116810190811067ffffffffffffffff821117610c7a57604052565b9060405191826000825492610f9084610f04565b8084529360018116908115610ffe5750600114610fb7575b50610fb592500383610f5a565b565b90506000929192526020600020906000915b818310610fe2575050906020610fb59282010138610fa8565b6020919350806001915483858901015201910190918492610fc9565b905060209250610fb594915060ff191682840152151560051b82010138610fa8565b919082519283825260005b84811061104c575050826000602080949584010152601f8019910116010190565b8060208092840101518282860101520161102b565b908151815260018060a01b0360208301511660208201526040820151604082015260c08061109e606085015160e0606086015260e0850190611020565b9360808101511515608085015260a081015160a0850152015191015290565b156110c457565b60405162461bcd60e51b815260206004820152600e60248201526d139bdd08185d5d1a1bdc9a5e995960921b6044820152606490fd5b356001600160a01b03811681036101a35790565b1561111557565b60405162461bcd60e51b8152602060048201526014602482015273496e76616c696420686f7374206164647265737360601b6044820152606490fd5b903590601e19813603018212156101a3570180359067ffffffffffffffff82116101a3576020019181360383136101a357565b1561118b57565b60405162461bcd60e51b815260206004820152601660248201527513995d1ddbdc9ac8191bd95cc81b9bdd08195e1a5cdd60521b6044820152606490fd5b156111d057565b60405162461bcd60e51b815260206004820152601d60248201527f416d6f756e74206d7573742062652067726561746572207468616e20300000006044820152606490fd5b9190820180921161096757565b9190811015610eee5760051b0190565b1561123957565b60405162461bcd60e51b8152602060048201526016602482015275496e76616c69642063616c6c6572206164647265737360501b6044820152606490fd5b6040519061128482610f3e565b600060c0838281528260208201528260408201526060808201528260808201528260a08201520152565b906040516112bb81610f3e565b8254815260018301546001600160a01b031660208201526002830154604082015291829060c0906006906112f160038201610f7c565b606085015260ff60048201541615156080850152600581015460a08501520154910152565b67ffffffffffffffff8111610c7a5760051b60200190565b9190820391821161096757565b8051821015610eee5760209160051b010190565b600354929183821015611424576113669082611215565b83811161141d575b611378828261132e565b9161138283611316565b926113906040519485610f5a565b80845261139f601f1991611316565b0160005b818110611406575050805b8281106113bc575050509190565b60018101908181116109675760019160005260056020526113ff60406000206113ee6113e8868561132e565b916112ae565b6113f8828961133b565b528661133b565b50016113ae565b602090611411611277565b828288010152016113a3565b508261136e565b50506040516000611436602083610f5a565b81526000805b8181106114495750509190565b602090611454611277565b8282860101520161143c565b6000546001600160a01b0316330361147457565b63118cdaa760e01b6000523360045260246000fd5b60026001541461149a576002600155565b633ee5aeb560e01b60005260046000fdfea2646970667358221220e0dccc0601c187e252de40a7942ded4529a09ba4e9e9b1ec97efa3889f8b374e64736f6c634300081c0033",
  "linkReferences": {},
  "deployedLinkReferences": {}
}