{
  "_format": "hh-sol-artifact-1",
  "contractName": "ZaaNetStorage",
  "sourceName": "contracts/ZaaNetStorage.sol",
  "abi": [
    {
      "inputs": [],
      "stateMutability": "nonpayable",
      "type": "constructor"
    },
    {
      "anonymous": false,
      "inputs": [
        {
          "indexed": true,
          "internalType": "address",
          "name": "caller",
          "type": "address"
        },
        {
          "indexed": false,
          "internalType": "bool",
          "name": "status",
          "type": "bool"
        }
      ],
      "name": "AllowedCallerUpdated",
      "type": "event"
    },
    {
      "anonymous": false,
      "inputs": [
        {
          "indexed": true,
          "internalType": "address",
          "name": "host",
          "type": "address"
        },
        {
          "indexed": false,
          "internalType": "uint256",
          "name": "totalEarned",
          "type": "uint256"
        }
      ],
      "name": "HostEarningsUpdated",
      "type": "event"
    },
    {
      "anonymous": false,
      "inputs": [
        {
          "indexed": true,
          "internalType": "uint256",
          "name": "id",
          "type": "uint256"
        },
        {
          "indexed": true,
          "internalType": "address",
          "name": "host",
          "type": "address"
        }
      ],
      "name": "NetworkStored",
      "type": "event"
    },
    {
      "anonymous": false,
      "inputs": [
        {
          "indexed": true,
          "internalType": "address",
          "name": "user",
          "type": "address"
        },
        {
          "indexed": true,
          "internalType": "uint256",
          "name": "networkId",
          "type": "uint256"
        }
      ],
      "name": "RatingMarked",
      "type": "event"
    },
    {
      "anonymous": false,
      "inputs": [
        {
          "indexed": true,
          "internalType": "uint256",
          "name": "sessionId",
          "type": "uint256"
        },
        {
          "indexed": true,
          "internalType": "address",
          "name": "guest",
          "type": "address"
        }
      ],
      "name": "SessionStored",
      "type": "event"
    },
    {
      "inputs": [
        {
          "internalType": "address",
          "name": "",
          "type": "address"
        }
      ],
      "name": "allowedCallers",
      "outputs": [
        {
          "internalType": "bool",
          "name": "",
          "type": "bool"
        }
      ],
      "stateMutability": "view",
      "type": "function"
    },
    {
      "inputs": [
        {
          "internalType": "address",
          "name": "host",
          "type": "address"
        }
      ],
      "name": "getHostEarnings",
      "outputs": [
        {
          "internalType": "uint256",
          "name": "",
          "type": "uint256"
        }
      ],
      "stateMutability": "view",
      "type": "function"
    },
    {
      "inputs": [
        {
          "internalType": "uint256",
          "name": "id",
          "type": "uint256"
        }
      ],
      "name": "getNetwork",
      "outputs": [
        {
          "components": [
            {
              "internalType": "uint256",
              "name": "id",
              "type": "uint256"
            },
            {
              "internalType": "address",
              "name": "host",
              "type": "address"
            },
            {
              "internalType": "uint256",
              "name": "price",
              "type": "uint256"
            },
            {
              "internalType": "string",
              "name": "metadataCID",
              "type": "string"
            },
            {
              "internalType": "bool",
              "name": "isActive",
              "type": "bool"
            },
            {
              "internalType": "uint256",
              "name": "totalRating",
              "type": "uint256"
            },
            {
              "internalType": "uint256",
              "name": "ratingCount",
              "type": "uint256"
            },
            {
              "internalType": "uint256",
              "name": "successfulSessions",
              "type": "uint256"
            }
          ],
          "internalType": "struct ZaaNetStorage.Network",
          "name": "",
          "type": "tuple"
        }
      ],
      "stateMutability": "view",
      "type": "function"
    },
    {
      "inputs": [
        {
          "internalType": "uint256",
          "name": "id",
          "type": "uint256"
        }
      ],
      "name": "getSession",
      "outputs": [
        {
          "components": [
            {
              "internalType": "uint256",
              "name": "sessionId",
              "type": "uint256"
            },
            {
              "internalType": "uint256",
              "name": "networkId",
              "type": "uint256"
            },
            {
              "internalType": "address",
              "name": "guest",
              "type": "address"
            },
            {
              "internalType": "uint256",
              "name": "duration",
              "type": "uint256"
            },
            {
              "internalType": "uint256",
              "name": "amount",
              "type": "uint256"
            },
            {
              "internalType": "bool",
              "name": "active",
              "type": "bool"
            }
          ],
          "internalType": "struct ZaaNetStorage.Session",
          "name": "",
          "type": "tuple"
        }
      ],
      "stateMutability": "view",
      "type": "function"
    },
    {
      "inputs": [
        {
          "internalType": "address",
          "name": "",
          "type": "address"
        },
        {
          "internalType": "uint256",
          "name": "",
          "type": "uint256"
        }
      ],
      "name": "hasRated",
      "outputs": [
        {
          "internalType": "bool",
          "name": "",
          "type": "bool"
        }
      ],
      "stateMutability": "view",
      "type": "function"
    },
    {
      "inputs": [
        {
          "internalType": "address",
          "name": "",
          "type": "address"
        }
      ],
      "name": "hostEarnings",
      "outputs": [
        {
          "internalType": "uint256",
          "name": "",
          "type": "uint256"
        }
      ],
      "stateMutability": "view",
      "type": "function"
    },
    {
      "inputs": [
        {
          "internalType": "address",
          "name": "host",
          "type": "address"
        },
        {
          "internalType": "uint256",
          "name": "amount",
          "type": "uint256"
        }
      ],
      "name": "increaseHostEarnings",
      "outputs": [],
      "stateMutability": "nonpayable",
      "type": "function"
    },
    {
      "inputs": [],
      "name": "incrementNetworkId",
      "outputs": [
        {
          "internalType": "uint256",
          "name": "",
          "type": "uint256"
        }
      ],
      "stateMutability": "nonpayable",
      "type": "function"
    },
    {
      "inputs": [],
      "name": "incrementSessionId",
      "outputs": [
        {
          "internalType": "uint256",
          "name": "",
          "type": "uint256"
        }
      ],
      "stateMutability": "nonpayable",
      "type": "function"
    },
    {
      "inputs": [
        {
          "internalType": "uint256",
          "name": "id",
          "type": "uint256"
        }
      ],
      "name": "incrementSuccessfulSessions",
      "outputs": [],
      "stateMutability": "nonpayable",
      "type": "function"
    },
    {
      "inputs": [
        {
          "internalType": "address",
          "name": "user",
          "type": "address"
        },
        {
          "internalType": "uint256",
          "name": "networkId",
          "type": "uint256"
        }
      ],
      "name": "markRated",
      "outputs": [],
      "stateMutability": "nonpayable",
      "type": "function"
    },
    {
      "inputs": [],
      "name": "networkIdCounter",
      "outputs": [
        {
          "internalType": "uint256",
          "name": "",
          "type": "uint256"
        }
      ],
      "stateMutability": "view",
      "type": "function"
    },
    {
      "inputs": [
        {
          "internalType": "uint256",
          "name": "",
          "type": "uint256"
        }
      ],
      "name": "networks",
      "outputs": [
        {
          "internalType": "uint256",
          "name": "id",
          "type": "uint256"
        },
        {
          "internalType": "address",
          "name": "host",
          "type": "address"
        },
        {
          "internalType": "uint256",
          "name": "price",
          "type": "uint256"
        },
        {
          "internalType": "string",
          "name": "metadataCID",
          "type": "string"
        },
        {
          "internalType": "bool",
          "name": "isActive",
          "type": "bool"
        },
        {
          "internalType": "uint256",
          "name": "totalRating",
          "type": "uint256"
        },
        {
          "internalType": "uint256",
          "name": "ratingCount",
          "type": "uint256"
        },
        {
          "internalType": "uint256",
          "name": "successfulSessions",
          "type": "uint256"
        }
      ],
      "stateMutability": "view",
      "type": "function"
    },
    {
      "inputs": [],
      "name": "owner",
      "outputs": [
        {
          "internalType": "address",
          "name": "",
          "type": "address"
        }
      ],
      "stateMutability": "view",
      "type": "function"
    },
    {
      "inputs": [],
      "name": "sessionIdCounter",
      "outputs": [
        {
          "internalType": "uint256",
          "name": "",
          "type": "uint256"
        }
      ],
      "stateMutability": "view",
      "type": "function"
    },
    {
      "inputs": [
        {
          "internalType": "uint256",
          "name": "",
          "type": "uint256"
        }
      ],
      "name": "sessions",
      "outputs": [
        {
          "internalType": "uint256",
          "name": "sessionId",
          "type": "uint256"
        },
        {
          "internalType": "uint256",
          "name": "networkId",
          "type": "uint256"
        },
        {
          "internalType": "address",
          "name": "guest",
          "type": "address"
        },
        {
          "internalType": "uint256",
          "name": "duration",
          "type": "uint256"
        },
        {
          "internalType": "uint256",
          "name": "amount",
          "type": "uint256"
        },
        {
          "internalType": "bool",
          "name": "active",
          "type": "bool"
        }
      ],
      "stateMutability": "view",
      "type": "function"
    },
    {
      "inputs": [
        {
          "internalType": "address",
          "name": "_caller",
          "type": "address"
        },
        {
          "internalType": "bool",
          "name": "status",
          "type": "bool"
        }
      ],
      "name": "setAllowedCaller",
      "outputs": [],
      "stateMutability": "nonpayable",
      "type": "function"
    },
    {
      "inputs": [
        {
          "internalType": "uint256",
          "name": "id",
          "type": "uint256"
        },
        {
          "components": [
            {
              "internalType": "uint256",
              "name": "id",
              "type": "uint256"
            },
            {
              "internalType": "address",
              "name": "host",
              "type": "address"
            },
            {
              "internalType": "uint256",
              "name": "price",
              "type": "uint256"
            },
            {
              "internalType": "string",
              "name": "metadataCID",
              "type": "string"
            },
            {
              "internalType": "bool",
              "name": "isActive",
              "type": "bool"
            },
            {
              "internalType": "uint256",
              "name": "totalRating",
              "type": "uint256"
            },
            {
              "internalType": "uint256",
              "name": "ratingCount",
              "type": "uint256"
            },
            {
              "internalType": "uint256",
              "name": "successfulSessions",
              "type": "uint256"
            }
          ],
          "internalType": "struct ZaaNetStorage.Network",
          "name": "net",
          "type": "tuple"
        }
      ],
      "name": "setNetwork",
      "outputs": [],
      "stateMutability": "nonpayable",
      "type": "function"
    },
    {
      "inputs": [
        {
          "internalType": "uint256",
          "name": "id",
          "type": "uint256"
        },
        {
          "components": [
            {
              "internalType": "uint256",
              "name": "sessionId",
              "type": "uint256"
            },
            {
              "internalType": "uint256",
              "name": "networkId",
              "type": "uint256"
            },
            {
              "internalType": "address",
              "name": "guest",
              "type": "address"
            },
            {
              "internalType": "uint256",
              "name": "duration",
              "type": "uint256"
            },
            {
              "internalType": "uint256",
              "name": "amount",
              "type": "uint256"
            },
            {
              "internalType": "bool",
              "name": "active",
              "type": "bool"
            }
          ],
          "internalType": "struct ZaaNetStorage.Session",
          "name": "session",
          "type": "tuple"
        }
      ],
      "name": "setSession",
      "outputs": [],
      "stateMutability": "nonpayable",
      "type": "function"
    }
  ],
  "bytecode": "0x6080604052348015600f57600080fd5b50336000806101000a81548173ffffffffffffffffffffffffffffffffffffffff021916908373ffffffffffffffffffffffffffffffffffffffff1602179055506120758061005f6000396000f3fe608060405234801561001057600080fd5b50600436106101215760003560e01c80636d65573f116100ad57806395ea57171161007157806395ea57171461033a578063cc5076411461036a578063d25468b314610388578063d8b0e716146103b8578063e1c7a8aa146103d457610121565b80636d65573f146102505780637b3341541461028057806383c4b7a3146102b05780638bb0a17c146102e55780638da5cb5b1461031c57610121565b8063402ff0db116100f4578063402ff0db146101ac5780634a4793e8146101dc5780635290ffc6146101f8578063584c5469146102165780635a29352d1461023257610121565b8063217c682d1461012657806329c718b51461014457806339fdf71e146101745780633bec83e914610190575b600080fd5b61012e6103f0565b60405161013b9190611129565b60405180910390f35b61015e600480360381019061015991906111ac565b6103f6565b60405161016b9190611129565b60405180910390f35b61018e60048036038101906101899190611229565b61040e565b005b6101aa60048036038101906101a59190611269565b610517565b005b6101c660048036038101906101c191906112a9565b610654565b6040516101d3919061138a565b60405180910390f35b6101f660048036038101906101f191906112a9565b61071a565b005b6102006107d7565b60405161020d9190611129565b60405180910390f35b610230600480360381019061022b91906113c5565b61087f565b005b61023a610988565b6040516102479190611129565b60405180910390f35b61026a600480360381019061026591906111ac565b61098e565b6040516102779190611129565b60405180910390f35b61029a600480360381019061029591906111ac565b6109d7565b6040516102a79190611430565b60405180910390f35b6102ca60048036038101906102c591906112a9565b6109f7565b6040516102dc9695949392919061145a565b60405180910390f35b6102ff60048036038101906102fa91906112a9565b610a60565b60405161031398979695949392919061154b565b60405180910390f35b610324610b5d565b60405161033191906115d0565b60405180910390f35b610354600480360381019061034f91906112a9565b610b81565b60405161036191906116e5565b60405180910390f35b610372610ce4565b60405161037f9190611129565b60405180910390f35b6103a2600480360381019061039d9190611269565b610d8c565b6040516103af9190611430565b60405180910390f35b6103d260048036038101906103cd9190611733565b610dbb565b005b6103ee60048036038101906103e99190611269565b610ef2565b005b60025481565b60076020528060005260406000206000915090505481565b600160003373ffffffffffffffffffffffffffffffffffffffff1673ffffffffffffffffffffffffffffffffffffffff16815260200190815260200160002060009054906101000a900460ff1661049a576040517f08c379a0000000000000000000000000000000000000000000000000000000008152600401610491906117bf565b60405180910390fd5b806005600084815260200190815260200160002081816104ba9190611a9e565b9050508060400160208101906104d091906111ac565b73ffffffffffffffffffffffffffffffffffffffff16827fad976a6a5b0477ee777ef0a15663a5de72a5f5f19915a723cbb3b53be0565d0960405160405180910390a35050565b600160003373ffffffffffffffffffffffffffffffffffffffff1673ffffffffffffffffffffffffffffffffffffffff16815260200190815260200160002060009054906101000a900460ff166105a3576040517f08c379a000000000000000000000000000000000000000000000000000000000815260040161059a906117bf565b60405180910390fd5b6001600660008473ffffffffffffffffffffffffffffffffffffffff1673ffffffffffffffffffffffffffffffffffffffff168152602001908152602001600020600083815260200190815260200160002060006101000a81548160ff021916908315150217905550808273ffffffffffffffffffffffffffffffffffffffff167f4c6a466fa2b746b187bf19c00ffb248ebb6ade4cba4d2237962424a7901387e260405160405180910390a35050565b61065c611065565b600560008381526020019081526020016000206040518060c001604052908160008201548152602001600182015481526020016002820160009054906101000a900473ffffffffffffffffffffffffffffffffffffffff1673ffffffffffffffffffffffffffffffffffffffff1673ffffffffffffffffffffffffffffffffffffffff16815260200160038201548152602001600482015481526020016005820160009054906101000a900460ff1615151515815250509050919050565b600160003373ffffffffffffffffffffffffffffffffffffffff1673ffffffffffffffffffffffffffffffffffffffff16815260200190815260200160002060009054906101000a900460ff166107a6576040517f08c379a000000000000000000000000000000000000000000000000000000000815260040161079d906117bf565b60405180910390fd5b60016004600083815260200190815260200160002060070160008282546107cd9190611adb565b9250508190555050565b6000600160003373ffffffffffffffffffffffffffffffffffffffff1673ffffffffffffffffffffffffffffffffffffffff16815260200190815260200160002060009054906101000a900460ff16610865576040517f08c379a000000000000000000000000000000000000000000000000000000000815260040161085c906117bf565b60405180910390fd5b60026000815461087490611b0f565b919050819055905090565b600160003373ffffffffffffffffffffffffffffffffffffffff1673ffffffffffffffffffffffffffffffffffffffff16815260200190815260200160002060009054906101000a900460ff1661090b576040517f08c379a0000000000000000000000000000000000000000000000000000000008152600401610902906117bf565b60405180910390fd5b8060046000848152602001908152602001600020818161092b9190611fc5565b90505080602001602081019061094191906111ac565b73ffffffffffffffffffffffffffffffffffffffff16827f0873f950850801214fffec86ac5c749cad697b14a4f2683a91cde3dd05c80c7a60405160405180910390a35050565b60035481565b6000600760008373ffffffffffffffffffffffffffffffffffffffff1673ffffffffffffffffffffffffffffffffffffffff168152602001908152602001600020549050919050565b60016020528060005260406000206000915054906101000a900460ff1681565b60056020528060005260406000206000915090508060000154908060010154908060020160009054906101000a900473ffffffffffffffffffffffffffffffffffffffff16908060030154908060040154908060050160009054906101000a900460ff16905086565b60046020528060005260406000206000915090508060000154908060010160009054906101000a900473ffffffffffffffffffffffffffffffffffffffff1690806002015490806003018054610ab590611c32565b80601f0160208091040260200160405190810160405280929190818152602001828054610ae190611c32565b8015610b2e5780601f10610b0357610100808354040283529160200191610b2e565b820191906000526020600020905b815481529060010190602001808311610b1157829003601f168201915b5050505050908060040160009054906101000a900460ff16908060050154908060060154908060070154905088565b60008054906101000a900473ffffffffffffffffffffffffffffffffffffffff1681565b610b896110b3565b6004600083815260200190815260200160002060405180610100016040529081600082015481526020016001820160009054906101000a900473ffffffffffffffffffffffffffffffffffffffff1673ffffffffffffffffffffffffffffffffffffffff1673ffffffffffffffffffffffffffffffffffffffff16815260200160028201548152602001600382018054610c2290611c32565b80601f0160208091040260200160405190810160405280929190818152602001828054610c4e90611c32565b8015610c9b5780601f10610c7057610100808354040283529160200191610c9b565b820191906000526020600020905b815481529060010190602001808311610c7e57829003601f168201915b505050505081526020016004820160009054906101000a900460ff1615151515815260200160058201548152602001600682015481526020016007820154815250509050919050565b6000600160003373ffffffffffffffffffffffffffffffffffffffff1673ffffffffffffffffffffffffffffffffffffffff16815260200190815260200160002060009054906101000a900460ff16610d72576040517f08c379a0000000000000000000000000000000000000000000000000000000008152600401610d69906117bf565b60405180910390fd5b600360008154610d8190611b0f565b919050819055905090565b60066020528160005260406000206020528060005260406000206000915091509054906101000a900460ff1681565b60008054906101000a900473ffffffffffffffffffffffffffffffffffffffff1673ffffffffffffffffffffffffffffffffffffffff163373ffffffffffffffffffffffffffffffffffffffff1614610e49576040517f08c379a0000000000000000000000000000000000000000000000000000000008152600401610e409061201f565b60405180910390fd5b80600160008473ffffffffffffffffffffffffffffffffffffffff1673ffffffffffffffffffffffffffffffffffffffff16815260200190815260200160002060006101000a81548160ff0219169083151502179055508173ffffffffffffffffffffffffffffffffffffffff167fd6fc3082ae3a144ca59421d96180398241c1dd021d45d5a24fb5bf96c9f8212f82604051610ee69190611430565b60405180910390a25050565b600160003373ffffffffffffffffffffffffffffffffffffffff1673ffffffffffffffffffffffffffffffffffffffff16815260200190815260200160002060009054906101000a900460ff16610f7e576040517f08c379a0000000000000000000000000000000000000000000000000000000008152600401610f75906117bf565b60405180910390fd5b80600760008473ffffffffffffffffffffffffffffffffffffffff1673ffffffffffffffffffffffffffffffffffffffff1681526020019081526020016000206000828254610fcd9190611adb565b925050819055508173ffffffffffffffffffffffffffffffffffffffff167f61a8b1a557e4d03803db90d13ff76db2c25fba3ed24882cecda8c8423b9b2be0600760008573ffffffffffffffffffffffffffffffffffffffff1673ffffffffffffffffffffffffffffffffffffffff168152602001908152602001600020546040516110599190611129565b60405180910390a25050565b6040518060c001604052806000815260200160008152602001600073ffffffffffffffffffffffffffffffffffffffff16815260200160008152602001600081526020016000151581525090565b60405180610100016040528060008152602001600073ffffffffffffffffffffffffffffffffffffffff16815260200160008152602001606081526020016000151581526020016000815260200160008152602001600081525090565b6000819050919050565b61112381611110565b82525050565b600060208201905061113e600083018461111a565b92915050565b600080fd5b600080fd5b600073ffffffffffffffffffffffffffffffffffffffff82169050919050565b60006111798261114e565b9050919050565b6111898161116e565b811461119457600080fd5b50565b6000813590506111a681611180565b92915050565b6000602082840312156111c2576111c1611144565b5b60006111d084828501611197565b91505092915050565b6111e281611110565b81146111ed57600080fd5b50565b6000813590506111ff816111d9565b92915050565b600080fd5b600060c082840312156112205761121f611205565b5b81905092915050565b60008060e083850312156112405761123f611144565b5b600061124e858286016111f0565b925050602061125f8582860161120a565b9150509250929050565b600080604083850312156112805761127f611144565b5b600061128e85828601611197565b925050602061129f858286016111f0565b9150509250929050565b6000602082840312156112bf576112be611144565b5b60006112cd848285016111f0565b91505092915050565b6112df81611110565b82525050565b6112ee8161116e565b82525050565b60008115159050919050565b611309816112f4565b82525050565b60c08201600082015161132560008501826112d6565b50602082015161133860208501826112d6565b50604082015161134b60408501826112e5565b50606082015161135e60608501826112d6565b50608082015161137160808501826112d6565b5060a082015161138460a0850182611300565b50505050565b600060c08201905061139f600083018461130f565b92915050565b600061010082840312156113bc576113bb611205565b5b81905092915050565b600080604083850312156113dc576113db611144565b5b60006113ea858286016111f0565b925050602083013567ffffffffffffffff81111561140b5761140a611149565b5b611417858286016113a5565b9150509250929050565b61142a816112f4565b82525050565b60006020820190506114456000830184611421565b92915050565b6114548161116e565b82525050565b600060c08201905061146f600083018961111a565b61147c602083018861111a565b611489604083018761144b565b611496606083018661111a565b6114a3608083018561111a565b6114b060a0830184611421565b979650505050505050565b600081519050919050565b600082825260208201905092915050565b60005b838110156114f55780820151818401526020810190506114da565b60008484015250505050565b6000601f19601f8301169050919050565b600061151d826114bb565b61152781856114c6565b93506115378185602086016114d7565b61154081611501565b840191505092915050565b600061010082019050611561600083018b61111a565b61156e602083018a61144b565b61157b604083018961111a565b818103606083015261158d8188611512565b905061159c6080830187611421565b6115a960a083018661111a565b6115b660c083018561111a565b6115c360e083018461111a565b9998505050505050505050565b60006020820190506115e5600083018461144b565b92915050565b600082825260208201905092915050565b6000611607826114bb565b61161181856115eb565b93506116218185602086016114d7565b61162a81611501565b840191505092915050565b60006101008301600083015161164e60008601826112d6565b50602083015161166160208601826112e5565b50604083015161167460408601826112d6565b506060830151848203606086015261168c82826115fc565b91505060808301516116a16080860182611300565b5060a08301516116b460a08601826112d6565b5060c08301516116c760c08601826112d6565b5060e08301516116da60e08601826112d6565b508091505092915050565b600060208201905081810360008301526116ff8184611635565b905092915050565b611710816112f4565b811461171b57600080fd5b50565b60008135905061172d81611707565b92915050565b6000806040838503121561174a57611749611144565b5b600061175885828601611197565b92505060206117698582860161171e565b9150509250929050565b7f4e6f7420617574686f72697a6564000000000000000000000000000000000000600082015250565b60006117a9600e836114c6565b91506117b482611773565b602082019050919050565b600060208201905081810360008301526117d88161179c565b9050919050565b600081356117ec816111d9565b80915050919050565b60008160001b9050919050565b60007fffffffffffffffffffffffffffffffffffffffffffffffffffffffffffffffff61182e846117f5565b9350801983169250808416831791505092915050565b6000819050919050565b600061186961186461185f84611110565b611844565b611110565b9050919050565b6000819050919050565b6118838261184e565b61189661188f82611870565b8354611802565b8255505050565b600081356118aa81611180565b80915050919050565b600073ffffffffffffffffffffffffffffffffffffffff6118d3846117f5565b9350801983169250808416831791505092915050565b60006119046118ff6118fa8461114e565b611844565b61114e565b9050919050565b6000611916826118e9565b9050919050565b60006119288261190b565b9050919050565b6000819050919050565b6119428261191d565b61195561194e8261192f565b83546118b3565b8255505050565b6000813561196981611707565b80915050919050565b600060ff61197f846117f5565b9350801983169250808416831791505092915050565b60006119a0826112f4565b9050919050565b6000819050919050565b6119ba82611995565b6119cd6119c6826119a7565b8354611972565b8255505050565b6000810160008301806119e6816117df565b90506119f2818461187a565b505050600181016020830180611a07816117df565b9050611a13818461187a565b505050600281016040830180611a288161189d565b9050611a348184611939565b505050600381016060830180611a49816117df565b9050611a55818461187a565b505050600481016080830180611a6a816117df565b9050611a76818461187a565b5050506005810160a0830180611a8b8161195c565b9050611a9781846119b1565b5050505050565b611aa882826119d4565b5050565b7f4e487b7100000000000000000000000000000000000000000000000000000000600052601160045260246000fd5b6000611ae682611110565b9150611af183611110565b9250828201905080821115611b0957611b08611aac565b5b92915050565b6000611b1a82611110565b91507fffffffffffffffffffffffffffffffffffffffffffffffffffffffffffffffff8203611b4c57611b4b611aac565b5b600182019050919050565b600080fd5b600080fd5b600080fd5b60008083356001602003843603038112611b8357611b82611b57565b5b80840192508235915067ffffffffffffffff821115611ba557611ba4611b5c565b5b602083019250600182023603831315611bc157611bc0611b61565b5b509250929050565b600082905092915050565b7f4e487b7100000000000000000000000000000000000000000000000000000000600052604160045260246000fd5b7f4e487b7100000000000000000000000000000000000000000000000000000000600052602260045260246000fd5b60006002820490506001821680611c4a57607f821691505b602082108103611c5d57611c5c611c03565b5b50919050565b60008190508160005260206000209050919050565b60006020601f8301049050919050565b600082821b905092915050565b600060088302611cc57fffffffffffffffffffffffffffffffffffffffffffffffffffffffffffffffff82611c88565b611ccf8683611c88565b95508019841693508086168417925050509392505050565b611cf08361184e565b611d04611cfc82611870565b848454611c95565b825550505050565b600090565b611d19611d0c565b611d24818484611ce7565b505050565b5b81811015611d4857611d3d600082611d11565b600181019050611d2a565b5050565b601f821115611d8d57611d5e81611c63565b611d6784611c78565b81016020851015611d76578190505b611d8a611d8285611c78565b830182611d29565b50505b505050565b600082821c905092915050565b6000611db060001984600802611d92565b1980831691505092915050565b6000611dc98383611d9f565b9150826002028217905092915050565b611de38383611bc9565b67ffffffffffffffff811115611dfc57611dfb611bd4565b5b611e068254611c32565b611e11828285611d4c565b6000601f831160018114611e405760008415611e2e578287013590505b611e388582611dbd565b865550611ea0565b601f198416611e4e86611c63565b60005b82811015611e7657848901358255600182019150602085019450602081019050611e51565b86831015611e935784890135611e8f601f891682611d9f565b8355505b6001600288020188555050505b50505050505050565b611eb4838383611dd9565b505050565b600081016000830180611ecb816117df565b9050611ed7818461187a565b505050600181016020830180611eec8161189d565b9050611ef88184611939565b505050600281016040830180611f0d816117df565b9050611f19818461187a565b5050506003810160608301611f2e8185611b66565b611f39818386611ea9565b50505050600481016080830180611f4f8161195c565b9050611f5b81846119b1565b5050506005810160a0830180611f70816117df565b9050611f7c818461187a565b5050506006810160c0830180611f91816117df565b9050611f9d818461187a565b5050506007810160e0830180611fb2816117df565b9050611fbe818461187a565b5050505050565b611fcf8282611eb9565b5050565b7f4f6e6c79206f776e657200000000000000000000000000000000000000000000600082015250565b6000612009600a836114c6565b915061201482611fd3565b602082019050919050565b6000602082019050818103600083015261203881611ffc565b905091905056fea2646970667358221220efb5b587bf0066edaca4d29993b0c0704764dc2a1ad205219293a36ce897263c64736f6c634300081c0033",
  "linkReferences": {},
  "deployedLinkReferences": {}
}