{
  "_format": "hh-sol-artifact-1",
  "contractName": "ZaaNetAdmin",
  "sourceName": "contracts/ZaaNetAdmin.sol",
  "abi": [
    {
      "inputs": [
        {
          "internalType": "address",
          "name": "_storageContract",
          "type": "address"
        },
        {
          "internalType": "address",
          "name": "_treasury",
          "type": "address"
        },
        {
          "internalType": "uint256",
          "name": "_platformFeePercent",
          "type": "uint256"
        }
      ],
      "stateMutability": "nonpayable",
      "type": "constructor"
    },
    {
      "inputs": [],
      "name": "EnforcedPause",
      "type": "error"
    },
    {
      "inputs": [],
      "name": "ExpectedPause",
      "type": "error"
    },
    {
      "inputs": [
        {
          "internalType": "address",
          "name": "owner",
          "type": "address"
        }
      ],
      "name": "OwnableInvalidOwner",
      "type": "error"
    },
    {
      "inputs": [
        {
          "internalType": "address",
          "name": "account",
          "type": "address"
        }
      ],
      "name": "OwnableUnauthorizedAccount",
      "type": "error"
    },
    {
      "anonymous": false,
      "inputs": [
        {
          "indexed": true,
          "internalType": "address",
          "name": "triggeredBy",
          "type": "address"
        }
      ],
      "name": "AdminPaused",
      "type": "event"
    },
    {
      "anonymous": false,
      "inputs": [
        {
          "indexed": true,
          "internalType": "address",
          "name": "triggeredBy",
          "type": "address"
        }
      ],
      "name": "AdminUnpaused",
      "type": "event"
    },
    {
      "anonymous": false,
      "inputs": [
        {
          "indexed": true,
          "internalType": "address",
          "name": "previousOwner",
          "type": "address"
        },
        {
          "indexed": true,
          "internalType": "address",
          "name": "newOwner",
          "type": "address"
        }
      ],
      "name": "OwnershipTransferred",
      "type": "event"
    },
    {
      "anonymous": false,
      "inputs": [
        {
          "indexed": false,
          "internalType": "address",
          "name": "account",
          "type": "address"
        }
      ],
      "name": "Paused",
      "type": "event"
    },
    {
      "anonymous": false,
      "inputs": [
        {
          "indexed": false,
          "internalType": "uint256",
          "name": "oldFee",
          "type": "uint256"
        },
        {
          "indexed": false,
          "internalType": "uint256",
          "name": "newFee",
          "type": "uint256"
        }
      ],
      "name": "PlatformFeeUpdated",
      "type": "event"
    },
    {
      "anonymous": false,
      "inputs": [
        {
          "indexed": true,
          "internalType": "address",
          "name": "oldTreasury",
          "type": "address"
        },
        {
          "indexed": true,
          "internalType": "address",
          "name": "newTreasury",
          "type": "address"
        }
      ],
      "name": "TreasuryUpdated",
      "type": "event"
    },
    {
      "anonymous": false,
      "inputs": [
        {
          "indexed": false,
          "internalType": "address",
          "name": "account",
          "type": "address"
        }
      ],
      "name": "Unpaused",
      "type": "event"
    },
    {
      "inputs": [],
      "name": "admin",
      "outputs": [
        {
          "internalType": "address",
          "name": "",
          "type": "address"
        }
      ],
      "stateMutability": "view",
      "type": "function"
    },
    {
      "inputs": [],
      "name": "owner",
      "outputs": [
        {
          "internalType": "address",
          "name": "",
          "type": "address"
        }
      ],
      "stateMutability": "view",
      "type": "function"
    },
    {
      "inputs": [],
      "name": "pause",
      "outputs": [],
      "stateMutability": "nonpayable",
      "type": "function"
    },
    {
      "inputs": [],
      "name": "paused",
      "outputs": [
        {
          "internalType": "bool",
          "name": "",
          "type": "bool"
        }
      ],
      "stateMutability": "view",
      "type": "function"
    },
    {
      "inputs": [],
      "name": "platformFeePercent",
      "outputs": [
        {
          "internalType": "uint256",
          "name": "",
          "type": "uint256"
        }
      ],
      "stateMutability": "view",
      "type": "function"
    },
    {
      "inputs": [],
      "name": "renounceOwnership",
      "outputs": [],
      "stateMutability": "nonpayable",
      "type": "function"
    },
    {
      "inputs": [
        {
          "internalType": "uint256",
          "name": "_newFeePercent",
          "type": "uint256"
        }
      ],
      "name": "setPlatformFee",
      "outputs": [],
      "stateMutability": "nonpayable",
      "type": "function"
    },
    {
      "inputs": [
        {
          "internalType": "address",
          "name": "_newTreasury",
          "type": "address"
        }
      ],
      "name": "setTreasury",
      "outputs": [],
      "stateMutability": "nonpayable",
      "type": "function"
    },
    {
      "inputs": [],
      "name": "storageContract",
      "outputs": [
        {
          "internalType": "contract ZaaNetStorage",
          "name": "",
          "type": "address"
        }
      ],
      "stateMutability": "view",
      "type": "function"
    },
    {
      "inputs": [
        {
          "internalType": "address",
          "name": "newOwner",
          "type": "address"
        }
      ],
      "name": "transferOwnership",
      "outputs": [],
      "stateMutability": "nonpayable",
      "type": "function"
    },
    {
      "inputs": [],
      "name": "treasury",
      "outputs": [
        {
          "internalType": "address",
          "name": "",
          "type": "address"
        }
      ],
      "stateMutability": "view",
      "type": "function"
    },
    {
      "inputs": [],
      "name": "unpause",
      "outputs": [],
      "stateMutability": "nonpayable",
      "type": "function"
    }
  ],
  "bytecode": "0x608060405234801561001057600080fd5b5060405161102e38038061102e83398181016040528101906100329190610356565b33600073ffffffffffffffffffffffffffffffffffffffff168173ffffffffffffffffffffffffffffffffffffffff16036100a55760006040517f1e4fbdf700000000000000000000000000000000000000000000000000000000815260040161009c91906103b8565b60405180910390fd5b6100b4816101f960201b60201c565b50600073ffffffffffffffffffffffffffffffffffffffff168273ffffffffffffffffffffffffffffffffffffffff1603610124576040517f08c379a000000000000000000000000000000000000000000000000000000000815260040161011b90610430565b60405180910390fd5b6014811115610168576040517f08c379a000000000000000000000000000000000000000000000000000000000815260040161015f9061049c565b60405180910390fd5b82600160006101000a81548173ffffffffffffffffffffffffffffffffffffffff021916908373ffffffffffffffffffffffffffffffffffffffff16021790555081600260006101000a81548173ffffffffffffffffffffffffffffffffffffffff021916908373ffffffffffffffffffffffffffffffffffffffff160217905550806003819055505050506104bc565b60008060009054906101000a900473ffffffffffffffffffffffffffffffffffffffff169050816000806101000a81548173ffffffffffffffffffffffffffffffffffffffff021916908373ffffffffffffffffffffffffffffffffffffffff1602179055508173ffffffffffffffffffffffffffffffffffffffff168173ffffffffffffffffffffffffffffffffffffffff167f8be0079c531659141344cd1fd0a4f28419497f9722a3daafe3b4186f6b6457e060405160405180910390a35050565b600080fd5b600073ffffffffffffffffffffffffffffffffffffffff82169050919050565b60006102ed826102c2565b9050919050565b6102fd816102e2565b811461030857600080fd5b50565b60008151905061031a816102f4565b92915050565b6000819050919050565b61033381610320565b811461033e57600080fd5b50565b6000815190506103508161032a565b92915050565b60008060006060848603121561036f5761036e6102bd565b5b600061037d8682870161030b565b935050602061038e8682870161030b565b925050604061039f86828701610341565b9150509250925092565b6103b2816102e2565b82525050565b60006020820190506103cd60008301846103a9565b92915050565b600082825260208201905092915050565b7f54726561737572792063616e6e6f74206265207a65726f206164647265737300600082015250565b600061041a601f836103d3565b9150610425826103e4565b602082019050919050565b600060208201905081810360008301526104498161040d565b9050919050565b7f4665652063616e6e6f7420657863656564203230250000000000000000000000600082015250565b60006104866015836103d3565b915061049182610450565b602082019050919050565b600060208201905081810360008301526104b581610479565b9050919050565b610b63806104cb6000396000f3fe608060405234801561001057600080fd5b50600436106100b45760003560e01c80638456cb59116100715780638456cb59146101435780638c639a851461014d5780638da5cb5b1461016b578063f0f4426014610189578063f2fde38b146101a5578063f851a440146101c1576100b4565b806311ce0267146100b957806312e8e2c3146100d75780633f4ba83a146100f35780635c975abb146100fd57806361d027b31461011b578063715018a614610139575b600080fd5b6100c16101df565b6040516100ce91906108a3565b60405180910390f35b6100f160048036038101906100ec91906108f9565b610205565b005b6100fb610296565b005b6101056102eb565b6040516101129190610941565b60405180910390f35b610123610301565b604051610130919061097d565b60405180910390f35b610141610327565b005b61014b61033b565b005b610155610390565b60405161016291906109a7565b60405180910390f35b610173610396565b604051610180919061097d565b60405180910390f35b6101a3600480360381019061019e91906109ee565b6103bf565b005b6101bf60048036038101906101ba91906109ee565b6104f6565b005b6101c961057c565b6040516101d6919061097d565b60405180910390f35b600160009054906101000a900473ffffffffffffffffffffffffffffffffffffffff1681565b61020d61058b565b6014811115610251576040517f08c379a000000000000000000000000000000000000000000000000000000000815260040161024890610a78565b60405180910390fd5b7fd347e206f25a89b917fc9482f1a2d294d749baa4dc9bde7fb495ee11fe49164360035482604051610284929190610a98565b60405180910390a18060038190555050565b61029e61058b565b6102a6610612565b3373ffffffffffffffffffffffffffffffffffffffff167fcc2b689b01792ccc45f7d02099e9ef3ffd7058e45803395690c61efdd0f0c63460405160405180910390a2565b60008060149054906101000a900460ff16905090565b600260009054906101000a900473ffffffffffffffffffffffffffffffffffffffff1681565b61032f61058b565b6103396000610674565b565b61034361058b565b61034b610738565b3373ffffffffffffffffffffffffffffffffffffffff167ff9c91e483ce8bc4cc31645e7cc0f01a3371813e76469a71104841507f014029060405160405180910390a2565b60035481565b60008060009054906101000a900473ffffffffffffffffffffffffffffffffffffffff16905090565b6103c761058b565b600073ffffffffffffffffffffffffffffffffffffffff168173ffffffffffffffffffffffffffffffffffffffff1603610436576040517f08c379a000000000000000000000000000000000000000000000000000000000815260040161042d90610b0d565b60405180910390fd5b8073ffffffffffffffffffffffffffffffffffffffff16600260009054906101000a900473ffffffffffffffffffffffffffffffffffffffff1673ffffffffffffffffffffffffffffffffffffffff167f4ab5be82436d353e61ca18726e984e561f5c1cc7c6d38b29d2553c790434705a60405160405180910390a380600260006101000a81548173ffffffffffffffffffffffffffffffffffffffff021916908373ffffffffffffffffffffffffffffffffffffffff16021790555050565b6104fe61058b565b600073ffffffffffffffffffffffffffffffffffffffff168173ffffffffffffffffffffffffffffffffffffffff16036105705760006040517f1e4fbdf7000000000000000000000000000000000000000000000000000000008152600401610567919061097d565b60405180910390fd5b61057981610674565b50565b6000610586610396565b905090565b61059361079b565b73ffffffffffffffffffffffffffffffffffffffff166105b1610396565b73ffffffffffffffffffffffffffffffffffffffff1614610610576105d461079b565b6040517f118cdaa7000000000000000000000000000000000000000000000000000000008152600401610607919061097d565b60405180910390fd5b565b61061a6107a3565b60008060146101000a81548160ff0219169083151502179055507f5db9ee0a495bf2e6ff9c91a7834c1ba4fdd244a5e8aa4e537bd38aeae4b073aa61065d61079b565b60405161066a919061097d565b60405180910390a1565b60008060009054906101000a900473ffffffffffffffffffffffffffffffffffffffff169050816000806101000a81548173ffffffffffffffffffffffffffffffffffffffff021916908373ffffffffffffffffffffffffffffffffffffffff1602179055508173ffffffffffffffffffffffffffffffffffffffff168173ffffffffffffffffffffffffffffffffffffffff167f8be0079c531659141344cd1fd0a4f28419497f9722a3daafe3b4186f6b6457e060405160405180910390a35050565b6107406107e3565b6001600060146101000a81548160ff0219169083151502179055507f62e78cea01bee320cd4e420270b5ea74000d11b0c9f74754ebdbfc544b05a25861078461079b565b604051610791919061097d565b60405180910390a1565b600033905090565b6107ab6102eb565b6107e1576040517f8dfc202b00000000000000000000000000000000000000000000000000000000815260040160405180910390fd5b565b6107eb6102eb565b15610822576040517fd93c066500000000000000000000000000000000000000000000000000000000815260040160405180910390fd5b565b600073ffffffffffffffffffffffffffffffffffffffff82169050919050565b6000819050919050565b600061086961086461085f84610824565b610844565b610824565b9050919050565b600061087b8261084e565b9050919050565b600061088d82610870565b9050919050565b61089d81610882565b82525050565b60006020820190506108b86000830184610894565b92915050565b600080fd5b6000819050919050565b6108d6816108c3565b81146108e157600080fd5b50565b6000813590506108f3816108cd565b92915050565b60006020828403121561090f5761090e6108be565b5b600061091d848285016108e4565b91505092915050565b60008115159050919050565b61093b81610926565b82525050565b60006020820190506109566000830184610932565b92915050565b600061096782610824565b9050919050565b6109778161095c565b82525050565b6000602082019050610992600083018461096e565b92915050565b6109a1816108c3565b82525050565b60006020820190506109bc6000830184610998565b92915050565b6109cb8161095c565b81146109d657600080fd5b50565b6000813590506109e8816109c2565b92915050565b600060208284031215610a0457610a036108be565b5b6000610a12848285016109d9565b91505092915050565b600082825260208201905092915050565b7f4665652063616e6e6f7420657863656564203230250000000000000000000000600082015250565b6000610a62601583610a1b565b9150610a6d82610a2c565b602082019050919050565b60006020820190508181036000830152610a9181610a55565b9050919050565b6000604082019050610aad6000830185610998565b610aba6020830184610998565b9392505050565b7f496e76616c696420747265617375727920616464726573730000000000000000600082015250565b6000610af7601883610a1b565b9150610b0282610ac1565b602082019050919050565b60006020820190508181036000830152610b2681610aea565b905091905056fea264697066735822122093e5fa8877a4cd16a9bffe0183587893ad2e344ef872fd6c233fea684efa021f64736f6c634300081c0033",
  "linkReferences": {},
  "deployedLinkReferences": {}
}