{
  "_format": "hh-sol-artifact-1",
  "contractName": "ZaaNetContract",
  "sourceName": "contracts/ZaaNetContract.sol",
  "abi": [
    {
      "inputs": [
        {
          "internalType": "address",
          "name": "_networkContract",
          "type": "address"
        },
        {
          "internalType": "address",
          "name": "_paymentContract",
          "type": "address"
        },
        {
          "internalType": "address",
          "name": "_adminContract",
          "type": "address"
        }
      ],
      "stateMutability": "nonpayable",
      "type": "constructor"
    },
    {
      "inputs": [
        {
          "internalType": "uint256",
          "name": "_networkId",
          "type": "uint256"
        },
        {
          "internalType": "uint256",
          "name": "_amount",
          "type": "uint256"
        },
        {
          "internalType": "uint256",
          "name": "_duration",
          "type": "uint256"
        }
      ],
      "name": "acceptPayment",
      "outputs": [],
      "stateMutability": "nonpayable",
      "type": "function"
    },
    {
      "inputs": [],
      "name": "adminContract",
      "outputs": [
        {
          "internalType": "contract IZaaNetAdmin",
          "name": "",
          "type": "address"
        }
      ],
      "stateMutability": "view",
      "type": "function"
    },
    {
      "inputs": [
        {
          "internalType": "uint256",
          "name": "_networkId",
          "type": "uint256"
        }
      ],
      "name": "getHostedNetworkById",
      "outputs": [
        {
          "components": [
            {
              "internalType": "uint256",
              "name": "id",
              "type": "uint256"
            },
            {
              "internalType": "address",
              "name": "host",
              "type": "address"
            },
            {
              "internalType": "uint256",
              "name": "price",
              "type": "uint256"
            },
            {
              "internalType": "string",
              "name": "metadataCID",
              "type": "string"
            },
            {
              "internalType": "bool",
              "name": "isActive",
              "type": "bool"
            },
            {
              "internalType": "uint256",
              "name": "totalRating",
              "type": "uint256"
            },
            {
              "internalType": "uint256",
              "name": "ratingCount",
              "type": "uint256"
            },
            {
              "internalType": "uint256",
              "name": "successfulSessions",
              "type": "uint256"
            }
          ],
          "internalType": "struct ZaaNetStorage.Network",
          "name": "",
          "type": "tuple"
        }
      ],
      "stateMutability": "view",
      "type": "function"
    },
    {
      "inputs": [
        {
          "internalType": "uint256",
          "name": "_sessionId",
          "type": "uint256"
        }
      ],
      "name": "getSession",
      "outputs": [
        {
          "components": [
            {
              "internalType": "uint256",
              "name": "sessionId",
              "type": "uint256"
            },
            {
              "internalType": "uint256",
              "name": "networkId",
              "type": "uint256"
            },
            {
              "internalType": "address",
              "name": "guest",
              "type": "address"
            },
            {
              "internalType": "uint256",
              "name": "duration",
              "type": "uint256"
            },
            {
              "internalType": "uint256",
              "name": "amount",
              "type": "uint256"
            },
            {
              "internalType": "bool",
              "name": "active",
              "type": "bool"
            }
          ],
          "internalType": "struct ZaaNetStorage.Session",
          "name": "",
          "type": "tuple"
        }
      ],
      "stateMutability": "view",
      "type": "function"
    },
    {
      "inputs": [],
      "name": "networkContract",
      "outputs": [
        {
          "internalType": "contract IZaaNetNetwork",
          "name": "",
          "type": "address"
        }
      ],
      "stateMutability": "view",
      "type": "function"
    },
    {
      "inputs": [],
      "name": "pause",
      "outputs": [],
      "stateMutability": "nonpayable",
      "type": "function"
    },
    {
      "inputs": [],
      "name": "paymentContract",
      "outputs": [
        {
          "internalType": "contract IZaaNetPayment",
          "name": "",
          "type": "address"
        }
      ],
      "stateMutability": "view",
      "type": "function"
    },
    {
      "inputs": [
        {
          "internalType": "uint256",
          "name": "_pricePerHour",
          "type": "uint256"
        },
        {
          "internalType": "string",
          "name": "_metadataCID",
          "type": "string"
        },
        {
          "internalType": "bool",
          "name": "_isActive",
          "type": "bool"
        }
      ],
      "name": "registerNetwork",
      "outputs": [],
      "stateMutability": "nonpayable",
      "type": "function"
    },
    {
      "inputs": [
        {
          "internalType": "uint256",
          "name": "_newFeePercent",
          "type": "uint256"
        }
      ],
      "name": "setPlatformFee",
      "outputs": [],
      "stateMutability": "nonpayable",
      "type": "function"
    },
    {
      "inputs": [
        {
          "internalType": "address",
          "name": "_newTreasury",
          "type": "address"
        }
      ],
      "name": "setTreasury",
      "outputs": [],
      "stateMutability": "nonpayable",
      "type": "function"
    },
    {
      "inputs": [],
      "name": "unpause",
      "outputs": [],
      "stateMutability": "nonpayable",
      "type": "function"
    },
    {
      "inputs": [
        {
          "internalType": "uint256",
          "name": "_networkId",
          "type": "uint256"
        },
        {
          "internalType": "uint256",
          "name": "_pricePerHour",
          "type": "uint256"
        },
        {
          "internalType": "string",
          "name": "_metadataCID",
          "type": "string"
        },
        {
          "internalType": "bool",
          "name": "_isActive",
          "type": "bool"
        }
      ],
      "name": "updateNetwork",
      "outputs": [],
      "stateMutability": "nonpayable",
      "type": "function"
    }
  ],
  "bytecode": "0x608060405234801561001057600080fd5b506040516115553803806115558339818101604052810190610032919061015f565b826000806101000a81548173ffffffffffffffffffffffffffffffffffffffff021916908373ffffffffffffffffffffffffffffffffffffffff16021790555081600160006101000a81548173ffffffffffffffffffffffffffffffffffffffff021916908373ffffffffffffffffffffffffffffffffffffffff16021790555080600260006101000a81548173ffffffffffffffffffffffffffffffffffffffff021916908373ffffffffffffffffffffffffffffffffffffffff1602179055505050506101b2565b600080fd5b600073ffffffffffffffffffffffffffffffffffffffff82169050919050565b600061012c82610101565b9050919050565b61013c81610121565b811461014757600080fd5b50565b60008151905061015981610133565b92915050565b600080600060608486031215610178576101776100fc565b5b60006101868682870161014a565b93505060206101978682870161014a565b92505060406101a88682870161014a565b9150509250925092565b611394806101c16000396000f3fe608060405234801561001057600080fd5b50600436106100b45760003560e01c80639c91dd56116100715780639c91dd5614610151578063abc895961461016f578063c05c5e941461018b578063cd83fb9a146101a9578063f0f44260146101d9578063f842c213146101f5576100b4565b806312e8e2c3146100b95780633f4ba83a146100d5578063402ff0db146100df5780638456cb591461010f578063900e41b11461011957806392f0106314610135575b600080fd5b6100d360048036038101906100ce91906108ba565b610213565b005b6100dd6102a3565b005b6100f960048036038101906100f491906108ba565b610327565b60405161010691906109cd565b60405180910390f35b6101176103d2565b005b610133600480360381019061012e9190610b5a565b610456565b005b61014f600480360381019061014a9190610bc9565b6104ea565b005b610159610581565b6040516101669190610cab565b60405180910390f35b61018960048036038101906101849190610cc6565b6105a7565b005b61019361063d565b6040516101a09190610d3a565b60405180910390f35b6101c360048036038101906101be91906108ba565b610663565b6040516101d09190610e84565b60405180910390f35b6101f360048036038101906101ee9190610ed2565b610711565b005b6101fd6107a1565b60405161020a9190610f20565b60405180910390f35b600260009054906101000a900473ffffffffffffffffffffffffffffffffffffffff1673ffffffffffffffffffffffffffffffffffffffff166312e8e2c3826040518263ffffffff1660e01b815260040161026e9190610f4a565b600060405180830381600087803b15801561028857600080fd5b505af115801561029c573d6000803e3d6000fd5b5050505050565b600260009054906101000a900473ffffffffffffffffffffffffffffffffffffffff1673ffffffffffffffffffffffffffffffffffffffff16633f4ba83a6040518163ffffffff1660e01b8152600401600060405180830381600087803b15801561030d57600080fd5b505af1158015610321573d6000803e3d6000fd5b50505050565b61032f6107c5565b600160009054906101000a900473ffffffffffffffffffffffffffffffffffffffff1673ffffffffffffffffffffffffffffffffffffffff1663402ff0db836040518263ffffffff1660e01b815260040161038a9190610f4a565b60c060405180830381865afa1580156103a7573d6000803e3d6000fd5b505050506040513d601f19601f820116820180604052508101906103cb919061104e565b9050919050565b600260009054906101000a900473ffffffffffffffffffffffffffffffffffffffff1673ffffffffffffffffffffffffffffffffffffffff16638456cb596040518163ffffffff1660e01b8152600401600060405180830381600087803b15801561043c57600080fd5b505af1158015610450573d6000803e3d6000fd5b50505050565b60008054906101000a900473ffffffffffffffffffffffffffffffffffffffff1673ffffffffffffffffffffffffffffffffffffffff1663900e41b18484846040518463ffffffff1660e01b81526004016104b3939291906110d4565b600060405180830381600087803b1580156104cd57600080fd5b505af11580156104e1573d6000803e3d6000fd5b50505050505050565b60008054906101000a900473ffffffffffffffffffffffffffffffffffffffff1673ffffffffffffffffffffffffffffffffffffffff166392f01063858585856040518563ffffffff1660e01b81526004016105499493929190611112565b600060405180830381600087803b15801561056357600080fd5b505af1158015610577573d6000803e3d6000fd5b5050505050505050565b600160009054906101000a900473ffffffffffffffffffffffffffffffffffffffff1681565b600160009054906101000a900473ffffffffffffffffffffffffffffffffffffffff1673ffffffffffffffffffffffffffffffffffffffff1663abc895968484846040518463ffffffff1660e01b81526004016106069392919061115e565b600060405180830381600087803b15801561062057600080fd5b505af1158015610634573d6000803e3d6000fd5b50505050505050565b600260009054906101000a900473ffffffffffffffffffffffffffffffffffffffff1681565b61066b610813565b60008054906101000a900473ffffffffffffffffffffffffffffffffffffffff1673ffffffffffffffffffffffffffffffffffffffff1663cd83fb9a836040518263ffffffff1660e01b81526004016106c49190610f4a565b600060405180830381865afa1580156106e1573d6000803e3d6000fd5b505050506040513d6000823e3d601f19601f8201168201806040525081019061070a91906112eb565b9050919050565b600260009054906101000a900473ffffffffffffffffffffffffffffffffffffffff1673ffffffffffffffffffffffffffffffffffffffff1663f0f44260826040518263ffffffff1660e01b815260040161076c9190611343565b600060405180830381600087803b15801561078657600080fd5b505af115801561079a573d6000803e3d6000fd5b5050505050565b60008054906101000a900473ffffffffffffffffffffffffffffffffffffffff1681565b6040518060c001604052806000815260200160008152602001600073ffffffffffffffffffffffffffffffffffffffff16815260200160008152602001600081526020016000151581525090565b60405180610100016040528060008152602001600073ffffffffffffffffffffffffffffffffffffffff16815260200160008152602001606081526020016000151581526020016000815260200160008152602001600081525090565b6000604051905090565b600080fd5b600080fd5b6000819050919050565b61089781610884565b81146108a257600080fd5b50565b6000813590506108b48161088e565b92915050565b6000602082840312156108d0576108cf61087a565b5b60006108de848285016108a5565b91505092915050565b6108f081610884565b82525050565b600073ffffffffffffffffffffffffffffffffffffffff82169050919050565b6000610921826108f6565b9050919050565b61093181610916565b82525050565b60008115159050919050565b61094c81610937565b82525050565b60c08201600082015161096860008501826108e7565b50602082015161097b60208501826108e7565b50604082015161098e6040850182610928565b5060608201516109a160608501826108e7565b5060808201516109b460808501826108e7565b5060a08201516109c760a0850182610943565b50505050565b600060c0820190506109e26000830184610952565b92915050565b600080fd5b600080fd5b6000601f19601f8301169050919050565b7f4e487b7100000000000000000000000000000000000000000000000000000000600052604160045260246000fd5b610a3b826109f2565b810181811067ffffffffffffffff82111715610a5a57610a59610a03565b5b80604052505050565b6000610a6d610870565b9050610a798282610a32565b919050565b600067ffffffffffffffff821115610a9957610a98610a03565b5b610aa2826109f2565b9050602081019050919050565b82818337600083830152505050565b6000610ad1610acc84610a7e565b610a63565b905082815260208101848484011115610aed57610aec6109ed565b5b610af8848285610aaf565b509392505050565b600082601f830112610b1557610b146109e8565b5b8135610b25848260208601610abe565b91505092915050565b610b3781610937565b8114610b4257600080fd5b50565b600081359050610b5481610b2e565b92915050565b600080600060608486031215610b7357610b7261087a565b5b6000610b81868287016108a5565b935050602084013567ffffffffffffffff811115610ba257610ba161087f565b5b610bae86828701610b00565b9250506040610bbf86828701610b45565b9150509250925092565b60008060008060808587031215610be357610be261087a565b5b6000610bf1878288016108a5565b9450506020610c02878288016108a5565b935050604085013567ffffffffffffffff811115610c2357610c2261087f565b5b610c2f87828801610b00565b9250506060610c4087828801610b45565b91505092959194509250565b6000819050919050565b6000610c71610c6c610c67846108f6565b610c4c565b6108f6565b9050919050565b6000610c8382610c56565b9050919050565b6000610c9582610c78565b9050919050565b610ca581610c8a565b82525050565b6000602082019050610cc06000830184610c9c565b92915050565b600080600060608486031215610cdf57610cde61087a565b5b6000610ced868287016108a5565b9350506020610cfe868287016108a5565b9250506040610d0f868287016108a5565b9150509250925092565b6000610d2482610c78565b9050919050565b610d3481610d19565b82525050565b6000602082019050610d4f6000830184610d2b565b92915050565b600081519050919050565b600082825260208201905092915050565b60005b83811015610d8f578082015181840152602081019050610d74565b60008484015250505050565b6000610da682610d55565b610db08185610d60565b9350610dc0818560208601610d71565b610dc9816109f2565b840191505092915050565b600061010083016000830151610ded60008601826108e7565b506020830151610e006020860182610928565b506040830151610e1360408601826108e7565b5060608301518482036060860152610e2b8282610d9b565b9150506080830151610e406080860182610943565b5060a0830151610e5360a08601826108e7565b5060c0830151610e6660c08601826108e7565b5060e0830151610e7960e08601826108e7565b508091505092915050565b60006020820190508181036000830152610e9e8184610dd4565b905092915050565b610eaf81610916565b8114610eba57600080fd5b50565b600081359050610ecc81610ea6565b92915050565b600060208284031215610ee857610ee761087a565b5b6000610ef684828501610ebd565b91505092915050565b6000610f0a82610c78565b9050919050565b610f1a81610eff565b82525050565b6000602082019050610f356000830184610f11565b92915050565b610f4481610884565b82525050565b6000602082019050610f5f6000830184610f3b565b92915050565b600080fd5b600080fd5b600081519050610f7e8161088e565b92915050565b600081519050610f9381610ea6565b92915050565b600081519050610fa881610b2e565b92915050565b600060c08284031215610fc457610fc3610f65565b5b610fce60c0610a63565b90506000610fde84828501610f6f565b6000830152506020610ff284828501610f6f565b602083015250604061100684828501610f84565b604083015250606061101a84828501610f6f565b606083015250608061102e84828501610f6f565b60808301525060a061104284828501610f99565b60a08301525092915050565b600060c082840312156110645761106361087a565b5b600061107284828501610fae565b91505092915050565b600082825260208201905092915050565b600061109782610d55565b6110a1818561107b565b93506110b1818560208601610d71565b6110ba816109f2565b840191505092915050565b6110ce81610937565b82525050565b60006060820190506110e96000830186610f3b565b81810360208301526110fb818561108c565b905061110a60408301846110c5565b949350505050565b60006080820190506111276000830187610f3b565b6111346020830186610f3b565b8181036040830152611146818561108c565b905061115560608301846110c5565b95945050505050565b60006060820190506111736000830186610f3b565b6111806020830185610f3b565b61118d6040830184610f3b565b949350505050565b60006111a86111a384610a7e565b610a63565b9050828152602081018484840111156111c4576111c36109ed565b5b6111cf848285610d71565b509392505050565b600082601f8301126111ec576111eb6109e8565b5b81516111fc848260208601611195565b91505092915050565b6000610100828403121561121c5761121b610f65565b5b611227610100610a63565b9050600061123784828501610f6f565b600083015250602061124b84828501610f84565b602083015250604061125f84828501610f6f565b604083015250606082015167ffffffffffffffff81111561128357611282610f6a565b5b61128f848285016111d7565b60608301525060806112a384828501610f99565b60808301525060a06112b784828501610f6f565b60a08301525060c06112cb84828501610f6f565b60c08301525060e06112df84828501610f6f565b60e08301525092915050565b6000602082840312156113015761130061087a565b5b600082015167ffffffffffffffff81111561131f5761131e61087f565b5b61132b84828501611205565b91505092915050565b61133d81610916565b82525050565b60006020820190506113586000830184611334565b9291505056fea26469706673582212208027b0c7b19b3dae759e33bd681461fa322a6d8b0f29de855917c4508d63f0a964736f6c634300081c0033",
  "linkReferences": {},
  "deployedLinkReferences": {}
}