{
  "_format": "hh-sol-artifact-1",
  "contractName": "ZaaNetStorage",
  "sourceName": "contracts/ZaaNetStorage.sol",
  "abi": [
    {
      "inputs": [],
      "stateMutability": "nonpayable",
      "type": "constructor"
    },
    {
      "inputs": [
        {
          "internalType": "address",
          "name": "owner",
          "type": "address"
        }
      ],
      "name": "OwnableInvalidOwner",
      "type": "error"
    },
    {
      "inputs": [
        {
          "internalType": "address",
          "name": "account",
          "type": "address"
        }
      ],
      "name": "OwnableUnauthorizedAccount",
      "type": "error"
    },
    {
      "anonymous": false,
      "inputs": [
        {
          "indexed": true,
          "internalType": "address",
          "name": "previousOwner",
          "type": "address"
        },
        {
          "indexed": true,
          "internalType": "address",
          "name": "newOwner",
          "type": "address"
        }
      ],
      "name": "OwnershipTransferred",
      "type": "event"
    },
    {
      "inputs": [
        {
          "internalType": "uint256",
          "name": "_networkId",
          "type": "uint256"
        }
      ],
      "name": "getNetwork",
      "outputs": [
        {
          "components": [
            {
              "internalType": "uint256",
              "name": "id",
              "type": "uint256"
            },
            {
              "internalType": "address",
              "name": "host",
              "type": "address"
            },
            {
              "internalType": "uint256",
              "name": "price",
              "type": "uint256"
            },
            {
              "internalType": "string",
              "name": "metadataCID",
              "type": "string"
            },
            {
              "internalType": "bool",
              "name": "isActive",
              "type": "bool"
            },
            {
              "internalType": "uint256",
              "name": "totalRating",
              "type": "uint256"
            },
            {
              "internalType": "uint256",
              "name": "ratingCount",
              "type": "uint256"
            },
            {
              "internalType": "uint256",
              "name": "successfulSessions",
              "type": "uint256"
            }
          ],
          "internalType": "struct ZaaNetStorage.Network",
          "name": "",
          "type": "tuple"
        }
      ],
      "stateMutability": "view",
      "type": "function"
    },
    {
      "inputs": [
        {
          "internalType": "uint256",
          "name": "_sessionId",
          "type": "uint256"
        }
      ],
      "name": "getSession",
      "outputs": [
        {
          "components": [
            {
              "internalType": "uint256",
              "name": "sessionId",
              "type": "uint256"
            },
            {
              "internalType": "uint256",
              "name": "networkId",
              "type": "uint256"
            },
            {
              "internalType": "address",
              "name": "guest",
              "type": "address"
            },
            {
              "internalType": "uint256",
              "name": "duration",
              "type": "uint256"
            },
            {
              "internalType": "uint256",
              "name": "amount",
              "type": "uint256"
            },
            {
              "internalType": "bool",
              "name": "active",
              "type": "bool"
            }
          ],
          "internalType": "struct ZaaNetStorage.Session",
          "name": "",
          "type": "tuple"
        }
      ],
      "stateMutability": "view",
      "type": "function"
    },
    {
      "inputs": [
        {
          "internalType": "address",
          "name": "",
          "type": "address"
        },
        {
          "internalType": "uint256",
          "name": "",
          "type": "uint256"
        }
      ],
      "name": "hasRated",
      "outputs": [
        {
          "internalType": "bool",
          "name": "",
          "type": "bool"
        }
      ],
      "stateMutability": "view",
      "type": "function"
    },
    {
      "inputs": [],
      "name": "incrementNetworkId",
      "outputs": [
        {
          "internalType": "uint256",
          "name": "",
          "type": "uint256"
        }
      ],
      "stateMutability": "nonpayable",
      "type": "function"
    },
    {
      "inputs": [],
      "name": "incrementSessionId",
      "outputs": [
        {
          "internalType": "uint256",
          "name": "",
          "type": "uint256"
        }
      ],
      "stateMutability": "nonpayable",
      "type": "function"
    },
    {
      "inputs": [
        {
          "internalType": "uint256",
          "name": "networkId",
          "type": "uint256"
        }
      ],
      "name": "incrementSuccessfulSessions",
      "outputs": [],
      "stateMutability": "nonpayable",
      "type": "function"
    },
    {
      "inputs": [
        {
          "internalType": "address",
          "name": "user",
          "type": "address"
        },
        {
          "internalType": "uint256",
          "name": "networkId",
          "type": "uint256"
        }
      ],
      "name": "markRated",
      "outputs": [],
      "stateMutability": "nonpayable",
      "type": "function"
    },
    {
      "inputs": [],
      "name": "networkIdCounter",
      "outputs": [
        {
          "internalType": "uint256",
          "name": "",
          "type": "uint256"
        }
      ],
      "stateMutability": "view",
      "type": "function"
    },
    {
      "inputs": [
        {
          "internalType": "uint256",
          "name": "",
          "type": "uint256"
        }
      ],
      "name": "networks",
      "outputs": [
        {
          "internalType": "uint256",
          "name": "id",
          "type": "uint256"
        },
        {
          "internalType": "address",
          "name": "host",
          "type": "address"
        },
        {
          "internalType": "uint256",
          "name": "price",
          "type": "uint256"
        },
        {
          "internalType": "string",
          "name": "metadataCID",
          "type": "string"
        },
        {
          "internalType": "bool",
          "name": "isActive",
          "type": "bool"
        },
        {
          "internalType": "uint256",
          "name": "totalRating",
          "type": "uint256"
        },
        {
          "internalType": "uint256",
          "name": "ratingCount",
          "type": "uint256"
        },
        {
          "internalType": "uint256",
          "name": "successfulSessions",
          "type": "uint256"
        }
      ],
      "stateMutability": "view",
      "type": "function"
    },
    {
      "inputs": [],
      "name": "owner",
      "outputs": [
        {
          "internalType": "address",
          "name": "",
          "type": "address"
        }
      ],
      "stateMutability": "view",
      "type": "function"
    },
    {
      "inputs": [],
      "name": "renounceOwnership",
      "outputs": [],
      "stateMutability": "nonpayable",
      "type": "function"
    },
    {
      "inputs": [],
      "name": "sessionIdCounter",
      "outputs": [
        {
          "internalType": "uint256",
          "name": "",
          "type": "uint256"
        }
      ],
      "stateMutability": "view",
      "type": "function"
    },
    {
      "inputs": [
        {
          "internalType": "uint256",
          "name": "",
          "type": "uint256"
        }
      ],
      "name": "sessions",
      "outputs": [
        {
          "internalType": "uint256",
          "name": "sessionId",
          "type": "uint256"
        },
        {
          "internalType": "uint256",
          "name": "networkId",
          "type": "uint256"
        },
        {
          "internalType": "address",
          "name": "guest",
          "type": "address"
        },
        {
          "internalType": "uint256",
          "name": "duration",
          "type": "uint256"
        },
        {
          "internalType": "uint256",
          "name": "amount",
          "type": "uint256"
        },
        {
          "internalType": "bool",
          "name": "active",
          "type": "bool"
        }
      ],
      "stateMutability": "view",
      "type": "function"
    },
    {
      "inputs": [
        {
          "internalType": "uint256",
          "name": "_networkId",
          "type": "uint256"
        },
        {
          "components": [
            {
              "internalType": "uint256",
              "name": "id",
              "type": "uint256"
            },
            {
              "internalType": "address",
              "name": "host",
              "type": "address"
            },
            {
              "internalType": "uint256",
              "name": "price",
              "type": "uint256"
            },
            {
              "internalType": "string",
              "name": "metadataCID",
              "type": "string"
            },
            {
              "internalType": "bool",
              "name": "isActive",
              "type": "bool"
            },
            {
              "internalType": "uint256",
              "name": "totalRating",
              "type": "uint256"
            },
            {
              "internalType": "uint256",
              "name": "ratingCount",
              "type": "uint256"
            },
            {
              "internalType": "uint256",
              "name": "successfulSessions",
              "type": "uint256"
            }
          ],
          "internalType": "struct ZaaNetStorage.Network",
          "name": "_network",
          "type": "tuple"
        }
      ],
      "name": "setNetwork",
      "outputs": [],
      "stateMutability": "nonpayable",
      "type": "function"
    },
    {
      "inputs": [
        {
          "internalType": "uint256",
          "name": "_sessionId",
          "type": "uint256"
        },
        {
          "components": [
            {
              "internalType": "uint256",
              "name": "sessionId",
              "type": "uint256"
            },
            {
              "internalType": "uint256",
              "name": "networkId",
              "type": "uint256"
            },
            {
              "internalType": "address",
              "name": "guest",
              "type": "address"
            },
            {
              "internalType": "uint256",
              "name": "duration",
              "type": "uint256"
            },
            {
              "internalType": "uint256",
              "name": "amount",
              "type": "uint256"
            },
            {
              "internalType": "bool",
              "name": "active",
              "type": "bool"
            }
          ],
          "internalType": "struct ZaaNetStorage.Session",
          "name": "_session",
          "type": "tuple"
        }
      ],
      "name": "setSession",
      "outputs": [],
      "stateMutability": "nonpayable",
      "type": "function"
    },
    {
      "inputs": [
        {
          "internalType": "address",
          "name": "newOwner",
          "type": "address"
        }
      ],
      "name": "transferOwnership",
      "outputs": [],
      "stateMutability": "nonpayable",
      "type": "function"
    }
  ],
  "bytecode": "0x608060405234801561001057600080fd5b5033600073ffffffffffffffffffffffffffffffffffffffff168173ffffffffffffffffffffffffffffffffffffffff16036100845760006040517f1e4fbdf700000000000000000000000000000000000000000000000000000000815260040161007b919061019e565b60405180910390fd5b6100938161009960201b60201c565b506101b9565b60008060009054906101000a900473ffffffffffffffffffffffffffffffffffffffff169050816000806101000a81548173ffffffffffffffffffffffffffffffffffffffff021916908373ffffffffffffffffffffffffffffffffffffffff1602179055508173ffffffffffffffffffffffffffffffffffffffff168173ffffffffffffffffffffffffffffffffffffffff167f8be0079c531659141344cd1fd0a4f28419497f9722a3daafe3b4186f6b6457e060405160405180910390a35050565b600073ffffffffffffffffffffffffffffffffffffffff82169050919050565b60006101888261015d565b9050919050565b6101988161017d565b82525050565b60006020820190506101b3600083018461018f565b92915050565b61189e806101c86000396000f3fe608060405234801561001057600080fd5b50600436106101005760003560e01c8063715018a61161009757806395ea57171161006657806395ea571714610293578063cc507641146102c3578063d25468b3146102e1578063f2fde38b1461031157610100565b8063715018a6146101ff57806383c4b7a3146102095780638bb0a17c1461023e5780638da5cb5b1461027557610100565b80634a4793e8116100d35780634a4793e81461018b5780635290ffc6146101a7578063584c5469146101c55780635a29352d146101e157610100565b8063217c682d1461010557806339fdf71e146101235780633bec83e91461013f578063402ff0db1461015b575b600080fd5b61010d61032d565b60405161011a9190610c4a565b60405180910390f35b61013d60048036038101906101389190610e71565b610333565b005b61015960048036038101906101549190610eb1565b6103e5565b005b61017560048036038101906101709190610ef1565b61045a565b6040516101829190610fc6565b60405180910390f35b6101a560048036038101906101a09190610ef1565b610520565b005b6101af610558565b6040516101bc9190610c4a565b60405180910390f35b6101df60048036038101906101da9190611181565b61057c565b005b6101e961064e565b6040516101f69190610c4a565b60405180910390f35b610207610654565b005b610223600480360381019061021e9190610ef1565b610668565b604051610235969594939291906111fb565b60405180910390f35b61025860048036038101906102539190610ef1565b6106d1565b60405161026c9897969594939291906112db565b60405180910390f35b61027d6107ce565b60405161028a9190611360565b60405180910390f35b6102ad60048036038101906102a89190610ef1565b6107f7565b6040516102ba9190611475565b60405180910390f35b6102cb61095a565b6040516102d89190610c4a565b60405180910390f35b6102fb60048036038101906102f69190610eb1565b61097e565b6040516103089190611497565b60405180910390f35b61032b600480360381019061032691906114b2565b6109ad565b005b60045481565b61033b610a33565b8060026000848152602001908152602001600020600082015181600001556020820151816001015560408201518160020160006101000a81548173ffffffffffffffffffffffffffffffffffffffff021916908373ffffffffffffffffffffffffffffffffffffffff160217905550606082015181600301556080820151816004015560a08201518160050160006101000a81548160ff0219169083151502179055509050505050565b6103ed610a33565b6001600360008473ffffffffffffffffffffffffffffffffffffffff1673ffffffffffffffffffffffffffffffffffffffff168152602001908152602001600020600083815260200190815260200160002060006101000a81548160ff0219169083151502179055505050565b610462610b86565b600260008381526020019081526020016000206040518060c001604052908160008201548152602001600182015481526020016002820160009054906101000a900473ffffffffffffffffffffffffffffffffffffffff1673ffffffffffffffffffffffffffffffffffffffff1673ffffffffffffffffffffffffffffffffffffffff16815260200160038201548152602001600482015481526020016005820160009054906101000a900460ff1615151515815250509050919050565b610528610a33565b6001806000838152602001908152602001600020600701600082825461054e919061150e565b9250508190555050565b6000610562610a33565b60046000815461057190611542565b919050819055905090565b610584610a33565b80600160008481526020019081526020016000206000820151816000015560208201518160010160006101000a81548173ffffffffffffffffffffffffffffffffffffffff021916908373ffffffffffffffffffffffffffffffffffffffff1602179055506040820151816002015560608201518160030190816106089190611796565b5060808201518160040160006101000a81548160ff02191690831515021790555060a0820151816005015560c0820151816006015560e082015181600701559050505050565b60055481565b61065c610a33565b6106666000610aba565b565b60026020528060005260406000206000915090508060000154908060010154908060020160009054906101000a900473ffffffffffffffffffffffffffffffffffffffff16908060030154908060040154908060050160009054906101000a900460ff16905086565b60016020528060005260406000206000915090508060000154908060010160009054906101000a900473ffffffffffffffffffffffffffffffffffffffff1690806002015490806003018054610726906115b9565b80601f0160208091040260200160405190810160405280929190818152602001828054610752906115b9565b801561079f5780601f106107745761010080835404028352916020019161079f565b820191906000526020600020905b81548152906001019060200180831161078257829003601f168201915b5050505050908060040160009054906101000a900460ff16908060050154908060060154908060070154905088565b60008060009054906101000a900473ffffffffffffffffffffffffffffffffffffffff16905090565b6107ff610bd4565b6001600083815260200190815260200160002060405180610100016040529081600082015481526020016001820160009054906101000a900473ffffffffffffffffffffffffffffffffffffffff1673ffffffffffffffffffffffffffffffffffffffff1673ffffffffffffffffffffffffffffffffffffffff16815260200160028201548152602001600382018054610898906115b9565b80601f01602080910402602001604051908101604052809291908181526020018280546108c4906115b9565b80156109115780601f106108e657610100808354040283529160200191610911565b820191906000526020600020905b8154815290600101906020018083116108f457829003601f168201915b505050505081526020016004820160009054906101000a900460ff1615151515815260200160058201548152602001600682015481526020016007820154815250509050919050565b6000610964610a33565b60056000815461097390611542565b919050819055905090565b60036020528160005260406000206020528060005260406000206000915091509054906101000a900460ff1681565b6109b5610a33565b600073ffffffffffffffffffffffffffffffffffffffff168173ffffffffffffffffffffffffffffffffffffffff1603610a275760006040517f1e4fbdf7000000000000000000000000000000000000000000000000000000008152600401610a1e9190611360565b60405180910390fd5b610a3081610aba565b50565b610a3b610b7e565b73ffffffffffffffffffffffffffffffffffffffff16610a596107ce565b73ffffffffffffffffffffffffffffffffffffffff1614610ab857610a7c610b7e565b6040517f118cdaa7000000000000000000000000000000000000000000000000000000008152600401610aaf9190611360565b60405180910390fd5b565b60008060009054906101000a900473ffffffffffffffffffffffffffffffffffffffff169050816000806101000a81548173ffffffffffffffffffffffffffffffffffffffff021916908373ffffffffffffffffffffffffffffffffffffffff1602179055508173ffffffffffffffffffffffffffffffffffffffff168173ffffffffffffffffffffffffffffffffffffffff167f8be0079c531659141344cd1fd0a4f28419497f9722a3daafe3b4186f6b6457e060405160405180910390a35050565b600033905090565b6040518060c001604052806000815260200160008152602001600073ffffffffffffffffffffffffffffffffffffffff16815260200160008152602001600081526020016000151581525090565b60405180610100016040528060008152602001600073ffffffffffffffffffffffffffffffffffffffff16815260200160008152602001606081526020016000151581526020016000815260200160008152602001600081525090565b6000819050919050565b610c4481610c31565b82525050565b6000602082019050610c5f6000830184610c3b565b92915050565b6000604051905090565b600080fd5b600080fd5b610c8281610c31565b8114610c8d57600080fd5b50565b600081359050610c9f81610c79565b92915050565b600080fd5b6000601f19601f8301169050919050565b7f4e487b7100000000000000000000000000000000000000000000000000000000600052604160045260246000fd5b610cf382610caa565b810181811067ffffffffffffffff82111715610d1257610d11610cbb565b5b80604052505050565b6000610d25610c65565b9050610d318282610cea565b919050565b600080fd5b600073ffffffffffffffffffffffffffffffffffffffff82169050919050565b6000610d6682610d3b565b9050919050565b610d7681610d5b565b8114610d8157600080fd5b50565b600081359050610d9381610d6d565b92915050565b60008115159050919050565b610dae81610d99565b8114610db957600080fd5b50565b600081359050610dcb81610da5565b92915050565b600060c08284031215610de757610de6610ca5565b5b610df160c0610d1b565b90506000610e0184828501610c90565b6000830152506020610e1584828501610c90565b6020830152506040610e2984828501610d84565b6040830152506060610e3d84828501610c90565b6060830152506080610e5184828501610c90565b60808301525060a0610e6584828501610dbc565b60a08301525092915050565b60008060e08385031215610e8857610e87610c6f565b5b6000610e9685828601610c90565b9250506020610ea785828601610dd1565b9150509250929050565b60008060408385031215610ec857610ec7610c6f565b5b6000610ed685828601610d84565b9250506020610ee785828601610c90565b9150509250929050565b600060208284031215610f0757610f06610c6f565b5b6000610f1584828501610c90565b91505092915050565b610f2781610c31565b82525050565b610f3681610d5b565b82525050565b610f4581610d99565b82525050565b60c082016000820151610f616000850182610f1e565b506020820151610f746020850182610f1e565b506040820151610f876040850182610f2d565b506060820151610f9a6060850182610f1e565b506080820151610fad6080850182610f1e565b5060a0820151610fc060a0850182610f3c565b50505050565b600060c082019050610fdb6000830184610f4b565b92915050565b600080fd5b600080fd5b600067ffffffffffffffff82111561100657611005610cbb565b5b61100f82610caa565b9050602081019050919050565b82818337600083830152505050565b600061103e61103984610feb565b610d1b565b90508281526020810184848401111561105a57611059610fe6565b5b61106584828561101c565b509392505050565b600082601f83011261108257611081610fe1565b5b813561109284826020860161102b565b91505092915050565b600061010082840312156110b2576110b1610ca5565b5b6110bd610100610d1b565b905060006110cd84828501610c90565b60008301525060206110e184828501610d84565b60208301525060406110f584828501610c90565b604083015250606082013567ffffffffffffffff81111561111957611118610d36565b5b6111258482850161106d565b606083015250608061113984828501610dbc565b60808301525060a061114d84828501610c90565b60a08301525060c061116184828501610c90565b60c08301525060e061117584828501610c90565b60e08301525092915050565b6000806040838503121561119857611197610c6f565b5b60006111a685828601610c90565b925050602083013567ffffffffffffffff8111156111c7576111c6610c74565b5b6111d38582860161109b565b9150509250929050565b6111e681610d5b565b82525050565b6111f581610d99565b82525050565b600060c0820190506112106000830189610c3b565b61121d6020830188610c3b565b61122a60408301876111dd565b6112376060830186610c3b565b6112446080830185610c3b565b61125160a08301846111ec565b979650505050505050565b600081519050919050565b600082825260208201905092915050565b60005b8381101561129657808201518184015260208101905061127b565b60008484015250505050565b60006112ad8261125c565b6112b78185611267565b93506112c7818560208601611278565b6112d081610caa565b840191505092915050565b6000610100820190506112f1600083018b610c3b565b6112fe602083018a6111dd565b61130b6040830189610c3b565b818103606083015261131d81886112a2565b905061132c60808301876111ec565b61133960a0830186610c3b565b61134660c0830185610c3b565b61135360e0830184610c3b565b9998505050505050505050565b600060208201905061137560008301846111dd565b92915050565b600082825260208201905092915050565b60006113978261125c565b6113a1818561137b565b93506113b1818560208601611278565b6113ba81610caa565b840191505092915050565b6000610100830160008301516113de6000860182610f1e565b5060208301516113f16020860182610f2d565b5060408301516114046040860182610f1e565b506060830151848203606086015261141c828261138c565b91505060808301516114316080860182610f3c565b5060a083015161144460a0860182610f1e565b5060c083015161145760c0860182610f1e565b5060e083015161146a60e0860182610f1e565b508091505092915050565b6000602082019050818103600083015261148f81846113c5565b905092915050565b60006020820190506114ac60008301846111ec565b92915050565b6000602082840312156114c8576114c7610c6f565b5b60006114d684828501610d84565b91505092915050565b7f4e487b7100000000000000000000000000000000000000000000000000000000600052601160045260246000fd5b600061151982610c31565b915061152483610c31565b925082820190508082111561153c5761153b6114df565b5b92915050565b600061154d82610c31565b91507fffffffffffffffffffffffffffffffffffffffffffffffffffffffffffffffff820361157f5761157e6114df565b5b600182019050919050565b7f4e487b7100000000000000000000000000000000000000000000000000000000600052602260045260246000fd5b600060028204905060018216806115d157607f821691505b6020821081036115e4576115e361158a565b5b50919050565b60008190508160005260206000209050919050565b60006020601f8301049050919050565b600082821b905092915050565b60006008830261164c7fffffffffffffffffffffffffffffffffffffffffffffffffffffffffffffffff8261160f565b611656868361160f565b95508019841693508086168417925050509392505050565b6000819050919050565b600061169361168e61168984610c31565b61166e565b610c31565b9050919050565b6000819050919050565b6116ad83611678565b6116c16116b98261169a565b84845461161c565b825550505050565b600090565b6116d66116c9565b6116e18184846116a4565b505050565b5b81811015611705576116fa6000826116ce565b6001810190506116e7565b5050565b601f82111561174a5761171b816115ea565b611724846115ff565b81016020851015611733578190505b61174761173f856115ff565b8301826116e6565b50505b505050565b600082821c905092915050565b600061176d6000198460080261174f565b1980831691505092915050565b6000611786838361175c565b9150826002028217905092915050565b61179f8261125c565b67ffffffffffffffff8111156117b8576117b7610cbb565b5b6117c282546115b9565b6117cd828285611709565b600060209050601f83116001811461180057600084156117ee578287015190505b6117f8858261177a565b865550611860565b601f19841661180e866115ea565b60005b8281101561183657848901518255600182019150602085019450602081019050611811565b86831015611853578489015161184f601f89168261175c565b8355505b6001600288020188555050505b50505050505056fea2646970667358221220a2bcf2201f423952e3369a2ef2241d00d5b71101197a5dd38b5d6fec1d0789d664736f6c634300081c0033",
  "linkReferences": {},
  "deployedLinkReferences": {}
}