{
  "_format": "hh-sol-artifact-1",
  "contractName": "ZaaNetNetwork",
  "sourceName": "contracts/ZaaNetNetwork.sol",
  "abi": [
    {
      "inputs": [
        {
          "internalType": "address",
          "name": "_storageContract",
          "type": "address"
        },
        {
          "internalType": "address",
          "name": "_adminContract",
          "type": "address"
        },
        {
          "internalType": "address",
          "name": "_usdt",
          "type": "address"
        }
      ],
      "stateMutability": "nonpayable",
      "type": "constructor"
    },
    {
      "inputs": [],
      "name": "EnforcedPause",
      "type": "error"
    },
    {
      "inputs": [],
      "name": "ExpectedPause",
      "type": "error"
    },
    {
      "inputs": [
        {
          "internalType": "address",
          "name": "owner",
          "type": "address"
        }
      ],
      "name": "OwnableInvalidOwner",
      "type": "error"
    },
    {
      "inputs": [
        {
          "internalType": "address",
          "name": "account",
          "type": "address"
        }
      ],
      "name": "OwnableUnauthorizedAccount",
      "type": "error"
    },
    {
      "inputs": [],
      "name": "ReentrancyGuardReentrantCall",
      "type": "error"
    },
    {
      "inputs": [
        {
          "internalType": "address",
          "name": "token",
          "type": "address"
        }
      ],
      "name": "SafeERC20FailedOperation",
      "type": "error"
    },
    {
      "anonymous": false,
      "inputs": [
        {
          "indexed": true,
          "internalType": "address",
          "name": "host",
          "type": "address"
        }
      ],
      "name": "HostAdded",
      "type": "event"
    },
    {
      "anonymous": false,
      "inputs": [
        {
          "indexed": true,
          "internalType": "address",
          "name": "host",
          "type": "address"
        },
        {
          "indexed": false,
          "internalType": "uint256",
          "name": "amount",
          "type": "uint256"
        },
        {
          "indexed": false,
          "internalType": "uint256",
          "name": "timestamp",
          "type": "uint256"
        }
      ],
      "name": "HostingFeePaid",
      "type": "event"
    },
    {
      "anonymous": false,
      "inputs": [
        {
          "indexed": true,
          "internalType": "uint256",
          "name": "networkId",
          "type": "uint256"
        },
        {
          "indexed": false,
          "internalType": "uint256",
          "name": "oldPrice",
          "type": "uint256"
        },
        {
          "indexed": false,
          "internalType": "uint256",
          "name": "newPrice",
          "type": "uint256"
        }
      ],
      "name": "NetworkPriceUpdated",
      "type": "event"
    },
    {
      "anonymous": false,
      "inputs": [
        {
          "indexed": true,
          "internalType": "uint256",
          "name": "networkId",
          "type": "uint256"
        },
        {
          "indexed": true,
          "internalType": "address",
          "name": "hostAddress",
          "type": "address"
        },
        {
          "indexed": false,
          "internalType": "string",
          "name": "mongoDataId",
          "type": "string"
        },
        {
          "indexed": false,
          "internalType": "uint256",
          "name": "pricePerSession",
          "type": "uint256"
        },
        {
          "indexed": false,
          "internalType": "bool",
          "name": "isActive",
          "type": "bool"
        },
        {
          "indexed": false,
          "internalType": "uint256",
          "name": "hostingFeePaid",
          "type": "uint256"
        },
        {
          "indexed": false,
          "internalType": "uint256",
          "name": "timestamp",
          "type": "uint256"
        }
      ],
      "name": "NetworkRegistered",
      "type": "event"
    },
    {
      "anonymous": false,
      "inputs": [
        {
          "indexed": true,
          "internalType": "uint256",
          "name": "networkId",
          "type": "uint256"
        },
        {
          "indexed": false,
          "internalType": "bool",
          "name": "oldStatus",
          "type": "bool"
        },
        {
          "indexed": false,
          "internalType": "bool",
          "name": "newStatus",
          "type": "bool"
        }
      ],
      "name": "NetworkStatusChanged",
      "type": "event"
    },
    {
      "anonymous": false,
      "inputs": [
        {
          "indexed": true,
          "internalType": "uint256",
          "name": "networkId",
          "type": "uint256"
        },
        {
          "indexed": true,
          "internalType": "address",
          "name": "hostAddress",
          "type": "address"
        },
        {
          "indexed": false,
          "internalType": "uint256",
          "name": "pricePerSession",
          "type": "uint256"
        },
        {
          "indexed": false,
          "internalType": "string",
          "name": "mongoDataId",
          "type": "string"
        },
        {
          "indexed": false,
          "internalType": "bool",
          "name": "isActive",
          "type": "bool"
        }
      ],
      "name": "NetworkUpdated",
      "type": "event"
    },
    {
      "anonymous": false,
      "inputs": [
        {
          "indexed": true,
          "internalType": "address",
          "name": "previousOwner",
          "type": "address"
        },
        {
          "indexed": true,
          "internalType": "address",
          "name": "newOwner",
          "type": "address"
        }
      ],
      "name": "OwnershipTransferred",
      "type": "event"
    },
    {
      "anonymous": false,
      "inputs": [
        {
          "indexed": false,
          "internalType": "address",
          "name": "account",
          "type": "address"
        }
      ],
      "name": "Paused",
      "type": "event"
    },
    {
      "anonymous": false,
      "inputs": [
        {
          "indexed": false,
          "internalType": "address",
          "name": "account",
          "type": "address"
        }
      ],
      "name": "Unpaused",
      "type": "event"
    },
    {
      "inputs": [],
      "name": "MAX_MONGO_DATA_LENGTH",
      "outputs": [
        {
          "internalType": "uint256",
          "name": "",
          "type": "uint256"
        }
      ],
      "stateMutability": "view",
      "type": "function"
    },
    {
      "inputs": [],
      "name": "MAX_PRICE_PER_SESSION",
      "outputs": [
        {
          "internalType": "uint256",
          "name": "",
          "type": "uint256"
        }
      ],
      "stateMutability": "view",
      "type": "function"
    },
    {
      "inputs": [],
      "name": "MIN_PRICE_PER_SESSION",
      "outputs": [
        {
          "internalType": "uint256",
          "name": "",
          "type": "uint256"
        }
      ],
      "stateMutability": "view",
      "type": "function"
    },
    {
      "inputs": [],
      "name": "REGISTRATION_COOLDOWN",
      "outputs": [
        {
          "internalType": "uint256",
          "name": "",
          "type": "uint256"
        }
      ],
      "stateMutability": "view",
      "type": "function"
    },
    {
      "inputs": [],
      "name": "adminContract",
      "outputs": [
        {
          "internalType": "contract IZaaNetAdmin",
          "name": "",
          "type": "address"
        }
      ],
      "stateMutability": "view",
      "type": "function"
    },
    {
      "inputs": [
        {
          "internalType": "uint256",
          "name": "_networkId",
          "type": "uint256"
        }
      ],
      "name": "deactivateNetwork",
      "outputs": [],
      "stateMutability": "nonpayable",
      "type": "function"
    },
    {
      "inputs": [
        {
          "internalType": "address",
          "name": "hostAddress",
          "type": "address"
        }
      ],
      "name": "getActiveHostNetworks",
      "outputs": [
        {
          "components": [
            {
              "internalType": "uint256",
              "name": "id",
              "type": "uint256"
            },
            {
              "internalType": "address",
              "name": "hostAddress",
              "type": "address"
            },
            {
              "internalType": "uint256",
              "name": "pricePerSession",
              "type": "uint256"
            },
            {
              "internalType": "string",
              "name": "mongoDataId",
              "type": "string"
            },
            {
              "internalType": "bool",
              "name": "isActive",
              "type": "bool"
            },
            {
              "internalType": "uint256",
              "name": "createdAt",
              "type": "uint256"
            },
            {
              "internalType": "uint256",
              "name": "updatedAt",
              "type": "uint256"
            }
          ],
          "internalType": "struct ZaaNetStorage.Network[]",
          "name": "",
          "type": "tuple[]"
        }
      ],
      "stateMutability": "view",
      "type": "function"
    },
    {
      "inputs": [],
      "name": "getAllActiveNetworks",
      "outputs": [
        {
          "components": [
            {
              "internalType": "uint256",
              "name": "id",
              "type": "uint256"
            },
            {
              "internalType": "address",
              "name": "hostAddress",
              "type": "address"
            },
            {
              "internalType": "uint256",
              "name": "pricePerSession",
              "type": "uint256"
            },
            {
              "internalType": "string",
              "name": "mongoDataId",
              "type": "string"
            },
            {
              "internalType": "bool",
              "name": "isActive",
              "type": "bool"
            },
            {
              "internalType": "uint256",
              "name": "createdAt",
              "type": "uint256"
            },
            {
              "internalType": "uint256",
              "name": "updatedAt",
              "type": "uint256"
            }
          ],
          "internalType": "struct ZaaNetStorage.Network[]",
          "name": "",
          "type": "tuple[]"
        }
      ],
      "stateMutability": "view",
      "type": "function"
    },
    {
      "inputs": [],
      "name": "getContractStats",
      "outputs": [
        {
          "internalType": "uint256",
          "name": "totalNetworks",
          "type": "uint256"
        }
      ],
      "stateMutability": "view",
      "type": "function"
    },
    {
      "inputs": [],
      "name": "getCurrentHostingFee",
      "outputs": [
        {
          "internalType": "uint256",
          "name": "",
          "type": "uint256"
        }
      ],
      "stateMutability": "view",
      "type": "function"
    },
    {
      "inputs": [
        {
          "internalType": "address",
          "name": "hostAddress",
          "type": "address"
        }
      ],
      "name": "getHostNetworks",
      "outputs": [
        {
          "internalType": "uint256[]",
          "name": "",
          "type": "uint256[]"
        }
      ],
      "stateMutability": "view",
      "type": "function"
    },
    {
      "inputs": [
        {
          "internalType": "address",
          "name": "hostAddress",
          "type": "address"
        }
      ],
      "name": "getHostStats",
      "outputs": [
        {
          "internalType": "uint256",
          "name": "totalNetworks",
          "type": "uint256"
        },
        {
          "internalType": "uint256",
          "name": "activeNetworks",
          "type": "uint256"
        },
        {
          "internalType": "uint256",
          "name": "totalEarnings",
          "type": "uint256"
        }
      ],
      "stateMutability": "view",
      "type": "function"
    },
    {
      "inputs": [
        {
          "internalType": "uint256",
          "name": "_networkId",
          "type": "uint256"
        }
      ],
      "name": "getHostedNetworkById",
      "outputs": [
        {
          "components": [
            {
              "internalType": "uint256",
              "name": "id",
              "type": "uint256"
            },
            {
              "internalType": "address",
              "name": "hostAddress",
              "type": "address"
            },
            {
              "internalType": "uint256",
              "name": "pricePerSession",
              "type": "uint256"
            },
            {
              "internalType": "string",
              "name": "mongoDataId",
              "type": "string"
            },
            {
              "internalType": "bool",
              "name": "isActive",
              "type": "bool"
            },
            {
              "internalType": "uint256",
              "name": "createdAt",
              "type": "uint256"
            },
            {
              "internalType": "uint256",
              "name": "updatedAt",
              "type": "uint256"
            }
          ],
          "internalType": "struct ZaaNetStorage.Network",
          "name": "",
          "type": "tuple"
        }
      ],
      "stateMutability": "view",
      "type": "function"
    },
    {
      "inputs": [
        {
          "internalType": "uint256",
          "name": "offset",
          "type": "uint256"
        },
        {
          "internalType": "uint256",
          "name": "limit",
          "type": "uint256"
        }
      ],
      "name": "getNetworksPaginated",
      "outputs": [
        {
          "components": [
            {
              "internalType": "uint256",
              "name": "id",
              "type": "uint256"
            },
            {
              "internalType": "address",
              "name": "hostAddress",
              "type": "address"
            },
            {
              "internalType": "uint256",
              "name": "pricePerSession",
              "type": "uint256"
            },
            {
              "internalType": "string",
              "name": "mongoDataId",
              "type": "string"
            },
            {
              "internalType": "bool",
              "name": "isActive",
              "type": "bool"
            },
            {
              "internalType": "uint256",
              "name": "createdAt",
              "type": "uint256"
            },
            {
              "internalType": "uint256",
              "name": "updatedAt",
              "type": "uint256"
            }
          ],
          "internalType": "struct ZaaNetStorage.Network[]",
          "name": "networks",
          "type": "tuple[]"
        },
        {
          "internalType": "uint256",
          "name": "totalCount",
          "type": "uint256"
        }
      ],
      "stateMutability": "view",
      "type": "function"
    },
    {
      "inputs": [],
      "name": "getTreasuryAddress",
      "outputs": [
        {
          "internalType": "address",
          "name": "",
          "type": "address"
        }
      ],
      "stateMutability": "view",
      "type": "function"
    },
    {
      "inputs": [
        {
          "internalType": "address",
          "name": "",
          "type": "address"
        }
      ],
      "name": "isHost",
      "outputs": [
        {
          "internalType": "bool",
          "name": "",
          "type": "bool"
        }
      ],
      "stateMutability": "view",
      "type": "function"
    },
    {
      "inputs": [
        {
          "internalType": "address",
          "name": "hostAddress",
          "type": "address"
        }
      ],
      "name": "isRegisteredHost",
      "outputs": [
        {
          "internalType": "bool",
          "name": "",
          "type": "bool"
        }
      ],
      "stateMutability": "view",
      "type": "function"
    },
    {
      "inputs": [
        {
          "internalType": "address",
          "name": "",
          "type": "address"
        }
      ],
      "name": "lastRegistrationTime",
      "outputs": [
        {
          "internalType": "uint256",
          "name": "",
          "type": "uint256"
        }
      ],
      "stateMutability": "view",
      "type": "function"
    },
    {
      "inputs": [
        {
          "internalType": "uint256",
          "name": "",
          "type": "uint256"
        }
      ],
      "name": "networkToHost",
      "outputs": [
        {
          "internalType": "address",
          "name": "",
          "type": "address"
        }
      ],
      "stateMutability": "view",
      "type": "function"
    },
    {
      "inputs": [],
      "name": "owner",
      "outputs": [
        {
          "internalType": "address",
          "name": "",
          "type": "address"
        }
      ],
      "stateMutability": "view",
      "type": "function"
    },
    {
      "inputs": [],
      "name": "pause",
      "outputs": [],
      "stateMutability": "nonpayable",
      "type": "function"
    },
    {
      "inputs": [],
      "name": "paused",
      "outputs": [
        {
          "internalType": "bool",
          "name": "",
          "type": "bool"
        }
      ],
      "stateMutability": "view",
      "type": "function"
    },
    {
      "inputs": [
        {
          "internalType": "uint256",
          "name": "_pricePerSession",
          "type": "uint256"
        },
        {
          "internalType": "string",
          "name": "_mongoDataId",
          "type": "string"
        },
        {
          "internalType": "bool",
          "name": "_isActive",
          "type": "bool"
        }
      ],
      "name": "registerNetwork",
      "outputs": [],
      "stateMutability": "nonpayable",
      "type": "function"
    },
    {
      "inputs": [],
      "name": "renounceOwnership",
      "outputs": [],
      "stateMutability": "nonpayable",
      "type": "function"
    },
    {
      "inputs": [
        {
          "internalType": "address",
          "name": "_newAdminContract",
          "type": "address"
        }
      ],
      "name": "setAdminContract",
      "outputs": [],
      "stateMutability": "nonpayable",
      "type": "function"
    },
    {
      "inputs": [
        {
          "internalType": "address",
          "name": "_newUsdt",
          "type": "address"
        }
      ],
      "name": "setUsdtContract",
      "outputs": [],
      "stateMutability": "nonpayable",
      "type": "function"
    },
    {
      "inputs": [],
      "name": "storageContract",
      "outputs": [
        {
          "internalType": "contract ZaaNetStorage",
          "name": "",
          "type": "address"
        }
      ],
      "stateMutability": "view",
      "type": "function"
    },
    {
      "inputs": [
        {
          "internalType": "address",
          "name": "newOwner",
          "type": "address"
        }
      ],
      "name": "transferOwnership",
      "outputs": [],
      "stateMutability": "nonpayable",
      "type": "function"
    },
    {
      "inputs": [],
      "name": "unpause",
      "outputs": [],
      "stateMutability": "nonpayable",
      "type": "function"
    },
    {
      "inputs": [
        {
          "internalType": "uint256",
          "name": "_networkId",
          "type": "uint256"
        },
        {
          "internalType": "uint256",
          "name": "_pricePerSession",
          "type": "uint256"
        },
        {
          "internalType": "bool",
          "name": "_isActive",
          "type": "bool"
        }
      ],
      "name": "updateNetwork",
      "outputs": [],
      "stateMutability": "nonpayable",
      "type": "function"
    },
    {
      "inputs": [],
      "name": "usdt",
      "outputs": [
        {
          "internalType": "contract IERC20",
          "name": "",
          "type": "address"
        }
      ],
      "stateMutability": "view",
      "type": "function"
    }
  ],
  "bytecode": "0x60803461020657601f6122bb38819003918201601f19168301916001600160401b0383118484101761020b578084926060946040528339810103126102065761004781610221565b90610060604061005960208401610221565b9201610221565b9033156101f05760008054336001600160a01b0319821681178355604051959290916001600160a01b0316907f8be0079c531659141344cd1fd0a4f28419497f9722a3daafe3b4186f6b6457e09080a3600180556001600160a01b03169283156101ae57506001600160a01b0316908115610169576001600160a01b03169182156101245760018060a01b0319600254161760025560018060a01b0319600354161760035560018060a01b0319600454161760045560405161208590816102368239f35b60405162461bcd60e51b815260206004820152601d60248201527f496e76616c6964205553445420636f6e747261637420616464726573730000006044820152606490fd5b60405162461bcd60e51b815260206004820152601e60248201527f496e76616c69642061646d696e20636f6e7472616374206164647265737300006044820152606490fd5b62461bcd60e51b815260206004820181905260248201527f496e76616c69642073746f7261676520636f6e747261637420616464726573736044820152606490fd5b631e4fbdf760e01b600052600060045260246000fd5b600080fd5b634e487b7160e01b600052604160045260246000fd5b51906001600160a01b03821682036102065756fe608080604052600436101561001357600080fd5b600090813560e01c90816309115e9714611b595750806311ce026714611b3057806316cb6eff14611a2e5780631b63fe67146117cd5780632b2a748c1461160b5780632f48ab7d146115e25780633f4ba83a1461157457806343355214146115415780634b9791e8146111d1578063576338a5146111495780635c975abb1461112457806363a812f91461109b578063715018a614611041578063764ac73414610eac57806379f0dc5714610df35780637f6e8cbf14610db65780638456cb5914610d55578063867f1a09146102b357806389ea28d914610d065780638da5cb5b14610cdf578063900e41b114610542578063b0ff638314610526578063c05c5e94146104fd578063cd83fb9a1461045b578063d4f38d041461043c578063dfe6b5d6146103b4578063e002460414610311578063e67d86f1146102f5578063eb2931b7146102b3578063f2fde38b146102255763fa9c81a41461017657600080fd5b3461022257604036600319011261022257600254604051633ea7206960e21b81526004803590820152602480359082015291908190839060449082906001600160a01b03165afa8015610215576101e5928280926101ef575b5050604051928392604084526040840190611c19565b9060208301520390f35b90915061020e92503d8091833e6102068183611cb3565b810190611dde565b38806101cf565b50604051903d90823e3d90fd5b80fd5b5034610222576020366003190112610222576004356001600160a01b038116908190036102af57610254612026565b801561029b5781546001600160a01b03198116821783556001600160a01b03167f8be0079c531659141344cd1fd0a4f28419497f9722a3daafe3b4186f6b6457e08380a380f35b631e4fbdf760e01b82526004829052602482fd5b5080fd5b5034610222576020366003190112610222576004356001600160a01b038116908190036102af5760408260ff9260209452600584522054166040519015158152f35b5034610222578060031936011261022257602060405160c88152f35b503461022257806003193601126102225760035460405163c5f956af60e01b81529190602090839060049082906001600160a01b03165afa9081156103a857809161036b575b6040516001600160a01b0383168152602090f35b90506020823d6020116103a0575b8161038660209383611cb3565b81010312610222575061039a602091611d09565b38610357565b3d9150610379565b604051903d90823e3d90fd5b503461022257806003193601126102225760025460405163217c682d60e01b81529190602090839060049082906001600160a01b03165afa9081156103a85790610404575b602090604051908152f35b506020813d602011610434575b8161041e60209383611cb3565b8101031261042f57602090516103f9565b600080fd5b3d9150610411565b503461022257806003193601126102225760206040516302faf0808152f35b503461022257602036600319011261022257610475611ed1565b506002546040516395ea571760e01b81526004803590820152908290829060249082906001600160a01b03165afa9081156104f257826104cb93926104cf575b5050604051918291602083526020830190611bbd565b0390f35b6104eb92503d8091833e6104e38183611cb3565b810190611f58565b38806104b5565b6040513d84823e3d90fd5b50346102225780600319360112610222576003546040516001600160a01b039091168152602090f35b50346102225780600319360112610222576020604051603c8152f35b5034610222576060366003190112610222576024359060043567ffffffffffffffff83116102af57366023840112156102af57826004013561058381611cd5565b936105916040519586611cb3565b8185523660248383010111610a425781849260246020930183880137850101526105b9611c72565b926105c2611fe4565b6105ca612004565b33835260086020526040832054603c8101809111610ccb574210610c865761271082101580610c78575b6105fd90611f81565b80518015159081610c6c575b5015610c27576003546040516375f3fed560e11b81526001600160a01b0390911694602082600481895afa918215610a46578592610bf0575b5060206004966040519788809263c5f956af60e01b82525afa958615610a46578596610bb4575b5081151580610ba2575b6108d2575b6002546040516329487fe360e11b8152959650939493602090859060049082908a906001600160a01b03165af19384156108c7578694610893575b508560018060a01b036002541691604051906106ce82611c81565b8682523360208301528760408301528560608301521515928360808301524260a08301524260c0830152803b1561088f57604051631430350760e21b81529183918391829084908290610725908d60048401611fcd565b03925af180156104f257610876575b505033865260066020526040862080549068010000000000000000821015610862576001820180825582101561084e577fd93f4aea01982a4687b0d757a8314f57b6a77742cf98d21bc9bdb24ef543a4dc9493929186918952602089200155848752600760205260408720336001600160601b0360a01b8254161790553387526008602052426040882055338752600560205260ff6040882054161561080d575b6107ea6040519360a0855260a0850190611b98565b956020840152604083015260608201524260808201528033940390a36001805580f35b33808852600560205260408820805460ff191660011790557f8ff9310abede1de3c5d3fdbb7cf09c40bc8258ca75c0f949ad92f964deac98b38880a26107d5565b634e487b7160e01b88526032600452602488fd5b634e487b7160e01b88526041600452602488fd5b8161088091611cb3565b61088b578538610734565b8580fd5b8280fd5b9093506020813d6020116108bf575b816108af60209383611cb3565b8101031261042f575192386106b3565b3d91506108a2565b6040513d88823e3d90fd5b600480546040516370a0823160e01b815233928101929092526001600160a01b031696906020816024818b5afa908115610b0b579084918891610b6d575b5010610b1657604051636eb1769f60e11b81523360048201523060248201526020816044818b5afa908115610b0b579084918891610ad6575b5010610a7d576040516323b872dd60e01b60208281019182523360248401526001600160a01b03909316604483015260648083018690528252879161098f608482611cb3565b5190828a5af115610a725784513d610a695750853b155b610a555760025494955092938593906001600160a01b0316803b15610a51578480916024604051809481936369009a1360e01b83528860048401525af1908115610a46578591610a2d575b50506040518281524260208201527fac5b35db873b0c878683cbeac0fc736acd48ea6480742bafd3ba483dd715882460403392a2939293610678565b81610a3791611cb3565b610a425783386109f1565b8380fd5b6040513d87823e3d90fd5b8480fd5b635274afe760e01b85526004869052602485fd5b600114156109a6565b6040513d86823e3d90fd5b60405162461bcd60e51b815260206004820152602b60248201527f496e73756666696369656e74205553445420616c6c6f77616e636520666f722060448201526a686f7374696e672066656560a81b6064820152608490fd5b9150506020813d602011610b03575b81610af260209383611cb3565b8101031261042f5783905138610949565b3d9150610ae5565b6040513d89823e3d90fd5b60405162461bcd60e51b815260206004820152602960248201527f496e73756666696369656e7420555344542062616c616e636520666f7220686f6044820152687374696e672066656560b81b6064820152608490fd5b9150506020813d602011610b9a575b81610b8960209383611cb3565b8101031261042f5783905138610910565b3d9150610b7c565b506001600160a01b0386161515610673565b9095506020813d602011610be8575b81610bd060209383611cb3565b81010312610a5157610be190611d09565b9438610669565b3d9150610bc3565b9591506020863d602011610c1f575b81610c0c60209383611cb3565b8101031261042f57945190946020610642565b3d9150610bff565b60405162461bcd60e51b815260206004820152601a60248201527f496e76616c6964204d6f6e676f446174614944206c656e6774680000000000006044820152606490fd5b60c89150111538610609565b506302faf0808211156105f4565b60405162461bcd60e51b815260206004820152601c60248201527f526567697374726174696f6e20636f6f6c646f776e20616374697665000000006044820152606490fd5b634e487b7160e01b84526011600452602484fd5b5034610222578060031936011261022257546040516001600160a01b039091168152602090f35b50346102225780600319360112610222576003546040516375f3fed560e11b81529190602090839060049082906001600160a01b03165afa9081156103a8579061040457602090604051908152f35b5034610222578060031936011261022257610d6e612026565b610d76611fe4565b805460ff60a01b1916600160a01b1781556040513381527f62e78cea01bee320cd4e420270b5ea74000d11b0c9f74754ebdbfc544b05a25890602090a180f35b5034610222576020366003190112610222576004356001600160a01b038116908190036102af578160409160209352600883522054604051908152f35b5034610222576020366003190112610222576004356001600160a01b038116908190036102af578152600660205260408120604051908160208254918281520190819285526020852090855b818110610e965750505082610e55910383611cb3565b604051928392602084019060208552518091526040840192915b818110610e7d575050500390f35b8251845285945060209384019390920191600101610e6f565b8254845260209093019260019283019201610e3f565b5034610222576020366003190112610222576004356001600160a01b038116908190036102af57818183526006602052604083205460018060a01b03600254169060405193636d65573f60e01b8552806004860152602085602481865afa9485156108c757869561100d575b508552600660205260408520906040518083602082955493848152019089526020892092895b818110610ff4575050610f5392500383611cb3565b855b8251811015610fdd57610f688184611e82565b51604051906395ea571760e01b825260048201528781602481885afa8015610fd2576080918991610fb8575b500151610fa4575b600101610f55565b93610fb0600191611eac565b949050610f9c565b610fcc91503d808b833e6104e38183611cb3565b38610f94565b6040513d8a823e3d90fd5b606082878760405192835260208301526040820152f35b8454835260019485019487945060209093019201610f3e565b9094506020813d602011611039575b8161102960209383611cb3565b8101031261042f57519338610f18565b3d915061101c565b503461022257806003193601126102225761105a612026565b80546001600160a01b03198116825581906001600160a01b03167f8be0079c531659141344cd1fd0a4f28419497f9722a3daafe3b4186f6b6457e08280a380f35b5034610222576020366003190112610222576004356001600160a01b038116908190036102af576110ca612026565b80156110e6576001600160601b0360a01b600354161760035580f35b60405162461bcd60e51b8152602060048201526016602482015275125b9d985b1a590818591b5a5b8818dbdb9d1c9858dd60521b6044820152606490fd5b503461022257806003193601126102225760ff6020915460a01c166040519015158152f35b5034610222576020366003190112610222576004356001600160a01b038116908190036102af57611178612026565b8015611194576001600160601b0360a01b600454161760045580f35b60405162461bcd60e51b8152602060048201526015602482015274125b9d985b1a59081554d1150818dbdb9d1c9858dd605a1b6044820152606490fd5b5034610222576020366003190112610222576004356111ee611fe4565b6002546040516395ea571760e01b815260048101839052908390829060249082906001600160a01b03165afa90811561153657839161151c575b5060208101516001600160a01b031633036114d7576080810151156114925760409081015160025491516395ea571760e01b8152600481018490529092916001600160a01b03168482602481845afa918215610a46578592611476575b506020820151336001600160a01b039091160361143a576127108410158061142c575b6112b190611f81565b846040830151926080810151151590606081019360a08551920151604051926112d984611c81565b888452336020850152896040850152606084015284608084015260a08301524260c0830152803b15610a425761132a8492918392604051968780948193631430350760e21b83528d60048401611fcd565b03925af192831561021557869361140f575b5050908161139193928286897f54505b9e522263d538acc1f6de9658c2ae4fd39b8771f562481c2d375d1c1f2d98036113d8575b50506113a1575b505051604051948552606060208601526060850190611b98565b928460408201528033940390a380f35b60407fb061566845b6680f66461fbe29235493f3aa355419d464d868114a32e0e7ae7b918151908152896020820152a28338611377565b60407f07d20e42fbc3910f3e2536c15bfb3d2deec361f7b0534c071570af6608429f019181519081528b6020820152a28238611370565b81929493509061141e91611cb3565b61088b57908390863861133c565b506302faf0808411156112a8565b60405162461bcd60e51b81526020600482015260146024820152734f6e6c7920686f73742063616e2075706461746560601b6044820152606490fd5b61148b9192503d8087833e6104e38183611cb3565b9038611285565b60405162461bcd60e51b815260206004820152601860248201527f4e6574776f726b20616c726561647920696e61637469766500000000000000006044820152606490fd5b60405162461bcd60e51b815260206004820152601860248201527f4f6e6c7920686f73742063616e206465616374697661746500000000000000006044820152606490fd5b61153091503d8085833e6104e38183611cb3565b38611228565b6040513d85823e3d90fd5b503461022257602036600319011261022257602090600435815260078252604060018060a01b0391205416604051908152f35b503461022257806003193601126102225761158d612026565b805460ff8160a01c16156115d35760ff60a01b191681556040513381527f5db9ee0a495bf2e6ff9c91a7834c1ba4fdd244a5e8aa4e537bd38aeae4b073aa90602090a180f35b638dfc202b60e01b8252600482fd5b50346102225780600319360112610222576004546040516001600160a01b039091168152602090f35b5034610222576020366003190112610222576004356001600160a01b038116908190036102af5781526006602052604081206040518082602082945493848152019085526020852092855b8181106117b457505061166b92500382611cb3565b60025482906001600160a01b031681805b84518110156116f95761168f8186611e82565b51604051906395ea571760e01b825260048201528281602481875afa80156115365760809184916116df575b5001516116cb575b60010161167c565b926116d7600191611eac565b9390506116c3565b6116f391503d8086833e6104e38183611cb3565b386116bb565b50509061170590611f08565b8390845b845181101561179e5761171c8186611e82565b51604051906395ea571760e01b825260048201528681602481885afa908115610b0b578791611784575b50608081015161175a575b50600101611709565b8361177d9161176c6001949686611e82565b526117778185611e82565b50611eac565b9290611751565b61179891503d8089833e6104e38183611cb3565b38611746565b604051602080825281906104cb90820185611c19565b8454835260019485019486945060209093019201611656565b5034610222576060366003190112610222576024356004356117ed611c72565b916117f6611fe4565b6117fe612004565b6002546040516395ea571760e01b815260048101849052906001600160a01b03168582602481845afa9182156108c7578692611a12575b506020820151336001600160a01b039091160361143a5761271083101580611a04575b61186190611f81565b6040820151866080840151151592606085019460a08651910151986040519161188983611c81565b898352336020840152886040840152606083015215159889608083015260a08201524260c0820152813b1561088f5782916118db91604051948580948193631430350760e21b83528d60048401611fcd565b03925af18015610fd2576119c2575b509184611941928185877f54505b9e522263d538acc1f6de9658c2ae4fd39b8771f562481c2d375d1c1f2d98970361198b575b5050878103611954575b505051604051928352606060208401526060830190611b98565b9360408201528033940390a36001805580f35b60407fb061566845b6680f66461fbe29235493f3aa355419d464d868114a32e0e7ae7b918151908152896020820152a28438611927565b60407f07d20e42fbc3910f3e2536c15bfb3d2deec361f7b0534c071570af6608429f01918151908152886020820152a2813861191d565b6119419286896119f77f54505b9e522263d538acc1f6de9658c2ae4fd39b8771f562481c2d375d1c1f2d9897959b8395611cb3565b99939596505092506118ea565b506302faf080831115611858565b611a279192503d8088833e6104e38183611cb3565b9038611835565b5034610222578060031936011261022257600254604051633ea7206960e21b8152600481018390526064602482015291908190839060449082906001600160a01b03165afa918215610215578192611b13575b5080815b8351811015611abe576080611a9a8286611e82565b510151611aaa575b600101611a85565b90611ab6600191611eac565b919050611aa2565b50611ac890611f08565b815b835181101561179e576080611adf8286611e82565b510151611aef575b600101611aca565b91611b0b600191611b008587611e82565b5161176c8286611e82565b929050611ae7565b611b289192503d8084833e6102068183611cb3565b509038611a81565b50346102225780600319360112610222576002546040516001600160a01b039091168152602090f35b9050346102af57816003193601126102af578061271060209252f35b60005b838110611b885750506000910152565b8181015183820152602001611b78565b90602091611bb181518092818552858086019101611b75565b601f01601f1916010190565b908151815260018060a01b0360208301511660208201526040820151604082015260c080611bfa606085015160e0606086015260e0850190611b98565b9360808101511515608085015260a081015160a0850152015191015290565b9080602083519182815201916020808360051b8301019401926000915b838310611c4557505050505090565b9091929394602080611c63600193601f198682030187528951611bbd565b97019301930191939290611c36565b60443590811515820361042f57565b60e0810190811067ffffffffffffffff821117611c9d57604052565b634e487b7160e01b600052604160045260246000fd5b90601f8019910116810190811067ffffffffffffffff821117611c9d57604052565b67ffffffffffffffff8111611c9d57601f01601f191660200190565b67ffffffffffffffff8111611c9d5760051b60200190565b51906001600160a01b038216820361042f57565b91909160e08184031261042f5760405190611d3782611c81565b819381518352611d4960208301611d09565b602084015260408201516040840152606082015167ffffffffffffffff811161042f57820181601f8201121561042f578051611d8481611cd5565b92611d926040519485611cb3565b8184526020828401011161042f57611db09160208085019101611b75565b60608301526080810151801515810361042f5760c0918291608085015260a081015160a08501520151910152565b919060408382031261042f57825167ffffffffffffffff811161042f5783019080601f8301121561042f578151611e1481611cf1565b92611e226040519485611cb3565b81845260208085019260051b8201019183831161042f5760208201905b838210611e5457505050505060209092015190565b815167ffffffffffffffff811161042f57602091611e7787848094880101611d1d565b815201910190611e3f565b8051821015611e965760209160051b010190565b634e487b7160e01b600052603260045260246000fd5b6000198114611ebb5760010190565b634e487b7160e01b600052601160045260246000fd5b60405190611ede82611c81565b600060c0838281528260208201528260408201526060808201528260808201528260a08201520152565b90611f1282611cf1565b611f1f6040519182611cb3565b8281528092611f30601f1991611cf1565b019060005b828110611f4157505050565b602090611f4c611ed1565b82828501015201611f35565b9060208282031261042f57815167ffffffffffffffff811161042f57611f7e9201611d1d565b90565b15611f8857565b60405162461bcd60e51b815260206004820152601a60248201527f5072696365206f7574206f6620616c6c6f7765642072616e67650000000000006044820152606490fd5b604090611f7e939281528160208201520190611bbd565b60ff60005460a01c16611ff357565b63d93c066560e01b60005260046000fd5b600260015414612015576002600155565b633ee5aeb560e01b60005260046000fd5b6000546001600160a01b0316330361203a57565b63118cdaa760e01b6000523360045260246000fdfea26469706673582212200ef369e340644e88beb1ec708092be77e13b6388a3b9087dd4a2a7fc8415d96f64736f6c634300081c0033",
  "linkReferences": {},
  "deployedLinkReferences": {}
}