{
  "_format": "hh-sol-artifact-1",
  "contractName": "ZaaNetNetwork",
  "sourceName": "contracts/ZaaNetNetwork.sol",
  "abi": [
    {
      "inputs": [
        {
          "internalType": "address",
          "name": "_storageContract",
          "type": "address"
        }
      ],
      "stateMutability": "nonpayable",
      "type": "constructor"
    },
    {
      "inputs": [],
      "name": "EnforcedPause",
      "type": "error"
    },
    {
      "inputs": [],
      "name": "ExpectedPause",
      "type": "error"
    },
    {
      "anonymous": false,
      "inputs": [
        {
          "indexed": true,
          "internalType": "address",
          "name": "newHost",
          "type": "address"
        }
      ],
      "name": "HostAdded",
      "type": "event"
    },
    {
      "anonymous": false,
      "inputs": [
        {
          "indexed": true,
          "internalType": "uint256",
          "name": "networkId",
          "type": "uint256"
        },
        {
          "indexed": true,
          "internalType": "address",
          "name": "host",
          "type": "address"
        },
        {
          "indexed": false,
          "internalType": "string",
          "name": "metadataCID",
          "type": "string"
        }
      ],
      "name": "NetworkRegistered",
      "type": "event"
    },
    {
      "anonymous": false,
      "inputs": [
        {
          "indexed": true,
          "internalType": "uint256",
          "name": "networkId",
          "type": "uint256"
        },
        {
          "indexed": true,
          "internalType": "address",
          "name": "host",
          "type": "address"
        },
        {
          "indexed": false,
          "internalType": "string",
          "name": "metadataCID",
          "type": "string"
        },
        {
          "indexed": false,
          "internalType": "bool",
          "name": "isActive",
          "type": "bool"
        }
      ],
      "name": "NetworkUpdated",
      "type": "event"
    },
    {
      "anonymous": false,
      "inputs": [
        {
          "indexed": false,
          "internalType": "address",
          "name": "account",
          "type": "address"
        }
      ],
      "name": "Paused",
      "type": "event"
    },
    {
      "anonymous": false,
      "inputs": [
        {
          "indexed": false,
          "internalType": "address",
          "name": "account",
          "type": "address"
        }
      ],
      "name": "Unpaused",
      "type": "event"
    },
    {
      "inputs": [],
      "name": "getAllNetworks",
      "outputs": [
        {
          "components": [
            {
              "internalType": "uint256",
              "name": "id",
              "type": "uint256"
            },
            {
              "internalType": "address",
              "name": "host",
              "type": "address"
            },
            {
              "internalType": "uint256",
              "name": "price",
              "type": "uint256"
            },
            {
              "internalType": "string",
              "name": "metadataCID",
              "type": "string"
            },
            {
              "internalType": "bool",
              "name": "isActive",
              "type": "bool"
            },
            {
              "internalType": "uint256",
              "name": "totalRating",
              "type": "uint256"
            },
            {
              "internalType": "uint256",
              "name": "ratingCount",
              "type": "uint256"
            },
            {
              "internalType": "uint256",
              "name": "successfulSessions",
              "type": "uint256"
            }
          ],
          "internalType": "struct ZaaNetStorage.Network[]",
          "name": "",
          "type": "tuple[]"
        }
      ],
      "stateMutability": "view",
      "type": "function"
    },
    {
      "inputs": [
        {
          "internalType": "uint256",
          "name": "networkId",
          "type": "uint256"
        }
      ],
      "name": "getAverageRating",
      "outputs": [
        {
          "internalType": "uint256",
          "name": "",
          "type": "uint256"
        }
      ],
      "stateMutability": "view",
      "type": "function"
    },
    {
      "inputs": [
        {
          "internalType": "address",
          "name": "host",
          "type": "address"
        }
      ],
      "name": "getHostNetworks",
      "outputs": [
        {
          "internalType": "uint256[]",
          "name": "",
          "type": "uint256[]"
        }
      ],
      "stateMutability": "view",
      "type": "function"
    },
    {
      "inputs": [
        {
          "internalType": "uint256",
          "name": "_networkId",
          "type": "uint256"
        }
      ],
      "name": "getHostedNetworkById",
      "outputs": [
        {
          "components": [
            {
              "internalType": "uint256",
              "name": "id",
              "type": "uint256"
            },
            {
              "internalType": "address",
              "name": "host",
              "type": "address"
            },
            {
              "internalType": "uint256",
              "name": "price",
              "type": "uint256"
            },
            {
              "internalType": "string",
              "name": "metadataCID",
              "type": "string"
            },
            {
              "internalType": "bool",
              "name": "isActive",
              "type": "bool"
            },
            {
              "internalType": "uint256",
              "name": "totalRating",
              "type": "uint256"
            },
            {
              "internalType": "uint256",
              "name": "ratingCount",
              "type": "uint256"
            },
            {
              "internalType": "uint256",
              "name": "successfulSessions",
              "type": "uint256"
            }
          ],
          "internalType": "struct ZaaNetStorage.Network",
          "name": "",
          "type": "tuple"
        }
      ],
      "stateMutability": "view",
      "type": "function"
    },
    {
      "inputs": [
        {
          "internalType": "address",
          "name": "",
          "type": "address"
        }
      ],
      "name": "isHost",
      "outputs": [
        {
          "internalType": "bool",
          "name": "",
          "type": "bool"
        }
      ],
      "stateMutability": "view",
      "type": "function"
    },
    {
      "inputs": [
        {
          "internalType": "address",
          "name": "account",
          "type": "address"
        }
      ],
      "name": "isRegisteredHost",
      "outputs": [
        {
          "internalType": "bool",
          "name": "",
          "type": "bool"
        }
      ],
      "stateMutability": "view",
      "type": "function"
    },
    {
      "inputs": [],
      "name": "owner",
      "outputs": [
        {
          "internalType": "address",
          "name": "",
          "type": "address"
        }
      ],
      "stateMutability": "view",
      "type": "function"
    },
    {
      "inputs": [],
      "name": "paused",
      "outputs": [
        {
          "internalType": "bool",
          "name": "",
          "type": "bool"
        }
      ],
      "stateMutability": "view",
      "type": "function"
    },
    {
      "inputs": [
        {
          "internalType": "uint256",
          "name": "networkId",
          "type": "uint256"
        },
        {
          "internalType": "uint8",
          "name": "rating",
          "type": "uint8"
        }
      ],
      "name": "rateNetwork",
      "outputs": [],
      "stateMutability": "nonpayable",
      "type": "function"
    },
    {
      "inputs": [
        {
          "internalType": "uint256",
          "name": "_pricePerHour",
          "type": "uint256"
        },
        {
          "internalType": "string",
          "name": "_metadataCID",
          "type": "string"
        },
        {
          "internalType": "bool",
          "name": "_isActive",
          "type": "bool"
        }
      ],
      "name": "registerNetwork",
      "outputs": [],
      "stateMutability": "nonpayable",
      "type": "function"
    },
    {
      "inputs": [],
      "name": "storageContract",
      "outputs": [
        {
          "internalType": "contract ZaaNetStorage",
          "name": "",
          "type": "address"
        }
      ],
      "stateMutability": "view",
      "type": "function"
    },
    {
      "inputs": [
        {
          "internalType": "uint256",
          "name": "_networkId",
          "type": "uint256"
        },
        {
          "internalType": "uint256",
          "name": "_pricePerHour",
          "type": "uint256"
        },
        {
          "internalType": "string",
          "name": "_metadataCID",
          "type": "string"
        },
        {
          "internalType": "bool",
          "name": "_isActive",
          "type": "bool"
        }
      ],
      "name": "updateNetwork",
      "outputs": [],
      "stateMutability": "nonpayable",
      "type": "function"
    }
  ],
  "bytecode": "0x608060405234801561001057600080fd5b506040516124483803806124488339818101604052810190610032919061011d565b80600060016101000a81548173ffffffffffffffffffffffffffffffffffffffff021916908373ffffffffffffffffffffffffffffffffffffffff16021790555033600160006101000a81548173ffffffffffffffffffffffffffffffffffffffff021916908373ffffffffffffffffffffffffffffffffffffffff1602179055505061014a565b600080fd5b600073ffffffffffffffffffffffffffffffffffffffff82169050919050565b60006100ea826100bf565b9050919050565b6100fa816100df565b811461010557600080fd5b50565b600081519050610117816100f1565b92915050565b600060208284031215610133576101326100ba565b5b600061014184828501610108565b91505092915050565b6122ef806101596000396000f3fe608060405234801561001057600080fd5b50600436106100b45760003560e01c80638da5cb5b116100715780638da5cb5b146101a3578063900e41b1146101c157806392f01063146101dd578063b9a55603146101f9578063cd83fb9a14610215578063eb2931b714610245576100b4565b806311ce0267146100b957806317b7e03e146100d75780635c975abb1461010757806379f0dc5714610125578063830c985014610155578063867f1a0914610173575b600080fd5b6100c1610275565b6040516100ce9190611297565b60405180910390f35b6100f160048036038101906100ec91906112fc565b61029b565b6040516100fe9190611338565b60405180910390f35b61010f610380565b60405161011c919061136e565b60405180910390f35b61013f600480360381019061013a91906113c7565b610396565b60405161014c91906114b2565b60405180910390f35b61015d61042d565b60405161016a91906116f4565b60405180910390f35b61018d600480360381019061018891906113c7565b610610565b60405161019a919061136e565b60405180910390f35b6101ab610666565b6040516101b89190611725565b60405180910390f35b6101db60048036038101906101d691906118a1565b61068c565b005b6101f760048036038101906101f29190611910565b610a3c565b005b610213600480360381019061020e91906119cc565b610ce5565b005b61022f600480360381019061022a91906112fc565b61105e565b60405161023c9190611abc565b60405180910390f35b61025f600480360381019061025a91906113c7565b61115a565b60405161026c919061136e565b60405180910390f35b600060019054906101000a900473ffffffffffffffffffffffffffffffffffffffff1681565b600080600060019054906101000a900473ffffffffffffffffffffffffffffffffffffffff1673ffffffffffffffffffffffffffffffffffffffff166395ea5717846040518263ffffffff1660e01b81526004016102f99190611338565b600060405180830381865afa158015610316573d6000803e3d6000fd5b505050506040513d6000823e3d601f19601f8201168201806040525081019061033f9190611c7d565b905060008160c001510361035757600091505061037b565b8060c0015160648260a0015161036d9190611cf5565b6103779190611d66565b9150505b919050565b60008060009054906101000a900460ff16905090565b6060600360008373ffffffffffffffffffffffffffffffffffffffff1673ffffffffffffffffffffffffffffffffffffffff16815260200190815260200160002080548060200260200160405190810160405280929190818152602001828054801561042157602002820191906000526020600020905b81548152602001906001019080831161040d575b50505050509050919050565b606060008060019054906101000a900473ffffffffffffffffffffffffffffffffffffffff1673ffffffffffffffffffffffffffffffffffffffff1663217c682d6040518163ffffffff1660e01b8152600401602060405180830381865afa15801561049d573d6000803e3d6000fd5b505050506040513d601f19601f820116820180604052508101906104c19190611d97565b905060008167ffffffffffffffff8111156104df576104de61174a565b5b60405190808252806020026020018201604052801561051857816020015b6105056111bb565b8152602001906001900390816104fd5790505b5090506000600190505b82811161060757600060019054906101000a900473ffffffffffffffffffffffffffffffffffffffff1673ffffffffffffffffffffffffffffffffffffffff166395ea5717826040518263ffffffff1660e01b81526004016105849190611338565b600060405180830381865afa1580156105a1573d6000803e3d6000fd5b505050506040513d6000823e3d601f19601f820116820180604052508101906105ca9190611c7d565b826001836105d89190611dc4565b815181106105e9576105e8611df8565b5b602002602001018190525080806105ff90611e27565b915050610522565b50809250505090565b6000600260008373ffffffffffffffffffffffffffffffffffffffff1673ffffffffffffffffffffffffffffffffffffffff16815260200190815260200160002060009054906101000a900460ff169050919050565b600160009054906101000a900473ffffffffffffffffffffffffffffffffffffffff1681565b61069461117a565b600083116106d7576040517f08c379a00000000000000000000000000000000000000000000000000000000081526004016106ce90611ecc565b60405180910390fd5b600082511161071b576040517f08c379a000000000000000000000000000000000000000000000000000000000815260040161071290611f38565b60405180910390fd5b60008060019054906101000a900473ffffffffffffffffffffffffffffffffffffffff1673ffffffffffffffffffffffffffffffffffffffff16635290ffc66040518163ffffffff1660e01b81526004016020604051808303816000875af115801561078b573d6000803e3d6000fd5b505050506040513d601f19601f820116820180604052508101906107af9190611d97565b9050600060019054906101000a900473ffffffffffffffffffffffffffffffffffffffff1673ffffffffffffffffffffffffffffffffffffffff1663584c5469826040518061010001604052808581526020013373ffffffffffffffffffffffffffffffffffffffff1681526020018881526020018781526020018615158152602001600081526020016000815260200160008152506040518363ffffffff1660e01b8152600401610862929190611f58565b600060405180830381600087803b15801561087c57600080fd5b505af1158015610890573d6000803e3d6000fd5b50505050600360003373ffffffffffffffffffffffffffffffffffffffff1673ffffffffffffffffffffffffffffffffffffffff168152602001908152602001600020819080600181540180825580915050600190039060005260206000200160009091909190915055600260003373ffffffffffffffffffffffffffffffffffffffff1673ffffffffffffffffffffffffffffffffffffffff16815260200190815260200160002060009054906101000a900460ff166109e7576001600260003373ffffffffffffffffffffffffffffffffffffffff1673ffffffffffffffffffffffffffffffffffffffff16815260200190815260200160002060006101000a81548160ff0219169083151502179055503373ffffffffffffffffffffffffffffffffffffffff167f8ff9310abede1de3c5d3fdbb7cf09c40bc8258ca75c0f949ad92f964deac98b360405160405180910390a25b3373ffffffffffffffffffffffffffffffffffffffff16817fac8d319e4ba2a19144062917c8cb50cc9cffb2f0eea3004b86b48c06cc6845c885604051610a2e9190611fc1565b60405180910390a350505050565b610a4461117a565b60008060019054906101000a900473ffffffffffffffffffffffffffffffffffffffff1673ffffffffffffffffffffffffffffffffffffffff166395ea5717866040518263ffffffff1660e01b8152600401610aa09190611338565b600060405180830381865afa158015610abd573d6000803e3d6000fd5b505050506040513d6000823e3d601f19601f82011682018060405250810190610ae69190611c7d565b90506000816000015103610b2f576040517f08c379a0000000000000000000000000000000000000000000000000000000008152600401610b269061202f565b60405180910390fd5b3373ffffffffffffffffffffffffffffffffffffffff16816020015173ffffffffffffffffffffffffffffffffffffffff1614610ba1576040517f08c379a0000000000000000000000000000000000000000000000000000000008152600401610b989061209b565b60405180910390fd5b600060019054906101000a900473ffffffffffffffffffffffffffffffffffffffff1673ffffffffffffffffffffffffffffffffffffffff1663584c5469866040518061010001604052808981526020013373ffffffffffffffffffffffffffffffffffffffff16815260200188815260200187815260200186151581526020018560a0015181526020018560c0015181526020018560e001518152506040518363ffffffff1660e01b8152600401610c5b929190611f58565b600060405180830381600087803b158015610c7557600080fd5b505af1158015610c89573d6000803e3d6000fd5b505050503373ffffffffffffffffffffffffffffffffffffffff16857f50e0ac9a649dda6887adddf8b14c08b54b4f60150f70608a30d3b8b712f149c18585604051610cd69291906120bb565b60405180910390a35050505050565b60018160ff1610158015610cfd575060058160ff1611155b610d3c576040517f08c379a0000000000000000000000000000000000000000000000000000000008152600401610d3390612137565b60405180910390fd5b600060019054906101000a900473ffffffffffffffffffffffffffffffffffffffff1673ffffffffffffffffffffffffffffffffffffffff1663d25468b333846040518363ffffffff1660e01b8152600401610d99929190612157565b602060405180830381865afa158015610db6573d6000803e3d6000fd5b505050506040513d601f19601f82011682018060405250810190610dda9190612180565b15610e1a576040517f08c379a0000000000000000000000000000000000000000000000000000000008152600401610e11906121f9565b60405180910390fd5b60008060019054906101000a900473ffffffffffffffffffffffffffffffffffffffff1673ffffffffffffffffffffffffffffffffffffffff166395ea5717846040518263ffffffff1660e01b8152600401610e769190611338565b600060405180830381865afa158015610e93573d6000803e3d6000fd5b505050506040513d6000823e3d601f19601f82011682018060405250810190610ebc9190611c7d565b90506000816000015103610f05576040517f08c379a0000000000000000000000000000000000000000000000000000000008152600401610efc90612265565b60405180910390fd5b8160ff168160a001818151610f1a9190612285565b9150818152505060018160c001818151610f349190612285565b91508181525050600060019054906101000a900473ffffffffffffffffffffffffffffffffffffffff1673ffffffffffffffffffffffffffffffffffffffff1663584c546984836040518363ffffffff1660e01b8152600401610f98929190611f58565b600060405180830381600087803b158015610fb257600080fd5b505af1158015610fc6573d6000803e3d6000fd5b50505050600060019054906101000a900473ffffffffffffffffffffffffffffffffffffffff1673ffffffffffffffffffffffffffffffffffffffff16633bec83e933856040518363ffffffff1660e01b8152600401611027929190612157565b600060405180830381600087803b15801561104157600080fd5b505af1158015611055573d6000803e3d6000fd5b50505050505050565b6110666111bb565b60008060019054906101000a900473ffffffffffffffffffffffffffffffffffffffff1673ffffffffffffffffffffffffffffffffffffffff166395ea5717846040518263ffffffff1660e01b81526004016110c29190611338565b600060405180830381865afa1580156110df573d6000803e3d6000fd5b505050506040513d6000823e3d601f19601f820116820180604052508101906111089190611c7d565b90506000816000015103611151576040517f08c379a00000000000000000000000000000000000000000000000000000000081526004016111489061202f565b60405180910390fd5b80915050919050565b60026020528060005260406000206000915054906101000a900460ff1681565b611182610380565b156111b9576040517fd93c066500000000000000000000000000000000000000000000000000000000815260040160405180910390fd5b565b60405180610100016040528060008152602001600073ffffffffffffffffffffffffffffffffffffffff16815260200160008152602001606081526020016000151581526020016000815260200160008152602001600081525090565b600073ffffffffffffffffffffffffffffffffffffffff82169050919050565b6000819050919050565b600061125d61125861125384611218565b611238565b611218565b9050919050565b600061126f82611242565b9050919050565b600061128182611264565b9050919050565b61129181611276565b82525050565b60006020820190506112ac6000830184611288565b92915050565b6000604051905090565b600080fd5b600080fd5b6000819050919050565b6112d9816112c6565b81146112e457600080fd5b50565b6000813590506112f6816112d0565b92915050565b600060208284031215611312576113116112bc565b5b6000611320848285016112e7565b91505092915050565b611332816112c6565b82525050565b600060208201905061134d6000830184611329565b92915050565b60008115159050919050565b61136881611353565b82525050565b6000602082019050611383600083018461135f565b92915050565b600061139482611218565b9050919050565b6113a481611389565b81146113af57600080fd5b50565b6000813590506113c18161139b565b92915050565b6000602082840312156113dd576113dc6112bc565b5b60006113eb848285016113b2565b91505092915050565b600081519050919050565b600082825260208201905092915050565b6000819050602082019050919050565b611429816112c6565b82525050565b600061143b8383611420565b60208301905092915050565b6000602082019050919050565b600061145f826113f4565b61146981856113ff565b935061147483611410565b8060005b838110156114a557815161148c888261142f565b975061149783611447565b925050600181019050611478565b5085935050505092915050565b600060208201905081810360008301526114cc8184611454565b905092915050565b600081519050919050565b600082825260208201905092915050565b6000819050602082019050919050565b61150981611389565b82525050565b600081519050919050565b600082825260208201905092915050565b60005b8381101561154957808201518184015260208101905061152e565b60008484015250505050565b6000601f19601f8301169050919050565b60006115718261150f565b61157b818561151a565b935061158b81856020860161152b565b61159481611555565b840191505092915050565b6115a881611353565b82525050565b6000610100830160008301516115c76000860182611420565b5060208301516115da6020860182611500565b5060408301516115ed6040860182611420565b50606083015184820360608601526116058282611566565b915050608083015161161a608086018261159f565b5060a083015161162d60a0860182611420565b5060c083015161164060c0860182611420565b5060e083015161165360e0860182611420565b508091505092915050565b600061166a83836115ae565b905092915050565b6000602082019050919050565b600061168a826114d4565b61169481856114df565b9350836020820285016116a6856114f0565b8060005b858110156116e257848403895281516116c3858261165e565b94506116ce83611672565b925060208a019950506001810190506116aa565b50829750879550505050505092915050565b6000602082019050818103600083015261170e818461167f565b905092915050565b61171f81611389565b82525050565b600060208201905061173a6000830184611716565b92915050565b600080fd5b600080fd5b7f4e487b7100000000000000000000000000000000000000000000000000000000600052604160045260246000fd5b61178282611555565b810181811067ffffffffffffffff821117156117a1576117a061174a565b5b80604052505050565b60006117b46112b2565b90506117c08282611779565b919050565b600067ffffffffffffffff8211156117e0576117df61174a565b5b6117e982611555565b9050602081019050919050565b82818337600083830152505050565b6000611818611813846117c5565b6117aa565b90508281526020810184848401111561183457611833611745565b5b61183f8482856117f6565b509392505050565b600082601f83011261185c5761185b611740565b5b813561186c848260208601611805565b91505092915050565b61187e81611353565b811461188957600080fd5b50565b60008135905061189b81611875565b92915050565b6000806000606084860312156118ba576118b96112bc565b5b60006118c8868287016112e7565b935050602084013567ffffffffffffffff8111156118e9576118e86112c1565b5b6118f586828701611847565b92505060406119068682870161188c565b9150509250925092565b6000806000806080858703121561192a576119296112bc565b5b6000611938878288016112e7565b9450506020611949878288016112e7565b935050604085013567ffffffffffffffff81111561196a576119696112c1565b5b61197687828801611847565b92505060606119878782880161188c565b91505092959194509250565b600060ff82169050919050565b6119a981611993565b81146119b457600080fd5b50565b6000813590506119c6816119a0565b92915050565b600080604083850312156119e3576119e26112bc565b5b60006119f1858286016112e7565b9250506020611a02858286016119b7565b9150509250929050565b600061010083016000830151611a256000860182611420565b506020830151611a386020860182611500565b506040830151611a4b6040860182611420565b5060608301518482036060860152611a638282611566565b9150506080830151611a78608086018261159f565b5060a0830151611a8b60a0860182611420565b5060c0830151611a9e60c0860182611420565b5060e0830151611ab160e0860182611420565b508091505092915050565b60006020820190508181036000830152611ad68184611a0c565b905092915050565b600080fd5b600080fd5b600081519050611af7816112d0565b92915050565b600081519050611b0c8161139b565b92915050565b6000611b25611b20846117c5565b6117aa565b905082815260208101848484011115611b4157611b40611745565b5b611b4c84828561152b565b509392505050565b600082601f830112611b6957611b68611740565b5b8151611b79848260208601611b12565b91505092915050565b600081519050611b9181611875565b92915050565b60006101008284031215611bae57611bad611ade565b5b611bb96101006117aa565b90506000611bc984828501611ae8565b6000830152506020611bdd84828501611afd565b6020830152506040611bf184828501611ae8565b604083015250606082015167ffffffffffffffff811115611c1557611c14611ae3565b5b611c2184828501611b54565b6060830152506080611c3584828501611b82565b60808301525060a0611c4984828501611ae8565b60a08301525060c0611c5d84828501611ae8565b60c08301525060e0611c7184828501611ae8565b60e08301525092915050565b600060208284031215611c9357611c926112bc565b5b600082015167ffffffffffffffff811115611cb157611cb06112c1565b5b611cbd84828501611b97565b91505092915050565b7f4e487b7100000000000000000000000000000000000000000000000000000000600052601160045260246000fd5b6000611d00826112c6565b9150611d0b836112c6565b9250828202611d19816112c6565b91508282048414831517611d3057611d2f611cc6565b5b5092915050565b7f4e487b7100000000000000000000000000000000000000000000000000000000600052601260045260246000fd5b6000611d71826112c6565b9150611d7c836112c6565b925082611d8c57611d8b611d37565b5b828204905092915050565b600060208284031215611dad57611dac6112bc565b5b6000611dbb84828501611ae8565b91505092915050565b6000611dcf826112c6565b9150611dda836112c6565b9250828203905081811115611df257611df1611cc6565b5b92915050565b7f4e487b7100000000000000000000000000000000000000000000000000000000600052603260045260246000fd5b6000611e32826112c6565b91507fffffffffffffffffffffffffffffffffffffffffffffffffffffffffffffffff8203611e6457611e63611cc6565b5b600182019050919050565b600082825260208201905092915050565b7f5072696365206d7573742062652067726561746572207468616e203000000000600082015250565b6000611eb6601c83611e6f565b9150611ec182611e80565b602082019050919050565b60006020820190508181036000830152611ee581611ea9565b9050919050565b7f4d65746164617461204349442072657175697265640000000000000000000000600082015250565b6000611f22601583611e6f565b9150611f2d82611eec565b602082019050919050565b60006020820190508181036000830152611f5181611f15565b9050919050565b6000604082019050611f6d6000830185611329565b8181036020830152611f7f8184611a0c565b90509392505050565b6000611f938261150f565b611f9d8185611e6f565b9350611fad81856020860161152b565b611fb681611555565b840191505092915050565b60006020820190508181036000830152611fdb8184611f88565b905092915050565b7f4e6574776f726b20646f6573206e6f7420657869737400000000000000000000600082015250565b6000612019601683611e6f565b915061202482611fe3565b602082019050919050565b600060208201905081810360008301526120488161200c565b9050919050565b7f4f6e6c7920686f73742063616e20757064617465000000000000000000000000600082015250565b6000612085601483611e6f565b91506120908261204f565b602082019050919050565b600060208201905081810360008301526120b481612078565b9050919050565b600060408201905081810360008301526120d58185611f88565b90506120e4602083018461135f565b9392505050565b7f526174696e67206d757374206265206265747765656e203120616e6420350000600082015250565b6000612121601e83611e6f565b915061212c826120eb565b602082019050919050565b6000602082019050818103600083015261215081612114565b9050919050565b600060408201905061216c6000830185611716565b6121796020830184611329565b9392505050565b600060208284031215612196576121956112bc565b5b60006121a484828501611b82565b91505092915050565b7f416c726561647920726174656400000000000000000000000000000000000000600082015250565b60006121e3600d83611e6f565b91506121ee826121ad565b602082019050919050565b60006020820190508181036000830152612212816121d6565b9050919050565b7f4e6574776f726b206e6f7420666f756e64000000000000000000000000000000600082015250565b600061224f601183611e6f565b915061225a82612219565b602082019050919050565b6000602082019050818103600083015261227e81612242565b9050919050565b6000612290826112c6565b915061229b836112c6565b92508282019050808211156122b3576122b2611cc6565b5b9291505056fea2646970667358221220f064390c3cf3f294490edf8e8e7739363cfc403e3cbc821a29a96fb46657b2a964736f6c634300081c0033",
  "linkReferences": {},
  "deployedLinkReferences": {}
}