{
  "_format": "hh-sol-artifact-1",
  "contractName": "ZaaNetStorage",
  "sourceName": "contracts/ZaaNetStorage.sol",
  "abi": [
    {
      "inputs": [],
      "stateMutability": "nonpayable",
      "type": "constructor"
    },
    {
      "inputs": [
        {
          "internalType": "address",
          "name": "owner",
          "type": "address"
        }
      ],
      "name": "OwnableInvalidOwner",
      "type": "error"
    },
    {
      "inputs": [
        {
          "internalType": "address",
          "name": "account",
          "type": "address"
        }
      ],
      "name": "OwnableUnauthorizedAccount",
      "type": "error"
    },
    {
      "inputs": [],
      "name": "ReentrancyGuardReentrantCall",
      "type": "error"
    },
    {
      "anonymous": false,
      "inputs": [
        {
          "indexed": true,
          "internalType": "address",
          "name": "caller",
          "type": "address"
        },
        {
          "indexed": false,
          "internalType": "bool",
          "name": "status",
          "type": "bool"
        }
      ],
      "name": "AllowedCallerUpdated",
      "type": "event"
    },
    {
      "anonymous": false,
      "inputs": [
        {
          "indexed": true,
          "internalType": "address",
          "name": "hostAddress",
          "type": "address"
        },
        {
          "indexed": false,
          "internalType": "uint256",
          "name": "totalEarned",
          "type": "uint256"
        }
      ],
      "name": "HostEarningsUpdated",
      "type": "event"
    },
    {
      "anonymous": false,
      "inputs": [
        {
          "indexed": true,
          "internalType": "uint256",
          "name": "id",
          "type": "uint256"
        },
        {
          "indexed": true,
          "internalType": "address",
          "name": "hostAddress",
          "type": "address"
        },
        {
          "indexed": false,
          "internalType": "uint256",
          "name": "pricePerSession",
          "type": "uint256"
        }
      ],
      "name": "NetworkStored",
      "type": "event"
    },
    {
      "anonymous": false,
      "inputs": [
        {
          "indexed": true,
          "internalType": "uint256",
          "name": "id",
          "type": "uint256"
        },
        {
          "indexed": true,
          "internalType": "address",
          "name": "hostAddress",
          "type": "address"
        }
      ],
      "name": "NetworkUpdated",
      "type": "event"
    },
    {
      "anonymous": false,
      "inputs": [
        {
          "indexed": true,
          "internalType": "address",
          "name": "previousOwner",
          "type": "address"
        },
        {
          "indexed": true,
          "internalType": "address",
          "name": "newOwner",
          "type": "address"
        }
      ],
      "name": "OwnershipTransferred",
      "type": "event"
    },
    {
      "anonymous": false,
      "inputs": [
        {
          "indexed": true,
          "internalType": "uint256",
          "name": "sessionId",
          "type": "uint256"
        },
        {
          "indexed": true,
          "internalType": "address",
          "name": "paymentAddress",
          "type": "address"
        },
        {
          "indexed": false,
          "internalType": "uint256",
          "name": "amount",
          "type": "uint256"
        }
      ],
      "name": "SessionStored",
      "type": "event"
    },
    {
      "anonymous": false,
      "inputs": [
        {
          "indexed": false,
          "internalType": "uint256",
          "name": "totalEarned",
          "type": "uint256"
        }
      ],
      "name": "ZaaNetEarningsUpdated",
      "type": "event"
    },
    {
      "inputs": [
        {
          "internalType": "address",
          "name": "",
          "type": "address"
        }
      ],
      "name": "allowedCallers",
      "outputs": [
        {
          "internalType": "bool",
          "name": "",
          "type": "bool"
        }
      ],
      "stateMutability": "view",
      "type": "function"
    },
    {
      "inputs": [
        {
          "internalType": "uint256",
          "name": "networkId",
          "type": "uint256"
        }
      ],
      "name": "emergencyDeactivateNetwork",
      "outputs": [],
      "stateMutability": "nonpayable",
      "type": "function"
    },
    {
      "inputs": [
        {
          "internalType": "address",
          "name": "hostAddress",
          "type": "address"
        }
      ],
      "name": "getHostEarnings",
      "outputs": [
        {
          "internalType": "uint256",
          "name": "",
          "type": "uint256"
        }
      ],
      "stateMutability": "view",
      "type": "function"
    },
    {
      "inputs": [
        {
          "internalType": "address",
          "name": "hostAddress",
          "type": "address"
        }
      ],
      "name": "getHostNetworks",
      "outputs": [
        {
          "internalType": "uint256[]",
          "name": "",
          "type": "uint256[]"
        }
      ],
      "stateMutability": "view",
      "type": "function"
    },
    {
      "inputs": [
        {
          "internalType": "uint256",
          "name": "id",
          "type": "uint256"
        }
      ],
      "name": "getNetwork",
      "outputs": [
        {
          "components": [
            {
              "internalType": "uint256",
              "name": "id",
              "type": "uint256"
            },
            {
              "internalType": "address",
              "name": "hostAddress",
              "type": "address"
            },
            {
              "internalType": "uint256",
              "name": "pricePerSession",
              "type": "uint256"
            },
            {
              "internalType": "string",
              "name": "mongoDataId",
              "type": "string"
            },
            {
              "internalType": "bool",
              "name": "isActive",
              "type": "bool"
            },
            {
              "internalType": "uint256",
              "name": "createdAt",
              "type": "uint256"
            },
            {
              "internalType": "uint256",
              "name": "updatedAt",
              "type": "uint256"
            }
          ],
          "internalType": "struct ZaaNetStorage.Network",
          "name": "",
          "type": "tuple"
        }
      ],
      "stateMutability": "view",
      "type": "function"
    },
    {
      "inputs": [
        {
          "internalType": "uint256",
          "name": "offset",
          "type": "uint256"
        },
        {
          "internalType": "uint256",
          "name": "limit",
          "type": "uint256"
        }
      ],
      "name": "getNetworksPaginated",
      "outputs": [
        {
          "components": [
            {
              "internalType": "uint256",
              "name": "id",
              "type": "uint256"
            },
            {
              "internalType": "address",
              "name": "hostAddress",
              "type": "address"
            },
            {
              "internalType": "uint256",
              "name": "pricePerSession",
              "type": "uint256"
            },
            {
              "internalType": "string",
              "name": "mongoDataId",
              "type": "string"
            },
            {
              "internalType": "bool",
              "name": "isActive",
              "type": "bool"
            },
            {
              "internalType": "uint256",
              "name": "createdAt",
              "type": "uint256"
            },
            {
              "internalType": "uint256",
              "name": "updatedAt",
              "type": "uint256"
            }
          ],
          "internalType": "struct ZaaNetStorage.Network[]",
          "name": "",
          "type": "tuple[]"
        },
        {
          "internalType": "uint256",
          "name": "total",
          "type": "uint256"
        }
      ],
      "stateMutability": "view",
      "type": "function"
    },
    {
      "inputs": [],
      "name": "getZaaNetEarnings",
      "outputs": [
        {
          "internalType": "uint256",
          "name": "",
          "type": "uint256"
        }
      ],
      "stateMutability": "view",
      "type": "function"
    },
    {
      "inputs": [
        {
          "internalType": "address",
          "name": "",
          "type": "address"
        }
      ],
      "name": "hostEarnings",
      "outputs": [
        {
          "internalType": "uint256",
          "name": "",
          "type": "uint256"
        }
      ],
      "stateMutability": "view",
      "type": "function"
    },
    {
      "inputs": [
        {
          "internalType": "address",
          "name": "",
          "type": "address"
        },
        {
          "internalType": "uint256",
          "name": "",
          "type": "uint256"
        }
      ],
      "name": "hostNetworkIds",
      "outputs": [
        {
          "internalType": "uint256",
          "name": "",
          "type": "uint256"
        }
      ],
      "stateMutability": "view",
      "type": "function"
    },
    {
      "inputs": [
        {
          "internalType": "address",
          "name": "hostAddress",
          "type": "address"
        },
        {
          "internalType": "uint256",
          "name": "amount",
          "type": "uint256"
        }
      ],
      "name": "increaseHostEarnings",
      "outputs": [],
      "stateMutability": "nonpayable",
      "type": "function"
    },
    {
      "inputs": [
        {
          "internalType": "uint256",
          "name": "amount",
          "type": "uint256"
        }
      ],
      "name": "increaseZaaNetEarnings",
      "outputs": [],
      "stateMutability": "nonpayable",
      "type": "function"
    },
    {
      "inputs": [],
      "name": "incrementNetworkId",
      "outputs": [
        {
          "internalType": "uint256",
          "name": "",
          "type": "uint256"
        }
      ],
      "stateMutability": "nonpayable",
      "type": "function"
    },
    {
      "inputs": [
        {
          "internalType": "uint256",
          "name": "",
          "type": "uint256"
        }
      ],
      "name": "networkExists",
      "outputs": [
        {
          "internalType": "bool",
          "name": "",
          "type": "bool"
        }
      ],
      "stateMutability": "view",
      "type": "function"
    },
    {
      "inputs": [],
      "name": "networkIdCounter",
      "outputs": [
        {
          "internalType": "uint256",
          "name": "",
          "type": "uint256"
        }
      ],
      "stateMutability": "view",
      "type": "function"
    },
    {
      "inputs": [
        {
          "internalType": "uint256",
          "name": "",
          "type": "uint256"
        }
      ],
      "name": "networks",
      "outputs": [
        {
          "internalType": "uint256",
          "name": "id",
          "type": "uint256"
        },
        {
          "internalType": "address",
          "name": "hostAddress",
          "type": "address"
        },
        {
          "internalType": "uint256",
          "name": "pricePerSession",
          "type": "uint256"
        },
        {
          "internalType": "string",
          "name": "mongoDataId",
          "type": "string"
        },
        {
          "internalType": "bool",
          "name": "isActive",
          "type": "bool"
        },
        {
          "internalType": "uint256",
          "name": "createdAt",
          "type": "uint256"
        },
        {
          "internalType": "uint256",
          "name": "updatedAt",
          "type": "uint256"
        }
      ],
      "stateMutability": "view",
      "type": "function"
    },
    {
      "inputs": [],
      "name": "owner",
      "outputs": [
        {
          "internalType": "address",
          "name": "",
          "type": "address"
        }
      ],
      "stateMutability": "view",
      "type": "function"
    },
    {
      "inputs": [],
      "name": "renounceOwnership",
      "outputs": [],
      "stateMutability": "nonpayable",
      "type": "function"
    },
    {
      "inputs": [
        {
          "internalType": "uint256",
          "name": "",
          "type": "uint256"
        }
      ],
      "name": "sessionExists",
      "outputs": [
        {
          "internalType": "bool",
          "name": "",
          "type": "bool"
        }
      ],
      "stateMutability": "view",
      "type": "function"
    },
    {
      "inputs": [
        {
          "internalType": "address",
          "name": "_caller",
          "type": "address"
        },
        {
          "internalType": "bool",
          "name": "status",
          "type": "bool"
        }
      ],
      "name": "setAllowedCaller",
      "outputs": [],
      "stateMutability": "nonpayable",
      "type": "function"
    },
    {
      "inputs": [
        {
          "internalType": "address[]",
          "name": "_callers",
          "type": "address[]"
        },
        {
          "internalType": "bool",
          "name": "status",
          "type": "bool"
        }
      ],
      "name": "setAllowedCallers",
      "outputs": [],
      "stateMutability": "nonpayable",
      "type": "function"
    },
    {
      "inputs": [
        {
          "internalType": "uint256",
          "name": "id",
          "type": "uint256"
        },
        {
          "components": [
            {
              "internalType": "uint256",
              "name": "id",
              "type": "uint256"
            },
            {
              "internalType": "address",
              "name": "hostAddress",
              "type": "address"
            },
            {
              "internalType": "uint256",
              "name": "pricePerSession",
              "type": "uint256"
            },
            {
              "internalType": "string",
              "name": "mongoDataId",
              "type": "string"
            },
            {
              "internalType": "bool",
              "name": "isActive",
              "type": "bool"
            },
            {
              "internalType": "uint256",
              "name": "createdAt",
              "type": "uint256"
            },
            {
              "internalType": "uint256",
              "name": "updatedAt",
              "type": "uint256"
            }
          ],
          "internalType": "struct ZaaNetStorage.Network",
          "name": "net",
          "type": "tuple"
        }
      ],
      "name": "setNetwork",
      "outputs": [],
      "stateMutability": "nonpayable",
      "type": "function"
    },
    {
      "inputs": [],
      "name": "totalHostingAmount",
      "outputs": [
        {
          "internalType": "uint256",
          "name": "",
          "type": "uint256"
        }
      ],
      "stateMutability": "view",
      "type": "function"
    },
    {
      "inputs": [],
      "name": "totalPaymentsAmount",
      "outputs": [
        {
          "internalType": "uint256",
          "name": "",
          "type": "uint256"
        }
      ],
      "stateMutability": "view",
      "type": "function"
    },
    {
      "inputs": [],
      "name": "totalWithdrawalsAmount",
      "outputs": [
        {
          "internalType": "uint256",
          "name": "",
          "type": "uint256"
        }
      ],
      "stateMutability": "view",
      "type": "function"
    },
    {
      "inputs": [
        {
          "internalType": "address",
          "name": "newOwner",
          "type": "address"
        }
      ],
      "name": "transferOwnership",
      "outputs": [],
      "stateMutability": "nonpayable",
      "type": "function"
    },
    {
      "inputs": [
        {
          "internalType": "uint256",
          "name": "amount",
          "type": "uint256"
        }
      ],
      "name": "updateTotalHostingAmount",
      "outputs": [],
      "stateMutability": "nonpayable",
      "type": "function"
    },
    {
      "inputs": [
        {
          "internalType": "uint256",
          "name": "amount",
          "type": "uint256"
        }
      ],
      "name": "updateTotalPaymentsAmount",
      "outputs": [],
      "stateMutability": "nonpayable",
      "type": "function"
    },
    {
      "inputs": [
        {
          "internalType": "uint256",
          "name": "amount",
          "type": "uint256"
        }
      ],
      "name": "updateTotalWithdrawalsAmount",
      "outputs": [],
      "stateMutability": "nonpayable",
      "type": "function"
    },
    {
      "inputs": [],
      "name": "zaanetEarnings",
      "outputs": [
        {
          "internalType": "uint256",
          "name": "",
          "type": "uint256"
        }
      ],
      "stateMutability": "view",
      "type": "function"
    }
  ],
  "bytecode": "0x60808060405234608d57331560775760008054336001600160a01b0319821681178355916001600160a01b03909116907f8be0079c531659141344cd1fd0a4f28419497f9722a3daafe3b4186f6b6457e09080a36001805560006004556000600555600060065560006007556116d090816100938239f35b631e4fbdf760e01b600052600060045260246000fd5b600080fdfe6080604052600436101561001257600080fd5b60003560e01c80631190defd1461102f57806313a7dd1d14610fbe578063217c682d14610fa057806322a4808b14610f64578063242d30bc14610f8257806329c718b5146108cc5780634ce083be14610f6457806350c0d41c14610a7d5780635290ffc614610a025780635a2f406f1461097757806369009a13146109065780636d65573f146108cc578063715018a61461087357806373f9a5d71461075857806379f0dc571461069e5780637b3341541461065f5780637bae8f5e146106065780637ee3b6fc146105e8578063879ecf10146105b75780638bb0a17c146105245780638da5cb5b146104fb57806395ea571714610494578063ad2c30b114610476578063bed3165414610405578063d8b0e71614610376578063e1c7a8aa146102a1578063ec13f2a114610270578063f2fde38b146101e75763fa9c81a41461015b57600080fd5b346101e25760403660031901126101e25761017a60243560043561153e565b9060405190604082016040835281518091526060830190602060608260051b8601019301916000905b8282106101b7578580868960208301520390f35b909192936020806101d4600193605f198a82030186528851611250565b9601920192019092916101a3565b600080fd5b346101e25760203660031901126101e2576102006110a0565b610208611671565b6001600160a01b0316801561025a57600080546001600160a01b03198116831782556001600160a01b0316907f8be0079c531659141344cd1fd0a4f28419497f9722a3daafe3b4186f6b6457e09080a3005b631e4fbdf760e01b600052600060045260246000fd5b346101e25760203660031901126101e257600435600052600b602052602060ff604060002054166040519015158152f35b346101e25760403660031901126101e2576102ba6110a0565b6024359033600052600260205260ff604060002054168015610362575b6102e0906112ac565b6102e861164f565b6001600160a01b0316906102fd821515611356565b6103088115156112e9565b8160005260096020526103216040600020918254611335565b90558060005260096020527f61a8b1a557e4d03803db90d13ff76db2c25fba3ed24882cecda8c8423b9b2be06020604060002054604051908152a260018055005b506000546001600160a01b031633146102d7565b346101e25760403660031901126101e25761038f6110a0565b7fd6fc3082ae3a144ca59421d96180398241c1dd021d45d5a24fb5bf96c9f8212f60206103ba6110b6565b926103c3611671565b6001600160a01b0316926103d8841515611421565b83600052600282526103fa8160406000209060ff801983541691151516179055565b6040519015158152a2005b346101e25760203660031901126101e25761045960043533600052600260205260ff604060002054168015610462575b61043e906112ac565b61044661164f565b6104518115156112e9565b600554611335565b60055560018055005b506000546001600160a01b03163314610435565b346101e25760003660031901126101e2576020600554604051908152f35b346101e25760203660031901126101e2576004356104b0611466565b5080600052600b6020526104cb60ff604060002054166113cc565b60005260086020526104f76104e3604060002061149d565b604051918291602083526020830190611250565b0390f35b346101e25760003660031901126101e2576000546040516001600160a01b039091168152602090f35b346101e25760203660031901126101e25760043560005260086020526040600020805460018060a01b036001830154169160028101546105666003830161116b565b916105a160ff60048301541693600660058401549301549360405197889788526020880152604087015260e0606087015260e086019061120f565b921515608085015260a084015260c08301520390f35b346101e25760203660031901126101e257600435600052600c602052602060ff604060002054166040519015158152f35b346101e25760003660031901126101e2576020600454604051908152f35b346101e25760403660031901126101e25761061f6110a0565b6001600160a01b03166000908152600a60205260409020805460243591908210156101e257602091610650916110c5565b90549060031b1c604051908152f35b346101e25760203660031901126101e2576001600160a01b036106806110a0565b166000526002602052602060ff604060002054166040519015158152f35b346101e25760203660031901126101e2576001600160a01b036106bf6110a0565b16600052600a60205260406000206040518060208354918281520190819360005260206000209060005b81811061074257505050816106ff910382611149565b6040519182916020830190602084525180915260408301919060005b818110610729575050500390f35b825184528594506020938401939092019160010161071b565b82548452602090930192600192830192016106e9565b346101e25760403660031901126101e25760043567ffffffffffffffff81116101e257366023820112156101e257806004013567ffffffffffffffff81116101e2576024820191602436918360051b0101116101e2576107b66110b6565b6107be611671565b8015159060005b8381106107ce57005b6001906107f76001600160a01b036107ef6107ea84898b611411565b611342565b161515611421565b818060a01b0361080b6107ea83888a611411565b16600052600260205261082e8360406000209060ff801983541691151516179055565b818060a01b036108426107ea83888a611411565b167fd6fc3082ae3a144ca59421d96180398241c1dd021d45d5a24fb5bf96c9f8212f6020604051878152a2016107c5565b346101e25760003660031901126101e25761088c611671565b600080546001600160a01b0319811682556001600160a01b03167f8be0079c531659141344cd1fd0a4f28419497f9722a3daafe3b4186f6b6457e08280a3005b346101e25760203660031901126101e2576001600160a01b036108ed6110a0565b1660005260096020526020604060002054604051908152f35b346101e25760203660031901126101e25761095a60043533600052600260205260ff604060002054168015610963575b61093f906112ac565b61094761164f565b6109528115156112e9565b600754611335565b60075560018055005b506000546001600160a01b03163314610936565b346101e25760203660031901126101e257600435610993611671565b80600052600b6020526109ad60ff604060002054166113cc565b600081815260086020526040812060048101805460ff19169055426006820155600101546001600160a01b031691907f14796949d4d1a6824063ec05e354db666bde3356a8cf646c6075272b5353185c9080a3005b346101e25760003660031901126101e25733600052600260205260ff604060002054168015610a69575b610a35906112ac565b6003546000198114610a535760016020910180600355604051908152f35b634e487b7160e01b600052601160045260246000fd5b506000546001600160a01b03163314610a2c565b346101e25760403660031901126101e25760243560043567ffffffffffffffff82116101e257816004019160e060031982360301126101e25733600052600260205260ff604060002054168015610f50575b610ad8906112ac565b8115610f16576024810190610aff6001600160a01b03610af784611342565b161515611356565b6044810135938415610ed15760648201610b198183611399565b905015610e955784600052600b602052608460ff604060002054161593610b49610b4287611342565b9385611399565b9290910135908115158092036101e2578515610e7d5742925b60405195610b6f8761112d565b3586526001600160a01b0390941660208601908152604086018a8152909467ffffffffffffffff8111610d665760405192610bb4601f8301601f191660200185611149565b81845236828201116101e257816000926020928387013784010152606086019182526080860192835260a086019384524260c0870190815260008a81526008602052604090209651875594516001870180546001600160a01b0319166001600160a01b0392909216919091179055516002860155518051600386019167ffffffffffffffff8211610d6657610c4983546110f3565b601f8111610e35575b50602090601f8311600114610dc5579180610ca39492600698979694600092610dba575b50508160011b916000199060031b1c19161790555b511515600486019060ff801983541691151516179055565b5160058401555191015515610d7c576000828152600b60205260409020805460ff191660011790556001600160a01b03610cdc82611342565b16600052600a60205260406000209081549068010000000000000000821015610d6657610d32827f3a3ee326dd9451112d67d1babdaf697562d06e41e2571ddd356b4e9be0de478e9460016020950181556110c5565b815460001960039290921b91821b19169086901b1790556001600160a01b0390610d5b90611342565b1693604051908152a3005b634e487b7160e01b600052604160045260246000fd5b9091506001600160a01b0390610d9190611342565b16907f14796949d4d1a6824063ec05e354db666bde3356a8cf646c6075272b5353185c600080a3005b015190508d80610c76565b90601f1983169184600052816000209260005b818110610e1d575092600192859260069a999896610ca3989610610e04575b505050811b019055610c8b565b015160001960f88460031b161c191690558d8080610df7565b92936020600181928786015181550195019301610dd8565b836000526020600020601f840160051c81019160208510610e73575b601f0160051c01905b818110610e675750610c52565b60008155600101610e5a565b9091508190610e51565b87600052600860205260056040600020015492610b62565b60405162461bcd60e51b8152602060048201526014602482015273135bdb99dbd1185d185251081c995c5d5a5c995960621b6044820152606490fd5b60405162461bcd60e51b815260206004820152601c60248201527f5072696365206d7573742062652067726561746572207468616e2030000000006044820152606490fd5b60405162461bcd60e51b8152602060048201526012602482015271125b9d985b1a59081b995d1ddbdc9ac8125160721b6044820152606490fd5b506000546001600160a01b03163314610acf565b346101e25760003660031901126101e2576020600754604051908152f35b346101e25760003660031901126101e2576020600654604051908152f35b346101e25760003660031901126101e2576020600354604051908152f35b346101e25760203660031901126101e25761101260043533600052600260205260ff60406000205416801561101b575b610ff7906112ac565b610fff61164f565b61100a8115156112e9565b600454611335565b60045560018055005b506000546001600160a01b03163314610fee565b346101e25760203660031901126101e25761108360043533600052600260205260ff60406000205416801561108c575b611068906112ac565b61107061164f565b61107b8115156112e9565b600654611335565b60065560018055005b506000546001600160a01b0316331461105f565b600435906001600160a01b03821682036101e257565b6024359081151582036101e257565b80548210156110dd5760005260206000200190600090565b634e487b7160e01b600052603260045260246000fd5b90600182811c92168015611123575b602083101461110d57565b634e487b7160e01b600052602260045260246000fd5b91607f1691611102565b60e0810190811067ffffffffffffffff821117610d6657604052565b90601f8019910116810190811067ffffffffffffffff821117610d6657604052565b906040519182600082549261117f846110f3565b80845293600181169081156111ed57506001146111a6575b506111a492500383611149565b565b90506000929192526020600020906000915b8183106111d15750509060206111a49282010138611197565b60209193508060019154838589010152019101909184926111b8565b9050602092506111a494915060ff191682840152151560051b82010138611197565b919082519283825260005b84811061123b575050826000602080949584010152601f8019910116010190565b8060208092840101518282860101520161121a565b908151815260018060a01b0360208301511660208201526040820151604082015260c08061128d606085015160e0606086015260e085019061120f565b9360808101511515608085015260a081015160a0850152015191015290565b156112b357565b60405162461bcd60e51b815260206004820152600e60248201526d139bdd08185d5d1a1bdc9a5e995960921b6044820152606490fd5b156112f057565b60405162461bcd60e51b815260206004820152601d60248201527f416d6f756e74206d7573742062652067726561746572207468616e20300000006044820152606490fd5b91908201809211610a5357565b356001600160a01b03811681036101e25790565b1561135d57565b60405162461bcd60e51b8152602060048201526014602482015273496e76616c696420686f7374206164647265737360601b6044820152606490fd5b903590601e19813603018212156101e2570180359067ffffffffffffffff82116101e2576020019181360383136101e257565b156113d357565b60405162461bcd60e51b815260206004820152601660248201527513995d1ddbdc9ac8191bd95cc81b9bdd08195e1a5cdd60521b6044820152606490fd5b91908110156110dd5760051b0190565b1561142857565b60405162461bcd60e51b8152602060048201526016602482015275496e76616c69642063616c6c6572206164647265737360501b6044820152606490fd5b604051906114738261112d565b600060c0838281528260208201528260408201526060808201528260808201528260a08201520152565b906040516114aa8161112d565b8254815260018301546001600160a01b031660208201526002830154604082015291829060c0906006906114e06003820161116b565b606085015260ff60048201541615156080850152600581015460a08501520154910152565b67ffffffffffffffff8111610d665760051b60200190565b91908203918211610a5357565b80518210156110dd5760209160051b010190565b600354929183821015611613576115559082611335565b83811161160c575b611567828261151d565b9161157183611505565b9261157f6040519485611149565b80845261158e601f1991611505565b0160005b8181106115f5575050805b8281106115ab575050509190565b6001810190818111610a535760019160005260086020526115ee60406000206115dd6115d7868561151d565b9161149d565b6115e7828961152a565b528661152a565b500161159d565b602090611600611466565b82828801015201611592565b508261155d565b50506040516000611625602083611149565b81526000805b8181106116385750509190565b602090611643611466565b8282860101520161162b565b600260015414611660576002600155565b633ee5aeb560e01b60005260046000fd5b6000546001600160a01b0316330361168557565b63118cdaa760e01b6000523360045260246000fdfea26469706673582212204d93320ff27e527ccc1b9ebb664e49e9f444c2bcfe6c28d77bcb3aaf1d4d1bfb64736f6c634300081c0033",
  "linkReferences": {},
  "deployedLinkReferences": {}
}