{
  "_format": "hh-sol-artifact-1",
  "contractName": "ZaaNetNetwork",
  "sourceName": "contracts/ZaaNetNetwork.sol",
  "abi": [
    {
      "inputs": [
        {
          "internalType": "address",
          "name": "_storageContract",
          "type": "address"
        },
        {
          "internalType": "address",
          "name": "_adminContract",
          "type": "address"
        },
        {
          "internalType": "address",
          "name": "_usdt",
          "type": "address"
        }
      ],
      "stateMutability": "nonpayable",
      "type": "constructor"
    },
    {
      "inputs": [],
      "name": "EnforcedPause",
      "type": "error"
    },
    {
      "inputs": [],
      "name": "ExpectedPause",
      "type": "error"
    },
    {
      "inputs": [
        {
          "internalType": "address",
          "name": "owner",
          "type": "address"
        }
      ],
      "name": "OwnableInvalidOwner",
      "type": "error"
    },
    {
      "inputs": [
        {
          "internalType": "address",
          "name": "account",
          "type": "address"
        }
      ],
      "name": "OwnableUnauthorizedAccount",
      "type": "error"
    },
    {
      "inputs": [],
      "name": "ReentrancyGuardReentrantCall",
      "type": "error"
    },
    {
      "inputs": [
        {
          "internalType": "address",
          "name": "token",
          "type": "address"
        }
      ],
      "name": "SafeERC20FailedOperation",
      "type": "error"
    },
    {
      "anonymous": false,
      "inputs": [
        {
          "indexed": true,
          "internalType": "address",
          "name": "host",
          "type": "address"
        }
      ],
      "name": "HostAdded",
      "type": "event"
    },
    {
      "anonymous": false,
      "inputs": [
        {
          "indexed": true,
          "internalType": "address",
          "name": "host",
          "type": "address"
        },
        {
          "indexed": false,
          "internalType": "uint256",
          "name": "amount",
          "type": "uint256"
        },
        {
          "indexed": false,
          "internalType": "uint256",
          "name": "timestamp",
          "type": "uint256"
        }
      ],
      "name": "HostingFeePaid",
      "type": "event"
    },
    {
      "anonymous": false,
      "inputs": [
        {
          "indexed": true,
          "internalType": "uint256",
          "name": "networkId",
          "type": "uint256"
        },
        {
          "indexed": false,
          "internalType": "uint256",
          "name": "oldPrice",
          "type": "uint256"
        },
        {
          "indexed": false,
          "internalType": "uint256",
          "name": "newPrice",
          "type": "uint256"
        }
      ],
      "name": "NetworkPriceUpdated",
      "type": "event"
    },
    {
      "anonymous": false,
      "inputs": [
        {
          "indexed": true,
          "internalType": "uint256",
          "name": "networkId",
          "type": "uint256"
        },
        {
          "indexed": true,
          "internalType": "address",
          "name": "hostAddress",
          "type": "address"
        },
        {
          "indexed": false,
          "internalType": "string",
          "name": "mongoDataId",
          "type": "string"
        },
        {
          "indexed": false,
          "internalType": "uint256",
          "name": "pricePerSession",
          "type": "uint256"
        },
        {
          "indexed": false,
          "internalType": "bool",
          "name": "isActive",
          "type": "bool"
        },
        {
          "indexed": false,
          "internalType": "uint256",
          "name": "hostingFeePaid",
          "type": "uint256"
        },
        {
          "indexed": false,
          "internalType": "uint256",
          "name": "timestamp",
          "type": "uint256"
        }
      ],
      "name": "NetworkRegistered",
      "type": "event"
    },
    {
      "anonymous": false,
      "inputs": [
        {
          "indexed": true,
          "internalType": "uint256",
          "name": "networkId",
          "type": "uint256"
        },
        {
          "indexed": false,
          "internalType": "bool",
          "name": "oldStatus",
          "type": "bool"
        },
        {
          "indexed": false,
          "internalType": "bool",
          "name": "newStatus",
          "type": "bool"
        }
      ],
      "name": "NetworkStatusChanged",
      "type": "event"
    },
    {
      "anonymous": false,
      "inputs": [
        {
          "indexed": true,
          "internalType": "uint256",
          "name": "networkId",
          "type": "uint256"
        },
        {
          "indexed": true,
          "internalType": "address",
          "name": "hostAddress",
          "type": "address"
        },
        {
          "indexed": false,
          "internalType": "uint256",
          "name": "pricePerSession",
          "type": "uint256"
        },
        {
          "indexed": false,
          "internalType": "string",
          "name": "mongoDataId",
          "type": "string"
        },
        {
          "indexed": false,
          "internalType": "bool",
          "name": "isActive",
          "type": "bool"
        }
      ],
      "name": "NetworkUpdated",
      "type": "event"
    },
    {
      "anonymous": false,
      "inputs": [
        {
          "indexed": true,
          "internalType": "address",
          "name": "previousOwner",
          "type": "address"
        },
        {
          "indexed": true,
          "internalType": "address",
          "name": "newOwner",
          "type": "address"
        }
      ],
      "name": "OwnershipTransferred",
      "type": "event"
    },
    {
      "anonymous": false,
      "inputs": [
        {
          "indexed": false,
          "internalType": "address",
          "name": "account",
          "type": "address"
        }
      ],
      "name": "Paused",
      "type": "event"
    },
    {
      "anonymous": false,
      "inputs": [
        {
          "indexed": false,
          "internalType": "address",
          "name": "account",
          "type": "address"
        }
      ],
      "name": "Unpaused",
      "type": "event"
    },
    {
      "inputs": [],
      "name": "MAX_MONGO_DATA_LENGTH",
      "outputs": [
        {
          "internalType": "uint256",
          "name": "",
          "type": "uint256"
        }
      ],
      "stateMutability": "view",
      "type": "function"
    },
    {
      "inputs": [],
      "name": "MAX_PRICE_PER_SESSION",
      "outputs": [
        {
          "internalType": "uint256",
          "name": "",
          "type": "uint256"
        }
      ],
      "stateMutability": "view",
      "type": "function"
    },
    {
      "inputs": [],
      "name": "MIN_PRICE_PER_SESSION",
      "outputs": [
        {
          "internalType": "uint256",
          "name": "",
          "type": "uint256"
        }
      ],
      "stateMutability": "view",
      "type": "function"
    },
    {
      "inputs": [],
      "name": "REGISTRATION_COOLDOWN",
      "outputs": [
        {
          "internalType": "uint256",
          "name": "",
          "type": "uint256"
        }
      ],
      "stateMutability": "view",
      "type": "function"
    },
    {
      "inputs": [],
      "name": "adminContract",
      "outputs": [
        {
          "internalType": "contract IZaaNetAdmin",
          "name": "",
          "type": "address"
        }
      ],
      "stateMutability": "view",
      "type": "function"
    },
    {
      "inputs": [
        {
          "internalType": "uint256",
          "name": "_networkId",
          "type": "uint256"
        }
      ],
      "name": "deactivateNetwork",
      "outputs": [],
      "stateMutability": "nonpayable",
      "type": "function"
    },
    {
      "inputs": [
        {
          "internalType": "address",
          "name": "hostAddress",
          "type": "address"
        }
      ],
      "name": "getActiveHostNetworks",
      "outputs": [
        {
          "components": [
            {
              "internalType": "uint256",
              "name": "id",
              "type": "uint256"
            },
            {
              "internalType": "address",
              "name": "hostAddress",
              "type": "address"
            },
            {
              "internalType": "uint256",
              "name": "pricePerSession",
              "type": "uint256"
            },
            {
              "internalType": "string",
              "name": "mongoDataId",
              "type": "string"
            },
            {
              "internalType": "bool",
              "name": "isActive",
              "type": "bool"
            },
            {
              "internalType": "uint256",
              "name": "createdAt",
              "type": "uint256"
            },
            {
              "internalType": "uint256",
              "name": "updatedAt",
              "type": "uint256"
            }
          ],
          "internalType": "struct ZaaNetStorage.Network[]",
          "name": "",
          "type": "tuple[]"
        }
      ],
      "stateMutability": "view",
      "type": "function"
    },
    {
      "inputs": [],
      "name": "getAllActiveNetworks",
      "outputs": [
        {
          "components": [
            {
              "internalType": "uint256",
              "name": "id",
              "type": "uint256"
            },
            {
              "internalType": "address",
              "name": "hostAddress",
              "type": "address"
            },
            {
              "internalType": "uint256",
              "name": "pricePerSession",
              "type": "uint256"
            },
            {
              "internalType": "string",
              "name": "mongoDataId",
              "type": "string"
            },
            {
              "internalType": "bool",
              "name": "isActive",
              "type": "bool"
            },
            {
              "internalType": "uint256",
              "name": "createdAt",
              "type": "uint256"
            },
            {
              "internalType": "uint256",
              "name": "updatedAt",
              "type": "uint256"
            }
          ],
          "internalType": "struct ZaaNetStorage.Network[]",
          "name": "",
          "type": "tuple[]"
        }
      ],
      "stateMutability": "view",
      "type": "function"
    },
    {
      "inputs": [],
      "name": "getContractStats",
      "outputs": [
        {
          "internalType": "uint256",
          "name": "totalNetworks",
          "type": "uint256"
        }
      ],
      "stateMutability": "view",
      "type": "function"
    },
    {
      "inputs": [],
      "name": "getCurrentHostingFee",
      "outputs": [
        {
          "internalType": "uint256",
          "name": "",
          "type": "uint256"
        }
      ],
      "stateMutability": "view",
      "type": "function"
    },
    {
      "inputs": [
        {
          "internalType": "address",
          "name": "hostAddress",
          "type": "address"
        }
      ],
      "name": "getHostNetworks",
      "outputs": [
        {
          "internalType": "uint256[]",
          "name": "",
          "type": "uint256[]"
        }
      ],
      "stateMutability": "view",
      "type": "function"
    },
    {
      "inputs": [
        {
          "internalType": "address",
          "name": "hostAddress",
          "type": "address"
        }
      ],
      "name": "getHostStats",
      "outputs": [
        {
          "internalType": "uint256",
          "name": "totalNetworks",
          "type": "uint256"
        },
        {
          "internalType": "uint256",
          "name": "activeNetworks",
          "type": "uint256"
        },
        {
          "internalType": "uint256",
          "name": "totalEarnings",
          "type": "uint256"
        }
      ],
      "stateMutability": "view",
      "type": "function"
    },
    {
      "inputs": [
        {
          "internalType": "uint256",
          "name": "_networkId",
          "type": "uint256"
        }
      ],
      "name": "getHostedNetworkById",
      "outputs": [
        {
          "components": [
            {
              "internalType": "uint256",
              "name": "id",
              "type": "uint256"
            },
            {
              "internalType": "address",
              "name": "hostAddress",
              "type": "address"
            },
            {
              "internalType": "uint256",
              "name": "pricePerSession",
              "type": "uint256"
            },
            {
              "internalType": "string",
              "name": "mongoDataId",
              "type": "string"
            },
            {
              "internalType": "bool",
              "name": "isActive",
              "type": "bool"
            },
            {
              "internalType": "uint256",
              "name": "createdAt",
              "type": "uint256"
            },
            {
              "internalType": "uint256",
              "name": "updatedAt",
              "type": "uint256"
            }
          ],
          "internalType": "struct ZaaNetStorage.Network",
          "name": "",
          "type": "tuple"
        }
      ],
      "stateMutability": "view",
      "type": "function"
    },
    {
      "inputs": [
        {
          "internalType": "uint256",
          "name": "offset",
          "type": "uint256"
        },
        {
          "internalType": "uint256",
          "name": "limit",
          "type": "uint256"
        }
      ],
      "name": "getNetworksPaginated",
      "outputs": [
        {
          "components": [
            {
              "internalType": "uint256",
              "name": "id",
              "type": "uint256"
            },
            {
              "internalType": "address",
              "name": "hostAddress",
              "type": "address"
            },
            {
              "internalType": "uint256",
              "name": "pricePerSession",
              "type": "uint256"
            },
            {
              "internalType": "string",
              "name": "mongoDataId",
              "type": "string"
            },
            {
              "internalType": "bool",
              "name": "isActive",
              "type": "bool"
            },
            {
              "internalType": "uint256",
              "name": "createdAt",
              "type": "uint256"
            },
            {
              "internalType": "uint256",
              "name": "updatedAt",
              "type": "uint256"
            }
          ],
          "internalType": "struct ZaaNetStorage.Network[]",
          "name": "networks",
          "type": "tuple[]"
        },
        {
          "internalType": "uint256",
          "name": "totalCount",
          "type": "uint256"
        }
      ],
      "stateMutability": "view",
      "type": "function"
    },
    {
      "inputs": [],
      "name": "getTreasuryAddress",
      "outputs": [
        {
          "internalType": "address",
          "name": "",
          "type": "address"
        }
      ],
      "stateMutability": "view",
      "type": "function"
    },
    {
      "inputs": [
        {
          "internalType": "address",
          "name": "",
          "type": "address"
        }
      ],
      "name": "isHost",
      "outputs": [
        {
          "internalType": "bool",
          "name": "",
          "type": "bool"
        }
      ],
      "stateMutability": "view",
      "type": "function"
    },
    {
      "inputs": [
        {
          "internalType": "address",
          "name": "hostAddress",
          "type": "address"
        }
      ],
      "name": "isRegisteredHost",
      "outputs": [
        {
          "internalType": "bool",
          "name": "",
          "type": "bool"
        }
      ],
      "stateMutability": "view",
      "type": "function"
    },
    {
      "inputs": [
        {
          "internalType": "address",
          "name": "",
          "type": "address"
        }
      ],
      "name": "lastRegistrationTime",
      "outputs": [
        {
          "internalType": "uint256",
          "name": "",
          "type": "uint256"
        }
      ],
      "stateMutability": "view",
      "type": "function"
    },
    {
      "inputs": [
        {
          "internalType": "uint256",
          "name": "",
          "type": "uint256"
        }
      ],
      "name": "networkToHost",
      "outputs": [
        {
          "internalType": "address",
          "name": "",
          "type": "address"
        }
      ],
      "stateMutability": "view",
      "type": "function"
    },
    {
      "inputs": [],
      "name": "owner",
      "outputs": [
        {
          "internalType": "address",
          "name": "",
          "type": "address"
        }
      ],
      "stateMutability": "view",
      "type": "function"
    },
    {
      "inputs": [],
      "name": "pause",
      "outputs": [],
      "stateMutability": "nonpayable",
      "type": "function"
    },
    {
      "inputs": [],
      "name": "paused",
      "outputs": [
        {
          "internalType": "bool",
          "name": "",
          "type": "bool"
        }
      ],
      "stateMutability": "view",
      "type": "function"
    },
    {
      "inputs": [
        {
          "internalType": "uint256",
          "name": "_pricePerSession",
          "type": "uint256"
        },
        {
          "internalType": "string",
          "name": "_mongoDataId",
          "type": "string"
        },
        {
          "internalType": "bool",
          "name": "_isActive",
          "type": "bool"
        }
      ],
      "name": "registerNetwork",
      "outputs": [],
      "stateMutability": "nonpayable",
      "type": "function"
    },
    {
      "inputs": [],
      "name": "renounceOwnership",
      "outputs": [],
      "stateMutability": "nonpayable",
      "type": "function"
    },
    {
      "inputs": [
        {
          "internalType": "address",
          "name": "_newAdminContract",
          "type": "address"
        }
      ],
      "name": "setAdminContract",
      "outputs": [],
      "stateMutability": "nonpayable",
      "type": "function"
    },
    {
      "inputs": [
        {
          "internalType": "address",
          "name": "_newUsdt",
          "type": "address"
        }
      ],
      "name": "setUsdtContract",
      "outputs": [],
      "stateMutability": "nonpayable",
      "type": "function"
    },
    {
      "inputs": [],
      "name": "storageContract",
      "outputs": [
        {
          "internalType": "contract ZaaNetStorage",
          "name": "",
          "type": "address"
        }
      ],
      "stateMutability": "view",
      "type": "function"
    },
    {
      "inputs": [
        {
          "internalType": "address",
          "name": "newOwner",
          "type": "address"
        }
      ],
      "name": "transferOwnership",
      "outputs": [],
      "stateMutability": "nonpayable",
      "type": "function"
    },
    {
      "inputs": [],
      "name": "unpause",
      "outputs": [],
      "stateMutability": "nonpayable",
      "type": "function"
    },
    {
      "inputs": [
        {
          "internalType": "uint256",
          "name": "_networkId",
          "type": "uint256"
        },
        {
          "internalType": "uint256",
          "name": "_pricePerSession",
          "type": "uint256"
        },
        {
          "internalType": "bool",
          "name": "_isActive",
          "type": "bool"
        }
      ],
      "name": "updateNetwork",
      "outputs": [],
      "stateMutability": "nonpayable",
      "type": "function"
    },
    {
      "inputs": [],
      "name": "usdt",
      "outputs": [
        {
          "internalType": "contract IERC20",
          "name": "",
          "type": "address"
        }
      ],
      "stateMutability": "view",
      "type": "function"
    }
  ],
  "bytecode": "0x60803461020657601f6122fd38819003918201601f19168301916001600160401b0383118484101761020b578084926060946040528339810103126102065761004781610221565b90610060604061005960208401610221565b9201610221565b9033156101f05760008054336001600160a01b0319821681178355604051959290916001600160a01b0316907f8be0079c531659141344cd1fd0a4f28419497f9722a3daafe3b4186f6b6457e09080a3600180556001600160a01b03169283156101ae57506001600160a01b0316908115610169576001600160a01b03169182156101245760018060a01b0319600254161760025560018060a01b0319600354161760035560018060a01b031960045416176004556040516120c790816102368239f35b60405162461bcd60e51b815260206004820152601d60248201527f496e76616c6964205553445420636f6e747261637420616464726573730000006044820152606490fd5b60405162461bcd60e51b815260206004820152601e60248201527f496e76616c69642061646d696e20636f6e7472616374206164647265737300006044820152606490fd5b62461bcd60e51b815260206004820181905260248201527f496e76616c69642073746f7261676520636f6e747261637420616464726573736044820152606490fd5b631e4fbdf760e01b600052600060045260246000fd5b600080fd5b634e487b7160e01b600052604160045260246000fd5b51906001600160a01b03821682036102065756fe608080604052600436101561001357600080fd5b600090813560e01c90816309115e9714611b9b5750806311ce026714611b7257806316cb6eff14611a705780631b63fe671461180f5780632b2a748c1461164d5780632f48ab7d146116245780633f4ba83a146115b657806343355214146115835780634b9791e814611213578063576338a51461118b5780635c975abb1461116657806363a812f9146110dd578063715018a614611083578063764ac73414610eee57806379f0dc5714610e355780637f6e8cbf14610df85780638456cb5914610d97578063867f1a09146102b357806389ea28d914610d485780638da5cb5b14610d21578063900e41b114610542578063b0ff638314610526578063c05c5e94146104fd578063cd83fb9a1461045b578063d4f38d041461043c578063dfe6b5d6146103b4578063e002460414610311578063e67d86f1146102f5578063eb2931b7146102b3578063f2fde38b146102255763fa9c81a41461017657600080fd5b3461022257604036600319011261022257600254604051633ea7206960e21b81526004803590820152602480359082015291908190839060449082906001600160a01b03165afa8015610215576101e5928280926101ef575b5050604051928392604084526040840190611c5b565b9060208301520390f35b90915061020e92503d8091833e6102068183611cf5565b810190611e20565b38806101cf565b50604051903d90823e3d90fd5b80fd5b5034610222576020366003190112610222576004356001600160a01b038116908190036102af57610254612068565b801561029b5781546001600160a01b03198116821783556001600160a01b03167f8be0079c531659141344cd1fd0a4f28419497f9722a3daafe3b4186f6b6457e08380a380f35b631e4fbdf760e01b82526004829052602482fd5b5080fd5b5034610222576020366003190112610222576004356001600160a01b038116908190036102af5760408260ff9260209452600584522054166040519015158152f35b5034610222578060031936011261022257602060405160c88152f35b503461022257806003193601126102225760035460405163c5f956af60e01b81529190602090839060049082906001600160a01b03165afa9081156103a857809161036b575b6040516001600160a01b0383168152602090f35b90506020823d6020116103a0575b8161038660209383611cf5565b81010312610222575061039a602091611d4b565b38610357565b3d9150610379565b604051903d90823e3d90fd5b503461022257806003193601126102225760025460405163217c682d60e01b81529190602090839060049082906001600160a01b03165afa9081156103a85790610404575b602090604051908152f35b506020813d602011610434575b8161041e60209383611cf5565b8101031261042f57602090516103f9565b600080fd5b3d9150610411565b503461022257806003193601126102225760206040516302faf0808152f35b503461022257602036600319011261022257610475611f13565b506002546040516395ea571760e01b81526004803590820152908290829060249082906001600160a01b03165afa9081156104f257826104cb93926104cf575b5050604051918291602083526020830190611bff565b0390f35b6104eb92503d8091833e6104e38183611cf5565b810190611f9a565b38806104b5565b6040513d84823e3d90fd5b50346102225780600319360112610222576003546040516001600160a01b039091168152602090f35b50346102225780600319360112610222576020604051603c8152f35b5034610222576060366003190112610222576024359060043567ffffffffffffffff83116102af57366023840112156102af57826004013561058381611d17565b936105916040519586611cf5565b8185523660248383010111610a835781849260246020930183880137850101526105b9611cb4565b926105c2612026565b6105ca612046565b33835260086020526040832054603c8101809111610d0d574210610cc85761271082101580610cba575b6105fd90611fc3565b80518015159081610cae575b5015610c69576003546040516375f3fed560e11b81526001600160a01b0390911694602082600481895afa918215610a87578592610c32575b5060206004966040519788809263c5f956af60e01b82525afa958615610a87578596610bf6575b5081151580610be4575b6108d2575b6002546040516329487fe360e11b8152959650939493602090859060049082908a906001600160a01b03165af19384156108c7578694610893575b508560018060a01b036002541691604051906106ce82611cc3565b8682523360208301528760408301528560608301521515928360808301524260a08301524260c0830152803b1561088f57604051631430350760e21b81529183918391829084908290610725908d6004840161200f565b03925af180156104f257610876575b505033865260066020526040862080549068010000000000000000821015610862576001820180825582101561084e577fd93f4aea01982a4687b0d757a8314f57b6a77742cf98d21bc9bdb24ef543a4dc9493929186918952602089200155848752600760205260408720336001600160601b0360a01b8254161790553387526008602052426040882055338752600560205260ff6040882054161561080d575b6107ea6040519360a0855260a0850190611bda565b956020840152604083015260608201524260808201528033940390a36001805580f35b33808852600560205260408820805460ff191660011790557f8ff9310abede1de3c5d3fdbb7cf09c40bc8258ca75c0f949ad92f964deac98b38880a26107d5565b634e487b7160e01b88526032600452602488fd5b634e487b7160e01b88526041600452602488fd5b8161088091611cf5565b61088b578538610734565b8580fd5b8280fd5b9093506020813d6020116108bf575b816108af60209383611cf5565b8101031261042f575192386106b3565b3d91506108a2565b6040513d88823e3d90fd5b600480546040516370a0823160e01b815233928101929092526001600160a01b031696906020816024818b5afa908115610b4d579084918891610baf575b5010610b5857604051636eb1769f60e11b81523360048201523060248201526020816044818b5afa908115610b4d579084918891610b18575b5010610ad3576040516323b872dd60e01b60208281019182523360248401526001600160a01b03909316604483015260648083018690528252879161098f608482611cf5565b5190828a5af115610ac85784513d610abf5750853b155b610aab5760025494955092938593906001600160a01b0316803b15610a92578480916024604051809481936369009a1360e01b83528860048401525af1908115610a87578591610a96575b50506002546001600160a01b0316803b15610a9257848091602460405180948193631190defd60e01b83528860048401525af1908115610a87578591610a6e575b50506040518281524260208201527fac5b35db873b0c878683cbeac0fc736acd48ea6480742bafd3ba483dd715882460403392a2939293610678565b81610a7891611cf5565b610a83578338610a32565b8380fd5b6040513d87823e3d90fd5b8480fd5b81610aa091611cf5565b610a835783386109f1565b635274afe760e01b85526004869052602485fd5b600114156109a6565b6040513d86823e3d90fd5b60405162461bcd60e51b815260206004820152601860248201527f486f7374696e6720666565206e6f7420617070726f76656400000000000000006044820152606490fd5b9150506020813d602011610b45575b81610b3460209383611cf5565b8101031261042f5783905138610949565b3d9150610b27565b6040513d89823e3d90fd5b60405162461bcd60e51b815260206004820152602960248201527f496e73756666696369656e7420555344542062616c616e636520666f7220686f6044820152687374696e672066656560b81b6064820152608490fd5b9150506020813d602011610bdc575b81610bcb60209383611cf5565b8101031261042f5783905138610910565b3d9150610bbe565b506001600160a01b0386161515610673565b9095506020813d602011610c2a575b81610c1260209383611cf5565b81010312610a9257610c2390611d4b565b9438610669565b3d9150610c05565b9591506020863d602011610c61575b81610c4e60209383611cf5565b8101031261042f57945190946020610642565b3d9150610c41565b60405162461bcd60e51b815260206004820152601a60248201527f496e76616c6964204d6f6e676f446174614944206c656e6774680000000000006044820152606490fd5b60c89150111538610609565b506302faf0808211156105f4565b60405162461bcd60e51b815260206004820152601c60248201527f526567697374726174696f6e20636f6f6c646f776e20616374697665000000006044820152606490fd5b634e487b7160e01b84526011600452602484fd5b5034610222578060031936011261022257546040516001600160a01b039091168152602090f35b50346102225780600319360112610222576003546040516375f3fed560e11b81529190602090839060049082906001600160a01b03165afa9081156103a8579061040457602090604051908152f35b5034610222578060031936011261022257610db0612068565b610db8612026565b805460ff60a01b1916600160a01b1781556040513381527f62e78cea01bee320cd4e420270b5ea74000d11b0c9f74754ebdbfc544b05a25890602090a180f35b5034610222576020366003190112610222576004356001600160a01b038116908190036102af578160409160209352600883522054604051908152f35b5034610222576020366003190112610222576004356001600160a01b038116908190036102af578152600660205260408120604051908160208254918281520190819285526020852090855b818110610ed85750505082610e97910383611cf5565b604051928392602084019060208552518091526040840192915b818110610ebf575050500390f35b8251845285945060209384019390920191600101610eb1565b8254845260209093019260019283019201610e81565b5034610222576020366003190112610222576004356001600160a01b038116908190036102af57818183526006602052604083205460018060a01b03600254169060405193636d65573f60e01b8552806004860152602085602481865afa9485156108c757869561104f575b508552600660205260408520906040518083602082955493848152019089526020892092895b818110611036575050610f9592500383611cf5565b855b825181101561101f57610faa8184611ec4565b51604051906395ea571760e01b825260048201528781602481885afa8015611014576080918991610ffa575b500151610fe6575b600101610f97565b93610ff2600191611eee565b949050610fde565b61100e91503d808b833e6104e38183611cf5565b38610fd6565b6040513d8a823e3d90fd5b606082878760405192835260208301526040820152f35b8454835260019485019487945060209093019201610f80565b9094506020813d60201161107b575b8161106b60209383611cf5565b8101031261042f57519338610f5a565b3d915061105e565b503461022257806003193601126102225761109c612068565b80546001600160a01b03198116825581906001600160a01b03167f8be0079c531659141344cd1fd0a4f28419497f9722a3daafe3b4186f6b6457e08280a380f35b5034610222576020366003190112610222576004356001600160a01b038116908190036102af5761110c612068565b8015611128576001600160601b0360a01b600354161760035580f35b60405162461bcd60e51b8152602060048201526016602482015275125b9d985b1a590818591b5a5b8818dbdb9d1c9858dd60521b6044820152606490fd5b503461022257806003193601126102225760ff6020915460a01c166040519015158152f35b5034610222576020366003190112610222576004356001600160a01b038116908190036102af576111ba612068565b80156111d6576001600160601b0360a01b600454161760045580f35b60405162461bcd60e51b8152602060048201526015602482015274125b9d985b1a59081554d1150818dbdb9d1c9858dd605a1b6044820152606490fd5b503461022257602036600319011261022257600435611230612026565b6002546040516395ea571760e01b815260048101839052908390829060249082906001600160a01b03165afa90811561157857839161155e575b5060208101516001600160a01b03163303611519576080810151156114d45760409081015160025491516395ea571760e01b8152600481018490529092916001600160a01b03168482602481845afa918215610a875785926114b8575b506020820151336001600160a01b039091160361147c576127108410158061146e575b6112f390611fc3565b846040830151926080810151151590606081019360a085519201516040519261131b84611cc3565b888452336020850152896040850152606084015284608084015260a08301524260c0830152803b15610a835761136c8492918392604051968780948193631430350760e21b83528d6004840161200f565b03925af1928315610215578693611451575b505090816113d393928286897f54505b9e522263d538acc1f6de9658c2ae4fd39b8771f562481c2d375d1c1f2d980361141a575b50506113e3575b505051604051948552606060208601526060850190611bda565b928460408201528033940390a380f35b60407fb061566845b6680f66461fbe29235493f3aa355419d464d868114a32e0e7ae7b918151908152896020820152a283386113b9565b60407f07d20e42fbc3910f3e2536c15bfb3d2deec361f7b0534c071570af6608429f019181519081528b6020820152a282386113b2565b81929493509061146091611cf5565b61088b57908390863861137e565b506302faf0808411156112ea565b60405162461bcd60e51b81526020600482015260146024820152734f6e6c7920686f73742063616e2075706461746560601b6044820152606490fd5b6114cd9192503d8087833e6104e38183611cf5565b90386112c7565b60405162461bcd60e51b815260206004820152601860248201527f4e6574776f726b20616c726561647920696e61637469766500000000000000006044820152606490fd5b60405162461bcd60e51b815260206004820152601860248201527f4f6e6c7920686f73742063616e206465616374697661746500000000000000006044820152606490fd5b61157291503d8085833e6104e38183611cf5565b3861126a565b6040513d85823e3d90fd5b503461022257602036600319011261022257602090600435815260078252604060018060a01b0391205416604051908152f35b50346102225780600319360112610222576115cf612068565b805460ff8160a01c16156116155760ff60a01b191681556040513381527f5db9ee0a495bf2e6ff9c91a7834c1ba4fdd244a5e8aa4e537bd38aeae4b073aa90602090a180f35b638dfc202b60e01b8252600482fd5b50346102225780600319360112610222576004546040516001600160a01b039091168152602090f35b5034610222576020366003190112610222576004356001600160a01b038116908190036102af5781526006602052604081206040518082602082945493848152019085526020852092855b8181106117f65750506116ad92500382611cf5565b60025482906001600160a01b031681805b845181101561173b576116d18186611ec4565b51604051906395ea571760e01b825260048201528281602481875afa8015611578576080918491611721575b50015161170d575b6001016116be565b92611719600191611eee565b939050611705565b61173591503d8086833e6104e38183611cf5565b386116fd565b50509061174790611f4a565b8390845b84518110156117e05761175e8186611ec4565b51604051906395ea571760e01b825260048201528681602481885afa908115610b4d5787916117c6575b50608081015161179c575b5060010161174b565b836117bf916117ae6001949686611ec4565b526117b98185611ec4565b50611eee565b9290611793565b6117da91503d8089833e6104e38183611cf5565b38611788565b604051602080825281906104cb90820185611c5b565b8454835260019485019486945060209093019201611698565b50346102225760603660031901126102225760243560043561182f611cb4565b91611838612026565b611840612046565b6002546040516395ea571760e01b815260048101849052906001600160a01b03168582602481845afa9182156108c7578692611a54575b506020820151336001600160a01b039091160361147c5761271083101580611a46575b6118a390611fc3565b6040820151866080840151151592606085019460a0865191015198604051916118cb83611cc3565b898352336020840152886040840152606083015215159889608083015260a08201524260c0820152813b1561088f57829161191d91604051948580948193631430350760e21b83528d6004840161200f565b03925af1801561101457611a04575b509184611983928185877f54505b9e522263d538acc1f6de9658c2ae4fd39b8771f562481c2d375d1c1f2d9897036119cd575b5050878103611996575b505051604051928352606060208401526060830190611bda565b9360408201528033940390a36001805580f35b60407fb061566845b6680f66461fbe29235493f3aa355419d464d868114a32e0e7ae7b918151908152896020820152a28438611969565b60407f07d20e42fbc3910f3e2536c15bfb3d2deec361f7b0534c071570af6608429f01918151908152886020820152a2813861195f565b611983928689611a397f54505b9e522263d538acc1f6de9658c2ae4fd39b8771f562481c2d375d1c1f2d9897959b8395611cf5565b999395965050925061192c565b506302faf08083111561189a565b611a699192503d8088833e6104e38183611cf5565b9038611877565b5034610222578060031936011261022257600254604051633ea7206960e21b8152600481018390526064602482015291908190839060449082906001600160a01b03165afa918215610215578192611b55575b5080815b8351811015611b00576080611adc8286611ec4565b510151611aec575b600101611ac7565b90611af8600191611eee565b919050611ae4565b50611b0a90611f4a565b815b83518110156117e0576080611b218286611ec4565b510151611b31575b600101611b0c565b91611b4d600191611b428587611ec4565b516117ae8286611ec4565b929050611b29565b611b6a9192503d8084833e6102068183611cf5565b509038611ac3565b50346102225780600319360112610222576002546040516001600160a01b039091168152602090f35b9050346102af57816003193601126102af578061271060209252f35b60005b838110611bca5750506000910152565b8181015183820152602001611bba565b90602091611bf381518092818552858086019101611bb7565b601f01601f1916010190565b908151815260018060a01b0360208301511660208201526040820151604082015260c080611c3c606085015160e0606086015260e0850190611bda565b9360808101511515608085015260a081015160a0850152015191015290565b9080602083519182815201916020808360051b8301019401926000915b838310611c8757505050505090565b9091929394602080611ca5600193601f198682030187528951611bff565b97019301930191939290611c78565b60443590811515820361042f57565b60e0810190811067ffffffffffffffff821117611cdf57604052565b634e487b7160e01b600052604160045260246000fd5b90601f8019910116810190811067ffffffffffffffff821117611cdf57604052565b67ffffffffffffffff8111611cdf57601f01601f191660200190565b67ffffffffffffffff8111611cdf5760051b60200190565b51906001600160a01b038216820361042f57565b91909160e08184031261042f5760405190611d7982611cc3565b819381518352611d8b60208301611d4b565b602084015260408201516040840152606082015167ffffffffffffffff811161042f57820181601f8201121561042f578051611dc681611d17565b92611dd46040519485611cf5565b8184526020828401011161042f57611df29160208085019101611bb7565b60608301526080810151801515810361042f5760c0918291608085015260a081015160a08501520151910152565b919060408382031261042f57825167ffffffffffffffff811161042f5783019080601f8301121561042f578151611e5681611d33565b92611e646040519485611cf5565b81845260208085019260051b8201019183831161042f5760208201905b838210611e9657505050505060209092015190565b815167ffffffffffffffff811161042f57602091611eb987848094880101611d5f565b815201910190611e81565b8051821015611ed85760209160051b010190565b634e487b7160e01b600052603260045260246000fd5b6000198114611efd5760010190565b634e487b7160e01b600052601160045260246000fd5b60405190611f2082611cc3565b600060c0838281528260208201528260408201526060808201528260808201528260a08201520152565b90611f5482611d33565b611f616040519182611cf5565b8281528092611f72601f1991611d33565b019060005b828110611f8357505050565b602090611f8e611f13565b82828501015201611f77565b9060208282031261042f57815167ffffffffffffffff811161042f57611fc09201611d5f565b90565b15611fca57565b60405162461bcd60e51b815260206004820152601a60248201527f5072696365206f7574206f6620616c6c6f7765642072616e67650000000000006044820152606490fd5b604090611fc0939281528160208201520190611bff565b60ff60005460a01c1661203557565b63d93c066560e01b60005260046000fd5b600260015414612057576002600155565b633ee5aeb560e01b60005260046000fd5b6000546001600160a01b0316330361207c57565b63118cdaa760e01b6000523360045260246000fdfea2646970667358221220af11b012e53024a1bab258678f70f2524fc8267300a7f385320564cfefed053064736f6c634300081c0033",
  "linkReferences": {},
  "deployedLinkReferences": {}
}