{
  "_format": "hh-sol-artifact-1",
  "contractName": "ZaaNetPayment",
  "sourceName": "contracts/ZaaNetPayment.sol",
  "abi": [
    {
      "inputs": [
        {
          "internalType": "address",
          "name": "_usdt",
          "type": "address"
        },
        {
          "internalType": "address",
          "name": "_storageContract",
          "type": "address"
        },
        {
          "internalType": "address",
          "name": "_adminContract",
          "type": "address"
        }
      ],
      "stateMutability": "nonpayable",
      "type": "constructor"
    },
    {
      "inputs": [],
      "name": "EnforcedPause",
      "type": "error"
    },
    {
      "inputs": [],
      "name": "ExpectedPause",
      "type": "error"
    },
    {
      "inputs": [
        {
          "internalType": "address",
          "name": "owner",
          "type": "address"
        }
      ],
      "name": "OwnableInvalidOwner",
      "type": "error"
    },
    {
      "inputs": [
        {
          "internalType": "address",
          "name": "account",
          "type": "address"
        }
      ],
      "name": "OwnableUnauthorizedAccount",
      "type": "error"
    },
    {
      "inputs": [],
      "name": "ReentrancyGuardReentrantCall",
      "type": "error"
    },
    {
      "inputs": [
        {
          "internalType": "address",
          "name": "token",
          "type": "address"
        }
      ],
      "name": "SafeERC20FailedOperation",
      "type": "error"
    },
    {
      "anonymous": false,
      "inputs": [
        {
          "indexed": false,
          "internalType": "uint256",
          "name": "batchSize",
          "type": "uint256"
        },
        {
          "indexed": false,
          "internalType": "uint256",
          "name": "totalAmount",
          "type": "uint256"
        },
        {
          "indexed": false,
          "internalType": "uint256",
          "name": "totalPlatformFee",
          "type": "uint256"
        }
      ],
      "name": "BatchPaymentProcessed",
      "type": "event"
    },
    {
      "anonymous": false,
      "inputs": [
        {
          "indexed": true,
          "internalType": "address",
          "name": "treasury",
          "type": "address"
        },
        {
          "indexed": false,
          "internalType": "uint256",
          "name": "attemptedAmount",
          "type": "uint256"
        },
        {
          "indexed": false,
          "internalType": "uint256",
          "name": "dailyLimit",
          "type": "uint256"
        },
        {
          "indexed": false,
          "internalType": "uint256",
          "name": "alreadyWithdrawn",
          "type": "uint256"
        }
      ],
      "name": "DailyLimitExceeded",
      "type": "event"
    },
    {
      "anonymous": false,
      "inputs": [
        {
          "indexed": true,
          "internalType": "address",
          "name": "previousOwner",
          "type": "address"
        },
        {
          "indexed": true,
          "internalType": "address",
          "name": "newOwner",
          "type": "address"
        }
      ],
      "name": "OwnershipTransferred",
      "type": "event"
    },
    {
      "anonymous": false,
      "inputs": [
        {
          "indexed": false,
          "internalType": "address",
          "name": "account",
          "type": "address"
        }
      ],
      "name": "Paused",
      "type": "event"
    },
    {
      "anonymous": false,
      "inputs": [
        {
          "indexed": true,
          "internalType": "bytes32",
          "name": "voucherId",
          "type": "bytes32"
        },
        {
          "indexed": true,
          "internalType": "uint256",
          "name": "contractId",
          "type": "uint256"
        },
        {
          "indexed": true,
          "internalType": "address",
          "name": "host",
          "type": "address"
        },
        {
          "indexed": false,
          "internalType": "address",
          "name": "payer",
          "type": "address"
        },
        {
          "indexed": false,
          "internalType": "uint256",
          "name": "grossAmount",
          "type": "uint256"
        },
        {
          "indexed": false,
          "internalType": "uint256",
          "name": "platformFee",
          "type": "uint256"
        },
        {
          "indexed": false,
          "internalType": "uint256",
          "name": "hostAmount",
          "type": "uint256"
        },
        {
          "indexed": false,
          "internalType": "uint256",
          "name": "timestamp",
          "type": "uint256"
        }
      ],
      "name": "PaymentProcessed",
      "type": "event"
    },
    {
      "anonymous": false,
      "inputs": [
        {
          "indexed": false,
          "internalType": "address",
          "name": "account",
          "type": "address"
        }
      ],
      "name": "Unpaused",
      "type": "event"
    },
    {
      "inputs": [],
      "name": "MAX_FEERATE_PERCENT",
      "outputs": [
        {
          "internalType": "uint256",
          "name": "",
          "type": "uint256"
        }
      ],
      "stateMutability": "view",
      "type": "function"
    },
    {
      "inputs": [],
      "name": "MAX_INDIVIDUAL_PAYMENT",
      "outputs": [
        {
          "internalType": "uint256",
          "name": "",
          "type": "uint256"
        }
      ],
      "stateMutability": "view",
      "type": "function"
    },
    {
      "inputs": [],
      "name": "adminContract",
      "outputs": [
        {
          "internalType": "contract IZaaNetAdmin",
          "name": "",
          "type": "address"
        }
      ],
      "stateMutability": "view",
      "type": "function"
    },
    {
      "inputs": [],
      "name": "contractTokenBalance",
      "outputs": [
        {
          "internalType": "uint256",
          "name": "",
          "type": "uint256"
        }
      ],
      "stateMutability": "view",
      "type": "function"
    },
    {
      "inputs": [],
      "name": "dailyWithdrawalLimit",
      "outputs": [
        {
          "internalType": "uint256",
          "name": "",
          "type": "uint256"
        }
      ],
      "stateMutability": "view",
      "type": "function"
    },
    {
      "inputs": [
        {
          "internalType": "uint256",
          "name": "",
          "type": "uint256"
        }
      ],
      "name": "dailyWithdrawals",
      "outputs": [
        {
          "internalType": "uint256",
          "name": "",
          "type": "uint256"
        }
      ],
      "stateMutability": "view",
      "type": "function"
    },
    {
      "inputs": [],
      "name": "getRemainingDailyLimit",
      "outputs": [
        {
          "internalType": "uint256",
          "name": "",
          "type": "uint256"
        }
      ],
      "stateMutability": "view",
      "type": "function"
    },
    {
      "inputs": [],
      "name": "getTodayWithdrawals",
      "outputs": [
        {
          "internalType": "uint256",
          "name": "",
          "type": "uint256"
        }
      ],
      "stateMutability": "view",
      "type": "function"
    },
    {
      "inputs": [
        {
          "internalType": "bytes32",
          "name": "_voucherId",
          "type": "bytes32"
        }
      ],
      "name": "isVoucherProcessed",
      "outputs": [
        {
          "internalType": "bool",
          "name": "",
          "type": "bool"
        }
      ],
      "stateMutability": "view",
      "type": "function"
    },
    {
      "inputs": [],
      "name": "owner",
      "outputs": [
        {
          "internalType": "address",
          "name": "",
          "type": "address"
        }
      ],
      "stateMutability": "view",
      "type": "function"
    },
    {
      "inputs": [],
      "name": "pause",
      "outputs": [],
      "stateMutability": "nonpayable",
      "type": "function"
    },
    {
      "inputs": [],
      "name": "paused",
      "outputs": [
        {
          "internalType": "bool",
          "name": "",
          "type": "bool"
        }
      ],
      "stateMutability": "view",
      "type": "function"
    },
    {
      "inputs": [
        {
          "components": [
            {
              "internalType": "uint256",
              "name": "contractId",
              "type": "uint256"
            },
            {
              "internalType": "uint256",
              "name": "grossAmount",
              "type": "uint256"
            },
            {
              "internalType": "bytes32",
              "name": "voucherId",
              "type": "bytes32"
            }
          ],
          "internalType": "struct ZaaNetPayment.BatchPayment[]",
          "name": "payments",
          "type": "tuple[]"
        }
      ],
      "name": "processBatchPayments",
      "outputs": [],
      "stateMutability": "nonpayable",
      "type": "function"
    },
    {
      "inputs": [
        {
          "internalType": "uint256",
          "name": "_contractId",
          "type": "uint256"
        },
        {
          "internalType": "uint256",
          "name": "_grossAmount",
          "type": "uint256"
        },
        {
          "internalType": "bytes32",
          "name": "_voucherId",
          "type": "bytes32"
        }
      ],
      "name": "processPayment",
      "outputs": [],
      "stateMutability": "nonpayable",
      "type": "function"
    },
    {
      "inputs": [
        {
          "internalType": "bytes32",
          "name": "",
          "type": "bytes32"
        }
      ],
      "name": "processedVouchers",
      "outputs": [
        {
          "internalType": "bool",
          "name": "",
          "type": "bool"
        }
      ],
      "stateMutability": "view",
      "type": "function"
    },
    {
      "inputs": [],
      "name": "renounceOwnership",
      "outputs": [],
      "stateMutability": "nonpayable",
      "type": "function"
    },
    {
      "inputs": [
        {
          "internalType": "address",
          "name": "_erc20",
          "type": "address"
        },
        {
          "internalType": "address",
          "name": "_to",
          "type": "address"
        },
        {
          "internalType": "uint256",
          "name": "_amount",
          "type": "uint256"
        }
      ],
      "name": "rescueERC20",
      "outputs": [],
      "stateMutability": "nonpayable",
      "type": "function"
    },
    {
      "inputs": [
        {
          "internalType": "uint256",
          "name": "_newLimit",
          "type": "uint256"
        }
      ],
      "name": "setDailyWithdrawalLimit",
      "outputs": [],
      "stateMutability": "nonpayable",
      "type": "function"
    },
    {
      "inputs": [],
      "name": "storageContract",
      "outputs": [
        {
          "internalType": "contract IZaaNetStorage",
          "name": "",
          "type": "address"
        }
      ],
      "stateMutability": "view",
      "type": "function"
    },
    {
      "inputs": [],
      "name": "tokenDecimals",
      "outputs": [
        {
          "internalType": "uint8",
          "name": "",
          "type": "uint8"
        }
      ],
      "stateMutability": "view",
      "type": "function"
    },
    {
      "inputs": [
        {
          "internalType": "address",
          "name": "newOwner",
          "type": "address"
        }
      ],
      "name": "transferOwnership",
      "outputs": [],
      "stateMutability": "nonpayable",
      "type": "function"
    },
    {
      "inputs": [],
      "name": "unpause",
      "outputs": [],
      "stateMutability": "nonpayable",
      "type": "function"
    },
    {
      "inputs": [],
      "name": "usdt",
      "outputs": [
        {
          "internalType": "contract IERC20",
          "name": "",
          "type": "address"
        }
      ],
      "stateMutability": "view",
      "type": "function"
    },
    {
      "inputs": [
        {
          "internalType": "address",
          "name": "_to",
          "type": "address"
        },
        {
          "internalType": "uint256",
          "name": "_amount",
          "type": "uint256"
        }
      ],
      "name": "withdrawToken",
      "outputs": [],
      "stateMutability": "nonpayable",
      "type": "function"
    }
  ],
  "bytecode": "0x6080806040523461025f57606081611e08803803809161001f8285610264565b83398101031261025f576100328161029d565b9061004b60406100446020840161029d565b920161029d565b9033156102495760008054336001600160a01b0319821681178355604051959290916001600160a01b0316907f8be0079c531659141344cd1fd0a4f28419497f9722a3daafe3b4186f6b6457e09080a3600180556402540be4006005556001600160a01b031692831561021a57506001600160a01b03169081156101e6576001600160a01b03169182156101b457600280546001600160a01b03198116831790915560405163313ce56760e01b8152909190602081600481855afa9081156101a857600091610165575b506001600160a81b03199092161760a09190911b60ff60a01b1617600255600380546001600160a01b031990811692909217905560048054909116919091179055604051611b5690816102b28239f35b6020813d6020116101a0575b8161017e60209383610264565b8101031261019c57519060ff82168203610199575038610115565b80fd5b5080fd5b3d9150610171565b6040513d6000823e3d90fd5b60405162461bcd60e51b815260206004820152600a60248201526961646d696e207a65726f60b01b6044820152606490fd5b60405162461bcd60e51b815260206004820152600c60248201526b73746f72616765207a65726f60a01b6044820152606490fd5b62461bcd60e51b815260206004820152600a602482015269746f6b656e207a65726f60b01b6044820152606490fd5b631e4fbdf760e01b600052600060045260246000fd5b600080fd5b601f909101601f19168101906001600160401b0382119082101761028757604052565b634e487b7160e01b600052604160045260246000fd5b51906001600160a01b038216820361025f5756fe6080604052600436101561001257600080fd5b6000803560e01c806305483a15146115525780630604bfa41461020257806311ce0267146115295780632f48ab7d1461150057806333770245146114d65780633b97e856146114b25780633f4ba83a146114445780634342482d14610db05780634cf4caa514610d915780635b3c052814610d755780635c975abb14610d50578063715018a614610cf65780637620843a14610cd85780637ddd23e1146105a55780638456cb59146105445780638da5cb5b1461051d5780639e281a98146103765780639e9aed62146102dc578063a15f39e8146102b9578063b2118a8d14610231578063b9a2454414610202578063c05c5e94146101d9578063c4d276bc146101ad5763f2fde38b1461012557600080fd5b346101aa5760203660031901126101aa5761013e6115b0565b610146611a17565b6001600160a01b031680156101965781546001600160a01b03198116821783556001600160a01b03167f8be0079c531659141344cd1fd0a4f28419497f9722a3daafe3b4186f6b6457e08380a380f35b631e4fbdf760e01b82526004829052602482fd5b80fd5b50346101aa57806003193601126101aa5760406020916201518042048152600683522054604051908152f35b50346101aa57806003193601126101aa576004546040516001600160a01b039091168152602090f35b50346101aa5760203660031901126101aa5760ff60406020926004358152600784522054166040519015158152f35b50346101aa5760603660031901126101aa5761024b6115b0565b602435906001600160a01b0382168083036102b557610268611a17565b156102865761028391604435916001600160a01b0316611a82565b80f35b60405162461bcd60e51b81526020600482015260076024820152667a65726f20746f60c81b6044820152606490fd5b8380fd5b50346101aa57806003193601126101aa5760206102d46119e4565b604051908152f35b50346101aa57806003193601126101aa576002546040516370a0823160e01b81523060048201529190602090839060249082906001600160a01b03165afa90811561036a5790610332575b602090604051908152f35b506020813d602011610362575b8161034c602093836115e9565b8101031261035d5760209051610327565b600080fd5b3d915061033f565b604051903d90823e3d90fd5b50346101aa5760403660031901126101aa576103906115b0565b60243561039b611a17565b6001600160a01b038216156104d8578015610494576002546040516370a0823160e01b81523060048201526001600160a01b039091169290602081602481875afa80156104895783908690610453575b6103f792501015611978565b6103ff6119e4565b821161040e5761028392611a82565b60405162461bcd60e51b815260206004820152601e60248201527f45786365656473206461696c79207769746864726177616c206c696d697400006044820152606490fd5b50506020813d602011610481575b8161046e602093836115e9565b8101031261035d57826103f791516103eb565b3d9150610461565b6040513d87823e3d90fd5b606460405162461bcd60e51b815260206004820152602060248201527f416d6f756e74206d7573742062652067726561746572207468616e207a65726f6044820152fd5b60405162461bcd60e51b815260206004820152601960248201527f496e76616c696420726563697069656e742061646472657373000000000000006044820152606490fd5b50346101aa57806003193601126101aa57546040516001600160a01b039091168152602090f35b50346101aa57806003193601126101aa5761055d611a17565b610565611a40565b805460ff60a01b1916600160a01b1781556040513381527f62e78cea01bee320cd4e420270b5ea74000d11b0c9f74754ebdbfc544b05a25890602090a180f35b50346101aa5760203660031901126101aa5760043567ffffffffffffffff811161082557366023820112156108255780600401359067ffffffffffffffff8211610cd45760248101906024369160608502010111610cd457610605611a40565b61060d611a60565b60018060a01b03600454169160405163319a11df60e11b8152602081600481875afa8015610489578590610c95575b61065191506001600160a01b03163314611635565b80151580610c8a575b15610c5057604051638c639a8560e01b815292849290602085600481845afa948515610c0e578695610c19575b5090602060049261069b6014881115611895565b60405163c5f956af60e01b815293849182905afa918215610c0e578692610bce575b506106d26001600160a01b03831615156118d0565b60035486906001600160a01b03165b848210610afc5750506106f26119e4565b8411610ac15762015180420486526006602052604086206107148582546115c6565b90556002546040516370a0823160e01b815230600482015290602090829060249082906001600160a01b03165afa8015610ab65785908890610a80575b8893925090610761911015611978565b8195825b85811061089957505050508380610829575b505060035484906001600160a01b0316803b15610825578180916024604051809481936313a7dd1d60e01b83528960048401525af1801561081a57610805575b50506107fb7f20eb9f3aebb74816a1325a7477cfa6f6ab692b692cd5930db98bd2d0343b70ca93604051938493846040919493926060820195825260208201520152565b0390a16001805580f35b8161080f916115e9565b6102b55783386107b7565b6040513d84823e3d90fd5b5080fd5b60025461083f92906001600160a01b0316611a82565b60035484906001600160a01b0316803b15610825578180916024604051809481936369009a1360e01b83528a60048401525af1801561081a57610884575b5083610777565b8161088e916115e9565b6102b557833861087d565b6108b06108ab828886979b959661190f565b611935565b60018060a01b03600354168982516024604051809481936395ea571760e01b835260048301525afa908115610a75578a91610a53575b50602082019160646108f98785516119c4565b04946109068685516119d7565b9061092b82602060018060a01b036002541696019560018060a01b0387511690611a82565b60035484516001600160a01b039081169116803b15610a4f576040516370e3d45560e11b81526001600160a01b03929092166004830152602482018490528e908290604490829084905af1908115610a42578e91610a25575b50509086610a186109b86001997fdaec0156f045fe9bffcc686bd77361f536743020f757603c9f1888937cdfc521956115c6565b9e604080870191825181526007602052208a60ff1982541617905551945195898060a01b039051169651604051938493429233869192608093969594919660a084019760018060a01b031684526020840152604083015260608201520152565b0390a40190879291610765565b81610a32919493946115e9565b610a3e57908c38610984565b8c80fd5b8e604051903d90823e3d90fd5b8e80fd5b610a6f91503d808c833e610a6781836115e9565b810190611700565b386108e6565b6040513d8c823e3d90fd5b50506020813d602011610aae575b81610a9b602093836115e9565b8101031261035d57846107619151610751565b3d9150610a8e565b6040513d89823e3d90fd5b60405162461bcd60e51b8152602060048201526013602482015272115e18d959591cc819185a5b1e481b1a5b5a5d606a1b6044820152606490fd5b9094610b0c6108ab87878661190f565b6020810190610b2682518015159081610bbf575b506116c3565b60408101518a526007602052610b4360ff60408c20541615611677565b5191604051926395ea571760e01b845260048401528983602481875afa918215610a7557610b96610b9d936001958d91610ba5575b50610b8860808201511515611817565b604083519101511115611858565b51906115c6565b9501906106e1565b610bb991503d808f833e610a6781836115e9565b38610b78565b6302faf0809150111538610b20565b9091506020813d602011610c06575b81610bea602093836115e9565b81010312610c0257610bfb90611621565b90386106bd565b8580fd5b3d9150610bdd565b6040513d88823e3d90fd5b919094506020823d602011610c48575b81610c36602093836115e9565b8101031261035d579051936020610687565b3d9150610c29565b60405162461bcd60e51b8152602060048201526012602482015271496e76616c69642062617463682073697a6560701b6044820152606490fd5b50603281111561065a565b506020813d602011610ccc575b81610caf602093836115e9565b81010312610cc857610cc361065191611621565b61063c565b8480fd5b3d9150610ca2565b8280fd5b50346101aa57806003193601126101aa576020600554604051908152f35b50346101aa57806003193601126101aa57610d0f611a17565b80546001600160a01b03198116825581906001600160a01b03167f8be0079c531659141344cd1fd0a4f28419497f9722a3daafe3b4186f6b6457e08280a380f35b50346101aa57806003193601126101aa5760ff6020915460a01c166040519015158152f35b50346101aa57806003193601126101aa57602060405160148152f35b50346101aa57806003193601126101aa5760206040516302faf0808152f35b50346101aa5760603660031901126101aa57602435600435604435610dd3611a40565b610ddb611a60565b6201518042048085526006602052610df78460408720546115c6565b906005548083116113a9575085526006602052604085205560018060a01b036004541660405163319a11df60e11b8152602081600481855afa8015610c0e57869061136e575b610e5291506001600160a01b03163314611635565b8185526007602052610e6b60ff60408720541615611677565b83151580611360575b610e7d906116c3565b6003546040516395ea571760e01b815260048101859052908690829060249082906001600160a01b03165afa908115610c0e578691611346575b50610ec760808201511515611817565b610ed76040820151861015611858565b604051638c639a8560e01b8152602081600481865afa908115610ab6578791611314575b50610f096014821115611895565b60405163c5f956af60e01b815292602084600481845afa9384156112c85788946112d3575b50600490602090610f496001600160a01b03871615156118d0565b60405163319a11df60e11b815292839182905afa9081156112c857889161128a575b506001600160a01b0316801561125357606491610f8c610fa9923314611635565b858952600760205260408920805460ff19166001179055876119c4565b04610fb481876119d7565b9160018060a01b0360025416936040516370a0823160e01b8152306004820152602081602481895afa908115610a75578a9161121d575b50610ff684866115c6565b116111c6576110158460208594019660018060a01b0388511690611a82565b81151591826111a9575b505060035484516001600160a01b03918216918a9116823b15610825576040516370e3d45560e11b81526001600160a01b0391909116600482015260248101869052918290604490829084905af1801561119e5761118a575b50611130575b60035487906001600160a01b0316803b15610825578180916024604051809481936313a7dd1d60e01b83528d60048401525af1801561081a57611117575b5050915160408051338152602081019790975286019290925260608501524260808501526001600160a01b0316927fdaec0156f045fe9bffcc686bd77361f536743020f757603c9f1888937cdfc5219060a090a46001805580f35b81611121916115e9565b61112c5786386110bc565b8680fd5b60035487906001600160a01b0316803b15610825578180916024604051809481936369009a1360e01b83528860048401525af1801561081a57611175575b505061107e565b8161117f916115e9565b61112c57863861116e565b88611197919992996115e9565b9638611078565b6040513d8b823e3d90fd5b6002546111bf92906001600160a01b0316611a82565b388261101f565b60405162461bcd60e51b815260206004820152602960248201527f496e73756666696369656e7420636f6e74726163742062616c616e636520666f6044820152681c881c185e5b595b9d60ba1b6064820152608490fd5b90506020813d60201161124b575b81611238602093836115e9565b81010312611247575138610feb565b8980fd5b3d915061122b565b60405162461bcd60e51b815260206004820152600f60248201526e125b9d985b1a59081c185e5b595b9d608a1b6044820152606490fd5b90506020813d6020116112c0575b816112a5602093836115e9565b810103126112bc576112b690611621565b38610f6b565b8780fd5b3d9150611298565b6040513d8a823e3d90fd5b9093506020813d60201161130c575b816112ef602093836115e9565b810103126112bc576020611304600492611621565b949150610f2e565b3d91506112e2565b90506020813d60201161133e575b8161132f602093836115e9565b8101031261112c575138610efb565b3d9150611322565b61135a91503d8088833e610a6781836115e9565b38610eb7565b506302faf080841115610e74565b506020813d6020116113a1575b81611388602093836115e9565b81010312610c025761139c610e5291611621565b610e3d565b3d915061137b565b7fef6aa729d47e0c1661366cdf3d3e7bc905d9ef1ff95f7b5a9da45090f6ca88f3906040888894815260066020522054906113fc6040519283923396846040919493926060820195825260208201520152565b0390a260405162461bcd60e51b815260206004820152601f60248201527f4461696c79207769746864726177616c206c696d6974206578636565646564006044820152606490fd5b50346101aa57806003193601126101aa5761145d611a17565b805460ff8160a01c16156114a35760ff60a01b191681556040513381527f5db9ee0a495bf2e6ff9c91a7834c1ba4fdd244a5e8aa4e537bd38aeae4b073aa90602090a180f35b638dfc202b60e01b8252600482fd5b50346101aa57806003193601126101aa57602060ff60025460a01c16604051908152f35b50346101aa5760203660031901126101aa5760406020916004358152600683522054604051908152f35b50346101aa57806003193601126101aa576002546040516001600160a01b039091168152602090f35b50346101aa57806003193601126101aa576003546040516001600160a01b039091168152602090f35b50346101aa5760203660031901126101aa5760043561156f611a17565b801561157b5760055580f35b60405162461bcd60e51b815260206004820152600d60248201526c125b9d985b1a59081b1a5b5a5d609a1b6044820152606490fd5b600435906001600160a01b038216820361035d57565b919082018092116115d357565b634e487b7160e01b600052601160045260246000fd5b90601f8019910116810190811067ffffffffffffffff82111761160b57604052565b634e487b7160e01b600052604160045260246000fd5b51906001600160a01b038216820361035d57565b1561163c57565b60405162461bcd60e51b81526020600482015260136024820152724e6f74207061796d656e74206164647265737360681b6044820152606490fd5b1561167e57565b60405162461bcd60e51b815260206004820152601960248201527f566f756368657220616c72656164792070726f636573736564000000000000006044820152606490fd5b156116ca57565b60405162461bcd60e51b815260206004820152600e60248201526d125b9d985b1a5908185b5bdd5b9d60921b6044820152606490fd5b60208183031261035d5780519067ffffffffffffffff821161035d570160e08183031261035d576040519160e0830183811067ffffffffffffffff82111761160b576040528151835261175560208301611621565b602084015260408201516040840152606082015167ffffffffffffffff811161035d57820181601f8201121561035d5780519067ffffffffffffffff821161160b57604051926117af601f8401601f1916602001856115e9565b8284526020838301011161035d5760005b8281106118025750506020600091830101526060830152608081015190811515820361035d5760c091608084015260a081015160a0840152015160c082015290565b806020809284010151828287010152016117c0565b1561181e57565b60405162461bcd60e51b81526020600482015260126024820152714e6574776f726b206e6f742061637469766560701b6044820152606490fd5b1561185f57565b60405162461bcd60e51b815260206004820152600e60248201526d416d6f756e7420746f6f206c6f7760901b6044820152606490fd5b1561189c57565b60405162461bcd60e51b815260206004820152600c60248201526b08ccaca40e8dede40d0d2ced60a31b6044820152606490fd5b156118d757565b60405162461bcd60e51b815260206004820152601060248201526f496e76616c696420747265617375727960801b6044820152606490fd5b919081101561191f576060020190565b634e487b7160e01b600052603260045260246000fd5b60608136031261035d5760405190606082019082821067ffffffffffffffff83111761160b57604091825280358352602081013560208401520135604082015290565b1561197f57565b60405162461bcd60e51b815260206004820152601d60248201527f496e73756666696369656e7420636f6e74726163742062616c616e63650000006044820152606490fd5b818102929181159184041417156115d357565b919082039182116115d357565b62015180420460009081526006602052604090205460055490818110611a0b575050600090565b611a14916119d7565b90565b6000546001600160a01b03163303611a2b57565b63118cdaa760e01b6000523360045260246000fd5b60ff60005460a01c16611a4f57565b63d93c066560e01b60005260046000fd5b600260015414611a71576002600155565b633ee5aeb560e01b60005260046000fd5b60405163a9059cbb60e01b60208083019182526001600160a01b039490941660248301526044808301959095529381529092600091611ac26064826115e9565b519082855af115611b14576000513d611b0b57506001600160a01b0381163b155b611aea5750565b635274afe760e01b60009081526001600160a01b0391909116600452602490fd5b60011415611ae3565b6040513d6000823e3d90fdfea2646970667358221220444aace8aea35e832a8f338747915d135096031eb45a418812052fd54c61333764736f6c634300081c0033",
  "linkReferences": {},
  "deployedLinkReferences": {}
}