{
  "_format": "hh-sol-artifact-1",
  "contractName": "ZaaNetPayment",
  "sourceName": "contracts/ZaaNetPayment.sol",
  "abi": [
    {
      "inputs": [
        {
          "internalType": "address",
          "name": "_usdt",
          "type": "address"
        },
        {
          "internalType": "address",
          "name": "_storageContract",
          "type": "address"
        },
        {
          "internalType": "address",
          "name": "_adminContract",
          "type": "address"
        }
      ],
      "stateMutability": "nonpayable",
      "type": "constructor"
    },
    {
      "inputs": [],
      "name": "EnforcedPause",
      "type": "error"
    },
    {
      "inputs": [],
      "name": "ExpectedPause",
      "type": "error"
    },
    {
      "anonymous": false,
      "inputs": [
        {
          "indexed": false,
          "internalType": "address",
          "name": "account",
          "type": "address"
        }
      ],
      "name": "Paused",
      "type": "event"
    },
    {
      "anonymous": false,
      "inputs": [
        {
          "indexed": true,
          "internalType": "uint256",
          "name": "sessionId",
          "type": "uint256"
        },
        {
          "indexed": true,
          "internalType": "uint256",
          "name": "networkId",
          "type": "uint256"
        },
        {
          "indexed": true,
          "internalType": "address",
          "name": "guest",
          "type": "address"
        },
        {
          "indexed": false,
          "internalType": "uint256",
          "name": "amount",
          "type": "uint256"
        },
        {
          "indexed": false,
          "internalType": "uint256",
          "name": "platformFee",
          "type": "uint256"
        }
      ],
      "name": "PaymentReceived",
      "type": "event"
    },
    {
      "anonymous": false,
      "inputs": [
        {
          "indexed": true,
          "internalType": "uint256",
          "name": "sessionId",
          "type": "uint256"
        },
        {
          "indexed": true,
          "internalType": "uint256",
          "name": "networkId",
          "type": "uint256"
        },
        {
          "indexed": true,
          "internalType": "address",
          "name": "guest",
          "type": "address"
        },
        {
          "indexed": false,
          "internalType": "uint256",
          "name": "duration",
          "type": "uint256"
        },
        {
          "indexed": false,
          "internalType": "uint256",
          "name": "amount",
          "type": "uint256"
        },
        {
          "indexed": false,
          "internalType": "bool",
          "name": "active",
          "type": "bool"
        }
      ],
      "name": "SessionStarted",
      "type": "event"
    },
    {
      "anonymous": false,
      "inputs": [
        {
          "indexed": false,
          "internalType": "address",
          "name": "account",
          "type": "address"
        }
      ],
      "name": "Unpaused",
      "type": "event"
    },
    {
      "inputs": [
        {
          "internalType": "uint256",
          "name": "_networkId",
          "type": "uint256"
        },
        {
          "internalType": "uint256",
          "name": "_amount",
          "type": "uint256"
        },
        {
          "internalType": "uint256",
          "name": "_duration",
          "type": "uint256"
        }
      ],
      "name": "acceptPayment",
      "outputs": [],
      "stateMutability": "nonpayable",
      "type": "function"
    },
    {
      "inputs": [],
      "name": "adminContract",
      "outputs": [
        {
          "internalType": "contract ZaaNetAdmin",
          "name": "",
          "type": "address"
        }
      ],
      "stateMutability": "view",
      "type": "function"
    },
    {
      "inputs": [
        {
          "internalType": "uint256",
          "name": "_sessionId",
          "type": "uint256"
        }
      ],
      "name": "getSession",
      "outputs": [
        {
          "components": [
            {
              "internalType": "uint256",
              "name": "sessionId",
              "type": "uint256"
            },
            {
              "internalType": "uint256",
              "name": "networkId",
              "type": "uint256"
            },
            {
              "internalType": "address",
              "name": "guest",
              "type": "address"
            },
            {
              "internalType": "uint256",
              "name": "duration",
              "type": "uint256"
            },
            {
              "internalType": "uint256",
              "name": "amount",
              "type": "uint256"
            },
            {
              "internalType": "bool",
              "name": "active",
              "type": "bool"
            }
          ],
          "internalType": "struct ZaaNetStorage.Session",
          "name": "",
          "type": "tuple"
        }
      ],
      "stateMutability": "view",
      "type": "function"
    },
    {
      "inputs": [],
      "name": "paused",
      "outputs": [
        {
          "internalType": "bool",
          "name": "",
          "type": "bool"
        }
      ],
      "stateMutability": "view",
      "type": "function"
    },
    {
      "inputs": [],
      "name": "storageContract",
      "outputs": [
        {
          "internalType": "contract ZaaNetStorage",
          "name": "",
          "type": "address"
        }
      ],
      "stateMutability": "view",
      "type": "function"
    },
    {
      "inputs": [],
      "name": "usdt",
      "outputs": [
        {
          "internalType": "contract TestUSDT",
          "name": "",
          "type": "address"
        }
      ],
      "stateMutability": "view",
      "type": "function"
    }
  ],
  "bytecode": "0x608060405234801561001057600080fd5b5060405161189f38038061189f83398181016040528101906100329190610160565b82600060016101000a81548173ffffffffffffffffffffffffffffffffffffffff021916908373ffffffffffffffffffffffffffffffffffffffff16021790555081600160006101000a81548173ffffffffffffffffffffffffffffffffffffffff021916908373ffffffffffffffffffffffffffffffffffffffff16021790555080600260006101000a81548173ffffffffffffffffffffffffffffffffffffffff021916908373ffffffffffffffffffffffffffffffffffffffff1602179055505050506101b3565b600080fd5b600073ffffffffffffffffffffffffffffffffffffffff82169050919050565b600061012d82610102565b9050919050565b61013d81610122565b811461014857600080fd5b50565b60008151905061015a81610134565b92915050565b600080600060608486031215610179576101786100fd565b5b60006101878682870161014b565b93505060206101988682870161014b565b92505060406101a98682870161014b565b9150509250925092565b6116dd806101c26000396000f3fe608060405234801561001057600080fd5b50600436106100625760003560e01c806311ce0267146100675780632f48ab7d14610085578063402ff0db146100a35780635c975abb146100d3578063abc89596146100f1578063c05c5e941461010d575b600080fd5b61006f61012b565b60405161007c9190610b24565b60405180910390f35b61008d610151565b60405161009a9190610b60565b60405180910390f35b6100bd60048036038101906100b89190610bc5565b610177565b6040516100ca9190610cb8565b60405180910390f35b6100db610222565b6040516100e89190610ce2565b60405180910390f35b61010b60048036038101906101069190610cfd565b610238565b005b6101156109f0565b6040516101229190610d71565b60405180910390f35b600160009054906101000a900473ffffffffffffffffffffffffffffffffffffffff1681565b600060019054906101000a900473ffffffffffffffffffffffffffffffffffffffff1681565b61017f610a57565b600160009054906101000a900473ffffffffffffffffffffffffffffffffffffffff1673ffffffffffffffffffffffffffffffffffffffff1663402ff0db836040518263ffffffff1660e01b81526004016101da9190610d9b565b60c060405180830381865afa1580156101f7573d6000803e3d6000fd5b505050506040513d601f19601f8201168201806040525081019061021b9190610f59565b9050919050565b60008060009054906101000a900460ff16905090565b610240610a16565b6000600160009054906101000a900473ffffffffffffffffffffffffffffffffffffffff1673ffffffffffffffffffffffffffffffffffffffff166395ea5717856040518263ffffffff1660e01b815260040161029d9190610d9b565b600060405180830381865afa1580156102ba573d6000803e3d6000fd5b505050506040513d6000823e3d601f19601f820116820180604052508101906102e39190611141565b905060008160000151141580156102fb575080608001515b61033a576040517f08c379a0000000000000000000000000000000000000000000000000000000008152600401610331906111e7565b60405180910390fd5b60008211801561034b575060188211155b61038a576040517f08c379a000000000000000000000000000000000000000000000000000000000815260040161038190611253565b60405180910390fd5b600083116103cd576040517f08c379a00000000000000000000000000000000000000000000000000000000081526004016103c4906112bf565b60405180910390fd5b60008282604001516103df919061130e565b9050808414610423576040517f08c379a000000000000000000000000000000000000000000000000000000000815260040161041a9061139c565b60405180910390fd5b6000600260009054906101000a900473ffffffffffffffffffffffffffffffffffffffff1673ffffffffffffffffffffffffffffffffffffffff16638c639a856040518163ffffffff1660e01b8152600401602060405180830381865afa158015610492573d6000803e3d6000fd5b505050506040513d601f19601f820116820180604052508101906104b691906113bc565b90506000600260009054906101000a900473ffffffffffffffffffffffffffffffffffffffff1673ffffffffffffffffffffffffffffffffffffffff166361d027b36040518163ffffffff1660e01b8152600401602060405180830381865afa158015610527573d6000803e3d6000fd5b505050506040513d601f19601f8201168201806040525081019061054b91906113e9565b905060006064838861055d919061130e565b6105679190611445565b9050600081886105779190611476565b9050600060019054906101000a900473ffffffffffffffffffffffffffffffffffffffff1673ffffffffffffffffffffffffffffffffffffffff166323b872dd3385856040518463ffffffff1660e01b81526004016105d8939291906114b9565b6020604051808303816000875af11580156105f7573d6000803e3d6000fd5b505050506040513d601f19601f8201168201806040525081019061061b91906114f0565b61065a576040517f08c379a000000000000000000000000000000000000000000000000000000000815260040161065190611569565b60405180910390fd5b600060019054906101000a900473ffffffffffffffffffffffffffffffffffffffff1673ffffffffffffffffffffffffffffffffffffffff166323b872dd338860200151846040518463ffffffff1660e01b81526004016106bd939291906114b9565b6020604051808303816000875af11580156106dc573d6000803e3d6000fd5b505050506040513d601f19601f8201168201806040525081019061070091906114f0565b61073f576040517f08c379a0000000000000000000000000000000000000000000000000000000008152600401610736906115d5565b60405180910390fd5b600160009054906101000a900473ffffffffffffffffffffffffffffffffffffffff1673ffffffffffffffffffffffffffffffffffffffff1663e1c7a8aa8760200151836040518363ffffffff1660e01b81526004016107a09291906115f5565b600060405180830381600087803b1580156107ba57600080fd5b505af11580156107ce573d6000803e3d6000fd5b505050506000600160009054906101000a900473ffffffffffffffffffffffffffffffffffffffff1673ffffffffffffffffffffffffffffffffffffffff1663cc5076416040518163ffffffff1660e01b81526004016020604051808303816000875af1158015610843573d6000803e3d6000fd5b505050506040513d601f19601f8201168201806040525081019061086791906113bc565b9050600160009054906101000a900473ffffffffffffffffffffffffffffffffffffffff1673ffffffffffffffffffffffffffffffffffffffff166339fdf71e826040518060c001604052808581526020018e81526020013373ffffffffffffffffffffffffffffffffffffffff1681526020018c81526020018d8152602001600115158152506040518363ffffffff1660e01b815260040161090b92919061161e565b600060405180830381600087803b15801561092557600080fd5b505af1158015610939573d6000803e3d6000fd5b505050503373ffffffffffffffffffffffffffffffffffffffff168a827f9330e4a56aa3e3523f115be50c0e981e6820893e9c69af81b3df11f354c755808b8d600160405161098a93929190611647565b60405180910390a43373ffffffffffffffffffffffffffffffffffffffff168a827f5cd7214f6a35088a9d01c8364579ef0efbf9eab3a80310601fbaef534bbb69af8c876040516109dc92919061167e565b60405180910390a450505050505050505050565b600260009054906101000a900473ffffffffffffffffffffffffffffffffffffffff1681565b610a1e610222565b15610a55576040517fd93c066500000000000000000000000000000000000000000000000000000000815260040160405180910390fd5b565b6040518060c001604052806000815260200160008152602001600073ffffffffffffffffffffffffffffffffffffffff16815260200160008152602001600081526020016000151581525090565b600073ffffffffffffffffffffffffffffffffffffffff82169050919050565b6000819050919050565b6000610aea610ae5610ae084610aa5565b610ac5565b610aa5565b9050919050565b6000610afc82610acf565b9050919050565b6000610b0e82610af1565b9050919050565b610b1e81610b03565b82525050565b6000602082019050610b396000830184610b15565b92915050565b6000610b4a82610af1565b9050919050565b610b5a81610b3f565b82525050565b6000602082019050610b756000830184610b51565b92915050565b6000604051905090565b600080fd5b600080fd5b6000819050919050565b610ba281610b8f565b8114610bad57600080fd5b50565b600081359050610bbf81610b99565b92915050565b600060208284031215610bdb57610bda610b85565b5b6000610be984828501610bb0565b91505092915050565b610bfb81610b8f565b82525050565b6000610c0c82610aa5565b9050919050565b610c1c81610c01565b82525050565b60008115159050919050565b610c3781610c22565b82525050565b60c082016000820151610c536000850182610bf2565b506020820151610c666020850182610bf2565b506040820151610c796040850182610c13565b506060820151610c8c6060850182610bf2565b506080820151610c9f6080850182610bf2565b5060a0820151610cb260a0850182610c2e565b50505050565b600060c082019050610ccd6000830184610c3d565b92915050565b610cdc81610c22565b82525050565b6000602082019050610cf76000830184610cd3565b92915050565b600080600060608486031215610d1657610d15610b85565b5b6000610d2486828701610bb0565b9350506020610d3586828701610bb0565b9250506040610d4686828701610bb0565b9150509250925092565b6000610d5b82610af1565b9050919050565b610d6b81610d50565b82525050565b6000602082019050610d866000830184610d62565b92915050565b610d9581610b8f565b82525050565b6000602082019050610db06000830184610d8c565b92915050565b600080fd5b6000601f19601f8301169050919050565b7f4e487b7100000000000000000000000000000000000000000000000000000000600052604160045260246000fd5b610e0482610dbb565b810181811067ffffffffffffffff82111715610e2357610e22610dcc565b5b80604052505050565b6000610e36610b7b565b9050610e428282610dfb565b919050565b600080fd5b600081519050610e5b81610b99565b92915050565b610e6a81610c01565b8114610e7557600080fd5b50565b600081519050610e8781610e61565b92915050565b610e9681610c22565b8114610ea157600080fd5b50565b600081519050610eb381610e8d565b92915050565b600060c08284031215610ecf57610ece610db6565b5b610ed960c0610e2c565b90506000610ee984828501610e4c565b6000830152506020610efd84828501610e4c565b6020830152506040610f1184828501610e78565b6040830152506060610f2584828501610e4c565b6060830152506080610f3984828501610e4c565b60808301525060a0610f4d84828501610ea4565b60a08301525092915050565b600060c08284031215610f6f57610f6e610b85565b5b6000610f7d84828501610eb9565b91505092915050565b600080fd5b600080fd5b600067ffffffffffffffff821115610fab57610faa610dcc565b5b610fb482610dbb565b9050602081019050919050565b60005b83811015610fdf578082015181840152602081019050610fc4565b60008484015250505050565b6000610ffe610ff984610f90565b610e2c565b90508281526020810184848401111561101a57611019610f8b565b5b611025848285610fc1565b509392505050565b600082601f83011261104257611041610f86565b5b8151611052848260208601610feb565b91505092915050565b6000610100828403121561107257611071610db6565b5b61107d610100610e2c565b9050600061108d84828501610e4c565b60008301525060206110a184828501610e78565b60208301525060406110b584828501610e4c565b604083015250606082015167ffffffffffffffff8111156110d9576110d8610e47565b5b6110e58482850161102d565b60608301525060806110f984828501610ea4565b60808301525060a061110d84828501610e4c565b60a08301525060c061112184828501610e4c565b60c08301525060e061113584828501610e4c565b60e08301525092915050565b60006020828403121561115757611156610b85565b5b600082015167ffffffffffffffff81111561117557611174610b8a565b5b6111818482850161105b565b91505092915050565b600082825260208201905092915050565b7f496e76616c6964206f7220696e616374697665206e6574776f726b0000000000600082015250565b60006111d1601b8361118a565b91506111dc8261119b565b602082019050919050565b60006020820190508181036000830152611200816111c4565b9050919050565b7f4475726174696f6e206d75737420626520312d323420686f7572730000000000600082015250565b600061123d601b8361118a565b915061124882611207565b602082019050919050565b6000602082019050818103600083015261126c81611230565b9050919050565b7f416d6f756e74206d757374206265203e20300000000000000000000000000000600082015250565b60006112a960128361118a565b91506112b482611273565b602082019050919050565b600060208201905081810360008301526112d88161129c565b9050919050565b7f4e487b7100000000000000000000000000000000000000000000000000000000600052601160045260246000fd5b600061131982610b8f565b915061132483610b8f565b925082820261133281610b8f565b91508282048414831517611349576113486112df565b5b5092915050565b7f496e636f7272656374207061796d656e7420616d6f756e740000000000000000600082015250565b600061138660188361118a565b915061139182611350565b602082019050919050565b600060208201905081810360008301526113b581611379565b9050919050565b6000602082840312156113d2576113d1610b85565b5b60006113e084828501610e4c565b91505092915050565b6000602082840312156113ff576113fe610b85565b5b600061140d84828501610e78565b91505092915050565b7f4e487b7100000000000000000000000000000000000000000000000000000000600052601260045260246000fd5b600061145082610b8f565b915061145b83610b8f565b92508261146b5761146a611416565b5b828204905092915050565b600061148182610b8f565b915061148c83610b8f565b92508282039050818111156114a4576114a36112df565b5b92915050565b6114b381610c01565b82525050565b60006060820190506114ce60008301866114aa565b6114db60208301856114aa565b6114e86040830184610d8c565b949350505050565b60006020828403121561150657611505610b85565b5b600061151484828501610ea4565b91505092915050565b7f466565207472616e73666572206661696c656400000000000000000000000000600082015250565b600061155360138361118a565b915061155e8261151d565b602082019050919050565b6000602082019050818103600083015261158281611546565b9050919050565b7f486f7374207472616e73666572206661696c6564000000000000000000000000600082015250565b60006115bf60148361118a565b91506115ca82611589565b602082019050919050565b600060208201905081810360008301526115ee816115b2565b9050919050565b600060408201905061160a60008301856114aa565b6116176020830184610d8c565b9392505050565b600060e0820190506116336000830185610d8c565b6116406020830184610c3d565b9392505050565b600060608201905061165c6000830186610d8c565b6116696020830185610d8c565b6116766040830184610cd3565b949350505050565b60006040820190506116936000830185610d8c565b6116a06020830184610d8c565b939250505056fea2646970667358221220b1bce27545508cb57b0e2d20aa223474c19833bb913f81ee198b8d23a639174c64736f6c634300081c0033",
  "linkReferences": {},
  "deployedLinkReferences": {}
}