{
  "_format": "hh-sol-artifact-1",
  "contractName": "ZaaNetPayment",
  "sourceName": "contracts/ZaaNetPayment.sol",
  "abi": [
    {
      "inputs": [
        {
          "internalType": "address",
          "name": "_usdt",
          "type": "address"
        },
        {
          "internalType": "address",
          "name": "_storageContract",
          "type": "address"
        },
        {
          "internalType": "address",
          "name": "_adminContract",
          "type": "address"
        }
      ],
      "stateMutability": "nonpayable",
      "type": "constructor"
    },
    {
      "inputs": [],
      "name": "EnforcedPause",
      "type": "error"
    },
    {
      "inputs": [],
      "name": "ExpectedPause",
      "type": "error"
    },
    {
      "anonymous": false,
      "inputs": [
        {
          "indexed": false,
          "internalType": "address",
          "name": "account",
          "type": "address"
        }
      ],
      "name": "Paused",
      "type": "event"
    },
    {
      "anonymous": false,
      "inputs": [
        {
          "indexed": true,
          "internalType": "uint256",
          "name": "sessionId",
          "type": "uint256"
        },
        {
          "indexed": true,
          "internalType": "uint256",
          "name": "networkId",
          "type": "uint256"
        },
        {
          "indexed": true,
          "internalType": "address",
          "name": "guest",
          "type": "address"
        },
        {
          "indexed": false,
          "internalType": "uint256",
          "name": "amount",
          "type": "uint256"
        },
        {
          "indexed": false,
          "internalType": "uint256",
          "name": "platformFee",
          "type": "uint256"
        }
      ],
      "name": "PaymentReceived",
      "type": "event"
    },
    {
      "anonymous": false,
      "inputs": [
        {
          "indexed": true,
          "internalType": "uint256",
          "name": "sessionId",
          "type": "uint256"
        },
        {
          "indexed": true,
          "internalType": "uint256",
          "name": "networkId",
          "type": "uint256"
        },
        {
          "indexed": true,
          "internalType": "address",
          "name": "guest",
          "type": "address"
        },
        {
          "indexed": false,
          "internalType": "uint256",
          "name": "duration",
          "type": "uint256"
        },
        {
          "indexed": false,
          "internalType": "uint256",
          "name": "amount",
          "type": "uint256"
        },
        {
          "indexed": false,
          "internalType": "bool",
          "name": "active",
          "type": "bool"
        }
      ],
      "name": "SessionStarted",
      "type": "event"
    },
    {
      "anonymous": false,
      "inputs": [
        {
          "indexed": false,
          "internalType": "address",
          "name": "account",
          "type": "address"
        }
      ],
      "name": "Unpaused",
      "type": "event"
    },
    {
      "inputs": [
        {
          "internalType": "uint256",
          "name": "_networkId",
          "type": "uint256"
        },
        {
          "internalType": "uint256",
          "name": "_amount",
          "type": "uint256"
        },
        {
          "internalType": "uint256",
          "name": "_duration",
          "type": "uint256"
        }
      ],
      "name": "acceptPayment",
      "outputs": [],
      "stateMutability": "nonpayable",
      "type": "function"
    },
    {
      "inputs": [],
      "name": "adminContract",
      "outputs": [
        {
          "internalType": "contract ZaaNetAdmin",
          "name": "",
          "type": "address"
        }
      ],
      "stateMutability": "view",
      "type": "function"
    },
    {
      "inputs": [
        {
          "internalType": "uint256",
          "name": "_sessionId",
          "type": "uint256"
        }
      ],
      "name": "getSession",
      "outputs": [
        {
          "components": [
            {
              "internalType": "uint256",
              "name": "sessionId",
              "type": "uint256"
            },
            {
              "internalType": "uint256",
              "name": "networkId",
              "type": "uint256"
            },
            {
              "internalType": "address",
              "name": "guest",
              "type": "address"
            },
            {
              "internalType": "uint256",
              "name": "duration",
              "type": "uint256"
            },
            {
              "internalType": "uint256",
              "name": "amount",
              "type": "uint256"
            },
            {
              "internalType": "bool",
              "name": "active",
              "type": "bool"
            }
          ],
          "internalType": "struct ZaaNetStorage.Session",
          "name": "",
          "type": "tuple"
        }
      ],
      "stateMutability": "view",
      "type": "function"
    },
    {
      "inputs": [],
      "name": "paused",
      "outputs": [
        {
          "internalType": "bool",
          "name": "",
          "type": "bool"
        }
      ],
      "stateMutability": "view",
      "type": "function"
    },
    {
      "inputs": [],
      "name": "storageContract",
      "outputs": [
        {
          "internalType": "contract ZaaNetStorage",
          "name": "",
          "type": "address"
        }
      ],
      "stateMutability": "view",
      "type": "function"
    },
    {
      "inputs": [],
      "name": "usdt",
      "outputs": [
        {
          "internalType": "contract TestUSDT",
          "name": "",
          "type": "address"
        }
      ],
      "stateMutability": "view",
      "type": "function"
    }
  ],
  "bytecode": "0x608060405234801561001057600080fd5b5060405161167838038061167883398181016040528101906100329190610160565b82600060016101000a81548173ffffffffffffffffffffffffffffffffffffffff021916908373ffffffffffffffffffffffffffffffffffffffff16021790555081600160006101000a81548173ffffffffffffffffffffffffffffffffffffffff021916908373ffffffffffffffffffffffffffffffffffffffff16021790555080600260006101000a81548173ffffffffffffffffffffffffffffffffffffffff021916908373ffffffffffffffffffffffffffffffffffffffff1602179055505050506101b3565b600080fd5b600073ffffffffffffffffffffffffffffffffffffffff82169050919050565b600061012d82610102565b9050919050565b61013d81610122565b811461014857600080fd5b50565b60008151905061015a81610134565b92915050565b600080600060608486031215610179576101786100fd565b5b60006101878682870161014b565b93505060206101988682870161014b565b92505060406101a98682870161014b565b9150509250925092565b6114b6806101c26000396000f3fe608060405234801561001057600080fd5b50600436106100625760003560e01c806311ce0267146100675780632f48ab7d14610085578063402ff0db146100a35780635c975abb146100d3578063abc89596146100f1578063c05c5e941461010d575b600080fd5b61006f61012b565b60405161007c91906109f3565b60405180910390f35b61008d610151565b60405161009a9190610a2f565b60405180910390f35b6100bd60048036038101906100b89190610a94565b610177565b6040516100ca9190610b87565b60405180910390f35b6100db610184565b6040516100e89190610bb1565b60405180910390f35b61010b60048036038101906101069190610bcc565b61019a565b005b6101156108bf565b6040516101229190610c40565b60405180910390f35b600160009054906101000a900473ffffffffffffffffffffffffffffffffffffffff1681565b600060019054906101000a900473ffffffffffffffffffffffffffffffffffffffff1681565b61017f610926565b919050565b60008060009054906101000a900460ff16905090565b6101a26108e5565b6000600160009054906101000a900473ffffffffffffffffffffffffffffffffffffffff1673ffffffffffffffffffffffffffffffffffffffff166395ea5717856040518263ffffffff1660e01b81526004016101ff9190610c6a565b600060405180830381865afa15801561021c573d6000803e3d6000fd5b505050506040513d6000823e3d601f19601f820116820180604052508101906102459190610f43565b9050600081600001511415801561025d575080608001515b61029c576040517f08c379a000000000000000000000000000000000000000000000000000000000815260040161029390610fe9565b60405180910390fd5b6000821180156102ad575060188211155b6102ec576040517f08c379a00000000000000000000000000000000000000000000000000000000081526004016102e390611055565b60405180910390fd5b6000831161032f576040517f08c379a0000000000000000000000000000000000000000000000000000000008152600401610326906110c1565b60405180910390fd5b60008282604001516103419190611110565b9050808414610385576040517f08c379a000000000000000000000000000000000000000000000000000000000815260040161037c9061119e565b60405180910390fd5b6000600260009054906101000a900473ffffffffffffffffffffffffffffffffffffffff1673ffffffffffffffffffffffffffffffffffffffff16638c639a856040518163ffffffff1660e01b8152600401602060405180830381865afa1580156103f4573d6000803e3d6000fd5b505050506040513d601f19601f8201168201806040525081019061041891906111be565b90506000600260009054906101000a900473ffffffffffffffffffffffffffffffffffffffff1673ffffffffffffffffffffffffffffffffffffffff166361d027b36040518163ffffffff1660e01b8152600401602060405180830381865afa158015610489573d6000803e3d6000fd5b505050506040513d601f19601f820116820180604052508101906104ad91906111eb565b90506000606483886104bf9190611110565b6104c99190611247565b9050600081886104d99190611278565b9050600060019054906101000a900473ffffffffffffffffffffffffffffffffffffffff1673ffffffffffffffffffffffffffffffffffffffff166323b872dd3385856040518463ffffffff1660e01b815260040161053a939291906112bb565b6020604051808303816000875af1158015610559573d6000803e3d6000fd5b505050506040513d601f19601f8201168201806040525081019061057d91906112f2565b6105bc576040517f08c379a00000000000000000000000000000000000000000000000000000000081526004016105b39061136b565b60405180910390fd5b600060019054906101000a900473ffffffffffffffffffffffffffffffffffffffff1673ffffffffffffffffffffffffffffffffffffffff166323b872dd338860200151846040518463ffffffff1660e01b815260040161061f939291906112bb565b6020604051808303816000875af115801561063e573d6000803e3d6000fd5b505050506040513d601f19601f8201168201806040525081019061066291906112f2565b6106a1576040517f08c379a0000000000000000000000000000000000000000000000000000000008152600401610698906113d7565b60405180910390fd5b6000600160009054906101000a900473ffffffffffffffffffffffffffffffffffffffff1673ffffffffffffffffffffffffffffffffffffffff1663cc5076416040518163ffffffff1660e01b81526004016020604051808303816000875af1158015610712573d6000803e3d6000fd5b505050506040513d601f19601f8201168201806040525081019061073691906111be565b9050600160009054906101000a900473ffffffffffffffffffffffffffffffffffffffff1673ffffffffffffffffffffffffffffffffffffffff166339fdf71e826040518060c001604052808581526020018e81526020013373ffffffffffffffffffffffffffffffffffffffff1681526020018c81526020018d8152602001600115158152506040518363ffffffff1660e01b81526004016107da9291906113f7565b600060405180830381600087803b1580156107f457600080fd5b505af1158015610808573d6000803e3d6000fd5b505050503373ffffffffffffffffffffffffffffffffffffffff168a827f9330e4a56aa3e3523f115be50c0e981e6820893e9c69af81b3df11f354c755808b8d600160405161085993929190611420565b60405180910390a43373ffffffffffffffffffffffffffffffffffffffff168a827f5cd7214f6a35088a9d01c8364579ef0efbf9eab3a80310601fbaef534bbb69af8c876040516108ab929190611457565b60405180910390a450505050505050505050565b600260009054906101000a900473ffffffffffffffffffffffffffffffffffffffff1681565b6108ed610184565b15610924576040517fd93c066500000000000000000000000000000000000000000000000000000000815260040160405180910390fd5b565b6040518060c001604052806000815260200160008152602001600073ffffffffffffffffffffffffffffffffffffffff16815260200160008152602001600081526020016000151581525090565b600073ffffffffffffffffffffffffffffffffffffffff82169050919050565b6000819050919050565b60006109b96109b46109af84610974565b610994565b610974565b9050919050565b60006109cb8261099e565b9050919050565b60006109dd826109c0565b9050919050565b6109ed816109d2565b82525050565b6000602082019050610a0860008301846109e4565b92915050565b6000610a19826109c0565b9050919050565b610a2981610a0e565b82525050565b6000602082019050610a446000830184610a20565b92915050565b6000604051905090565b600080fd5b600080fd5b6000819050919050565b610a7181610a5e565b8114610a7c57600080fd5b50565b600081359050610a8e81610a68565b92915050565b600060208284031215610aaa57610aa9610a54565b5b6000610ab884828501610a7f565b91505092915050565b610aca81610a5e565b82525050565b6000610adb82610974565b9050919050565b610aeb81610ad0565b82525050565b60008115159050919050565b610b0681610af1565b82525050565b60c082016000820151610b226000850182610ac1565b506020820151610b356020850182610ac1565b506040820151610b486040850182610ae2565b506060820151610b5b6060850182610ac1565b506080820151610b6e6080850182610ac1565b5060a0820151610b8160a0850182610afd565b50505050565b600060c082019050610b9c6000830184610b0c565b92915050565b610bab81610af1565b82525050565b6000602082019050610bc66000830184610ba2565b92915050565b600080600060608486031215610be557610be4610a54565b5b6000610bf386828701610a7f565b9350506020610c0486828701610a7f565b9250506040610c1586828701610a7f565b9150509250925092565b6000610c2a826109c0565b9050919050565b610c3a81610c1f565b82525050565b6000602082019050610c556000830184610c31565b92915050565b610c6481610a5e565b82525050565b6000602082019050610c7f6000830184610c5b565b92915050565b600080fd5b6000601f19601f8301169050919050565b7f4e487b7100000000000000000000000000000000000000000000000000000000600052604160045260246000fd5b610cd382610c8a565b810181811067ffffffffffffffff82111715610cf257610cf1610c9b565b5b80604052505050565b6000610d05610a4a565b9050610d118282610cca565b919050565b600080fd5b600081519050610d2a81610a68565b92915050565b610d3981610ad0565b8114610d4457600080fd5b50565b600081519050610d5681610d30565b92915050565b600080fd5b600080fd5b600067ffffffffffffffff821115610d8157610d80610c9b565b5b610d8a82610c8a565b9050602081019050919050565b60005b83811015610db5578082015181840152602081019050610d9a565b60008484015250505050565b6000610dd4610dcf84610d66565b610cfb565b905082815260208101848484011115610df057610def610d61565b5b610dfb848285610d97565b509392505050565b600082601f830112610e1857610e17610d5c565b5b8151610e28848260208601610dc1565b91505092915050565b610e3a81610af1565b8114610e4557600080fd5b50565b600081519050610e5781610e31565b92915050565b60006101008284031215610e7457610e73610c85565b5b610e7f610100610cfb565b90506000610e8f84828501610d1b565b6000830152506020610ea384828501610d47565b6020830152506040610eb784828501610d1b565b604083015250606082015167ffffffffffffffff811115610edb57610eda610d16565b5b610ee784828501610e03565b6060830152506080610efb84828501610e48565b60808301525060a0610f0f84828501610d1b565b60a08301525060c0610f2384828501610d1b565b60c08301525060e0610f3784828501610d1b565b60e08301525092915050565b600060208284031215610f5957610f58610a54565b5b600082015167ffffffffffffffff811115610f7757610f76610a59565b5b610f8384828501610e5d565b91505092915050565b600082825260208201905092915050565b7f496e76616c6964206f7220696e616374697665206e6574776f726b0000000000600082015250565b6000610fd3601b83610f8c565b9150610fde82610f9d565b602082019050919050565b6000602082019050818103600083015261100281610fc6565b9050919050565b7f4475726174696f6e206d75737420626520312d323420686f7572730000000000600082015250565b600061103f601b83610f8c565b915061104a82611009565b602082019050919050565b6000602082019050818103600083015261106e81611032565b9050919050565b7f416d6f756e74206d757374206265203e20300000000000000000000000000000600082015250565b60006110ab601283610f8c565b91506110b682611075565b602082019050919050565b600060208201905081810360008301526110da8161109e565b9050919050565b7f4e487b7100000000000000000000000000000000000000000000000000000000600052601160045260246000fd5b600061111b82610a5e565b915061112683610a5e565b925082820261113481610a5e565b9150828204841483151761114b5761114a6110e1565b5b5092915050565b7f496e636f7272656374207061796d656e7420616d6f756e740000000000000000600082015250565b6000611188601883610f8c565b915061119382611152565b602082019050919050565b600060208201905081810360008301526111b78161117b565b9050919050565b6000602082840312156111d4576111d3610a54565b5b60006111e284828501610d1b565b91505092915050565b60006020828403121561120157611200610a54565b5b600061120f84828501610d47565b91505092915050565b7f4e487b7100000000000000000000000000000000000000000000000000000000600052601260045260246000fd5b600061125282610a5e565b915061125d83610a5e565b92508261126d5761126c611218565b5b828204905092915050565b600061128382610a5e565b915061128e83610a5e565b92508282039050818111156112a6576112a56110e1565b5b92915050565b6112b581610ad0565b82525050565b60006060820190506112d060008301866112ac565b6112dd60208301856112ac565b6112ea6040830184610c5b565b949350505050565b60006020828403121561130857611307610a54565b5b600061131684828501610e48565b91505092915050565b7f466565207472616e73666572206661696c656400000000000000000000000000600082015250565b6000611355601383610f8c565b91506113608261131f565b602082019050919050565b6000602082019050818103600083015261138481611348565b9050919050565b7f486f7374207472616e73666572206661696c6564000000000000000000000000600082015250565b60006113c1601483610f8c565b91506113cc8261138b565b602082019050919050565b600060208201905081810360008301526113f0816113b4565b9050919050565b600060e08201905061140c6000830185610c5b565b6114196020830184610b0c565b9392505050565b60006060820190506114356000830186610c5b565b6114426020830185610c5b565b61144f6040830184610ba2565b949350505050565b600060408201905061146c6000830185610c5b565b6114796020830184610c5b565b939250505056fea264697066735822122073a817428dcb8f2d2c5c311a4e35fc821549b4dedd2c3ff44764e1a70d9b0cef64736f6c634300081c0033",
  "linkReferences": {},
  "deployedLinkReferences": {}
}