{
  "_format": "hh-sol-artifact-1",
  "contractName": "ZaaNetNetwork",
  "sourceName": "contracts/ZaaNetNetwork.sol",
  "abi": [
    {
      "inputs": [
        {
          "internalType": "address",
          "name": "_storageContract",
          "type": "address"
        }
      ],
      "stateMutability": "nonpayable",
      "type": "constructor"
    },
    {
      "inputs": [],
      "name": "EnforcedPause",
      "type": "error"
    },
    {
      "inputs": [],
      "name": "ExpectedPause",
      "type": "error"
    },
    {
      "anonymous": false,
      "inputs": [
        {
          "indexed": true,
          "internalType": "uint256",
          "name": "networkId",
          "type": "uint256"
        },
        {
          "indexed": true,
          "internalType": "address",
          "name": "host",
          "type": "address"
        },
        {
          "indexed": false,
          "internalType": "string",
          "name": "metadataCID",
          "type": "string"
        }
      ],
      "name": "NetworkRegistered",
      "type": "event"
    },
    {
      "anonymous": false,
      "inputs": [
        {
          "indexed": true,
          "internalType": "uint256",
          "name": "networkId",
          "type": "uint256"
        },
        {
          "indexed": true,
          "internalType": "address",
          "name": "host",
          "type": "address"
        },
        {
          "indexed": false,
          "internalType": "string",
          "name": "metadataCID",
          "type": "string"
        },
        {
          "indexed": false,
          "internalType": "bool",
          "name": "isActive",
          "type": "bool"
        }
      ],
      "name": "NetworkUpdated",
      "type": "event"
    },
    {
      "anonymous": false,
      "inputs": [
        {
          "indexed": false,
          "internalType": "address",
          "name": "account",
          "type": "address"
        }
      ],
      "name": "Paused",
      "type": "event"
    },
    {
      "anonymous": false,
      "inputs": [
        {
          "indexed": false,
          "internalType": "address",
          "name": "account",
          "type": "address"
        }
      ],
      "name": "Unpaused",
      "type": "event"
    },
    {
      "inputs": [
        {
          "internalType": "uint256",
          "name": "networkId",
          "type": "uint256"
        }
      ],
      "name": "getAverageRating",
      "outputs": [
        {
          "internalType": "uint256",
          "name": "",
          "type": "uint256"
        }
      ],
      "stateMutability": "view",
      "type": "function"
    },
    {
      "inputs": [
        {
          "internalType": "uint256",
          "name": "_networkId",
          "type": "uint256"
        }
      ],
      "name": "getHostedNetworkById",
      "outputs": [
        {
          "components": [
            {
              "internalType": "uint256",
              "name": "id",
              "type": "uint256"
            },
            {
              "internalType": "address",
              "name": "host",
              "type": "address"
            },
            {
              "internalType": "uint256",
              "name": "price",
              "type": "uint256"
            },
            {
              "internalType": "string",
              "name": "metadataCID",
              "type": "string"
            },
            {
              "internalType": "bool",
              "name": "isActive",
              "type": "bool"
            },
            {
              "internalType": "uint256",
              "name": "totalRating",
              "type": "uint256"
            },
            {
              "internalType": "uint256",
              "name": "ratingCount",
              "type": "uint256"
            },
            {
              "internalType": "uint256",
              "name": "successfulSessions",
              "type": "uint256"
            }
          ],
          "internalType": "struct ZaaNetStorage.Network",
          "name": "",
          "type": "tuple"
        }
      ],
      "stateMutability": "view",
      "type": "function"
    },
    {
      "inputs": [],
      "name": "paused",
      "outputs": [
        {
          "internalType": "bool",
          "name": "",
          "type": "bool"
        }
      ],
      "stateMutability": "view",
      "type": "function"
    },
    {
      "inputs": [
        {
          "internalType": "uint256",
          "name": "networkId",
          "type": "uint256"
        },
        {
          "internalType": "uint8",
          "name": "rating",
          "type": "uint8"
        }
      ],
      "name": "rateNetwork",
      "outputs": [],
      "stateMutability": "nonpayable",
      "type": "function"
    },
    {
      "inputs": [
        {
          "internalType": "uint256",
          "name": "_pricePerHour",
          "type": "uint256"
        },
        {
          "internalType": "string",
          "name": "_metadataCID",
          "type": "string"
        },
        {
          "internalType": "bool",
          "name": "_isActive",
          "type": "bool"
        }
      ],
      "name": "registerNetwork",
      "outputs": [],
      "stateMutability": "nonpayable",
      "type": "function"
    },
    {
      "inputs": [],
      "name": "storageContract",
      "outputs": [
        {
          "internalType": "contract ZaaNetStorage",
          "name": "",
          "type": "address"
        }
      ],
      "stateMutability": "view",
      "type": "function"
    },
    {
      "inputs": [
        {
          "internalType": "uint256",
          "name": "_networkId",
          "type": "uint256"
        },
        {
          "internalType": "uint256",
          "name": "_pricePerHour",
          "type": "uint256"
        },
        {
          "internalType": "string",
          "name": "_metadataCID",
          "type": "string"
        },
        {
          "internalType": "bool",
          "name": "_isActive",
          "type": "bool"
        }
      ],
      "name": "updateNetwork",
      "outputs": [],
      "stateMutability": "nonpayable",
      "type": "function"
    }
  ],
  "bytecode": "0x608060405234801561001057600080fd5b50604051611b2e380380611b2e833981810160405281019061003291906100dc565b80600060016101000a81548173ffffffffffffffffffffffffffffffffffffffff021916908373ffffffffffffffffffffffffffffffffffffffff16021790555050610109565b600080fd5b600073ffffffffffffffffffffffffffffffffffffffff82169050919050565b60006100a98261007e565b9050919050565b6100b98161009e565b81146100c457600080fd5b50565b6000815190506100d6816100b0565b92915050565b6000602082840312156100f2576100f1610079565b5b6000610100848285016100c7565b91505092915050565b611a16806101186000396000f3fe608060405234801561001057600080fd5b506004361061007d5760003560e01c8063900e41b11161005b578063900e41b1146100ee57806392f010631461010a578063b9a5560314610126578063cd83fb9a146101425761007d565b806311ce02671461008257806317b7e03e146100a05780635c975abb146100d0575b600080fd5b61008a610172565b6040516100979190610d2b565b60405180910390f35b6100ba60048036038101906100b59190610d90565b610198565b6040516100c79190610dcc565b60405180910390f35b6100d861027d565b6040516100e59190610e02565b60405180910390f35b61010860048036038101906101039190610f8f565b610293565b005b610124600480360381019061011f9190610ffe565b6104f0565b005b610140600480360381019061013b91906110ba565b610799565b005b61015c60048036038101906101579190610d90565b610b12565b6040516101699190611268565b60405180910390f35b600060019054906101000a900473ffffffffffffffffffffffffffffffffffffffff1681565b600080600060019054906101000a900473ffffffffffffffffffffffffffffffffffffffff1673ffffffffffffffffffffffffffffffffffffffff166395ea5717846040518263ffffffff1660e01b81526004016101f69190610dcc565b600060405180830381865afa158015610213573d6000803e3d6000fd5b505050506040513d6000823e3d601f19601f8201168201806040525081019061023c9190611440565b905060008160c0015103610254576000915050610278565b8060c0015160648260a0015161026a91906114b8565b6102749190611529565b9150505b919050565b60008060009054906101000a900460ff16905090565b61029b610c0e565b600083116102de576040517f08c379a00000000000000000000000000000000000000000000000000000000081526004016102d5906115b7565b60405180910390fd5b6000825111610322576040517f08c379a000000000000000000000000000000000000000000000000000000000815260040161031990611623565b60405180910390fd5b60008060019054906101000a900473ffffffffffffffffffffffffffffffffffffffff1673ffffffffffffffffffffffffffffffffffffffff16635290ffc66040518163ffffffff1660e01b81526004016020604051808303816000875af1158015610392573d6000803e3d6000fd5b505050506040513d601f19601f820116820180604052508101906103b69190611643565b9050600060019054906101000a900473ffffffffffffffffffffffffffffffffffffffff1673ffffffffffffffffffffffffffffffffffffffff1663584c5469826040518061010001604052808581526020013373ffffffffffffffffffffffffffffffffffffffff1681526020018881526020018781526020018615158152602001600081526020016000815260200160008152506040518363ffffffff1660e01b8152600401610469929190611670565b600060405180830381600087803b15801561048357600080fd5b505af1158015610497573d6000803e3d6000fd5b505050503373ffffffffffffffffffffffffffffffffffffffff16817fac8d319e4ba2a19144062917c8cb50cc9cffb2f0eea3004b86b48c06cc6845c8856040516104e291906116d9565b60405180910390a350505050565b6104f8610c0e565b60008060019054906101000a900473ffffffffffffffffffffffffffffffffffffffff1673ffffffffffffffffffffffffffffffffffffffff166395ea5717866040518263ffffffff1660e01b81526004016105549190610dcc565b600060405180830381865afa158015610571573d6000803e3d6000fd5b505050506040513d6000823e3d601f19601f8201168201806040525081019061059a9190611440565b905060008160000151036105e3576040517f08c379a00000000000000000000000000000000000000000000000000000000081526004016105da90611747565b60405180910390fd5b3373ffffffffffffffffffffffffffffffffffffffff16816020015173ffffffffffffffffffffffffffffffffffffffff1614610655576040517f08c379a000000000000000000000000000000000000000000000000000000000815260040161064c906117b3565b60405180910390fd5b600060019054906101000a900473ffffffffffffffffffffffffffffffffffffffff1673ffffffffffffffffffffffffffffffffffffffff1663584c5469866040518061010001604052808981526020013373ffffffffffffffffffffffffffffffffffffffff16815260200188815260200187815260200186151581526020018560a0015181526020018560c0015181526020018560e001518152506040518363ffffffff1660e01b815260040161070f929190611670565b600060405180830381600087803b15801561072957600080fd5b505af115801561073d573d6000803e3d6000fd5b505050503373ffffffffffffffffffffffffffffffffffffffff16857f50e0ac9a649dda6887adddf8b14c08b54b4f60150f70608a30d3b8b712f149c1858560405161078a9291906117d3565b60405180910390a35050505050565b60018160ff16101580156107b1575060058160ff1611155b6107f0576040517f08c379a00000000000000000000000000000000000000000000000000000000081526004016107e79061184f565b60405180910390fd5b600060019054906101000a900473ffffffffffffffffffffffffffffffffffffffff1673ffffffffffffffffffffffffffffffffffffffff1663d25468b333846040518363ffffffff1660e01b815260040161084d92919061187e565b602060405180830381865afa15801561086a573d6000803e3d6000fd5b505050506040513d601f19601f8201168201806040525081019061088e91906118a7565b156108ce576040517f08c379a00000000000000000000000000000000000000000000000000000000081526004016108c590611920565b60405180910390fd5b60008060019054906101000a900473ffffffffffffffffffffffffffffffffffffffff1673ffffffffffffffffffffffffffffffffffffffff166395ea5717846040518263ffffffff1660e01b815260040161092a9190610dcc565b600060405180830381865afa158015610947573d6000803e3d6000fd5b505050506040513d6000823e3d601f19601f820116820180604052508101906109709190611440565b905060008160000151036109b9576040517f08c379a00000000000000000000000000000000000000000000000000000000081526004016109b09061198c565b60405180910390fd5b8160ff168160a0018181516109ce91906119ac565b9150818152505060018160c0018181516109e891906119ac565b91508181525050600060019054906101000a900473ffffffffffffffffffffffffffffffffffffffff1673ffffffffffffffffffffffffffffffffffffffff1663584c546984836040518363ffffffff1660e01b8152600401610a4c929190611670565b600060405180830381600087803b158015610a6657600080fd5b505af1158015610a7a573d6000803e3d6000fd5b50505050600060019054906101000a900473ffffffffffffffffffffffffffffffffffffffff1673ffffffffffffffffffffffffffffffffffffffff16633bec83e933856040518363ffffffff1660e01b8152600401610adb92919061187e565b600060405180830381600087803b158015610af557600080fd5b505af1158015610b09573d6000803e3d6000fd5b50505050505050565b610b1a610c4f565b60008060019054906101000a900473ffffffffffffffffffffffffffffffffffffffff1673ffffffffffffffffffffffffffffffffffffffff166395ea5717846040518263ffffffff1660e01b8152600401610b769190610dcc565b600060405180830381865afa158015610b93573d6000803e3d6000fd5b505050506040513d6000823e3d601f19601f82011682018060405250810190610bbc9190611440565b90506000816000015103610c05576040517f08c379a0000000000000000000000000000000000000000000000000000000008152600401610bfc90611747565b60405180910390fd5b80915050919050565b610c1661027d565b15610c4d576040517fd93c066500000000000000000000000000000000000000000000000000000000815260040160405180910390fd5b565b60405180610100016040528060008152602001600073ffffffffffffffffffffffffffffffffffffffff16815260200160008152602001606081526020016000151581526020016000815260200160008152602001600081525090565b600073ffffffffffffffffffffffffffffffffffffffff82169050919050565b6000819050919050565b6000610cf1610cec610ce784610cac565b610ccc565b610cac565b9050919050565b6000610d0382610cd6565b9050919050565b6000610d1582610cf8565b9050919050565b610d2581610d0a565b82525050565b6000602082019050610d406000830184610d1c565b92915050565b6000604051905090565b600080fd5b600080fd5b6000819050919050565b610d6d81610d5a565b8114610d7857600080fd5b50565b600081359050610d8a81610d64565b92915050565b600060208284031215610da657610da5610d50565b5b6000610db484828501610d7b565b91505092915050565b610dc681610d5a565b82525050565b6000602082019050610de16000830184610dbd565b92915050565b60008115159050919050565b610dfc81610de7565b82525050565b6000602082019050610e176000830184610df3565b92915050565b600080fd5b600080fd5b6000601f19601f8301169050919050565b7f4e487b7100000000000000000000000000000000000000000000000000000000600052604160045260246000fd5b610e7082610e27565b810181811067ffffffffffffffff82111715610e8f57610e8e610e38565b5b80604052505050565b6000610ea2610d46565b9050610eae8282610e67565b919050565b600067ffffffffffffffff821115610ece57610ecd610e38565b5b610ed782610e27565b9050602081019050919050565b82818337600083830152505050565b6000610f06610f0184610eb3565b610e98565b905082815260208101848484011115610f2257610f21610e22565b5b610f2d848285610ee4565b509392505050565b600082601f830112610f4a57610f49610e1d565b5b8135610f5a848260208601610ef3565b91505092915050565b610f6c81610de7565b8114610f7757600080fd5b50565b600081359050610f8981610f63565b92915050565b600080600060608486031215610fa857610fa7610d50565b5b6000610fb686828701610d7b565b935050602084013567ffffffffffffffff811115610fd757610fd6610d55565b5b610fe386828701610f35565b9250506040610ff486828701610f7a565b9150509250925092565b6000806000806080858703121561101857611017610d50565b5b600061102687828801610d7b565b945050602061103787828801610d7b565b935050604085013567ffffffffffffffff81111561105857611057610d55565b5b61106487828801610f35565b925050606061107587828801610f7a565b91505092959194509250565b600060ff82169050919050565b61109781611081565b81146110a257600080fd5b50565b6000813590506110b48161108e565b92915050565b600080604083850312156110d1576110d0610d50565b5b60006110df85828601610d7b565b92505060206110f0858286016110a5565b9150509250929050565b61110381610d5a565b82525050565b600061111482610cac565b9050919050565b61112481611109565b82525050565b600081519050919050565b600082825260208201905092915050565b60005b83811015611164578082015181840152602081019050611149565b60008484015250505050565b600061117b8261112a565b6111858185611135565b9350611195818560208601611146565b61119e81610e27565b840191505092915050565b6111b281610de7565b82525050565b6000610100830160008301516111d160008601826110fa565b5060208301516111e4602086018261111b565b5060408301516111f760408601826110fa565b506060830151848203606086015261120f8282611170565b915050608083015161122460808601826111a9565b5060a083015161123760a08601826110fa565b5060c083015161124a60c08601826110fa565b5060e083015161125d60e08601826110fa565b508091505092915050565b6000602082019050818103600083015261128281846111b8565b905092915050565b600080fd5b600080fd5b6000815190506112a381610d64565b92915050565b6112b281611109565b81146112bd57600080fd5b50565b6000815190506112cf816112a9565b92915050565b60006112e86112e384610eb3565b610e98565b90508281526020810184848401111561130457611303610e22565b5b61130f848285611146565b509392505050565b600082601f83011261132c5761132b610e1d565b5b815161133c8482602086016112d5565b91505092915050565b60008151905061135481610f63565b92915050565b600061010082840312156113715761137061128a565b5b61137c610100610e98565b9050600061138c84828501611294565b60008301525060206113a0848285016112c0565b60208301525060406113b484828501611294565b604083015250606082015167ffffffffffffffff8111156113d8576113d761128f565b5b6113e484828501611317565b60608301525060806113f884828501611345565b60808301525060a061140c84828501611294565b60a08301525060c061142084828501611294565b60c08301525060e061143484828501611294565b60e08301525092915050565b60006020828403121561145657611455610d50565b5b600082015167ffffffffffffffff81111561147457611473610d55565b5b6114808482850161135a565b91505092915050565b7f4e487b7100000000000000000000000000000000000000000000000000000000600052601160045260246000fd5b60006114c382610d5a565b91506114ce83610d5a565b92508282026114dc81610d5a565b915082820484148315176114f3576114f2611489565b5b5092915050565b7f4e487b7100000000000000000000000000000000000000000000000000000000600052601260045260246000fd5b600061153482610d5a565b915061153f83610d5a565b92508261154f5761154e6114fa565b5b828204905092915050565b600082825260208201905092915050565b7f5072696365206d7573742062652067726561746572207468616e203000000000600082015250565b60006115a1601c8361155a565b91506115ac8261156b565b602082019050919050565b600060208201905081810360008301526115d081611594565b9050919050565b7f4d65746164617461204349442072657175697265640000000000000000000000600082015250565b600061160d60158361155a565b9150611618826115d7565b602082019050919050565b6000602082019050818103600083015261163c81611600565b9050919050565b60006020828403121561165957611658610d50565b5b600061166784828501611294565b91505092915050565b60006040820190506116856000830185610dbd565b818103602083015261169781846111b8565b90509392505050565b60006116ab8261112a565b6116b5818561155a565b93506116c5818560208601611146565b6116ce81610e27565b840191505092915050565b600060208201905081810360008301526116f381846116a0565b905092915050565b7f4e6574776f726b20646f6573206e6f7420657869737400000000000000000000600082015250565b600061173160168361155a565b915061173c826116fb565b602082019050919050565b6000602082019050818103600083015261176081611724565b9050919050565b7f4f6e6c7920686f73742063616e20757064617465000000000000000000000000600082015250565b600061179d60148361155a565b91506117a882611767565b602082019050919050565b600060208201905081810360008301526117cc81611790565b9050919050565b600060408201905081810360008301526117ed81856116a0565b90506117fc6020830184610df3565b9392505050565b7f526174696e67206d757374206265206265747765656e203120616e6420350000600082015250565b6000611839601e8361155a565b915061184482611803565b602082019050919050565b600060208201905081810360008301526118688161182c565b9050919050565b61187881611109565b82525050565b6000604082019050611893600083018561186f565b6118a06020830184610dbd565b9392505050565b6000602082840312156118bd576118bc610d50565b5b60006118cb84828501611345565b91505092915050565b7f416c726561647920726174656400000000000000000000000000000000000000600082015250565b600061190a600d8361155a565b9150611915826118d4565b602082019050919050565b60006020820190508181036000830152611939816118fd565b9050919050565b7f4e6574776f726b206e6f7420666f756e64000000000000000000000000000000600082015250565b600061197660118361155a565b915061198182611940565b602082019050919050565b600060208201905081810360008301526119a581611969565b9050919050565b60006119b782610d5a565b91506119c283610d5a565b92508282019050808211156119da576119d9611489565b5b9291505056fea2646970667358221220acf1e7d5d5f946fc04cf664a5a2c738fbb94d53f31b28e4d995cd468052ebfa264736f6c634300081c0033",
  "linkReferences": {},
  "deployedLinkReferences": {}
}