{
  "_format": "hh-sol-artifact-1",
  "contractName": "ZaaNetPayment",
  "sourceName": "contracts/ZaaNetPayment.sol",
  "abi": [
    {
      "inputs": [
        {
          "internalType": "address",
          "name": "_usdt",
          "type": "address"
        },
        {
          "internalType": "address",
          "name": "_storageContract",
          "type": "address"
        },
        {
          "internalType": "address",
          "name": "_adminContract",
          "type": "address"
        }
      ],
      "stateMutability": "nonpayable",
      "type": "constructor"
    },
    {
      "inputs": [],
      "name": "EnforcedPause",
      "type": "error"
    },
    {
      "inputs": [],
      "name": "ExpectedPause",
      "type": "error"
    },
    {
      "inputs": [
        {
          "internalType": "address",
          "name": "owner",
          "type": "address"
        }
      ],
      "name": "OwnableInvalidOwner",
      "type": "error"
    },
    {
      "inputs": [
        {
          "internalType": "address",
          "name": "account",
          "type": "address"
        }
      ],
      "name": "OwnableUnauthorizedAccount",
      "type": "error"
    },
    {
      "inputs": [],
      "name": "ReentrancyGuardReentrantCall",
      "type": "error"
    },
    {
      "inputs": [
        {
          "internalType": "address",
          "name": "token",
          "type": "address"
        }
      ],
      "name": "SafeERC20FailedOperation",
      "type": "error"
    },
    {
      "anonymous": false,
      "inputs": [
        {
          "indexed": false,
          "internalType": "uint256",
          "name": "batchSize",
          "type": "uint256"
        },
        {
          "indexed": false,
          "internalType": "uint256",
          "name": "totalAmount",
          "type": "uint256"
        },
        {
          "indexed": false,
          "internalType": "uint256",
          "name": "totalPlatformFee",
          "type": "uint256"
        }
      ],
      "name": "BatchPaymentProcessed",
      "type": "event"
    },
    {
      "anonymous": false,
      "inputs": [
        {
          "indexed": true,
          "internalType": "address",
          "name": "treasury",
          "type": "address"
        },
        {
          "indexed": false,
          "internalType": "uint256",
          "name": "attemptedAmount",
          "type": "uint256"
        },
        {
          "indexed": false,
          "internalType": "uint256",
          "name": "dailyLimit",
          "type": "uint256"
        },
        {
          "indexed": false,
          "internalType": "uint256",
          "name": "alreadyWithdrawn",
          "type": "uint256"
        }
      ],
      "name": "DailyLimitExceeded",
      "type": "event"
    },
    {
      "anonymous": false,
      "inputs": [
        {
          "indexed": true,
          "internalType": "address",
          "name": "previousOwner",
          "type": "address"
        },
        {
          "indexed": true,
          "internalType": "address",
          "name": "newOwner",
          "type": "address"
        }
      ],
      "name": "OwnershipTransferred",
      "type": "event"
    },
    {
      "anonymous": false,
      "inputs": [
        {
          "indexed": false,
          "internalType": "address",
          "name": "account",
          "type": "address"
        }
      ],
      "name": "Paused",
      "type": "event"
    },
    {
      "anonymous": false,
      "inputs": [
        {
          "indexed": true,
          "internalType": "bytes32",
          "name": "voucherId",
          "type": "bytes32"
        },
        {
          "indexed": true,
          "internalType": "uint256",
          "name": "contractId",
          "type": "uint256"
        },
        {
          "indexed": true,
          "internalType": "address",
          "name": "host",
          "type": "address"
        },
        {
          "indexed": false,
          "internalType": "address",
          "name": "payer",
          "type": "address"
        },
        {
          "indexed": false,
          "internalType": "uint256",
          "name": "grossAmount",
          "type": "uint256"
        },
        {
          "indexed": false,
          "internalType": "uint256",
          "name": "platformFee",
          "type": "uint256"
        },
        {
          "indexed": false,
          "internalType": "uint256",
          "name": "hostAmount",
          "type": "uint256"
        },
        {
          "indexed": false,
          "internalType": "uint256",
          "name": "timestamp",
          "type": "uint256"
        }
      ],
      "name": "PaymentProcessed",
      "type": "event"
    },
    {
      "anonymous": false,
      "inputs": [
        {
          "indexed": false,
          "internalType": "address",
          "name": "account",
          "type": "address"
        }
      ],
      "name": "Unpaused",
      "type": "event"
    },
    {
      "inputs": [],
      "name": "MAX_FEERATE_PERCENT",
      "outputs": [
        {
          "internalType": "uint256",
          "name": "",
          "type": "uint256"
        }
      ],
      "stateMutability": "view",
      "type": "function"
    },
    {
      "inputs": [],
      "name": "MAX_INDIVIDUAL_PAYMENT",
      "outputs": [
        {
          "internalType": "uint256",
          "name": "",
          "type": "uint256"
        }
      ],
      "stateMutability": "view",
      "type": "function"
    },
    {
      "inputs": [],
      "name": "adminContract",
      "outputs": [
        {
          "internalType": "contract IZaaNetAdmin",
          "name": "",
          "type": "address"
        }
      ],
      "stateMutability": "view",
      "type": "function"
    },
    {
      "inputs": [],
      "name": "contractTokenBalance",
      "outputs": [
        {
          "internalType": "uint256",
          "name": "",
          "type": "uint256"
        }
      ],
      "stateMutability": "view",
      "type": "function"
    },
    {
      "inputs": [],
      "name": "dailyWithdrawalLimit",
      "outputs": [
        {
          "internalType": "uint256",
          "name": "",
          "type": "uint256"
        }
      ],
      "stateMutability": "view",
      "type": "function"
    },
    {
      "inputs": [
        {
          "internalType": "uint256",
          "name": "",
          "type": "uint256"
        }
      ],
      "name": "dailyWithdrawals",
      "outputs": [
        {
          "internalType": "uint256",
          "name": "",
          "type": "uint256"
        }
      ],
      "stateMutability": "view",
      "type": "function"
    },
    {
      "inputs": [],
      "name": "getRemainingDailyLimit",
      "outputs": [
        {
          "internalType": "uint256",
          "name": "",
          "type": "uint256"
        }
      ],
      "stateMutability": "view",
      "type": "function"
    },
    {
      "inputs": [],
      "name": "getTodayWithdrawals",
      "outputs": [
        {
          "internalType": "uint256",
          "name": "",
          "type": "uint256"
        }
      ],
      "stateMutability": "view",
      "type": "function"
    },
    {
      "inputs": [
        {
          "internalType": "bytes32",
          "name": "_voucherId",
          "type": "bytes32"
        }
      ],
      "name": "isVoucherProcessed",
      "outputs": [
        {
          "internalType": "bool",
          "name": "",
          "type": "bool"
        }
      ],
      "stateMutability": "view",
      "type": "function"
    },
    {
      "inputs": [],
      "name": "owner",
      "outputs": [
        {
          "internalType": "address",
          "name": "",
          "type": "address"
        }
      ],
      "stateMutability": "view",
      "type": "function"
    },
    {
      "inputs": [],
      "name": "pause",
      "outputs": [],
      "stateMutability": "nonpayable",
      "type": "function"
    },
    {
      "inputs": [],
      "name": "paused",
      "outputs": [
        {
          "internalType": "bool",
          "name": "",
          "type": "bool"
        }
      ],
      "stateMutability": "view",
      "type": "function"
    },
    {
      "inputs": [
        {
          "components": [
            {
              "internalType": "uint256",
              "name": "contractId",
              "type": "uint256"
            },
            {
              "internalType": "uint256",
              "name": "grossAmount",
              "type": "uint256"
            },
            {
              "internalType": "bytes32",
              "name": "voucherId",
              "type": "bytes32"
            }
          ],
          "internalType": "struct ZaaNetPayment.BatchPayment[]",
          "name": "payments",
          "type": "tuple[]"
        }
      ],
      "name": "processBatchPayments",
      "outputs": [],
      "stateMutability": "nonpayable",
      "type": "function"
    },
    {
      "inputs": [
        {
          "internalType": "uint256",
          "name": "_contractId",
          "type": "uint256"
        },
        {
          "internalType": "uint256",
          "name": "_grossAmount",
          "type": "uint256"
        },
        {
          "internalType": "bytes32",
          "name": "_voucherId",
          "type": "bytes32"
        }
      ],
      "name": "processPayment",
      "outputs": [],
      "stateMutability": "nonpayable",
      "type": "function"
    },
    {
      "inputs": [
        {
          "internalType": "bytes32",
          "name": "",
          "type": "bytes32"
        }
      ],
      "name": "processedVouchers",
      "outputs": [
        {
          "internalType": "bool",
          "name": "",
          "type": "bool"
        }
      ],
      "stateMutability": "view",
      "type": "function"
    },
    {
      "inputs": [],
      "name": "renounceOwnership",
      "outputs": [],
      "stateMutability": "nonpayable",
      "type": "function"
    },
    {
      "inputs": [
        {
          "internalType": "address",
          "name": "_erc20",
          "type": "address"
        },
        {
          "internalType": "address",
          "name": "_to",
          "type": "address"
        },
        {
          "internalType": "uint256",
          "name": "_amount",
          "type": "uint256"
        }
      ],
      "name": "rescueERC20",
      "outputs": [],
      "stateMutability": "nonpayable",
      "type": "function"
    },
    {
      "inputs": [
        {
          "internalType": "uint256",
          "name": "_newLimit",
          "type": "uint256"
        }
      ],
      "name": "setDailyWithdrawalLimit",
      "outputs": [],
      "stateMutability": "nonpayable",
      "type": "function"
    },
    {
      "inputs": [],
      "name": "storageContract",
      "outputs": [
        {
          "internalType": "contract IZaaNetStorage",
          "name": "",
          "type": "address"
        }
      ],
      "stateMutability": "view",
      "type": "function"
    },
    {
      "inputs": [],
      "name": "tokenDecimals",
      "outputs": [
        {
          "internalType": "uint8",
          "name": "",
          "type": "uint8"
        }
      ],
      "stateMutability": "view",
      "type": "function"
    },
    {
      "inputs": [
        {
          "internalType": "address",
          "name": "newOwner",
          "type": "address"
        }
      ],
      "name": "transferOwnership",
      "outputs": [],
      "stateMutability": "nonpayable",
      "type": "function"
    },
    {
      "inputs": [],
      "name": "unpause",
      "outputs": [],
      "stateMutability": "nonpayable",
      "type": "function"
    },
    {
      "inputs": [],
      "name": "usdt",
      "outputs": [
        {
          "internalType": "contract IERC20",
          "name": "",
          "type": "address"
        }
      ],
      "stateMutability": "view",
      "type": "function"
    },
    {
      "inputs": [
        {
          "internalType": "address",
          "name": "_to",
          "type": "address"
        },
        {
          "internalType": "uint256",
          "name": "_amount",
          "type": "uint256"
        }
      ],
      "name": "withdrawToken",
      "outputs": [],
      "stateMutability": "nonpayable",
      "type": "function"
    }
  ],
  "bytecode": "0x6080806040523461025f57606081611d5c803803809161001f8285610264565b83398101031261025f576100328161029d565b9061004b60406100446020840161029d565b920161029d565b9033156102495760008054336001600160a01b0319821681178355604051959290916001600160a01b0316907f8be0079c531659141344cd1fd0a4f28419497f9722a3daafe3b4186f6b6457e09080a3600180556402540be4006005556001600160a01b031692831561021a57506001600160a01b03169081156101e6576001600160a01b03169182156101b457600280546001600160a01b03198116831790915560405163313ce56760e01b8152909190602081600481855afa9081156101a857600091610165575b506001600160a81b03199092161760a09190911b60ff60a01b1617600255600380546001600160a01b031990811692909217905560048054909116919091179055604051611aaa90816102b28239f35b6020813d6020116101a0575b8161017e60209383610264565b8101031261019c57519060ff82168203610199575038610115565b80fd5b5080fd5b3d9150610171565b6040513d6000823e3d90fd5b60405162461bcd60e51b815260206004820152600a60248201526961646d696e207a65726f60b01b6044820152606490fd5b60405162461bcd60e51b815260206004820152600c60248201526b73746f72616765207a65726f60a01b6044820152606490fd5b62461bcd60e51b815260206004820152600a602482015269746f6b656e207a65726f60b01b6044820152606490fd5b631e4fbdf760e01b600052600060045260246000fd5b600080fd5b601f909101601f19168101906001600160401b0382119082101761028757604052565b634e487b7160e01b600052604160045260246000fd5b51906001600160a01b038216820361025f5756fe6080604052600436101561001257600080fd5b6000803560e01c806305483a15146114a65780630604bfa41461020257806311ce02671461147d5780632f48ab7d14611454578063337702451461142a5780633b97e856146114065780633f4ba83a146113985780634342482d14610d595780634cf4caa514610d3a5780635b3c052814610d1e5780635c975abb14610cf9578063715018a614610c9f5780637620843a14610c815780637ddd23e1146105a55780638456cb59146105445780638da5cb5b1461051d5780639e281a98146103765780639e9aed62146102dc578063a15f39e8146102b9578063b2118a8d14610231578063b9a2454414610202578063c05c5e94146101d9578063c4d276bc146101ad5763f2fde38b1461012557600080fd5b346101aa5760203660031901126101aa5761013e611504565b61014661196b565b6001600160a01b031680156101965781546001600160a01b03198116821783556001600160a01b03167f8be0079c531659141344cd1fd0a4f28419497f9722a3daafe3b4186f6b6457e08380a380f35b631e4fbdf760e01b82526004829052602482fd5b80fd5b50346101aa57806003193601126101aa5760406020916201518042048152600683522054604051908152f35b50346101aa57806003193601126101aa576004546040516001600160a01b039091168152602090f35b50346101aa5760203660031901126101aa5760ff60406020926004358152600784522054166040519015158152f35b50346101aa5760603660031901126101aa5761024b611504565b602435906001600160a01b0382168083036102b55761026861196b565b156102865761028391604435916001600160a01b03166119d6565b80f35b60405162461bcd60e51b81526020600482015260076024820152667a65726f20746f60c81b6044820152606490fd5b8380fd5b50346101aa57806003193601126101aa5760206102d4611938565b604051908152f35b50346101aa57806003193601126101aa576002546040516370a0823160e01b81523060048201529190602090839060249082906001600160a01b03165afa90811561036a5790610332575b602090604051908152f35b506020813d602011610362575b8161034c6020938361153d565b8101031261035d5760209051610327565b600080fd5b3d915061033f565b604051903d90823e3d90fd5b50346101aa5760403660031901126101aa57610390611504565b60243561039b61196b565b6001600160a01b038216156104d8578015610494576002546040516370a0823160e01b81523060048201526001600160a01b039091169290602081602481875afa80156104895783908690610453575b6103f7925010156118cc565b6103ff611938565b821161040e57610283926119d6565b60405162461bcd60e51b815260206004820152601e60248201527f45786365656473206461696c79207769746864726177616c206c696d697400006044820152606490fd5b50506020813d602011610481575b8161046e6020938361153d565b8101031261035d57826103f791516103eb565b3d9150610461565b6040513d87823e3d90fd5b606460405162461bcd60e51b815260206004820152602060248201527f416d6f756e74206d7573742062652067726561746572207468616e207a65726f6044820152fd5b60405162461bcd60e51b815260206004820152601960248201527f496e76616c696420726563697069656e742061646472657373000000000000006044820152606490fd5b50346101aa57806003193601126101aa57546040516001600160a01b039091168152602090f35b50346101aa57806003193601126101aa5761055d61196b565b610565611994565b805460ff60a01b1916600160a01b1781556040513381527f62e78cea01bee320cd4e420270b5ea74000d11b0c9f74754ebdbfc544b05a25890602090a180f35b50346101aa5760203660031901126101aa5760043567ffffffffffffffff811161083e573660238201121561083e5780600401359067ffffffffffffffff8211610c7d5760248101906024369160608502010111610c7d57610605611994565b61060d6119b4565b60018060a01b03600454169160405163319a11df60e11b8152602081600481875afa8015610489578590610c3e575b61065191506001600160a01b03163314611589565b80151580610c33575b15610bf957604051638c639a8560e01b815292849290602085600481845afa948515610bb7578695610bc2575b5090602060049261069b60148811156117e9565b60405163c5f956af60e01b815293849182905afa918215610bb7578692610b77575b506106d26001600160a01b0383161515611824565b60035486906001600160a01b03165b848210610aa55750506106f2611938565b8411610a6a57620151804204865260066020526040862061071485825461151a565b90556002546040516370a0823160e01b815230600482015290602090829060249082906001600160a01b03165afa8015610a5f5785908890610a29575b88939250906107619110156118cc565b8195825b8581106108425750505050836107c3575b506107b97f20eb9f3aebb74816a1325a7477cfa6f6ab692b692cd5930db98bd2d0343b70ca93604051938493846040919493926060820195825260208201520152565b0390a16001805580f35b6002546107da9185916001600160a01b03166119d6565b60035484906001600160a01b0316803b1561083e578180916024604051809481936369009a1360e01b83528a60048401525af180156108335761081e575b50610776565b816108289161153d565b6102b5578338610818565b6040513d84823e3d90fd5b5080fd5b610859610854828886979b9596611863565b611889565b60018060a01b03600354168982516024604051809481936395ea571760e01b835260048301525afa908115610a1e578a916109fc575b50602082019160646108a2878551611918565b04946108af86855161192b565b906108d482602060018060a01b036002541696019560018060a01b03875116906119d6565b60035484516001600160a01b039081169116803b156109f8576040516370e3d45560e11b81526001600160a01b03929092166004830152602482018490528e908290604490829084905af19081156109eb578e916109ce575b505090866109c16109616001997fdaec0156f045fe9bffcc686bd77361f536743020f757603c9f1888937cdfc5219561151a565b9e604080870191825181526007602052208a60ff1982541617905551945195898060a01b039051169651604051938493429233869192608093969594919660a084019760018060a01b031684526020840152604083015260608201520152565b0390a40190879291610765565b816109db9194939461153d565b6109e757908c3861092d565b8c80fd5b8e604051903d90823e3d90fd5b8e80fd5b610a1891503d808c833e610a10818361153d565b810190611654565b3861088f565b6040513d8c823e3d90fd5b50506020813d602011610a57575b81610a446020938361153d565b8101031261035d57846107619151610751565b3d9150610a37565b6040513d89823e3d90fd5b60405162461bcd60e51b8152602060048201526013602482015272115e18d959591cc819185a5b1e481b1a5b5a5d606a1b6044820152606490fd5b9094610ab5610854878786611863565b6020810190610acf82518015159081610b68575b50611617565b60408101518a526007602052610aec60ff60408c205416156115cb565b5191604051926395ea571760e01b845260048401528983602481875afa918215610a1e57610b3f610b46936001958d91610b4e575b50610b316080820151151561176b565b6040835191015111156117ac565b519061151a565b9501906106e1565b610b6291503d808f833e610a10818361153d565b38610b21565b6302faf0809150111538610ac9565b9091506020813d602011610baf575b81610b936020938361153d565b81010312610bab57610ba490611575565b90386106bd565b8580fd5b3d9150610b86565b6040513d88823e3d90fd5b919094506020823d602011610bf1575b81610bdf6020938361153d565b8101031261035d579051936020610687565b3d9150610bd2565b60405162461bcd60e51b8152602060048201526012602482015271496e76616c69642062617463682073697a6560701b6044820152606490fd5b50603281111561065a565b506020813d602011610c75575b81610c586020938361153d565b81010312610c7157610c6c61065191611575565b61063c565b8480fd5b3d9150610c4b565b8280fd5b50346101aa57806003193601126101aa576020600554604051908152f35b50346101aa57806003193601126101aa57610cb861196b565b80546001600160a01b03198116825581906001600160a01b03167f8be0079c531659141344cd1fd0a4f28419497f9722a3daafe3b4186f6b6457e08280a380f35b50346101aa57806003193601126101aa5760ff6020915460a01c166040519015158152f35b50346101aa57806003193601126101aa57602060405160148152f35b50346101aa57806003193601126101aa5760206040516302faf0808152f35b50346101aa5760603660031901126101aa57602435600435604435610d7c611994565b610d846119b4565b6201518042048085526006602052610da084604087205461151a565b906005548083116112fd575085526006602052604085205560018060a01b036004541660405163319a11df60e11b8152602081600481855afa8015610bb75786906112c2575b610dfb91506001600160a01b03163314611589565b8185526007602052610e1460ff604087205416156115cb565b831515806112b4575b610e2690611617565b6003546040516395ea571760e01b815260048101859052908690829060249082906001600160a01b03165afa908115610bb757869161129a575b50610e706080820151151561176b565b610e8060408201518610156117ac565b604051638c639a8560e01b8152602081600481865afa908115610a5f578791611268575b50610eb260148211156117e9565b60405163c5f956af60e01b815292602084600481845afa93841561121c578894611227575b50600490602090610ef26001600160a01b0387161515611824565b60405163319a11df60e11b815292839182905afa90811561121c5788916111de575b506001600160a01b031680156111a757606491610f35610f52923314611589565b858952600760205260408920805460ff1916600117905587611918565b04610f5d818761192b565b9160018060a01b0360025416936040516370a0823160e01b8152306004820152602081602481895afa908115610a1e578a91611171575b50610f9f848661151a565b1161111a57610fbe8460208594019660018060a01b03885116906119d6565b81151591826110fd575b505060035484516001600160a01b03918216918a9116823b1561083e576040516370e3d45560e11b81526001600160a01b0391909116600482015260248101869052918290604490829084905af180156110f2576110de575b50611080575b915160408051338152602081019790975286019290925260608501524260808501526001600160a01b0316927fdaec0156f045fe9bffcc686bd77361f536743020f757603c9f1888937cdfc5219060a090a46001805580f35b60035487906001600160a01b0316803b1561083e578180916024604051809481936369009a1360e01b83528860048401525af18015610833576110c5575b5050611027565b816110cf9161153d565b6110da5786386110be565b8680fd5b886110eb9199929961153d565b9638611021565b6040513d8b823e3d90fd5b60025461111392906001600160a01b03166119d6565b3882610fc8565b60405162461bcd60e51b815260206004820152602960248201527f496e73756666696369656e7420636f6e74726163742062616c616e636520666f6044820152681c881c185e5b595b9d60ba1b6064820152608490fd5b90506020813d60201161119f575b8161118c6020938361153d565b8101031261119b575138610f94565b8980fd5b3d915061117f565b60405162461bcd60e51b815260206004820152600f60248201526e125b9d985b1a59081c185e5b595b9d608a1b6044820152606490fd5b90506020813d602011611214575b816111f96020938361153d565b810103126112105761120a90611575565b38610f14565b8780fd5b3d91506111ec565b6040513d8a823e3d90fd5b9093506020813d602011611260575b816112436020938361153d565b81010312611210576020611258600492611575565b949150610ed7565b3d9150611236565b90506020813d602011611292575b816112836020938361153d565b810103126110da575138610ea4565b3d9150611276565b6112ae91503d8088833e610a10818361153d565b38610e60565b506302faf080841115610e1d565b506020813d6020116112f5575b816112dc6020938361153d565b81010312610bab576112f0610dfb91611575565b610de6565b3d91506112cf565b7fef6aa729d47e0c1661366cdf3d3e7bc905d9ef1ff95f7b5a9da45090f6ca88f3906040888894815260066020522054906113506040519283923396846040919493926060820195825260208201520152565b0390a260405162461bcd60e51b815260206004820152601f60248201527f4461696c79207769746864726177616c206c696d6974206578636565646564006044820152606490fd5b50346101aa57806003193601126101aa576113b161196b565b805460ff8160a01c16156113f75760ff60a01b191681556040513381527f5db9ee0a495bf2e6ff9c91a7834c1ba4fdd244a5e8aa4e537bd38aeae4b073aa90602090a180f35b638dfc202b60e01b8252600482fd5b50346101aa57806003193601126101aa57602060ff60025460a01c16604051908152f35b50346101aa5760203660031901126101aa5760406020916004358152600683522054604051908152f35b50346101aa57806003193601126101aa576002546040516001600160a01b039091168152602090f35b50346101aa57806003193601126101aa576003546040516001600160a01b039091168152602090f35b50346101aa5760203660031901126101aa576004356114c361196b565b80156114cf5760055580f35b60405162461bcd60e51b815260206004820152600d60248201526c125b9d985b1a59081b1a5b5a5d609a1b6044820152606490fd5b600435906001600160a01b038216820361035d57565b9190820180921161152757565b634e487b7160e01b600052601160045260246000fd5b90601f8019910116810190811067ffffffffffffffff82111761155f57604052565b634e487b7160e01b600052604160045260246000fd5b51906001600160a01b038216820361035d57565b1561159057565b60405162461bcd60e51b81526020600482015260136024820152724e6f74207061796d656e74206164647265737360681b6044820152606490fd5b156115d257565b60405162461bcd60e51b815260206004820152601960248201527f566f756368657220616c72656164792070726f636573736564000000000000006044820152606490fd5b1561161e57565b60405162461bcd60e51b815260206004820152600e60248201526d125b9d985b1a5908185b5bdd5b9d60921b6044820152606490fd5b60208183031261035d5780519067ffffffffffffffff821161035d570160e08183031261035d576040519160e0830183811067ffffffffffffffff82111761155f57604052815183526116a960208301611575565b602084015260408201516040840152606082015167ffffffffffffffff811161035d57820181601f8201121561035d5780519067ffffffffffffffff821161155f5760405192611703601f8401601f19166020018561153d565b8284526020838301011161035d5760005b8281106117565750506020600091830101526060830152608081015190811515820361035d5760c091608084015260a081015160a0840152015160c082015290565b80602080928401015182828701015201611714565b1561177257565b60405162461bcd60e51b81526020600482015260126024820152714e6574776f726b206e6f742061637469766560701b6044820152606490fd5b156117b357565b60405162461bcd60e51b815260206004820152600e60248201526d416d6f756e7420746f6f206c6f7760901b6044820152606490fd5b156117f057565b60405162461bcd60e51b815260206004820152600c60248201526b08ccaca40e8dede40d0d2ced60a31b6044820152606490fd5b1561182b57565b60405162461bcd60e51b815260206004820152601060248201526f496e76616c696420747265617375727960801b6044820152606490fd5b9190811015611873576060020190565b634e487b7160e01b600052603260045260246000fd5b60608136031261035d5760405190606082019082821067ffffffffffffffff83111761155f57604091825280358352602081013560208401520135604082015290565b156118d357565b60405162461bcd60e51b815260206004820152601d60248201527f496e73756666696369656e7420636f6e74726163742062616c616e63650000006044820152606490fd5b8181029291811591840414171561152757565b9190820391821161152757565b6201518042046000908152600660205260409020546005549081811061195f575050600090565b6119689161192b565b90565b6000546001600160a01b0316330361197f57565b63118cdaa760e01b6000523360045260246000fd5b60ff60005460a01c166119a357565b63d93c066560e01b60005260046000fd5b6002600154146119c5576002600155565b633ee5aeb560e01b60005260046000fd5b60405163a9059cbb60e01b60208083019182526001600160a01b039490941660248301526044808301959095529381529092600091611a1660648261153d565b519082855af115611a68576000513d611a5f57506001600160a01b0381163b155b611a3e5750565b635274afe760e01b60009081526001600160a01b0391909116600452602490fd5b60011415611a37565b6040513d6000823e3d90fdfea26469706673582212201916099afd0d97e6e55be1e7e2781f58be36315c5ee9419ead975953f6736c0b64736f6c634300081c0033",
  "linkReferences": {},
  "deployedLinkReferences": {}
}