{
  "_format": "hh-sol-artifact-1",
  "contractName": "ZaaNetAdmin",
  "sourceName": "contracts/ZaaNetAdmin.sol",
  "abi": [
    {
      "inputs": [
        {
          "internalType": "address",
          "name": "_storageContract",
          "type": "address"
        },
        {
          "internalType": "address",
          "name": "_treasury",
          "type": "address"
        },
        {
          "internalType": "uint256",
          "name": "_platformFeePercent",
          "type": "uint256"
        }
      ],
      "stateMutability": "nonpayable",
      "type": "constructor"
    },
    {
      "inputs": [],
      "name": "EnforcedPause",
      "type": "error"
    },
    {
      "inputs": [],
      "name": "ExpectedPause",
      "type": "error"
    },
    {
      "inputs": [
        {
          "internalType": "address",
          "name": "owner",
          "type": "address"
        }
      ],
      "name": "OwnableInvalidOwner",
      "type": "error"
    },
    {
      "inputs": [
        {
          "internalType": "address",
          "name": "account",
          "type": "address"
        }
      ],
      "name": "OwnableUnauthorizedAccount",
      "type": "error"
    },
    {
      "anonymous": false,
      "inputs": [
        {
          "indexed": true,
          "internalType": "address",
          "name": "triggeredBy",
          "type": "address"
        }
      ],
      "name": "AdminPaused",
      "type": "event"
    },
    {
      "anonymous": false,
      "inputs": [
        {
          "indexed": true,
          "internalType": "address",
          "name": "triggeredBy",
          "type": "address"
        }
      ],
      "name": "AdminUnpaused",
      "type": "event"
    },
    {
      "anonymous": false,
      "inputs": [
        {
          "indexed": true,
          "internalType": "address",
          "name": "previousOwner",
          "type": "address"
        },
        {
          "indexed": true,
          "internalType": "address",
          "name": "newOwner",
          "type": "address"
        }
      ],
      "name": "OwnershipTransferred",
      "type": "event"
    },
    {
      "anonymous": false,
      "inputs": [
        {
          "indexed": false,
          "internalType": "address",
          "name": "account",
          "type": "address"
        }
      ],
      "name": "Paused",
      "type": "event"
    },
    {
      "anonymous": false,
      "inputs": [
        {
          "indexed": false,
          "internalType": "uint256",
          "name": "oldFee",
          "type": "uint256"
        },
        {
          "indexed": false,
          "internalType": "uint256",
          "name": "newFee",
          "type": "uint256"
        }
      ],
      "name": "PlatformFeeUpdated",
      "type": "event"
    },
    {
      "anonymous": false,
      "inputs": [
        {
          "indexed": true,
          "internalType": "address",
          "name": "oldTreasury",
          "type": "address"
        },
        {
          "indexed": true,
          "internalType": "address",
          "name": "newTreasury",
          "type": "address"
        }
      ],
      "name": "TreasuryUpdated",
      "type": "event"
    },
    {
      "anonymous": false,
      "inputs": [
        {
          "indexed": false,
          "internalType": "address",
          "name": "account",
          "type": "address"
        }
      ],
      "name": "Unpaused",
      "type": "event"
    },
    {
      "inputs": [],
      "name": "owner",
      "outputs": [
        {
          "internalType": "address",
          "name": "",
          "type": "address"
        }
      ],
      "stateMutability": "view",
      "type": "function"
    },
    {
      "inputs": [],
      "name": "pause",
      "outputs": [],
      "stateMutability": "nonpayable",
      "type": "function"
    },
    {
      "inputs": [],
      "name": "paused",
      "outputs": [
        {
          "internalType": "bool",
          "name": "",
          "type": "bool"
        }
      ],
      "stateMutability": "view",
      "type": "function"
    },
    {
      "inputs": [],
      "name": "platformFeePercent",
      "outputs": [
        {
          "internalType": "uint256",
          "name": "",
          "type": "uint256"
        }
      ],
      "stateMutability": "view",
      "type": "function"
    },
    {
      "inputs": [],
      "name": "renounceOwnership",
      "outputs": [],
      "stateMutability": "nonpayable",
      "type": "function"
    },
    {
      "inputs": [
        {
          "internalType": "uint256",
          "name": "_newFeePercent",
          "type": "uint256"
        }
      ],
      "name": "setPlatformFee",
      "outputs": [],
      "stateMutability": "nonpayable",
      "type": "function"
    },
    {
      "inputs": [
        {
          "internalType": "address",
          "name": "_newTreasury",
          "type": "address"
        }
      ],
      "name": "setTreasury",
      "outputs": [],
      "stateMutability": "nonpayable",
      "type": "function"
    },
    {
      "inputs": [],
      "name": "storageContract",
      "outputs": [
        {
          "internalType": "contract ZaaNetStorage",
          "name": "",
          "type": "address"
        }
      ],
      "stateMutability": "view",
      "type": "function"
    },
    {
      "inputs": [
        {
          "internalType": "address",
          "name": "newOwner",
          "type": "address"
        }
      ],
      "name": "transferOwnership",
      "outputs": [],
      "stateMutability": "nonpayable",
      "type": "function"
    },
    {
      "inputs": [],
      "name": "treasury",
      "outputs": [
        {
          "internalType": "address",
          "name": "",
          "type": "address"
        }
      ],
      "stateMutability": "view",
      "type": "function"
    },
    {
      "inputs": [],
      "name": "unpause",
      "outputs": [],
      "stateMutability": "nonpayable",
      "type": "function"
    }
  ],
  "bytecode": "0x608060405234801561001057600080fd5b50604051610e5a380380610e5a833981810160405281019061003291906102a3565b33600073ffffffffffffffffffffffffffffffffffffffff168173ffffffffffffffffffffffffffffffffffffffff16036100a55760006040517f1e4fbdf700000000000000000000000000000000000000000000000000000000815260040161009c9190610305565b60405180910390fd5b6100b48161014660201b60201c565b5082600160006101000a81548173ffffffffffffffffffffffffffffffffffffffff021916908373ffffffffffffffffffffffffffffffffffffffff16021790555081600260006101000a81548173ffffffffffffffffffffffffffffffffffffffff021916908373ffffffffffffffffffffffffffffffffffffffff16021790555080600381905550505050610320565b60008060009054906101000a900473ffffffffffffffffffffffffffffffffffffffff169050816000806101000a81548173ffffffffffffffffffffffffffffffffffffffff021916908373ffffffffffffffffffffffffffffffffffffffff1602179055508173ffffffffffffffffffffffffffffffffffffffff168173ffffffffffffffffffffffffffffffffffffffff167f8be0079c531659141344cd1fd0a4f28419497f9722a3daafe3b4186f6b6457e060405160405180910390a35050565b600080fd5b600073ffffffffffffffffffffffffffffffffffffffff82169050919050565b600061023a8261020f565b9050919050565b61024a8161022f565b811461025557600080fd5b50565b60008151905061026781610241565b92915050565b6000819050919050565b6102808161026d565b811461028b57600080fd5b50565b60008151905061029d81610277565b92915050565b6000806000606084860312156102bc576102bb61020a565b5b60006102ca86828701610258565b93505060206102db86828701610258565b92505060406102ec8682870161028e565b9150509250925092565b6102ff8161022f565b82525050565b600060208201905061031a60008301846102f6565b92915050565b610b2b8061032f6000396000f3fe608060405234801561001057600080fd5b50600436106100a95760003560e01c8063715018a611610071578063715018a61461012e5780638456cb59146101385780638c639a85146101425780638da5cb5b14610160578063f0f442601461017e578063f2fde38b1461019a576100a9565b806311ce0267146100ae57806312e8e2c3146100cc5780633f4ba83a146100e85780635c975abb146100f257806361d027b314610110575b600080fd5b6100b66101b6565b6040516100c3919061086b565b60405180910390f35b6100e660048036038101906100e191906108c1565b6101dc565b005b6100f061026d565b005b6100fa6102c2565b6040516101079190610909565b60405180910390f35b6101186102d8565b6040516101259190610945565b60405180910390f35b6101366102fe565b005b610140610312565b005b61014a610367565b604051610157919061096f565b60405180910390f35b61016861036d565b6040516101759190610945565b60405180910390f35b610198600480360381019061019391906109b6565b610396565b005b6101b460048036038101906101af91906109b6565b6104cd565b005b600160009054906101000a900473ffffffffffffffffffffffffffffffffffffffff1681565b6101e4610553565b6014811115610228576040517f08c379a000000000000000000000000000000000000000000000000000000000815260040161021f90610a40565b60405180910390fd5b7fd347e206f25a89b917fc9482f1a2d294d749baa4dc9bde7fb495ee11fe4916436003548260405161025b929190610a60565b60405180910390a18060038190555050565b610275610553565b61027d6105da565b3373ffffffffffffffffffffffffffffffffffffffff167fcc2b689b01792ccc45f7d02099e9ef3ffd7058e45803395690c61efdd0f0c63460405160405180910390a2565b60008060149054906101000a900460ff16905090565b600260009054906101000a900473ffffffffffffffffffffffffffffffffffffffff1681565b610306610553565b610310600061063c565b565b61031a610553565b610322610700565b3373ffffffffffffffffffffffffffffffffffffffff167ff9c91e483ce8bc4cc31645e7cc0f01a3371813e76469a71104841507f014029060405160405180910390a2565b60035481565b60008060009054906101000a900473ffffffffffffffffffffffffffffffffffffffff16905090565b61039e610553565b600073ffffffffffffffffffffffffffffffffffffffff168173ffffffffffffffffffffffffffffffffffffffff160361040d576040517f08c379a000000000000000000000000000000000000000000000000000000000815260040161040490610ad5565b60405180910390fd5b8073ffffffffffffffffffffffffffffffffffffffff16600260009054906101000a900473ffffffffffffffffffffffffffffffffffffffff1673ffffffffffffffffffffffffffffffffffffffff167f4ab5be82436d353e61ca18726e984e561f5c1cc7c6d38b29d2553c790434705a60405160405180910390a380600260006101000a81548173ffffffffffffffffffffffffffffffffffffffff021916908373ffffffffffffffffffffffffffffffffffffffff16021790555050565b6104d5610553565b600073ffffffffffffffffffffffffffffffffffffffff168173ffffffffffffffffffffffffffffffffffffffff16036105475760006040517f1e4fbdf700000000000000000000000000000000000000000000000000000000815260040161053e9190610945565b60405180910390fd5b6105508161063c565b50565b61055b610763565b73ffffffffffffffffffffffffffffffffffffffff1661057961036d565b73ffffffffffffffffffffffffffffffffffffffff16146105d85761059c610763565b6040517f118cdaa70000000000000000000000000000000000000000000000000000000081526004016105cf9190610945565b60405180910390fd5b565b6105e261076b565b60008060146101000a81548160ff0219169083151502179055507f5db9ee0a495bf2e6ff9c91a7834c1ba4fdd244a5e8aa4e537bd38aeae4b073aa610625610763565b6040516106329190610945565b60405180910390a1565b60008060009054906101000a900473ffffffffffffffffffffffffffffffffffffffff169050816000806101000a81548173ffffffffffffffffffffffffffffffffffffffff021916908373ffffffffffffffffffffffffffffffffffffffff1602179055508173ffffffffffffffffffffffffffffffffffffffff168173ffffffffffffffffffffffffffffffffffffffff167f8be0079c531659141344cd1fd0a4f28419497f9722a3daafe3b4186f6b6457e060405160405180910390a35050565b6107086107ab565b6001600060146101000a81548160ff0219169083151502179055507f62e78cea01bee320cd4e420270b5ea74000d11b0c9f74754ebdbfc544b05a25861074c610763565b6040516107599190610945565b60405180910390a1565b600033905090565b6107736102c2565b6107a9576040517f8dfc202b00000000000000000000000000000000000000000000000000000000815260040160405180910390fd5b565b6107b36102c2565b156107ea576040517fd93c066500000000000000000000000000000000000000000000000000000000815260040160405180910390fd5b565b600073ffffffffffffffffffffffffffffffffffffffff82169050919050565b6000819050919050565b600061083161082c610827846107ec565b61080c565b6107ec565b9050919050565b600061084382610816565b9050919050565b600061085582610838565b9050919050565b6108658161084a565b82525050565b6000602082019050610880600083018461085c565b92915050565b600080fd5b6000819050919050565b61089e8161088b565b81146108a957600080fd5b50565b6000813590506108bb81610895565b92915050565b6000602082840312156108d7576108d6610886565b5b60006108e5848285016108ac565b91505092915050565b60008115159050919050565b610903816108ee565b82525050565b600060208201905061091e60008301846108fa565b92915050565b600061092f826107ec565b9050919050565b61093f81610924565b82525050565b600060208201905061095a6000830184610936565b92915050565b6109698161088b565b82525050565b60006020820190506109846000830184610960565b92915050565b61099381610924565b811461099e57600080fd5b50565b6000813590506109b08161098a565b92915050565b6000602082840312156109cc576109cb610886565b5b60006109da848285016109a1565b91505092915050565b600082825260208201905092915050565b7f4665652063616e6e6f7420657863656564203230250000000000000000000000600082015250565b6000610a2a6015836109e3565b9150610a35826109f4565b602082019050919050565b60006020820190508181036000830152610a5981610a1d565b9050919050565b6000604082019050610a756000830185610960565b610a826020830184610960565b9392505050565b7f496e76616c696420747265617375727920616464726573730000000000000000600082015250565b6000610abf6018836109e3565b9150610aca82610a89565b602082019050919050565b60006020820190508181036000830152610aee81610ab2565b905091905056fea2646970667358221220bf415ccaf6084c36272e727db5b29c73cb03604f3f51ff9c3b02facc68c3a02664736f6c634300081c0033",
  "linkReferences": {},
  "deployedLinkReferences": {}
}