{
  "_format": "hh-sol-artifact-1",
  "contractName": "ZaaNetStorage",
  "sourceName": "contracts/ZaaNetStorage.sol",
  "abi": [
    {
      "inputs": [],
      "stateMutability": "nonpayable",
      "type": "constructor"
    },
    {
      "inputs": [
        {
          "internalType": "address",
          "name": "",
          "type": "address"
        }
      ],
      "name": "allowedCallers",
      "outputs": [
        {
          "internalType": "bool",
          "name": "",
          "type": "bool"
        }
      ],
      "stateMutability": "view",
      "type": "function"
    },
    {
      "inputs": [
        {
          "internalType": "address",
          "name": "host",
          "type": "address"
        }
      ],
      "name": "getHostEarnings",
      "outputs": [
        {
          "internalType": "uint256",
          "name": "",
          "type": "uint256"
        }
      ],
      "stateMutability": "view",
      "type": "function"
    },
    {
      "inputs": [
        {
          "internalType": "uint256",
          "name": "id",
          "type": "uint256"
        }
      ],
      "name": "getNetwork",
      "outputs": [
        {
          "components": [
            {
              "internalType": "uint256",
              "name": "id",
              "type": "uint256"
            },
            {
              "internalType": "address",
              "name": "host",
              "type": "address"
            },
            {
              "internalType": "uint256",
              "name": "price",
              "type": "uint256"
            },
            {
              "internalType": "string",
              "name": "metadataCID",
              "type": "string"
            },
            {
              "internalType": "bool",
              "name": "isActive",
              "type": "bool"
            },
            {
              "internalType": "uint256",
              "name": "totalRating",
              "type": "uint256"
            },
            {
              "internalType": "uint256",
              "name": "ratingCount",
              "type": "uint256"
            },
            {
              "internalType": "uint256",
              "name": "successfulSessions",
              "type": "uint256"
            }
          ],
          "internalType": "struct ZaaNetStorage.Network",
          "name": "",
          "type": "tuple"
        }
      ],
      "stateMutability": "view",
      "type": "function"
    },
    {
      "inputs": [
        {
          "internalType": "uint256",
          "name": "id",
          "type": "uint256"
        }
      ],
      "name": "getSession",
      "outputs": [
        {
          "components": [
            {
              "internalType": "uint256",
              "name": "sessionId",
              "type": "uint256"
            },
            {
              "internalType": "uint256",
              "name": "networkId",
              "type": "uint256"
            },
            {
              "internalType": "address",
              "name": "guest",
              "type": "address"
            },
            {
              "internalType": "uint256",
              "name": "duration",
              "type": "uint256"
            },
            {
              "internalType": "uint256",
              "name": "amount",
              "type": "uint256"
            },
            {
              "internalType": "bool",
              "name": "active",
              "type": "bool"
            }
          ],
          "internalType": "struct ZaaNetStorage.Session",
          "name": "",
          "type": "tuple"
        }
      ],
      "stateMutability": "view",
      "type": "function"
    },
    {
      "inputs": [
        {
          "internalType": "address",
          "name": "",
          "type": "address"
        },
        {
          "internalType": "uint256",
          "name": "",
          "type": "uint256"
        }
      ],
      "name": "hasRated",
      "outputs": [
        {
          "internalType": "bool",
          "name": "",
          "type": "bool"
        }
      ],
      "stateMutability": "view",
      "type": "function"
    },
    {
      "inputs": [
        {
          "internalType": "address",
          "name": "",
          "type": "address"
        }
      ],
      "name": "hostEarnings",
      "outputs": [
        {
          "internalType": "uint256",
          "name": "",
          "type": "uint256"
        }
      ],
      "stateMutability": "view",
      "type": "function"
    },
    {
      "inputs": [
        {
          "internalType": "address",
          "name": "host",
          "type": "address"
        },
        {
          "internalType": "uint256",
          "name": "amount",
          "type": "uint256"
        }
      ],
      "name": "increaseHostEarnings",
      "outputs": [],
      "stateMutability": "nonpayable",
      "type": "function"
    },
    {
      "inputs": [],
      "name": "incrementNetworkId",
      "outputs": [
        {
          "internalType": "uint256",
          "name": "",
          "type": "uint256"
        }
      ],
      "stateMutability": "nonpayable",
      "type": "function"
    },
    {
      "inputs": [],
      "name": "incrementSessionId",
      "outputs": [
        {
          "internalType": "uint256",
          "name": "",
          "type": "uint256"
        }
      ],
      "stateMutability": "nonpayable",
      "type": "function"
    },
    {
      "inputs": [
        {
          "internalType": "uint256",
          "name": "id",
          "type": "uint256"
        }
      ],
      "name": "incrementSuccessfulSessions",
      "outputs": [],
      "stateMutability": "nonpayable",
      "type": "function"
    },
    {
      "inputs": [
        {
          "internalType": "address",
          "name": "user",
          "type": "address"
        },
        {
          "internalType": "uint256",
          "name": "networkId",
          "type": "uint256"
        }
      ],
      "name": "markRated",
      "outputs": [],
      "stateMutability": "nonpayable",
      "type": "function"
    },
    {
      "inputs": [],
      "name": "networkIdCounter",
      "outputs": [
        {
          "internalType": "uint256",
          "name": "",
          "type": "uint256"
        }
      ],
      "stateMutability": "view",
      "type": "function"
    },
    {
      "inputs": [
        {
          "internalType": "uint256",
          "name": "",
          "type": "uint256"
        }
      ],
      "name": "networks",
      "outputs": [
        {
          "internalType": "uint256",
          "name": "id",
          "type": "uint256"
        },
        {
          "internalType": "address",
          "name": "host",
          "type": "address"
        },
        {
          "internalType": "uint256",
          "name": "price",
          "type": "uint256"
        },
        {
          "internalType": "string",
          "name": "metadataCID",
          "type": "string"
        },
        {
          "internalType": "bool",
          "name": "isActive",
          "type": "bool"
        },
        {
          "internalType": "uint256",
          "name": "totalRating",
          "type": "uint256"
        },
        {
          "internalType": "uint256",
          "name": "ratingCount",
          "type": "uint256"
        },
        {
          "internalType": "uint256",
          "name": "successfulSessions",
          "type": "uint256"
        }
      ],
      "stateMutability": "view",
      "type": "function"
    },
    {
      "inputs": [],
      "name": "owner",
      "outputs": [
        {
          "internalType": "address",
          "name": "",
          "type": "address"
        }
      ],
      "stateMutability": "view",
      "type": "function"
    },
    {
      "inputs": [],
      "name": "sessionIdCounter",
      "outputs": [
        {
          "internalType": "uint256",
          "name": "",
          "type": "uint256"
        }
      ],
      "stateMutability": "view",
      "type": "function"
    },
    {
      "inputs": [
        {
          "internalType": "uint256",
          "name": "",
          "type": "uint256"
        }
      ],
      "name": "sessions",
      "outputs": [
        {
          "internalType": "uint256",
          "name": "sessionId",
          "type": "uint256"
        },
        {
          "internalType": "uint256",
          "name": "networkId",
          "type": "uint256"
        },
        {
          "internalType": "address",
          "name": "guest",
          "type": "address"
        },
        {
          "internalType": "uint256",
          "name": "duration",
          "type": "uint256"
        },
        {
          "internalType": "uint256",
          "name": "amount",
          "type": "uint256"
        },
        {
          "internalType": "bool",
          "name": "active",
          "type": "bool"
        }
      ],
      "stateMutability": "view",
      "type": "function"
    },
    {
      "inputs": [
        {
          "internalType": "address",
          "name": "_caller",
          "type": "address"
        },
        {
          "internalType": "bool",
          "name": "status",
          "type": "bool"
        }
      ],
      "name": "setAllowedCaller",
      "outputs": [],
      "stateMutability": "nonpayable",
      "type": "function"
    },
    {
      "inputs": [
        {
          "internalType": "uint256",
          "name": "id",
          "type": "uint256"
        },
        {
          "components": [
            {
              "internalType": "uint256",
              "name": "id",
              "type": "uint256"
            },
            {
              "internalType": "address",
              "name": "host",
              "type": "address"
            },
            {
              "internalType": "uint256",
              "name": "price",
              "type": "uint256"
            },
            {
              "internalType": "string",
              "name": "metadataCID",
              "type": "string"
            },
            {
              "internalType": "bool",
              "name": "isActive",
              "type": "bool"
            },
            {
              "internalType": "uint256",
              "name": "totalRating",
              "type": "uint256"
            },
            {
              "internalType": "uint256",
              "name": "ratingCount",
              "type": "uint256"
            },
            {
              "internalType": "uint256",
              "name": "successfulSessions",
              "type": "uint256"
            }
          ],
          "internalType": "struct ZaaNetStorage.Network",
          "name": "net",
          "type": "tuple"
        }
      ],
      "name": "setNetwork",
      "outputs": [],
      "stateMutability": "nonpayable",
      "type": "function"
    },
    {
      "inputs": [
        {
          "internalType": "uint256",
          "name": "id",
          "type": "uint256"
        },
        {
          "components": [
            {
              "internalType": "uint256",
              "name": "sessionId",
              "type": "uint256"
            },
            {
              "internalType": "uint256",
              "name": "networkId",
              "type": "uint256"
            },
            {
              "internalType": "address",
              "name": "guest",
              "type": "address"
            },
            {
              "internalType": "uint256",
              "name": "duration",
              "type": "uint256"
            },
            {
              "internalType": "uint256",
              "name": "amount",
              "type": "uint256"
            },
            {
              "internalType": "bool",
              "name": "active",
              "type": "bool"
            }
          ],
          "internalType": "struct ZaaNetStorage.Session",
          "name": "session",
          "type": "tuple"
        }
      ],
      "name": "setSession",
      "outputs": [],
      "stateMutability": "nonpayable",
      "type": "function"
    }
  ],
  "bytecode": "0x6080604052348015600f57600080fd5b50336000806101000a81548173ffffffffffffffffffffffffffffffffffffffff021916908373ffffffffffffffffffffffffffffffffffffffff160217905550611df08061005f6000396000f3fe608060405234801561001057600080fd5b50600436106101215760003560e01c80636d65573f116100ad57806395ea57171161007157806395ea57171461033a578063cc5076411461036a578063d25468b314610388578063d8b0e716146103b8578063e1c7a8aa146103d457610121565b80636d65573f146102505780637b3341541461028057806383c4b7a3146102b05780638bb0a17c146102e55780638da5cb5b1461031c57610121565b8063402ff0db116100f4578063402ff0db146101ac5780634a4793e8146101dc5780635290ffc6146101f8578063584c5469146102165780635a29352d1461023257610121565b8063217c682d1461012657806329c718b51461014457806339fdf71e146101745780633bec83e914610190575b600080fd5b61012e6103f0565b60405161013b9190611084565b60405180910390f35b61015e60048036038101906101599190611111565b6103f6565b60405161016b9190611084565b60405180910390f35b61018e600480360381019061018991906112d8565b61040e565b005b6101aa60048036038101906101a59190611318565b610544565b005b6101c660048036038101906101c19190611358565b61063d565b6040516101d3919061142d565b60405180910390f35b6101f660048036038101906101f19190611358565b610703565b005b6102006107c0565b60405161020d9190611084565b60405180910390f35b610230600480360381019061022b91906115e8565b610868565b005b61023a6109be565b6040516102479190611084565b60405180910390f35b61026a60048036038101906102659190611111565b6109c4565b6040516102779190611084565b60405180910390f35b61029a60048036038101906102959190611111565b610a0d565b6040516102a79190611653565b60405180910390f35b6102ca60048036038101906102c59190611358565b610a2d565b6040516102dc9695949392919061167d565b60405180910390f35b6102ff60048036038101906102fa9190611358565b610a96565b60405161031398979695949392919061175d565b60405180910390f35b610324610b93565b60405161033191906117e2565b60405180910390f35b610354600480360381019061034f9190611358565b610bb7565b60405161036191906118f7565b60405180910390f35b610372610d1a565b60405161037f9190611084565b60405180910390f35b6103a2600480360381019061039d9190611318565b610dc2565b6040516103af9190611653565b60405180910390f35b6103d260048036038101906103cd9190611919565b610df1565b005b6103ee60048036038101906103e99190611318565b610eda565b005b60025481565b60076020528060005260406000206000915090505481565b600160003373ffffffffffffffffffffffffffffffffffffffff1673ffffffffffffffffffffffffffffffffffffffff16815260200190815260200160002060009054906101000a900460ff1661049a576040517f08c379a0000000000000000000000000000000000000000000000000000000008152600401610491906119a5565b60405180910390fd5b8060056000848152602001908152602001600020600082015181600001556020820151816001015560408201518160020160006101000a81548173ffffffffffffffffffffffffffffffffffffffff021916908373ffffffffffffffffffffffffffffffffffffffff160217905550606082015181600301556080820151816004015560a08201518160050160006101000a81548160ff0219169083151502179055509050505050565b600160003373ffffffffffffffffffffffffffffffffffffffff1673ffffffffffffffffffffffffffffffffffffffff16815260200190815260200160002060009054906101000a900460ff166105d0576040517f08c379a00000000000000000000000000000000000000000000000000000000081526004016105c7906119a5565b60405180910390fd5b6001600660008473ffffffffffffffffffffffffffffffffffffffff1673ffffffffffffffffffffffffffffffffffffffff168152602001908152602001600020600083815260200190815260200160002060006101000a81548160ff0219169083151502179055505050565b610645610fc0565b600560008381526020019081526020016000206040518060c001604052908160008201548152602001600182015481526020016002820160009054906101000a900473ffffffffffffffffffffffffffffffffffffffff1673ffffffffffffffffffffffffffffffffffffffff1673ffffffffffffffffffffffffffffffffffffffff16815260200160038201548152602001600482015481526020016005820160009054906101000a900460ff1615151515815250509050919050565b600160003373ffffffffffffffffffffffffffffffffffffffff1673ffffffffffffffffffffffffffffffffffffffff16815260200190815260200160002060009054906101000a900460ff1661078f576040517f08c379a0000000000000000000000000000000000000000000000000000000008152600401610786906119a5565b60405180910390fd5b60016004600083815260200190815260200160002060070160008282546107b691906119f4565b9250508190555050565b6000600160003373ffffffffffffffffffffffffffffffffffffffff1673ffffffffffffffffffffffffffffffffffffffff16815260200190815260200160002060009054906101000a900460ff1661084e576040517f08c379a0000000000000000000000000000000000000000000000000000000008152600401610845906119a5565b60405180910390fd5b60026000815461085d90611a28565b919050819055905090565b600160003373ffffffffffffffffffffffffffffffffffffffff1673ffffffffffffffffffffffffffffffffffffffff16815260200190815260200160002060009054906101000a900460ff166108f4576040517f08c379a00000000000000000000000000000000000000000000000000000000081526004016108eb906119a5565b60405180910390fd5b80600460008481526020019081526020016000206000820151816000015560208201518160010160006101000a81548173ffffffffffffffffffffffffffffffffffffffff021916908373ffffffffffffffffffffffffffffffffffffffff1602179055506040820151816002015560608201518160030190816109789190611c7c565b5060808201518160040160006101000a81548160ff02191690831515021790555060a0820151816005015560c0820151816006015560e082015181600701559050505050565b60035481565b6000600760008373ffffffffffffffffffffffffffffffffffffffff1673ffffffffffffffffffffffffffffffffffffffff168152602001908152602001600020549050919050565b60016020528060005260406000206000915054906101000a900460ff1681565b60056020528060005260406000206000915090508060000154908060010154908060020160009054906101000a900473ffffffffffffffffffffffffffffffffffffffff16908060030154908060040154908060050160009054906101000a900460ff16905086565b60046020528060005260406000206000915090508060000154908060010160009054906101000a900473ffffffffffffffffffffffffffffffffffffffff1690806002015490806003018054610aeb90611a9f565b80601f0160208091040260200160405190810160405280929190818152602001828054610b1790611a9f565b8015610b645780601f10610b3957610100808354040283529160200191610b64565b820191906000526020600020905b815481529060010190602001808311610b4757829003601f168201915b5050505050908060040160009054906101000a900460ff16908060050154908060060154908060070154905088565b60008054906101000a900473ffffffffffffffffffffffffffffffffffffffff1681565b610bbf61100e565b6004600083815260200190815260200160002060405180610100016040529081600082015481526020016001820160009054906101000a900473ffffffffffffffffffffffffffffffffffffffff1673ffffffffffffffffffffffffffffffffffffffff1673ffffffffffffffffffffffffffffffffffffffff16815260200160028201548152602001600382018054610c5890611a9f565b80601f0160208091040260200160405190810160405280929190818152602001828054610c8490611a9f565b8015610cd15780601f10610ca657610100808354040283529160200191610cd1565b820191906000526020600020905b815481529060010190602001808311610cb457829003601f168201915b505050505081526020016004820160009054906101000a900460ff1615151515815260200160058201548152602001600682015481526020016007820154815250509050919050565b6000600160003373ffffffffffffffffffffffffffffffffffffffff1673ffffffffffffffffffffffffffffffffffffffff16815260200190815260200160002060009054906101000a900460ff16610da8576040517f08c379a0000000000000000000000000000000000000000000000000000000008152600401610d9f906119a5565b60405180910390fd5b600360008154610db790611a28565b919050819055905090565b60066020528160005260406000206020528060005260406000206000915091509054906101000a900460ff1681565b60008054906101000a900473ffffffffffffffffffffffffffffffffffffffff1673ffffffffffffffffffffffffffffffffffffffff163373ffffffffffffffffffffffffffffffffffffffff1614610e7f576040517f08c379a0000000000000000000000000000000000000000000000000000000008152600401610e7690611d9a565b60405180910390fd5b80600160008473ffffffffffffffffffffffffffffffffffffffff1673ffffffffffffffffffffffffffffffffffffffff16815260200190815260200160002060006101000a81548160ff0219169083151502179055505050565b600160003373ffffffffffffffffffffffffffffffffffffffff1673ffffffffffffffffffffffffffffffffffffffff16815260200190815260200160002060009054906101000a900460ff16610f66576040517f08c379a0000000000000000000000000000000000000000000000000000000008152600401610f5d906119a5565b60405180910390fd5b80600760008473ffffffffffffffffffffffffffffffffffffffff1673ffffffffffffffffffffffffffffffffffffffff1681526020019081526020016000206000828254610fb591906119f4565b925050819055505050565b6040518060c001604052806000815260200160008152602001600073ffffffffffffffffffffffffffffffffffffffff16815260200160008152602001600081526020016000151581525090565b60405180610100016040528060008152602001600073ffffffffffffffffffffffffffffffffffffffff16815260200160008152602001606081526020016000151581526020016000815260200160008152602001600081525090565b6000819050919050565b61107e8161106b565b82525050565b60006020820190506110996000830184611075565b92915050565b6000604051905090565b600080fd5b600080fd5b600073ffffffffffffffffffffffffffffffffffffffff82169050919050565b60006110de826110b3565b9050919050565b6110ee816110d3565b81146110f957600080fd5b50565b60008135905061110b816110e5565b92915050565b600060208284031215611127576111266110a9565b5b6000611135848285016110fc565b91505092915050565b6111478161106b565b811461115257600080fd5b50565b6000813590506111648161113e565b92915050565b600080fd5b6000601f19601f8301169050919050565b7f4e487b7100000000000000000000000000000000000000000000000000000000600052604160045260246000fd5b6111b88261116f565b810181811067ffffffffffffffff821117156111d7576111d6611180565b5b80604052505050565b60006111ea61109f565b90506111f682826111af565b919050565b600080fd5b60008115159050919050565b61121581611200565b811461122057600080fd5b50565b6000813590506112328161120c565b92915050565b600060c0828403121561124e5761124d61116a565b5b61125860c06111e0565b9050600061126884828501611155565b600083015250602061127c84828501611155565b6020830152506040611290848285016110fc565b60408301525060606112a484828501611155565b60608301525060806112b884828501611155565b60808301525060a06112cc84828501611223565b60a08301525092915050565b60008060e083850312156112ef576112ee6110a9565b5b60006112fd85828601611155565b925050602061130e85828601611238565b9150509250929050565b6000806040838503121561132f5761132e6110a9565b5b600061133d858286016110fc565b925050602061134e85828601611155565b9150509250929050565b60006020828403121561136e5761136d6110a9565b5b600061137c84828501611155565b91505092915050565b61138e8161106b565b82525050565b61139d816110d3565b82525050565b6113ac81611200565b82525050565b60c0820160008201516113c86000850182611385565b5060208201516113db6020850182611385565b5060408201516113ee6040850182611394565b5060608201516114016060850182611385565b5060808201516114146080850182611385565b5060a082015161142760a08501826113a3565b50505050565b600060c08201905061144260008301846113b2565b92915050565b600080fd5b600080fd5b600067ffffffffffffffff82111561146d5761146c611180565b5b6114768261116f565b9050602081019050919050565b82818337600083830152505050565b60006114a56114a084611452565b6111e0565b9050828152602081018484840111156114c1576114c061144d565b5b6114cc848285611483565b509392505050565b600082601f8301126114e9576114e8611448565b5b81356114f9848260208601611492565b91505092915050565b600061010082840312156115195761151861116a565b5b6115246101006111e0565b9050600061153484828501611155565b6000830152506020611548848285016110fc565b602083015250604061155c84828501611155565b604083015250606082013567ffffffffffffffff8111156115805761157f6111fb565b5b61158c848285016114d4565b60608301525060806115a084828501611223565b60808301525060a06115b484828501611155565b60a08301525060c06115c884828501611155565b60c08301525060e06115dc84828501611155565b60e08301525092915050565b600080604083850312156115ff576115fe6110a9565b5b600061160d85828601611155565b925050602083013567ffffffffffffffff81111561162e5761162d6110ae565b5b61163a85828601611502565b9150509250929050565b61164d81611200565b82525050565b60006020820190506116686000830184611644565b92915050565b611677816110d3565b82525050565b600060c0820190506116926000830189611075565b61169f6020830188611075565b6116ac604083018761166e565b6116b96060830186611075565b6116c66080830185611075565b6116d360a0830184611644565b979650505050505050565b600081519050919050565b600082825260208201905092915050565b60005b838110156117185780820151818401526020810190506116fd565b60008484015250505050565b600061172f826116de565b61173981856116e9565b93506117498185602086016116fa565b6117528161116f565b840191505092915050565b600061010082019050611773600083018b611075565b611780602083018a61166e565b61178d6040830189611075565b818103606083015261179f8188611724565b90506117ae6080830187611644565b6117bb60a0830186611075565b6117c860c0830185611075565b6117d560e0830184611075565b9998505050505050505050565b60006020820190506117f7600083018461166e565b92915050565b600082825260208201905092915050565b6000611819826116de565b61182381856117fd565b93506118338185602086016116fa565b61183c8161116f565b840191505092915050565b6000610100830160008301516118606000860182611385565b5060208301516118736020860182611394565b5060408301516118866040860182611385565b506060830151848203606086015261189e828261180e565b91505060808301516118b360808601826113a3565b5060a08301516118c660a0860182611385565b5060c08301516118d960c0860182611385565b5060e08301516118ec60e0860182611385565b508091505092915050565b600060208201905081810360008301526119118184611847565b905092915050565b600080604083850312156119305761192f6110a9565b5b600061193e858286016110fc565b925050602061194f85828601611223565b9150509250929050565b7f4e6f7420617574686f72697a6564000000000000000000000000000000000000600082015250565b600061198f600e836116e9565b915061199a82611959565b602082019050919050565b600060208201905081810360008301526119be81611982565b9050919050565b7f4e487b7100000000000000000000000000000000000000000000000000000000600052601160045260246000fd5b60006119ff8261106b565b9150611a0a8361106b565b9250828201905080821115611a2257611a216119c5565b5b92915050565b6000611a338261106b565b91507fffffffffffffffffffffffffffffffffffffffffffffffffffffffffffffffff8203611a6557611a646119c5565b5b600182019050919050565b7f4e487b7100000000000000000000000000000000000000000000000000000000600052602260045260246000fd5b60006002820490506001821680611ab757607f821691505b602082108103611aca57611ac9611a70565b5b50919050565b60008190508160005260206000209050919050565b60006020601f8301049050919050565b600082821b905092915050565b600060088302611b327fffffffffffffffffffffffffffffffffffffffffffffffffffffffffffffffff82611af5565b611b3c8683611af5565b95508019841693508086168417925050509392505050565b6000819050919050565b6000611b79611b74611b6f8461106b565b611b54565b61106b565b9050919050565b6000819050919050565b611b9383611b5e565b611ba7611b9f82611b80565b848454611b02565b825550505050565b600090565b611bbc611baf565b611bc7818484611b8a565b505050565b5b81811015611beb57611be0600082611bb4565b600181019050611bcd565b5050565b601f821115611c3057611c0181611ad0565b611c0a84611ae5565b81016020851015611c19578190505b611c2d611c2585611ae5565b830182611bcc565b50505b505050565b600082821c905092915050565b6000611c5360001984600802611c35565b1980831691505092915050565b6000611c6c8383611c42565b9150826002028217905092915050565b611c85826116de565b67ffffffffffffffff811115611c9e57611c9d611180565b5b611ca88254611a9f565b611cb3828285611bef565b600060209050601f831160018114611ce65760008415611cd4578287015190505b611cde8582611c60565b865550611d46565b601f198416611cf486611ad0565b60005b82811015611d1c57848901518255600182019150602085019450602081019050611cf7565b86831015611d395784890151611d35601f891682611c42565b8355505b6001600288020188555050505b505050505050565b7f4f6e6c79206f776e657200000000000000000000000000000000000000000000600082015250565b6000611d84600a836116e9565b9150611d8f82611d4e565b602082019050919050565b60006020820190508181036000830152611db381611d77565b905091905056fea26469706673582212207254d9322345c12905fc0aee06636484f797f1b215af99abec46dbbcb9bc78ea64736f6c634300081c0033",
  "linkReferences": {},
  "deployedLinkReferences": {}
}