{
  "_format": "hh-sol-artifact-1",
  "contractName": "ZaanetContract",
  "sourceName": "contracts/ZaanetContract.sol",
  "abi": [
    {
      "inputs": [],
      "stateMutability": "nonpayable",
      "type": "constructor"
    },
    {
      "inputs": [],
      "name": "EnforcedPause",
      "type": "error"
    },
    {
      "inputs": [],
      "name": "ExpectedPause",
      "type": "error"
    },
    {
      "inputs": [],
      "name": "ReentrancyGuardReentrantCall",
      "type": "error"
    },
    {
      "anonymous": false,
      "inputs": [
        {
          "indexed": false,
          "internalType": "uint256",
          "name": "newFeePercent",
          "type": "uint256"
        }
      ],
      "name": "FeePercentUpdated",
      "type": "event"
    },
    {
      "anonymous": false,
      "inputs": [
        {
          "indexed": false,
          "internalType": "uint256",
          "name": "id",
          "type": "uint256"
        },
        {
          "indexed": false,
          "internalType": "address",
          "name": "hostAddress",
          "type": "address"
        }
      ],
      "name": "HostDeleted",
      "type": "event"
    },
    {
      "anonymous": false,
      "inputs": [
        {
          "indexed": false,
          "internalType": "uint256",
          "name": "id",
          "type": "uint256"
        },
        {
          "indexed": false,
          "internalType": "address",
          "name": "hostAddress",
          "type": "address"
        }
      ],
      "name": "HostedNetworkUpdated",
      "type": "event"
    },
    {
      "anonymous": false,
      "inputs": [
        {
          "indexed": false,
          "internalType": "uint256",
          "name": "id",
          "type": "uint256"
        },
        {
          "indexed": false,
          "internalType": "address",
          "name": "hostAddress",
          "type": "address"
        }
      ],
      "name": "NewNetworkHosted",
      "type": "event"
    },
    {
      "anonymous": false,
      "inputs": [
        {
          "indexed": false,
          "internalType": "address",
          "name": "account",
          "type": "address"
        }
      ],
      "name": "Paused",
      "type": "event"
    },
    {
      "anonymous": false,
      "inputs": [
        {
          "indexed": false,
          "internalType": "uint256",
          "name": "id",
          "type": "uint256"
        },
        {
          "indexed": false,
          "internalType": "address",
          "name": "user",
          "type": "address"
        },
        {
          "indexed": false,
          "internalType": "uint256",
          "name": "amount",
          "type": "uint256"
        },
        {
          "indexed": false,
          "internalType": "uint256",
          "name": "timestamp",
          "type": "uint256"
        }
      ],
      "name": "PaymentReceived",
      "type": "event"
    },
    {
      "anonymous": false,
      "inputs": [
        {
          "indexed": false,
          "internalType": "address",
          "name": "account",
          "type": "address"
        }
      ],
      "name": "Unpaused",
      "type": "event"
    },
    {
      "inputs": [],
      "name": "MAX_HOSTS",
      "outputs": [
        {
          "internalType": "uint256",
          "name": "",
          "type": "uint256"
        }
      ],
      "stateMutability": "view",
      "type": "function"
    },
    {
      "inputs": [
        {
          "internalType": "uint256",
          "name": "_id",
          "type": "uint256"
        }
      ],
      "name": "acceptPayment",
      "outputs": [],
      "stateMutability": "payable",
      "type": "function"
    },
    {
      "inputs": [
        {
          "internalType": "uint256",
          "name": "_id",
          "type": "uint256"
        }
      ],
      "name": "deleteHostedNetwork",
      "outputs": [],
      "stateMutability": "nonpayable",
      "type": "function"
    },
    {
      "inputs": [
        {
          "internalType": "uint256",
          "name": "_id",
          "type": "uint256"
        }
      ],
      "name": "getHostedNetworkById",
      "outputs": [
        {
          "components": [
            {
              "internalType": "uint256",
              "name": "id",
              "type": "uint256"
            },
            {
              "internalType": "address",
              "name": "hostAddress",
              "type": "address"
            },
            {
              "internalType": "string",
              "name": "name",
              "type": "string"
            },
            {
              "internalType": "string",
              "name": "passwordCID",
              "type": "string"
            },
            {
              "components": [
                {
                  "internalType": "string",
                  "name": "city",
                  "type": "string"
                },
                {
                  "internalType": "string",
                  "name": "country",
                  "type": "string"
                },
                {
                  "internalType": "string",
                  "name": "area",
                  "type": "string"
                },
                {
                  "internalType": "string",
                  "name": "latitude",
                  "type": "string"
                },
                {
                  "internalType": "string",
                  "name": "longitude",
                  "type": "string"
                }
              ],
              "internalType": "struct ZaanetContract.Location",
              "name": "location",
              "type": "tuple"
            },
            {
              "internalType": "string",
              "name": "wifispeed",
              "type": "string"
            },
            {
              "internalType": "uint256",
              "name": "price",
              "type": "uint256"
            },
            {
              "internalType": "string",
              "name": "description",
              "type": "string"
            },
            {
              "internalType": "string",
              "name": "imageCID",
              "type": "string"
            },
            {
              "internalType": "bool",
              "name": "isActive",
              "type": "bool"
            },
            {
              "internalType": "uint256",
              "name": "createdAt",
              "type": "uint256"
            },
            {
              "internalType": "uint256",
              "name": "updatedAt",
              "type": "uint256"
            }
          ],
          "internalType": "struct ZaanetContract.ZaanetHost",
          "name": "",
          "type": "tuple"
        }
      ],
      "stateMutability": "view",
      "type": "function"
    },
    {
      "inputs": [
        {
          "internalType": "address",
          "name": "_host",
          "type": "address"
        }
      ],
      "name": "getHostedNetworksByAddress",
      "outputs": [
        {
          "components": [
            {
              "internalType": "uint256",
              "name": "id",
              "type": "uint256"
            },
            {
              "internalType": "address",
              "name": "hostAddress",
              "type": "address"
            },
            {
              "internalType": "string",
              "name": "name",
              "type": "string"
            },
            {
              "internalType": "string",
              "name": "passwordCID",
              "type": "string"
            },
            {
              "components": [
                {
                  "internalType": "string",
                  "name": "city",
                  "type": "string"
                },
                {
                  "internalType": "string",
                  "name": "country",
                  "type": "string"
                },
                {
                  "internalType": "string",
                  "name": "area",
                  "type": "string"
                },
                {
                  "internalType": "string",
                  "name": "latitude",
                  "type": "string"
                },
                {
                  "internalType": "string",
                  "name": "longitude",
                  "type": "string"
                }
              ],
              "internalType": "struct ZaanetContract.Location",
              "name": "location",
              "type": "tuple"
            },
            {
              "internalType": "string",
              "name": "wifispeed",
              "type": "string"
            },
            {
              "internalType": "uint256",
              "name": "price",
              "type": "uint256"
            },
            {
              "internalType": "string",
              "name": "description",
              "type": "string"
            },
            {
              "internalType": "string",
              "name": "imageCID",
              "type": "string"
            },
            {
              "internalType": "bool",
              "name": "isActive",
              "type": "bool"
            },
            {
              "internalType": "uint256",
              "name": "createdAt",
              "type": "uint256"
            },
            {
              "internalType": "uint256",
              "name": "updatedAt",
              "type": "uint256"
            }
          ],
          "internalType": "struct ZaanetContract.ZaanetHost[]",
          "name": "",
          "type": "tuple[]"
        }
      ],
      "stateMutability": "view",
      "type": "function"
    },
    {
      "inputs": [
        {
          "internalType": "uint256",
          "name": "_id",
          "type": "uint256"
        }
      ],
      "name": "getPasswordCID",
      "outputs": [
        {
          "internalType": "string",
          "name": "",
          "type": "string"
        }
      ],
      "stateMutability": "view",
      "type": "function"
    },
    {
      "inputs": [
        {
          "internalType": "uint256",
          "name": "",
          "type": "uint256"
        },
        {
          "internalType": "address",
          "name": "",
          "type": "address"
        }
      ],
      "name": "hasPaid",
      "outputs": [
        {
          "internalType": "bool",
          "name": "",
          "type": "bool"
        }
      ],
      "stateMutability": "view",
      "type": "function"
    },
    {
      "inputs": [
        {
          "internalType": "string",
          "name": "_name",
          "type": "string"
        },
        {
          "internalType": "string",
          "name": "_passwordCID",
          "type": "string"
        },
        {
          "internalType": "string",
          "name": "_city",
          "type": "string"
        },
        {
          "internalType": "string",
          "name": "_country",
          "type": "string"
        },
        {
          "internalType": "string",
          "name": "_area",
          "type": "string"
        },
        {
          "internalType": "string",
          "name": "_latitude",
          "type": "string"
        },
        {
          "internalType": "string",
          "name": "_longitude",
          "type": "string"
        },
        {
          "internalType": "string",
          "name": "_wifispeed",
          "type": "string"
        },
        {
          "internalType": "uint256",
          "name": "_price",
          "type": "uint256"
        },
        {
          "internalType": "string",
          "name": "_description",
          "type": "string"
        },
        {
          "internalType": "string",
          "name": "_imageCID",
          "type": "string"
        }
      ],
      "name": "hostANetwork",
      "outputs": [],
      "stateMutability": "nonpayable",
      "type": "function"
    },
    {
      "inputs": [
        {
          "internalType": "uint256",
          "name": "",
          "type": "uint256"
        }
      ],
      "name": "hostedNetworkById",
      "outputs": [
        {
          "internalType": "uint256",
          "name": "id",
          "type": "uint256"
        },
        {
          "internalType": "address",
          "name": "hostAddress",
          "type": "address"
        },
        {
          "internalType": "string",
          "name": "name",
          "type": "string"
        },
        {
          "internalType": "string",
          "name": "passwordCID",
          "type": "string"
        },
        {
          "components": [
            {
              "internalType": "string",
              "name": "city",
              "type": "string"
            },
            {
              "internalType": "string",
              "name": "country",
              "type": "string"
            },
            {
              "internalType": "string",
              "name": "area",
              "type": "string"
            },
            {
              "internalType": "string",
              "name": "latitude",
              "type": "string"
            },
            {
              "internalType": "string",
              "name": "longitude",
              "type": "string"
            }
          ],
          "internalType": "struct ZaanetContract.Location",
          "name": "location",
          "type": "tuple"
        },
        {
          "internalType": "string",
          "name": "wifispeed",
          "type": "string"
        },
        {
          "internalType": "uint256",
          "name": "price",
          "type": "uint256"
        },
        {
          "internalType": "string",
          "name": "description",
          "type": "string"
        },
        {
          "internalType": "string",
          "name": "imageCID",
          "type": "string"
        },
        {
          "internalType": "bool",
          "name": "isActive",
          "type": "bool"
        },
        {
          "internalType": "uint256",
          "name": "createdAt",
          "type": "uint256"
        },
        {
          "internalType": "uint256",
          "name": "updatedAt",
          "type": "uint256"
        }
      ],
      "stateMutability": "view",
      "type": "function"
    },
    {
      "inputs": [
        {
          "internalType": "address",
          "name": "",
          "type": "address"
        },
        {
          "internalType": "uint256",
          "name": "",
          "type": "uint256"
        }
      ],
      "name": "hostedNetworksByAddress",
      "outputs": [
        {
          "internalType": "uint256",
          "name": "id",
          "type": "uint256"
        },
        {
          "internalType": "address",
          "name": "hostAddress",
          "type": "address"
        },
        {
          "internalType": "string",
          "name": "name",
          "type": "string"
        },
        {
          "internalType": "string",
          "name": "passwordCID",
          "type": "string"
        },
        {
          "components": [
            {
              "internalType": "string",
              "name": "city",
              "type": "string"
            },
            {
              "internalType": "string",
              "name": "country",
              "type": "string"
            },
            {
              "internalType": "string",
              "name": "area",
              "type": "string"
            },
            {
              "internalType": "string",
              "name": "latitude",
              "type": "string"
            },
            {
              "internalType": "string",
              "name": "longitude",
              "type": "string"
            }
          ],
          "internalType": "struct ZaanetContract.Location",
          "name": "location",
          "type": "tuple"
        },
        {
          "internalType": "string",
          "name": "wifispeed",
          "type": "string"
        },
        {
          "internalType": "uint256",
          "name": "price",
          "type": "uint256"
        },
        {
          "internalType": "string",
          "name": "description",
          "type": "string"
        },
        {
          "internalType": "string",
          "name": "imageCID",
          "type": "string"
        },
        {
          "internalType": "bool",
          "name": "isActive",
          "type": "bool"
        },
        {
          "internalType": "uint256",
          "name": "createdAt",
          "type": "uint256"
        },
        {
          "internalType": "uint256",
          "name": "updatedAt",
          "type": "uint256"
        }
      ],
      "stateMutability": "view",
      "type": "function"
    },
    {
      "inputs": [
        {
          "internalType": "address",
          "name": "",
          "type": "address"
        }
      ],
      "name": "isHost",
      "outputs": [
        {
          "internalType": "bool",
          "name": "",
          "type": "bool"
        }
      ],
      "stateMutability": "view",
      "type": "function"
    },
    {
      "inputs": [],
      "name": "networkIdCounter",
      "outputs": [
        {
          "internalType": "uint256",
          "name": "",
          "type": "uint256"
        }
      ],
      "stateMutability": "view",
      "type": "function"
    },
    {
      "inputs": [
        {
          "internalType": "address",
          "name": "",
          "type": "address"
        },
        {
          "internalType": "uint256",
          "name": "",
          "type": "uint256"
        }
      ],
      "name": "networkIdsByAddress",
      "outputs": [
        {
          "internalType": "uint256",
          "name": "",
          "type": "uint256"
        }
      ],
      "stateMutability": "view",
      "type": "function"
    },
    {
      "inputs": [],
      "name": "owner",
      "outputs": [
        {
          "internalType": "address",
          "name": "",
          "type": "address"
        }
      ],
      "stateMutability": "view",
      "type": "function"
    },
    {
      "inputs": [],
      "name": "pause",
      "outputs": [],
      "stateMutability": "nonpayable",
      "type": "function"
    },
    {
      "inputs": [],
      "name": "paused",
      "outputs": [
        {
          "internalType": "bool",
          "name": "",
          "type": "bool"
        }
      ],
      "stateMutability": "view",
      "type": "function"
    },
    {
      "inputs": [
        {
          "internalType": "address",
          "name": "",
          "type": "address"
        }
      ],
      "name": "totalEarnedByAddress",
      "outputs": [
        {
          "internalType": "uint256",
          "name": "",
          "type": "uint256"
        }
      ],
      "stateMutability": "view",
      "type": "function"
    },
    {
      "inputs": [
        {
          "internalType": "uint256",
          "name": "",
          "type": "uint256"
        }
      ],
      "name": "totalEarnedByHostedNetwork",
      "outputs": [
        {
          "internalType": "uint256",
          "name": "",
          "type": "uint256"
        }
      ],
      "stateMutability": "view",
      "type": "function"
    },
    {
      "inputs": [],
      "name": "unpause",
      "outputs": [],
      "stateMutability": "nonpayable",
      "type": "function"
    },
    {
      "inputs": [
        {
          "internalType": "uint256",
          "name": "_id",
          "type": "uint256"
        },
        {
          "components": [
            {
              "internalType": "string",
              "name": "name",
              "type": "string"
            },
            {
              "internalType": "string",
              "name": "passwordCID",
              "type": "string"
            },
            {
              "internalType": "string",
              "name": "city",
              "type": "string"
            },
            {
              "internalType": "string",
              "name": "country",
              "type": "string"
            },
            {
              "internalType": "string",
              "name": "area",
              "type": "string"
            },
            {
              "internalType": "string",
              "name": "latitude",
              "type": "string"
            },
            {
              "internalType": "string",
              "name": "longitude",
              "type": "string"
            },
            {
              "internalType": "string",
              "name": "wifispeed",
              "type": "string"
            },
            {
              "internalType": "uint256",
              "name": "price",
              "type": "uint256"
            },
            {
              "internalType": "string",
              "name": "description",
              "type": "string"
            },
            {
              "internalType": "string",
              "name": "imageCID",
              "type": "string"
            },
            {
              "internalType": "bool",
              "name": "isActive",
              "type": "bool"
            }
          ],
          "internalType": "struct ZaanetContract.UpdateNetworkParams",
          "name": "params",
          "type": "tuple"
        }
      ],
      "name": "updateHostedNetwork",
      "outputs": [],
      "stateMutability": "nonpayable",
      "type": "function"
    },
    {
      "inputs": [
        {
          "internalType": "uint256",
          "name": "_newFeePercent",
          "type": "uint256"
        }
      ],
      "name": "updateZaanetFeePercent",
      "outputs": [],
      "stateMutability": "nonpayable",
      "type": "function"
    },
    {
      "inputs": [],
      "name": "withdrawFees",
      "outputs": [],
      "stateMutability": "nonpayable",
      "type": "function"
    },
    {
      "inputs": [],
      "name": "zaanetFeePercent",
      "outputs": [
        {
          "internalType": "uint256",
          "name": "",
          "type": "uint256"
        }
      ],
      "stateMutability": "view",
      "type": "function"
    }
  ],
  "bytecode": "0x60806040526005600355348015601457600080fd5b50600160008190555033600460006101000a81548173ffffffffffffffffffffffffffffffffffffffff021916908373ffffffffffffffffffffffffffffffffffffffff1602179055506000600281905550615f38806100756000396000f3fe6080604052600436106101405760003560e01c80638456cb59116100b6578063bf846e041161006f578063bf846e0414610441578063c87b66161461045d578063cd83fb9a1461049a578063d8bc7fff146104d7578063eb2931b714610514578063efd3268e1461055157610140565b80638456cb59146103315780638da5cb5b146103485780638e1daeec14610373578063aeba84611461039c578063b6202c78146103c7578063bc3ede291461040457610140565b80633f4ba83a116101085780633f4ba83a14610247578063476343ee1461025e5780634d0e5d13146102755780635c975abb146102b257806361043f59146102dd57806377e7eba51461030657610140565b8063034148001461014557806306eaca0f1461016e57806320765bd1146101ab578063217c682d146101d4578063357740a3146101ff575b600080fd5b34801561015157600080fd5b5061016c600480360381019061016791906147f3565b610599565b005b34801561017a57600080fd5b50610195600480360381019061019091906148ad565b610b13565b6040516101a291906148e9565b60405180910390f35b3480156101b757600080fd5b506101d260048036038101906101cd9190614904565b610b2b565b005b3480156101e057600080fd5b506101e9611032565b6040516101f691906148e9565b60405180910390f35b34801561020b57600080fd5b5061022660048036038101906102219190614931565b611038565b60405161023e9c9b9a99989796959493929190614aea565b60405180910390f35b34801561025357600080fd5b5061025c61165e565b005b34801561026a57600080fd5b506102736116f8565b005b34801561028157600080fd5b5061029c60048036038101906102979190614931565b61183c565b6040516102a991906148e9565b60405180910390f35b3480156102be57600080fd5b506102c761186d565b6040516102d49190614bce565b60405180910390f35b3480156102e957600080fd5b5061030460048036038101906102ff9190614904565b611884565b005b34801561031257600080fd5b5061031b6119dd565b60405161032891906148e9565b60405180910390f35b34801561033d57600080fd5b506103466119e2565b005b34801561035457600080fd5b5061035d611a7c565b60405161036a9190614be9565b60405180910390f35b34801561037f57600080fd5b5061039a60048036038101906103959190614c04565b611aa2565b005b3480156103a857600080fd5b506103b1612115565b6040516103be91906148e9565b60405180910390f35b3480156103d357600080fd5b506103ee60048036038101906103e991906148ad565b61211b565b6040516103fb91906150b8565b60405180910390f35b34801561041057600080fd5b5061042b60048036038101906104269190614904565b612921565b60405161043891906148e9565b60405180910390f35b61045b60048036038101906104569190614904565b612939565b005b34801561046957600080fd5b50610484600480360381019061047f9190614904565b613250565b60405161049191906150da565b60405180910390f35b3480156104a657600080fd5b506104c160048036038101906104bc9190614904565b6133ee565b6040516104ce9190615223565b60405180910390f35b3480156104e357600080fd5b506104fe60048036038101906104f99190615245565b613ad6565b60405161050b9190614bce565b60405180910390f35b34801561052057600080fd5b5061053b600480360381019061053691906148ad565b613b05565b6040516105489190614bce565b60405180910390f35b34801561055d57600080fd5b5061057860048036038101906105739190614904565b613b25565b6040516105909c9b9a99989796959493929190614aea565b60405180910390f35b6105a161413e565b60006008600084815260200190815260200160002060000154036105fa576040517f08c379a00000000000000000000000000000000000000000000000000000000081526004016105f1906152d1565b60405180910390fd5b3373ffffffffffffffffffffffffffffffffffffffff166008600084815260200190815260200160002060010160009054906101000a900473ffffffffffffffffffffffffffffffffffffffff1673ffffffffffffffffffffffffffffffffffffffff161461069e576040517f08c379a00000000000000000000000000000000000000000000000000000000081526004016106959061533d565b60405180910390fd5b6000816000015151116106e6576040517f08c379a00000000000000000000000000000000000000000000000000000000081526004016106dd906153a9565b60405180910390fd5b60008160200151511161072e576040517f08c379a000000000000000000000000000000000000000000000000000000000815260040161072590615415565b60405180910390fd5b600081610100015111610776576040517f08c379a000000000000000000000000000000000000000000000000000000000815260040161076d90615481565b60405180910390fd5b600060086000848152602001908152602001600020905081600001518160020190816107a291906156ad565b5081602001518160030190816107b891906156ad565b506040518060a001604052808360400151815260200183606001518152602001836080015181526020018360a0015181526020018360c0015181525081600401600082015181600001908161080d91906156ad565b50602082015181600101908161082391906156ad565b50604082015181600201908161083991906156ad565b50606082015181600301908161084f91906156ad565b50608082015181600401908161086591906156ad565b509050508160e0015181600901908161087e91906156ad565b5081610100015181600a018190555081610120015181600b0190816108a391906156ad565b5081610140015181600c0190816108ba91906156ad565b504281600f018190555081610160015181600d0160006101000a81548160ff02191690831515021790555080600560003373ffffffffffffffffffffffffffffffffffffffff1673ffffffffffffffffffffffffffffffffffffffff1681526020019081526020016000206000858152602001908152602001600020600082015481600001556001820160009054906101000a900473ffffffffffffffffffffffffffffffffffffffff168160010160006101000a81548173ffffffffffffffffffffffffffffffffffffffff021916908373ffffffffffffffffffffffffffffffffffffffff160217905550600282018160020190816109bb9190615795565b50600382018160030190816109d09190615795565b506004820181600401600082018160000190816109ed9190615795565b5060018201816001019081610a029190615795565b5060028201816002019081610a179190615795565b5060038201816003019081610a2c9190615795565b5060048201816004019081610a419190615795565b50505060098201816009019081610a589190615795565b50600a82015481600a0155600b820181600b019081610a779190615795565b50600c820181600c019081610a8c9190615795565b50600d820160009054906101000a900460ff1681600d0160006101000a81548160ff021916908315150217905550600e82015481600e0155600f82015481600f01559050507f1b405fec10a051ff3085c73e2e829750feb4a5367f94813845e70a2094674354816000015433604051610b0692919061587d565b60405180910390a1505050565b600b6020528060005260406000206000915090505481565b610b3361413e565b60006008600083815260200190815260200160002090506000816000015403610b91576040517f08c379a0000000000000000000000000000000000000000000000000000000008152600401610b88906152d1565b60405180910390fd5b3373ffffffffffffffffffffffffffffffffffffffff168160010160009054906101000a900473ffffffffffffffffffffffffffffffffffffffff1673ffffffffffffffffffffffffffffffffffffffff1614610c23576040517f08c379a0000000000000000000000000000000000000000000000000000000008152600401610c1a906158f2565b60405180910390fd5b600860008381526020019081526020016000206000808201600090556001820160006101000a81549073ffffffffffffffffffffffffffffffffffffffff0219169055600282016000610c7691906142dc565b600382016000610c8691906142dc565b6004820160008082016000610c9b91906142dc565b600182016000610cab91906142dc565b600282016000610cbb91906142dc565b600382016000610ccb91906142dc565b600482016000610cdb91906142dc565b5050600982016000610ced91906142dc565b600a820160009055600b82016000610d0591906142dc565b600c82016000610d1591906142dc565b600d820160006101000a81549060ff0219169055600e820160009055600f8201600090555050600560003373ffffffffffffffffffffffffffffffffffffffff1673ffffffffffffffffffffffffffffffffffffffff16815260200190815260200160002060008381526020019081526020016000206000808201600090556001820160006101000a81549073ffffffffffffffffffffffffffffffffffffffff0219169055600282016000610dcb91906142dc565b600382016000610ddb91906142dc565b6004820160008082016000610df091906142dc565b600182016000610e0091906142dc565b600282016000610e1091906142dc565b600382016000610e2091906142dc565b600482016000610e3091906142dc565b5050600982016000610e4291906142dc565b600a820160009055600b82016000610e5a91906142dc565b600c82016000610e6a91906142dc565b600d820160006101000a81549060ff0219169055600e820160009055600f82016000905550506000600660003373ffffffffffffffffffffffffffffffffffffffff1673ffffffffffffffffffffffffffffffffffffffff168152602001908152602001600020905060005b8180549050811015610f8e5783828281548110610ef657610ef5615912565b5b906000526020600020015403610f81578160018380549050610f189190615970565b81548110610f2957610f28615912565b5b9060005260206000200154828281548110610f4757610f46615912565b5b906000526020600020018190555081805480610f6657610f656159a4565b5b60019003818190600052602060002001600090559055610f8e565b8080600101915050610ed6565b506000818054905003610ff4576000600760003373ffffffffffffffffffffffffffffffffffffffff1673ffffffffffffffffffffffffffffffffffffffff16815260200190815260200160002060006101000a81548160ff0219169083151502179055505b7f730235942568740698ea239cf71ee4b193696db908a2aa74401b28a743e25d19833360405161102592919061587d565b60405180910390a1505050565b60025481565b6005602052816000526040600020602052806000526040600020600091509150508060000154908060010160009054906101000a900473ffffffffffffffffffffffffffffffffffffffff1690806002018054611094906154d0565b80601f01602080910402602001604051908101604052809291908181526020018280546110c0906154d0565b801561110d5780601f106110e25761010080835404028352916020019161110d565b820191906000526020600020905b8154815290600101906020018083116110f057829003601f168201915b505050505090806003018054611122906154d0565b80601f016020809104026020016040519081016040528092919081815260200182805461114e906154d0565b801561119b5780601f106111705761010080835404028352916020019161119b565b820191906000526020600020905b81548152906001019060200180831161117e57829003601f168201915b505050505090806004016040518060a00160405290816000820180546111c0906154d0565b80601f01602080910402602001604051908101604052809291908181526020018280546111ec906154d0565b80156112395780601f1061120e57610100808354040283529160200191611239565b820191906000526020600020905b81548152906001019060200180831161121c57829003601f168201915b50505050508152602001600182018054611252906154d0565b80601f016020809104026020016040519081016040528092919081815260200182805461127e906154d0565b80156112cb5780601f106112a0576101008083540402835291602001916112cb565b820191906000526020600020905b8154815290600101906020018083116112ae57829003601f168201915b505050505081526020016002820180546112e4906154d0565b80601f0160208091040260200160405190810160405280929190818152602001828054611310906154d0565b801561135d5780601f106113325761010080835404028352916020019161135d565b820191906000526020600020905b81548152906001019060200180831161134057829003601f168201915b50505050508152602001600382018054611376906154d0565b80601f01602080910402602001604051908101604052809291908181526020018280546113a2906154d0565b80156113ef5780601f106113c4576101008083540402835291602001916113ef565b820191906000526020600020905b8154815290600101906020018083116113d257829003601f168201915b50505050508152602001600482018054611408906154d0565b80601f0160208091040260200160405190810160405280929190818152602001828054611434906154d0565b80156114815780601f1061145657610100808354040283529160200191611481565b820191906000526020600020905b81548152906001019060200180831161146457829003601f168201915b5050505050815250509080600901805461149a906154d0565b80601f01602080910402602001604051908101604052809291908181526020018280546114c6906154d0565b80156115135780601f106114e857610100808354040283529160200191611513565b820191906000526020600020905b8154815290600101906020018083116114f657829003601f168201915b50505050509080600a01549080600b01805461152e906154d0565b80601f016020809104026020016040519081016040528092919081815260200182805461155a906154d0565b80156115a75780601f1061157c576101008083540402835291602001916115a7565b820191906000526020600020905b81548152906001019060200180831161158a57829003601f168201915b50505050509080600c0180546115bc906154d0565b80601f01602080910402602001604051908101604052809291908181526020018280546115e8906154d0565b80156116355780601f1061160a57610100808354040283529160200191611635565b820191906000526020600020905b81548152906001019060200180831161161857829003601f168201915b50505050509080600d0160009054906101000a900460ff169080600e01549080600f015490508c565b600460009054906101000a900473ffffffffffffffffffffffffffffffffffffffff1673ffffffffffffffffffffffffffffffffffffffff163373ffffffffffffffffffffffffffffffffffffffff16146116ee576040517f08c379a00000000000000000000000000000000000000000000000000000000081526004016116e590615a1f565b60405180910390fd5b6116f661417f565b565b600460009054906101000a900473ffffffffffffffffffffffffffffffffffffffff1673ffffffffffffffffffffffffffffffffffffffff163373ffffffffffffffffffffffffffffffffffffffff1614611788576040517f08c379a000000000000000000000000000000000000000000000000000000000815260040161177f90615a1f565b60405180910390fd5b6000479050600081116117d0576040517f08c379a00000000000000000000000000000000000000000000000000000000081526004016117c790615a8b565b60405180910390fd5b600460009054906101000a900473ffffffffffffffffffffffffffffffffffffffff1673ffffffffffffffffffffffffffffffffffffffff166108fc829081150290604051600060405180830381858888f19350505050158015611838573d6000803e3d6000fd5b5050565b6006602052816000526040600020818154811061185857600080fd5b90600052602060002001600091509150505481565b6000600160009054906101000a900460ff16905090565b600460009054906101000a900473ffffffffffffffffffffffffffffffffffffffff1673ffffffffffffffffffffffffffffffffffffffff163373ffffffffffffffffffffffffffffffffffffffff1614611914576040517f08c379a000000000000000000000000000000000000000000000000000000000815260040161190b90615a1f565b60405180910390fd5b6064811115611958576040517f08c379a000000000000000000000000000000000000000000000000000000000815260040161194f90615af7565b60405180910390fd5b600181101561199c576040517f08c379a000000000000000000000000000000000000000000000000000000000815260040161199390615b63565b60405180910390fd5b806003819055507f64d1887078a96d281ed60dd69ba75bfb6b5cd2cb4c2d2538b2eb7816a4c646ea816040516119d291906148e9565b60405180910390a150565b600381565b600460009054906101000a900473ffffffffffffffffffffffffffffffffffffffff1673ffffffffffffffffffffffffffffffffffffffff163373ffffffffffffffffffffffffffffffffffffffff1614611a72576040517f08c379a0000000000000000000000000000000000000000000000000000000008152600401611a6990615a1f565b60405180910390fd5b611a7a6141e2565b565b600460009054906101000a900473ffffffffffffffffffffffffffffffffffffffff1681565b611aaa61413e565b6003600660003373ffffffffffffffffffffffffffffffffffffffff1673ffffffffffffffffffffffffffffffffffffffff1681526020019081526020016000208054905010611b2f576040517f08c379a0000000000000000000000000000000000000000000000000000000008152600401611b2690615bcf565b60405180910390fd5b60008b5111611b73576040517f08c379a0000000000000000000000000000000000000000000000000000000008152600401611b6a906153a9565b60405180910390fd5b60008a5111611bb7576040517f08c379a0000000000000000000000000000000000000000000000000000000008152600401611bae90615415565b60405180910390fd5b60008311611bfa576040517f08c379a0000000000000000000000000000000000000000000000000000000008152600401611bf190615c3b565b60405180910390fd5b60026000815480929190611c0d90615c5b565b9190505550600060405180610180016040528060025481526020013373ffffffffffffffffffffffffffffffffffffffff1681526020018d81526020018c81526020016040518060a001604052808d81526020018c81526020018b81526020018a815260200189815250815260200186815260200185815260200184815260200183815260200160011515815260200142815260200142815250905080600560003373ffffffffffffffffffffffffffffffffffffffff1673ffffffffffffffffffffffffffffffffffffffff168152602001908152602001600020600060025481526020019081526020016000206000820151816000015560208201518160010160006101000a81548173ffffffffffffffffffffffffffffffffffffffff021916908373ffffffffffffffffffffffffffffffffffffffff1602179055506040820151816002019081611d6291906156ad565b506060820151816003019081611d7891906156ad565b506080820151816004016000820151816000019081611d9791906156ad565b506020820151816001019081611dad91906156ad565b506040820151816002019081611dc391906156ad565b506060820151816003019081611dd991906156ad565b506080820151816004019081611def91906156ad565b50505060a0820151816009019081611e0791906156ad565b5060c082015181600a015560e082015181600b019081611e2791906156ad565b5061010082015181600c019081611e3e91906156ad565b5061012082015181600d0160006101000a81548160ff02191690831515021790555061014082015181600e015561016082015181600f0155905050600660003373ffffffffffffffffffffffffffffffffffffffff1673ffffffffffffffffffffffffffffffffffffffff1681526020019081526020016000206002549080600181540180825580915050600190039060005260206000200160009091909190915055806008600060025481526020019081526020016000206000820151816000015560208201518160010160006101000a81548173ffffffffffffffffffffffffffffffffffffffff021916908373ffffffffffffffffffffffffffffffffffffffff1602179055506040820151816002019081611f5d91906156ad565b506060820151816003019081611f7391906156ad565b506080820151816004016000820151816000019081611f9291906156ad565b506020820151816001019081611fa891906156ad565b506040820151816002019081611fbe91906156ad565b506060820151816003019081611fd491906156ad565b506080820151816004019081611fea91906156ad565b50505060a082015181600901908161200291906156ad565b5060c082015181600a015560e082015181600b01908161202291906156ad565b5061010082015181600c01908161203991906156ad565b5061012082015181600d0160006101000a81548160ff02191690831515021790555061014082015181600e015561016082015181600f01559050506001600760003373ffffffffffffffffffffffffffffffffffffffff1673ffffffffffffffffffffffffffffffffffffffff16815260200190815260200160002060006101000a81548160ff0219169083151502179055507faa6ea937647a143ac1963bc631eebf4e2808e8df788a660ac48e2b6f25417af3600254336040516120ff92919061587d565b60405180910390a1505050505050505050505050565b60035481565b60606000600660008473ffffffffffffffffffffffffffffffffffffffff1673ffffffffffffffffffffffffffffffffffffffff1681526020019081526020016000208054806020026020016040519081016040528092919081815260200182805480156121a857602002820191906000526020600020905b815481526020019060010190808311612194575b505050505090506000815167ffffffffffffffff8111156121cc576121cb614447565b5b60405190808252806020026020018201604052801561220557816020015b6121f261431c565b8152602001906001900390816121ea5790505b50905060005b825181101561291657600560008673ffffffffffffffffffffffffffffffffffffffff1673ffffffffffffffffffffffffffffffffffffffff168152602001908152602001600020600084838151811061226857612267615912565b5b6020026020010151815260200190815260200160002060405180610180016040529081600082015481526020016001820160009054906101000a900473ffffffffffffffffffffffffffffffffffffffff1673ffffffffffffffffffffffffffffffffffffffff1673ffffffffffffffffffffffffffffffffffffffff1681526020016002820180546122fa906154d0565b80601f0160208091040260200160405190810160405280929190818152602001828054612326906154d0565b80156123735780601f1061234857610100808354040283529160200191612373565b820191906000526020600020905b81548152906001019060200180831161235657829003601f168201915b5050505050815260200160038201805461238c906154d0565b80601f01602080910402602001604051908101604052809291908181526020018280546123b8906154d0565b80156124055780601f106123da57610100808354040283529160200191612405565b820191906000526020600020905b8154815290600101906020018083116123e857829003601f168201915b50505050508152602001600482016040518060a001604052908160008201805461242e906154d0565b80601f016020809104026020016040519081016040528092919081815260200182805461245a906154d0565b80156124a75780601f1061247c576101008083540402835291602001916124a7565b820191906000526020600020905b81548152906001019060200180831161248a57829003601f168201915b505050505081526020016001820180546124c0906154d0565b80601f01602080910402602001604051908101604052809291908181526020018280546124ec906154d0565b80156125395780601f1061250e57610100808354040283529160200191612539565b820191906000526020600020905b81548152906001019060200180831161251c57829003601f168201915b50505050508152602001600282018054612552906154d0565b80601f016020809104026020016040519081016040528092919081815260200182805461257e906154d0565b80156125cb5780601f106125a0576101008083540402835291602001916125cb565b820191906000526020600020905b8154815290600101906020018083116125ae57829003601f168201915b505050505081526020016003820180546125e4906154d0565b80601f0160208091040260200160405190810160405280929190818152602001828054612610906154d0565b801561265d5780601f106126325761010080835404028352916020019161265d565b820191906000526020600020905b81548152906001019060200180831161264057829003601f168201915b50505050508152602001600482018054612676906154d0565b80601f01602080910402602001604051908101604052809291908181526020018280546126a2906154d0565b80156126ef5780601f106126c4576101008083540402835291602001916126ef565b820191906000526020600020905b8154815290600101906020018083116126d257829003601f168201915b505050505081525050815260200160098201805461270c906154d0565b80601f0160208091040260200160405190810160405280929190818152602001828054612738906154d0565b80156127855780601f1061275a57610100808354040283529160200191612785565b820191906000526020600020905b81548152906001019060200180831161276857829003601f168201915b50505050508152602001600a8201548152602001600b820180546127a8906154d0565b80601f01602080910402602001604051908101604052809291908181526020018280546127d4906154d0565b80156128215780601f106127f657610100808354040283529160200191612821565b820191906000526020600020905b81548152906001019060200180831161280457829003601f168201915b50505050508152602001600c8201805461283a906154d0565b80601f0160208091040260200160405190810160405280929190818152602001828054612866906154d0565b80156128b35780601f10612888576101008083540402835291602001916128b3565b820191906000526020600020905b81548152906001019060200180831161289657829003601f168201915b50505050508152602001600d820160009054906101000a900460ff16151515158152602001600e8201548152602001600f820154815250508282815181106128fe576128fd615912565b5b6020026020010181905250808060010191505061220b565b508092505050919050565b600a6020528060005260406000206000915090505481565b612941614244565b61294961413e565b60006008600083815260200190815260200160002060405180610180016040529081600082015481526020016001820160009054906101000a900473ffffffffffffffffffffffffffffffffffffffff1673ffffffffffffffffffffffffffffffffffffffff1673ffffffffffffffffffffffffffffffffffffffff1681526020016002820180546129da906154d0565b80601f0160208091040260200160405190810160405280929190818152602001828054612a06906154d0565b8015612a535780601f10612a2857610100808354040283529160200191612a53565b820191906000526020600020905b815481529060010190602001808311612a3657829003601f168201915b50505050508152602001600382018054612a6c906154d0565b80601f0160208091040260200160405190810160405280929190818152602001828054612a98906154d0565b8015612ae55780601f10612aba57610100808354040283529160200191612ae5565b820191906000526020600020905b815481529060010190602001808311612ac857829003601f168201915b50505050508152602001600482016040518060a0016040529081600082018054612b0e906154d0565b80601f0160208091040260200160405190810160405280929190818152602001828054612b3a906154d0565b8015612b875780601f10612b5c57610100808354040283529160200191612b87565b820191906000526020600020905b815481529060010190602001808311612b6a57829003601f168201915b50505050508152602001600182018054612ba0906154d0565b80601f0160208091040260200160405190810160405280929190818152602001828054612bcc906154d0565b8015612c195780601f10612bee57610100808354040283529160200191612c19565b820191906000526020600020905b815481529060010190602001808311612bfc57829003601f168201915b50505050508152602001600282018054612c32906154d0565b80601f0160208091040260200160405190810160405280929190818152602001828054612c5e906154d0565b8015612cab5780601f10612c8057610100808354040283529160200191612cab565b820191906000526020600020905b815481529060010190602001808311612c8e57829003601f168201915b50505050508152602001600382018054612cc4906154d0565b80601f0160208091040260200160405190810160405280929190818152602001828054612cf0906154d0565b8015612d3d5780601f10612d1257610100808354040283529160200191612d3d565b820191906000526020600020905b815481529060010190602001808311612d2057829003601f168201915b50505050508152602001600482018054612d56906154d0565b80601f0160208091040260200160405190810160405280929190818152602001828054612d82906154d0565b8015612dcf5780601f10612da457610100808354040283529160200191612dcf565b820191906000526020600020905b815481529060010190602001808311612db257829003601f168201915b5050505050815250508152602001600982018054612dec906154d0565b80601f0160208091040260200160405190810160405280929190818152602001828054612e18906154d0565b8015612e655780601f10612e3a57610100808354040283529160200191612e65565b820191906000526020600020905b815481529060010190602001808311612e4857829003601f168201915b50505050508152602001600a8201548152602001600b82018054612e88906154d0565b80601f0160208091040260200160405190810160405280929190818152602001828054612eb4906154d0565b8015612f015780601f10612ed657610100808354040283529160200191612f01565b820191906000526020600020905b815481529060010190602001808311612ee457829003601f168201915b50505050508152602001600c82018054612f1a906154d0565b80601f0160208091040260200160405190810160405280929190818152602001828054612f46906154d0565b8015612f935780601f10612f6857610100808354040283529160200191612f93565b820191906000526020600020905b815481529060010190602001808311612f7657829003601f168201915b50505050508152602001600d820160009054906101000a900460ff16151515158152602001600e8201548152602001600f8201548152505090506000816000015103613014576040517f08c379a000000000000000000000000000000000000000000000000000000000815260040161300b906152d1565b60405180910390fd5b806101200151613059576040517f08c379a000000000000000000000000000000000000000000000000000000000815260040161305090615cef565b60405180910390fd5b8060c00151341461309f576040517f08c379a000000000000000000000000000000000000000000000000000000000815260040161309690615d5b565b60405180910390fd5b60006064600354346130b19190615d7b565b6130bb9190615dec565b9050600081346130cb9190615970565b905060016009600086815260200190815260200160002060003373ffffffffffffffffffffffffffffffffffffffff1673ffffffffffffffffffffffffffffffffffffffff16815260200190815260200160002060006101000a81548160ff0219169083151502179055507f1ccb44f7994f1a3d2e759376c53231768e4c9cd9b230ad05d26d158cf6ac66cf8433344260405161316b9493929190615e1d565b60405180910390a1826020015173ffffffffffffffffffffffffffffffffffffffff166108fc829081150290604051600060405180830381858888f193505050501580156131bd573d6000803e3d6000fd5b5080600a600086815260200190815260200160002060008282546131e19190615e62565b9250508190555080600b6000856020015173ffffffffffffffffffffffffffffffffffffffff1673ffffffffffffffffffffffffffffffffffffffff168152602001908152602001600020600082825461323b9190615e62565b9250508190555050505061324d61428a565b50565b606060006008600084815260200190815260200160002060000154036132ab576040517f08c379a00000000000000000000000000000000000000000000000000000000081526004016132a2906152d1565b60405180910390fd5b6009600083815260200190815260200160002060003373ffffffffffffffffffffffffffffffffffffffff1673ffffffffffffffffffffffffffffffffffffffff16815260200190815260200160002060009054906101000a900460ff16613348576040517f08c379a000000000000000000000000000000000000000000000000000000000815260040161333f90615ee2565b60405180910390fd5b600860008381526020019081526020016000206003018054613369906154d0565b80601f0160208091040260200160405190810160405280929190818152602001828054613395906154d0565b80156133e25780601f106133b7576101008083540402835291602001916133e2565b820191906000526020600020905b8154815290600101906020018083116133c557829003601f168201915b50505050509050919050565b6133f661431c565b600060086000848152602001908152602001600020600001540361344f576040517f08c379a0000000000000000000000000000000000000000000000000000000008152600401613446906152d1565b60405180910390fd5b6008600083815260200190815260200160002060405180610180016040529081600082015481526020016001820160009054906101000a900473ffffffffffffffffffffffffffffffffffffffff1673ffffffffffffffffffffffffffffffffffffffff1673ffffffffffffffffffffffffffffffffffffffff1681526020016002820180546134de906154d0565b80601f016020809104026020016040519081016040528092919081815260200182805461350a906154d0565b80156135575780601f1061352c57610100808354040283529160200191613557565b820191906000526020600020905b81548152906001019060200180831161353a57829003601f168201915b50505050508152602001600382018054613570906154d0565b80601f016020809104026020016040519081016040528092919081815260200182805461359c906154d0565b80156135e95780601f106135be576101008083540402835291602001916135e9565b820191906000526020600020905b8154815290600101906020018083116135cc57829003601f168201915b50505050508152602001600482016040518060a0016040529081600082018054613612906154d0565b80601f016020809104026020016040519081016040528092919081815260200182805461363e906154d0565b801561368b5780601f106136605761010080835404028352916020019161368b565b820191906000526020600020905b81548152906001019060200180831161366e57829003601f168201915b505050505081526020016001820180546136a4906154d0565b80601f01602080910402602001604051908101604052809291908181526020018280546136d0906154d0565b801561371d5780601f106136f25761010080835404028352916020019161371d565b820191906000526020600020905b81548152906001019060200180831161370057829003601f168201915b50505050508152602001600282018054613736906154d0565b80601f0160208091040260200160405190810160405280929190818152602001828054613762906154d0565b80156137af5780601f10613784576101008083540402835291602001916137af565b820191906000526020600020905b81548152906001019060200180831161379257829003601f168201915b505050505081526020016003820180546137c8906154d0565b80601f01602080910402602001604051908101604052809291908181526020018280546137f4906154d0565b80156138415780601f1061381657610100808354040283529160200191613841565b820191906000526020600020905b81548152906001019060200180831161382457829003601f168201915b5050505050815260200160048201805461385a906154d0565b80601f0160208091040260200160405190810160405280929190818152602001828054613886906154d0565b80156138d35780601f106138a8576101008083540402835291602001916138d3565b820191906000526020600020905b8154815290600101906020018083116138b657829003601f168201915b50505050508152505081526020016009820180546138f0906154d0565b80601f016020809104026020016040519081016040528092919081815260200182805461391c906154d0565b80156139695780601f1061393e57610100808354040283529160200191613969565b820191906000526020600020905b81548152906001019060200180831161394c57829003601f168201915b50505050508152602001600a8201548152602001600b8201805461398c906154d0565b80601f01602080910402602001604051908101604052809291908181526020018280546139b8906154d0565b8015613a055780601f106139da57610100808354040283529160200191613a05565b820191906000526020600020905b8154815290600101906020018083116139e857829003601f168201915b50505050508152602001600c82018054613a1e906154d0565b80601f0160208091040260200160405190810160405280929190818152602001828054613a4a906154d0565b8015613a975780601f10613a6c57610100808354040283529160200191613a97565b820191906000526020600020905b815481529060010190602001808311613a7a57829003601f168201915b50505050508152602001600d820160009054906101000a900460ff16151515158152602001600e8201548152602001600f820154815250509050919050565b60096020528160005260406000206020528060005260406000206000915091509054906101000a900460ff1681565b60076020528060005260406000206000915054906101000a900460ff1681565b60086020528060005260406000206000915090508060000154908060010160009054906101000a900473ffffffffffffffffffffffffffffffffffffffff1690806002018054613b74906154d0565b80601f0160208091040260200160405190810160405280929190818152602001828054613ba0906154d0565b8015613bed5780601f10613bc257610100808354040283529160200191613bed565b820191906000526020600020905b815481529060010190602001808311613bd057829003601f168201915b505050505090806003018054613c02906154d0565b80601f0160208091040260200160405190810160405280929190818152602001828054613c2e906154d0565b8015613c7b5780601f10613c5057610100808354040283529160200191613c7b565b820191906000526020600020905b815481529060010190602001808311613c5e57829003601f168201915b505050505090806004016040518060a0016040529081600082018054613ca0906154d0565b80601f0160208091040260200160405190810160405280929190818152602001828054613ccc906154d0565b8015613d195780601f10613cee57610100808354040283529160200191613d19565b820191906000526020600020905b815481529060010190602001808311613cfc57829003601f168201915b50505050508152602001600182018054613d32906154d0565b80601f0160208091040260200160405190810160405280929190818152602001828054613d5e906154d0565b8015613dab5780601f10613d8057610100808354040283529160200191613dab565b820191906000526020600020905b815481529060010190602001808311613d8e57829003601f168201915b50505050508152602001600282018054613dc4906154d0565b80601f0160208091040260200160405190810160405280929190818152602001828054613df0906154d0565b8015613e3d5780601f10613e1257610100808354040283529160200191613e3d565b820191906000526020600020905b815481529060010190602001808311613e2057829003601f168201915b50505050508152602001600382018054613e56906154d0565b80601f0160208091040260200160405190810160405280929190818152602001828054613e82906154d0565b8015613ecf5780601f10613ea457610100808354040283529160200191613ecf565b820191906000526020600020905b815481529060010190602001808311613eb257829003601f168201915b50505050508152602001600482018054613ee8906154d0565b80601f0160208091040260200160405190810160405280929190818152602001828054613f14906154d0565b8015613f615780601f10613f3657610100808354040283529160200191613f61565b820191906000526020600020905b815481529060010190602001808311613f4457829003601f168201915b50505050508152505090806009018054613f7a906154d0565b80601f0160208091040260200160405190810160405280929190818152602001828054613fa6906154d0565b8015613ff35780601f10613fc857610100808354040283529160200191613ff3565b820191906000526020600020905b815481529060010190602001808311613fd657829003601f168201915b50505050509080600a01549080600b01805461400e906154d0565b80601f016020809104026020016040519081016040528092919081815260200182805461403a906154d0565b80156140875780601f1061405c57610100808354040283529160200191614087565b820191906000526020600020905b81548152906001019060200180831161406a57829003601f168201915b50505050509080600c01805461409c906154d0565b80601f01602080910402602001604051908101604052809291908181526020018280546140c8906154d0565b80156141155780601f106140ea57610100808354040283529160200191614115565b820191906000526020600020905b8154815290600101906020018083116140f857829003601f168201915b50505050509080600d0160009054906101000a900460ff169080600e01549080600f015490508c565b61414661186d565b1561417d576040517fd93c066500000000000000000000000000000000000000000000000000000000815260040160405180910390fd5b565b614187614294565b6000600160006101000a81548160ff0219169083151502179055507f5db9ee0a495bf2e6ff9c91a7834c1ba4fdd244a5e8aa4e537bd38aeae4b073aa6141cb6142d4565b6040516141d89190614be9565b60405180910390a1565b6141ea61413e565b60018060006101000a81548160ff0219169083151502179055507f62e78cea01bee320cd4e420270b5ea74000d11b0c9f74754ebdbfc544b05a25861422d6142d4565b60405161423a9190614be9565b60405180910390a1565b600260005403614280576040517f3ee5aeb500000000000000000000000000000000000000000000000000000000815260040160405180910390fd5b6002600081905550565b6001600081905550565b61429c61186d565b6142d2576040517f8dfc202b00000000000000000000000000000000000000000000000000000000815260040160405180910390fd5b565b600033905090565b5080546142e8906154d0565b6000825580601f106142fa5750614319565b601f016020900490600052602060002090810190614318919061439b565b5b50565b60405180610180016040528060008152602001600073ffffffffffffffffffffffffffffffffffffffff16815260200160608152602001606081526020016143626143b8565b81526020016060815260200160008152602001606081526020016060815260200160001515815260200160008152602001600081525090565b5b808211156143b457600081600090555060010161439c565b5090565b6040518060a0016040528060608152602001606081526020016060815260200160608152602001606081525090565b6000604051905090565b600080fd5b600080fd5b6000819050919050565b61440e816143fb565b811461441957600080fd5b50565b60008135905061442b81614405565b92915050565b600080fd5b6000601f19601f8301169050919050565b7f4e487b7100000000000000000000000000000000000000000000000000000000600052604160045260246000fd5b61447f82614436565b810181811067ffffffffffffffff8211171561449e5761449d614447565b5b80604052505050565b60006144b16143e7565b90506144bd8282614476565b919050565b600080fd5b600080fd5b600080fd5b600067ffffffffffffffff8211156144ec576144eb614447565b5b6144f582614436565b9050602081019050919050565b82818337600083830152505050565b600061452461451f846144d1565b6144a7565b9050828152602081018484840111156145405761453f6144cc565b5b61454b848285614502565b509392505050565b600082601f830112614568576145676144c7565b5b8135614578848260208601614511565b91505092915050565b60008115159050919050565b61459681614581565b81146145a157600080fd5b50565b6000813590506145b38161458d565b92915050565b600061018082840312156145d0576145cf614431565b5b6145db6101806144a7565b9050600082013567ffffffffffffffff8111156145fb576145fa6144c2565b5b61460784828501614553565b600083015250602082013567ffffffffffffffff81111561462b5761462a6144c2565b5b61463784828501614553565b602083015250604082013567ffffffffffffffff81111561465b5761465a6144c2565b5b61466784828501614553565b604083015250606082013567ffffffffffffffff81111561468b5761468a6144c2565b5b61469784828501614553565b606083015250608082013567ffffffffffffffff8111156146bb576146ba6144c2565b5b6146c784828501614553565b60808301525060a082013567ffffffffffffffff8111156146eb576146ea6144c2565b5b6146f784828501614553565b60a08301525060c082013567ffffffffffffffff81111561471b5761471a6144c2565b5b61472784828501614553565b60c08301525060e082013567ffffffffffffffff81111561474b5761474a6144c2565b5b61475784828501614553565b60e08301525061010061476c8482850161441c565b6101008301525061012082013567ffffffffffffffff811115614792576147916144c2565b5b61479e84828501614553565b6101208301525061014082013567ffffffffffffffff8111156147c4576147c36144c2565b5b6147d084828501614553565b610140830152506101606147e6848285016145a4565b6101608301525092915050565b6000806040838503121561480a576148096143f1565b5b60006148188582860161441c565b925050602083013567ffffffffffffffff811115614839576148386143f6565b5b614845858286016145b9565b9150509250929050565b600073ffffffffffffffffffffffffffffffffffffffff82169050919050565b600061487a8261484f565b9050919050565b61488a8161486f565b811461489557600080fd5b50565b6000813590506148a781614881565b92915050565b6000602082840312156148c3576148c26143f1565b5b60006148d184828501614898565b91505092915050565b6148e3816143fb565b82525050565b60006020820190506148fe60008301846148da565b92915050565b60006020828403121561491a576149196143f1565b5b60006149288482850161441c565b91505092915050565b60008060408385031215614948576149476143f1565b5b600061495685828601614898565b92505060206149678582860161441c565b9150509250929050565b61497a8161486f565b82525050565b600081519050919050565b600082825260208201905092915050565b60005b838110156149ba57808201518184015260208101905061499f565b60008484015250505050565b60006149d182614980565b6149db818561498b565b93506149eb81856020860161499c565b6149f481614436565b840191505092915050565b600082825260208201905092915050565b6000614a1b82614980565b614a2581856149ff565b9350614a3581856020860161499c565b614a3e81614436565b840191505092915050565b600060a0830160008301518482036000860152614a668282614a10565b91505060208301518482036020860152614a808282614a10565b91505060408301518482036040860152614a9a8282614a10565b91505060608301518482036060860152614ab48282614a10565b91505060808301518482036080860152614ace8282614a10565b9150508091505092915050565b614ae481614581565b82525050565b600061018082019050614b00600083018f6148da565b614b0d602083018e614971565b8181036040830152614b1f818d6149c6565b90508181036060830152614b33818c6149c6565b90508181036080830152614b47818b614a49565b905081810360a0830152614b5b818a6149c6565b9050614b6a60c08301896148da565b81810360e0830152614b7c81886149c6565b9050818103610100830152614b9181876149c6565b9050614ba1610120830186614adb565b614baf6101408301856148da565b614bbd6101608301846148da565b9d9c50505050505050505050505050565b6000602082019050614be36000830184614adb565b92915050565b6000602082019050614bfe6000830184614971565b92915050565b60008060008060008060008060008060006101608c8e031215614c2a57614c296143f1565b5b60008c013567ffffffffffffffff811115614c4857614c476143f6565b5b614c548e828f01614553565b9b505060208c013567ffffffffffffffff811115614c7557614c746143f6565b5b614c818e828f01614553565b9a505060408c013567ffffffffffffffff811115614ca257614ca16143f6565b5b614cae8e828f01614553565b99505060608c013567ffffffffffffffff811115614ccf57614cce6143f6565b5b614cdb8e828f01614553565b98505060808c013567ffffffffffffffff811115614cfc57614cfb6143f6565b5b614d088e828f01614553565b97505060a08c013567ffffffffffffffff811115614d2957614d286143f6565b5b614d358e828f01614553565b96505060c08c013567ffffffffffffffff811115614d5657614d556143f6565b5b614d628e828f01614553565b95505060e08c013567ffffffffffffffff811115614d8357614d826143f6565b5b614d8f8e828f01614553565b945050610100614da18e828f0161441c565b9350506101208c013567ffffffffffffffff811115614dc357614dc26143f6565b5b614dcf8e828f01614553565b9250506101408c013567ffffffffffffffff811115614df157614df06143f6565b5b614dfd8e828f01614553565b9150509295989b509295989b9093969950565b600081519050919050565b600082825260208201905092915050565b6000819050602082019050919050565b614e45816143fb565b82525050565b614e548161486f565b82525050565b600060a0830160008301518482036000860152614e778282614a10565b91505060208301518482036020860152614e918282614a10565b91505060408301518482036040860152614eab8282614a10565b91505060608301518482036060860152614ec58282614a10565b91505060808301518482036080860152614edf8282614a10565b9150508091505092915050565b614ef581614581565b82525050565b600061018083016000830151614f146000860182614e3c565b506020830151614f276020860182614e4b565b5060408301518482036040860152614f3f8282614a10565b91505060608301518482036060860152614f598282614a10565b91505060808301518482036080860152614f738282614e5a565b91505060a083015184820360a0860152614f8d8282614a10565b91505060c0830151614fa260c0860182614e3c565b5060e083015184820360e0860152614fba8282614a10565b915050610100830151848203610100860152614fd68282614a10565b915050610120830151614fed610120860182614eec565b50610140830151615002610140860182614e3c565b50610160830151615017610160860182614e3c565b508091505092915050565b600061502e8383614efb565b905092915050565b6000602082019050919050565b600061504e82614e10565b6150588185614e1b565b93508360208202850161506a85614e2c565b8060005b858110156150a657848403895281516150878582615022565b945061509283615036565b925060208a0199505060018101905061506e565b50829750879550505050505092915050565b600060208201905081810360008301526150d28184615043565b905092915050565b600060208201905081810360008301526150f481846149c6565b905092915050565b6000610180830160008301516151156000860182614e3c565b5060208301516151286020860182614e4b565b50604083015184820360408601526151408282614a10565b9150506060830151848203606086015261515a8282614a10565b915050608083015184820360808601526151748282614e5a565b91505060a083015184820360a086015261518e8282614a10565b91505060c08301516151a360c0860182614e3c565b5060e083015184820360e08601526151bb8282614a10565b9150506101008301518482036101008601526151d78282614a10565b9150506101208301516151ee610120860182614eec565b50610140830151615203610140860182614e3c565b50610160830151615218610160860182614e3c565b508091505092915050565b6000602082019050818103600083015261523d81846150fc565b905092915050565b6000806040838503121561525c5761525b6143f1565b5b600061526a8582860161441c565b925050602061527b85828601614898565b9150509250929050565b7f4e6574776f726b206e6f74206578697374000000000000000000000000000000600082015250565b60006152bb60118361498b565b91506152c682615285565b602082019050919050565b600060208201905081810360008301526152ea816152ae565b9050919050565b7f596f7520617265206e6f742074686520686f7374000000000000000000000000600082015250565b600061532760148361498b565b9150615332826152f1565b602082019050919050565b600060208201905081810360008301526153568161531a565b9050919050565b7f4e616d6520656d70747900000000000000000000000000000000000000000000600082015250565b6000615393600a8361498b565b915061539e8261535d565b602082019050919050565b600060208201905081810360008301526153c281615386565b9050919050565b7f50617373776f7264207265717569726564000000000000000000000000000000600082015250565b60006153ff60118361498b565b915061540a826153c9565b602082019050919050565b6000602082019050818103600083015261542e816153f2565b9050919050565b7f50726963652063616e2774206265203000000000000000000000000000000000600082015250565b600061546b60108361498b565b915061547682615435565b602082019050919050565b6000602082019050818103600083015261549a8161545e565b9050919050565b7f4e487b7100000000000000000000000000000000000000000000000000000000600052602260045260246000fd5b600060028204905060018216806154e857607f821691505b6020821081036154fb576154fa6154a1565b5b50919050565b60008190508160005260206000209050919050565b60006020601f8301049050919050565b600082821b905092915050565b6000600883026155637fffffffffffffffffffffffffffffffffffffffffffffffffffffffffffffffff82615526565b61556d8683615526565b95508019841693508086168417925050509392505050565b6000819050919050565b60006155aa6155a56155a0846143fb565b615585565b6143fb565b9050919050565b6000819050919050565b6155c48361558f565b6155d86155d0826155b1565b848454615533565b825550505050565b600090565b6155ed6155e0565b6155f88184846155bb565b505050565b5b8181101561561c576156116000826155e5565b6001810190506155fe565b5050565b601f8211156156615761563281615501565b61563b84615516565b8101602085101561564a578190505b61565e61565685615516565b8301826155fd565b50505b505050565b600082821c905092915050565b600061568460001984600802615666565b1980831691505092915050565b600061569d8383615673565b9150826002028217905092915050565b6156b682614980565b67ffffffffffffffff8111156156cf576156ce614447565b5b6156d982546154d0565b6156e4828285615620565b600060209050601f8311600181146157175760008415615705578287015190505b61570f8582615691565b865550615777565b601f19841661572586615501565b60005b8281101561574d57848901518255600182019150602085019450602081019050615728565b8683101561576a5784890151615766601f891682615673565b8355505b6001600288020188555050505b505050505050565b60008154905061578e816154d0565b9050919050565b8181036157a357505061587b565b6157ac8261577f565b67ffffffffffffffff8111156157c5576157c4614447565b5b6157cf82546154d0565b6157da828285615620565b6000601f83116001811461580957600084156157f7578287015490505b6158018582615691565b865550615874565b601f19841661581787615501565b965061582286615501565b60005b8281101561584a57848901548255600182019150600185019450602081019050615825565b868310156158675784890154615863601f891682615673565b8355505b6001600288020188555050505b5050505050505b565b600060408201905061589260008301856148da565b61589f6020830184614971565b9392505050565b7f4f6e6c792074686520686f737400000000000000000000000000000000000000600082015250565b60006158dc600d8361498b565b91506158e7826158a6565b602082019050919050565b6000602082019050818103600083015261590b816158cf565b9050919050565b7f4e487b7100000000000000000000000000000000000000000000000000000000600052603260045260246000fd5b7f4e487b7100000000000000000000000000000000000000000000000000000000600052601160045260246000fd5b600061597b826143fb565b9150615986836143fb565b925082820390508181111561599e5761599d615941565b5b92915050565b7f4e487b7100000000000000000000000000000000000000000000000000000000600052603160045260246000fd5b7f4e6f742074686520636f6e7472616374206f776e657200000000000000000000600082015250565b6000615a0960168361498b565b9150615a14826159d3565b602082019050919050565b60006020820190508181036000830152615a38816159fc565b9050919050565b7f4e6f206665657320746f20776974686472617700000000000000000000000000600082015250565b6000615a7560138361498b565b9150615a8082615a3f565b602082019050919050565b60006020820190508181036000830152615aa481615a68565b9050919050565b7f43616e2774206578636565642031303025000000000000000000000000000000600082015250565b6000615ae160118361498b565b9150615aec82615aab565b602082019050919050565b60006020820190508181036000830152615b1081615ad4565b9050919050565b7f4d7573742062652061746c656173742031250000000000000000000000000000600082015250565b6000615b4d60128361498b565b9150615b5882615b17565b602082019050919050565b60006020820190508181036000830152615b7c81615b40565b9050919050565b7f4d617820686f7374732072656163686564000000000000000000000000000000600082015250565b6000615bb960118361498b565b9150615bc482615b83565b602082019050919050565b60006020820190508181036000830152615be881615bac565b9050919050565b7f5072696365206d7573742062652067726561746572207468616e203000000000600082015250565b6000615c25601c8361498b565b9150615c3082615bef565b602082019050919050565b60006020820190508181036000830152615c5481615c18565b9050919050565b6000615c66826143fb565b91507fffffffffffffffffffffffffffffffffffffffffffffffffffffffffffffffff8203615c9857615c97615941565b5b600182019050919050565b7f4e6574776f726b206e6f74206163746976650000000000000000000000000000600082015250565b6000615cd960128361498b565b9150615ce482615ca3565b602082019050919050565b60006020820190508181036000830152615d0881615ccc565b9050919050565b7f496e636f7272656374207061796d656e7420616d6f756e740000000000000000600082015250565b6000615d4560188361498b565b9150615d5082615d0f565b602082019050919050565b60006020820190508181036000830152615d7481615d38565b9050919050565b6000615d86826143fb565b9150615d91836143fb565b9250828202615d9f816143fb565b91508282048414831517615db657615db5615941565b5b5092915050565b7f4e487b7100000000000000000000000000000000000000000000000000000000600052601260045260246000fd5b6000615df7826143fb565b9150615e02836143fb565b925082615e1257615e11615dbd565b5b828204905092915050565b6000608082019050615e3260008301876148da565b615e3f6020830186614971565b615e4c60408301856148da565b615e5960608301846148da565b95945050505050565b6000615e6d826143fb565b9150615e78836143fb565b9250828201905080821115615e9057615e8f615941565b5b92915050565b7f5061796d656e7420726571756972656400000000000000000000000000000000600082015250565b6000615ecc60108361498b565b9150615ed782615e96565b602082019050919050565b60006020820190508181036000830152615efb81615ebf565b905091905056fea2646970667358221220cd69d521303fc093b479c4350ff71caa95a24a1329e0ac9adb121183058790db64736f6c634300081c0033",
  "linkReferences": {},
  "deployedLinkReferences": {}
}