{
  "_format": "hh-sol-artifact-1",
  "contractName": "ZaaNetPayment",
  "sourceName": "contracts/ZaaNetPayment.sol",
  "abi": [
    {
      "inputs": [
        {
          "internalType": "address",
          "name": "_usdt",
          "type": "address"
        },
        {
          "internalType": "address",
          "name": "_storageContract",
          "type": "address"
        },
        {
          "internalType": "address",
          "name": "_adminContract",
          "type": "address"
        }
      ],
      "stateMutability": "nonpayable",
      "type": "constructor"
    },
    {
      "inputs": [],
      "name": "EnforcedPause",
      "type": "error"
    },
    {
      "inputs": [],
      "name": "ExpectedPause",
      "type": "error"
    },
    {
      "anonymous": false,
      "inputs": [
        {
          "indexed": false,
          "internalType": "address",
          "name": "account",
          "type": "address"
        }
      ],
      "name": "Paused",
      "type": "event"
    },
    {
      "anonymous": false,
      "inputs": [
        {
          "indexed": true,
          "internalType": "uint256",
          "name": "sessionId",
          "type": "uint256"
        },
        {
          "indexed": true,
          "internalType": "uint256",
          "name": "networkId",
          "type": "uint256"
        },
        {
          "indexed": true,
          "internalType": "address",
          "name": "guest",
          "type": "address"
        },
        {
          "indexed": false,
          "internalType": "uint256",
          "name": "amount",
          "type": "uint256"
        },
        {
          "indexed": false,
          "internalType": "uint256",
          "name": "platformFee",
          "type": "uint256"
        }
      ],
      "name": "PaymentReceived",
      "type": "event"
    },
    {
      "anonymous": false,
      "inputs": [
        {
          "indexed": true,
          "internalType": "uint256",
          "name": "sessionId",
          "type": "uint256"
        },
        {
          "indexed": true,
          "internalType": "uint256",
          "name": "networkId",
          "type": "uint256"
        },
        {
          "indexed": true,
          "internalType": "address",
          "name": "guest",
          "type": "address"
        },
        {
          "indexed": false,
          "internalType": "uint256",
          "name": "duration",
          "type": "uint256"
        },
        {
          "indexed": false,
          "internalType": "uint256",
          "name": "amount",
          "type": "uint256"
        },
        {
          "indexed": false,
          "internalType": "bool",
          "name": "active",
          "type": "bool"
        }
      ],
      "name": "SessionStarted",
      "type": "event"
    },
    {
      "anonymous": false,
      "inputs": [
        {
          "indexed": false,
          "internalType": "address",
          "name": "account",
          "type": "address"
        }
      ],
      "name": "Unpaused",
      "type": "event"
    },
    {
      "inputs": [
        {
          "internalType": "uint256",
          "name": "_networkId",
          "type": "uint256"
        },
        {
          "internalType": "uint256",
          "name": "_amount",
          "type": "uint256"
        },
        {
          "internalType": "uint256",
          "name": "_duration",
          "type": "uint256"
        }
      ],
      "name": "acceptPayment",
      "outputs": [],
      "stateMutability": "nonpayable",
      "type": "function"
    },
    {
      "inputs": [],
      "name": "adminContract",
      "outputs": [
        {
          "internalType": "contract ZaaNetAdmin",
          "name": "",
          "type": "address"
        }
      ],
      "stateMutability": "view",
      "type": "function"
    },
    {
      "inputs": [
        {
          "internalType": "uint256",
          "name": "pricePerHour",
          "type": "uint256"
        },
        {
          "internalType": "uint256",
          "name": "duration",
          "type": "uint256"
        }
      ],
      "name": "calculateFees",
      "outputs": [
        {
          "internalType": "uint256",
          "name": "hostAmount",
          "type": "uint256"
        },
        {
          "internalType": "uint256",
          "name": "platformFee",
          "type": "uint256"
        }
      ],
      "stateMutability": "view",
      "type": "function"
    },
    {
      "inputs": [
        {
          "internalType": "uint256",
          "name": "_sessionId",
          "type": "uint256"
        }
      ],
      "name": "getSession",
      "outputs": [
        {
          "components": [
            {
              "internalType": "uint256",
              "name": "sessionId",
              "type": "uint256"
            },
            {
              "internalType": "uint256",
              "name": "networkId",
              "type": "uint256"
            },
            {
              "internalType": "address",
              "name": "guest",
              "type": "address"
            },
            {
              "internalType": "uint256",
              "name": "duration",
              "type": "uint256"
            },
            {
              "internalType": "uint256",
              "name": "amount",
              "type": "uint256"
            },
            {
              "internalType": "bool",
              "name": "active",
              "type": "bool"
            }
          ],
          "internalType": "struct ZaaNetStorage.Session",
          "name": "",
          "type": "tuple"
        }
      ],
      "stateMutability": "view",
      "type": "function"
    },
    {
      "inputs": [],
      "name": "pause",
      "outputs": [],
      "stateMutability": "nonpayable",
      "type": "function"
    },
    {
      "inputs": [],
      "name": "paused",
      "outputs": [
        {
          "internalType": "bool",
          "name": "",
          "type": "bool"
        }
      ],
      "stateMutability": "view",
      "type": "function"
    },
    {
      "inputs": [],
      "name": "storageContract",
      "outputs": [
        {
          "internalType": "contract ZaaNetStorage",
          "name": "",
          "type": "address"
        }
      ],
      "stateMutability": "view",
      "type": "function"
    },
    {
      "inputs": [],
      "name": "unpause",
      "outputs": [],
      "stateMutability": "nonpayable",
      "type": "function"
    },
    {
      "inputs": [],
      "name": "usdt",
      "outputs": [
        {
          "internalType": "contract TestUSDT",
          "name": "",
          "type": "address"
        }
      ],
      "stateMutability": "view",
      "type": "function"
    }
  ],
  "bytecode": "0x608060405234801561001057600080fd5b50604051612073380380612073833981810160405281019061003291906102ad565b600073ffffffffffffffffffffffffffffffffffffffff168373ffffffffffffffffffffffffffffffffffffffff16036100a1576040517f08c379a00000000000000000000000000000000000000000000000000000000081526004016100989061035d565b60405180910390fd5b600073ffffffffffffffffffffffffffffffffffffffff168273ffffffffffffffffffffffffffffffffffffffff1603610110576040517f08c379a0000000000000000000000000000000000000000000000000000000008152600401610107906103c9565b60405180910390fd5b600073ffffffffffffffffffffffffffffffffffffffff168173ffffffffffffffffffffffffffffffffffffffff160361017f576040517f08c379a000000000000000000000000000000000000000000000000000000000815260040161017690610435565b60405180910390fd5b82600060016101000a81548173ffffffffffffffffffffffffffffffffffffffff021916908373ffffffffffffffffffffffffffffffffffffffff16021790555081600160006101000a81548173ffffffffffffffffffffffffffffffffffffffff021916908373ffffffffffffffffffffffffffffffffffffffff16021790555080600260006101000a81548173ffffffffffffffffffffffffffffffffffffffff021916908373ffffffffffffffffffffffffffffffffffffffff160217905550505050610455565b600080fd5b600073ffffffffffffffffffffffffffffffffffffffff82169050919050565b600061027a8261024f565b9050919050565b61028a8161026f565b811461029557600080fd5b50565b6000815190506102a781610281565b92915050565b6000806000606084860312156102c6576102c561024a565b5b60006102d486828701610298565b93505060206102e586828701610298565b92505060406102f686828701610298565b9150509250925092565b600082825260208201905092915050565b7f496e76616c696420555344542061646472657373000000000000000000000000600082015250565b6000610347601483610300565b915061035282610311565b602082019050919050565b600060208201905081810360008301526103768161033a565b9050919050565b7f496e76616c69642053746f726167652061646472657373000000000000000000600082015250565b60006103b3601783610300565b91506103be8261037d565b602082019050919050565b600060208201905081810360008301526103e2816103a6565b9050919050565b7f496e76616c69642041646d696e20616464726573730000000000000000000000600082015250565b600061041f601583610300565b915061042a826103e9565b602082019050919050565b6000602082019050818103600083015261044e81610412565b9050919050565b611c0f806104646000396000f3fe608060405234801561001057600080fd5b50600436106100935760003560e01c80635c975abb116100665780635c975abb1461010e5780637096335b1461012c5780638456cb591461015d578063abc8959614610167578063c05c5e941461018357610093565b806311ce0267146100985780632f48ab7d146100b65780633f4ba83a146100d4578063402ff0db146100de575b600080fd5b6100a06101a1565b6040516100ad9190610f8f565b60405180910390f35b6100be6101c7565b6040516100cb9190610fcb565b60405180910390f35b6100dc6101ed565b005b6100f860048036038101906100f39190611030565b6102f5565b6040516101059190611123565b60405180910390f35b6101166103a0565b604051610123919061114d565b60405180910390f35b61014660048036038101906101419190611168565b6103b6565b6040516101549291906111b7565b60405180910390f35b61016561048f565b005b610181600480360381019061017c91906111e0565b610597565b005b61018b610d4f565b6040516101989190611254565b60405180910390f35b600160009054906101000a900473ffffffffffffffffffffffffffffffffffffffff1681565b600060019054906101000a900473ffffffffffffffffffffffffffffffffffffffff1681565b600260009054906101000a900473ffffffffffffffffffffffffffffffffffffffff1673ffffffffffffffffffffffffffffffffffffffff16638da5cb5b6040518163ffffffff1660e01b8152600401602060405180830381865afa15801561025a573d6000803e3d6000fd5b505050506040513d601f19601f8201168201806040525081019061027e919061129b565b73ffffffffffffffffffffffffffffffffffffffff163373ffffffffffffffffffffffffffffffffffffffff16146102eb576040517f08c379a00000000000000000000000000000000000000000000000000000000081526004016102e290611325565b60405180910390fd5b6102f3610d75565b565b6102fd610ec2565b600160009054906101000a900473ffffffffffffffffffffffffffffffffffffffff1673ffffffffffffffffffffffffffffffffffffffff1663402ff0db836040518263ffffffff1660e01b81526004016103589190611345565b60c060405180830381865afa158015610375573d6000803e3d6000fd5b505050506040513d601f19601f8201168201806040525081019061039991906114d7565b9050919050565b60008060009054906101000a900460ff16905090565b600080600083856103c79190611533565b905060006064600260009054906101000a900473ffffffffffffffffffffffffffffffffffffffff1673ffffffffffffffffffffffffffffffffffffffff16638c639a856040518163ffffffff1660e01b8152600401602060405180830381865afa15801561043a573d6000803e3d6000fd5b505050506040513d601f19601f8201168201806040525081019061045e9190611575565b836104699190611533565b61047391906115d1565b905080826104819190611602565b819350935050509250929050565b600260009054906101000a900473ffffffffffffffffffffffffffffffffffffffff1673ffffffffffffffffffffffffffffffffffffffff16638da5cb5b6040518163ffffffff1660e01b8152600401602060405180830381865afa1580156104fc573d6000803e3d6000fd5b505050506040513d601f19601f82011682018060405250810190610520919061129b565b73ffffffffffffffffffffffffffffffffffffffff163373ffffffffffffffffffffffffffffffffffffffff161461058d576040517f08c379a000000000000000000000000000000000000000000000000000000000815260040161058490611325565b60405180910390fd5b610595610dd7565b565b61059f610e39565b6000600160009054906101000a900473ffffffffffffffffffffffffffffffffffffffff1673ffffffffffffffffffffffffffffffffffffffff166395ea5717856040518263ffffffff1660e01b81526004016105fc9190611345565b600060405180830381865afa158015610619573d6000803e3d6000fd5b505050506040513d6000823e3d601f19601f8201168201806040525081019061064291906117f1565b9050600081600001511415801561065a575080608001515b610699576040517f08c379a000000000000000000000000000000000000000000000000000000000815260040161069090611886565b60405180910390fd5b6000821180156106aa575060188211155b6106e9576040517f08c379a00000000000000000000000000000000000000000000000000000000081526004016106e0906118f2565b60405180910390fd5b6000831161072c576040517f08c379a00000000000000000000000000000000000000000000000000000000081526004016107239061195e565b60405180910390fd5b600082826040015161073e9190611533565b9050808414610782576040517f08c379a0000000000000000000000000000000000000000000000000000000008152600401610779906119ca565b60405180910390fd5b6000600260009054906101000a900473ffffffffffffffffffffffffffffffffffffffff1673ffffffffffffffffffffffffffffffffffffffff16638c639a856040518163ffffffff1660e01b8152600401602060405180830381865afa1580156107f1573d6000803e3d6000fd5b505050506040513d601f19601f820116820180604052508101906108159190611575565b90506000600260009054906101000a900473ffffffffffffffffffffffffffffffffffffffff1673ffffffffffffffffffffffffffffffffffffffff166361d027b36040518163ffffffff1660e01b8152600401602060405180830381865afa158015610886573d6000803e3d6000fd5b505050506040513d601f19601f820116820180604052508101906108aa919061129b565b90506000606483886108bc9190611533565b6108c691906115d1565b9050600081886108d69190611602565b9050600060019054906101000a900473ffffffffffffffffffffffffffffffffffffffff1673ffffffffffffffffffffffffffffffffffffffff166323b872dd3385856040518463ffffffff1660e01b8152600401610937939291906119f9565b6020604051808303816000875af1158015610956573d6000803e3d6000fd5b505050506040513d601f19601f8201168201806040525081019061097a9190611a30565b6109b9576040517f08c379a00000000000000000000000000000000000000000000000000000000081526004016109b090611aa9565b60405180910390fd5b600060019054906101000a900473ffffffffffffffffffffffffffffffffffffffff1673ffffffffffffffffffffffffffffffffffffffff166323b872dd338860200151846040518463ffffffff1660e01b8152600401610a1c939291906119f9565b6020604051808303816000875af1158015610a3b573d6000803e3d6000fd5b505050506040513d601f19601f82011682018060405250810190610a5f9190611a30565b610a9e576040517f08c379a0000000000000000000000000000000000000000000000000000000008152600401610a9590611b15565b60405180910390fd5b600160009054906101000a900473ffffffffffffffffffffffffffffffffffffffff1673ffffffffffffffffffffffffffffffffffffffff1663e1c7a8aa8760200151836040518363ffffffff1660e01b8152600401610aff929190611b35565b600060405180830381600087803b158015610b1957600080fd5b505af1158015610b2d573d6000803e3d6000fd5b505050506000600160009054906101000a900473ffffffffffffffffffffffffffffffffffffffff1673ffffffffffffffffffffffffffffffffffffffff1663cc5076416040518163ffffffff1660e01b81526004016020604051808303816000875af1158015610ba2573d6000803e3d6000fd5b505050506040513d601f19601f82011682018060405250810190610bc69190611575565b9050600160009054906101000a900473ffffffffffffffffffffffffffffffffffffffff1673ffffffffffffffffffffffffffffffffffffffff166339fdf71e826040518060c001604052808581526020018e81526020013373ffffffffffffffffffffffffffffffffffffffff1681526020018c81526020018d8152602001600115158152506040518363ffffffff1660e01b8152600401610c6a929190611b5e565b600060405180830381600087803b158015610c8457600080fd5b505af1158015610c98573d6000803e3d6000fd5b505050503373ffffffffffffffffffffffffffffffffffffffff168a827f9330e4a56aa3e3523f115be50c0e981e6820893e9c69af81b3df11f354c755808b8d6001604051610ce993929190611b87565b60405180910390a43373ffffffffffffffffffffffffffffffffffffffff168a827f5cd7214f6a35088a9d01c8364579ef0efbf9eab3a80310601fbaef534bbb69af8c87604051610d3b9291906111b7565b60405180910390a450505050505050505050565b600260009054906101000a900473ffffffffffffffffffffffffffffffffffffffff1681565b610d7d610e7a565b60008060006101000a81548160ff0219169083151502179055507f5db9ee0a495bf2e6ff9c91a7834c1ba4fdd244a5e8aa4e537bd38aeae4b073aa610dc0610eba565b604051610dcd9190611bbe565b60405180910390a1565b610ddf610e39565b60016000806101000a81548160ff0219169083151502179055507f62e78cea01bee320cd4e420270b5ea74000d11b0c9f74754ebdbfc544b05a258610e22610eba565b604051610e2f9190611bbe565b60405180910390a1565b610e416103a0565b15610e78576040517fd93c066500000000000000000000000000000000000000000000000000000000815260040160405180910390fd5b565b610e826103a0565b610eb8576040517f8dfc202b00000000000000000000000000000000000000000000000000000000815260040160405180910390fd5b565b600033905090565b6040518060c001604052806000815260200160008152602001600073ffffffffffffffffffffffffffffffffffffffff16815260200160008152602001600081526020016000151581525090565b600073ffffffffffffffffffffffffffffffffffffffff82169050919050565b6000819050919050565b6000610f55610f50610f4b84610f10565b610f30565b610f10565b9050919050565b6000610f6782610f3a565b9050919050565b6000610f7982610f5c565b9050919050565b610f8981610f6e565b82525050565b6000602082019050610fa46000830184610f80565b92915050565b6000610fb582610f5c565b9050919050565b610fc581610faa565b82525050565b6000602082019050610fe06000830184610fbc565b92915050565b6000604051905090565b600080fd5b600080fd5b6000819050919050565b61100d81610ffa565b811461101857600080fd5b50565b60008135905061102a81611004565b92915050565b60006020828403121561104657611045610ff0565b5b60006110548482850161101b565b91505092915050565b61106681610ffa565b82525050565b600061107782610f10565b9050919050565b6110878161106c565b82525050565b60008115159050919050565b6110a28161108d565b82525050565b60c0820160008201516110be600085018261105d565b5060208201516110d1602085018261105d565b5060408201516110e4604085018261107e565b5060608201516110f7606085018261105d565b50608082015161110a608085018261105d565b5060a082015161111d60a0850182611099565b50505050565b600060c08201905061113860008301846110a8565b92915050565b6111478161108d565b82525050565b6000602082019050611162600083018461113e565b92915050565b6000806040838503121561117f5761117e610ff0565b5b600061118d8582860161101b565b925050602061119e8582860161101b565b9150509250929050565b6111b181610ffa565b82525050565b60006040820190506111cc60008301856111a8565b6111d960208301846111a8565b9392505050565b6000806000606084860312156111f9576111f8610ff0565b5b60006112078682870161101b565b93505060206112188682870161101b565b92505060406112298682870161101b565b9150509250925092565b600061123e82610f5c565b9050919050565b61124e81611233565b82525050565b60006020820190506112696000830184611245565b92915050565b6112788161106c565b811461128357600080fd5b50565b6000815190506112958161126f565b92915050565b6000602082840312156112b1576112b0610ff0565b5b60006112bf84828501611286565b91505092915050565b600082825260208201905092915050565b7f4e6f742061646d696e0000000000000000000000000000000000000000000000600082015250565b600061130f6009836112c8565b915061131a826112d9565b602082019050919050565b6000602082019050818103600083015261133e81611302565b9050919050565b600060208201905061135a60008301846111a8565b92915050565b600080fd5b6000601f19601f8301169050919050565b7f4e487b7100000000000000000000000000000000000000000000000000000000600052604160045260246000fd5b6113ae82611365565b810181811067ffffffffffffffff821117156113cd576113cc611376565b5b80604052505050565b60006113e0610fe6565b90506113ec82826113a5565b919050565b600080fd5b60008151905061140581611004565b92915050565b6114148161108d565b811461141f57600080fd5b50565b6000815190506114318161140b565b92915050565b600060c0828403121561144d5761144c611360565b5b61145760c06113d6565b90506000611467848285016113f6565b600083015250602061147b848285016113f6565b602083015250604061148f84828501611286565b60408301525060606114a3848285016113f6565b60608301525060806114b7848285016113f6565b60808301525060a06114cb84828501611422565b60a08301525092915050565b600060c082840312156114ed576114ec610ff0565b5b60006114fb84828501611437565b91505092915050565b7f4e487b7100000000000000000000000000000000000000000000000000000000600052601160045260246000fd5b600061153e82610ffa565b915061154983610ffa565b925082820261155781610ffa565b9150828204841483151761156e5761156d611504565b5b5092915050565b60006020828403121561158b5761158a610ff0565b5b6000611599848285016113f6565b91505092915050565b7f4e487b7100000000000000000000000000000000000000000000000000000000600052601260045260246000fd5b60006115dc82610ffa565b91506115e783610ffa565b9250826115f7576115f66115a2565b5b828204905092915050565b600061160d82610ffa565b915061161883610ffa565b92508282039050818111156116305761162f611504565b5b92915050565b600080fd5b600080fd5b600067ffffffffffffffff82111561165b5761165a611376565b5b61166482611365565b9050602081019050919050565b60005b8381101561168f578082015181840152602081019050611674565b60008484015250505050565b60006116ae6116a984611640565b6113d6565b9050828152602081018484840111156116ca576116c961163b565b5b6116d5848285611671565b509392505050565b600082601f8301126116f2576116f1611636565b5b815161170284826020860161169b565b91505092915050565b6000610100828403121561172257611721611360565b5b61172d6101006113d6565b9050600061173d848285016113f6565b600083015250602061175184828501611286565b6020830152506040611765848285016113f6565b604083015250606082015167ffffffffffffffff811115611789576117886113f1565b5b611795848285016116dd565b60608301525060806117a984828501611422565b60808301525060a06117bd848285016113f6565b60a08301525060c06117d1848285016113f6565b60c08301525060e06117e5848285016113f6565b60e08301525092915050565b60006020828403121561180757611806610ff0565b5b600082015167ffffffffffffffff81111561182557611824610ff5565b5b6118318482850161170b565b91505092915050565b7f496e76616c6964206f7220696e616374697665206e6574776f726b0000000000600082015250565b6000611870601b836112c8565b915061187b8261183a565b602082019050919050565b6000602082019050818103600083015261189f81611863565b9050919050565b7f4475726174696f6e206d75737420626520312d323420686f7572730000000000600082015250565b60006118dc601b836112c8565b91506118e7826118a6565b602082019050919050565b6000602082019050818103600083015261190b816118cf565b9050919050565b7f416d6f756e74206d757374206265203e20300000000000000000000000000000600082015250565b60006119486012836112c8565b915061195382611912565b602082019050919050565b600060208201905081810360008301526119778161193b565b9050919050565b7f496e636f7272656374207061796d656e7420616d6f756e740000000000000000600082015250565b60006119b46018836112c8565b91506119bf8261197e565b602082019050919050565b600060208201905081810360008301526119e3816119a7565b9050919050565b6119f38161106c565b82525050565b6000606082019050611a0e60008301866119ea565b611a1b60208301856119ea565b611a2860408301846111a8565b949350505050565b600060208284031215611a4657611a45610ff0565b5b6000611a5484828501611422565b91505092915050565b7f466565207472616e73666572206661696c656400000000000000000000000000600082015250565b6000611a936013836112c8565b9150611a9e82611a5d565b602082019050919050565b60006020820190508181036000830152611ac281611a86565b9050919050565b7f486f7374207472616e73666572206661696c6564000000000000000000000000600082015250565b6000611aff6014836112c8565b9150611b0a82611ac9565b602082019050919050565b60006020820190508181036000830152611b2e81611af2565b9050919050565b6000604082019050611b4a60008301856119ea565b611b5760208301846111a8565b9392505050565b600060e082019050611b7360008301856111a8565b611b8060208301846110a8565b9392505050565b6000606082019050611b9c60008301866111a8565b611ba960208301856111a8565b611bb6604083018461113e565b949350505050565b6000602082019050611bd360008301846119ea565b9291505056fea26469706673582212208e1cad192d50cfdc332940c3d6bd9d891db17c3a37654512e33671ee58bd246c64736f6c634300081c0033",
  "linkReferences": {},
  "deployedLinkReferences": {}
}