{
  "contracts/ZaaNetPayment.sol": {
    "ZaaNetPayment": {
      "abi": [
        {
          "inputs": [
            {
              "internalType": "address",
              "name": "_usdt",
              "type": "address"
            },
            {
              "internalType": "address",
              "name": "_storageContract",
              "type": "address"
            },
            {
              "internalType": "address",
              "name": "_adminContract",
              "type": "address"
            }
          ],
          "stateMutability": "nonpayable",
          "type": "constructor"
        },
        {
          "inputs": [],
          "name": "EnforcedPause",
          "type": "error"
        },
        {
          "inputs": [],
          "name": "ExpectedPause",
          "type": "error"
        },
        {
          "inputs": [
            {
              "internalType": "address",
              "name": "owner",
              "type": "address"
            }
          ],
          "name": "OwnableInvalidOwner",
          "type": "error"
        },
        {
          "inputs": [
            {
              "internalType": "address",
              "name": "account",
              "type": "address"
            }
          ],
          "name": "OwnableUnauthorizedAccount",
          "type": "error"
        },
        {
          "inputs": [],
          "name": "ReentrancyGuardReentrantCall",
          "type": "error"
        },
        {
          "inputs": [
            {
              "internalType": "address",
              "name": "token",
              "type": "address"
            }
          ],
          "name": "SafeERC20FailedOperation",
          "type": "error"
        },
        {
          "anonymous": false,
          "inputs": [
            {
              "indexed": false,
              "internalType": "uint256",
              "name": "batchSize",
              "type": "uint256"
            },
            {
              "indexed": false,
              "internalType": "uint256",
              "name": "totalAmount",
              "type": "uint256"
            },
            {
              "indexed": false,
              "internalType": "uint256",
              "name": "totalPlatformFee",
              "type": "uint256"
            }
          ],
          "name": "BatchPaymentProcessed",
          "type": "event"
        },
        {
          "anonymous": false,
          "inputs": [
            {
              "indexed": true,
              "internalType": "address",
              "name": "treasury",
              "type": "address"
            },
            {
              "indexed": false,
              "internalType": "uint256",
              "name": "attemptedAmount",
              "type": "uint256"
            },
            {
              "indexed": false,
              "internalType": "uint256",
              "name": "dailyLimit",
              "type": "uint256"
            },
            {
              "indexed": false,
              "internalType": "uint256",
              "name": "alreadyWithdrawn",
              "type": "uint256"
            }
          ],
          "name": "DailyLimitExceeded",
          "type": "event"
        },
        {
          "anonymous": false,
          "inputs": [
            {
              "indexed": true,
              "internalType": "address",
              "name": "previousOwner",
              "type": "address"
            },
            {
              "indexed": true,
              "internalType": "address",
              "name": "newOwner",
              "type": "address"
            }
          ],
          "name": "OwnershipTransferred",
          "type": "event"
        },
        {
          "anonymous": false,
          "inputs": [
            {
              "indexed": false,
              "internalType": "address",
              "name": "account",
              "type": "address"
            }
          ],
          "name": "Paused",
          "type": "event"
        },
        {
          "anonymous": false,
          "inputs": [
            {
              "indexed": true,
              "internalType": "bytes32",
              "name": "voucherId",
              "type": "bytes32"
            },
            {
              "indexed": true,
              "internalType": "uint256",
              "name": "contractId",
              "type": "uint256"
            },
            {
              "indexed": true,
              "internalType": "address",
              "name": "host",
              "type": "address"
            },
            {
              "indexed": false,
              "internalType": "address",
              "name": "payer",
              "type": "address"
            },
            {
              "indexed": false,
              "internalType": "uint256",
              "name": "grossAmount",
              "type": "uint256"
            },
            {
              "indexed": false,
              "internalType": "uint256",
              "name": "platformFee",
              "type": "uint256"
            },
            {
              "indexed": false,
              "internalType": "uint256",
              "name": "hostAmount",
              "type": "uint256"
            },
            {
              "indexed": false,
              "internalType": "uint256",
              "name": "timestamp",
              "type": "uint256"
            }
          ],
          "name": "PaymentProcessed",
          "type": "event"
        },
        {
          "anonymous": false,
          "inputs": [
            {
              "indexed": false,
              "internalType": "address",
              "name": "account",
              "type": "address"
            }
          ],
          "name": "Unpaused",
          "type": "event"
        },
        {
          "inputs": [],
          "name": "MAX_FEERATE_PERCENT",
          "outputs": [
            {
              "internalType": "uint256",
              "name": "",
              "type": "uint256"
            }
          ],
          "stateMutability": "view",
          "type": "function"
        },
        {
          "inputs": [],
          "name": "MAX_INDIVIDUAL_PAYMENT",
          "outputs": [
            {
              "internalType": "uint256",
              "name": "",
              "type": "uint256"
            }
          ],
          "stateMutability": "view",
          "type": "function"
        },
        {
          "inputs": [],
          "name": "adminContract",
          "outputs": [
            {
              "internalType": "contract IZaaNetAdmin",
              "name": "",
              "type": "address"
            }
          ],
          "stateMutability": "view",
          "type": "function"
        },
        {
          "inputs": [],
          "name": "contractTokenBalance",
          "outputs": [
            {
              "internalType": "uint256",
              "name": "",
              "type": "uint256"
            }
          ],
          "stateMutability": "view",
          "type": "function"
        },
        {
          "inputs": [],
          "name": "dailyWithdrawalLimit",
          "outputs": [
            {
              "internalType": "uint256",
              "name": "",
              "type": "uint256"
            }
          ],
          "stateMutability": "view",
          "type": "function"
        },
        {
          "inputs": [
            {
              "internalType": "uint256",
              "name": "",
              "type": "uint256"
            }
          ],
          "name": "dailyWithdrawals",
          "outputs": [
            {
              "internalType": "uint256",
              "name": "",
              "type": "uint256"
            }
          ],
          "stateMutability": "view",
          "type": "function"
        },
        {
          "inputs": [],
          "name": "getRemainingDailyLimit",
          "outputs": [
            {
              "internalType": "uint256",
              "name": "",
              "type": "uint256"
            }
          ],
          "stateMutability": "view",
          "type": "function"
        },
        {
          "inputs": [],
          "name": "getTodayWithdrawals",
          "outputs": [
            {
              "internalType": "uint256",
              "name": "",
              "type": "uint256"
            }
          ],
          "stateMutability": "view",
          "type": "function"
        },
        {
          "inputs": [
            {
              "internalType": "bytes32",
              "name": "_voucherId",
              "type": "bytes32"
            }
          ],
          "name": "isVoucherProcessed",
          "outputs": [
            {
              "internalType": "bool",
              "name": "",
              "type": "bool"
            }
          ],
          "stateMutability": "view",
          "type": "function"
        },
        {
          "inputs": [],
          "name": "owner",
          "outputs": [
            {
              "internalType": "address",
              "name": "",
              "type": "address"
            }
          ],
          "stateMutability": "view",
          "type": "function"
        },
        {
          "inputs": [],
          "name": "pause",
          "outputs": [],
          "stateMutability": "nonpayable",
          "type": "function"
        },
        {
          "inputs": [],
          "name": "paused",
          "outputs": [
            {
              "internalType": "bool",
              "name": "",
              "type": "bool"
            }
          ],
          "stateMutability": "view",
          "type": "function"
        },
        {
          "inputs": [
            {
              "components": [
                {
                  "internalType": "uint256",
                  "name": "contractId",
                  "type": "uint256"
                },
                {
                  "internalType": "uint256",
                  "name": "grossAmount",
                  "type": "uint256"
                },
                {
                  "internalType": "bytes32",
                  "name": "voucherId",
                  "type": "bytes32"
                }
              ],
              "internalType": "struct ZaaNetPayment.BatchPayment[]",
              "name": "payments",
              "type": "tuple[]"
            }
          ],
          "name": "processBatchPayments",
          "outputs": [],
          "stateMutability": "nonpayable",
          "type": "function"
        },
        {
          "inputs": [
            {
              "internalType": "uint256",
              "name": "_contractId",
              "type": "uint256"
            },
            {
              "internalType": "uint256",
              "name": "_grossAmount",
              "type": "uint256"
            },
            {
              "internalType": "bytes32",
              "name": "_voucherId",
              "type": "bytes32"
            }
          ],
          "name": "processPayment",
          "outputs": [],
          "stateMutability": "nonpayable",
          "type": "function"
        },
        {
          "inputs": [
            {
              "internalType": "bytes32",
              "name": "",
              "type": "bytes32"
            }
          ],
          "name": "processedVouchers",
          "outputs": [
            {
              "internalType": "bool",
              "name": "",
              "type": "bool"
            }
          ],
          "stateMutability": "view",
          "type": "function"
        },
        {
          "inputs": [],
          "name": "renounceOwnership",
          "outputs": [],
          "stateMutability": "nonpayable",
          "type": "function"
        },
        {
          "inputs": [
            {
              "internalType": "address",
              "name": "_erc20",
              "type": "address"
            },
            {
              "internalType": "address",
              "name": "_to",
              "type": "address"
            },
            {
              "internalType": "uint256",
              "name": "_amount",
              "type": "uint256"
            }
          ],
          "name": "rescueERC20",
          "outputs": [],
          "stateMutability": "nonpayable",
          "type": "function"
        },
        {
          "inputs": [
            {
              "internalType": "uint256",
              "name": "_newLimit",
              "type": "uint256"
            }
          ],
          "name": "setDailyWithdrawalLimit",
          "outputs": [],
          "stateMutability": "nonpayable",
          "type": "function"
        },
        {
          "inputs": [],
          "name": "storageContract",
          "outputs": [
            {
              "internalType": "contract IZaaNetStorage",
              "name": "",
              "type": "address"
            }
          ],
          "stateMutability": "view",
          "type": "function"
        },
        {
          "inputs": [],
          "name": "tokenDecimals",
          "outputs": [
            {
              "internalType": "uint8",
              "name": "",
              "type": "uint8"
            }
          ],
          "stateMutability": "view",
          "type": "function"
        },
        {
          "inputs": [
            {
              "internalType": "address",
              "name": "newOwner",
              "type": "address"
            }
          ],
          "name": "transferOwnership",
          "outputs": [],
          "stateMutability": "nonpayable",
          "type": "function"
        },
        {
          "inputs": [],
          "name": "unpause",
          "outputs": [],
          "stateMutability": "nonpayable",
          "type": "function"
        },
        {
          "inputs": [],
          "name": "usdt",
          "outputs": [
            {
              "internalType": "contract IERC20",
              "name": "",
              "type": "address"
            }
          ],
          "stateMutability": "view",
          "type": "function"
        },
        {
          "inputs": [
            {
              "internalType": "address",
              "name": "_to",
              "type": "address"
            },
            {
              "internalType": "uint256",
              "name": "_amount",
              "type": "uint256"
            }
          ],
          "name": "withdrawToken",
          "outputs": [],
          "stateMutability": "nonpayable",
          "type": "function"
        }
      ],
      "evm": {
        "bytecode": {
          "linkReferences": {},
          "object": "6080806040523461025f57606081611e08803803809161001f8285610264565b83398101031261025f576100328161029d565b9061004b60406100446020840161029d565b920161029d565b9033156102495760008054336001600160a01b0319821681178355604051959290916001600160a01b0316907f8be0079c531659141344cd1fd0a4f28419497f9722a3daafe3b4186f6b6457e09080a3600180556402540be4006005556001600160a01b031692831561021a57506001600160a01b03169081156101e6576001600160a01b03169182156101b457600280546001600160a01b03198116831790915560405163313ce56760e01b8152909190602081600481855afa9081156101a857600091610165575b506001600160a81b03199092161760a09190911b60ff60a01b1617600255600380546001600160a01b031990811692909217905560048054909116919091179055604051611b5690816102b28239f35b6020813d6020116101a0575b8161017e60209383610264565b8101031261019c57519060ff82168203610199575038610115565b80fd5b5080fd5b3d9150610171565b6040513d6000823e3d90fd5b60405162461bcd60e51b815260206004820152600a60248201526961646d696e207a65726f60b01b6044820152606490fd5b60405162461bcd60e51b815260206004820152600c60248201526b73746f72616765207a65726f60a01b6044820152606490fd5b62461bcd60e51b815260206004820152600a602482015269746f6b656e207a65726f60b01b6044820152606490fd5b631e4fbdf760e01b600052600060045260246000fd5b600080fd5b601f909101601f19168101906001600160401b0382119082101761028757604052565b634e487b7160e01b600052604160045260246000fd5b51906001600160a01b038216820361025f5756fe6080604052600436101561001257600080fd5b6000803560e01c806305483a15146115525780630604bfa41461020257806311ce0267146115295780632f48ab7d1461150057806333770245146114d65780633b97e856146114b25780633f4ba83a146114445780634342482d14610db05780634cf4caa514610d915780635b3c052814610d755780635c975abb14610d50578063715018a614610cf65780637620843a14610cd85780637ddd23e1146105a55780638456cb59146105445780638da5cb5b1461051d5780639e281a98146103765780639e9aed62146102dc578063a15f39e8146102b9578063b2118a8d14610231578063b9a2454414610202578063c05c5e94146101d9578063c4d276bc146101ad5763f2fde38b1461012557600080fd5b346101aa5760203660031901126101aa5761013e6115b0565b610146611a17565b6001600160a01b031680156101965781546001600160a01b03198116821783556001600160a01b03167f8be0079c531659141344cd1fd0a4f28419497f9722a3daafe3b4186f6b6457e08380a380f35b631e4fbdf760e01b82526004829052602482fd5b80fd5b50346101aa57806003193601126101aa5760406020916201518042048152600683522054604051908152f35b50346101aa57806003193601126101aa576004546040516001600160a01b039091168152602090f35b50346101aa5760203660031901126101aa5760ff60406020926004358152600784522054166040519015158152f35b50346101aa5760603660031901126101aa5761024b6115b0565b602435906001600160a01b0382168083036102b557610268611a17565b156102865761028391604435916001600160a01b0316611a82565b80f35b60405162461bcd60e51b81526020600482015260076024820152667a65726f20746f60c81b6044820152606490fd5b8380fd5b50346101aa57806003193601126101aa5760206102d46119e4565b604051908152f35b50346101aa57806003193601126101aa576002546040516370a0823160e01b81523060048201529190602090839060249082906001600160a01b03165afa90811561036a5790610332575b602090604051908152f35b506020813d602011610362575b8161034c602093836115e9565b8101031261035d5760209051610327565b600080fd5b3d915061033f565b604051903d90823e3d90fd5b50346101aa5760403660031901126101aa576103906115b0565b60243561039b611a17565b6001600160a01b038216156104d8578015610494576002546040516370a0823160e01b81523060048201526001600160a01b039091169290602081602481875afa80156104895783908690610453575b6103f792501015611978565b6103ff6119e4565b821161040e5761028392611a82565b60405162461bcd60e51b815260206004820152601e60248201527f45786365656473206461696c79207769746864726177616c206c696d697400006044820152606490fd5b50506020813d602011610481575b8161046e602093836115e9565b8101031261035d57826103f791516103eb565b3d9150610461565b6040513d87823e3d90fd5b606460405162461bcd60e51b815260206004820152602060248201527f416d6f756e74206d7573742062652067726561746572207468616e207a65726f6044820152fd5b60405162461bcd60e51b815260206004820152601960248201527f496e76616c696420726563697069656e742061646472657373000000000000006044820152606490fd5b50346101aa57806003193601126101aa57546040516001600160a01b039091168152602090f35b50346101aa57806003193601126101aa5761055d611a17565b610565611a40565b805460ff60a01b1916600160a01b1781556040513381527f62e78cea01bee320cd4e420270b5ea74000d11b0c9f74754ebdbfc544b05a25890602090a180f35b50346101aa5760203660031901126101aa5760043567ffffffffffffffff811161082557366023820112156108255780600401359067ffffffffffffffff8211610cd45760248101906024369160608502010111610cd457610605611a40565b61060d611a60565b60018060a01b03600454169160405163319a11df60e11b8152602081600481875afa8015610489578590610c95575b61065191506001600160a01b03163314611635565b80151580610c8a575b15610c5057604051638c639a8560e01b815292849290602085600481845afa948515610c0e578695610c19575b5090602060049261069b6014881115611895565b60405163c5f956af60e01b815293849182905afa918215610c0e578692610bce575b506106d26001600160a01b03831615156118d0565b60035486906001600160a01b03165b848210610afc5750506106f26119e4565b8411610ac15762015180420486526006602052604086206107148582546115c6565b90556002546040516370a0823160e01b815230600482015290602090829060249082906001600160a01b03165afa8015610ab65785908890610a80575b8893925090610761911015611978565b8195825b85811061089957505050508380610829575b505060035484906001600160a01b0316803b15610825578180916024604051809481936313a7dd1d60e01b83528960048401525af1801561081a57610805575b50506107fb7f20eb9f3aebb74816a1325a7477cfa6f6ab692b692cd5930db98bd2d0343b70ca93604051938493846040919493926060820195825260208201520152565b0390a16001805580f35b8161080f916115e9565b6102b55783386107b7565b6040513d84823e3d90fd5b5080fd5b60025461083f92906001600160a01b0316611a82565b60035484906001600160a01b0316803b15610825578180916024604051809481936369009a1360e01b83528a60048401525af1801561081a57610884575b5083610777565b8161088e916115e9565b6102b557833861087d565b6108b06108ab828886979b959661190f565b611935565b60018060a01b03600354168982516024604051809481936395ea571760e01b835260048301525afa908115610a75578a91610a53575b50602082019160646108f98785516119c4565b04946109068685516119d7565b9061092b82602060018060a01b036002541696019560018060a01b0387511690611a82565b60035484516001600160a01b039081169116803b15610a4f576040516370e3d45560e11b81526001600160a01b03929092166004830152602482018490528e908290604490829084905af1908115610a42578e91610a25575b50509086610a186109b86001997fdaec0156f045fe9bffcc686bd77361f536743020f757603c9f1888937cdfc521956115c6565b9e604080870191825181526007602052208a60ff1982541617905551945195898060a01b039051169651604051938493429233869192608093969594919660a084019760018060a01b031684526020840152604083015260608201520152565b0390a40190879291610765565b81610a32919493946115e9565b610a3e57908c38610984565b8c80fd5b8e604051903d90823e3d90fd5b8e80fd5b610a6f91503d808c833e610a6781836115e9565b810190611700565b386108e6565b6040513d8c823e3d90fd5b50506020813d602011610aae575b81610a9b602093836115e9565b8101031261035d57846107619151610751565b3d9150610a8e565b6040513d89823e3d90fd5b60405162461bcd60e51b8152602060048201526013602482015272115e18d959591cc819185a5b1e481b1a5b5a5d606a1b6044820152606490fd5b9094610b0c6108ab87878661190f565b6020810190610b2682518015159081610bbf575b506116c3565b60408101518a526007602052610b4360ff60408c20541615611677565b5191604051926395ea571760e01b845260048401528983602481875afa918215610a7557610b96610b9d936001958d91610ba5575b50610b8860808201511515611817565b604083519101511115611858565b51906115c6565b9501906106e1565b610bb991503d808f833e610a6781836115e9565b38610b78565b6302faf0809150111538610b20565b9091506020813d602011610c06575b81610bea602093836115e9565b81010312610c0257610bfb90611621565b90386106bd565b8580fd5b3d9150610bdd565b6040513d88823e3d90fd5b919094506020823d602011610c48575b81610c36602093836115e9565b8101031261035d579051936020610687565b3d9150610c29565b60405162461bcd60e51b8152602060048201526012602482015271496e76616c69642062617463682073697a6560701b6044820152606490fd5b50603281111561065a565b506020813d602011610ccc575b81610caf602093836115e9565b81010312610cc857610cc361065191611621565b61063c565b8480fd5b3d9150610ca2565b8280fd5b50346101aa57806003193601126101aa576020600554604051908152f35b50346101aa57806003193601126101aa57610d0f611a17565b80546001600160a01b03198116825581906001600160a01b03167f8be0079c531659141344cd1fd0a4f28419497f9722a3daafe3b4186f6b6457e08280a380f35b50346101aa57806003193601126101aa5760ff6020915460a01c166040519015158152f35b50346101aa57806003193601126101aa57602060405160148152f35b50346101aa57806003193601126101aa5760206040516302faf0808152f35b50346101aa5760603660031901126101aa57602435600435604435610dd3611a40565b610ddb611a60565b6201518042048085526006602052610df78460408720546115c6565b906005548083116113a9575085526006602052604085205560018060a01b036004541660405163319a11df60e11b8152602081600481855afa8015610c0e57869061136e575b610e5291506001600160a01b03163314611635565b8185526007602052610e6b60ff60408720541615611677565b83151580611360575b610e7d906116c3565b6003546040516395ea571760e01b815260048101859052908690829060249082906001600160a01b03165afa908115610c0e578691611346575b50610ec760808201511515611817565b610ed76040820151861015611858565b604051638c639a8560e01b8152602081600481865afa908115610ab6578791611314575b50610f096014821115611895565b60405163c5f956af60e01b815292602084600481845afa9384156112c85788946112d3575b50600490602090610f496001600160a01b03871615156118d0565b60405163319a11df60e11b815292839182905afa9081156112c857889161128a575b506001600160a01b0316801561125357606491610f8c610fa9923314611635565b858952600760205260408920805460ff19166001179055876119c4565b04610fb481876119d7565b9160018060a01b0360025416936040516370a0823160e01b8152306004820152602081602481895afa908115610a75578a9161121d575b50610ff684866115c6565b116111c6576110158460208594019660018060a01b0388511690611a82565b81151591826111a9575b505060035484516001600160a01b03918216918a9116823b15610825576040516370e3d45560e11b81526001600160a01b0391909116600482015260248101869052918290604490829084905af1801561119e5761118a575b50611130575b60035487906001600160a01b0316803b15610825578180916024604051809481936313a7dd1d60e01b83528d60048401525af1801561081a57611117575b5050915160408051338152602081019790975286019290925260608501524260808501526001600160a01b0316927fdaec0156f045fe9bffcc686bd77361f536743020f757603c9f1888937cdfc5219060a090a46001805580f35b81611121916115e9565b61112c5786386110bc565b8680fd5b60035487906001600160a01b0316803b15610825578180916024604051809481936369009a1360e01b83528860048401525af1801561081a57611175575b505061107e565b8161117f916115e9565b61112c57863861116e565b88611197919992996115e9565b9638611078565b6040513d8b823e3d90fd5b6002546111bf92906001600160a01b0316611a82565b388261101f565b60405162461bcd60e51b815260206004820152602960248201527f496e73756666696369656e7420636f6e74726163742062616c616e636520666f6044820152681c881c185e5b595b9d60ba1b6064820152608490fd5b90506020813d60201161124b575b81611238602093836115e9565b81010312611247575138610feb565b8980fd5b3d915061122b565b60405162461bcd60e51b815260206004820152600f60248201526e125b9d985b1a59081c185e5b595b9d608a1b6044820152606490fd5b90506020813d6020116112c0575b816112a5602093836115e9565b810103126112bc576112b690611621565b38610f6b565b8780fd5b3d9150611298565b6040513d8a823e3d90fd5b9093506020813d60201161130c575b816112ef602093836115e9565b810103126112bc576020611304600492611621565b949150610f2e565b3d91506112e2565b90506020813d60201161133e575b8161132f602093836115e9565b8101031261112c575138610efb565b3d9150611322565b61135a91503d8088833e610a6781836115e9565b38610eb7565b506302faf080841115610e74565b506020813d6020116113a1575b81611388602093836115e9565b81010312610c025761139c610e5291611621565b610e3d565b3d915061137b565b7fef6aa729d47e0c1661366cdf3d3e7bc905d9ef1ff95f7b5a9da45090f6ca88f3906040888894815260066020522054906113fc6040519283923396846040919493926060820195825260208201520152565b0390a260405162461bcd60e51b815260206004820152601f60248201527f4461696c79207769746864726177616c206c696d6974206578636565646564006044820152606490fd5b50346101aa57806003193601126101aa5761145d611a17565b805460ff8160a01c16156114a35760ff60a01b191681556040513381527f5db9ee0a495bf2e6ff9c91a7834c1ba4fdd244a5e8aa4e537bd38aeae4b073aa90602090a180f35b638dfc202b60e01b8252600482fd5b50346101aa57806003193601126101aa57602060ff60025460a01c16604051908152f35b50346101aa5760203660031901126101aa5760406020916004358152600683522054604051908152f35b50346101aa57806003193601126101aa576002546040516001600160a01b039091168152602090f35b50346101aa57806003193601126101aa576003546040516001600160a01b039091168152602090f35b50346101aa5760203660031901126101aa5760043561156f611a17565b801561157b5760055580f35b60405162461bcd60e51b815260206004820152600d60248201526c125b9d985b1a59081b1a5b5a5d609a1b6044820152606490fd5b600435906001600160a01b038216820361035d57565b919082018092116115d357565b634e487b7160e01b600052601160045260246000fd5b90601f8019910116810190811067ffffffffffffffff82111761160b57604052565b634e487b7160e01b600052604160045260246000fd5b51906001600160a01b038216820361035d57565b1561163c57565b60405162461bcd60e51b81526020600482015260136024820152724e6f74207061796d656e74206164647265737360681b6044820152606490fd5b1561167e57565b60405162461bcd60e51b815260206004820152601960248201527f566f756368657220616c72656164792070726f636573736564000000000000006044820152606490fd5b156116ca57565b60405162461bcd60e51b815260206004820152600e60248201526d125b9d985b1a5908185b5bdd5b9d60921b6044820152606490fd5b60208183031261035d5780519067ffffffffffffffff821161035d570160e08183031261035d576040519160e0830183811067ffffffffffffffff82111761160b576040528151835261175560208301611621565b602084015260408201516040840152606082015167ffffffffffffffff811161035d57820181601f8201121561035d5780519067ffffffffffffffff821161160b57604051926117af601f8401601f1916602001856115e9565b8284526020838301011161035d5760005b8281106118025750506020600091830101526060830152608081015190811515820361035d5760c091608084015260a081015160a0840152015160c082015290565b806020809284010151828287010152016117c0565b1561181e57565b60405162461bcd60e51b81526020600482015260126024820152714e6574776f726b206e6f742061637469766560701b6044820152606490fd5b1561185f57565b60405162461bcd60e51b815260206004820152600e60248201526d416d6f756e7420746f6f206c6f7760901b6044820152606490fd5b1561189c57565b60405162461bcd60e51b815260206004820152600c60248201526b08ccaca40e8dede40d0d2ced60a31b6044820152606490fd5b156118d757565b60405162461bcd60e51b815260206004820152601060248201526f496e76616c696420747265617375727960801b6044820152606490fd5b919081101561191f576060020190565b634e487b7160e01b600052603260045260246000fd5b60608136031261035d5760405190606082019082821067ffffffffffffffff83111761160b57604091825280358352602081013560208401520135604082015290565b1561197f57565b60405162461bcd60e51b815260206004820152601d60248201527f496e73756666696369656e7420636f6e74726163742062616c616e63650000006044820152606490fd5b818102929181159184041417156115d357565b919082039182116115d357565b62015180420460009081526006602052604090205460055490818110611a0b575050600090565b611a14916119d7565b90565b6000546001600160a01b03163303611a2b57565b63118cdaa760e01b6000523360045260246000fd5b60ff60005460a01c16611a4f57565b63d93c066560e01b60005260046000fd5b600260015414611a71576002600155565b633ee5aeb560e01b60005260046000fd5b60405163a9059cbb60e01b60208083019182526001600160a01b039490941660248301526044808301959095529381529092600091611ac26064826115e9565b519082855af115611b14576000513d611b0b57506001600160a01b0381163b155b611aea5750565b635274afe760e01b60009081526001600160a01b0391909116600452602490fd5b60011415611ae3565b6040513d6000823e3d90fdfea2646970667358221220444aace8aea35e832a8f338747915d135096031eb45a418812052fd54c61333764736f6c634300081c0033",
          "opcodes": "PUSH1 0x80 DUP1 PUSH1 0x40 MSTORE CALLVALUE PUSH2 0x25F JUMPI PUSH1 0x60 DUP2 PUSH2 0x1E08 DUP1 CODESIZE SUB DUP1 SWAP2 PUSH2 0x1F DUP3 DUP6 PUSH2 0x264 JUMP JUMPDEST DUP4 CODECOPY DUP2 ADD SUB SLT PUSH2 0x25F JUMPI PUSH2 0x32 DUP2 PUSH2 0x29D JUMP JUMPDEST SWAP1 PUSH2 0x4B PUSH1 0x40 PUSH2 0x44 PUSH1 0x20 DUP5 ADD PUSH2 0x29D JUMP JUMPDEST SWAP3 ADD PUSH2 0x29D JUMP JUMPDEST SWAP1 CALLER ISZERO PUSH2 0x249 JUMPI PUSH1 0x0 DUP1 SLOAD CALLER PUSH1 0x1 PUSH1 0x1 PUSH1 0xA0 SHL SUB NOT DUP3 AND DUP2 OR DUP4 SSTORE PUSH1 0x40 MLOAD SWAP6 SWAP3 SWAP1 SWAP2 PUSH1 0x1 PUSH1 0x1 PUSH1 0xA0 SHL SUB AND SWAP1 PUSH32 0x8BE0079C531659141344CD1FD0A4F28419497F9722A3DAAFE3B4186F6B6457E0 SWAP1 DUP1 LOG3 PUSH1 0x1 DUP1 SSTORE PUSH5 0x2540BE400 PUSH1 0x5 SSTORE PUSH1 0x1 PUSH1 0x1 PUSH1 0xA0 SHL SUB AND SWAP3 DUP4 ISZERO PUSH2 0x21A JUMPI POP PUSH1 0x1 PUSH1 0x1 PUSH1 0xA0 SHL SUB AND SWAP1 DUP2 ISZERO PUSH2 0x1E6 JUMPI PUSH1 0x1 PUSH1 0x1 PUSH1 0xA0 SHL SUB AND SWAP2 DUP3 ISZERO PUSH2 0x1B4 JUMPI PUSH1 0x2 DUP1 SLOAD PUSH1 0x1 PUSH1 0x1 PUSH1 0xA0 SHL SUB NOT DUP2 AND DUP4 OR SWAP1 SWAP2 SSTORE PUSH1 0x40 MLOAD PUSH4 0x313CE567 PUSH1 0xE0 SHL DUP2 MSTORE SWAP1 SWAP2 SWAP1 PUSH1 0x20 DUP2 PUSH1 0x4 DUP2 DUP6 GAS STATICCALL SWAP1 DUP2 ISZERO PUSH2 0x1A8 JUMPI PUSH1 0x0 SWAP2 PUSH2 0x165 JUMPI JUMPDEST POP PUSH1 0x1 PUSH1 0x1 PUSH1 0xA8 SHL SUB NOT SWAP1 SWAP3 AND OR PUSH1 0xA0 SWAP2 SWAP1 SWAP2 SHL PUSH1 0xFF PUSH1 0xA0 SHL AND OR PUSH1 0x2 SSTORE PUSH1 0x3 DUP1 SLOAD PUSH1 0x1 PUSH1 0x1 PUSH1 0xA0 SHL SUB NOT SWAP1 DUP2 AND SWAP3 SWAP1 SWAP3 OR SWAP1 SSTORE PUSH1 0x4 DUP1 SLOAD SWAP1 SWAP2 AND SWAP2 SWAP1 SWAP2 OR SWAP1 SSTORE PUSH1 0x40 MLOAD PUSH2 0x1B56 SWAP1 DUP2 PUSH2 0x2B2 DUP3 CODECOPY RETURN JUMPDEST PUSH1 0x20 DUP2 RETURNDATASIZE PUSH1 0x20 GT PUSH2 0x1A0 JUMPI JUMPDEST DUP2 PUSH2 0x17E PUSH1 0x20 SWAP4 DUP4 PUSH2 0x264 JUMP JUMPDEST DUP2 ADD SUB SLT PUSH2 0x19C JUMPI MLOAD SWAP1 PUSH1 0xFF DUP3 AND DUP3 SUB PUSH2 0x199 JUMPI POP CODESIZE PUSH2 0x115 JUMP JUMPDEST DUP1 REVERT JUMPDEST POP DUP1 REVERT JUMPDEST RETURNDATASIZE SWAP2 POP PUSH2 0x171 JUMP JUMPDEST PUSH1 0x40 MLOAD RETURNDATASIZE PUSH1 0x0 DUP3 RETURNDATACOPY RETURNDATASIZE SWAP1 REVERT JUMPDEST PUSH1 0x40 MLOAD PUSH3 0x461BCD PUSH1 0xE5 SHL DUP2 MSTORE PUSH1 0x20 PUSH1 0x4 DUP3 ADD MSTORE PUSH1 0xA PUSH1 0x24 DUP3 ADD MSTORE PUSH10 0x61646D696E207A65726F PUSH1 0xB0 SHL PUSH1 0x44 DUP3 ADD MSTORE PUSH1 0x64 SWAP1 REVERT JUMPDEST PUSH1 0x40 MLOAD PUSH3 0x461BCD PUSH1 0xE5 SHL DUP2 MSTORE PUSH1 0x20 PUSH1 0x4 DUP3 ADD MSTORE PUSH1 0xC PUSH1 0x24 DUP3 ADD MSTORE PUSH12 0x73746F72616765207A65726F PUSH1 0xA0 SHL PUSH1 0x44 DUP3 ADD MSTORE PUSH1 0x64 SWAP1 REVERT JUMPDEST PUSH3 0x461BCD PUSH1 0xE5 SHL DUP2 MSTORE PUSH1 0x20 PUSH1 0x4 DUP3 ADD MSTORE PUSH1 0xA PUSH1 0x24 DUP3 ADD MSTORE PUSH10 0x746F6B656E207A65726F PUSH1 0xB0 SHL PUSH1 0x44 DUP3 ADD MSTORE PUSH1 0x64 SWAP1 REVERT JUMPDEST PUSH4 0x1E4FBDF7 PUSH1 0xE0 SHL PUSH1 0x0 MSTORE PUSH1 0x0 PUSH1 0x4 MSTORE PUSH1 0x24 PUSH1 0x0 REVERT JUMPDEST PUSH1 0x0 DUP1 REVERT JUMPDEST PUSH1 0x1F SWAP1 SWAP2 ADD PUSH1 0x1F NOT AND DUP2 ADD SWAP1 PUSH1 0x1 PUSH1 0x1 PUSH1 0x40 SHL SUB DUP3 GT SWAP1 DUP3 LT OR PUSH2 0x287 JUMPI PUSH1 0x40 MSTORE JUMP JUMPDEST PUSH4 0x4E487B71 PUSH1 0xE0 SHL PUSH1 0x0 MSTORE PUSH1 0x41 PUSH1 0x4 MSTORE PUSH1 0x24 PUSH1 0x0 REVERT JUMPDEST MLOAD SWAP1 PUSH1 0x1 PUSH1 0x1 PUSH1 0xA0 SHL SUB DUP3 AND DUP3 SUB PUSH2 0x25F JUMPI JUMP INVALID PUSH1 0x80 PUSH1 0x40 MSTORE PUSH1 0x4 CALLDATASIZE LT ISZERO PUSH2 0x12 JUMPI PUSH1 0x0 DUP1 REVERT JUMPDEST PUSH1 0x0 DUP1 CALLDATALOAD PUSH1 0xE0 SHR DUP1 PUSH4 0x5483A15 EQ PUSH2 0x1552 JUMPI DUP1 PUSH4 0x604BFA4 EQ PUSH2 0x202 JUMPI DUP1 PUSH4 0x11CE0267 EQ PUSH2 0x1529 JUMPI DUP1 PUSH4 0x2F48AB7D EQ PUSH2 0x1500 JUMPI DUP1 PUSH4 0x33770245 EQ PUSH2 0x14D6 JUMPI DUP1 PUSH4 0x3B97E856 EQ PUSH2 0x14B2 JUMPI DUP1 PUSH4 0x3F4BA83A EQ PUSH2 0x1444 JUMPI DUP1 PUSH4 0x4342482D EQ PUSH2 0xDB0 JUMPI DUP1 PUSH4 0x4CF4CAA5 EQ PUSH2 0xD91 JUMPI DUP1 PUSH4 0x5B3C0528 EQ PUSH2 0xD75 JUMPI DUP1 PUSH4 0x5C975ABB EQ PUSH2 0xD50 JUMPI DUP1 PUSH4 0x715018A6 EQ PUSH2 0xCF6 JUMPI DUP1 PUSH4 0x7620843A EQ PUSH2 0xCD8 JUMPI DUP1 PUSH4 0x7DDD23E1 EQ PUSH2 0x5A5 JUMPI DUP1 PUSH4 0x8456CB59 EQ PUSH2 0x544 JUMPI DUP1 PUSH4 0x8DA5CB5B EQ PUSH2 0x51D JUMPI DUP1 PUSH4 0x9E281A98 EQ PUSH2 0x376 JUMPI DUP1 PUSH4 0x9E9AED62 EQ PUSH2 0x2DC JUMPI DUP1 PUSH4 0xA15F39E8 EQ PUSH2 0x2B9 JUMPI DUP1 PUSH4 0xB2118A8D EQ PUSH2 0x231 JUMPI DUP1 PUSH4 0xB9A24544 EQ PUSH2 0x202 JUMPI DUP1 PUSH4 0xC05C5E94 EQ PUSH2 0x1D9 JUMPI DUP1 PUSH4 0xC4D276BC EQ PUSH2 0x1AD JUMPI PUSH4 0xF2FDE38B EQ PUSH2 0x125 JUMPI PUSH1 0x0 DUP1 REVERT JUMPDEST CALLVALUE PUSH2 0x1AA JUMPI PUSH1 0x20 CALLDATASIZE PUSH1 0x3 NOT ADD SLT PUSH2 0x1AA JUMPI PUSH2 0x13E PUSH2 0x15B0 JUMP JUMPDEST PUSH2 0x146 PUSH2 0x1A17 JUMP JUMPDEST PUSH1 0x1 PUSH1 0x1 PUSH1 0xA0 SHL SUB AND DUP1 ISZERO PUSH2 0x196 JUMPI DUP2 SLOAD PUSH1 0x1 PUSH1 0x1 PUSH1 0xA0 SHL SUB NOT DUP2 AND DUP3 OR DUP4 SSTORE PUSH1 0x1 PUSH1 0x1 PUSH1 0xA0 SHL SUB AND PUSH32 0x8BE0079C531659141344CD1FD0A4F28419497F9722A3DAAFE3B4186F6B6457E0 DUP4 DUP1 LOG3 DUP1 RETURN JUMPDEST PUSH4 0x1E4FBDF7 PUSH1 0xE0 SHL DUP3 MSTORE PUSH1 0x4 DUP3 SWAP1 MSTORE PUSH1 0x24 DUP3 REVERT JUMPDEST DUP1 REVERT JUMPDEST POP CALLVALUE PUSH2 0x1AA JUMPI DUP1 PUSH1 0x3 NOT CALLDATASIZE ADD SLT PUSH2 0x1AA JUMPI PUSH1 0x40 PUSH1 0x20 SWAP2 PUSH3 0x15180 TIMESTAMP DIV DUP2 MSTORE PUSH1 0x6 DUP4 MSTORE KECCAK256 SLOAD PUSH1 0x40 MLOAD SWAP1 DUP2 MSTORE RETURN JUMPDEST POP CALLVALUE PUSH2 0x1AA JUMPI DUP1 PUSH1 0x3 NOT CALLDATASIZE ADD SLT PUSH2 0x1AA JUMPI PUSH1 0x4 SLOAD PUSH1 0x40 MLOAD PUSH1 0x1 PUSH1 0x1 PUSH1 0xA0 SHL SUB SWAP1 SWAP2 AND DUP2 MSTORE PUSH1 0x20 SWAP1 RETURN JUMPDEST POP CALLVALUE PUSH2 0x1AA JUMPI PUSH1 0x20 CALLDATASIZE PUSH1 0x3 NOT ADD SLT PUSH2 0x1AA JUMPI PUSH1 0xFF PUSH1 0x40 PUSH1 0x20 SWAP3 PUSH1 0x4 CALLDATALOAD DUP2 MSTORE PUSH1 0x7 DUP5 MSTORE KECCAK256 SLOAD AND PUSH1 0x40 MLOAD SWAP1 ISZERO ISZERO DUP2 MSTORE RETURN JUMPDEST POP CALLVALUE PUSH2 0x1AA JUMPI PUSH1 0x60 CALLDATASIZE PUSH1 0x3 NOT ADD SLT PUSH2 0x1AA JUMPI PUSH2 0x24B PUSH2 0x15B0 JUMP JUMPDEST PUSH1 0x24 CALLDATALOAD SWAP1 PUSH1 0x1 PUSH1 0x1 PUSH1 0xA0 SHL SUB DUP3 AND DUP1 DUP4 SUB PUSH2 0x2B5 JUMPI PUSH2 0x268 PUSH2 0x1A17 JUMP JUMPDEST ISZERO PUSH2 0x286 JUMPI PUSH2 0x283 SWAP2 PUSH1 0x44 CALLDATALOAD SWAP2 PUSH1 0x1 PUSH1 0x1 PUSH1 0xA0 SHL SUB AND PUSH2 0x1A82 JUMP JUMPDEST DUP1 RETURN JUMPDEST PUSH1 0x40 MLOAD PUSH3 0x461BCD PUSH1 0xE5 SHL DUP2 MSTORE PUSH1 0x20 PUSH1 0x4 DUP3 ADD MSTORE PUSH1 0x7 PUSH1 0x24 DUP3 ADD MSTORE PUSH7 0x7A65726F20746F PUSH1 0xC8 SHL PUSH1 0x44 DUP3 ADD MSTORE PUSH1 0x64 SWAP1 REVERT JUMPDEST DUP4 DUP1 REVERT JUMPDEST POP CALLVALUE PUSH2 0x1AA JUMPI DUP1 PUSH1 0x3 NOT CALLDATASIZE ADD SLT PUSH2 0x1AA JUMPI PUSH1 0x20 PUSH2 0x2D4 PUSH2 0x19E4 JUMP JUMPDEST PUSH1 0x40 MLOAD SWAP1 DUP2 MSTORE RETURN JUMPDEST POP CALLVALUE PUSH2 0x1AA JUMPI DUP1 PUSH1 0x3 NOT CALLDATASIZE ADD SLT PUSH2 0x1AA JUMPI PUSH1 0x2 SLOAD PUSH1 0x40 MLOAD PUSH4 0x70A08231 PUSH1 0xE0 SHL DUP2 MSTORE ADDRESS PUSH1 0x4 DUP3 ADD MSTORE SWAP2 SWAP1 PUSH1 0x20 SWAP1 DUP4 SWAP1 PUSH1 0x24 SWAP1 DUP3 SWAP1 PUSH1 0x1 PUSH1 0x1 PUSH1 0xA0 SHL SUB AND GAS STATICCALL SWAP1 DUP2 ISZERO PUSH2 0x36A JUMPI SWAP1 PUSH2 0x332 JUMPI JUMPDEST PUSH1 0x20 SWAP1 PUSH1 0x40 MLOAD SWAP1 DUP2 MSTORE RETURN JUMPDEST POP PUSH1 0x20 DUP2 RETURNDATASIZE PUSH1 0x20 GT PUSH2 0x362 JUMPI JUMPDEST DUP2 PUSH2 0x34C PUSH1 0x20 SWAP4 DUP4 PUSH2 0x15E9 JUMP JUMPDEST DUP2 ADD SUB SLT PUSH2 0x35D JUMPI PUSH1 0x20 SWAP1 MLOAD PUSH2 0x327 JUMP JUMPDEST PUSH1 0x0 DUP1 REVERT JUMPDEST RETURNDATASIZE SWAP2 POP PUSH2 0x33F JUMP JUMPDEST PUSH1 0x40 MLOAD SWAP1 RETURNDATASIZE SWAP1 DUP3 RETURNDATACOPY RETURNDATASIZE SWAP1 REVERT JUMPDEST POP CALLVALUE PUSH2 0x1AA JUMPI PUSH1 0x40 CALLDATASIZE PUSH1 0x3 NOT ADD SLT PUSH2 0x1AA JUMPI PUSH2 0x390 PUSH2 0x15B0 JUMP JUMPDEST PUSH1 0x24 CALLDATALOAD PUSH2 0x39B PUSH2 0x1A17 JUMP JUMPDEST PUSH1 0x1 PUSH1 0x1 PUSH1 0xA0 SHL SUB DUP3 AND ISZERO PUSH2 0x4D8 JUMPI DUP1 ISZERO PUSH2 0x494 JUMPI PUSH1 0x2 SLOAD PUSH1 0x40 MLOAD PUSH4 0x70A08231 PUSH1 0xE0 SHL DUP2 MSTORE ADDRESS PUSH1 0x4 DUP3 ADD MSTORE PUSH1 0x1 PUSH1 0x1 PUSH1 0xA0 SHL SUB SWAP1 SWAP2 AND SWAP3 SWAP1 PUSH1 0x20 DUP2 PUSH1 0x24 DUP2 DUP8 GAS STATICCALL DUP1 ISZERO PUSH2 0x489 JUMPI DUP4 SWAP1 DUP7 SWAP1 PUSH2 0x453 JUMPI JUMPDEST PUSH2 0x3F7 SWAP3 POP LT ISZERO PUSH2 0x1978 JUMP JUMPDEST PUSH2 0x3FF PUSH2 0x19E4 JUMP JUMPDEST DUP3 GT PUSH2 0x40E JUMPI PUSH2 0x283 SWAP3 PUSH2 0x1A82 JUMP JUMPDEST PUSH1 0x40 MLOAD PUSH3 0x461BCD PUSH1 0xE5 SHL DUP2 MSTORE PUSH1 0x20 PUSH1 0x4 DUP3 ADD MSTORE PUSH1 0x1E PUSH1 0x24 DUP3 ADD MSTORE PUSH32 0x45786365656473206461696C79207769746864726177616C206C696D69740000 PUSH1 0x44 DUP3 ADD MSTORE PUSH1 0x64 SWAP1 REVERT JUMPDEST POP POP PUSH1 0x20 DUP2 RETURNDATASIZE PUSH1 0x20 GT PUSH2 0x481 JUMPI JUMPDEST DUP2 PUSH2 0x46E PUSH1 0x20 SWAP4 DUP4 PUSH2 0x15E9 JUMP JUMPDEST DUP2 ADD SUB SLT PUSH2 0x35D JUMPI DUP3 PUSH2 0x3F7 SWAP2 MLOAD PUSH2 0x3EB JUMP JUMPDEST RETURNDATASIZE SWAP2 POP PUSH2 0x461 JUMP JUMPDEST PUSH1 0x40 MLOAD RETURNDATASIZE DUP8 DUP3 RETURNDATACOPY RETURNDATASIZE SWAP1 REVERT JUMPDEST PUSH1 0x64 PUSH1 0x40 MLOAD PUSH3 0x461BCD PUSH1 0xE5 SHL DUP2 MSTORE PUSH1 0x20 PUSH1 0x4 DUP3 ADD MSTORE PUSH1 0x20 PUSH1 0x24 DUP3 ADD MSTORE PUSH32 0x416D6F756E74206D7573742062652067726561746572207468616E207A65726F PUSH1 0x44 DUP3 ADD MSTORE REVERT JUMPDEST PUSH1 0x40 MLOAD PUSH3 0x461BCD PUSH1 0xE5 SHL DUP2 MSTORE PUSH1 0x20 PUSH1 0x4 DUP3 ADD MSTORE PUSH1 0x19 PUSH1 0x24 DUP3 ADD MSTORE PUSH32 0x496E76616C696420726563697069656E74206164647265737300000000000000 PUSH1 0x44 DUP3 ADD MSTORE PUSH1 0x64 SWAP1 REVERT JUMPDEST POP CALLVALUE PUSH2 0x1AA JUMPI DUP1 PUSH1 0x3 NOT CALLDATASIZE ADD SLT PUSH2 0x1AA JUMPI SLOAD PUSH1 0x40 MLOAD PUSH1 0x1 PUSH1 0x1 PUSH1 0xA0 SHL SUB SWAP1 SWAP2 AND DUP2 MSTORE PUSH1 0x20 SWAP1 RETURN JUMPDEST POP CALLVALUE PUSH2 0x1AA JUMPI DUP1 PUSH1 0x3 NOT CALLDATASIZE ADD SLT PUSH2 0x1AA JUMPI PUSH2 0x55D PUSH2 0x1A17 JUMP JUMPDEST PUSH2 0x565 PUSH2 0x1A40 JUMP JUMPDEST DUP1 SLOAD PUSH1 0xFF PUSH1 0xA0 SHL NOT AND PUSH1 0x1 PUSH1 0xA0 SHL OR DUP2 SSTORE PUSH1 0x40 MLOAD CALLER DUP2 MSTORE PUSH32 0x62E78CEA01BEE320CD4E420270B5EA74000D11B0C9F74754EBDBFC544B05A258 SWAP1 PUSH1 0x20 SWAP1 LOG1 DUP1 RETURN JUMPDEST POP CALLVALUE PUSH2 0x1AA JUMPI PUSH1 0x20 CALLDATASIZE PUSH1 0x3 NOT ADD SLT PUSH2 0x1AA JUMPI PUSH1 0x4 CALLDATALOAD PUSH8 0xFFFFFFFFFFFFFFFF DUP2 GT PUSH2 0x825 JUMPI CALLDATASIZE PUSH1 0x23 DUP3 ADD SLT ISZERO PUSH2 0x825 JUMPI DUP1 PUSH1 0x4 ADD CALLDATALOAD SWAP1 PUSH8 0xFFFFFFFFFFFFFFFF DUP3 GT PUSH2 0xCD4 JUMPI PUSH1 0x24 DUP2 ADD SWAP1 PUSH1 0x24 CALLDATASIZE SWAP2 PUSH1 0x60 DUP6 MUL ADD ADD GT PUSH2 0xCD4 JUMPI PUSH2 0x605 PUSH2 0x1A40 JUMP JUMPDEST PUSH2 0x60D PUSH2 0x1A60 JUMP JUMPDEST PUSH1 0x1 DUP1 PUSH1 0xA0 SHL SUB PUSH1 0x4 SLOAD AND SWAP2 PUSH1 0x40 MLOAD PUSH4 0x319A11DF PUSH1 0xE1 SHL DUP2 MSTORE PUSH1 0x20 DUP2 PUSH1 0x4 DUP2 DUP8 GAS STATICCALL DUP1 ISZERO PUSH2 0x489 JUMPI DUP6 SWAP1 PUSH2 0xC95 JUMPI JUMPDEST PUSH2 0x651 SWAP2 POP PUSH1 0x1 PUSH1 0x1 PUSH1 0xA0 SHL SUB AND CALLER EQ PUSH2 0x1635 JUMP JUMPDEST DUP1 ISZERO ISZERO DUP1 PUSH2 0xC8A JUMPI JUMPDEST ISZERO PUSH2 0xC50 JUMPI PUSH1 0x40 MLOAD PUSH4 0x8C639A85 PUSH1 0xE0 SHL DUP2 MSTORE SWAP3 DUP5 SWAP3 SWAP1 PUSH1 0x20 DUP6 PUSH1 0x4 DUP2 DUP5 GAS STATICCALL SWAP5 DUP6 ISZERO PUSH2 0xC0E JUMPI DUP7 SWAP6 PUSH2 0xC19 JUMPI JUMPDEST POP SWAP1 PUSH1 0x20 PUSH1 0x4 SWAP3 PUSH2 0x69B PUSH1 0x14 DUP9 GT ISZERO PUSH2 0x1895 JUMP JUMPDEST PUSH1 0x40 MLOAD PUSH4 0xC5F956AF PUSH1 0xE0 SHL DUP2 MSTORE SWAP4 DUP5 SWAP2 DUP3 SWAP1 GAS STATICCALL SWAP2 DUP3 ISZERO PUSH2 0xC0E JUMPI DUP7 SWAP3 PUSH2 0xBCE JUMPI JUMPDEST POP PUSH2 0x6D2 PUSH1 0x1 PUSH1 0x1 PUSH1 0xA0 SHL SUB DUP4 AND ISZERO ISZERO PUSH2 0x18D0 JUMP JUMPDEST PUSH1 0x3 SLOAD DUP7 SWAP1 PUSH1 0x1 PUSH1 0x1 PUSH1 0xA0 SHL SUB AND JUMPDEST DUP5 DUP3 LT PUSH2 0xAFC JUMPI POP POP PUSH2 0x6F2 PUSH2 0x19E4 JUMP JUMPDEST DUP5 GT PUSH2 0xAC1 JUMPI PUSH3 0x15180 TIMESTAMP DIV DUP7 MSTORE PUSH1 0x6 PUSH1 0x20 MSTORE PUSH1 0x40 DUP7 KECCAK256 PUSH2 0x714 DUP6 DUP3 SLOAD PUSH2 0x15C6 JUMP JUMPDEST SWAP1 SSTORE PUSH1 0x2 SLOAD PUSH1 0x40 MLOAD PUSH4 0x70A08231 PUSH1 0xE0 SHL DUP2 MSTORE ADDRESS PUSH1 0x4 DUP3 ADD MSTORE SWAP1 PUSH1 0x20 SWAP1 DUP3 SWAP1 PUSH1 0x24 SWAP1 DUP3 SWAP1 PUSH1 0x1 PUSH1 0x1 PUSH1 0xA0 SHL SUB AND GAS STATICCALL DUP1 ISZERO PUSH2 0xAB6 JUMPI DUP6 SWAP1 DUP9 SWAP1 PUSH2 0xA80 JUMPI JUMPDEST DUP9 SWAP4 SWAP3 POP SWAP1 PUSH2 0x761 SWAP2 LT ISZERO PUSH2 0x1978 JUMP JUMPDEST DUP2 SWAP6 DUP3 JUMPDEST DUP6 DUP2 LT PUSH2 0x899 JUMPI POP POP POP POP DUP4 DUP1 PUSH2 0x829 JUMPI JUMPDEST POP POP PUSH1 0x3 SLOAD DUP5 SWAP1 PUSH1 0x1 PUSH1 0x1 PUSH1 0xA0 SHL SUB AND DUP1 EXTCODESIZE ISZERO PUSH2 0x825 JUMPI DUP2 DUP1 SWAP2 PUSH1 0x24 PUSH1 0x40 MLOAD DUP1 SWAP5 DUP2 SWAP4 PUSH4 0x13A7DD1D PUSH1 0xE0 SHL DUP4 MSTORE DUP10 PUSH1 0x4 DUP5 ADD MSTORE GAS CALL DUP1 ISZERO PUSH2 0x81A JUMPI PUSH2 0x805 JUMPI JUMPDEST POP POP PUSH2 0x7FB PUSH32 0x20EB9F3AEBB74816A1325A7477CFA6F6AB692B692CD5930DB98BD2D0343B70CA SWAP4 PUSH1 0x40 MLOAD SWAP4 DUP5 SWAP4 DUP5 PUSH1 0x40 SWAP2 SWAP5 SWAP4 SWAP3 PUSH1 0x60 DUP3 ADD SWAP6 DUP3 MSTORE PUSH1 0x20 DUP3 ADD MSTORE ADD MSTORE JUMP JUMPDEST SUB SWAP1 LOG1 PUSH1 0x1 DUP1 SSTORE DUP1 RETURN JUMPDEST DUP2 PUSH2 0x80F SWAP2 PUSH2 0x15E9 JUMP JUMPDEST PUSH2 0x2B5 JUMPI DUP4 CODESIZE PUSH2 0x7B7 JUMP JUMPDEST PUSH1 0x40 MLOAD RETURNDATASIZE DUP5 DUP3 RETURNDATACOPY RETURNDATASIZE SWAP1 REVERT JUMPDEST POP DUP1 REVERT JUMPDEST PUSH1 0x2 SLOAD PUSH2 0x83F SWAP3 SWAP1 PUSH1 0x1 PUSH1 0x1 PUSH1 0xA0 SHL SUB AND PUSH2 0x1A82 JUMP JUMPDEST PUSH1 0x3 SLOAD DUP5 SWAP1 PUSH1 0x1 PUSH1 0x1 PUSH1 0xA0 SHL SUB AND DUP1 EXTCODESIZE ISZERO PUSH2 0x825 JUMPI DUP2 DUP1 SWAP2 PUSH1 0x24 PUSH1 0x40 MLOAD DUP1 SWAP5 DUP2 SWAP4 PUSH4 0x69009A13 PUSH1 0xE0 SHL DUP4 MSTORE DUP11 PUSH1 0x4 DUP5 ADD MSTORE GAS CALL DUP1 ISZERO PUSH2 0x81A JUMPI PUSH2 0x884 JUMPI JUMPDEST POP DUP4 PUSH2 0x777 JUMP JUMPDEST DUP2 PUSH2 0x88E SWAP2 PUSH2 0x15E9 JUMP JUMPDEST PUSH2 0x2B5 JUMPI DUP4 CODESIZE PUSH2 0x87D JUMP JUMPDEST PUSH2 0x8B0 PUSH2 0x8AB DUP3 DUP9 DUP7 SWAP8 SWAP12 SWAP6 SWAP7 PUSH2 0x190F JUMP JUMPDEST PUSH2 0x1935 JUMP JUMPDEST PUSH1 0x1 DUP1 PUSH1 0xA0 SHL SUB PUSH1 0x3 SLOAD AND DUP10 DUP3 MLOAD PUSH1 0x24 PUSH1 0x40 MLOAD DUP1 SWAP5 DUP2 SWAP4 PUSH4 0x95EA5717 PUSH1 0xE0 SHL DUP4 MSTORE PUSH1 0x4 DUP4 ADD MSTORE GAS STATICCALL SWAP1 DUP2 ISZERO PUSH2 0xA75 JUMPI DUP11 SWAP2 PUSH2 0xA53 JUMPI JUMPDEST POP PUSH1 0x20 DUP3 ADD SWAP2 PUSH1 0x64 PUSH2 0x8F9 DUP8 DUP6 MLOAD PUSH2 0x19C4 JUMP JUMPDEST DIV SWAP5 PUSH2 0x906 DUP7 DUP6 MLOAD PUSH2 0x19D7 JUMP JUMPDEST SWAP1 PUSH2 0x92B DUP3 PUSH1 0x20 PUSH1 0x1 DUP1 PUSH1 0xA0 SHL SUB PUSH1 0x2 SLOAD AND SWAP7 ADD SWAP6 PUSH1 0x1 DUP1 PUSH1 0xA0 SHL SUB DUP8 MLOAD AND SWAP1 PUSH2 0x1A82 JUMP JUMPDEST PUSH1 0x3 SLOAD DUP5 MLOAD PUSH1 0x1 PUSH1 0x1 PUSH1 0xA0 SHL SUB SWAP1 DUP2 AND SWAP2 AND DUP1 EXTCODESIZE ISZERO PUSH2 0xA4F JUMPI PUSH1 0x40 MLOAD PUSH4 0x70E3D455 PUSH1 0xE1 SHL DUP2 MSTORE PUSH1 0x1 PUSH1 0x1 PUSH1 0xA0 SHL SUB SWAP3 SWAP1 SWAP3 AND PUSH1 0x4 DUP4 ADD MSTORE PUSH1 0x24 DUP3 ADD DUP5 SWAP1 MSTORE DUP15 SWAP1 DUP3 SWAP1 PUSH1 0x44 SWAP1 DUP3 SWAP1 DUP5 SWAP1 GAS CALL SWAP1 DUP2 ISZERO PUSH2 0xA42 JUMPI DUP15 SWAP2 PUSH2 0xA25 JUMPI JUMPDEST POP POP SWAP1 DUP7 PUSH2 0xA18 PUSH2 0x9B8 PUSH1 0x1 SWAP10 PUSH32 0xDAEC0156F045FE9BFFCC686BD77361F536743020F757603C9F1888937CDFC521 SWAP6 PUSH2 0x15C6 JUMP JUMPDEST SWAP15 PUSH1 0x40 DUP1 DUP8 ADD SWAP2 DUP3 MLOAD DUP2 MSTORE PUSH1 0x7 PUSH1 0x20 MSTORE KECCAK256 DUP11 PUSH1 0xFF NOT DUP3 SLOAD AND OR SWAP1 SSTORE MLOAD SWAP5 MLOAD SWAP6 DUP10 DUP1 PUSH1 0xA0 SHL SUB SWAP1 MLOAD AND SWAP7 MLOAD PUSH1 0x40 MLOAD SWAP4 DUP5 SWAP4 TIMESTAMP SWAP3 CALLER DUP7 SWAP2 SWAP3 PUSH1 0x80 SWAP4 SWAP7 SWAP6 SWAP5 SWAP2 SWAP7 PUSH1 0xA0 DUP5 ADD SWAP8 PUSH1 0x1 DUP1 PUSH1 0xA0 SHL SUB AND DUP5 MSTORE PUSH1 0x20 DUP5 ADD MSTORE PUSH1 0x40 DUP4 ADD MSTORE PUSH1 0x60 DUP3 ADD MSTORE ADD MSTORE JUMP JUMPDEST SUB SWAP1 LOG4 ADD SWAP1 DUP8 SWAP3 SWAP2 PUSH2 0x765 JUMP JUMPDEST DUP2 PUSH2 0xA32 SWAP2 SWAP5 SWAP4 SWAP5 PUSH2 0x15E9 JUMP JUMPDEST PUSH2 0xA3E JUMPI SWAP1 DUP13 CODESIZE PUSH2 0x984 JUMP JUMPDEST DUP13 DUP1 REVERT JUMPDEST DUP15 PUSH1 0x40 MLOAD SWAP1 RETURNDATASIZE SWAP1 DUP3 RETURNDATACOPY RETURNDATASIZE SWAP1 REVERT JUMPDEST DUP15 DUP1 REVERT JUMPDEST PUSH2 0xA6F SWAP2 POP RETURNDATASIZE DUP1 DUP13 DUP4 RETURNDATACOPY PUSH2 0xA67 DUP2 DUP4 PUSH2 0x15E9 JUMP JUMPDEST DUP2 ADD SWAP1 PUSH2 0x1700 JUMP JUMPDEST CODESIZE PUSH2 0x8E6 JUMP JUMPDEST PUSH1 0x40 MLOAD RETURNDATASIZE DUP13 DUP3 RETURNDATACOPY RETURNDATASIZE SWAP1 REVERT JUMPDEST POP POP PUSH1 0x20 DUP2 RETURNDATASIZE PUSH1 0x20 GT PUSH2 0xAAE JUMPI JUMPDEST DUP2 PUSH2 0xA9B PUSH1 0x20 SWAP4 DUP4 PUSH2 0x15E9 JUMP JUMPDEST DUP2 ADD SUB SLT PUSH2 0x35D JUMPI DUP5 PUSH2 0x761 SWAP2 MLOAD PUSH2 0x751 JUMP JUMPDEST RETURNDATASIZE SWAP2 POP PUSH2 0xA8E JUMP JUMPDEST PUSH1 0x40 MLOAD RETURNDATASIZE DUP10 DUP3 RETURNDATACOPY RETURNDATASIZE SWAP1 REVERT JUMPDEST PUSH1 0x40 MLOAD PUSH3 0x461BCD PUSH1 0xE5 SHL DUP2 MSTORE PUSH1 0x20 PUSH1 0x4 DUP3 ADD MSTORE PUSH1 0x13 PUSH1 0x24 DUP3 ADD MSTORE PUSH19 0x115E18D959591CC819185A5B1E481B1A5B5A5D PUSH1 0x6A SHL PUSH1 0x44 DUP3 ADD MSTORE PUSH1 0x64 SWAP1 REVERT JUMPDEST SWAP1 SWAP5 PUSH2 0xB0C PUSH2 0x8AB DUP8 DUP8 DUP7 PUSH2 0x190F JUMP JUMPDEST PUSH1 0x20 DUP2 ADD SWAP1 PUSH2 0xB26 DUP3 MLOAD DUP1 ISZERO ISZERO SWAP1 DUP2 PUSH2 0xBBF JUMPI JUMPDEST POP PUSH2 0x16C3 JUMP JUMPDEST PUSH1 0x40 DUP2 ADD MLOAD DUP11 MSTORE PUSH1 0x7 PUSH1 0x20 MSTORE PUSH2 0xB43 PUSH1 0xFF PUSH1 0x40 DUP13 KECCAK256 SLOAD AND ISZERO PUSH2 0x1677 JUMP JUMPDEST MLOAD SWAP2 PUSH1 0x40 MLOAD SWAP3 PUSH4 0x95EA5717 PUSH1 0xE0 SHL DUP5 MSTORE PUSH1 0x4 DUP5 ADD MSTORE DUP10 DUP4 PUSH1 0x24 DUP2 DUP8 GAS STATICCALL SWAP2 DUP3 ISZERO PUSH2 0xA75 JUMPI PUSH2 0xB96 PUSH2 0xB9D SWAP4 PUSH1 0x1 SWAP6 DUP14 SWAP2 PUSH2 0xBA5 JUMPI JUMPDEST POP PUSH2 0xB88 PUSH1 0x80 DUP3 ADD MLOAD ISZERO ISZERO PUSH2 0x1817 JUMP JUMPDEST PUSH1 0x40 DUP4 MLOAD SWAP2 ADD MLOAD GT ISZERO PUSH2 0x1858 JUMP JUMPDEST MLOAD SWAP1 PUSH2 0x15C6 JUMP JUMPDEST SWAP6 ADD SWAP1 PUSH2 0x6E1 JUMP JUMPDEST PUSH2 0xBB9 SWAP2 POP RETURNDATASIZE DUP1 DUP16 DUP4 RETURNDATACOPY PUSH2 0xA67 DUP2 DUP4 PUSH2 0x15E9 JUMP JUMPDEST CODESIZE PUSH2 0xB78 JUMP JUMPDEST PUSH4 0x2FAF080 SWAP2 POP GT ISZERO CODESIZE PUSH2 0xB20 JUMP JUMPDEST SWAP1 SWAP2 POP PUSH1 0x20 DUP2 RETURNDATASIZE PUSH1 0x20 GT PUSH2 0xC06 JUMPI JUMPDEST DUP2 PUSH2 0xBEA PUSH1 0x20 SWAP4 DUP4 PUSH2 0x15E9 JUMP JUMPDEST DUP2 ADD SUB SLT PUSH2 0xC02 JUMPI PUSH2 0xBFB SWAP1 PUSH2 0x1621 JUMP JUMPDEST SWAP1 CODESIZE PUSH2 0x6BD JUMP JUMPDEST DUP6 DUP1 REVERT JUMPDEST RETURNDATASIZE SWAP2 POP PUSH2 0xBDD JUMP JUMPDEST PUSH1 0x40 MLOAD RETURNDATASIZE DUP9 DUP3 RETURNDATACOPY RETURNDATASIZE SWAP1 REVERT JUMPDEST SWAP2 SWAP1 SWAP5 POP PUSH1 0x20 DUP3 RETURNDATASIZE PUSH1 0x20 GT PUSH2 0xC48 JUMPI JUMPDEST DUP2 PUSH2 0xC36 PUSH1 0x20 SWAP4 DUP4 PUSH2 0x15E9 JUMP JUMPDEST DUP2 ADD SUB SLT PUSH2 0x35D JUMPI SWAP1 MLOAD SWAP4 PUSH1 0x20 PUSH2 0x687 JUMP JUMPDEST RETURNDATASIZE SWAP2 POP PUSH2 0xC29 JUMP JUMPDEST PUSH1 0x40 MLOAD PUSH3 0x461BCD PUSH1 0xE5 SHL DUP2 MSTORE PUSH1 0x20 PUSH1 0x4 DUP3 ADD MSTORE PUSH1 0x12 PUSH1 0x24 DUP3 ADD MSTORE PUSH18 0x496E76616C69642062617463682073697A65 PUSH1 0x70 SHL PUSH1 0x44 DUP3 ADD MSTORE PUSH1 0x64 SWAP1 REVERT JUMPDEST POP PUSH1 0x32 DUP2 GT ISZERO PUSH2 0x65A JUMP JUMPDEST POP PUSH1 0x20 DUP2 RETURNDATASIZE PUSH1 0x20 GT PUSH2 0xCCC JUMPI JUMPDEST DUP2 PUSH2 0xCAF PUSH1 0x20 SWAP4 DUP4 PUSH2 0x15E9 JUMP JUMPDEST DUP2 ADD SUB SLT PUSH2 0xCC8 JUMPI PUSH2 0xCC3 PUSH2 0x651 SWAP2 PUSH2 0x1621 JUMP JUMPDEST PUSH2 0x63C JUMP JUMPDEST DUP5 DUP1 REVERT JUMPDEST RETURNDATASIZE SWAP2 POP PUSH2 0xCA2 JUMP JUMPDEST DUP3 DUP1 REVERT JUMPDEST POP CALLVALUE PUSH2 0x1AA JUMPI DUP1 PUSH1 0x3 NOT CALLDATASIZE ADD SLT PUSH2 0x1AA JUMPI PUSH1 0x20 PUSH1 0x5 SLOAD PUSH1 0x40 MLOAD SWAP1 DUP2 MSTORE RETURN JUMPDEST POP CALLVALUE PUSH2 0x1AA JUMPI DUP1 PUSH1 0x3 NOT CALLDATASIZE ADD SLT PUSH2 0x1AA JUMPI PUSH2 0xD0F PUSH2 0x1A17 JUMP JUMPDEST DUP1 SLOAD PUSH1 0x1 PUSH1 0x1 PUSH1 0xA0 SHL SUB NOT DUP2 AND DUP3 SSTORE DUP2 SWAP1 PUSH1 0x1 PUSH1 0x1 PUSH1 0xA0 SHL SUB AND PUSH32 0x8BE0079C531659141344CD1FD0A4F28419497F9722A3DAAFE3B4186F6B6457E0 DUP3 DUP1 LOG3 DUP1 RETURN JUMPDEST POP CALLVALUE PUSH2 0x1AA JUMPI DUP1 PUSH1 0x3 NOT CALLDATASIZE ADD SLT PUSH2 0x1AA JUMPI PUSH1 0xFF PUSH1 0x20 SWAP2 SLOAD PUSH1 0xA0 SHR AND PUSH1 0x40 MLOAD SWAP1 ISZERO ISZERO DUP2 MSTORE RETURN JUMPDEST POP CALLVALUE PUSH2 0x1AA JUMPI DUP1 PUSH1 0x3 NOT CALLDATASIZE ADD SLT PUSH2 0x1AA JUMPI PUSH1 0x20 PUSH1 0x40 MLOAD PUSH1 0x14 DUP2 MSTORE RETURN JUMPDEST POP CALLVALUE PUSH2 0x1AA JUMPI DUP1 PUSH1 0x3 NOT CALLDATASIZE ADD SLT PUSH2 0x1AA JUMPI PUSH1 0x20 PUSH1 0x40 MLOAD PUSH4 0x2FAF080 DUP2 MSTORE RETURN JUMPDEST POP CALLVALUE PUSH2 0x1AA JUMPI PUSH1 0x60 CALLDATASIZE PUSH1 0x3 NOT ADD SLT PUSH2 0x1AA JUMPI PUSH1 0x24 CALLDATALOAD PUSH1 0x4 CALLDATALOAD PUSH1 0x44 CALLDATALOAD PUSH2 0xDD3 PUSH2 0x1A40 JUMP JUMPDEST PUSH2 0xDDB PUSH2 0x1A60 JUMP JUMPDEST PUSH3 0x15180 TIMESTAMP DIV DUP1 DUP6 MSTORE PUSH1 0x6 PUSH1 0x20 MSTORE PUSH2 0xDF7 DUP5 PUSH1 0x40 DUP8 KECCAK256 SLOAD PUSH2 0x15C6 JUMP JUMPDEST SWAP1 PUSH1 0x5 SLOAD DUP1 DUP4 GT PUSH2 0x13A9 JUMPI POP DUP6 MSTORE PUSH1 0x6 PUSH1 0x20 MSTORE PUSH1 0x40 DUP6 KECCAK256 SSTORE PUSH1 0x1 DUP1 PUSH1 0xA0 SHL SUB PUSH1 0x4 SLOAD AND PUSH1 0x40 MLOAD PUSH4 0x319A11DF PUSH1 0xE1 SHL DUP2 MSTORE PUSH1 0x20 DUP2 PUSH1 0x4 DUP2 DUP6 GAS STATICCALL DUP1 ISZERO PUSH2 0xC0E JUMPI DUP7 SWAP1 PUSH2 0x136E JUMPI JUMPDEST PUSH2 0xE52 SWAP2 POP PUSH1 0x1 PUSH1 0x1 PUSH1 0xA0 SHL SUB AND CALLER EQ PUSH2 0x1635 JUMP JUMPDEST DUP2 DUP6 MSTORE PUSH1 0x7 PUSH1 0x20 MSTORE PUSH2 0xE6B PUSH1 0xFF PUSH1 0x40 DUP8 KECCAK256 SLOAD AND ISZERO PUSH2 0x1677 JUMP JUMPDEST DUP4 ISZERO ISZERO DUP1 PUSH2 0x1360 JUMPI JUMPDEST PUSH2 0xE7D SWAP1 PUSH2 0x16C3 JUMP JUMPDEST PUSH1 0x3 SLOAD PUSH1 0x40 MLOAD PUSH4 0x95EA5717 PUSH1 0xE0 SHL DUP2 MSTORE PUSH1 0x4 DUP2 ADD DUP6 SWAP1 MSTORE SWAP1 DUP7 SWAP1 DUP3 SWAP1 PUSH1 0x24 SWAP1 DUP3 SWAP1 PUSH1 0x1 PUSH1 0x1 PUSH1 0xA0 SHL SUB AND GAS STATICCALL SWAP1 DUP2 ISZERO PUSH2 0xC0E JUMPI DUP7 SWAP2 PUSH2 0x1346 JUMPI JUMPDEST POP PUSH2 0xEC7 PUSH1 0x80 DUP3 ADD MLOAD ISZERO ISZERO PUSH2 0x1817 JUMP JUMPDEST PUSH2 0xED7 PUSH1 0x40 DUP3 ADD MLOAD DUP7 LT ISZERO PUSH2 0x1858 JUMP JUMPDEST PUSH1 0x40 MLOAD PUSH4 0x8C639A85 PUSH1 0xE0 SHL DUP2 MSTORE PUSH1 0x20 DUP2 PUSH1 0x4 DUP2 DUP7 GAS STATICCALL SWAP1 DUP2 ISZERO PUSH2 0xAB6 JUMPI DUP8 SWAP2 PUSH2 0x1314 JUMPI JUMPDEST POP PUSH2 0xF09 PUSH1 0x14 DUP3 GT ISZERO PUSH2 0x1895 JUMP JUMPDEST PUSH1 0x40 MLOAD PUSH4 0xC5F956AF PUSH1 0xE0 SHL DUP2 MSTORE SWAP3 PUSH1 0x20 DUP5 PUSH1 0x4 DUP2 DUP5 GAS STATICCALL SWAP4 DUP5 ISZERO PUSH2 0x12C8 JUMPI DUP9 SWAP5 PUSH2 0x12D3 JUMPI JUMPDEST POP PUSH1 0x4 SWAP1 PUSH1 0x20 SWAP1 PUSH2 0xF49 PUSH1 0x1 PUSH1 0x1 PUSH1 0xA0 SHL SUB DUP8 AND ISZERO ISZERO PUSH2 0x18D0 JUMP JUMPDEST PUSH1 0x40 MLOAD PUSH4 0x319A11DF PUSH1 0xE1 SHL DUP2 MSTORE SWAP3 DUP4 SWAP2 DUP3 SWAP1 GAS STATICCALL SWAP1 DUP2 ISZERO PUSH2 0x12C8 JUMPI DUP9 SWAP2 PUSH2 0x128A JUMPI JUMPDEST POP PUSH1 0x1 PUSH1 0x1 PUSH1 0xA0 SHL SUB AND DUP1 ISZERO PUSH2 0x1253 JUMPI PUSH1 0x64 SWAP2 PUSH2 0xF8C PUSH2 0xFA9 SWAP3 CALLER EQ PUSH2 0x1635 JUMP JUMPDEST DUP6 DUP10 MSTORE PUSH1 0x7 PUSH1 0x20 MSTORE PUSH1 0x40 DUP10 KECCAK256 DUP1 SLOAD PUSH1 0xFF NOT AND PUSH1 0x1 OR SWAP1 SSTORE DUP8 PUSH2 0x19C4 JUMP JUMPDEST DIV PUSH2 0xFB4 DUP2 DUP8 PUSH2 0x19D7 JUMP JUMPDEST SWAP2 PUSH1 0x1 DUP1 PUSH1 0xA0 SHL SUB PUSH1 0x2 SLOAD AND SWAP4 PUSH1 0x40 MLOAD PUSH4 0x70A08231 PUSH1 0xE0 SHL DUP2 MSTORE ADDRESS PUSH1 0x4 DUP3 ADD MSTORE PUSH1 0x20 DUP2 PUSH1 0x24 DUP2 DUP10 GAS STATICCALL SWAP1 DUP2 ISZERO PUSH2 0xA75 JUMPI DUP11 SWAP2 PUSH2 0x121D JUMPI JUMPDEST POP PUSH2 0xFF6 DUP5 DUP7 PUSH2 0x15C6 JUMP JUMPDEST GT PUSH2 0x11C6 JUMPI PUSH2 0x1015 DUP5 PUSH1 0x20 DUP6 SWAP5 ADD SWAP7 PUSH1 0x1 DUP1 PUSH1 0xA0 SHL SUB DUP9 MLOAD AND SWAP1 PUSH2 0x1A82 JUMP JUMPDEST DUP2 ISZERO ISZERO SWAP2 DUP3 PUSH2 0x11A9 JUMPI JUMPDEST POP POP PUSH1 0x3 SLOAD DUP5 MLOAD PUSH1 0x1 PUSH1 0x1 PUSH1 0xA0 SHL SUB SWAP2 DUP3 AND SWAP2 DUP11 SWAP2 AND DUP3 EXTCODESIZE ISZERO PUSH2 0x825 JUMPI PUSH1 0x40 MLOAD PUSH4 0x70E3D455 PUSH1 0xE1 SHL DUP2 MSTORE PUSH1 0x1 PUSH1 0x1 PUSH1 0xA0 SHL SUB SWAP2 SWAP1 SWAP2 AND PUSH1 0x4 DUP3 ADD MSTORE PUSH1 0x24 DUP2 ADD DUP7 SWAP1 MSTORE SWAP2 DUP3 SWAP1 PUSH1 0x44 SWAP1 DUP3 SWAP1 DUP5 SWAP1 GAS CALL DUP1 ISZERO PUSH2 0x119E JUMPI PUSH2 0x118A JUMPI JUMPDEST POP PUSH2 0x1130 JUMPI JUMPDEST PUSH1 0x3 SLOAD DUP8 SWAP1 PUSH1 0x1 PUSH1 0x1 PUSH1 0xA0 SHL SUB AND DUP1 EXTCODESIZE ISZERO PUSH2 0x825 JUMPI DUP2 DUP1 SWAP2 PUSH1 0x24 PUSH1 0x40 MLOAD DUP1 SWAP5 DUP2 SWAP4 PUSH4 0x13A7DD1D PUSH1 0xE0 SHL DUP4 MSTORE DUP14 PUSH1 0x4 DUP5 ADD MSTORE GAS CALL DUP1 ISZERO PUSH2 0x81A JUMPI PUSH2 0x1117 JUMPI JUMPDEST POP POP SWAP2 MLOAD PUSH1 0x40 DUP1 MLOAD CALLER DUP2 MSTORE PUSH1 0x20 DUP2 ADD SWAP8 SWAP1 SWAP8 MSTORE DUP7 ADD SWAP3 SWAP1 SWAP3 MSTORE PUSH1 0x60 DUP6 ADD MSTORE TIMESTAMP PUSH1 0x80 DUP6 ADD MSTORE PUSH1 0x1 PUSH1 0x1 PUSH1 0xA0 SHL SUB AND SWAP3 PUSH32 0xDAEC0156F045FE9BFFCC686BD77361F536743020F757603C9F1888937CDFC521 SWAP1 PUSH1 0xA0 SWAP1 LOG4 PUSH1 0x1 DUP1 SSTORE DUP1 RETURN JUMPDEST DUP2 PUSH2 0x1121 SWAP2 PUSH2 0x15E9 JUMP JUMPDEST PUSH2 0x112C JUMPI DUP7 CODESIZE PUSH2 0x10BC JUMP JUMPDEST DUP7 DUP1 REVERT JUMPDEST PUSH1 0x3 SLOAD DUP8 SWAP1 PUSH1 0x1 PUSH1 0x1 PUSH1 0xA0 SHL SUB AND DUP1 EXTCODESIZE ISZERO PUSH2 0x825 JUMPI DUP2 DUP1 SWAP2 PUSH1 0x24 PUSH1 0x40 MLOAD DUP1 SWAP5 DUP2 SWAP4 PUSH4 0x69009A13 PUSH1 0xE0 SHL DUP4 MSTORE DUP9 PUSH1 0x4 DUP5 ADD MSTORE GAS CALL DUP1 ISZERO PUSH2 0x81A JUMPI PUSH2 0x1175 JUMPI JUMPDEST POP POP PUSH2 0x107E JUMP JUMPDEST DUP2 PUSH2 0x117F SWAP2 PUSH2 0x15E9 JUMP JUMPDEST PUSH2 0x112C JUMPI DUP7 CODESIZE PUSH2 0x116E JUMP JUMPDEST DUP9 PUSH2 0x1197 SWAP2 SWAP10 SWAP3 SWAP10 PUSH2 0x15E9 JUMP JUMPDEST SWAP7 CODESIZE PUSH2 0x1078 JUMP JUMPDEST PUSH1 0x40 MLOAD RETURNDATASIZE DUP12 DUP3 RETURNDATACOPY RETURNDATASIZE SWAP1 REVERT JUMPDEST PUSH1 0x2 SLOAD PUSH2 0x11BF SWAP3 SWAP1 PUSH1 0x1 PUSH1 0x1 PUSH1 0xA0 SHL SUB AND PUSH2 0x1A82 JUMP JUMPDEST CODESIZE DUP3 PUSH2 0x101F JUMP JUMPDEST PUSH1 0x40 MLOAD PUSH3 0x461BCD PUSH1 0xE5 SHL DUP2 MSTORE PUSH1 0x20 PUSH1 0x4 DUP3 ADD MSTORE PUSH1 0x29 PUSH1 0x24 DUP3 ADD MSTORE PUSH32 0x496E73756666696369656E7420636F6E74726163742062616C616E636520666F PUSH1 0x44 DUP3 ADD MSTORE PUSH9 0x1C881C185E5B595B9D PUSH1 0xBA SHL PUSH1 0x64 DUP3 ADD MSTORE PUSH1 0x84 SWAP1 REVERT JUMPDEST SWAP1 POP PUSH1 0x20 DUP2 RETURNDATASIZE PUSH1 0x20 GT PUSH2 0x124B JUMPI JUMPDEST DUP2 PUSH2 0x1238 PUSH1 0x20 SWAP4 DUP4 PUSH2 0x15E9 JUMP JUMPDEST DUP2 ADD SUB SLT PUSH2 0x1247 JUMPI MLOAD CODESIZE PUSH2 0xFEB JUMP JUMPDEST DUP10 DUP1 REVERT JUMPDEST RETURNDATASIZE SWAP2 POP PUSH2 0x122B JUMP JUMPDEST PUSH1 0x40 MLOAD PUSH3 0x461BCD PUSH1 0xE5 SHL DUP2 MSTORE PUSH1 0x20 PUSH1 0x4 DUP3 ADD MSTORE PUSH1 0xF PUSH1 0x24 DUP3 ADD MSTORE PUSH15 0x125B9D985B1A59081C185E5B595B9D PUSH1 0x8A SHL PUSH1 0x44 DUP3 ADD MSTORE PUSH1 0x64 SWAP1 REVERT JUMPDEST SWAP1 POP PUSH1 0x20 DUP2 RETURNDATASIZE PUSH1 0x20 GT PUSH2 0x12C0 JUMPI JUMPDEST DUP2 PUSH2 0x12A5 PUSH1 0x20 SWAP4 DUP4 PUSH2 0x15E9 JUMP JUMPDEST DUP2 ADD SUB SLT PUSH2 0x12BC JUMPI PUSH2 0x12B6 SWAP1 PUSH2 0x1621 JUMP JUMPDEST CODESIZE PUSH2 0xF6B JUMP JUMPDEST DUP8 DUP1 REVERT JUMPDEST RETURNDATASIZE SWAP2 POP PUSH2 0x1298 JUMP JUMPDEST PUSH1 0x40 MLOAD RETURNDATASIZE DUP11 DUP3 RETURNDATACOPY RETURNDATASIZE SWAP1 REVERT JUMPDEST SWAP1 SWAP4 POP PUSH1 0x20 DUP2 RETURNDATASIZE PUSH1 0x20 GT PUSH2 0x130C JUMPI JUMPDEST DUP2 PUSH2 0x12EF PUSH1 0x20 SWAP4 DUP4 PUSH2 0x15E9 JUMP JUMPDEST DUP2 ADD SUB SLT PUSH2 0x12BC JUMPI PUSH1 0x20 PUSH2 0x1304 PUSH1 0x4 SWAP3 PUSH2 0x1621 JUMP JUMPDEST SWAP5 SWAP2 POP PUSH2 0xF2E JUMP JUMPDEST RETURNDATASIZE SWAP2 POP PUSH2 0x12E2 JUMP JUMPDEST SWAP1 POP PUSH1 0x20 DUP2 RETURNDATASIZE PUSH1 0x20 GT PUSH2 0x133E JUMPI JUMPDEST DUP2 PUSH2 0x132F PUSH1 0x20 SWAP4 DUP4 PUSH2 0x15E9 JUMP JUMPDEST DUP2 ADD SUB SLT PUSH2 0x112C JUMPI MLOAD CODESIZE PUSH2 0xEFB JUMP JUMPDEST RETURNDATASIZE SWAP2 POP PUSH2 0x1322 JUMP JUMPDEST PUSH2 0x135A SWAP2 POP RETURNDATASIZE DUP1 DUP9 DUP4 RETURNDATACOPY PUSH2 0xA67 DUP2 DUP4 PUSH2 0x15E9 JUMP JUMPDEST CODESIZE PUSH2 0xEB7 JUMP JUMPDEST POP PUSH4 0x2FAF080 DUP5 GT ISZERO PUSH2 0xE74 JUMP JUMPDEST POP PUSH1 0x20 DUP2 RETURNDATASIZE PUSH1 0x20 GT PUSH2 0x13A1 JUMPI JUMPDEST DUP2 PUSH2 0x1388 PUSH1 0x20 SWAP4 DUP4 PUSH2 0x15E9 JUMP JUMPDEST DUP2 ADD SUB SLT PUSH2 0xC02 JUMPI PUSH2 0x139C PUSH2 0xE52 SWAP2 PUSH2 0x1621 JUMP JUMPDEST PUSH2 0xE3D JUMP JUMPDEST RETURNDATASIZE SWAP2 POP PUSH2 0x137B JUMP JUMPDEST PUSH32 0xEF6AA729D47E0C1661366CDF3D3E7BC905D9EF1FF95F7B5A9DA45090F6CA88F3 SWAP1 PUSH1 0x40 DUP9 DUP9 SWAP5 DUP2 MSTORE PUSH1 0x6 PUSH1 0x20 MSTORE KECCAK256 SLOAD SWAP1 PUSH2 0x13FC PUSH1 0x40 MLOAD SWAP3 DUP4 SWAP3 CALLER SWAP7 DUP5 PUSH1 0x40 SWAP2 SWAP5 SWAP4 SWAP3 PUSH1 0x60 DUP3 ADD SWAP6 DUP3 MSTORE PUSH1 0x20 DUP3 ADD MSTORE ADD MSTORE JUMP JUMPDEST SUB SWAP1 LOG2 PUSH1 0x40 MLOAD PUSH3 0x461BCD PUSH1 0xE5 SHL DUP2 MSTORE PUSH1 0x20 PUSH1 0x4 DUP3 ADD MSTORE PUSH1 0x1F PUSH1 0x24 DUP3 ADD MSTORE PUSH32 0x4461696C79207769746864726177616C206C696D697420657863656564656400 PUSH1 0x44 DUP3 ADD MSTORE PUSH1 0x64 SWAP1 REVERT JUMPDEST POP CALLVALUE PUSH2 0x1AA JUMPI DUP1 PUSH1 0x3 NOT CALLDATASIZE ADD SLT PUSH2 0x1AA JUMPI PUSH2 0x145D PUSH2 0x1A17 JUMP JUMPDEST DUP1 SLOAD PUSH1 0xFF DUP2 PUSH1 0xA0 SHR AND ISZERO PUSH2 0x14A3 JUMPI PUSH1 0xFF PUSH1 0xA0 SHL NOT AND DUP2 SSTORE PUSH1 0x40 MLOAD CALLER DUP2 MSTORE PUSH32 0x5DB9EE0A495BF2E6FF9C91A7834C1BA4FDD244A5E8AA4E537BD38AEAE4B073AA SWAP1 PUSH1 0x20 SWAP1 LOG1 DUP1 RETURN JUMPDEST PUSH4 0x8DFC202B PUSH1 0xE0 SHL DUP3 MSTORE PUSH1 0x4 DUP3 REVERT JUMPDEST POP CALLVALUE PUSH2 0x1AA JUMPI DUP1 PUSH1 0x3 NOT CALLDATASIZE ADD SLT PUSH2 0x1AA JUMPI PUSH1 0x20 PUSH1 0xFF PUSH1 0x2 SLOAD PUSH1 0xA0 SHR AND PUSH1 0x40 MLOAD SWAP1 DUP2 MSTORE RETURN JUMPDEST POP CALLVALUE PUSH2 0x1AA JUMPI PUSH1 0x20 CALLDATASIZE PUSH1 0x3 NOT ADD SLT PUSH2 0x1AA JUMPI PUSH1 0x40 PUSH1 0x20 SWAP2 PUSH1 0x4 CALLDATALOAD DUP2 MSTORE PUSH1 0x6 DUP4 MSTORE KECCAK256 SLOAD PUSH1 0x40 MLOAD SWAP1 DUP2 MSTORE RETURN JUMPDEST POP CALLVALUE PUSH2 0x1AA JUMPI DUP1 PUSH1 0x3 NOT CALLDATASIZE ADD SLT PUSH2 0x1AA JUMPI PUSH1 0x2 SLOAD PUSH1 0x40 MLOAD PUSH1 0x1 PUSH1 0x1 PUSH1 0xA0 SHL SUB SWAP1 SWAP2 AND DUP2 MSTORE PUSH1 0x20 SWAP1 RETURN JUMPDEST POP CALLVALUE PUSH2 0x1AA JUMPI DUP1 PUSH1 0x3 NOT CALLDATASIZE ADD SLT PUSH2 0x1AA JUMPI PUSH1 0x3 SLOAD PUSH1 0x40 MLOAD PUSH1 0x1 PUSH1 0x1 PUSH1 0xA0 SHL SUB SWAP1 SWAP2 AND DUP2 MSTORE PUSH1 0x20 SWAP1 RETURN JUMPDEST POP CALLVALUE PUSH2 0x1AA JUMPI PUSH1 0x20 CALLDATASIZE PUSH1 0x3 NOT ADD SLT PUSH2 0x1AA JUMPI PUSH1 0x4 CALLDATALOAD PUSH2 0x156F PUSH2 0x1A17 JUMP JUMPDEST DUP1 ISZERO PUSH2 0x157B JUMPI PUSH1 0x5 SSTORE DUP1 RETURN JUMPDEST PUSH1 0x40 MLOAD PUSH3 0x461BCD PUSH1 0xE5 SHL DUP2 MSTORE PUSH1 0x20 PUSH1 0x4 DUP3 ADD MSTORE PUSH1 0xD PUSH1 0x24 DUP3 ADD MSTORE PUSH13 0x125B9D985B1A59081B1A5B5A5D PUSH1 0x9A SHL PUSH1 0x44 DUP3 ADD MSTORE PUSH1 0x64 SWAP1 REVERT JUMPDEST PUSH1 0x4 CALLDATALOAD SWAP1 PUSH1 0x1 PUSH1 0x1 PUSH1 0xA0 SHL SUB DUP3 AND DUP3 SUB PUSH2 0x35D JUMPI JUMP JUMPDEST SWAP2 SWAP1 DUP3 ADD DUP1 SWAP3 GT PUSH2 0x15D3 JUMPI JUMP JUMPDEST PUSH4 0x4E487B71 PUSH1 0xE0 SHL PUSH1 0x0 MSTORE PUSH1 0x11 PUSH1 0x4 MSTORE PUSH1 0x24 PUSH1 0x0 REVERT JUMPDEST SWAP1 PUSH1 0x1F DUP1 NOT SWAP2 ADD AND DUP2 ADD SWAP1 DUP2 LT PUSH8 0xFFFFFFFFFFFFFFFF DUP3 GT OR PUSH2 0x160B JUMPI PUSH1 0x40 MSTORE JUMP JUMPDEST PUSH4 0x4E487B71 PUSH1 0xE0 SHL PUSH1 0x0 MSTORE PUSH1 0x41 PUSH1 0x4 MSTORE PUSH1 0x24 PUSH1 0x0 REVERT JUMPDEST MLOAD SWAP1 PUSH1 0x1 PUSH1 0x1 PUSH1 0xA0 SHL SUB DUP3 AND DUP3 SUB PUSH2 0x35D JUMPI JUMP JUMPDEST ISZERO PUSH2 0x163C JUMPI JUMP JUMPDEST PUSH1 0x40 MLOAD PUSH3 0x461BCD PUSH1 0xE5 SHL DUP2 MSTORE PUSH1 0x20 PUSH1 0x4 DUP3 ADD MSTORE PUSH1 0x13 PUSH1 0x24 DUP3 ADD MSTORE PUSH19 0x4E6F74207061796D656E742061646472657373 PUSH1 0x68 SHL PUSH1 0x44 DUP3 ADD MSTORE PUSH1 0x64 SWAP1 REVERT JUMPDEST ISZERO PUSH2 0x167E JUMPI JUMP JUMPDEST PUSH1 0x40 MLOAD PUSH3 0x461BCD PUSH1 0xE5 SHL DUP2 MSTORE PUSH1 0x20 PUSH1 0x4 DUP3 ADD MSTORE PUSH1 0x19 PUSH1 0x24 DUP3 ADD MSTORE PUSH32 0x566F756368657220616C72656164792070726F63657373656400000000000000 PUSH1 0x44 DUP3 ADD MSTORE PUSH1 0x64 SWAP1 REVERT JUMPDEST ISZERO PUSH2 0x16CA JUMPI JUMP JUMPDEST PUSH1 0x40 MLOAD PUSH3 0x461BCD PUSH1 0xE5 SHL DUP2 MSTORE PUSH1 0x20 PUSH1 0x4 DUP3 ADD MSTORE PUSH1 0xE PUSH1 0x24 DUP3 ADD MSTORE PUSH14 0x125B9D985B1A5908185B5BDD5B9D PUSH1 0x92 SHL PUSH1 0x44 DUP3 ADD MSTORE PUSH1 0x64 SWAP1 REVERT JUMPDEST PUSH1 0x20 DUP2 DUP4 SUB SLT PUSH2 0x35D JUMPI DUP1 MLOAD SWAP1 PUSH8 0xFFFFFFFFFFFFFFFF DUP3 GT PUSH2 0x35D JUMPI ADD PUSH1 0xE0 DUP2 DUP4 SUB SLT PUSH2 0x35D JUMPI PUSH1 0x40 MLOAD SWAP2 PUSH1 0xE0 DUP4 ADD DUP4 DUP2 LT PUSH8 0xFFFFFFFFFFFFFFFF DUP3 GT OR PUSH2 0x160B JUMPI PUSH1 0x40 MSTORE DUP2 MLOAD DUP4 MSTORE PUSH2 0x1755 PUSH1 0x20 DUP4 ADD PUSH2 0x1621 JUMP JUMPDEST PUSH1 0x20 DUP5 ADD MSTORE PUSH1 0x40 DUP3 ADD MLOAD PUSH1 0x40 DUP5 ADD MSTORE PUSH1 0x60 DUP3 ADD MLOAD PUSH8 0xFFFFFFFFFFFFFFFF DUP2 GT PUSH2 0x35D JUMPI DUP3 ADD DUP2 PUSH1 0x1F DUP3 ADD SLT ISZERO PUSH2 0x35D JUMPI DUP1 MLOAD SWAP1 PUSH8 0xFFFFFFFFFFFFFFFF DUP3 GT PUSH2 0x160B JUMPI PUSH1 0x40 MLOAD SWAP3 PUSH2 0x17AF PUSH1 0x1F DUP5 ADD PUSH1 0x1F NOT AND PUSH1 0x20 ADD DUP6 PUSH2 0x15E9 JUMP JUMPDEST DUP3 DUP5 MSTORE PUSH1 0x20 DUP4 DUP4 ADD ADD GT PUSH2 0x35D JUMPI PUSH1 0x0 JUMPDEST DUP3 DUP2 LT PUSH2 0x1802 JUMPI POP POP PUSH1 0x20 PUSH1 0x0 SWAP2 DUP4 ADD ADD MSTORE PUSH1 0x60 DUP4 ADD MSTORE PUSH1 0x80 DUP2 ADD MLOAD SWAP1 DUP2 ISZERO ISZERO DUP3 SUB PUSH2 0x35D JUMPI PUSH1 0xC0 SWAP2 PUSH1 0x80 DUP5 ADD MSTORE PUSH1 0xA0 DUP2 ADD MLOAD PUSH1 0xA0 DUP5 ADD MSTORE ADD MLOAD PUSH1 0xC0 DUP3 ADD MSTORE SWAP1 JUMP JUMPDEST DUP1 PUSH1 0x20 DUP1 SWAP3 DUP5 ADD ADD MLOAD DUP3 DUP3 DUP8 ADD ADD MSTORE ADD PUSH2 0x17C0 JUMP JUMPDEST ISZERO PUSH2 0x181E JUMPI JUMP JUMPDEST PUSH1 0x40 MLOAD PUSH3 0x461BCD PUSH1 0xE5 SHL DUP2 MSTORE PUSH1 0x20 PUSH1 0x4 DUP3 ADD MSTORE PUSH1 0x12 PUSH1 0x24 DUP3 ADD MSTORE PUSH18 0x4E6574776F726B206E6F7420616374697665 PUSH1 0x70 SHL PUSH1 0x44 DUP3 ADD MSTORE PUSH1 0x64 SWAP1 REVERT JUMPDEST ISZERO PUSH2 0x185F JUMPI JUMP JUMPDEST PUSH1 0x40 MLOAD PUSH3 0x461BCD PUSH1 0xE5 SHL DUP2 MSTORE PUSH1 0x20 PUSH1 0x4 DUP3 ADD MSTORE PUSH1 0xE PUSH1 0x24 DUP3 ADD MSTORE PUSH14 0x416D6F756E7420746F6F206C6F77 PUSH1 0x90 SHL PUSH1 0x44 DUP3 ADD MSTORE PUSH1 0x64 SWAP1 REVERT JUMPDEST ISZERO PUSH2 0x189C JUMPI JUMP JUMPDEST PUSH1 0x40 MLOAD PUSH3 0x461BCD PUSH1 0xE5 SHL DUP2 MSTORE PUSH1 0x20 PUSH1 0x4 DUP3 ADD MSTORE PUSH1 0xC PUSH1 0x24 DUP3 ADD MSTORE PUSH12 0x8CCACA40E8DEDE40D0D2CED PUSH1 0xA3 SHL PUSH1 0x44 DUP3 ADD MSTORE PUSH1 0x64 SWAP1 REVERT JUMPDEST ISZERO PUSH2 0x18D7 JUMPI JUMP JUMPDEST PUSH1 0x40 MLOAD PUSH3 0x461BCD PUSH1 0xE5 SHL DUP2 MSTORE PUSH1 0x20 PUSH1 0x4 DUP3 ADD MSTORE PUSH1 0x10 PUSH1 0x24 DUP3 ADD MSTORE PUSH16 0x496E76616C6964207472656173757279 PUSH1 0x80 SHL PUSH1 0x44 DUP3 ADD MSTORE PUSH1 0x64 SWAP1 REVERT JUMPDEST SWAP2 SWAP1 DUP2 LT ISZERO PUSH2 0x191F JUMPI PUSH1 0x60 MUL ADD SWAP1 JUMP JUMPDEST PUSH4 0x4E487B71 PUSH1 0xE0 SHL PUSH1 0x0 MSTORE PUSH1 0x32 PUSH1 0x4 MSTORE PUSH1 0x24 PUSH1 0x0 REVERT JUMPDEST PUSH1 0x60 DUP2 CALLDATASIZE SUB SLT PUSH2 0x35D JUMPI PUSH1 0x40 MLOAD SWAP1 PUSH1 0x60 DUP3 ADD SWAP1 DUP3 DUP3 LT PUSH8 0xFFFFFFFFFFFFFFFF DUP4 GT OR PUSH2 0x160B JUMPI PUSH1 0x40 SWAP2 DUP3 MSTORE DUP1 CALLDATALOAD DUP4 MSTORE PUSH1 0x20 DUP2 ADD CALLDATALOAD PUSH1 0x20 DUP5 ADD MSTORE ADD CALLDATALOAD PUSH1 0x40 DUP3 ADD MSTORE SWAP1 JUMP JUMPDEST ISZERO PUSH2 0x197F JUMPI JUMP JUMPDEST PUSH1 0x40 MLOAD PUSH3 0x461BCD PUSH1 0xE5 SHL DUP2 MSTORE PUSH1 0x20 PUSH1 0x4 DUP3 ADD MSTORE PUSH1 0x1D PUSH1 0x24 DUP3 ADD MSTORE PUSH32 0x496E73756666696369656E7420636F6E74726163742062616C616E6365000000 PUSH1 0x44 DUP3 ADD MSTORE PUSH1 0x64 SWAP1 REVERT JUMPDEST DUP2 DUP2 MUL SWAP3 SWAP2 DUP2 ISZERO SWAP2 DUP5 DIV EQ OR ISZERO PUSH2 0x15D3 JUMPI JUMP JUMPDEST SWAP2 SWAP1 DUP3 SUB SWAP2 DUP3 GT PUSH2 0x15D3 JUMPI JUMP JUMPDEST PUSH3 0x15180 TIMESTAMP DIV PUSH1 0x0 SWAP1 DUP2 MSTORE PUSH1 0x6 PUSH1 0x20 MSTORE PUSH1 0x40 SWAP1 KECCAK256 SLOAD PUSH1 0x5 SLOAD SWAP1 DUP2 DUP2 LT PUSH2 0x1A0B JUMPI POP POP PUSH1 0x0 SWAP1 JUMP JUMPDEST PUSH2 0x1A14 SWAP2 PUSH2 0x19D7 JUMP JUMPDEST SWAP1 JUMP JUMPDEST PUSH1 0x0 SLOAD PUSH1 0x1 PUSH1 0x1 PUSH1 0xA0 SHL SUB AND CALLER SUB PUSH2 0x1A2B JUMPI JUMP JUMPDEST PUSH4 0x118CDAA7 PUSH1 0xE0 SHL PUSH1 0x0 MSTORE CALLER PUSH1 0x4 MSTORE PUSH1 0x24 PUSH1 0x0 REVERT JUMPDEST PUSH1 0xFF PUSH1 0x0 SLOAD PUSH1 0xA0 SHR AND PUSH2 0x1A4F JUMPI JUMP JUMPDEST PUSH4 0xD93C0665 PUSH1 0xE0 SHL PUSH1 0x0 MSTORE PUSH1 0x4 PUSH1 0x0 REVERT JUMPDEST PUSH1 0x2 PUSH1 0x1 SLOAD EQ PUSH2 0x1A71 JUMPI PUSH1 0x2 PUSH1 0x1 SSTORE JUMP JUMPDEST PUSH4 0x3EE5AEB5 PUSH1 0xE0 SHL PUSH1 0x0 MSTORE PUSH1 0x4 PUSH1 0x0 REVERT JUMPDEST PUSH1 0x40 MLOAD PUSH4 0xA9059CBB PUSH1 0xE0 SHL PUSH1 0x20 DUP1 DUP4 ADD SWAP2 DUP3 MSTORE PUSH1 0x1 PUSH1 0x1 PUSH1 0xA0 SHL SUB SWAP5 SWAP1 SWAP5 AND PUSH1 0x24 DUP4 ADD MSTORE PUSH1 0x44 DUP1 DUP4 ADD SWAP6 SWAP1 SWAP6 MSTORE SWAP4 DUP2 MSTORE SWAP1 SWAP3 PUSH1 0x0 SWAP2 PUSH2 0x1AC2 PUSH1 0x64 DUP3 PUSH2 0x15E9 JUMP JUMPDEST MLOAD SWAP1 DUP3 DUP6 GAS CALL ISZERO PUSH2 0x1B14 JUMPI PUSH1 0x0 MLOAD RETURNDATASIZE PUSH2 0x1B0B JUMPI POP PUSH1 0x1 PUSH1 0x1 PUSH1 0xA0 SHL SUB DUP2 AND EXTCODESIZE ISZERO JUMPDEST PUSH2 0x1AEA JUMPI POP JUMP JUMPDEST PUSH4 0x5274AFE7 PUSH1 0xE0 SHL PUSH1 0x0 SWAP1 DUP2 MSTORE PUSH1 0x1 PUSH1 0x1 PUSH1 0xA0 SHL SUB SWAP2 SWAP1 SWAP2 AND PUSH1 0x4 MSTORE PUSH1 0x24 SWAP1 REVERT JUMPDEST PUSH1 0x1 EQ ISZERO PUSH2 0x1AE3 JUMP JUMPDEST PUSH1 0x40 MLOAD RETURNDATASIZE PUSH1 0x0 DUP3 RETURNDATACOPY RETURNDATASIZE SWAP1 REVERT INVALID LOG2 PUSH5 0x6970667358 0x22 SLT KECCAK256 PREVRANDAO BLOBBASEFEE 0xAC 0xE8 0xAE LOG3 MCOPY DUP4 0x2A DUP16 CALLER DUP8 SELFBALANCE SWAP2 TSTORE SGT POP SWAP7 SUB 0x1E 0xB4 GAS COINBASE DUP9 SLT SDIV 0x2F 0xD5 0x4C PUSH2 0x3337 PUSH5 0x736F6C6343 STOP ADDMOD SHR STOP CALLER "
        },
        "methodIdentifiers": {
          "MAX_FEERATE_PERCENT()": "5b3c0528",
          "MAX_INDIVIDUAL_PAYMENT()": "4cf4caa5",
          "adminContract()": "c05c5e94",
          "contractTokenBalance()": "9e9aed62",
          "dailyWithdrawalLimit()": "7620843a",
          "dailyWithdrawals(uint256)": "33770245",
          "getRemainingDailyLimit()": "a15f39e8",
          "getTodayWithdrawals()": "c4d276bc",
          "isVoucherProcessed(bytes32)": "0604bfa4",
          "owner()": "8da5cb5b",
          "pause()": "8456cb59",
          "paused()": "5c975abb",
          "processBatchPayments((uint256,uint256,bytes32)[])": "7ddd23e1",
          "processPayment(uint256,uint256,bytes32)": "4342482d",
          "processedVouchers(bytes32)": "b9a24544",
          "renounceOwnership()": "715018a6",
          "rescueERC20(address,address,uint256)": "b2118a8d",
          "setDailyWithdrawalLimit(uint256)": "05483a15",
          "storageContract()": "11ce0267",
          "tokenDecimals()": "3b97e856",
          "transferOwnership(address)": "f2fde38b",
          "unpause()": "3f4ba83a",
          "usdt()": "2f48ab7d",
          "withdrawToken(address,uint256)": "9e281a98"
        }
      }
    }
  }
}