{
  "contracts/ZaaNetStorage.sol": {
    "ZaaNetStorage": {
      "abi": [
        {
          "inputs": [],
          "stateMutability": "nonpayable",
          "type": "constructor"
        },
        {
          "inputs": [
            {
              "internalType": "address",
              "name": "owner",
              "type": "address"
            }
          ],
          "name": "OwnableInvalidOwner",
          "type": "error"
        },
        {
          "inputs": [
            {
              "internalType": "address",
              "name": "account",
              "type": "address"
            }
          ],
          "name": "OwnableUnauthorizedAccount",
          "type": "error"
        },
        {
          "inputs": [],
          "name": "ReentrancyGuardReentrantCall",
          "type": "error"
        },
        {
          "anonymous": false,
          "inputs": [
            {
              "indexed": true,
              "internalType": "address",
              "name": "caller",
              "type": "address"
            },
            {
              "indexed": false,
              "internalType": "bool",
              "name": "status",
              "type": "bool"
            }
          ],
          "name": "AllowedCallerUpdated",
          "type": "event"
        },
        {
          "anonymous": false,
          "inputs": [
            {
              "indexed": true,
              "internalType": "address",
              "name": "hostAddress",
              "type": "address"
            },
            {
              "indexed": false,
              "internalType": "uint256",
              "name": "totalEarned",
              "type": "uint256"
            }
          ],
          "name": "HostEarningsUpdated",
          "type": "event"
        },
        {
          "anonymous": false,
          "inputs": [
            {
              "indexed": true,
              "internalType": "uint256",
              "name": "id",
              "type": "uint256"
            },
            {
              "indexed": true,
              "internalType": "address",
              "name": "hostAddress",
              "type": "address"
            },
            {
              "indexed": false,
              "internalType": "uint256",
              "name": "pricePerSession",
              "type": "uint256"
            }
          ],
          "name": "NetworkStored",
          "type": "event"
        },
        {
          "anonymous": false,
          "inputs": [
            {
              "indexed": true,
              "internalType": "uint256",
              "name": "id",
              "type": "uint256"
            },
            {
              "indexed": true,
              "internalType": "address",
              "name": "hostAddress",
              "type": "address"
            }
          ],
          "name": "NetworkUpdated",
          "type": "event"
        },
        {
          "anonymous": false,
          "inputs": [
            {
              "indexed": true,
              "internalType": "address",
              "name": "previousOwner",
              "type": "address"
            },
            {
              "indexed": true,
              "internalType": "address",
              "name": "newOwner",
              "type": "address"
            }
          ],
          "name": "OwnershipTransferred",
          "type": "event"
        },
        {
          "anonymous": false,
          "inputs": [
            {
              "indexed": true,
              "internalType": "uint256",
              "name": "sessionId",
              "type": "uint256"
            },
            {
              "indexed": true,
              "internalType": "address",
              "name": "paymentAddress",
              "type": "address"
            },
            {
              "indexed": false,
              "internalType": "uint256",
              "name": "amount",
              "type": "uint256"
            }
          ],
          "name": "SessionStored",
          "type": "event"
        },
        {
          "anonymous": false,
          "inputs": [
            {
              "indexed": false,
              "internalType": "uint256",
              "name": "totalEarned",
              "type": "uint256"
            }
          ],
          "name": "ZaaNetEarningsUpdated",
          "type": "event"
        },
        {
          "inputs": [
            {
              "internalType": "address",
              "name": "",
              "type": "address"
            }
          ],
          "name": "allowedCallers",
          "outputs": [
            {
              "internalType": "bool",
              "name": "",
              "type": "bool"
            }
          ],
          "stateMutability": "view",
          "type": "function"
        },
        {
          "inputs": [
            {
              "internalType": "uint256",
              "name": "networkId",
              "type": "uint256"
            }
          ],
          "name": "emergencyDeactivateNetwork",
          "outputs": [],
          "stateMutability": "nonpayable",
          "type": "function"
        },
        {
          "inputs": [
            {
              "internalType": "address",
              "name": "hostAddress",
              "type": "address"
            }
          ],
          "name": "getHostEarnings",
          "outputs": [
            {
              "internalType": "uint256",
              "name": "",
              "type": "uint256"
            }
          ],
          "stateMutability": "view",
          "type": "function"
        },
        {
          "inputs": [
            {
              "internalType": "address",
              "name": "hostAddress",
              "type": "address"
            }
          ],
          "name": "getHostNetworks",
          "outputs": [
            {
              "internalType": "uint256[]",
              "name": "",
              "type": "uint256[]"
            }
          ],
          "stateMutability": "view",
          "type": "function"
        },
        {
          "inputs": [
            {
              "internalType": "uint256",
              "name": "id",
              "type": "uint256"
            }
          ],
          "name": "getNetwork",
          "outputs": [
            {
              "components": [
                {
                  "internalType": "uint256",
                  "name": "id",
                  "type": "uint256"
                },
                {
                  "internalType": "address",
                  "name": "hostAddress",
                  "type": "address"
                },
                {
                  "internalType": "uint256",
                  "name": "pricePerSession",
                  "type": "uint256"
                },
                {
                  "internalType": "string",
                  "name": "mongoDataId",
                  "type": "string"
                },
                {
                  "internalType": "bool",
                  "name": "isActive",
                  "type": "bool"
                },
                {
                  "internalType": "uint256",
                  "name": "createdAt",
                  "type": "uint256"
                },
                {
                  "internalType": "uint256",
                  "name": "updatedAt",
                  "type": "uint256"
                }
              ],
              "internalType": "struct ZaaNetStorage.Network",
              "name": "",
              "type": "tuple"
            }
          ],
          "stateMutability": "view",
          "type": "function"
        },
        {
          "inputs": [
            {
              "internalType": "uint256",
              "name": "offset",
              "type": "uint256"
            },
            {
              "internalType": "uint256",
              "name": "limit",
              "type": "uint256"
            }
          ],
          "name": "getNetworksPaginated",
          "outputs": [
            {
              "components": [
                {
                  "internalType": "uint256",
                  "name": "id",
                  "type": "uint256"
                },
                {
                  "internalType": "address",
                  "name": "hostAddress",
                  "type": "address"
                },
                {
                  "internalType": "uint256",
                  "name": "pricePerSession",
                  "type": "uint256"
                },
                {
                  "internalType": "string",
                  "name": "mongoDataId",
                  "type": "string"
                },
                {
                  "internalType": "bool",
                  "name": "isActive",
                  "type": "bool"
                },
                {
                  "internalType": "uint256",
                  "name": "createdAt",
                  "type": "uint256"
                },
                {
                  "internalType": "uint256",
                  "name": "updatedAt",
                  "type": "uint256"
                }
              ],
              "internalType": "struct ZaaNetStorage.Network[]",
              "name": "",
              "type": "tuple[]"
            },
            {
              "internalType": "uint256",
              "name": "total",
              "type": "uint256"
            }
          ],
          "stateMutability": "view",
          "type": "function"
        },
        {
          "inputs": [],
          "name": "getZaaNetEarnings",
          "outputs": [
            {
              "internalType": "uint256",
              "name": "",
              "type": "uint256"
            }
          ],
          "stateMutability": "view",
          "type": "function"
        },
        {
          "inputs": [
            {
              "internalType": "address",
              "name": "",
              "type": "address"
            }
          ],
          "name": "hostEarnings",
          "outputs": [
            {
              "internalType": "uint256",
              "name": "",
              "type": "uint256"
            }
          ],
          "stateMutability": "view",
          "type": "function"
        },
        {
          "inputs": [
            {
              "internalType": "address",
              "name": "",
              "type": "address"
            },
            {
              "internalType": "uint256",
              "name": "",
              "type": "uint256"
            }
          ],
          "name": "hostNetworkIds",
          "outputs": [
            {
              "internalType": "uint256",
              "name": "",
              "type": "uint256"
            }
          ],
          "stateMutability": "view",
          "type": "function"
        },
        {
          "inputs": [
            {
              "internalType": "address",
              "name": "hostAddress",
              "type": "address"
            },
            {
              "internalType": "uint256",
              "name": "amount",
              "type": "uint256"
            }
          ],
          "name": "increaseHostEarnings",
          "outputs": [],
          "stateMutability": "nonpayable",
          "type": "function"
        },
        {
          "inputs": [
            {
              "internalType": "uint256",
              "name": "amount",
              "type": "uint256"
            }
          ],
          "name": "increaseZaaNetEarnings",
          "outputs": [],
          "stateMutability": "nonpayable",
          "type": "function"
        },
        {
          "inputs": [],
          "name": "incrementNetworkId",
          "outputs": [
            {
              "internalType": "uint256",
              "name": "",
              "type": "uint256"
            }
          ],
          "stateMutability": "nonpayable",
          "type": "function"
        },
        {
          "inputs": [
            {
              "internalType": "uint256",
              "name": "",
              "type": "uint256"
            }
          ],
          "name": "networkExists",
          "outputs": [
            {
              "internalType": "bool",
              "name": "",
              "type": "bool"
            }
          ],
          "stateMutability": "view",
          "type": "function"
        },
        {
          "inputs": [],
          "name": "networkIdCounter",
          "outputs": [
            {
              "internalType": "uint256",
              "name": "",
              "type": "uint256"
            }
          ],
          "stateMutability": "view",
          "type": "function"
        },
        {
          "inputs": [
            {
              "internalType": "uint256",
              "name": "",
              "type": "uint256"
            }
          ],
          "name": "networks",
          "outputs": [
            {
              "internalType": "uint256",
              "name": "id",
              "type": "uint256"
            },
            {
              "internalType": "address",
              "name": "hostAddress",
              "type": "address"
            },
            {
              "internalType": "uint256",
              "name": "pricePerSession",
              "type": "uint256"
            },
            {
              "internalType": "string",
              "name": "mongoDataId",
              "type": "string"
            },
            {
              "internalType": "bool",
              "name": "isActive",
              "type": "bool"
            },
            {
              "internalType": "uint256",
              "name": "createdAt",
              "type": "uint256"
            },
            {
              "internalType": "uint256",
              "name": "updatedAt",
              "type": "uint256"
            }
          ],
          "stateMutability": "view",
          "type": "function"
        },
        {
          "inputs": [],
          "name": "owner",
          "outputs": [
            {
              "internalType": "address",
              "name": "",
              "type": "address"
            }
          ],
          "stateMutability": "view",
          "type": "function"
        },
        {
          "inputs": [],
          "name": "renounceOwnership",
          "outputs": [],
          "stateMutability": "nonpayable",
          "type": "function"
        },
        {
          "inputs": [
            {
              "internalType": "uint256",
              "name": "",
              "type": "uint256"
            }
          ],
          "name": "sessionExists",
          "outputs": [
            {
              "internalType": "bool",
              "name": "",
              "type": "bool"
            }
          ],
          "stateMutability": "view",
          "type": "function"
        },
        {
          "inputs": [
            {
              "internalType": "address",
              "name": "_caller",
              "type": "address"
            },
            {
              "internalType": "bool",
              "name": "status",
              "type": "bool"
            }
          ],
          "name": "setAllowedCaller",
          "outputs": [],
          "stateMutability": "nonpayable",
          "type": "function"
        },
        {
          "inputs": [
            {
              "internalType": "address[]",
              "name": "_callers",
              "type": "address[]"
            },
            {
              "internalType": "bool",
              "name": "status",
              "type": "bool"
            }
          ],
          "name": "setAllowedCallers",
          "outputs": [],
          "stateMutability": "nonpayable",
          "type": "function"
        },
        {
          "inputs": [
            {
              "internalType": "uint256",
              "name": "id",
              "type": "uint256"
            },
            {
              "components": [
                {
                  "internalType": "uint256",
                  "name": "id",
                  "type": "uint256"
                },
                {
                  "internalType": "address",
                  "name": "hostAddress",
                  "type": "address"
                },
                {
                  "internalType": "uint256",
                  "name": "pricePerSession",
                  "type": "uint256"
                },
                {
                  "internalType": "string",
                  "name": "mongoDataId",
                  "type": "string"
                },
                {
                  "internalType": "bool",
                  "name": "isActive",
                  "type": "bool"
                },
                {
                  "internalType": "uint256",
                  "name": "createdAt",
                  "type": "uint256"
                },
                {
                  "internalType": "uint256",
                  "name": "updatedAt",
                  "type": "uint256"
                }
              ],
              "internalType": "struct ZaaNetStorage.Network",
              "name": "net",
              "type": "tuple"
            }
          ],
          "name": "setNetwork",
          "outputs": [],
          "stateMutability": "nonpayable",
          "type": "function"
        },
        {
          "inputs": [],
          "name": "totalHostingAmount",
          "outputs": [
            {
              "internalType": "uint256",
              "name": "",
              "type": "uint256"
            }
          ],
          "stateMutability": "view",
          "type": "function"
        },
        {
          "inputs": [],
          "name": "totalPaymentsAmount",
          "outputs": [
            {
              "internalType": "uint256",
              "name": "",
              "type": "uint256"
            }
          ],
          "stateMutability": "view",
          "type": "function"
        },
        {
          "inputs": [],
          "name": "totalWithdrawalsAmount",
          "outputs": [
            {
              "internalType": "uint256",
              "name": "",
              "type": "uint256"
            }
          ],
          "stateMutability": "view",
          "type": "function"
        },
        {
          "inputs": [
            {
              "internalType": "address",
              "name": "newOwner",
              "type": "address"
            }
          ],
          "name": "transferOwnership",
          "outputs": [],
          "stateMutability": "nonpayable",
          "type": "function"
        },
        {
          "inputs": [
            {
              "internalType": "uint256",
              "name": "amount",
              "type": "uint256"
            }
          ],
          "name": "updateTotalHostingAmount",
          "outputs": [],
          "stateMutability": "nonpayable",
          "type": "function"
        },
        {
          "inputs": [
            {
              "internalType": "uint256",
              "name": "amount",
              "type": "uint256"
            }
          ],
          "name": "updateTotalPaymentsAmount",
          "outputs": [],
          "stateMutability": "nonpayable",
          "type": "function"
        },
        {
          "inputs": [
            {
              "internalType": "uint256",
              "name": "amount",
              "type": "uint256"
            }
          ],
          "name": "updateTotalWithdrawalsAmount",
          "outputs": [],
          "stateMutability": "nonpayable",
          "type": "function"
        },
        {
          "inputs": [],
          "name": "zaanetEarnings",
          "outputs": [
            {
              "internalType": "uint256",
              "name": "",
              "type": "uint256"
            }
          ],
          "stateMutability": "view",
          "type": "function"
        }
      ],
      "evm": {
        "bytecode": {
          "linkReferences": {},
          "object": "60808060405234608d57331560775760008054336001600160a01b0319821681178355916001600160a01b03909116907f8be0079c531659141344cd1fd0a4f28419497f9722a3daafe3b4186f6b6457e09080a36001805560006004556000600555600060065560006007556116d090816100938239f35b631e4fbdf760e01b600052600060045260246000fd5b600080fdfe6080604052600436101561001257600080fd5b60003560e01c80631190defd1461102f57806313a7dd1d14610fbe578063217c682d14610fa057806322a4808b14610f64578063242d30bc14610f8257806329c718b5146108cc5780634ce083be14610f6457806350c0d41c14610a7d5780635290ffc614610a025780635a2f406f1461097757806369009a13146109065780636d65573f146108cc578063715018a61461087357806373f9a5d71461075857806379f0dc571461069e5780637b3341541461065f5780637bae8f5e146106065780637ee3b6fc146105e8578063879ecf10146105b75780638bb0a17c146105245780638da5cb5b146104fb57806395ea571714610494578063ad2c30b114610476578063bed3165414610405578063d8b0e71614610376578063e1c7a8aa146102a1578063ec13f2a114610270578063f2fde38b146101e75763fa9c81a41461015b57600080fd5b346101e25760403660031901126101e25761017a60243560043561153e565b9060405190604082016040835281518091526060830190602060608260051b8601019301916000905b8282106101b7578580868960208301520390f35b909192936020806101d4600193605f198a82030186528851611250565b9601920192019092916101a3565b600080fd5b346101e25760203660031901126101e2576102006110a0565b610208611671565b6001600160a01b0316801561025a57600080546001600160a01b03198116831782556001600160a01b0316907f8be0079c531659141344cd1fd0a4f28419497f9722a3daafe3b4186f6b6457e09080a3005b631e4fbdf760e01b600052600060045260246000fd5b346101e25760203660031901126101e257600435600052600b602052602060ff604060002054166040519015158152f35b346101e25760403660031901126101e2576102ba6110a0565b6024359033600052600260205260ff604060002054168015610362575b6102e0906112ac565b6102e861164f565b6001600160a01b0316906102fd821515611356565b6103088115156112e9565b8160005260096020526103216040600020918254611335565b90558060005260096020527f61a8b1a557e4d03803db90d13ff76db2c25fba3ed24882cecda8c8423b9b2be06020604060002054604051908152a260018055005b506000546001600160a01b031633146102d7565b346101e25760403660031901126101e25761038f6110a0565b7fd6fc3082ae3a144ca59421d96180398241c1dd021d45d5a24fb5bf96c9f8212f60206103ba6110b6565b926103c3611671565b6001600160a01b0316926103d8841515611421565b83600052600282526103fa8160406000209060ff801983541691151516179055565b6040519015158152a2005b346101e25760203660031901126101e25761045960043533600052600260205260ff604060002054168015610462575b61043e906112ac565b61044661164f565b6104518115156112e9565b600554611335565b60055560018055005b506000546001600160a01b03163314610435565b346101e25760003660031901126101e2576020600554604051908152f35b346101e25760203660031901126101e2576004356104b0611466565b5080600052600b6020526104cb60ff604060002054166113cc565b60005260086020526104f76104e3604060002061149d565b604051918291602083526020830190611250565b0390f35b346101e25760003660031901126101e2576000546040516001600160a01b039091168152602090f35b346101e25760203660031901126101e25760043560005260086020526040600020805460018060a01b036001830154169160028101546105666003830161116b565b916105a160ff60048301541693600660058401549301549360405197889788526020880152604087015260e0606087015260e086019061120f565b921515608085015260a084015260c08301520390f35b346101e25760203660031901126101e257600435600052600c602052602060ff604060002054166040519015158152f35b346101e25760003660031901126101e2576020600454604051908152f35b346101e25760403660031901126101e25761061f6110a0565b6001600160a01b03166000908152600a60205260409020805460243591908210156101e257602091610650916110c5565b90549060031b1c604051908152f35b346101e25760203660031901126101e2576001600160a01b036106806110a0565b166000526002602052602060ff604060002054166040519015158152f35b346101e25760203660031901126101e2576001600160a01b036106bf6110a0565b16600052600a60205260406000206040518060208354918281520190819360005260206000209060005b81811061074257505050816106ff910382611149565b6040519182916020830190602084525180915260408301919060005b818110610729575050500390f35b825184528594506020938401939092019160010161071b565b82548452602090930192600192830192016106e9565b346101e25760403660031901126101e25760043567ffffffffffffffff81116101e257366023820112156101e257806004013567ffffffffffffffff81116101e2576024820191602436918360051b0101116101e2576107b66110b6565b6107be611671565b8015159060005b8381106107ce57005b6001906107f76001600160a01b036107ef6107ea84898b611411565b611342565b161515611421565b818060a01b0361080b6107ea83888a611411565b16600052600260205261082e8360406000209060ff801983541691151516179055565b818060a01b036108426107ea83888a611411565b167fd6fc3082ae3a144ca59421d96180398241c1dd021d45d5a24fb5bf96c9f8212f6020604051878152a2016107c5565b346101e25760003660031901126101e25761088c611671565b600080546001600160a01b0319811682556001600160a01b03167f8be0079c531659141344cd1fd0a4f28419497f9722a3daafe3b4186f6b6457e08280a3005b346101e25760203660031901126101e2576001600160a01b036108ed6110a0565b1660005260096020526020604060002054604051908152f35b346101e25760203660031901126101e25761095a60043533600052600260205260ff604060002054168015610963575b61093f906112ac565b61094761164f565b6109528115156112e9565b600754611335565b60075560018055005b506000546001600160a01b03163314610936565b346101e25760203660031901126101e257600435610993611671565b80600052600b6020526109ad60ff604060002054166113cc565b600081815260086020526040812060048101805460ff19169055426006820155600101546001600160a01b031691907f14796949d4d1a6824063ec05e354db666bde3356a8cf646c6075272b5353185c9080a3005b346101e25760003660031901126101e25733600052600260205260ff604060002054168015610a69575b610a35906112ac565b6003546000198114610a535760016020910180600355604051908152f35b634e487b7160e01b600052601160045260246000fd5b506000546001600160a01b03163314610a2c565b346101e25760403660031901126101e25760243560043567ffffffffffffffff82116101e257816004019160e060031982360301126101e25733600052600260205260ff604060002054168015610f50575b610ad8906112ac565b8115610f16576024810190610aff6001600160a01b03610af784611342565b161515611356565b6044810135938415610ed15760648201610b198183611399565b905015610e955784600052600b602052608460ff604060002054161593610b49610b4287611342565b9385611399565b9290910135908115158092036101e2578515610e7d5742925b60405195610b6f8761112d565b3586526001600160a01b0390941660208601908152604086018a8152909467ffffffffffffffff8111610d665760405192610bb4601f8301601f191660200185611149565b81845236828201116101e257816000926020928387013784010152606086019182526080860192835260a086019384524260c0870190815260008a81526008602052604090209651875594516001870180546001600160a01b0319166001600160a01b0392909216919091179055516002860155518051600386019167ffffffffffffffff8211610d6657610c4983546110f3565b601f8111610e35575b50602090601f8311600114610dc5579180610ca39492600698979694600092610dba575b50508160011b916000199060031b1c19161790555b511515600486019060ff801983541691151516179055565b5160058401555191015515610d7c576000828152600b60205260409020805460ff191660011790556001600160a01b03610cdc82611342565b16600052600a60205260406000209081549068010000000000000000821015610d6657610d32827f3a3ee326dd9451112d67d1babdaf697562d06e41e2571ddd356b4e9be0de478e9460016020950181556110c5565b815460001960039290921b91821b19169086901b1790556001600160a01b0390610d5b90611342565b1693604051908152a3005b634e487b7160e01b600052604160045260246000fd5b9091506001600160a01b0390610d9190611342565b16907f14796949d4d1a6824063ec05e354db666bde3356a8cf646c6075272b5353185c600080a3005b015190508d80610c76565b90601f1983169184600052816000209260005b818110610e1d575092600192859260069a999896610ca3989610610e04575b505050811b019055610c8b565b015160001960f88460031b161c191690558d8080610df7565b92936020600181928786015181550195019301610dd8565b836000526020600020601f840160051c81019160208510610e73575b601f0160051c01905b818110610e675750610c52565b60008155600101610e5a565b9091508190610e51565b87600052600860205260056040600020015492610b62565b60405162461bcd60e51b8152602060048201526014602482015273135bdb99dbd1185d185251081c995c5d5a5c995960621b6044820152606490fd5b60405162461bcd60e51b815260206004820152601c60248201527f5072696365206d7573742062652067726561746572207468616e2030000000006044820152606490fd5b60405162461bcd60e51b8152602060048201526012602482015271125b9d985b1a59081b995d1ddbdc9ac8125160721b6044820152606490fd5b506000546001600160a01b03163314610acf565b346101e25760003660031901126101e2576020600754604051908152f35b346101e25760003660031901126101e2576020600654604051908152f35b346101e25760003660031901126101e2576020600354604051908152f35b346101e25760203660031901126101e25761101260043533600052600260205260ff60406000205416801561101b575b610ff7906112ac565b610fff61164f565b61100a8115156112e9565b600454611335565b60045560018055005b506000546001600160a01b03163314610fee565b346101e25760203660031901126101e25761108360043533600052600260205260ff60406000205416801561108c575b611068906112ac565b61107061164f565b61107b8115156112e9565b600654611335565b60065560018055005b506000546001600160a01b0316331461105f565b600435906001600160a01b03821682036101e257565b6024359081151582036101e257565b80548210156110dd5760005260206000200190600090565b634e487b7160e01b600052603260045260246000fd5b90600182811c92168015611123575b602083101461110d57565b634e487b7160e01b600052602260045260246000fd5b91607f1691611102565b60e0810190811067ffffffffffffffff821117610d6657604052565b90601f8019910116810190811067ffffffffffffffff821117610d6657604052565b906040519182600082549261117f846110f3565b80845293600181169081156111ed57506001146111a6575b506111a492500383611149565b565b90506000929192526020600020906000915b8183106111d15750509060206111a49282010138611197565b60209193508060019154838589010152019101909184926111b8565b9050602092506111a494915060ff191682840152151560051b82010138611197565b919082519283825260005b84811061123b575050826000602080949584010152601f8019910116010190565b8060208092840101518282860101520161121a565b908151815260018060a01b0360208301511660208201526040820151604082015260c08061128d606085015160e0606086015260e085019061120f565b9360808101511515608085015260a081015160a0850152015191015290565b156112b357565b60405162461bcd60e51b815260206004820152600e60248201526d139bdd08185d5d1a1bdc9a5e995960921b6044820152606490fd5b156112f057565b60405162461bcd60e51b815260206004820152601d60248201527f416d6f756e74206d7573742062652067726561746572207468616e20300000006044820152606490fd5b91908201809211610a5357565b356001600160a01b03811681036101e25790565b1561135d57565b60405162461bcd60e51b8152602060048201526014602482015273496e76616c696420686f7374206164647265737360601b6044820152606490fd5b903590601e19813603018212156101e2570180359067ffffffffffffffff82116101e2576020019181360383136101e257565b156113d357565b60405162461bcd60e51b815260206004820152601660248201527513995d1ddbdc9ac8191bd95cc81b9bdd08195e1a5cdd60521b6044820152606490fd5b91908110156110dd5760051b0190565b1561142857565b60405162461bcd60e51b8152602060048201526016602482015275496e76616c69642063616c6c6572206164647265737360501b6044820152606490fd5b604051906114738261112d565b600060c0838281528260208201528260408201526060808201528260808201528260a08201520152565b906040516114aa8161112d565b8254815260018301546001600160a01b031660208201526002830154604082015291829060c0906006906114e06003820161116b565b606085015260ff60048201541615156080850152600581015460a08501520154910152565b67ffffffffffffffff8111610d665760051b60200190565b91908203918211610a5357565b80518210156110dd5760209160051b010190565b600354929183821015611613576115559082611335565b83811161160c575b611567828261151d565b9161157183611505565b9261157f6040519485611149565b80845261158e601f1991611505565b0160005b8181106115f5575050805b8281106115ab575050509190565b6001810190818111610a535760019160005260086020526115ee60406000206115dd6115d7868561151d565b9161149d565b6115e7828961152a565b528661152a565b500161159d565b602090611600611466565b82828801015201611592565b508261155d565b50506040516000611625602083611149565b81526000805b8181106116385750509190565b602090611643611466565b8282860101520161162b565b600260015414611660576002600155565b633ee5aeb560e01b60005260046000fd5b6000546001600160a01b0316330361168557565b63118cdaa760e01b6000523360045260246000fdfea26469706673582212204d93320ff27e527ccc1b9ebb664e49e9f444c2bcfe6c28d77bcb3aaf1d4d1bfb64736f6c634300081c0033",
          "opcodes": "PUSH1 0x80 DUP1 PUSH1 0x40 MSTORE CALLVALUE PUSH1 0x8D JUMPI CALLER ISZERO PUSH1 0x77 JUMPI PUSH1 0x0 DUP1 SLOAD CALLER PUSH1 0x1 PUSH1 0x1 PUSH1 0xA0 SHL SUB NOT DUP3 AND DUP2 OR DUP4 SSTORE SWAP2 PUSH1 0x1 PUSH1 0x1 PUSH1 0xA0 SHL SUB SWAP1 SWAP2 AND SWAP1 PUSH32 0x8BE0079C531659141344CD1FD0A4F28419497F9722A3DAAFE3B4186F6B6457E0 SWAP1 DUP1 LOG3 PUSH1 0x1 DUP1 SSTORE PUSH1 0x0 PUSH1 0x4 SSTORE PUSH1 0x0 PUSH1 0x5 SSTORE PUSH1 0x0 PUSH1 0x6 SSTORE PUSH1 0x0 PUSH1 0x7 SSTORE PUSH2 0x16D0 SWAP1 DUP2 PUSH2 0x93 DUP3 CODECOPY RETURN JUMPDEST PUSH4 0x1E4FBDF7 PUSH1 0xE0 SHL PUSH1 0x0 MSTORE PUSH1 0x0 PUSH1 0x4 MSTORE PUSH1 0x24 PUSH1 0x0 REVERT JUMPDEST PUSH1 0x0 DUP1 REVERT INVALID PUSH1 0x80 PUSH1 0x40 MSTORE PUSH1 0x4 CALLDATASIZE LT ISZERO PUSH2 0x12 JUMPI PUSH1 0x0 DUP1 REVERT JUMPDEST PUSH1 0x0 CALLDATALOAD PUSH1 0xE0 SHR DUP1 PUSH4 0x1190DEFD EQ PUSH2 0x102F JUMPI DUP1 PUSH4 0x13A7DD1D EQ PUSH2 0xFBE JUMPI DUP1 PUSH4 0x217C682D EQ PUSH2 0xFA0 JUMPI DUP1 PUSH4 0x22A4808B EQ PUSH2 0xF64 JUMPI DUP1 PUSH4 0x242D30BC EQ PUSH2 0xF82 JUMPI DUP1 PUSH4 0x29C718B5 EQ PUSH2 0x8CC JUMPI DUP1 PUSH4 0x4CE083BE EQ PUSH2 0xF64 JUMPI DUP1 PUSH4 0x50C0D41C EQ PUSH2 0xA7D JUMPI DUP1 PUSH4 0x5290FFC6 EQ PUSH2 0xA02 JUMPI DUP1 PUSH4 0x5A2F406F EQ PUSH2 0x977 JUMPI DUP1 PUSH4 0x69009A13 EQ PUSH2 0x906 JUMPI DUP1 PUSH4 0x6D65573F EQ PUSH2 0x8CC JUMPI DUP1 PUSH4 0x715018A6 EQ PUSH2 0x873 JUMPI DUP1 PUSH4 0x73F9A5D7 EQ PUSH2 0x758 JUMPI DUP1 PUSH4 0x79F0DC57 EQ PUSH2 0x69E JUMPI DUP1 PUSH4 0x7B334154 EQ PUSH2 0x65F JUMPI DUP1 PUSH4 0x7BAE8F5E EQ PUSH2 0x606 JUMPI DUP1 PUSH4 0x7EE3B6FC EQ PUSH2 0x5E8 JUMPI DUP1 PUSH4 0x879ECF10 EQ PUSH2 0x5B7 JUMPI DUP1 PUSH4 0x8BB0A17C EQ PUSH2 0x524 JUMPI DUP1 PUSH4 0x8DA5CB5B EQ PUSH2 0x4FB JUMPI DUP1 PUSH4 0x95EA5717 EQ PUSH2 0x494 JUMPI DUP1 PUSH4 0xAD2C30B1 EQ PUSH2 0x476 JUMPI DUP1 PUSH4 0xBED31654 EQ PUSH2 0x405 JUMPI DUP1 PUSH4 0xD8B0E716 EQ PUSH2 0x376 JUMPI DUP1 PUSH4 0xE1C7A8AA EQ PUSH2 0x2A1 JUMPI DUP1 PUSH4 0xEC13F2A1 EQ PUSH2 0x270 JUMPI DUP1 PUSH4 0xF2FDE38B EQ PUSH2 0x1E7 JUMPI PUSH4 0xFA9C81A4 EQ PUSH2 0x15B JUMPI PUSH1 0x0 DUP1 REVERT JUMPDEST CALLVALUE PUSH2 0x1E2 JUMPI PUSH1 0x40 CALLDATASIZE PUSH1 0x3 NOT ADD SLT PUSH2 0x1E2 JUMPI PUSH2 0x17A PUSH1 0x24 CALLDATALOAD PUSH1 0x4 CALLDATALOAD PUSH2 0x153E JUMP JUMPDEST SWAP1 PUSH1 0x40 MLOAD SWAP1 PUSH1 0x40 DUP3 ADD PUSH1 0x40 DUP4 MSTORE DUP2 MLOAD DUP1 SWAP2 MSTORE PUSH1 0x60 DUP4 ADD SWAP1 PUSH1 0x20 PUSH1 0x60 DUP3 PUSH1 0x5 SHL DUP7 ADD ADD SWAP4 ADD SWAP2 PUSH1 0x0 SWAP1 JUMPDEST DUP3 DUP3 LT PUSH2 0x1B7 JUMPI DUP6 DUP1 DUP7 DUP10 PUSH1 0x20 DUP4 ADD MSTORE SUB SWAP1 RETURN JUMPDEST SWAP1 SWAP2 SWAP3 SWAP4 PUSH1 0x20 DUP1 PUSH2 0x1D4 PUSH1 0x1 SWAP4 PUSH1 0x5F NOT DUP11 DUP3 SUB ADD DUP7 MSTORE DUP9 MLOAD PUSH2 0x1250 JUMP JUMPDEST SWAP7 ADD SWAP3 ADD SWAP3 ADD SWAP1 SWAP3 SWAP2 PUSH2 0x1A3 JUMP JUMPDEST PUSH1 0x0 DUP1 REVERT JUMPDEST CALLVALUE PUSH2 0x1E2 JUMPI PUSH1 0x20 CALLDATASIZE PUSH1 0x3 NOT ADD SLT PUSH2 0x1E2 JUMPI PUSH2 0x200 PUSH2 0x10A0 JUMP JUMPDEST PUSH2 0x208 PUSH2 0x1671 JUMP JUMPDEST PUSH1 0x1 PUSH1 0x1 PUSH1 0xA0 SHL SUB AND DUP1 ISZERO PUSH2 0x25A JUMPI PUSH1 0x0 DUP1 SLOAD PUSH1 0x1 PUSH1 0x1 PUSH1 0xA0 SHL SUB NOT DUP2 AND DUP4 OR DUP3 SSTORE PUSH1 0x1 PUSH1 0x1 PUSH1 0xA0 SHL SUB AND SWAP1 PUSH32 0x8BE0079C531659141344CD1FD0A4F28419497F9722A3DAAFE3B4186F6B6457E0 SWAP1 DUP1 LOG3 STOP JUMPDEST PUSH4 0x1E4FBDF7 PUSH1 0xE0 SHL PUSH1 0x0 MSTORE PUSH1 0x0 PUSH1 0x4 MSTORE PUSH1 0x24 PUSH1 0x0 REVERT JUMPDEST CALLVALUE PUSH2 0x1E2 JUMPI PUSH1 0x20 CALLDATASIZE PUSH1 0x3 NOT ADD SLT PUSH2 0x1E2 JUMPI PUSH1 0x4 CALLDATALOAD PUSH1 0x0 MSTORE PUSH1 0xB PUSH1 0x20 MSTORE PUSH1 0x20 PUSH1 0xFF PUSH1 0x40 PUSH1 0x0 KECCAK256 SLOAD AND PUSH1 0x40 MLOAD SWAP1 ISZERO ISZERO DUP2 MSTORE RETURN JUMPDEST CALLVALUE PUSH2 0x1E2 JUMPI PUSH1 0x40 CALLDATASIZE PUSH1 0x3 NOT ADD SLT PUSH2 0x1E2 JUMPI PUSH2 0x2BA PUSH2 0x10A0 JUMP JUMPDEST PUSH1 0x24 CALLDATALOAD SWAP1 CALLER PUSH1 0x0 MSTORE PUSH1 0x2 PUSH1 0x20 MSTORE PUSH1 0xFF PUSH1 0x40 PUSH1 0x0 KECCAK256 SLOAD AND DUP1 ISZERO PUSH2 0x362 JUMPI JUMPDEST PUSH2 0x2E0 SWAP1 PUSH2 0x12AC JUMP JUMPDEST PUSH2 0x2E8 PUSH2 0x164F JUMP JUMPDEST PUSH1 0x1 PUSH1 0x1 PUSH1 0xA0 SHL SUB AND SWAP1 PUSH2 0x2FD DUP3 ISZERO ISZERO PUSH2 0x1356 JUMP JUMPDEST PUSH2 0x308 DUP2 ISZERO ISZERO PUSH2 0x12E9 JUMP JUMPDEST DUP2 PUSH1 0x0 MSTORE PUSH1 0x9 PUSH1 0x20 MSTORE PUSH2 0x321 PUSH1 0x40 PUSH1 0x0 KECCAK256 SWAP2 DUP3 SLOAD PUSH2 0x1335 JUMP JUMPDEST SWAP1 SSTORE DUP1 PUSH1 0x0 MSTORE PUSH1 0x9 PUSH1 0x20 MSTORE PUSH32 0x61A8B1A557E4D03803DB90D13FF76DB2C25FBA3ED24882CECDA8C8423B9B2BE0 PUSH1 0x20 PUSH1 0x40 PUSH1 0x0 KECCAK256 SLOAD PUSH1 0x40 MLOAD SWAP1 DUP2 MSTORE LOG2 PUSH1 0x1 DUP1 SSTORE STOP JUMPDEST POP PUSH1 0x0 SLOAD PUSH1 0x1 PUSH1 0x1 PUSH1 0xA0 SHL SUB AND CALLER EQ PUSH2 0x2D7 JUMP JUMPDEST CALLVALUE PUSH2 0x1E2 JUMPI PUSH1 0x40 CALLDATASIZE PUSH1 0x3 NOT ADD SLT PUSH2 0x1E2 JUMPI PUSH2 0x38F PUSH2 0x10A0 JUMP JUMPDEST PUSH32 0xD6FC3082AE3A144CA59421D96180398241C1DD021D45D5A24FB5BF96C9F8212F PUSH1 0x20 PUSH2 0x3BA PUSH2 0x10B6 JUMP JUMPDEST SWAP3 PUSH2 0x3C3 PUSH2 0x1671 JUMP JUMPDEST PUSH1 0x1 PUSH1 0x1 PUSH1 0xA0 SHL SUB AND SWAP3 PUSH2 0x3D8 DUP5 ISZERO ISZERO PUSH2 0x1421 JUMP JUMPDEST DUP4 PUSH1 0x0 MSTORE PUSH1 0x2 DUP3 MSTORE PUSH2 0x3FA DUP2 PUSH1 0x40 PUSH1 0x0 KECCAK256 SWAP1 PUSH1 0xFF DUP1 NOT DUP4 SLOAD AND SWAP2 ISZERO ISZERO AND OR SWAP1 SSTORE JUMP JUMPDEST PUSH1 0x40 MLOAD SWAP1 ISZERO ISZERO DUP2 MSTORE LOG2 STOP JUMPDEST CALLVALUE PUSH2 0x1E2 JUMPI PUSH1 0x20 CALLDATASIZE PUSH1 0x3 NOT ADD SLT PUSH2 0x1E2 JUMPI PUSH2 0x459 PUSH1 0x4 CALLDATALOAD CALLER PUSH1 0x0 MSTORE PUSH1 0x2 PUSH1 0x20 MSTORE PUSH1 0xFF PUSH1 0x40 PUSH1 0x0 KECCAK256 SLOAD AND DUP1 ISZERO PUSH2 0x462 JUMPI JUMPDEST PUSH2 0x43E SWAP1 PUSH2 0x12AC JUMP JUMPDEST PUSH2 0x446 PUSH2 0x164F JUMP JUMPDEST PUSH2 0x451 DUP2 ISZERO ISZERO PUSH2 0x12E9 JUMP JUMPDEST PUSH1 0x5 SLOAD PUSH2 0x1335 JUMP JUMPDEST PUSH1 0x5 SSTORE PUSH1 0x1 DUP1 SSTORE STOP JUMPDEST POP PUSH1 0x0 SLOAD PUSH1 0x1 PUSH1 0x1 PUSH1 0xA0 SHL SUB AND CALLER EQ PUSH2 0x435 JUMP JUMPDEST CALLVALUE PUSH2 0x1E2 JUMPI PUSH1 0x0 CALLDATASIZE PUSH1 0x3 NOT ADD SLT PUSH2 0x1E2 JUMPI PUSH1 0x20 PUSH1 0x5 SLOAD PUSH1 0x40 MLOAD SWAP1 DUP2 MSTORE RETURN JUMPDEST CALLVALUE PUSH2 0x1E2 JUMPI PUSH1 0x20 CALLDATASIZE PUSH1 0x3 NOT ADD SLT PUSH2 0x1E2 JUMPI PUSH1 0x4 CALLDATALOAD PUSH2 0x4B0 PUSH2 0x1466 JUMP JUMPDEST POP DUP1 PUSH1 0x0 MSTORE PUSH1 0xB PUSH1 0x20 MSTORE PUSH2 0x4CB PUSH1 0xFF PUSH1 0x40 PUSH1 0x0 KECCAK256 SLOAD AND PUSH2 0x13CC JUMP JUMPDEST PUSH1 0x0 MSTORE PUSH1 0x8 PUSH1 0x20 MSTORE PUSH2 0x4F7 PUSH2 0x4E3 PUSH1 0x40 PUSH1 0x0 KECCAK256 PUSH2 0x149D JUMP JUMPDEST PUSH1 0x40 MLOAD SWAP2 DUP3 SWAP2 PUSH1 0x20 DUP4 MSTORE PUSH1 0x20 DUP4 ADD SWAP1 PUSH2 0x1250 JUMP JUMPDEST SUB SWAP1 RETURN JUMPDEST CALLVALUE PUSH2 0x1E2 JUMPI PUSH1 0x0 CALLDATASIZE PUSH1 0x3 NOT ADD SLT PUSH2 0x1E2 JUMPI PUSH1 0x0 SLOAD PUSH1 0x40 MLOAD PUSH1 0x1 PUSH1 0x1 PUSH1 0xA0 SHL SUB SWAP1 SWAP2 AND DUP2 MSTORE PUSH1 0x20 SWAP1 RETURN JUMPDEST CALLVALUE PUSH2 0x1E2 JUMPI PUSH1 0x20 CALLDATASIZE PUSH1 0x3 NOT ADD SLT PUSH2 0x1E2 JUMPI PUSH1 0x4 CALLDATALOAD PUSH1 0x0 MSTORE PUSH1 0x8 PUSH1 0x20 MSTORE PUSH1 0x40 PUSH1 0x0 KECCAK256 DUP1 SLOAD PUSH1 0x1 DUP1 PUSH1 0xA0 SHL SUB PUSH1 0x1 DUP4 ADD SLOAD AND SWAP2 PUSH1 0x2 DUP2 ADD SLOAD PUSH2 0x566 PUSH1 0x3 DUP4 ADD PUSH2 0x116B JUMP JUMPDEST SWAP2 PUSH2 0x5A1 PUSH1 0xFF PUSH1 0x4 DUP4 ADD SLOAD AND SWAP4 PUSH1 0x6 PUSH1 0x5 DUP5 ADD SLOAD SWAP4 ADD SLOAD SWAP4 PUSH1 0x40 MLOAD SWAP8 DUP9 SWAP8 DUP9 MSTORE PUSH1 0x20 DUP9 ADD MSTORE PUSH1 0x40 DUP8 ADD MSTORE PUSH1 0xE0 PUSH1 0x60 DUP8 ADD MSTORE PUSH1 0xE0 DUP7 ADD SWAP1 PUSH2 0x120F JUMP JUMPDEST SWAP3 ISZERO ISZERO PUSH1 0x80 DUP6 ADD MSTORE PUSH1 0xA0 DUP5 ADD MSTORE PUSH1 0xC0 DUP4 ADD MSTORE SUB SWAP1 RETURN JUMPDEST CALLVALUE PUSH2 0x1E2 JUMPI PUSH1 0x20 CALLDATASIZE PUSH1 0x3 NOT ADD SLT PUSH2 0x1E2 JUMPI PUSH1 0x4 CALLDATALOAD PUSH1 0x0 MSTORE PUSH1 0xC PUSH1 0x20 MSTORE PUSH1 0x20 PUSH1 0xFF PUSH1 0x40 PUSH1 0x0 KECCAK256 SLOAD AND PUSH1 0x40 MLOAD SWAP1 ISZERO ISZERO DUP2 MSTORE RETURN JUMPDEST CALLVALUE PUSH2 0x1E2 JUMPI PUSH1 0x0 CALLDATASIZE PUSH1 0x3 NOT ADD SLT PUSH2 0x1E2 JUMPI PUSH1 0x20 PUSH1 0x4 SLOAD PUSH1 0x40 MLOAD SWAP1 DUP2 MSTORE RETURN JUMPDEST CALLVALUE PUSH2 0x1E2 JUMPI PUSH1 0x40 CALLDATASIZE PUSH1 0x3 NOT ADD SLT PUSH2 0x1E2 JUMPI PUSH2 0x61F PUSH2 0x10A0 JUMP JUMPDEST PUSH1 0x1 PUSH1 0x1 PUSH1 0xA0 SHL SUB AND PUSH1 0x0 SWAP1 DUP2 MSTORE PUSH1 0xA PUSH1 0x20 MSTORE PUSH1 0x40 SWAP1 KECCAK256 DUP1 SLOAD PUSH1 0x24 CALLDATALOAD SWAP2 SWAP1 DUP3 LT ISZERO PUSH2 0x1E2 JUMPI PUSH1 0x20 SWAP2 PUSH2 0x650 SWAP2 PUSH2 0x10C5 JUMP JUMPDEST SWAP1 SLOAD SWAP1 PUSH1 0x3 SHL SHR PUSH1 0x40 MLOAD SWAP1 DUP2 MSTORE RETURN JUMPDEST CALLVALUE PUSH2 0x1E2 JUMPI PUSH1 0x20 CALLDATASIZE PUSH1 0x3 NOT ADD SLT PUSH2 0x1E2 JUMPI PUSH1 0x1 PUSH1 0x1 PUSH1 0xA0 SHL SUB PUSH2 0x680 PUSH2 0x10A0 JUMP JUMPDEST AND PUSH1 0x0 MSTORE PUSH1 0x2 PUSH1 0x20 MSTORE PUSH1 0x20 PUSH1 0xFF PUSH1 0x40 PUSH1 0x0 KECCAK256 SLOAD AND PUSH1 0x40 MLOAD SWAP1 ISZERO ISZERO DUP2 MSTORE RETURN JUMPDEST CALLVALUE PUSH2 0x1E2 JUMPI PUSH1 0x20 CALLDATASIZE PUSH1 0x3 NOT ADD SLT PUSH2 0x1E2 JUMPI PUSH1 0x1 PUSH1 0x1 PUSH1 0xA0 SHL SUB PUSH2 0x6BF PUSH2 0x10A0 JUMP JUMPDEST AND PUSH1 0x0 MSTORE PUSH1 0xA PUSH1 0x20 MSTORE PUSH1 0x40 PUSH1 0x0 KECCAK256 PUSH1 0x40 MLOAD DUP1 PUSH1 0x20 DUP4 SLOAD SWAP2 DUP3 DUP2 MSTORE ADD SWAP1 DUP2 SWAP4 PUSH1 0x0 MSTORE PUSH1 0x20 PUSH1 0x0 KECCAK256 SWAP1 PUSH1 0x0 JUMPDEST DUP2 DUP2 LT PUSH2 0x742 JUMPI POP POP POP DUP2 PUSH2 0x6FF SWAP2 SUB DUP3 PUSH2 0x1149 JUMP JUMPDEST PUSH1 0x40 MLOAD SWAP2 DUP3 SWAP2 PUSH1 0x20 DUP4 ADD SWAP1 PUSH1 0x20 DUP5 MSTORE MLOAD DUP1 SWAP2 MSTORE PUSH1 0x40 DUP4 ADD SWAP2 SWAP1 PUSH1 0x0 JUMPDEST DUP2 DUP2 LT PUSH2 0x729 JUMPI POP POP POP SUB SWAP1 RETURN JUMPDEST DUP3 MLOAD DUP5 MSTORE DUP6 SWAP5 POP PUSH1 0x20 SWAP4 DUP5 ADD SWAP4 SWAP1 SWAP3 ADD SWAP2 PUSH1 0x1 ADD PUSH2 0x71B JUMP JUMPDEST DUP3 SLOAD DUP5 MSTORE PUSH1 0x20 SWAP1 SWAP4 ADD SWAP3 PUSH1 0x1 SWAP3 DUP4 ADD SWAP3 ADD PUSH2 0x6E9 JUMP JUMPDEST CALLVALUE PUSH2 0x1E2 JUMPI PUSH1 0x40 CALLDATASIZE PUSH1 0x3 NOT ADD SLT PUSH2 0x1E2 JUMPI PUSH1 0x4 CALLDATALOAD PUSH8 0xFFFFFFFFFFFFFFFF DUP2 GT PUSH2 0x1E2 JUMPI CALLDATASIZE PUSH1 0x23 DUP3 ADD SLT ISZERO PUSH2 0x1E2 JUMPI DUP1 PUSH1 0x4 ADD CALLDATALOAD PUSH8 0xFFFFFFFFFFFFFFFF DUP2 GT PUSH2 0x1E2 JUMPI PUSH1 0x24 DUP3 ADD SWAP2 PUSH1 0x24 CALLDATASIZE SWAP2 DUP4 PUSH1 0x5 SHL ADD ADD GT PUSH2 0x1E2 JUMPI PUSH2 0x7B6 PUSH2 0x10B6 JUMP JUMPDEST PUSH2 0x7BE PUSH2 0x1671 JUMP JUMPDEST DUP1 ISZERO ISZERO SWAP1 PUSH1 0x0 JUMPDEST DUP4 DUP2 LT PUSH2 0x7CE JUMPI STOP JUMPDEST PUSH1 0x1 SWAP1 PUSH2 0x7F7 PUSH1 0x1 PUSH1 0x1 PUSH1 0xA0 SHL SUB PUSH2 0x7EF PUSH2 0x7EA DUP5 DUP10 DUP12 PUSH2 0x1411 JUMP JUMPDEST PUSH2 0x1342 JUMP JUMPDEST AND ISZERO ISZERO PUSH2 0x1421 JUMP JUMPDEST DUP2 DUP1 PUSH1 0xA0 SHL SUB PUSH2 0x80B PUSH2 0x7EA DUP4 DUP9 DUP11 PUSH2 0x1411 JUMP JUMPDEST AND PUSH1 0x0 MSTORE PUSH1 0x2 PUSH1 0x20 MSTORE PUSH2 0x82E DUP4 PUSH1 0x40 PUSH1 0x0 KECCAK256 SWAP1 PUSH1 0xFF DUP1 NOT DUP4 SLOAD AND SWAP2 ISZERO ISZERO AND OR SWAP1 SSTORE JUMP JUMPDEST DUP2 DUP1 PUSH1 0xA0 SHL SUB PUSH2 0x842 PUSH2 0x7EA DUP4 DUP9 DUP11 PUSH2 0x1411 JUMP JUMPDEST AND PUSH32 0xD6FC3082AE3A144CA59421D96180398241C1DD021D45D5A24FB5BF96C9F8212F PUSH1 0x20 PUSH1 0x40 MLOAD DUP8 DUP2 MSTORE LOG2 ADD PUSH2 0x7C5 JUMP JUMPDEST CALLVALUE PUSH2 0x1E2 JUMPI PUSH1 0x0 CALLDATASIZE PUSH1 0x3 NOT ADD SLT PUSH2 0x1E2 JUMPI PUSH2 0x88C PUSH2 0x1671 JUMP JUMPDEST PUSH1 0x0 DUP1 SLOAD PUSH1 0x1 PUSH1 0x1 PUSH1 0xA0 SHL SUB NOT DUP2 AND DUP3 SSTORE PUSH1 0x1 PUSH1 0x1 PUSH1 0xA0 SHL SUB AND PUSH32 0x8BE0079C531659141344CD1FD0A4F28419497F9722A3DAAFE3B4186F6B6457E0 DUP3 DUP1 LOG3 STOP JUMPDEST CALLVALUE PUSH2 0x1E2 JUMPI PUSH1 0x20 CALLDATASIZE PUSH1 0x3 NOT ADD SLT PUSH2 0x1E2 JUMPI PUSH1 0x1 PUSH1 0x1 PUSH1 0xA0 SHL SUB PUSH2 0x8ED PUSH2 0x10A0 JUMP JUMPDEST AND PUSH1 0x0 MSTORE PUSH1 0x9 PUSH1 0x20 MSTORE PUSH1 0x20 PUSH1 0x40 PUSH1 0x0 KECCAK256 SLOAD PUSH1 0x40 MLOAD SWAP1 DUP2 MSTORE RETURN JUMPDEST CALLVALUE PUSH2 0x1E2 JUMPI PUSH1 0x20 CALLDATASIZE PUSH1 0x3 NOT ADD SLT PUSH2 0x1E2 JUMPI PUSH2 0x95A PUSH1 0x4 CALLDATALOAD CALLER PUSH1 0x0 MSTORE PUSH1 0x2 PUSH1 0x20 MSTORE PUSH1 0xFF PUSH1 0x40 PUSH1 0x0 KECCAK256 SLOAD AND DUP1 ISZERO PUSH2 0x963 JUMPI JUMPDEST PUSH2 0x93F SWAP1 PUSH2 0x12AC JUMP JUMPDEST PUSH2 0x947 PUSH2 0x164F JUMP JUMPDEST PUSH2 0x952 DUP2 ISZERO ISZERO PUSH2 0x12E9 JUMP JUMPDEST PUSH1 0x7 SLOAD PUSH2 0x1335 JUMP JUMPDEST PUSH1 0x7 SSTORE PUSH1 0x1 DUP1 SSTORE STOP JUMPDEST POP PUSH1 0x0 SLOAD PUSH1 0x1 PUSH1 0x1 PUSH1 0xA0 SHL SUB AND CALLER EQ PUSH2 0x936 JUMP JUMPDEST CALLVALUE PUSH2 0x1E2 JUMPI PUSH1 0x20 CALLDATASIZE PUSH1 0x3 NOT ADD SLT PUSH2 0x1E2 JUMPI PUSH1 0x4 CALLDATALOAD PUSH2 0x993 PUSH2 0x1671 JUMP JUMPDEST DUP1 PUSH1 0x0 MSTORE PUSH1 0xB PUSH1 0x20 MSTORE PUSH2 0x9AD PUSH1 0xFF PUSH1 0x40 PUSH1 0x0 KECCAK256 SLOAD AND PUSH2 0x13CC JUMP JUMPDEST PUSH1 0x0 DUP2 DUP2 MSTORE PUSH1 0x8 PUSH1 0x20 MSTORE PUSH1 0x40 DUP2 KECCAK256 PUSH1 0x4 DUP2 ADD DUP1 SLOAD PUSH1 0xFF NOT AND SWAP1 SSTORE TIMESTAMP PUSH1 0x6 DUP3 ADD SSTORE PUSH1 0x1 ADD SLOAD PUSH1 0x1 PUSH1 0x1 PUSH1 0xA0 SHL SUB AND SWAP2 SWAP1 PUSH32 0x14796949D4D1A6824063EC05E354DB666BDE3356A8CF646C6075272B5353185C SWAP1 DUP1 LOG3 STOP JUMPDEST CALLVALUE PUSH2 0x1E2 JUMPI PUSH1 0x0 CALLDATASIZE PUSH1 0x3 NOT ADD SLT PUSH2 0x1E2 JUMPI CALLER PUSH1 0x0 MSTORE PUSH1 0x2 PUSH1 0x20 MSTORE PUSH1 0xFF PUSH1 0x40 PUSH1 0x0 KECCAK256 SLOAD AND DUP1 ISZERO PUSH2 0xA69 JUMPI JUMPDEST PUSH2 0xA35 SWAP1 PUSH2 0x12AC JUMP JUMPDEST PUSH1 0x3 SLOAD PUSH1 0x0 NOT DUP2 EQ PUSH2 0xA53 JUMPI PUSH1 0x1 PUSH1 0x20 SWAP2 ADD DUP1 PUSH1 0x3 SSTORE PUSH1 0x40 MLOAD SWAP1 DUP2 MSTORE RETURN JUMPDEST PUSH4 0x4E487B71 PUSH1 0xE0 SHL PUSH1 0x0 MSTORE PUSH1 0x11 PUSH1 0x4 MSTORE PUSH1 0x24 PUSH1 0x0 REVERT JUMPDEST POP PUSH1 0x0 SLOAD PUSH1 0x1 PUSH1 0x1 PUSH1 0xA0 SHL SUB AND CALLER EQ PUSH2 0xA2C JUMP JUMPDEST CALLVALUE PUSH2 0x1E2 JUMPI PUSH1 0x40 CALLDATASIZE PUSH1 0x3 NOT ADD SLT PUSH2 0x1E2 JUMPI PUSH1 0x24 CALLDATALOAD PUSH1 0x4 CALLDATALOAD PUSH8 0xFFFFFFFFFFFFFFFF DUP3 GT PUSH2 0x1E2 JUMPI DUP2 PUSH1 0x4 ADD SWAP2 PUSH1 0xE0 PUSH1 0x3 NOT DUP3 CALLDATASIZE SUB ADD SLT PUSH2 0x1E2 JUMPI CALLER PUSH1 0x0 MSTORE PUSH1 0x2 PUSH1 0x20 MSTORE PUSH1 0xFF PUSH1 0x40 PUSH1 0x0 KECCAK256 SLOAD AND DUP1 ISZERO PUSH2 0xF50 JUMPI JUMPDEST PUSH2 0xAD8 SWAP1 PUSH2 0x12AC JUMP JUMPDEST DUP2 ISZERO PUSH2 0xF16 JUMPI PUSH1 0x24 DUP2 ADD SWAP1 PUSH2 0xAFF PUSH1 0x1 PUSH1 0x1 PUSH1 0xA0 SHL SUB PUSH2 0xAF7 DUP5 PUSH2 0x1342 JUMP JUMPDEST AND ISZERO ISZERO PUSH2 0x1356 JUMP JUMPDEST PUSH1 0x44 DUP2 ADD CALLDATALOAD SWAP4 DUP5 ISZERO PUSH2 0xED1 JUMPI PUSH1 0x64 DUP3 ADD PUSH2 0xB19 DUP2 DUP4 PUSH2 0x1399 JUMP JUMPDEST SWAP1 POP ISZERO PUSH2 0xE95 JUMPI DUP5 PUSH1 0x0 MSTORE PUSH1 0xB PUSH1 0x20 MSTORE PUSH1 0x84 PUSH1 0xFF PUSH1 0x40 PUSH1 0x0 KECCAK256 SLOAD AND ISZERO SWAP4 PUSH2 0xB49 PUSH2 0xB42 DUP8 PUSH2 0x1342 JUMP JUMPDEST SWAP4 DUP6 PUSH2 0x1399 JUMP JUMPDEST SWAP3 SWAP1 SWAP2 ADD CALLDATALOAD SWAP1 DUP2 ISZERO ISZERO DUP1 SWAP3 SUB PUSH2 0x1E2 JUMPI DUP6 ISZERO PUSH2 0xE7D JUMPI TIMESTAMP SWAP3 JUMPDEST PUSH1 0x40 MLOAD SWAP6 PUSH2 0xB6F DUP8 PUSH2 0x112D JUMP JUMPDEST CALLDATALOAD DUP7 MSTORE PUSH1 0x1 PUSH1 0x1 PUSH1 0xA0 SHL SUB SWAP1 SWAP5 AND PUSH1 0x20 DUP7 ADD SWAP1 DUP2 MSTORE PUSH1 0x40 DUP7 ADD DUP11 DUP2 MSTORE SWAP1 SWAP5 PUSH8 0xFFFFFFFFFFFFFFFF DUP2 GT PUSH2 0xD66 JUMPI PUSH1 0x40 MLOAD SWAP3 PUSH2 0xBB4 PUSH1 0x1F DUP4 ADD PUSH1 0x1F NOT AND PUSH1 0x20 ADD DUP6 PUSH2 0x1149 JUMP JUMPDEST DUP2 DUP5 MSTORE CALLDATASIZE DUP3 DUP3 ADD GT PUSH2 0x1E2 JUMPI DUP2 PUSH1 0x0 SWAP3 PUSH1 0x20 SWAP3 DUP4 DUP8 ADD CALLDATACOPY DUP5 ADD ADD MSTORE PUSH1 0x60 DUP7 ADD SWAP2 DUP3 MSTORE PUSH1 0x80 DUP7 ADD SWAP3 DUP4 MSTORE PUSH1 0xA0 DUP7 ADD SWAP4 DUP5 MSTORE TIMESTAMP PUSH1 0xC0 DUP8 ADD SWAP1 DUP2 MSTORE PUSH1 0x0 DUP11 DUP2 MSTORE PUSH1 0x8 PUSH1 0x20 MSTORE PUSH1 0x40 SWAP1 KECCAK256 SWAP7 MLOAD DUP8 SSTORE SWAP5 MLOAD PUSH1 0x1 DUP8 ADD DUP1 SLOAD PUSH1 0x1 PUSH1 0x1 PUSH1 0xA0 SHL SUB NOT AND PUSH1 0x1 PUSH1 0x1 PUSH1 0xA0 SHL SUB SWAP3 SWAP1 SWAP3 AND SWAP2 SWAP1 SWAP2 OR SWAP1 SSTORE MLOAD PUSH1 0x2 DUP7 ADD SSTORE MLOAD DUP1 MLOAD PUSH1 0x3 DUP7 ADD SWAP2 PUSH8 0xFFFFFFFFFFFFFFFF DUP3 GT PUSH2 0xD66 JUMPI PUSH2 0xC49 DUP4 SLOAD PUSH2 0x10F3 JUMP JUMPDEST PUSH1 0x1F DUP2 GT PUSH2 0xE35 JUMPI JUMPDEST POP PUSH1 0x20 SWAP1 PUSH1 0x1F DUP4 GT PUSH1 0x1 EQ PUSH2 0xDC5 JUMPI SWAP2 DUP1 PUSH2 0xCA3 SWAP5 SWAP3 PUSH1 0x6 SWAP9 SWAP8 SWAP7 SWAP5 PUSH1 0x0 SWAP3 PUSH2 0xDBA JUMPI JUMPDEST POP POP DUP2 PUSH1 0x1 SHL SWAP2 PUSH1 0x0 NOT SWAP1 PUSH1 0x3 SHL SHR NOT AND OR SWAP1 SSTORE JUMPDEST MLOAD ISZERO ISZERO PUSH1 0x4 DUP7 ADD SWAP1 PUSH1 0xFF DUP1 NOT DUP4 SLOAD AND SWAP2 ISZERO ISZERO AND OR SWAP1 SSTORE JUMP JUMPDEST MLOAD PUSH1 0x5 DUP5 ADD SSTORE MLOAD SWAP2 ADD SSTORE ISZERO PUSH2 0xD7C JUMPI PUSH1 0x0 DUP3 DUP2 MSTORE PUSH1 0xB PUSH1 0x20 MSTORE PUSH1 0x40 SWAP1 KECCAK256 DUP1 SLOAD PUSH1 0xFF NOT AND PUSH1 0x1 OR SWAP1 SSTORE PUSH1 0x1 PUSH1 0x1 PUSH1 0xA0 SHL SUB PUSH2 0xCDC DUP3 PUSH2 0x1342 JUMP JUMPDEST AND PUSH1 0x0 MSTORE PUSH1 0xA PUSH1 0x20 MSTORE PUSH1 0x40 PUSH1 0x0 KECCAK256 SWAP1 DUP2 SLOAD SWAP1 PUSH9 0x10000000000000000 DUP3 LT ISZERO PUSH2 0xD66 JUMPI PUSH2 0xD32 DUP3 PUSH32 0x3A3EE326DD9451112D67D1BABDAF697562D06E41E2571DDD356B4E9BE0DE478E SWAP5 PUSH1 0x1 PUSH1 0x20 SWAP6 ADD DUP2 SSTORE PUSH2 0x10C5 JUMP JUMPDEST DUP2 SLOAD PUSH1 0x0 NOT PUSH1 0x3 SWAP3 SWAP1 SWAP3 SHL SWAP2 DUP3 SHL NOT AND SWAP1 DUP7 SWAP1 SHL OR SWAP1 SSTORE PUSH1 0x1 PUSH1 0x1 PUSH1 0xA0 SHL SUB SWAP1 PUSH2 0xD5B SWAP1 PUSH2 0x1342 JUMP JUMPDEST AND SWAP4 PUSH1 0x40 MLOAD SWAP1 DUP2 MSTORE LOG3 STOP JUMPDEST PUSH4 0x4E487B71 PUSH1 0xE0 SHL PUSH1 0x0 MSTORE PUSH1 0x41 PUSH1 0x4 MSTORE PUSH1 0x24 PUSH1 0x0 REVERT JUMPDEST SWAP1 SWAP2 POP PUSH1 0x1 PUSH1 0x1 PUSH1 0xA0 SHL SUB SWAP1 PUSH2 0xD91 SWAP1 PUSH2 0x1342 JUMP JUMPDEST AND SWAP1 PUSH32 0x14796949D4D1A6824063EC05E354DB666BDE3356A8CF646C6075272B5353185C PUSH1 0x0 DUP1 LOG3 STOP JUMPDEST ADD MLOAD SWAP1 POP DUP14 DUP1 PUSH2 0xC76 JUMP JUMPDEST SWAP1 PUSH1 0x1F NOT DUP4 AND SWAP2 DUP5 PUSH1 0x0 MSTORE DUP2 PUSH1 0x0 KECCAK256 SWAP3 PUSH1 0x0 JUMPDEST DUP2 DUP2 LT PUSH2 0xE1D JUMPI POP SWAP3 PUSH1 0x1 SWAP3 DUP6 SWAP3 PUSH1 0x6 SWAP11 SWAP10 SWAP9 SWAP7 PUSH2 0xCA3 SWAP9 SWAP7 LT PUSH2 0xE04 JUMPI JUMPDEST POP POP POP DUP2 SHL ADD SWAP1 SSTORE PUSH2 0xC8B JUMP JUMPDEST ADD MLOAD PUSH1 0x0 NOT PUSH1 0xF8 DUP5 PUSH1 0x3 SHL AND SHR NOT AND SWAP1 SSTORE DUP14 DUP1 DUP1 PUSH2 0xDF7 JUMP JUMPDEST SWAP3 SWAP4 PUSH1 0x20 PUSH1 0x1 DUP2 SWAP3 DUP8 DUP7 ADD MLOAD DUP2 SSTORE ADD SWAP6 ADD SWAP4 ADD PUSH2 0xDD8 JUMP JUMPDEST DUP4 PUSH1 0x0 MSTORE PUSH1 0x20 PUSH1 0x0 KECCAK256 PUSH1 0x1F DUP5 ADD PUSH1 0x5 SHR DUP2 ADD SWAP2 PUSH1 0x20 DUP6 LT PUSH2 0xE73 JUMPI JUMPDEST PUSH1 0x1F ADD PUSH1 0x5 SHR ADD SWAP1 JUMPDEST DUP2 DUP2 LT PUSH2 0xE67 JUMPI POP PUSH2 0xC52 JUMP JUMPDEST PUSH1 0x0 DUP2 SSTORE PUSH1 0x1 ADD PUSH2 0xE5A JUMP JUMPDEST SWAP1 SWAP2 POP DUP2 SWAP1 PUSH2 0xE51 JUMP JUMPDEST DUP8 PUSH1 0x0 MSTORE PUSH1 0x8 PUSH1 0x20 MSTORE PUSH1 0x5 PUSH1 0x40 PUSH1 0x0 KECCAK256 ADD SLOAD SWAP3 PUSH2 0xB62 JUMP JUMPDEST PUSH1 0x40 MLOAD PUSH3 0x461BCD PUSH1 0xE5 SHL DUP2 MSTORE PUSH1 0x20 PUSH1 0x4 DUP3 ADD MSTORE PUSH1 0x14 PUSH1 0x24 DUP3 ADD MSTORE PUSH20 0x135BDB99DBD1185D185251081C995C5D5A5C9959 PUSH1 0x62 SHL PUSH1 0x44 DUP3 ADD MSTORE PUSH1 0x64 SWAP1 REVERT JUMPDEST PUSH1 0x40 MLOAD PUSH3 0x461BCD PUSH1 0xE5 SHL DUP2 MSTORE PUSH1 0x20 PUSH1 0x4 DUP3 ADD MSTORE PUSH1 0x1C PUSH1 0x24 DUP3 ADD MSTORE PUSH32 0x5072696365206D7573742062652067726561746572207468616E203000000000 PUSH1 0x44 DUP3 ADD MSTORE PUSH1 0x64 SWAP1 REVERT JUMPDEST PUSH1 0x40 MLOAD PUSH3 0x461BCD PUSH1 0xE5 SHL DUP2 MSTORE PUSH1 0x20 PUSH1 0x4 DUP3 ADD MSTORE PUSH1 0x12 PUSH1 0x24 DUP3 ADD MSTORE PUSH18 0x125B9D985B1A59081B995D1DDBDC9AC81251 PUSH1 0x72 SHL PUSH1 0x44 DUP3 ADD MSTORE PUSH1 0x64 SWAP1 REVERT JUMPDEST POP PUSH1 0x0 SLOAD PUSH1 0x1 PUSH1 0x1 PUSH1 0xA0 SHL SUB AND CALLER EQ PUSH2 0xACF JUMP JUMPDEST CALLVALUE PUSH2 0x1E2 JUMPI PUSH1 0x0 CALLDATASIZE PUSH1 0x3 NOT ADD SLT PUSH2 0x1E2 JUMPI PUSH1 0x20 PUSH1 0x7 SLOAD PUSH1 0x40 MLOAD SWAP1 DUP2 MSTORE RETURN JUMPDEST CALLVALUE PUSH2 0x1E2 JUMPI PUSH1 0x0 CALLDATASIZE PUSH1 0x3 NOT ADD SLT PUSH2 0x1E2 JUMPI PUSH1 0x20 PUSH1 0x6 SLOAD PUSH1 0x40 MLOAD SWAP1 DUP2 MSTORE RETURN JUMPDEST CALLVALUE PUSH2 0x1E2 JUMPI PUSH1 0x0 CALLDATASIZE PUSH1 0x3 NOT ADD SLT PUSH2 0x1E2 JUMPI PUSH1 0x20 PUSH1 0x3 SLOAD PUSH1 0x40 MLOAD SWAP1 DUP2 MSTORE RETURN JUMPDEST CALLVALUE PUSH2 0x1E2 JUMPI PUSH1 0x20 CALLDATASIZE PUSH1 0x3 NOT ADD SLT PUSH2 0x1E2 JUMPI PUSH2 0x1012 PUSH1 0x4 CALLDATALOAD CALLER PUSH1 0x0 MSTORE PUSH1 0x2 PUSH1 0x20 MSTORE PUSH1 0xFF PUSH1 0x40 PUSH1 0x0 KECCAK256 SLOAD AND DUP1 ISZERO PUSH2 0x101B JUMPI JUMPDEST PUSH2 0xFF7 SWAP1 PUSH2 0x12AC JUMP JUMPDEST PUSH2 0xFFF PUSH2 0x164F JUMP JUMPDEST PUSH2 0x100A DUP2 ISZERO ISZERO PUSH2 0x12E9 JUMP JUMPDEST PUSH1 0x4 SLOAD PUSH2 0x1335 JUMP JUMPDEST PUSH1 0x4 SSTORE PUSH1 0x1 DUP1 SSTORE STOP JUMPDEST POP PUSH1 0x0 SLOAD PUSH1 0x1 PUSH1 0x1 PUSH1 0xA0 SHL SUB AND CALLER EQ PUSH2 0xFEE JUMP JUMPDEST CALLVALUE PUSH2 0x1E2 JUMPI PUSH1 0x20 CALLDATASIZE PUSH1 0x3 NOT ADD SLT PUSH2 0x1E2 JUMPI PUSH2 0x1083 PUSH1 0x4 CALLDATALOAD CALLER PUSH1 0x0 MSTORE PUSH1 0x2 PUSH1 0x20 MSTORE PUSH1 0xFF PUSH1 0x40 PUSH1 0x0 KECCAK256 SLOAD AND DUP1 ISZERO PUSH2 0x108C JUMPI JUMPDEST PUSH2 0x1068 SWAP1 PUSH2 0x12AC JUMP JUMPDEST PUSH2 0x1070 PUSH2 0x164F JUMP JUMPDEST PUSH2 0x107B DUP2 ISZERO ISZERO PUSH2 0x12E9 JUMP JUMPDEST PUSH1 0x6 SLOAD PUSH2 0x1335 JUMP JUMPDEST PUSH1 0x6 SSTORE PUSH1 0x1 DUP1 SSTORE STOP JUMPDEST POP PUSH1 0x0 SLOAD PUSH1 0x1 PUSH1 0x1 PUSH1 0xA0 SHL SUB AND CALLER EQ PUSH2 0x105F JUMP JUMPDEST PUSH1 0x4 CALLDATALOAD SWAP1 PUSH1 0x1 PUSH1 0x1 PUSH1 0xA0 SHL SUB DUP3 AND DUP3 SUB PUSH2 0x1E2 JUMPI JUMP JUMPDEST PUSH1 0x24 CALLDATALOAD SWAP1 DUP2 ISZERO ISZERO DUP3 SUB PUSH2 0x1E2 JUMPI JUMP JUMPDEST DUP1 SLOAD DUP3 LT ISZERO PUSH2 0x10DD JUMPI PUSH1 0x0 MSTORE PUSH1 0x20 PUSH1 0x0 KECCAK256 ADD SWAP1 PUSH1 0x0 SWAP1 JUMP JUMPDEST PUSH4 0x4E487B71 PUSH1 0xE0 SHL PUSH1 0x0 MSTORE PUSH1 0x32 PUSH1 0x4 MSTORE PUSH1 0x24 PUSH1 0x0 REVERT JUMPDEST SWAP1 PUSH1 0x1 DUP3 DUP2 SHR SWAP3 AND DUP1 ISZERO PUSH2 0x1123 JUMPI JUMPDEST PUSH1 0x20 DUP4 LT EQ PUSH2 0x110D JUMPI JUMP JUMPDEST PUSH4 0x4E487B71 PUSH1 0xE0 SHL PUSH1 0x0 MSTORE PUSH1 0x22 PUSH1 0x4 MSTORE PUSH1 0x24 PUSH1 0x0 REVERT JUMPDEST SWAP2 PUSH1 0x7F AND SWAP2 PUSH2 0x1102 JUMP JUMPDEST PUSH1 0xE0 DUP2 ADD SWAP1 DUP2 LT PUSH8 0xFFFFFFFFFFFFFFFF DUP3 GT OR PUSH2 0xD66 JUMPI PUSH1 0x40 MSTORE JUMP JUMPDEST SWAP1 PUSH1 0x1F DUP1 NOT SWAP2 ADD AND DUP2 ADD SWAP1 DUP2 LT PUSH8 0xFFFFFFFFFFFFFFFF DUP3 GT OR PUSH2 0xD66 JUMPI PUSH1 0x40 MSTORE JUMP JUMPDEST SWAP1 PUSH1 0x40 MLOAD SWAP2 DUP3 PUSH1 0x0 DUP3 SLOAD SWAP3 PUSH2 0x117F DUP5 PUSH2 0x10F3 JUMP JUMPDEST DUP1 DUP5 MSTORE SWAP4 PUSH1 0x1 DUP2 AND SWAP1 DUP2 ISZERO PUSH2 0x11ED JUMPI POP PUSH1 0x1 EQ PUSH2 0x11A6 JUMPI JUMPDEST POP PUSH2 0x11A4 SWAP3 POP SUB DUP4 PUSH2 0x1149 JUMP JUMPDEST JUMP JUMPDEST SWAP1 POP PUSH1 0x0 SWAP3 SWAP2 SWAP3 MSTORE PUSH1 0x20 PUSH1 0x0 KECCAK256 SWAP1 PUSH1 0x0 SWAP2 JUMPDEST DUP2 DUP4 LT PUSH2 0x11D1 JUMPI POP POP SWAP1 PUSH1 0x20 PUSH2 0x11A4 SWAP3 DUP3 ADD ADD CODESIZE PUSH2 0x1197 JUMP JUMPDEST PUSH1 0x20 SWAP2 SWAP4 POP DUP1 PUSH1 0x1 SWAP2 SLOAD DUP4 DUP6 DUP10 ADD ADD MSTORE ADD SWAP2 ADD SWAP1 SWAP2 DUP5 SWAP3 PUSH2 0x11B8 JUMP JUMPDEST SWAP1 POP PUSH1 0x20 SWAP3 POP PUSH2 0x11A4 SWAP5 SWAP2 POP PUSH1 0xFF NOT AND DUP3 DUP5 ADD MSTORE ISZERO ISZERO PUSH1 0x5 SHL DUP3 ADD ADD CODESIZE PUSH2 0x1197 JUMP JUMPDEST SWAP2 SWAP1 DUP3 MLOAD SWAP3 DUP4 DUP3 MSTORE PUSH1 0x0 JUMPDEST DUP5 DUP2 LT PUSH2 0x123B JUMPI POP POP DUP3 PUSH1 0x0 PUSH1 0x20 DUP1 SWAP5 SWAP6 DUP5 ADD ADD MSTORE PUSH1 0x1F DUP1 NOT SWAP2 ADD AND ADD ADD SWAP1 JUMP JUMPDEST DUP1 PUSH1 0x20 DUP1 SWAP3 DUP5 ADD ADD MLOAD DUP3 DUP3 DUP7 ADD ADD MSTORE ADD PUSH2 0x121A JUMP JUMPDEST SWAP1 DUP2 MLOAD DUP2 MSTORE PUSH1 0x1 DUP1 PUSH1 0xA0 SHL SUB PUSH1 0x20 DUP4 ADD MLOAD AND PUSH1 0x20 DUP3 ADD MSTORE PUSH1 0x40 DUP3 ADD MLOAD PUSH1 0x40 DUP3 ADD MSTORE PUSH1 0xC0 DUP1 PUSH2 0x128D PUSH1 0x60 DUP6 ADD MLOAD PUSH1 0xE0 PUSH1 0x60 DUP7 ADD MSTORE PUSH1 0xE0 DUP6 ADD SWAP1 PUSH2 0x120F JUMP JUMPDEST SWAP4 PUSH1 0x80 DUP2 ADD MLOAD ISZERO ISZERO PUSH1 0x80 DUP6 ADD MSTORE PUSH1 0xA0 DUP2 ADD MLOAD PUSH1 0xA0 DUP6 ADD MSTORE ADD MLOAD SWAP2 ADD MSTORE SWAP1 JUMP JUMPDEST ISZERO PUSH2 0x12B3 JUMPI JUMP JUMPDEST PUSH1 0x40 MLOAD PUSH3 0x461BCD PUSH1 0xE5 SHL DUP2 MSTORE PUSH1 0x20 PUSH1 0x4 DUP3 ADD MSTORE PUSH1 0xE PUSH1 0x24 DUP3 ADD MSTORE PUSH14 0x139BDD08185D5D1A1BDC9A5E9959 PUSH1 0x92 SHL PUSH1 0x44 DUP3 ADD MSTORE PUSH1 0x64 SWAP1 REVERT JUMPDEST ISZERO PUSH2 0x12F0 JUMPI JUMP JUMPDEST PUSH1 0x40 MLOAD PUSH3 0x461BCD PUSH1 0xE5 SHL DUP2 MSTORE PUSH1 0x20 PUSH1 0x4 DUP3 ADD MSTORE PUSH1 0x1D PUSH1 0x24 DUP3 ADD MSTORE PUSH32 0x416D6F756E74206D7573742062652067726561746572207468616E2030000000 PUSH1 0x44 DUP3 ADD MSTORE PUSH1 0x64 SWAP1 REVERT JUMPDEST SWAP2 SWAP1 DUP3 ADD DUP1 SWAP3 GT PUSH2 0xA53 JUMPI JUMP JUMPDEST CALLDATALOAD PUSH1 0x1 PUSH1 0x1 PUSH1 0xA0 SHL SUB DUP2 AND DUP2 SUB PUSH2 0x1E2 JUMPI SWAP1 JUMP JUMPDEST ISZERO PUSH2 0x135D JUMPI JUMP JUMPDEST PUSH1 0x40 MLOAD PUSH3 0x461BCD PUSH1 0xE5 SHL DUP2 MSTORE PUSH1 0x20 PUSH1 0x4 DUP3 ADD MSTORE PUSH1 0x14 PUSH1 0x24 DUP3 ADD MSTORE PUSH20 0x496E76616C696420686F73742061646472657373 PUSH1 0x60 SHL PUSH1 0x44 DUP3 ADD MSTORE PUSH1 0x64 SWAP1 REVERT JUMPDEST SWAP1 CALLDATALOAD SWAP1 PUSH1 0x1E NOT DUP2 CALLDATASIZE SUB ADD DUP3 SLT ISZERO PUSH2 0x1E2 JUMPI ADD DUP1 CALLDATALOAD SWAP1 PUSH8 0xFFFFFFFFFFFFFFFF DUP3 GT PUSH2 0x1E2 JUMPI PUSH1 0x20 ADD SWAP2 DUP2 CALLDATASIZE SUB DUP4 SGT PUSH2 0x1E2 JUMPI JUMP JUMPDEST ISZERO PUSH2 0x13D3 JUMPI JUMP JUMPDEST PUSH1 0x40 MLOAD PUSH3 0x461BCD PUSH1 0xE5 SHL DUP2 MSTORE PUSH1 0x20 PUSH1 0x4 DUP3 ADD MSTORE PUSH1 0x16 PUSH1 0x24 DUP3 ADD MSTORE PUSH22 0x13995D1DDBDC9AC8191BD95CC81B9BDD08195E1A5CDD PUSH1 0x52 SHL PUSH1 0x44 DUP3 ADD MSTORE PUSH1 0x64 SWAP1 REVERT JUMPDEST SWAP2 SWAP1 DUP2 LT ISZERO PUSH2 0x10DD JUMPI PUSH1 0x5 SHL ADD SWAP1 JUMP JUMPDEST ISZERO PUSH2 0x1428 JUMPI JUMP JUMPDEST PUSH1 0x40 MLOAD PUSH3 0x461BCD PUSH1 0xE5 SHL DUP2 MSTORE PUSH1 0x20 PUSH1 0x4 DUP3 ADD MSTORE PUSH1 0x16 PUSH1 0x24 DUP3 ADD MSTORE PUSH22 0x496E76616C69642063616C6C65722061646472657373 PUSH1 0x50 SHL PUSH1 0x44 DUP3 ADD MSTORE PUSH1 0x64 SWAP1 REVERT JUMPDEST PUSH1 0x40 MLOAD SWAP1 PUSH2 0x1473 DUP3 PUSH2 0x112D JUMP JUMPDEST PUSH1 0x0 PUSH1 0xC0 DUP4 DUP3 DUP2 MSTORE DUP3 PUSH1 0x20 DUP3 ADD MSTORE DUP3 PUSH1 0x40 DUP3 ADD MSTORE PUSH1 0x60 DUP1 DUP3 ADD MSTORE DUP3 PUSH1 0x80 DUP3 ADD MSTORE DUP3 PUSH1 0xA0 DUP3 ADD MSTORE ADD MSTORE JUMP JUMPDEST SWAP1 PUSH1 0x40 MLOAD PUSH2 0x14AA DUP2 PUSH2 0x112D JUMP JUMPDEST DUP3 SLOAD DUP2 MSTORE PUSH1 0x1 DUP4 ADD SLOAD PUSH1 0x1 PUSH1 0x1 PUSH1 0xA0 SHL SUB AND PUSH1 0x20 DUP3 ADD MSTORE PUSH1 0x2 DUP4 ADD SLOAD PUSH1 0x40 DUP3 ADD MSTORE SWAP2 DUP3 SWAP1 PUSH1 0xC0 SWAP1 PUSH1 0x6 SWAP1 PUSH2 0x14E0 PUSH1 0x3 DUP3 ADD PUSH2 0x116B JUMP JUMPDEST PUSH1 0x60 DUP6 ADD MSTORE PUSH1 0xFF PUSH1 0x4 DUP3 ADD SLOAD AND ISZERO ISZERO PUSH1 0x80 DUP6 ADD MSTORE PUSH1 0x5 DUP2 ADD SLOAD PUSH1 0xA0 DUP6 ADD MSTORE ADD SLOAD SWAP2 ADD MSTORE JUMP JUMPDEST PUSH8 0xFFFFFFFFFFFFFFFF DUP2 GT PUSH2 0xD66 JUMPI PUSH1 0x5 SHL PUSH1 0x20 ADD SWAP1 JUMP JUMPDEST SWAP2 SWAP1 DUP3 SUB SWAP2 DUP3 GT PUSH2 0xA53 JUMPI JUMP JUMPDEST DUP1 MLOAD DUP3 LT ISZERO PUSH2 0x10DD JUMPI PUSH1 0x20 SWAP2 PUSH1 0x5 SHL ADD ADD SWAP1 JUMP JUMPDEST PUSH1 0x3 SLOAD SWAP3 SWAP2 DUP4 DUP3 LT ISZERO PUSH2 0x1613 JUMPI PUSH2 0x1555 SWAP1 DUP3 PUSH2 0x1335 JUMP JUMPDEST DUP4 DUP2 GT PUSH2 0x160C JUMPI JUMPDEST PUSH2 0x1567 DUP3 DUP3 PUSH2 0x151D JUMP JUMPDEST SWAP2 PUSH2 0x1571 DUP4 PUSH2 0x1505 JUMP JUMPDEST SWAP3 PUSH2 0x157F PUSH1 0x40 MLOAD SWAP5 DUP6 PUSH2 0x1149 JUMP JUMPDEST DUP1 DUP5 MSTORE PUSH2 0x158E PUSH1 0x1F NOT SWAP2 PUSH2 0x1505 JUMP JUMPDEST ADD PUSH1 0x0 JUMPDEST DUP2 DUP2 LT PUSH2 0x15F5 JUMPI POP POP DUP1 JUMPDEST DUP3 DUP2 LT PUSH2 0x15AB JUMPI POP POP POP SWAP2 SWAP1 JUMP JUMPDEST PUSH1 0x1 DUP2 ADD SWAP1 DUP2 DUP2 GT PUSH2 0xA53 JUMPI PUSH1 0x1 SWAP2 PUSH1 0x0 MSTORE PUSH1 0x8 PUSH1 0x20 MSTORE PUSH2 0x15EE PUSH1 0x40 PUSH1 0x0 KECCAK256 PUSH2 0x15DD PUSH2 0x15D7 DUP7 DUP6 PUSH2 0x151D JUMP JUMPDEST SWAP2 PUSH2 0x149D JUMP JUMPDEST PUSH2 0x15E7 DUP3 DUP10 PUSH2 0x152A JUMP JUMPDEST MSTORE DUP7 PUSH2 0x152A JUMP JUMPDEST POP ADD PUSH2 0x159D JUMP JUMPDEST PUSH1 0x20 SWAP1 PUSH2 0x1600 PUSH2 0x1466 JUMP JUMPDEST DUP3 DUP3 DUP9 ADD ADD MSTORE ADD PUSH2 0x1592 JUMP JUMPDEST POP DUP3 PUSH2 0x155D JUMP JUMPDEST POP POP PUSH1 0x40 MLOAD PUSH1 0x0 PUSH2 0x1625 PUSH1 0x20 DUP4 PUSH2 0x1149 JUMP JUMPDEST DUP2 MSTORE PUSH1 0x0 DUP1 JUMPDEST DUP2 DUP2 LT PUSH2 0x1638 JUMPI POP POP SWAP2 SWAP1 JUMP JUMPDEST PUSH1 0x20 SWAP1 PUSH2 0x1643 PUSH2 0x1466 JUMP JUMPDEST DUP3 DUP3 DUP7 ADD ADD MSTORE ADD PUSH2 0x162B JUMP JUMPDEST PUSH1 0x2 PUSH1 0x1 SLOAD EQ PUSH2 0x1660 JUMPI PUSH1 0x2 PUSH1 0x1 SSTORE JUMP JUMPDEST PUSH4 0x3EE5AEB5 PUSH1 0xE0 SHL PUSH1 0x0 MSTORE PUSH1 0x4 PUSH1 0x0 REVERT JUMPDEST PUSH1 0x0 SLOAD PUSH1 0x1 PUSH1 0x1 PUSH1 0xA0 SHL SUB AND CALLER SUB PUSH2 0x1685 JUMPI JUMP JUMPDEST PUSH4 0x118CDAA7 PUSH1 0xE0 SHL PUSH1 0x0 MSTORE CALLER PUSH1 0x4 MSTORE PUSH1 0x24 PUSH1 0x0 REVERT INVALID LOG2 PUSH5 0x6970667358 0x22 SLT KECCAK256 0x4D SWAP4 ORIGIN 0xF CALLCODE PUSH31 0x527CCC1B9EBB664E49E9F444C2BCFE6C28D77BCB3AAF1D4D1BFB64736F6C63 NUMBER STOP ADDMOD SHR STOP CALLER "
        },
        "methodIdentifiers": {
          "allowedCallers(address)": "7b334154",
          "emergencyDeactivateNetwork(uint256)": "5a2f406f",
          "getHostEarnings(address)": "6d65573f",
          "getHostNetworks(address)": "79f0dc57",
          "getNetwork(uint256)": "95ea5717",
          "getNetworksPaginated(uint256,uint256)": "fa9c81a4",
          "getZaaNetEarnings()": "22a4808b",
          "hostEarnings(address)": "29c718b5",
          "hostNetworkIds(address,uint256)": "7bae8f5e",
          "increaseHostEarnings(address,uint256)": "e1c7a8aa",
          "increaseZaaNetEarnings(uint256)": "69009a13",
          "incrementNetworkId()": "5290ffc6",
          "networkExists(uint256)": "ec13f2a1",
          "networkIdCounter()": "217c682d",
          "networks(uint256)": "8bb0a17c",
          "owner()": "8da5cb5b",
          "renounceOwnership()": "715018a6",
          "sessionExists(uint256)": "879ecf10",
          "setAllowedCaller(address,bool)": "d8b0e716",
          "setAllowedCallers(address[],bool)": "73f9a5d7",
          "setNetwork(uint256,(uint256,address,uint256,string,bool,uint256,uint256))": "50c0d41c",
          "totalHostingAmount()": "242d30bc",
          "totalPaymentsAmount()": "7ee3b6fc",
          "totalWithdrawalsAmount()": "ad2c30b1",
          "transferOwnership(address)": "f2fde38b",
          "updateTotalHostingAmount(uint256)": "1190defd",
          "updateTotalPaymentsAmount(uint256)": "13a7dd1d",
          "updateTotalWithdrawalsAmount(uint256)": "bed31654",
          "zaanetEarnings()": "4ce083be"
        }
      }
    }
  }
}