{
  "contracts/ZaaNetNetwork.sol": {
    "ZaaNetNetwork": {
      "abi": [
        {
          "inputs": [
            {
              "internalType": "address",
              "name": "_storageContract",
              "type": "address"
            },
            {
              "internalType": "address",
              "name": "_adminContract",
              "type": "address"
            },
            {
              "internalType": "address",
              "name": "_usdt",
              "type": "address"
            }
          ],
          "stateMutability": "nonpayable",
          "type": "constructor"
        },
        {
          "inputs": [],
          "name": "EnforcedPause",
          "type": "error"
        },
        {
          "inputs": [],
          "name": "ExpectedPause",
          "type": "error"
        },
        {
          "inputs": [
            {
              "internalType": "address",
              "name": "owner",
              "type": "address"
            }
          ],
          "name": "OwnableInvalidOwner",
          "type": "error"
        },
        {
          "inputs": [
            {
              "internalType": "address",
              "name": "account",
              "type": "address"
            }
          ],
          "name": "OwnableUnauthorizedAccount",
          "type": "error"
        },
        {
          "inputs": [],
          "name": "ReentrancyGuardReentrantCall",
          "type": "error"
        },
        {
          "inputs": [
            {
              "internalType": "address",
              "name": "token",
              "type": "address"
            }
          ],
          "name": "SafeERC20FailedOperation",
          "type": "error"
        },
        {
          "anonymous": false,
          "inputs": [
            {
              "indexed": true,
              "internalType": "address",
              "name": "host",
              "type": "address"
            }
          ],
          "name": "HostAdded",
          "type": "event"
        },
        {
          "anonymous": false,
          "inputs": [
            {
              "indexed": true,
              "internalType": "address",
              "name": "host",
              "type": "address"
            },
            {
              "indexed": false,
              "internalType": "uint256",
              "name": "amount",
              "type": "uint256"
            },
            {
              "indexed": false,
              "internalType": "uint256",
              "name": "timestamp",
              "type": "uint256"
            }
          ],
          "name": "HostingFeePaid",
          "type": "event"
        },
        {
          "anonymous": false,
          "inputs": [
            {
              "indexed": true,
              "internalType": "uint256",
              "name": "networkId",
              "type": "uint256"
            },
            {
              "indexed": false,
              "internalType": "uint256",
              "name": "oldPrice",
              "type": "uint256"
            },
            {
              "indexed": false,
              "internalType": "uint256",
              "name": "newPrice",
              "type": "uint256"
            }
          ],
          "name": "NetworkPriceUpdated",
          "type": "event"
        },
        {
          "anonymous": false,
          "inputs": [
            {
              "indexed": true,
              "internalType": "uint256",
              "name": "networkId",
              "type": "uint256"
            },
            {
              "indexed": true,
              "internalType": "address",
              "name": "hostAddress",
              "type": "address"
            },
            {
              "indexed": false,
              "internalType": "string",
              "name": "mongoDataId",
              "type": "string"
            },
            {
              "indexed": false,
              "internalType": "uint256",
              "name": "pricePerSession",
              "type": "uint256"
            },
            {
              "indexed": false,
              "internalType": "bool",
              "name": "isActive",
              "type": "bool"
            },
            {
              "indexed": false,
              "internalType": "uint256",
              "name": "hostingFeePaid",
              "type": "uint256"
            },
            {
              "indexed": false,
              "internalType": "uint256",
              "name": "timestamp",
              "type": "uint256"
            }
          ],
          "name": "NetworkRegistered",
          "type": "event"
        },
        {
          "anonymous": false,
          "inputs": [
            {
              "indexed": true,
              "internalType": "uint256",
              "name": "networkId",
              "type": "uint256"
            },
            {
              "indexed": false,
              "internalType": "bool",
              "name": "oldStatus",
              "type": "bool"
            },
            {
              "indexed": false,
              "internalType": "bool",
              "name": "newStatus",
              "type": "bool"
            }
          ],
          "name": "NetworkStatusChanged",
          "type": "event"
        },
        {
          "anonymous": false,
          "inputs": [
            {
              "indexed": true,
              "internalType": "uint256",
              "name": "networkId",
              "type": "uint256"
            },
            {
              "indexed": true,
              "internalType": "address",
              "name": "hostAddress",
              "type": "address"
            },
            {
              "indexed": false,
              "internalType": "uint256",
              "name": "pricePerSession",
              "type": "uint256"
            },
            {
              "indexed": false,
              "internalType": "string",
              "name": "mongoDataId",
              "type": "string"
            },
            {
              "indexed": false,
              "internalType": "bool",
              "name": "isActive",
              "type": "bool"
            }
          ],
          "name": "NetworkUpdated",
          "type": "event"
        },
        {
          "anonymous": false,
          "inputs": [
            {
              "indexed": true,
              "internalType": "address",
              "name": "previousOwner",
              "type": "address"
            },
            {
              "indexed": true,
              "internalType": "address",
              "name": "newOwner",
              "type": "address"
            }
          ],
          "name": "OwnershipTransferred",
          "type": "event"
        },
        {
          "anonymous": false,
          "inputs": [
            {
              "indexed": false,
              "internalType": "address",
              "name": "account",
              "type": "address"
            }
          ],
          "name": "Paused",
          "type": "event"
        },
        {
          "anonymous": false,
          "inputs": [
            {
              "indexed": false,
              "internalType": "address",
              "name": "account",
              "type": "address"
            }
          ],
          "name": "Unpaused",
          "type": "event"
        },
        {
          "inputs": [],
          "name": "MAX_MONGO_DATA_LENGTH",
          "outputs": [
            {
              "internalType": "uint256",
              "name": "",
              "type": "uint256"
            }
          ],
          "stateMutability": "view",
          "type": "function"
        },
        {
          "inputs": [],
          "name": "MAX_PRICE_PER_SESSION",
          "outputs": [
            {
              "internalType": "uint256",
              "name": "",
              "type": "uint256"
            }
          ],
          "stateMutability": "view",
          "type": "function"
        },
        {
          "inputs": [],
          "name": "MIN_PRICE_PER_SESSION",
          "outputs": [
            {
              "internalType": "uint256",
              "name": "",
              "type": "uint256"
            }
          ],
          "stateMutability": "view",
          "type": "function"
        },
        {
          "inputs": [],
          "name": "REGISTRATION_COOLDOWN",
          "outputs": [
            {
              "internalType": "uint256",
              "name": "",
              "type": "uint256"
            }
          ],
          "stateMutability": "view",
          "type": "function"
        },
        {
          "inputs": [],
          "name": "adminContract",
          "outputs": [
            {
              "internalType": "contract IZaaNetAdmin",
              "name": "",
              "type": "address"
            }
          ],
          "stateMutability": "view",
          "type": "function"
        },
        {
          "inputs": [
            {
              "internalType": "uint256",
              "name": "_networkId",
              "type": "uint256"
            }
          ],
          "name": "deactivateNetwork",
          "outputs": [],
          "stateMutability": "nonpayable",
          "type": "function"
        },
        {
          "inputs": [
            {
              "internalType": "address",
              "name": "hostAddress",
              "type": "address"
            }
          ],
          "name": "getActiveHostNetworks",
          "outputs": [
            {
              "components": [
                {
                  "internalType": "uint256",
                  "name": "id",
                  "type": "uint256"
                },
                {
                  "internalType": "address",
                  "name": "hostAddress",
                  "type": "address"
                },
                {
                  "internalType": "uint256",
                  "name": "pricePerSession",
                  "type": "uint256"
                },
                {
                  "internalType": "string",
                  "name": "mongoDataId",
                  "type": "string"
                },
                {
                  "internalType": "bool",
                  "name": "isActive",
                  "type": "bool"
                },
                {
                  "internalType": "uint256",
                  "name": "createdAt",
                  "type": "uint256"
                },
                {
                  "internalType": "uint256",
                  "name": "updatedAt",
                  "type": "uint256"
                }
              ],
              "internalType": "struct ZaaNetStorage.Network[]",
              "name": "",
              "type": "tuple[]"
            }
          ],
          "stateMutability": "view",
          "type": "function"
        },
        {
          "inputs": [],
          "name": "getAllActiveNetworks",
          "outputs": [
            {
              "components": [
                {
                  "internalType": "uint256",
                  "name": "id",
                  "type": "uint256"
                },
                {
                  "internalType": "address",
                  "name": "hostAddress",
                  "type": "address"
                },
                {
                  "internalType": "uint256",
                  "name": "pricePerSession",
                  "type": "uint256"
                },
                {
                  "internalType": "string",
                  "name": "mongoDataId",
                  "type": "string"
                },
                {
                  "internalType": "bool",
                  "name": "isActive",
                  "type": "bool"
                },
                {
                  "internalType": "uint256",
                  "name": "createdAt",
                  "type": "uint256"
                },
                {
                  "internalType": "uint256",
                  "name": "updatedAt",
                  "type": "uint256"
                }
              ],
              "internalType": "struct ZaaNetStorage.Network[]",
              "name": "",
              "type": "tuple[]"
            }
          ],
          "stateMutability": "view",
          "type": "function"
        },
        {
          "inputs": [],
          "name": "getContractStats",
          "outputs": [
            {
              "internalType": "uint256",
              "name": "totalNetworks",
              "type": "uint256"
            }
          ],
          "stateMutability": "view",
          "type": "function"
        },
        {
          "inputs": [],
          "name": "getCurrentHostingFee",
          "outputs": [
            {
              "internalType": "uint256",
              "name": "",
              "type": "uint256"
            }
          ],
          "stateMutability": "view",
          "type": "function"
        },
        {
          "inputs": [
            {
              "internalType": "address",
              "name": "hostAddress",
              "type": "address"
            }
          ],
          "name": "getHostNetworks",
          "outputs": [
            {
              "internalType": "uint256[]",
              "name": "",
              "type": "uint256[]"
            }
          ],
          "stateMutability": "view",
          "type": "function"
        },
        {
          "inputs": [
            {
              "internalType": "address",
              "name": "hostAddress",
              "type": "address"
            }
          ],
          "name": "getHostStats",
          "outputs": [
            {
              "internalType": "uint256",
              "name": "totalNetworks",
              "type": "uint256"
            },
            {
              "internalType": "uint256",
              "name": "activeNetworks",
              "type": "uint256"
            },
            {
              "internalType": "uint256",
              "name": "totalEarnings",
              "type": "uint256"
            }
          ],
          "stateMutability": "view",
          "type": "function"
        },
        {
          "inputs": [
            {
              "internalType": "uint256",
              "name": "_networkId",
              "type": "uint256"
            }
          ],
          "name": "getHostedNetworkById",
          "outputs": [
            {
              "components": [
                {
                  "internalType": "uint256",
                  "name": "id",
                  "type": "uint256"
                },
                {
                  "internalType": "address",
                  "name": "hostAddress",
                  "type": "address"
                },
                {
                  "internalType": "uint256",
                  "name": "pricePerSession",
                  "type": "uint256"
                },
                {
                  "internalType": "string",
                  "name": "mongoDataId",
                  "type": "string"
                },
                {
                  "internalType": "bool",
                  "name": "isActive",
                  "type": "bool"
                },
                {
                  "internalType": "uint256",
                  "name": "createdAt",
                  "type": "uint256"
                },
                {
                  "internalType": "uint256",
                  "name": "updatedAt",
                  "type": "uint256"
                }
              ],
              "internalType": "struct ZaaNetStorage.Network",
              "name": "",
              "type": "tuple"
            }
          ],
          "stateMutability": "view",
          "type": "function"
        },
        {
          "inputs": [
            {
              "internalType": "uint256",
              "name": "offset",
              "type": "uint256"
            },
            {
              "internalType": "uint256",
              "name": "limit",
              "type": "uint256"
            }
          ],
          "name": "getNetworksPaginated",
          "outputs": [
            {
              "components": [
                {
                  "internalType": "uint256",
                  "name": "id",
                  "type": "uint256"
                },
                {
                  "internalType": "address",
                  "name": "hostAddress",
                  "type": "address"
                },
                {
                  "internalType": "uint256",
                  "name": "pricePerSession",
                  "type": "uint256"
                },
                {
                  "internalType": "string",
                  "name": "mongoDataId",
                  "type": "string"
                },
                {
                  "internalType": "bool",
                  "name": "isActive",
                  "type": "bool"
                },
                {
                  "internalType": "uint256",
                  "name": "createdAt",
                  "type": "uint256"
                },
                {
                  "internalType": "uint256",
                  "name": "updatedAt",
                  "type": "uint256"
                }
              ],
              "internalType": "struct ZaaNetStorage.Network[]",
              "name": "networks",
              "type": "tuple[]"
            },
            {
              "internalType": "uint256",
              "name": "totalCount",
              "type": "uint256"
            }
          ],
          "stateMutability": "view",
          "type": "function"
        },
        {
          "inputs": [],
          "name": "getTreasuryAddress",
          "outputs": [
            {
              "internalType": "address",
              "name": "",
              "type": "address"
            }
          ],
          "stateMutability": "view",
          "type": "function"
        },
        {
          "inputs": [
            {
              "internalType": "address",
              "name": "",
              "type": "address"
            }
          ],
          "name": "isHost",
          "outputs": [
            {
              "internalType": "bool",
              "name": "",
              "type": "bool"
            }
          ],
          "stateMutability": "view",
          "type": "function"
        },
        {
          "inputs": [
            {
              "internalType": "address",
              "name": "hostAddress",
              "type": "address"
            }
          ],
          "name": "isRegisteredHost",
          "outputs": [
            {
              "internalType": "bool",
              "name": "",
              "type": "bool"
            }
          ],
          "stateMutability": "view",
          "type": "function"
        },
        {
          "inputs": [
            {
              "internalType": "address",
              "name": "",
              "type": "address"
            }
          ],
          "name": "lastRegistrationTime",
          "outputs": [
            {
              "internalType": "uint256",
              "name": "",
              "type": "uint256"
            }
          ],
          "stateMutability": "view",
          "type": "function"
        },
        {
          "inputs": [
            {
              "internalType": "uint256",
              "name": "",
              "type": "uint256"
            }
          ],
          "name": "networkToHost",
          "outputs": [
            {
              "internalType": "address",
              "name": "",
              "type": "address"
            }
          ],
          "stateMutability": "view",
          "type": "function"
        },
        {
          "inputs": [],
          "name": "owner",
          "outputs": [
            {
              "internalType": "address",
              "name": "",
              "type": "address"
            }
          ],
          "stateMutability": "view",
          "type": "function"
        },
        {
          "inputs": [],
          "name": "pause",
          "outputs": [],
          "stateMutability": "nonpayable",
          "type": "function"
        },
        {
          "inputs": [],
          "name": "paused",
          "outputs": [
            {
              "internalType": "bool",
              "name": "",
              "type": "bool"
            }
          ],
          "stateMutability": "view",
          "type": "function"
        },
        {
          "inputs": [
            {
              "internalType": "uint256",
              "name": "_pricePerSession",
              "type": "uint256"
            },
            {
              "internalType": "string",
              "name": "_mongoDataId",
              "type": "string"
            },
            {
              "internalType": "bool",
              "name": "_isActive",
              "type": "bool"
            }
          ],
          "name": "registerNetwork",
          "outputs": [],
          "stateMutability": "nonpayable",
          "type": "function"
        },
        {
          "inputs": [],
          "name": "renounceOwnership",
          "outputs": [],
          "stateMutability": "nonpayable",
          "type": "function"
        },
        {
          "inputs": [
            {
              "internalType": "address",
              "name": "_newAdminContract",
              "type": "address"
            }
          ],
          "name": "setAdminContract",
          "outputs": [],
          "stateMutability": "nonpayable",
          "type": "function"
        },
        {
          "inputs": [
            {
              "internalType": "address",
              "name": "_newUsdt",
              "type": "address"
            }
          ],
          "name": "setUsdtContract",
          "outputs": [],
          "stateMutability": "nonpayable",
          "type": "function"
        },
        {
          "inputs": [],
          "name": "storageContract",
          "outputs": [
            {
              "internalType": "contract ZaaNetStorage",
              "name": "",
              "type": "address"
            }
          ],
          "stateMutability": "view",
          "type": "function"
        },
        {
          "inputs": [
            {
              "internalType": "address",
              "name": "newOwner",
              "type": "address"
            }
          ],
          "name": "transferOwnership",
          "outputs": [],
          "stateMutability": "nonpayable",
          "type": "function"
        },
        {
          "inputs": [],
          "name": "unpause",
          "outputs": [],
          "stateMutability": "nonpayable",
          "type": "function"
        },
        {
          "inputs": [
            {
              "internalType": "uint256",
              "name": "_networkId",
              "type": "uint256"
            },
            {
              "internalType": "uint256",
              "name": "_pricePerSession",
              "type": "uint256"
            },
            {
              "internalType": "bool",
              "name": "_isActive",
              "type": "bool"
            }
          ],
          "name": "updateNetwork",
          "outputs": [],
          "stateMutability": "nonpayable",
          "type": "function"
        },
        {
          "inputs": [],
          "name": "usdt",
          "outputs": [
            {
              "internalType": "contract IERC20",
              "name": "",
              "type": "address"
            }
          ],
          "stateMutability": "view",
          "type": "function"
        }
      ],
      "evm": {
        "bytecode": {
          "linkReferences": {},
          "object": "60803461020657601f6122fd38819003918201601f19168301916001600160401b0383118484101761020b578084926060946040528339810103126102065761004781610221565b90610060604061005960208401610221565b9201610221565b9033156101f05760008054336001600160a01b0319821681178355604051959290916001600160a01b0316907f8be0079c531659141344cd1fd0a4f28419497f9722a3daafe3b4186f6b6457e09080a3600180556001600160a01b03169283156101ae57506001600160a01b0316908115610169576001600160a01b03169182156101245760018060a01b0319600254161760025560018060a01b0319600354161760035560018060a01b031960045416176004556040516120c790816102368239f35b60405162461bcd60e51b815260206004820152601d60248201527f496e76616c6964205553445420636f6e747261637420616464726573730000006044820152606490fd5b60405162461bcd60e51b815260206004820152601e60248201527f496e76616c69642061646d696e20636f6e7472616374206164647265737300006044820152606490fd5b62461bcd60e51b815260206004820181905260248201527f496e76616c69642073746f7261676520636f6e747261637420616464726573736044820152606490fd5b631e4fbdf760e01b600052600060045260246000fd5b600080fd5b634e487b7160e01b600052604160045260246000fd5b51906001600160a01b03821682036102065756fe608080604052600436101561001357600080fd5b600090813560e01c90816309115e9714611b9b5750806311ce026714611b7257806316cb6eff14611a705780631b63fe671461180f5780632b2a748c1461164d5780632f48ab7d146116245780633f4ba83a146115b657806343355214146115835780634b9791e814611213578063576338a51461118b5780635c975abb1461116657806363a812f9146110dd578063715018a614611083578063764ac73414610eee57806379f0dc5714610e355780637f6e8cbf14610df85780638456cb5914610d97578063867f1a09146102b357806389ea28d914610d485780638da5cb5b14610d21578063900e41b114610542578063b0ff638314610526578063c05c5e94146104fd578063cd83fb9a1461045b578063d4f38d041461043c578063dfe6b5d6146103b4578063e002460414610311578063e67d86f1146102f5578063eb2931b7146102b3578063f2fde38b146102255763fa9c81a41461017657600080fd5b3461022257604036600319011261022257600254604051633ea7206960e21b81526004803590820152602480359082015291908190839060449082906001600160a01b03165afa8015610215576101e5928280926101ef575b5050604051928392604084526040840190611c5b565b9060208301520390f35b90915061020e92503d8091833e6102068183611cf5565b810190611e20565b38806101cf565b50604051903d90823e3d90fd5b80fd5b5034610222576020366003190112610222576004356001600160a01b038116908190036102af57610254612068565b801561029b5781546001600160a01b03198116821783556001600160a01b03167f8be0079c531659141344cd1fd0a4f28419497f9722a3daafe3b4186f6b6457e08380a380f35b631e4fbdf760e01b82526004829052602482fd5b5080fd5b5034610222576020366003190112610222576004356001600160a01b038116908190036102af5760408260ff9260209452600584522054166040519015158152f35b5034610222578060031936011261022257602060405160c88152f35b503461022257806003193601126102225760035460405163c5f956af60e01b81529190602090839060049082906001600160a01b03165afa9081156103a857809161036b575b6040516001600160a01b0383168152602090f35b90506020823d6020116103a0575b8161038660209383611cf5565b81010312610222575061039a602091611d4b565b38610357565b3d9150610379565b604051903d90823e3d90fd5b503461022257806003193601126102225760025460405163217c682d60e01b81529190602090839060049082906001600160a01b03165afa9081156103a85790610404575b602090604051908152f35b506020813d602011610434575b8161041e60209383611cf5565b8101031261042f57602090516103f9565b600080fd5b3d9150610411565b503461022257806003193601126102225760206040516302faf0808152f35b503461022257602036600319011261022257610475611f13565b506002546040516395ea571760e01b81526004803590820152908290829060249082906001600160a01b03165afa9081156104f257826104cb93926104cf575b5050604051918291602083526020830190611bff565b0390f35b6104eb92503d8091833e6104e38183611cf5565b810190611f9a565b38806104b5565b6040513d84823e3d90fd5b50346102225780600319360112610222576003546040516001600160a01b039091168152602090f35b50346102225780600319360112610222576020604051603c8152f35b5034610222576060366003190112610222576024359060043567ffffffffffffffff83116102af57366023840112156102af57826004013561058381611d17565b936105916040519586611cf5565b8185523660248383010111610a835781849260246020930183880137850101526105b9611cb4565b926105c2612026565b6105ca612046565b33835260086020526040832054603c8101809111610d0d574210610cc85761271082101580610cba575b6105fd90611fc3565b80518015159081610cae575b5015610c69576003546040516375f3fed560e11b81526001600160a01b0390911694602082600481895afa918215610a87578592610c32575b5060206004966040519788809263c5f956af60e01b82525afa958615610a87578596610bf6575b5081151580610be4575b6108d2575b6002546040516329487fe360e11b8152959650939493602090859060049082908a906001600160a01b03165af19384156108c7578694610893575b508560018060a01b036002541691604051906106ce82611cc3565b8682523360208301528760408301528560608301521515928360808301524260a08301524260c0830152803b1561088f57604051631430350760e21b81529183918391829084908290610725908d6004840161200f565b03925af180156104f257610876575b505033865260066020526040862080549068010000000000000000821015610862576001820180825582101561084e577fd93f4aea01982a4687b0d757a8314f57b6a77742cf98d21bc9bdb24ef543a4dc9493929186918952602089200155848752600760205260408720336001600160601b0360a01b8254161790553387526008602052426040882055338752600560205260ff6040882054161561080d575b6107ea6040519360a0855260a0850190611bda565b956020840152604083015260608201524260808201528033940390a36001805580f35b33808852600560205260408820805460ff191660011790557f8ff9310abede1de3c5d3fdbb7cf09c40bc8258ca75c0f949ad92f964deac98b38880a26107d5565b634e487b7160e01b88526032600452602488fd5b634e487b7160e01b88526041600452602488fd5b8161088091611cf5565b61088b578538610734565b8580fd5b8280fd5b9093506020813d6020116108bf575b816108af60209383611cf5565b8101031261042f575192386106b3565b3d91506108a2565b6040513d88823e3d90fd5b600480546040516370a0823160e01b815233928101929092526001600160a01b031696906020816024818b5afa908115610b4d579084918891610baf575b5010610b5857604051636eb1769f60e11b81523360048201523060248201526020816044818b5afa908115610b4d579084918891610b18575b5010610ad3576040516323b872dd60e01b60208281019182523360248401526001600160a01b03909316604483015260648083018690528252879161098f608482611cf5565b5190828a5af115610ac85784513d610abf5750853b155b610aab5760025494955092938593906001600160a01b0316803b15610a92578480916024604051809481936369009a1360e01b83528860048401525af1908115610a87578591610a96575b50506002546001600160a01b0316803b15610a9257848091602460405180948193631190defd60e01b83528860048401525af1908115610a87578591610a6e575b50506040518281524260208201527fac5b35db873b0c878683cbeac0fc736acd48ea6480742bafd3ba483dd715882460403392a2939293610678565b81610a7891611cf5565b610a83578338610a32565b8380fd5b6040513d87823e3d90fd5b8480fd5b81610aa091611cf5565b610a835783386109f1565b635274afe760e01b85526004869052602485fd5b600114156109a6565b6040513d86823e3d90fd5b60405162461bcd60e51b815260206004820152601860248201527f486f7374696e6720666565206e6f7420617070726f76656400000000000000006044820152606490fd5b9150506020813d602011610b45575b81610b3460209383611cf5565b8101031261042f5783905138610949565b3d9150610b27565b6040513d89823e3d90fd5b60405162461bcd60e51b815260206004820152602960248201527f496e73756666696369656e7420555344542062616c616e636520666f7220686f6044820152687374696e672066656560b81b6064820152608490fd5b9150506020813d602011610bdc575b81610bcb60209383611cf5565b8101031261042f5783905138610910565b3d9150610bbe565b506001600160a01b0386161515610673565b9095506020813d602011610c2a575b81610c1260209383611cf5565b81010312610a9257610c2390611d4b565b9438610669565b3d9150610c05565b9591506020863d602011610c61575b81610c4e60209383611cf5565b8101031261042f57945190946020610642565b3d9150610c41565b60405162461bcd60e51b815260206004820152601a60248201527f496e76616c6964204d6f6e676f446174614944206c656e6774680000000000006044820152606490fd5b60c89150111538610609565b506302faf0808211156105f4565b60405162461bcd60e51b815260206004820152601c60248201527f526567697374726174696f6e20636f6f6c646f776e20616374697665000000006044820152606490fd5b634e487b7160e01b84526011600452602484fd5b5034610222578060031936011261022257546040516001600160a01b039091168152602090f35b50346102225780600319360112610222576003546040516375f3fed560e11b81529190602090839060049082906001600160a01b03165afa9081156103a8579061040457602090604051908152f35b5034610222578060031936011261022257610db0612068565b610db8612026565b805460ff60a01b1916600160a01b1781556040513381527f62e78cea01bee320cd4e420270b5ea74000d11b0c9f74754ebdbfc544b05a25890602090a180f35b5034610222576020366003190112610222576004356001600160a01b038116908190036102af578160409160209352600883522054604051908152f35b5034610222576020366003190112610222576004356001600160a01b038116908190036102af578152600660205260408120604051908160208254918281520190819285526020852090855b818110610ed85750505082610e97910383611cf5565b604051928392602084019060208552518091526040840192915b818110610ebf575050500390f35b8251845285945060209384019390920191600101610eb1565b8254845260209093019260019283019201610e81565b5034610222576020366003190112610222576004356001600160a01b038116908190036102af57818183526006602052604083205460018060a01b03600254169060405193636d65573f60e01b8552806004860152602085602481865afa9485156108c757869561104f575b508552600660205260408520906040518083602082955493848152019089526020892092895b818110611036575050610f9592500383611cf5565b855b825181101561101f57610faa8184611ec4565b51604051906395ea571760e01b825260048201528781602481885afa8015611014576080918991610ffa575b500151610fe6575b600101610f97565b93610ff2600191611eee565b949050610fde565b61100e91503d808b833e6104e38183611cf5565b38610fd6565b6040513d8a823e3d90fd5b606082878760405192835260208301526040820152f35b8454835260019485019487945060209093019201610f80565b9094506020813d60201161107b575b8161106b60209383611cf5565b8101031261042f57519338610f5a565b3d915061105e565b503461022257806003193601126102225761109c612068565b80546001600160a01b03198116825581906001600160a01b03167f8be0079c531659141344cd1fd0a4f28419497f9722a3daafe3b4186f6b6457e08280a380f35b5034610222576020366003190112610222576004356001600160a01b038116908190036102af5761110c612068565b8015611128576001600160601b0360a01b600354161760035580f35b60405162461bcd60e51b8152602060048201526016602482015275125b9d985b1a590818591b5a5b8818dbdb9d1c9858dd60521b6044820152606490fd5b503461022257806003193601126102225760ff6020915460a01c166040519015158152f35b5034610222576020366003190112610222576004356001600160a01b038116908190036102af576111ba612068565b80156111d6576001600160601b0360a01b600454161760045580f35b60405162461bcd60e51b8152602060048201526015602482015274125b9d985b1a59081554d1150818dbdb9d1c9858dd605a1b6044820152606490fd5b503461022257602036600319011261022257600435611230612026565b6002546040516395ea571760e01b815260048101839052908390829060249082906001600160a01b03165afa90811561157857839161155e575b5060208101516001600160a01b03163303611519576080810151156114d45760409081015160025491516395ea571760e01b8152600481018490529092916001600160a01b03168482602481845afa918215610a875785926114b8575b506020820151336001600160a01b039091160361147c576127108410158061146e575b6112f390611fc3565b846040830151926080810151151590606081019360a085519201516040519261131b84611cc3565b888452336020850152896040850152606084015284608084015260a08301524260c0830152803b15610a835761136c8492918392604051968780948193631430350760e21b83528d6004840161200f565b03925af1928315610215578693611451575b505090816113d393928286897f54505b9e522263d538acc1f6de9658c2ae4fd39b8771f562481c2d375d1c1f2d980361141a575b50506113e3575b505051604051948552606060208601526060850190611bda565b928460408201528033940390a380f35b60407fb061566845b6680f66461fbe29235493f3aa355419d464d868114a32e0e7ae7b918151908152896020820152a283386113b9565b60407f07d20e42fbc3910f3e2536c15bfb3d2deec361f7b0534c071570af6608429f019181519081528b6020820152a282386113b2565b81929493509061146091611cf5565b61088b57908390863861137e565b506302faf0808411156112ea565b60405162461bcd60e51b81526020600482015260146024820152734f6e6c7920686f73742063616e2075706461746560601b6044820152606490fd5b6114cd9192503d8087833e6104e38183611cf5565b90386112c7565b60405162461bcd60e51b815260206004820152601860248201527f4e6574776f726b20616c726561647920696e61637469766500000000000000006044820152606490fd5b60405162461bcd60e51b815260206004820152601860248201527f4f6e6c7920686f73742063616e206465616374697661746500000000000000006044820152606490fd5b61157291503d8085833e6104e38183611cf5565b3861126a565b6040513d85823e3d90fd5b503461022257602036600319011261022257602090600435815260078252604060018060a01b0391205416604051908152f35b50346102225780600319360112610222576115cf612068565b805460ff8160a01c16156116155760ff60a01b191681556040513381527f5db9ee0a495bf2e6ff9c91a7834c1ba4fdd244a5e8aa4e537bd38aeae4b073aa90602090a180f35b638dfc202b60e01b8252600482fd5b50346102225780600319360112610222576004546040516001600160a01b039091168152602090f35b5034610222576020366003190112610222576004356001600160a01b038116908190036102af5781526006602052604081206040518082602082945493848152019085526020852092855b8181106117f65750506116ad92500382611cf5565b60025482906001600160a01b031681805b845181101561173b576116d18186611ec4565b51604051906395ea571760e01b825260048201528281602481875afa8015611578576080918491611721575b50015161170d575b6001016116be565b92611719600191611eee565b939050611705565b61173591503d8086833e6104e38183611cf5565b386116fd565b50509061174790611f4a565b8390845b84518110156117e05761175e8186611ec4565b51604051906395ea571760e01b825260048201528681602481885afa908115610b4d5787916117c6575b50608081015161179c575b5060010161174b565b836117bf916117ae6001949686611ec4565b526117b98185611ec4565b50611eee565b9290611793565b6117da91503d8089833e6104e38183611cf5565b38611788565b604051602080825281906104cb90820185611c5b565b8454835260019485019486945060209093019201611698565b50346102225760603660031901126102225760243560043561182f611cb4565b91611838612026565b611840612046565b6002546040516395ea571760e01b815260048101849052906001600160a01b03168582602481845afa9182156108c7578692611a54575b506020820151336001600160a01b039091160361147c5761271083101580611a46575b6118a390611fc3565b6040820151866080840151151592606085019460a0865191015198604051916118cb83611cc3565b898352336020840152886040840152606083015215159889608083015260a08201524260c0820152813b1561088f57829161191d91604051948580948193631430350760e21b83528d6004840161200f565b03925af1801561101457611a04575b509184611983928185877f54505b9e522263d538acc1f6de9658c2ae4fd39b8771f562481c2d375d1c1f2d9897036119cd575b5050878103611996575b505051604051928352606060208401526060830190611bda565b9360408201528033940390a36001805580f35b60407fb061566845b6680f66461fbe29235493f3aa355419d464d868114a32e0e7ae7b918151908152896020820152a28438611969565b60407f07d20e42fbc3910f3e2536c15bfb3d2deec361f7b0534c071570af6608429f01918151908152886020820152a2813861195f565b611983928689611a397f54505b9e522263d538acc1f6de9658c2ae4fd39b8771f562481c2d375d1c1f2d9897959b8395611cf5565b999395965050925061192c565b506302faf08083111561189a565b611a699192503d8088833e6104e38183611cf5565b9038611877565b5034610222578060031936011261022257600254604051633ea7206960e21b8152600481018390526064602482015291908190839060449082906001600160a01b03165afa918215610215578192611b55575b5080815b8351811015611b00576080611adc8286611ec4565b510151611aec575b600101611ac7565b90611af8600191611eee565b919050611ae4565b50611b0a90611f4a565b815b83518110156117e0576080611b218286611ec4565b510151611b31575b600101611b0c565b91611b4d600191611b428587611ec4565b516117ae8286611ec4565b929050611b29565b611b6a9192503d8084833e6102068183611cf5565b509038611ac3565b50346102225780600319360112610222576002546040516001600160a01b039091168152602090f35b9050346102af57816003193601126102af578061271060209252f35b60005b838110611bca5750506000910152565b8181015183820152602001611bba565b90602091611bf381518092818552858086019101611bb7565b601f01601f1916010190565b908151815260018060a01b0360208301511660208201526040820151604082015260c080611c3c606085015160e0606086015260e0850190611bda565b9360808101511515608085015260a081015160a0850152015191015290565b9080602083519182815201916020808360051b8301019401926000915b838310611c8757505050505090565b9091929394602080611ca5600193601f198682030187528951611bff565b97019301930191939290611c78565b60443590811515820361042f57565b60e0810190811067ffffffffffffffff821117611cdf57604052565b634e487b7160e01b600052604160045260246000fd5b90601f8019910116810190811067ffffffffffffffff821117611cdf57604052565b67ffffffffffffffff8111611cdf57601f01601f191660200190565b67ffffffffffffffff8111611cdf5760051b60200190565b51906001600160a01b038216820361042f57565b91909160e08184031261042f5760405190611d7982611cc3565b819381518352611d8b60208301611d4b565b602084015260408201516040840152606082015167ffffffffffffffff811161042f57820181601f8201121561042f578051611dc681611d17565b92611dd46040519485611cf5565b8184526020828401011161042f57611df29160208085019101611bb7565b60608301526080810151801515810361042f5760c0918291608085015260a081015160a08501520151910152565b919060408382031261042f57825167ffffffffffffffff811161042f5783019080601f8301121561042f578151611e5681611d33565b92611e646040519485611cf5565b81845260208085019260051b8201019183831161042f5760208201905b838210611e9657505050505060209092015190565b815167ffffffffffffffff811161042f57602091611eb987848094880101611d5f565b815201910190611e81565b8051821015611ed85760209160051b010190565b634e487b7160e01b600052603260045260246000fd5b6000198114611efd5760010190565b634e487b7160e01b600052601160045260246000fd5b60405190611f2082611cc3565b600060c0838281528260208201528260408201526060808201528260808201528260a08201520152565b90611f5482611d33565b611f616040519182611cf5565b8281528092611f72601f1991611d33565b019060005b828110611f8357505050565b602090611f8e611f13565b82828501015201611f77565b9060208282031261042f57815167ffffffffffffffff811161042f57611fc09201611d5f565b90565b15611fca57565b60405162461bcd60e51b815260206004820152601a60248201527f5072696365206f7574206f6620616c6c6f7765642072616e67650000000000006044820152606490fd5b604090611fc0939281528160208201520190611bff565b60ff60005460a01c1661203557565b63d93c066560e01b60005260046000fd5b600260015414612057576002600155565b633ee5aeb560e01b60005260046000fd5b6000546001600160a01b0316330361207c57565b63118cdaa760e01b6000523360045260246000fdfea2646970667358221220af11b012e53024a1bab258678f70f2524fc8267300a7f385320564cfefed053064736f6c634300081c0033",
          "opcodes": "PUSH1 0x80 CALLVALUE PUSH2 0x206 JUMPI PUSH1 0x1F PUSH2 0x22FD CODESIZE DUP2 SWAP1 SUB SWAP2 DUP3 ADD PUSH1 0x1F NOT AND DUP4 ADD SWAP2 PUSH1 0x1 PUSH1 0x1 PUSH1 0x40 SHL SUB DUP4 GT DUP5 DUP5 LT OR PUSH2 0x20B JUMPI DUP1 DUP5 SWAP3 PUSH1 0x60 SWAP5 PUSH1 0x40 MSTORE DUP4 CODECOPY DUP2 ADD SUB SLT PUSH2 0x206 JUMPI PUSH2 0x47 DUP2 PUSH2 0x221 JUMP JUMPDEST SWAP1 PUSH2 0x60 PUSH1 0x40 PUSH2 0x59 PUSH1 0x20 DUP5 ADD PUSH2 0x221 JUMP JUMPDEST SWAP3 ADD PUSH2 0x221 JUMP JUMPDEST SWAP1 CALLER ISZERO PUSH2 0x1F0 JUMPI PUSH1 0x0 DUP1 SLOAD CALLER PUSH1 0x1 PUSH1 0x1 PUSH1 0xA0 SHL SUB NOT DUP3 AND DUP2 OR DUP4 SSTORE PUSH1 0x40 MLOAD SWAP6 SWAP3 SWAP1 SWAP2 PUSH1 0x1 PUSH1 0x1 PUSH1 0xA0 SHL SUB AND SWAP1 PUSH32 0x8BE0079C531659141344CD1FD0A4F28419497F9722A3DAAFE3B4186F6B6457E0 SWAP1 DUP1 LOG3 PUSH1 0x1 DUP1 SSTORE PUSH1 0x1 PUSH1 0x1 PUSH1 0xA0 SHL SUB AND SWAP3 DUP4 ISZERO PUSH2 0x1AE JUMPI POP PUSH1 0x1 PUSH1 0x1 PUSH1 0xA0 SHL SUB AND SWAP1 DUP2 ISZERO PUSH2 0x169 JUMPI PUSH1 0x1 PUSH1 0x1 PUSH1 0xA0 SHL SUB AND SWAP2 DUP3 ISZERO PUSH2 0x124 JUMPI PUSH1 0x1 DUP1 PUSH1 0xA0 SHL SUB NOT PUSH1 0x2 SLOAD AND OR PUSH1 0x2 SSTORE PUSH1 0x1 DUP1 PUSH1 0xA0 SHL SUB NOT PUSH1 0x3 SLOAD AND OR PUSH1 0x3 SSTORE PUSH1 0x1 DUP1 PUSH1 0xA0 SHL SUB NOT PUSH1 0x4 SLOAD AND OR PUSH1 0x4 SSTORE PUSH1 0x40 MLOAD PUSH2 0x20C7 SWAP1 DUP2 PUSH2 0x236 DUP3 CODECOPY RETURN JUMPDEST PUSH1 0x40 MLOAD PUSH3 0x461BCD PUSH1 0xE5 SHL DUP2 MSTORE PUSH1 0x20 PUSH1 0x4 DUP3 ADD MSTORE PUSH1 0x1D PUSH1 0x24 DUP3 ADD MSTORE PUSH32 0x496E76616C6964205553445420636F6E74726163742061646472657373000000 PUSH1 0x44 DUP3 ADD MSTORE PUSH1 0x64 SWAP1 REVERT JUMPDEST PUSH1 0x40 MLOAD PUSH3 0x461BCD PUSH1 0xE5 SHL DUP2 MSTORE PUSH1 0x20 PUSH1 0x4 DUP3 ADD MSTORE PUSH1 0x1E PUSH1 0x24 DUP3 ADD MSTORE PUSH32 0x496E76616C69642061646D696E20636F6E747261637420616464726573730000 PUSH1 0x44 DUP3 ADD MSTORE PUSH1 0x64 SWAP1 REVERT JUMPDEST PUSH3 0x461BCD PUSH1 0xE5 SHL DUP2 MSTORE PUSH1 0x20 PUSH1 0x4 DUP3 ADD DUP2 SWAP1 MSTORE PUSH1 0x24 DUP3 ADD MSTORE PUSH32 0x496E76616C69642073746F7261676520636F6E74726163742061646472657373 PUSH1 0x44 DUP3 ADD MSTORE PUSH1 0x64 SWAP1 REVERT JUMPDEST PUSH4 0x1E4FBDF7 PUSH1 0xE0 SHL PUSH1 0x0 MSTORE PUSH1 0x0 PUSH1 0x4 MSTORE PUSH1 0x24 PUSH1 0x0 REVERT JUMPDEST PUSH1 0x0 DUP1 REVERT JUMPDEST PUSH4 0x4E487B71 PUSH1 0xE0 SHL PUSH1 0x0 MSTORE PUSH1 0x41 PUSH1 0x4 MSTORE PUSH1 0x24 PUSH1 0x0 REVERT JUMPDEST MLOAD SWAP1 PUSH1 0x1 PUSH1 0x1 PUSH1 0xA0 SHL SUB DUP3 AND DUP3 SUB PUSH2 0x206 JUMPI JUMP INVALID PUSH1 0x80 DUP1 PUSH1 0x40 MSTORE PUSH1 0x4 CALLDATASIZE LT ISZERO PUSH2 0x13 JUMPI PUSH1 0x0 DUP1 REVERT JUMPDEST PUSH1 0x0 SWAP1 DUP2 CALLDATALOAD PUSH1 0xE0 SHR SWAP1 DUP2 PUSH4 0x9115E97 EQ PUSH2 0x1B9B JUMPI POP DUP1 PUSH4 0x11CE0267 EQ PUSH2 0x1B72 JUMPI DUP1 PUSH4 0x16CB6EFF EQ PUSH2 0x1A70 JUMPI DUP1 PUSH4 0x1B63FE67 EQ PUSH2 0x180F JUMPI DUP1 PUSH4 0x2B2A748C EQ PUSH2 0x164D JUMPI DUP1 PUSH4 0x2F48AB7D EQ PUSH2 0x1624 JUMPI DUP1 PUSH4 0x3F4BA83A EQ PUSH2 0x15B6 JUMPI DUP1 PUSH4 0x43355214 EQ PUSH2 0x1583 JUMPI DUP1 PUSH4 0x4B9791E8 EQ PUSH2 0x1213 JUMPI DUP1 PUSH4 0x576338A5 EQ PUSH2 0x118B JUMPI DUP1 PUSH4 0x5C975ABB EQ PUSH2 0x1166 JUMPI DUP1 PUSH4 0x63A812F9 EQ PUSH2 0x10DD JUMPI DUP1 PUSH4 0x715018A6 EQ PUSH2 0x1083 JUMPI DUP1 PUSH4 0x764AC734 EQ PUSH2 0xEEE JUMPI DUP1 PUSH4 0x79F0DC57 EQ PUSH2 0xE35 JUMPI DUP1 PUSH4 0x7F6E8CBF EQ PUSH2 0xDF8 JUMPI DUP1 PUSH4 0x8456CB59 EQ PUSH2 0xD97 JUMPI DUP1 PUSH4 0x867F1A09 EQ PUSH2 0x2B3 JUMPI DUP1 PUSH4 0x89EA28D9 EQ PUSH2 0xD48 JUMPI DUP1 PUSH4 0x8DA5CB5B EQ PUSH2 0xD21 JUMPI DUP1 PUSH4 0x900E41B1 EQ PUSH2 0x542 JUMPI DUP1 PUSH4 0xB0FF6383 EQ PUSH2 0x526 JUMPI DUP1 PUSH4 0xC05C5E94 EQ PUSH2 0x4FD JUMPI DUP1 PUSH4 0xCD83FB9A EQ PUSH2 0x45B JUMPI DUP1 PUSH4 0xD4F38D04 EQ PUSH2 0x43C JUMPI DUP1 PUSH4 0xDFE6B5D6 EQ PUSH2 0x3B4 JUMPI DUP1 PUSH4 0xE0024604 EQ PUSH2 0x311 JUMPI DUP1 PUSH4 0xE67D86F1 EQ PUSH2 0x2F5 JUMPI DUP1 PUSH4 0xEB2931B7 EQ PUSH2 0x2B3 JUMPI DUP1 PUSH4 0xF2FDE38B EQ PUSH2 0x225 JUMPI PUSH4 0xFA9C81A4 EQ PUSH2 0x176 JUMPI PUSH1 0x0 DUP1 REVERT JUMPDEST CALLVALUE PUSH2 0x222 JUMPI PUSH1 0x40 CALLDATASIZE PUSH1 0x3 NOT ADD SLT PUSH2 0x222 JUMPI PUSH1 0x2 SLOAD PUSH1 0x40 MLOAD PUSH4 0x3EA72069 PUSH1 0xE2 SHL DUP2 MSTORE PUSH1 0x4 DUP1 CALLDATALOAD SWAP1 DUP3 ADD MSTORE PUSH1 0x24 DUP1 CALLDATALOAD SWAP1 DUP3 ADD MSTORE SWAP2 SWAP1 DUP2 SWAP1 DUP4 SWAP1 PUSH1 0x44 SWAP1 DUP3 SWAP1 PUSH1 0x1 PUSH1 0x1 PUSH1 0xA0 SHL SUB AND GAS STATICCALL DUP1 ISZERO PUSH2 0x215 JUMPI PUSH2 0x1E5 SWAP3 DUP3 DUP1 SWAP3 PUSH2 0x1EF JUMPI JUMPDEST POP POP PUSH1 0x40 MLOAD SWAP3 DUP4 SWAP3 PUSH1 0x40 DUP5 MSTORE PUSH1 0x40 DUP5 ADD SWAP1 PUSH2 0x1C5B JUMP JUMPDEST SWAP1 PUSH1 0x20 DUP4 ADD MSTORE SUB SWAP1 RETURN JUMPDEST SWAP1 SWAP2 POP PUSH2 0x20E SWAP3 POP RETURNDATASIZE DUP1 SWAP2 DUP4 RETURNDATACOPY PUSH2 0x206 DUP2 DUP4 PUSH2 0x1CF5 JUMP JUMPDEST DUP2 ADD SWAP1 PUSH2 0x1E20 JUMP JUMPDEST CODESIZE DUP1 PUSH2 0x1CF JUMP JUMPDEST POP PUSH1 0x40 MLOAD SWAP1 RETURNDATASIZE SWAP1 DUP3 RETURNDATACOPY RETURNDATASIZE SWAP1 REVERT JUMPDEST DUP1 REVERT JUMPDEST POP CALLVALUE PUSH2 0x222 JUMPI PUSH1 0x20 CALLDATASIZE PUSH1 0x3 NOT ADD SLT PUSH2 0x222 JUMPI PUSH1 0x4 CALLDATALOAD PUSH1 0x1 PUSH1 0x1 PUSH1 0xA0 SHL SUB DUP2 AND SWAP1 DUP2 SWAP1 SUB PUSH2 0x2AF JUMPI PUSH2 0x254 PUSH2 0x2068 JUMP JUMPDEST DUP1 ISZERO PUSH2 0x29B JUMPI DUP2 SLOAD PUSH1 0x1 PUSH1 0x1 PUSH1 0xA0 SHL SUB NOT DUP2 AND DUP3 OR DUP4 SSTORE PUSH1 0x1 PUSH1 0x1 PUSH1 0xA0 SHL SUB AND PUSH32 0x8BE0079C531659141344CD1FD0A4F28419497F9722A3DAAFE3B4186F6B6457E0 DUP4 DUP1 LOG3 DUP1 RETURN JUMPDEST PUSH4 0x1E4FBDF7 PUSH1 0xE0 SHL DUP3 MSTORE PUSH1 0x4 DUP3 SWAP1 MSTORE PUSH1 0x24 DUP3 REVERT JUMPDEST POP DUP1 REVERT JUMPDEST POP CALLVALUE PUSH2 0x222 JUMPI PUSH1 0x20 CALLDATASIZE PUSH1 0x3 NOT ADD SLT PUSH2 0x222 JUMPI PUSH1 0x4 CALLDATALOAD PUSH1 0x1 PUSH1 0x1 PUSH1 0xA0 SHL SUB DUP2 AND SWAP1 DUP2 SWAP1 SUB PUSH2 0x2AF JUMPI PUSH1 0x40 DUP3 PUSH1 0xFF SWAP3 PUSH1 0x20 SWAP5 MSTORE PUSH1 0x5 DUP5 MSTORE KECCAK256 SLOAD AND PUSH1 0x40 MLOAD SWAP1 ISZERO ISZERO DUP2 MSTORE RETURN JUMPDEST POP CALLVALUE PUSH2 0x222 JUMPI DUP1 PUSH1 0x3 NOT CALLDATASIZE ADD SLT PUSH2 0x222 JUMPI PUSH1 0x20 PUSH1 0x40 MLOAD PUSH1 0xC8 DUP2 MSTORE RETURN JUMPDEST POP CALLVALUE PUSH2 0x222 JUMPI DUP1 PUSH1 0x3 NOT CALLDATASIZE ADD SLT PUSH2 0x222 JUMPI PUSH1 0x3 SLOAD PUSH1 0x40 MLOAD PUSH4 0xC5F956AF PUSH1 0xE0 SHL DUP2 MSTORE SWAP2 SWAP1 PUSH1 0x20 SWAP1 DUP4 SWAP1 PUSH1 0x4 SWAP1 DUP3 SWAP1 PUSH1 0x1 PUSH1 0x1 PUSH1 0xA0 SHL SUB AND GAS STATICCALL SWAP1 DUP2 ISZERO PUSH2 0x3A8 JUMPI DUP1 SWAP2 PUSH2 0x36B JUMPI JUMPDEST PUSH1 0x40 MLOAD PUSH1 0x1 PUSH1 0x1 PUSH1 0xA0 SHL SUB DUP4 AND DUP2 MSTORE PUSH1 0x20 SWAP1 RETURN JUMPDEST SWAP1 POP PUSH1 0x20 DUP3 RETURNDATASIZE PUSH1 0x20 GT PUSH2 0x3A0 JUMPI JUMPDEST DUP2 PUSH2 0x386 PUSH1 0x20 SWAP4 DUP4 PUSH2 0x1CF5 JUMP JUMPDEST DUP2 ADD SUB SLT PUSH2 0x222 JUMPI POP PUSH2 0x39A PUSH1 0x20 SWAP2 PUSH2 0x1D4B JUMP JUMPDEST CODESIZE PUSH2 0x357 JUMP JUMPDEST RETURNDATASIZE SWAP2 POP PUSH2 0x379 JUMP JUMPDEST PUSH1 0x40 MLOAD SWAP1 RETURNDATASIZE SWAP1 DUP3 RETURNDATACOPY RETURNDATASIZE SWAP1 REVERT JUMPDEST POP CALLVALUE PUSH2 0x222 JUMPI DUP1 PUSH1 0x3 NOT CALLDATASIZE ADD SLT PUSH2 0x222 JUMPI PUSH1 0x2 SLOAD PUSH1 0x40 MLOAD PUSH4 0x217C682D PUSH1 0xE0 SHL DUP2 MSTORE SWAP2 SWAP1 PUSH1 0x20 SWAP1 DUP4 SWAP1 PUSH1 0x4 SWAP1 DUP3 SWAP1 PUSH1 0x1 PUSH1 0x1 PUSH1 0xA0 SHL SUB AND GAS STATICCALL SWAP1 DUP2 ISZERO PUSH2 0x3A8 JUMPI SWAP1 PUSH2 0x404 JUMPI JUMPDEST PUSH1 0x20 SWAP1 PUSH1 0x40 MLOAD SWAP1 DUP2 MSTORE RETURN JUMPDEST POP PUSH1 0x20 DUP2 RETURNDATASIZE PUSH1 0x20 GT PUSH2 0x434 JUMPI JUMPDEST DUP2 PUSH2 0x41E PUSH1 0x20 SWAP4 DUP4 PUSH2 0x1CF5 JUMP JUMPDEST DUP2 ADD SUB SLT PUSH2 0x42F JUMPI PUSH1 0x20 SWAP1 MLOAD PUSH2 0x3F9 JUMP JUMPDEST PUSH1 0x0 DUP1 REVERT JUMPDEST RETURNDATASIZE SWAP2 POP PUSH2 0x411 JUMP JUMPDEST POP CALLVALUE PUSH2 0x222 JUMPI DUP1 PUSH1 0x3 NOT CALLDATASIZE ADD SLT PUSH2 0x222 JUMPI PUSH1 0x20 PUSH1 0x40 MLOAD PUSH4 0x2FAF080 DUP2 MSTORE RETURN JUMPDEST POP CALLVALUE PUSH2 0x222 JUMPI PUSH1 0x20 CALLDATASIZE PUSH1 0x3 NOT ADD SLT PUSH2 0x222 JUMPI PUSH2 0x475 PUSH2 0x1F13 JUMP JUMPDEST POP PUSH1 0x2 SLOAD PUSH1 0x40 MLOAD PUSH4 0x95EA5717 PUSH1 0xE0 SHL DUP2 MSTORE PUSH1 0x4 DUP1 CALLDATALOAD SWAP1 DUP3 ADD MSTORE SWAP1 DUP3 SWAP1 DUP3 SWAP1 PUSH1 0x24 SWAP1 DUP3 SWAP1 PUSH1 0x1 PUSH1 0x1 PUSH1 0xA0 SHL SUB AND GAS STATICCALL SWAP1 DUP2 ISZERO PUSH2 0x4F2 JUMPI DUP3 PUSH2 0x4CB SWAP4 SWAP3 PUSH2 0x4CF JUMPI JUMPDEST POP POP PUSH1 0x40 MLOAD SWAP2 DUP3 SWAP2 PUSH1 0x20 DUP4 MSTORE PUSH1 0x20 DUP4 ADD SWAP1 PUSH2 0x1BFF JUMP JUMPDEST SUB SWAP1 RETURN JUMPDEST PUSH2 0x4EB SWAP3 POP RETURNDATASIZE DUP1 SWAP2 DUP4 RETURNDATACOPY PUSH2 0x4E3 DUP2 DUP4 PUSH2 0x1CF5 JUMP JUMPDEST DUP2 ADD SWAP1 PUSH2 0x1F9A JUMP JUMPDEST CODESIZE DUP1 PUSH2 0x4B5 JUMP JUMPDEST PUSH1 0x40 MLOAD RETURNDATASIZE DUP5 DUP3 RETURNDATACOPY RETURNDATASIZE SWAP1 REVERT JUMPDEST POP CALLVALUE PUSH2 0x222 JUMPI DUP1 PUSH1 0x3 NOT CALLDATASIZE ADD SLT PUSH2 0x222 JUMPI PUSH1 0x3 SLOAD PUSH1 0x40 MLOAD PUSH1 0x1 PUSH1 0x1 PUSH1 0xA0 SHL SUB SWAP1 SWAP2 AND DUP2 MSTORE PUSH1 0x20 SWAP1 RETURN JUMPDEST POP CALLVALUE PUSH2 0x222 JUMPI DUP1 PUSH1 0x3 NOT CALLDATASIZE ADD SLT PUSH2 0x222 JUMPI PUSH1 0x20 PUSH1 0x40 MLOAD PUSH1 0x3C DUP2 MSTORE RETURN JUMPDEST POP CALLVALUE PUSH2 0x222 JUMPI PUSH1 0x60 CALLDATASIZE PUSH1 0x3 NOT ADD SLT PUSH2 0x222 JUMPI PUSH1 0x24 CALLDATALOAD SWAP1 PUSH1 0x4 CALLDATALOAD PUSH8 0xFFFFFFFFFFFFFFFF DUP4 GT PUSH2 0x2AF JUMPI CALLDATASIZE PUSH1 0x23 DUP5 ADD SLT ISZERO PUSH2 0x2AF JUMPI DUP3 PUSH1 0x4 ADD CALLDATALOAD PUSH2 0x583 DUP2 PUSH2 0x1D17 JUMP JUMPDEST SWAP4 PUSH2 0x591 PUSH1 0x40 MLOAD SWAP6 DUP7 PUSH2 0x1CF5 JUMP JUMPDEST DUP2 DUP6 MSTORE CALLDATASIZE PUSH1 0x24 DUP4 DUP4 ADD ADD GT PUSH2 0xA83 JUMPI DUP2 DUP5 SWAP3 PUSH1 0x24 PUSH1 0x20 SWAP4 ADD DUP4 DUP9 ADD CALLDATACOPY DUP6 ADD ADD MSTORE PUSH2 0x5B9 PUSH2 0x1CB4 JUMP JUMPDEST SWAP3 PUSH2 0x5C2 PUSH2 0x2026 JUMP JUMPDEST PUSH2 0x5CA PUSH2 0x2046 JUMP JUMPDEST CALLER DUP4 MSTORE PUSH1 0x8 PUSH1 0x20 MSTORE PUSH1 0x40 DUP4 KECCAK256 SLOAD PUSH1 0x3C DUP2 ADD DUP1 SWAP2 GT PUSH2 0xD0D JUMPI TIMESTAMP LT PUSH2 0xCC8 JUMPI PUSH2 0x2710 DUP3 LT ISZERO DUP1 PUSH2 0xCBA JUMPI JUMPDEST PUSH2 0x5FD SWAP1 PUSH2 0x1FC3 JUMP JUMPDEST DUP1 MLOAD DUP1 ISZERO ISZERO SWAP1 DUP2 PUSH2 0xCAE JUMPI JUMPDEST POP ISZERO PUSH2 0xC69 JUMPI PUSH1 0x3 SLOAD PUSH1 0x40 MLOAD PUSH4 0x75F3FED5 PUSH1 0xE1 SHL DUP2 MSTORE PUSH1 0x1 PUSH1 0x1 PUSH1 0xA0 SHL SUB SWAP1 SWAP2 AND SWAP5 PUSH1 0x20 DUP3 PUSH1 0x4 DUP2 DUP10 GAS STATICCALL SWAP2 DUP3 ISZERO PUSH2 0xA87 JUMPI DUP6 SWAP3 PUSH2 0xC32 JUMPI JUMPDEST POP PUSH1 0x20 PUSH1 0x4 SWAP7 PUSH1 0x40 MLOAD SWAP8 DUP9 DUP1 SWAP3 PUSH4 0xC5F956AF PUSH1 0xE0 SHL DUP3 MSTORE GAS STATICCALL SWAP6 DUP7 ISZERO PUSH2 0xA87 JUMPI DUP6 SWAP7 PUSH2 0xBF6 JUMPI JUMPDEST POP DUP2 ISZERO ISZERO DUP1 PUSH2 0xBE4 JUMPI JUMPDEST PUSH2 0x8D2 JUMPI JUMPDEST PUSH1 0x2 SLOAD PUSH1 0x40 MLOAD PUSH4 0x29487FE3 PUSH1 0xE1 SHL DUP2 MSTORE SWAP6 SWAP7 POP SWAP4 SWAP5 SWAP4 PUSH1 0x20 SWAP1 DUP6 SWAP1 PUSH1 0x4 SWAP1 DUP3 SWAP1 DUP11 SWAP1 PUSH1 0x1 PUSH1 0x1 PUSH1 0xA0 SHL SUB AND GAS CALL SWAP4 DUP5 ISZERO PUSH2 0x8C7 JUMPI DUP7 SWAP5 PUSH2 0x893 JUMPI JUMPDEST POP DUP6 PUSH1 0x1 DUP1 PUSH1 0xA0 SHL SUB PUSH1 0x2 SLOAD AND SWAP2 PUSH1 0x40 MLOAD SWAP1 PUSH2 0x6CE DUP3 PUSH2 0x1CC3 JUMP JUMPDEST DUP7 DUP3 MSTORE CALLER PUSH1 0x20 DUP4 ADD MSTORE DUP8 PUSH1 0x40 DUP4 ADD MSTORE DUP6 PUSH1 0x60 DUP4 ADD MSTORE ISZERO ISZERO SWAP3 DUP4 PUSH1 0x80 DUP4 ADD MSTORE TIMESTAMP PUSH1 0xA0 DUP4 ADD MSTORE TIMESTAMP PUSH1 0xC0 DUP4 ADD MSTORE DUP1 EXTCODESIZE ISZERO PUSH2 0x88F JUMPI PUSH1 0x40 MLOAD PUSH4 0x14303507 PUSH1 0xE2 SHL DUP2 MSTORE SWAP2 DUP4 SWAP2 DUP4 SWAP2 DUP3 SWAP1 DUP5 SWAP1 DUP3 SWAP1 PUSH2 0x725 SWAP1 DUP14 PUSH1 0x4 DUP5 ADD PUSH2 0x200F JUMP JUMPDEST SUB SWAP3 GAS CALL DUP1 ISZERO PUSH2 0x4F2 JUMPI PUSH2 0x876 JUMPI JUMPDEST POP POP CALLER DUP7 MSTORE PUSH1 0x6 PUSH1 0x20 MSTORE PUSH1 0x40 DUP7 KECCAK256 DUP1 SLOAD SWAP1 PUSH9 0x10000000000000000 DUP3 LT ISZERO PUSH2 0x862 JUMPI PUSH1 0x1 DUP3 ADD DUP1 DUP3 SSTORE DUP3 LT ISZERO PUSH2 0x84E JUMPI PUSH32 0xD93F4AEA01982A4687B0D757A8314F57B6A77742CF98D21BC9BDB24EF543A4DC SWAP5 SWAP4 SWAP3 SWAP2 DUP7 SWAP2 DUP10 MSTORE PUSH1 0x20 DUP10 KECCAK256 ADD SSTORE DUP5 DUP8 MSTORE PUSH1 0x7 PUSH1 0x20 MSTORE PUSH1 0x40 DUP8 KECCAK256 CALLER PUSH1 0x1 PUSH1 0x1 PUSH1 0x60 SHL SUB PUSH1 0xA0 SHL DUP3 SLOAD AND OR SWAP1 SSTORE CALLER DUP8 MSTORE PUSH1 0x8 PUSH1 0x20 MSTORE TIMESTAMP PUSH1 0x40 DUP9 KECCAK256 SSTORE CALLER DUP8 MSTORE PUSH1 0x5 PUSH1 0x20 MSTORE PUSH1 0xFF PUSH1 0x40 DUP9 KECCAK256 SLOAD AND ISZERO PUSH2 0x80D JUMPI JUMPDEST PUSH2 0x7EA PUSH1 0x40 MLOAD SWAP4 PUSH1 0xA0 DUP6 MSTORE PUSH1 0xA0 DUP6 ADD SWAP1 PUSH2 0x1BDA JUMP JUMPDEST SWAP6 PUSH1 0x20 DUP5 ADD MSTORE PUSH1 0x40 DUP4 ADD MSTORE PUSH1 0x60 DUP3 ADD MSTORE TIMESTAMP PUSH1 0x80 DUP3 ADD MSTORE DUP1 CALLER SWAP5 SUB SWAP1 LOG3 PUSH1 0x1 DUP1 SSTORE DUP1 RETURN JUMPDEST CALLER DUP1 DUP9 MSTORE PUSH1 0x5 PUSH1 0x20 MSTORE PUSH1 0x40 DUP9 KECCAK256 DUP1 SLOAD PUSH1 0xFF NOT AND PUSH1 0x1 OR SWAP1 SSTORE PUSH32 0x8FF9310ABEDE1DE3C5D3FDBB7CF09C40BC8258CA75C0F949AD92F964DEAC98B3 DUP9 DUP1 LOG2 PUSH2 0x7D5 JUMP JUMPDEST PUSH4 0x4E487B71 PUSH1 0xE0 SHL DUP9 MSTORE PUSH1 0x32 PUSH1 0x4 MSTORE PUSH1 0x24 DUP9 REVERT JUMPDEST PUSH4 0x4E487B71 PUSH1 0xE0 SHL DUP9 MSTORE PUSH1 0x41 PUSH1 0x4 MSTORE PUSH1 0x24 DUP9 REVERT JUMPDEST DUP2 PUSH2 0x880 SWAP2 PUSH2 0x1CF5 JUMP JUMPDEST PUSH2 0x88B JUMPI DUP6 CODESIZE PUSH2 0x734 JUMP JUMPDEST DUP6 DUP1 REVERT JUMPDEST DUP3 DUP1 REVERT JUMPDEST SWAP1 SWAP4 POP PUSH1 0x20 DUP2 RETURNDATASIZE PUSH1 0x20 GT PUSH2 0x8BF JUMPI JUMPDEST DUP2 PUSH2 0x8AF PUSH1 0x20 SWAP4 DUP4 PUSH2 0x1CF5 JUMP JUMPDEST DUP2 ADD SUB SLT PUSH2 0x42F JUMPI MLOAD SWAP3 CODESIZE PUSH2 0x6B3 JUMP JUMPDEST RETURNDATASIZE SWAP2 POP PUSH2 0x8A2 JUMP JUMPDEST PUSH1 0x40 MLOAD RETURNDATASIZE DUP9 DUP3 RETURNDATACOPY RETURNDATASIZE SWAP1 REVERT JUMPDEST PUSH1 0x4 DUP1 SLOAD PUSH1 0x40 MLOAD PUSH4 0x70A08231 PUSH1 0xE0 SHL DUP2 MSTORE CALLER SWAP3 DUP2 ADD SWAP3 SWAP1 SWAP3 MSTORE PUSH1 0x1 PUSH1 0x1 PUSH1 0xA0 SHL SUB AND SWAP7 SWAP1 PUSH1 0x20 DUP2 PUSH1 0x24 DUP2 DUP12 GAS STATICCALL SWAP1 DUP2 ISZERO PUSH2 0xB4D JUMPI SWAP1 DUP5 SWAP2 DUP9 SWAP2 PUSH2 0xBAF JUMPI JUMPDEST POP LT PUSH2 0xB58 JUMPI PUSH1 0x40 MLOAD PUSH4 0x6EB1769F PUSH1 0xE1 SHL DUP2 MSTORE CALLER PUSH1 0x4 DUP3 ADD MSTORE ADDRESS PUSH1 0x24 DUP3 ADD MSTORE PUSH1 0x20 DUP2 PUSH1 0x44 DUP2 DUP12 GAS STATICCALL SWAP1 DUP2 ISZERO PUSH2 0xB4D JUMPI SWAP1 DUP5 SWAP2 DUP9 SWAP2 PUSH2 0xB18 JUMPI JUMPDEST POP LT PUSH2 0xAD3 JUMPI PUSH1 0x40 MLOAD PUSH4 0x23B872DD PUSH1 0xE0 SHL PUSH1 0x20 DUP3 DUP2 ADD SWAP2 DUP3 MSTORE CALLER PUSH1 0x24 DUP5 ADD MSTORE PUSH1 0x1 PUSH1 0x1 PUSH1 0xA0 SHL SUB SWAP1 SWAP4 AND PUSH1 0x44 DUP4 ADD MSTORE PUSH1 0x64 DUP1 DUP4 ADD DUP7 SWAP1 MSTORE DUP3 MSTORE DUP8 SWAP2 PUSH2 0x98F PUSH1 0x84 DUP3 PUSH2 0x1CF5 JUMP JUMPDEST MLOAD SWAP1 DUP3 DUP11 GAS CALL ISZERO PUSH2 0xAC8 JUMPI DUP5 MLOAD RETURNDATASIZE PUSH2 0xABF JUMPI POP DUP6 EXTCODESIZE ISZERO JUMPDEST PUSH2 0xAAB JUMPI PUSH1 0x2 SLOAD SWAP5 SWAP6 POP SWAP3 SWAP4 DUP6 SWAP4 SWAP1 PUSH1 0x1 PUSH1 0x1 PUSH1 0xA0 SHL SUB AND DUP1 EXTCODESIZE ISZERO PUSH2 0xA92 JUMPI DUP5 DUP1 SWAP2 PUSH1 0x24 PUSH1 0x40 MLOAD DUP1 SWAP5 DUP2 SWAP4 PUSH4 0x69009A13 PUSH1 0xE0 SHL DUP4 MSTORE DUP9 PUSH1 0x4 DUP5 ADD MSTORE GAS CALL SWAP1 DUP2 ISZERO PUSH2 0xA87 JUMPI DUP6 SWAP2 PUSH2 0xA96 JUMPI JUMPDEST POP POP PUSH1 0x2 SLOAD PUSH1 0x1 PUSH1 0x1 PUSH1 0xA0 SHL SUB AND DUP1 EXTCODESIZE ISZERO PUSH2 0xA92 JUMPI DUP5 DUP1 SWAP2 PUSH1 0x24 PUSH1 0x40 MLOAD DUP1 SWAP5 DUP2 SWAP4 PUSH4 0x1190DEFD PUSH1 0xE0 SHL DUP4 MSTORE DUP9 PUSH1 0x4 DUP5 ADD MSTORE GAS CALL SWAP1 DUP2 ISZERO PUSH2 0xA87 JUMPI DUP6 SWAP2 PUSH2 0xA6E JUMPI JUMPDEST POP POP PUSH1 0x40 MLOAD DUP3 DUP2 MSTORE TIMESTAMP PUSH1 0x20 DUP3 ADD MSTORE PUSH32 0xAC5B35DB873B0C878683CBEAC0FC736ACD48EA6480742BAFD3BA483DD7158824 PUSH1 0x40 CALLER SWAP3 LOG2 SWAP4 SWAP3 SWAP4 PUSH2 0x678 JUMP JUMPDEST DUP2 PUSH2 0xA78 SWAP2 PUSH2 0x1CF5 JUMP JUMPDEST PUSH2 0xA83 JUMPI DUP4 CODESIZE PUSH2 0xA32 JUMP JUMPDEST DUP4 DUP1 REVERT JUMPDEST PUSH1 0x40 MLOAD RETURNDATASIZE DUP8 DUP3 RETURNDATACOPY RETURNDATASIZE SWAP1 REVERT JUMPDEST DUP5 DUP1 REVERT JUMPDEST DUP2 PUSH2 0xAA0 SWAP2 PUSH2 0x1CF5 JUMP JUMPDEST PUSH2 0xA83 JUMPI DUP4 CODESIZE PUSH2 0x9F1 JUMP JUMPDEST PUSH4 0x5274AFE7 PUSH1 0xE0 SHL DUP6 MSTORE PUSH1 0x4 DUP7 SWAP1 MSTORE PUSH1 0x24 DUP6 REVERT JUMPDEST PUSH1 0x1 EQ ISZERO PUSH2 0x9A6 JUMP JUMPDEST PUSH1 0x40 MLOAD RETURNDATASIZE DUP7 DUP3 RETURNDATACOPY RETURNDATASIZE SWAP1 REVERT JUMPDEST PUSH1 0x40 MLOAD PUSH3 0x461BCD PUSH1 0xE5 SHL DUP2 MSTORE PUSH1 0x20 PUSH1 0x4 DUP3 ADD MSTORE PUSH1 0x18 PUSH1 0x24 DUP3 ADD MSTORE PUSH32 0x486F7374696E6720666565206E6F7420617070726F7665640000000000000000 PUSH1 0x44 DUP3 ADD MSTORE PUSH1 0x64 SWAP1 REVERT JUMPDEST SWAP2 POP POP PUSH1 0x20 DUP2 RETURNDATASIZE PUSH1 0x20 GT PUSH2 0xB45 JUMPI JUMPDEST DUP2 PUSH2 0xB34 PUSH1 0x20 SWAP4 DUP4 PUSH2 0x1CF5 JUMP JUMPDEST DUP2 ADD SUB SLT PUSH2 0x42F JUMPI DUP4 SWAP1 MLOAD CODESIZE PUSH2 0x949 JUMP JUMPDEST RETURNDATASIZE SWAP2 POP PUSH2 0xB27 JUMP JUMPDEST PUSH1 0x40 MLOAD RETURNDATASIZE DUP10 DUP3 RETURNDATACOPY RETURNDATASIZE SWAP1 REVERT JUMPDEST PUSH1 0x40 MLOAD PUSH3 0x461BCD PUSH1 0xE5 SHL DUP2 MSTORE PUSH1 0x20 PUSH1 0x4 DUP3 ADD MSTORE PUSH1 0x29 PUSH1 0x24 DUP3 ADD MSTORE PUSH32 0x496E73756666696369656E7420555344542062616C616E636520666F7220686F PUSH1 0x44 DUP3 ADD MSTORE PUSH9 0x7374696E6720666565 PUSH1 0xB8 SHL PUSH1 0x64 DUP3 ADD MSTORE PUSH1 0x84 SWAP1 REVERT JUMPDEST SWAP2 POP POP PUSH1 0x20 DUP2 RETURNDATASIZE PUSH1 0x20 GT PUSH2 0xBDC JUMPI JUMPDEST DUP2 PUSH2 0xBCB PUSH1 0x20 SWAP4 DUP4 PUSH2 0x1CF5 JUMP JUMPDEST DUP2 ADD SUB SLT PUSH2 0x42F JUMPI DUP4 SWAP1 MLOAD CODESIZE PUSH2 0x910 JUMP JUMPDEST RETURNDATASIZE SWAP2 POP PUSH2 0xBBE JUMP JUMPDEST POP PUSH1 0x1 PUSH1 0x1 PUSH1 0xA0 SHL SUB DUP7 AND ISZERO ISZERO PUSH2 0x673 JUMP JUMPDEST SWAP1 SWAP6 POP PUSH1 0x20 DUP2 RETURNDATASIZE PUSH1 0x20 GT PUSH2 0xC2A JUMPI JUMPDEST DUP2 PUSH2 0xC12 PUSH1 0x20 SWAP4 DUP4 PUSH2 0x1CF5 JUMP JUMPDEST DUP2 ADD SUB SLT PUSH2 0xA92 JUMPI PUSH2 0xC23 SWAP1 PUSH2 0x1D4B JUMP JUMPDEST SWAP5 CODESIZE PUSH2 0x669 JUMP JUMPDEST RETURNDATASIZE SWAP2 POP PUSH2 0xC05 JUMP JUMPDEST SWAP6 SWAP2 POP PUSH1 0x20 DUP7 RETURNDATASIZE PUSH1 0x20 GT PUSH2 0xC61 JUMPI JUMPDEST DUP2 PUSH2 0xC4E PUSH1 0x20 SWAP4 DUP4 PUSH2 0x1CF5 JUMP JUMPDEST DUP2 ADD SUB SLT PUSH2 0x42F JUMPI SWAP5 MLOAD SWAP1 SWAP5 PUSH1 0x20 PUSH2 0x642 JUMP JUMPDEST RETURNDATASIZE SWAP2 POP PUSH2 0xC41 JUMP JUMPDEST PUSH1 0x40 MLOAD PUSH3 0x461BCD PUSH1 0xE5 SHL DUP2 MSTORE PUSH1 0x20 PUSH1 0x4 DUP3 ADD MSTORE PUSH1 0x1A PUSH1 0x24 DUP3 ADD MSTORE PUSH32 0x496E76616C6964204D6F6E676F446174614944206C656E677468000000000000 PUSH1 0x44 DUP3 ADD MSTORE PUSH1 0x64 SWAP1 REVERT JUMPDEST PUSH1 0xC8 SWAP2 POP GT ISZERO CODESIZE PUSH2 0x609 JUMP JUMPDEST POP PUSH4 0x2FAF080 DUP3 GT ISZERO PUSH2 0x5F4 JUMP JUMPDEST PUSH1 0x40 MLOAD PUSH3 0x461BCD PUSH1 0xE5 SHL DUP2 MSTORE PUSH1 0x20 PUSH1 0x4 DUP3 ADD MSTORE PUSH1 0x1C PUSH1 0x24 DUP3 ADD MSTORE PUSH32 0x526567697374726174696F6E20636F6F6C646F776E2061637469766500000000 PUSH1 0x44 DUP3 ADD MSTORE PUSH1 0x64 SWAP1 REVERT JUMPDEST PUSH4 0x4E487B71 PUSH1 0xE0 SHL DUP5 MSTORE PUSH1 0x11 PUSH1 0x4 MSTORE PUSH1 0x24 DUP5 REVERT JUMPDEST POP CALLVALUE PUSH2 0x222 JUMPI DUP1 PUSH1 0x3 NOT CALLDATASIZE ADD SLT PUSH2 0x222 JUMPI SLOAD PUSH1 0x40 MLOAD PUSH1 0x1 PUSH1 0x1 PUSH1 0xA0 SHL SUB SWAP1 SWAP2 AND DUP2 MSTORE PUSH1 0x20 SWAP1 RETURN JUMPDEST POP CALLVALUE PUSH2 0x222 JUMPI DUP1 PUSH1 0x3 NOT CALLDATASIZE ADD SLT PUSH2 0x222 JUMPI PUSH1 0x3 SLOAD PUSH1 0x40 MLOAD PUSH4 0x75F3FED5 PUSH1 0xE1 SHL DUP2 MSTORE SWAP2 SWAP1 PUSH1 0x20 SWAP1 DUP4 SWAP1 PUSH1 0x4 SWAP1 DUP3 SWAP1 PUSH1 0x1 PUSH1 0x1 PUSH1 0xA0 SHL SUB AND GAS STATICCALL SWAP1 DUP2 ISZERO PUSH2 0x3A8 JUMPI SWAP1 PUSH2 0x404 JUMPI PUSH1 0x20 SWAP1 PUSH1 0x40 MLOAD SWAP1 DUP2 MSTORE RETURN JUMPDEST POP CALLVALUE PUSH2 0x222 JUMPI DUP1 PUSH1 0x3 NOT CALLDATASIZE ADD SLT PUSH2 0x222 JUMPI PUSH2 0xDB0 PUSH2 0x2068 JUMP JUMPDEST PUSH2 0xDB8 PUSH2 0x2026 JUMP JUMPDEST DUP1 SLOAD PUSH1 0xFF PUSH1 0xA0 SHL NOT AND PUSH1 0x1 PUSH1 0xA0 SHL OR DUP2 SSTORE PUSH1 0x40 MLOAD CALLER DUP2 MSTORE PUSH32 0x62E78CEA01BEE320CD4E420270B5EA74000D11B0C9F74754EBDBFC544B05A258 SWAP1 PUSH1 0x20 SWAP1 LOG1 DUP1 RETURN JUMPDEST POP CALLVALUE PUSH2 0x222 JUMPI PUSH1 0x20 CALLDATASIZE PUSH1 0x3 NOT ADD SLT PUSH2 0x222 JUMPI PUSH1 0x4 CALLDATALOAD PUSH1 0x1 PUSH1 0x1 PUSH1 0xA0 SHL SUB DUP2 AND SWAP1 DUP2 SWAP1 SUB PUSH2 0x2AF JUMPI DUP2 PUSH1 0x40 SWAP2 PUSH1 0x20 SWAP4 MSTORE PUSH1 0x8 DUP4 MSTORE KECCAK256 SLOAD PUSH1 0x40 MLOAD SWAP1 DUP2 MSTORE RETURN JUMPDEST POP CALLVALUE PUSH2 0x222 JUMPI PUSH1 0x20 CALLDATASIZE PUSH1 0x3 NOT ADD SLT PUSH2 0x222 JUMPI PUSH1 0x4 CALLDATALOAD PUSH1 0x1 PUSH1 0x1 PUSH1 0xA0 SHL SUB DUP2 AND SWAP1 DUP2 SWAP1 SUB PUSH2 0x2AF JUMPI DUP2 MSTORE PUSH1 0x6 PUSH1 0x20 MSTORE PUSH1 0x40 DUP2 KECCAK256 PUSH1 0x40 MLOAD SWAP1 DUP2 PUSH1 0x20 DUP3 SLOAD SWAP2 DUP3 DUP2 MSTORE ADD SWAP1 DUP2 SWAP3 DUP6 MSTORE PUSH1 0x20 DUP6 KECCAK256 SWAP1 DUP6 JUMPDEST DUP2 DUP2 LT PUSH2 0xED8 JUMPI POP POP POP DUP3 PUSH2 0xE97 SWAP2 SUB DUP4 PUSH2 0x1CF5 JUMP JUMPDEST PUSH1 0x40 MLOAD SWAP3 DUP4 SWAP3 PUSH1 0x20 DUP5 ADD SWAP1 PUSH1 0x20 DUP6 MSTORE MLOAD DUP1 SWAP2 MSTORE PUSH1 0x40 DUP5 ADD SWAP3 SWAP2 JUMPDEST DUP2 DUP2 LT PUSH2 0xEBF JUMPI POP POP POP SUB SWAP1 RETURN JUMPDEST DUP3 MLOAD DUP5 MSTORE DUP6 SWAP5 POP PUSH1 0x20 SWAP4 DUP5 ADD SWAP4 SWAP1 SWAP3 ADD SWAP2 PUSH1 0x1 ADD PUSH2 0xEB1 JUMP JUMPDEST DUP3 SLOAD DUP5 MSTORE PUSH1 0x20 SWAP1 SWAP4 ADD SWAP3 PUSH1 0x1 SWAP3 DUP4 ADD SWAP3 ADD PUSH2 0xE81 JUMP JUMPDEST POP CALLVALUE PUSH2 0x222 JUMPI PUSH1 0x20 CALLDATASIZE PUSH1 0x3 NOT ADD SLT PUSH2 0x222 JUMPI PUSH1 0x4 CALLDATALOAD PUSH1 0x1 PUSH1 0x1 PUSH1 0xA0 SHL SUB DUP2 AND SWAP1 DUP2 SWAP1 SUB PUSH2 0x2AF JUMPI DUP2 DUP2 DUP4 MSTORE PUSH1 0x6 PUSH1 0x20 MSTORE PUSH1 0x40 DUP4 KECCAK256 SLOAD PUSH1 0x1 DUP1 PUSH1 0xA0 SHL SUB PUSH1 0x2 SLOAD AND SWAP1 PUSH1 0x40 MLOAD SWAP4 PUSH4 0x6D65573F PUSH1 0xE0 SHL DUP6 MSTORE DUP1 PUSH1 0x4 DUP7 ADD MSTORE PUSH1 0x20 DUP6 PUSH1 0x24 DUP2 DUP7 GAS STATICCALL SWAP5 DUP6 ISZERO PUSH2 0x8C7 JUMPI DUP7 SWAP6 PUSH2 0x104F JUMPI JUMPDEST POP DUP6 MSTORE PUSH1 0x6 PUSH1 0x20 MSTORE PUSH1 0x40 DUP6 KECCAK256 SWAP1 PUSH1 0x40 MLOAD DUP1 DUP4 PUSH1 0x20 DUP3 SWAP6 SLOAD SWAP4 DUP5 DUP2 MSTORE ADD SWAP1 DUP10 MSTORE PUSH1 0x20 DUP10 KECCAK256 SWAP3 DUP10 JUMPDEST DUP2 DUP2 LT PUSH2 0x1036 JUMPI POP POP PUSH2 0xF95 SWAP3 POP SUB DUP4 PUSH2 0x1CF5 JUMP JUMPDEST DUP6 JUMPDEST DUP3 MLOAD DUP2 LT ISZERO PUSH2 0x101F JUMPI PUSH2 0xFAA DUP2 DUP5 PUSH2 0x1EC4 JUMP JUMPDEST MLOAD PUSH1 0x40 MLOAD SWAP1 PUSH4 0x95EA5717 PUSH1 0xE0 SHL DUP3 MSTORE PUSH1 0x4 DUP3 ADD MSTORE DUP8 DUP2 PUSH1 0x24 DUP2 DUP9 GAS STATICCALL DUP1 ISZERO PUSH2 0x1014 JUMPI PUSH1 0x80 SWAP2 DUP10 SWAP2 PUSH2 0xFFA JUMPI JUMPDEST POP ADD MLOAD PUSH2 0xFE6 JUMPI JUMPDEST PUSH1 0x1 ADD PUSH2 0xF97 JUMP JUMPDEST SWAP4 PUSH2 0xFF2 PUSH1 0x1 SWAP2 PUSH2 0x1EEE JUMP JUMPDEST SWAP5 SWAP1 POP PUSH2 0xFDE JUMP JUMPDEST PUSH2 0x100E SWAP2 POP RETURNDATASIZE DUP1 DUP12 DUP4 RETURNDATACOPY PUSH2 0x4E3 DUP2 DUP4 PUSH2 0x1CF5 JUMP JUMPDEST CODESIZE PUSH2 0xFD6 JUMP JUMPDEST PUSH1 0x40 MLOAD RETURNDATASIZE DUP11 DUP3 RETURNDATACOPY RETURNDATASIZE SWAP1 REVERT JUMPDEST PUSH1 0x60 DUP3 DUP8 DUP8 PUSH1 0x40 MLOAD SWAP3 DUP4 MSTORE PUSH1 0x20 DUP4 ADD MSTORE PUSH1 0x40 DUP3 ADD MSTORE RETURN JUMPDEST DUP5 SLOAD DUP4 MSTORE PUSH1 0x1 SWAP5 DUP6 ADD SWAP5 DUP8 SWAP5 POP PUSH1 0x20 SWAP1 SWAP4 ADD SWAP3 ADD PUSH2 0xF80 JUMP JUMPDEST SWAP1 SWAP5 POP PUSH1 0x20 DUP2 RETURNDATASIZE PUSH1 0x20 GT PUSH2 0x107B JUMPI JUMPDEST DUP2 PUSH2 0x106B PUSH1 0x20 SWAP4 DUP4 PUSH2 0x1CF5 JUMP JUMPDEST DUP2 ADD SUB SLT PUSH2 0x42F JUMPI MLOAD SWAP4 CODESIZE PUSH2 0xF5A JUMP JUMPDEST RETURNDATASIZE SWAP2 POP PUSH2 0x105E JUMP JUMPDEST POP CALLVALUE PUSH2 0x222 JUMPI DUP1 PUSH1 0x3 NOT CALLDATASIZE ADD SLT PUSH2 0x222 JUMPI PUSH2 0x109C PUSH2 0x2068 JUMP JUMPDEST DUP1 SLOAD PUSH1 0x1 PUSH1 0x1 PUSH1 0xA0 SHL SUB NOT DUP2 AND DUP3 SSTORE DUP2 SWAP1 PUSH1 0x1 PUSH1 0x1 PUSH1 0xA0 SHL SUB AND PUSH32 0x8BE0079C531659141344CD1FD0A4F28419497F9722A3DAAFE3B4186F6B6457E0 DUP3 DUP1 LOG3 DUP1 RETURN JUMPDEST POP CALLVALUE PUSH2 0x222 JUMPI PUSH1 0x20 CALLDATASIZE PUSH1 0x3 NOT ADD SLT PUSH2 0x222 JUMPI PUSH1 0x4 CALLDATALOAD PUSH1 0x1 PUSH1 0x1 PUSH1 0xA0 SHL SUB DUP2 AND SWAP1 DUP2 SWAP1 SUB PUSH2 0x2AF JUMPI PUSH2 0x110C PUSH2 0x2068 JUMP JUMPDEST DUP1 ISZERO PUSH2 0x1128 JUMPI PUSH1 0x1 PUSH1 0x1 PUSH1 0x60 SHL SUB PUSH1 0xA0 SHL PUSH1 0x3 SLOAD AND OR PUSH1 0x3 SSTORE DUP1 RETURN JUMPDEST PUSH1 0x40 MLOAD PUSH3 0x461BCD PUSH1 0xE5 SHL DUP2 MSTORE PUSH1 0x20 PUSH1 0x4 DUP3 ADD MSTORE PUSH1 0x16 PUSH1 0x24 DUP3 ADD MSTORE PUSH22 0x125B9D985B1A590818591B5A5B8818DBDB9D1C9858DD PUSH1 0x52 SHL PUSH1 0x44 DUP3 ADD MSTORE PUSH1 0x64 SWAP1 REVERT JUMPDEST POP CALLVALUE PUSH2 0x222 JUMPI DUP1 PUSH1 0x3 NOT CALLDATASIZE ADD SLT PUSH2 0x222 JUMPI PUSH1 0xFF PUSH1 0x20 SWAP2 SLOAD PUSH1 0xA0 SHR AND PUSH1 0x40 MLOAD SWAP1 ISZERO ISZERO DUP2 MSTORE RETURN JUMPDEST POP CALLVALUE PUSH2 0x222 JUMPI PUSH1 0x20 CALLDATASIZE PUSH1 0x3 NOT ADD SLT PUSH2 0x222 JUMPI PUSH1 0x4 CALLDATALOAD PUSH1 0x1 PUSH1 0x1 PUSH1 0xA0 SHL SUB DUP2 AND SWAP1 DUP2 SWAP1 SUB PUSH2 0x2AF JUMPI PUSH2 0x11BA PUSH2 0x2068 JUMP JUMPDEST DUP1 ISZERO PUSH2 0x11D6 JUMPI PUSH1 0x1 PUSH1 0x1 PUSH1 0x60 SHL SUB PUSH1 0xA0 SHL PUSH1 0x4 SLOAD AND OR PUSH1 0x4 SSTORE DUP1 RETURN JUMPDEST PUSH1 0x40 MLOAD PUSH3 0x461BCD PUSH1 0xE5 SHL DUP2 MSTORE PUSH1 0x20 PUSH1 0x4 DUP3 ADD MSTORE PUSH1 0x15 PUSH1 0x24 DUP3 ADD MSTORE PUSH21 0x125B9D985B1A59081554D1150818DBDB9D1C9858DD PUSH1 0x5A SHL PUSH1 0x44 DUP3 ADD MSTORE PUSH1 0x64 SWAP1 REVERT JUMPDEST POP CALLVALUE PUSH2 0x222 JUMPI PUSH1 0x20 CALLDATASIZE PUSH1 0x3 NOT ADD SLT PUSH2 0x222 JUMPI PUSH1 0x4 CALLDATALOAD PUSH2 0x1230 PUSH2 0x2026 JUMP JUMPDEST PUSH1 0x2 SLOAD PUSH1 0x40 MLOAD PUSH4 0x95EA5717 PUSH1 0xE0 SHL DUP2 MSTORE PUSH1 0x4 DUP2 ADD DUP4 SWAP1 MSTORE SWAP1 DUP4 SWAP1 DUP3 SWAP1 PUSH1 0x24 SWAP1 DUP3 SWAP1 PUSH1 0x1 PUSH1 0x1 PUSH1 0xA0 SHL SUB AND GAS STATICCALL SWAP1 DUP2 ISZERO PUSH2 0x1578 JUMPI DUP4 SWAP2 PUSH2 0x155E JUMPI JUMPDEST POP PUSH1 0x20 DUP2 ADD MLOAD PUSH1 0x1 PUSH1 0x1 PUSH1 0xA0 SHL SUB AND CALLER SUB PUSH2 0x1519 JUMPI PUSH1 0x80 DUP2 ADD MLOAD ISZERO PUSH2 0x14D4 JUMPI PUSH1 0x40 SWAP1 DUP2 ADD MLOAD PUSH1 0x2 SLOAD SWAP2 MLOAD PUSH4 0x95EA5717 PUSH1 0xE0 SHL DUP2 MSTORE PUSH1 0x4 DUP2 ADD DUP5 SWAP1 MSTORE SWAP1 SWAP3 SWAP2 PUSH1 0x1 PUSH1 0x1 PUSH1 0xA0 SHL SUB AND DUP5 DUP3 PUSH1 0x24 DUP2 DUP5 GAS STATICCALL SWAP2 DUP3 ISZERO PUSH2 0xA87 JUMPI DUP6 SWAP3 PUSH2 0x14B8 JUMPI JUMPDEST POP PUSH1 0x20 DUP3 ADD MLOAD CALLER PUSH1 0x1 PUSH1 0x1 PUSH1 0xA0 SHL SUB SWAP1 SWAP2 AND SUB PUSH2 0x147C JUMPI PUSH2 0x2710 DUP5 LT ISZERO DUP1 PUSH2 0x146E JUMPI JUMPDEST PUSH2 0x12F3 SWAP1 PUSH2 0x1FC3 JUMP JUMPDEST DUP5 PUSH1 0x40 DUP4 ADD MLOAD SWAP3 PUSH1 0x80 DUP2 ADD MLOAD ISZERO ISZERO SWAP1 PUSH1 0x60 DUP2 ADD SWAP4 PUSH1 0xA0 DUP6 MLOAD SWAP3 ADD MLOAD PUSH1 0x40 MLOAD SWAP3 PUSH2 0x131B DUP5 PUSH2 0x1CC3 JUMP JUMPDEST DUP9 DUP5 MSTORE CALLER PUSH1 0x20 DUP6 ADD MSTORE DUP10 PUSH1 0x40 DUP6 ADD MSTORE PUSH1 0x60 DUP5 ADD MSTORE DUP5 PUSH1 0x80 DUP5 ADD MSTORE PUSH1 0xA0 DUP4 ADD MSTORE TIMESTAMP PUSH1 0xC0 DUP4 ADD MSTORE DUP1 EXTCODESIZE ISZERO PUSH2 0xA83 JUMPI PUSH2 0x136C DUP5 SWAP3 SWAP2 DUP4 SWAP3 PUSH1 0x40 MLOAD SWAP7 DUP8 DUP1 SWAP5 DUP2 SWAP4 PUSH4 0x14303507 PUSH1 0xE2 SHL DUP4 MSTORE DUP14 PUSH1 0x4 DUP5 ADD PUSH2 0x200F JUMP JUMPDEST SUB SWAP3 GAS CALL SWAP3 DUP4 ISZERO PUSH2 0x215 JUMPI DUP7 SWAP4 PUSH2 0x1451 JUMPI JUMPDEST POP POP SWAP1 DUP2 PUSH2 0x13D3 SWAP4 SWAP3 DUP3 DUP7 DUP10 PUSH32 0x54505B9E522263D538ACC1F6DE9658C2AE4FD39B8771F562481C2D375D1C1F2D SWAP9 SUB PUSH2 0x141A JUMPI JUMPDEST POP POP PUSH2 0x13E3 JUMPI JUMPDEST POP POP MLOAD PUSH1 0x40 MLOAD SWAP5 DUP6 MSTORE PUSH1 0x60 PUSH1 0x20 DUP7 ADD MSTORE PUSH1 0x60 DUP6 ADD SWAP1 PUSH2 0x1BDA JUMP JUMPDEST SWAP3 DUP5 PUSH1 0x40 DUP3 ADD MSTORE DUP1 CALLER SWAP5 SUB SWAP1 LOG3 DUP1 RETURN JUMPDEST PUSH1 0x40 PUSH32 0xB061566845B6680F66461FBE29235493F3AA355419D464D868114A32E0E7AE7B SWAP2 DUP2 MLOAD SWAP1 DUP2 MSTORE DUP10 PUSH1 0x20 DUP3 ADD MSTORE LOG2 DUP4 CODESIZE PUSH2 0x13B9 JUMP JUMPDEST PUSH1 0x40 PUSH32 0x7D20E42FBC3910F3E2536C15BFB3D2DEEC361F7B0534C071570AF6608429F01 SWAP2 DUP2 MLOAD SWAP1 DUP2 MSTORE DUP12 PUSH1 0x20 DUP3 ADD MSTORE LOG2 DUP3 CODESIZE PUSH2 0x13B2 JUMP JUMPDEST DUP2 SWAP3 SWAP5 SWAP4 POP SWAP1 PUSH2 0x1460 SWAP2 PUSH2 0x1CF5 JUMP JUMPDEST PUSH2 0x88B JUMPI SWAP1 DUP4 SWAP1 DUP7 CODESIZE PUSH2 0x137E JUMP JUMPDEST POP PUSH4 0x2FAF080 DUP5 GT ISZERO PUSH2 0x12EA JUMP JUMPDEST PUSH1 0x40 MLOAD PUSH3 0x461BCD PUSH1 0xE5 SHL DUP2 MSTORE PUSH1 0x20 PUSH1 0x4 DUP3 ADD MSTORE PUSH1 0x14 PUSH1 0x24 DUP3 ADD MSTORE PUSH20 0x4F6E6C7920686F73742063616E20757064617465 PUSH1 0x60 SHL PUSH1 0x44 DUP3 ADD MSTORE PUSH1 0x64 SWAP1 REVERT JUMPDEST PUSH2 0x14CD SWAP2 SWAP3 POP RETURNDATASIZE DUP1 DUP8 DUP4 RETURNDATACOPY PUSH2 0x4E3 DUP2 DUP4 PUSH2 0x1CF5 JUMP JUMPDEST SWAP1 CODESIZE PUSH2 0x12C7 JUMP JUMPDEST PUSH1 0x40 MLOAD PUSH3 0x461BCD PUSH1 0xE5 SHL DUP2 MSTORE PUSH1 0x20 PUSH1 0x4 DUP3 ADD MSTORE PUSH1 0x18 PUSH1 0x24 DUP3 ADD MSTORE PUSH32 0x4E6574776F726B20616C726561647920696E6163746976650000000000000000 PUSH1 0x44 DUP3 ADD MSTORE PUSH1 0x64 SWAP1 REVERT JUMPDEST PUSH1 0x40 MLOAD PUSH3 0x461BCD PUSH1 0xE5 SHL DUP2 MSTORE PUSH1 0x20 PUSH1 0x4 DUP3 ADD MSTORE PUSH1 0x18 PUSH1 0x24 DUP3 ADD MSTORE PUSH32 0x4F6E6C7920686F73742063616E20646561637469766174650000000000000000 PUSH1 0x44 DUP3 ADD MSTORE PUSH1 0x64 SWAP1 REVERT JUMPDEST PUSH2 0x1572 SWAP2 POP RETURNDATASIZE DUP1 DUP6 DUP4 RETURNDATACOPY PUSH2 0x4E3 DUP2 DUP4 PUSH2 0x1CF5 JUMP JUMPDEST CODESIZE PUSH2 0x126A JUMP JUMPDEST PUSH1 0x40 MLOAD RETURNDATASIZE DUP6 DUP3 RETURNDATACOPY RETURNDATASIZE SWAP1 REVERT JUMPDEST POP CALLVALUE PUSH2 0x222 JUMPI PUSH1 0x20 CALLDATASIZE PUSH1 0x3 NOT ADD SLT PUSH2 0x222 JUMPI PUSH1 0x20 SWAP1 PUSH1 0x4 CALLDATALOAD DUP2 MSTORE PUSH1 0x7 DUP3 MSTORE PUSH1 0x40 PUSH1 0x1 DUP1 PUSH1 0xA0 SHL SUB SWAP2 KECCAK256 SLOAD AND PUSH1 0x40 MLOAD SWAP1 DUP2 MSTORE RETURN JUMPDEST POP CALLVALUE PUSH2 0x222 JUMPI DUP1 PUSH1 0x3 NOT CALLDATASIZE ADD SLT PUSH2 0x222 JUMPI PUSH2 0x15CF PUSH2 0x2068 JUMP JUMPDEST DUP1 SLOAD PUSH1 0xFF DUP2 PUSH1 0xA0 SHR AND ISZERO PUSH2 0x1615 JUMPI PUSH1 0xFF PUSH1 0xA0 SHL NOT AND DUP2 SSTORE PUSH1 0x40 MLOAD CALLER DUP2 MSTORE PUSH32 0x5DB9EE0A495BF2E6FF9C91A7834C1BA4FDD244A5E8AA4E537BD38AEAE4B073AA SWAP1 PUSH1 0x20 SWAP1 LOG1 DUP1 RETURN JUMPDEST PUSH4 0x8DFC202B PUSH1 0xE0 SHL DUP3 MSTORE PUSH1 0x4 DUP3 REVERT JUMPDEST POP CALLVALUE PUSH2 0x222 JUMPI DUP1 PUSH1 0x3 NOT CALLDATASIZE ADD SLT PUSH2 0x222 JUMPI PUSH1 0x4 SLOAD PUSH1 0x40 MLOAD PUSH1 0x1 PUSH1 0x1 PUSH1 0xA0 SHL SUB SWAP1 SWAP2 AND DUP2 MSTORE PUSH1 0x20 SWAP1 RETURN JUMPDEST POP CALLVALUE PUSH2 0x222 JUMPI PUSH1 0x20 CALLDATASIZE PUSH1 0x3 NOT ADD SLT PUSH2 0x222 JUMPI PUSH1 0x4 CALLDATALOAD PUSH1 0x1 PUSH1 0x1 PUSH1 0xA0 SHL SUB DUP2 AND SWAP1 DUP2 SWAP1 SUB PUSH2 0x2AF JUMPI DUP2 MSTORE PUSH1 0x6 PUSH1 0x20 MSTORE PUSH1 0x40 DUP2 KECCAK256 PUSH1 0x40 MLOAD DUP1 DUP3 PUSH1 0x20 DUP3 SWAP5 SLOAD SWAP4 DUP5 DUP2 MSTORE ADD SWAP1 DUP6 MSTORE PUSH1 0x20 DUP6 KECCAK256 SWAP3 DUP6 JUMPDEST DUP2 DUP2 LT PUSH2 0x17F6 JUMPI POP POP PUSH2 0x16AD SWAP3 POP SUB DUP3 PUSH2 0x1CF5 JUMP JUMPDEST PUSH1 0x2 SLOAD DUP3 SWAP1 PUSH1 0x1 PUSH1 0x1 PUSH1 0xA0 SHL SUB AND DUP2 DUP1 JUMPDEST DUP5 MLOAD DUP2 LT ISZERO PUSH2 0x173B JUMPI PUSH2 0x16D1 DUP2 DUP7 PUSH2 0x1EC4 JUMP JUMPDEST MLOAD PUSH1 0x40 MLOAD SWAP1 PUSH4 0x95EA5717 PUSH1 0xE0 SHL DUP3 MSTORE PUSH1 0x4 DUP3 ADD MSTORE DUP3 DUP2 PUSH1 0x24 DUP2 DUP8 GAS STATICCALL DUP1 ISZERO PUSH2 0x1578 JUMPI PUSH1 0x80 SWAP2 DUP5 SWAP2 PUSH2 0x1721 JUMPI JUMPDEST POP ADD MLOAD PUSH2 0x170D JUMPI JUMPDEST PUSH1 0x1 ADD PUSH2 0x16BE JUMP JUMPDEST SWAP3 PUSH2 0x1719 PUSH1 0x1 SWAP2 PUSH2 0x1EEE JUMP JUMPDEST SWAP4 SWAP1 POP PUSH2 0x1705 JUMP JUMPDEST PUSH2 0x1735 SWAP2 POP RETURNDATASIZE DUP1 DUP7 DUP4 RETURNDATACOPY PUSH2 0x4E3 DUP2 DUP4 PUSH2 0x1CF5 JUMP JUMPDEST CODESIZE PUSH2 0x16FD JUMP JUMPDEST POP POP SWAP1 PUSH2 0x1747 SWAP1 PUSH2 0x1F4A JUMP JUMPDEST DUP4 SWAP1 DUP5 JUMPDEST DUP5 MLOAD DUP2 LT ISZERO PUSH2 0x17E0 JUMPI PUSH2 0x175E DUP2 DUP7 PUSH2 0x1EC4 JUMP JUMPDEST MLOAD PUSH1 0x40 MLOAD SWAP1 PUSH4 0x95EA5717 PUSH1 0xE0 SHL DUP3 MSTORE PUSH1 0x4 DUP3 ADD MSTORE DUP7 DUP2 PUSH1 0x24 DUP2 DUP9 GAS STATICCALL SWAP1 DUP2 ISZERO PUSH2 0xB4D JUMPI DUP8 SWAP2 PUSH2 0x17C6 JUMPI JUMPDEST POP PUSH1 0x80 DUP2 ADD MLOAD PUSH2 0x179C JUMPI JUMPDEST POP PUSH1 0x1 ADD PUSH2 0x174B JUMP JUMPDEST DUP4 PUSH2 0x17BF SWAP2 PUSH2 0x17AE PUSH1 0x1 SWAP5 SWAP7 DUP7 PUSH2 0x1EC4 JUMP JUMPDEST MSTORE PUSH2 0x17B9 DUP2 DUP6 PUSH2 0x1EC4 JUMP JUMPDEST POP PUSH2 0x1EEE JUMP JUMPDEST SWAP3 SWAP1 PUSH2 0x1793 JUMP JUMPDEST PUSH2 0x17DA SWAP2 POP RETURNDATASIZE DUP1 DUP10 DUP4 RETURNDATACOPY PUSH2 0x4E3 DUP2 DUP4 PUSH2 0x1CF5 JUMP JUMPDEST CODESIZE PUSH2 0x1788 JUMP JUMPDEST PUSH1 0x40 MLOAD PUSH1 0x20 DUP1 DUP3 MSTORE DUP2 SWAP1 PUSH2 0x4CB SWAP1 DUP3 ADD DUP6 PUSH2 0x1C5B JUMP JUMPDEST DUP5 SLOAD DUP4 MSTORE PUSH1 0x1 SWAP5 DUP6 ADD SWAP5 DUP7 SWAP5 POP PUSH1 0x20 SWAP1 SWAP4 ADD SWAP3 ADD PUSH2 0x1698 JUMP JUMPDEST POP CALLVALUE PUSH2 0x222 JUMPI PUSH1 0x60 CALLDATASIZE PUSH1 0x3 NOT ADD SLT PUSH2 0x222 JUMPI PUSH1 0x24 CALLDATALOAD PUSH1 0x4 CALLDATALOAD PUSH2 0x182F PUSH2 0x1CB4 JUMP JUMPDEST SWAP2 PUSH2 0x1838 PUSH2 0x2026 JUMP JUMPDEST PUSH2 0x1840 PUSH2 0x2046 JUMP JUMPDEST PUSH1 0x2 SLOAD PUSH1 0x40 MLOAD PUSH4 0x95EA5717 PUSH1 0xE0 SHL DUP2 MSTORE PUSH1 0x4 DUP2 ADD DUP5 SWAP1 MSTORE SWAP1 PUSH1 0x1 PUSH1 0x1 PUSH1 0xA0 SHL SUB AND DUP6 DUP3 PUSH1 0x24 DUP2 DUP5 GAS STATICCALL SWAP2 DUP3 ISZERO PUSH2 0x8C7 JUMPI DUP7 SWAP3 PUSH2 0x1A54 JUMPI JUMPDEST POP PUSH1 0x20 DUP3 ADD MLOAD CALLER PUSH1 0x1 PUSH1 0x1 PUSH1 0xA0 SHL SUB SWAP1 SWAP2 AND SUB PUSH2 0x147C JUMPI PUSH2 0x2710 DUP4 LT ISZERO DUP1 PUSH2 0x1A46 JUMPI JUMPDEST PUSH2 0x18A3 SWAP1 PUSH2 0x1FC3 JUMP JUMPDEST PUSH1 0x40 DUP3 ADD MLOAD DUP7 PUSH1 0x80 DUP5 ADD MLOAD ISZERO ISZERO SWAP3 PUSH1 0x60 DUP6 ADD SWAP5 PUSH1 0xA0 DUP7 MLOAD SWAP2 ADD MLOAD SWAP9 PUSH1 0x40 MLOAD SWAP2 PUSH2 0x18CB DUP4 PUSH2 0x1CC3 JUMP JUMPDEST DUP10 DUP4 MSTORE CALLER PUSH1 0x20 DUP5 ADD MSTORE DUP9 PUSH1 0x40 DUP5 ADD MSTORE PUSH1 0x60 DUP4 ADD MSTORE ISZERO ISZERO SWAP9 DUP10 PUSH1 0x80 DUP4 ADD MSTORE PUSH1 0xA0 DUP3 ADD MSTORE TIMESTAMP PUSH1 0xC0 DUP3 ADD MSTORE DUP2 EXTCODESIZE ISZERO PUSH2 0x88F JUMPI DUP3 SWAP2 PUSH2 0x191D SWAP2 PUSH1 0x40 MLOAD SWAP5 DUP6 DUP1 SWAP5 DUP2 SWAP4 PUSH4 0x14303507 PUSH1 0xE2 SHL DUP4 MSTORE DUP14 PUSH1 0x4 DUP5 ADD PUSH2 0x200F JUMP JUMPDEST SUB SWAP3 GAS CALL DUP1 ISZERO PUSH2 0x1014 JUMPI PUSH2 0x1A04 JUMPI JUMPDEST POP SWAP2 DUP5 PUSH2 0x1983 SWAP3 DUP2 DUP6 DUP8 PUSH32 0x54505B9E522263D538ACC1F6DE9658C2AE4FD39B8771F562481C2D375D1C1F2D SWAP9 SWAP8 SUB PUSH2 0x19CD JUMPI JUMPDEST POP POP DUP8 DUP2 SUB PUSH2 0x1996 JUMPI JUMPDEST POP POP MLOAD PUSH1 0x40 MLOAD SWAP3 DUP4 MSTORE PUSH1 0x60 PUSH1 0x20 DUP5 ADD MSTORE PUSH1 0x60 DUP4 ADD SWAP1 PUSH2 0x1BDA JUMP JUMPDEST SWAP4 PUSH1 0x40 DUP3 ADD MSTORE DUP1 CALLER SWAP5 SUB SWAP1 LOG3 PUSH1 0x1 DUP1 SSTORE DUP1 RETURN JUMPDEST PUSH1 0x40 PUSH32 0xB061566845B6680F66461FBE29235493F3AA355419D464D868114A32E0E7AE7B SWAP2 DUP2 MLOAD SWAP1 DUP2 MSTORE DUP10 PUSH1 0x20 DUP3 ADD MSTORE LOG2 DUP5 CODESIZE PUSH2 0x1969 JUMP JUMPDEST PUSH1 0x40 PUSH32 0x7D20E42FBC3910F3E2536C15BFB3D2DEEC361F7B0534C071570AF6608429F01 SWAP2 DUP2 MLOAD SWAP1 DUP2 MSTORE DUP9 PUSH1 0x20 DUP3 ADD MSTORE LOG2 DUP2 CODESIZE PUSH2 0x195F JUMP JUMPDEST PUSH2 0x1983 SWAP3 DUP7 DUP10 PUSH2 0x1A39 PUSH32 0x54505B9E522263D538ACC1F6DE9658C2AE4FD39B8771F562481C2D375D1C1F2D SWAP9 SWAP8 SWAP6 SWAP12 DUP4 SWAP6 PUSH2 0x1CF5 JUMP JUMPDEST SWAP10 SWAP4 SWAP6 SWAP7 POP POP SWAP3 POP PUSH2 0x192C JUMP JUMPDEST POP PUSH4 0x2FAF080 DUP4 GT ISZERO PUSH2 0x189A JUMP JUMPDEST PUSH2 0x1A69 SWAP2 SWAP3 POP RETURNDATASIZE DUP1 DUP9 DUP4 RETURNDATACOPY PUSH2 0x4E3 DUP2 DUP4 PUSH2 0x1CF5 JUMP JUMPDEST SWAP1 CODESIZE PUSH2 0x1877 JUMP JUMPDEST POP CALLVALUE PUSH2 0x222 JUMPI DUP1 PUSH1 0x3 NOT CALLDATASIZE ADD SLT PUSH2 0x222 JUMPI PUSH1 0x2 SLOAD PUSH1 0x40 MLOAD PUSH4 0x3EA72069 PUSH1 0xE2 SHL DUP2 MSTORE PUSH1 0x4 DUP2 ADD DUP4 SWAP1 MSTORE PUSH1 0x64 PUSH1 0x24 DUP3 ADD MSTORE SWAP2 SWAP1 DUP2 SWAP1 DUP4 SWAP1 PUSH1 0x44 SWAP1 DUP3 SWAP1 PUSH1 0x1 PUSH1 0x1 PUSH1 0xA0 SHL SUB AND GAS STATICCALL SWAP2 DUP3 ISZERO PUSH2 0x215 JUMPI DUP2 SWAP3 PUSH2 0x1B55 JUMPI JUMPDEST POP DUP1 DUP2 JUMPDEST DUP4 MLOAD DUP2 LT ISZERO PUSH2 0x1B00 JUMPI PUSH1 0x80 PUSH2 0x1ADC DUP3 DUP7 PUSH2 0x1EC4 JUMP JUMPDEST MLOAD ADD MLOAD PUSH2 0x1AEC JUMPI JUMPDEST PUSH1 0x1 ADD PUSH2 0x1AC7 JUMP JUMPDEST SWAP1 PUSH2 0x1AF8 PUSH1 0x1 SWAP2 PUSH2 0x1EEE JUMP JUMPDEST SWAP2 SWAP1 POP PUSH2 0x1AE4 JUMP JUMPDEST POP PUSH2 0x1B0A SWAP1 PUSH2 0x1F4A JUMP JUMPDEST DUP2 JUMPDEST DUP4 MLOAD DUP2 LT ISZERO PUSH2 0x17E0 JUMPI PUSH1 0x80 PUSH2 0x1B21 DUP3 DUP7 PUSH2 0x1EC4 JUMP JUMPDEST MLOAD ADD MLOAD PUSH2 0x1B31 JUMPI JUMPDEST PUSH1 0x1 ADD PUSH2 0x1B0C JUMP JUMPDEST SWAP2 PUSH2 0x1B4D PUSH1 0x1 SWAP2 PUSH2 0x1B42 DUP6 DUP8 PUSH2 0x1EC4 JUMP JUMPDEST MLOAD PUSH2 0x17AE DUP3 DUP7 PUSH2 0x1EC4 JUMP JUMPDEST SWAP3 SWAP1 POP PUSH2 0x1B29 JUMP JUMPDEST PUSH2 0x1B6A SWAP2 SWAP3 POP RETURNDATASIZE DUP1 DUP5 DUP4 RETURNDATACOPY PUSH2 0x206 DUP2 DUP4 PUSH2 0x1CF5 JUMP JUMPDEST POP SWAP1 CODESIZE PUSH2 0x1AC3 JUMP JUMPDEST POP CALLVALUE PUSH2 0x222 JUMPI DUP1 PUSH1 0x3 NOT CALLDATASIZE ADD SLT PUSH2 0x222 JUMPI PUSH1 0x2 SLOAD PUSH1 0x40 MLOAD PUSH1 0x1 PUSH1 0x1 PUSH1 0xA0 SHL SUB SWAP1 SWAP2 AND DUP2 MSTORE PUSH1 0x20 SWAP1 RETURN JUMPDEST SWAP1 POP CALLVALUE PUSH2 0x2AF JUMPI DUP2 PUSH1 0x3 NOT CALLDATASIZE ADD SLT PUSH2 0x2AF JUMPI DUP1 PUSH2 0x2710 PUSH1 0x20 SWAP3 MSTORE RETURN JUMPDEST PUSH1 0x0 JUMPDEST DUP4 DUP2 LT PUSH2 0x1BCA JUMPI POP POP PUSH1 0x0 SWAP2 ADD MSTORE JUMP JUMPDEST DUP2 DUP2 ADD MLOAD DUP4 DUP3 ADD MSTORE PUSH1 0x20 ADD PUSH2 0x1BBA JUMP JUMPDEST SWAP1 PUSH1 0x20 SWAP2 PUSH2 0x1BF3 DUP2 MLOAD DUP1 SWAP3 DUP2 DUP6 MSTORE DUP6 DUP1 DUP7 ADD SWAP2 ADD PUSH2 0x1BB7 JUMP JUMPDEST PUSH1 0x1F ADD PUSH1 0x1F NOT AND ADD ADD SWAP1 JUMP JUMPDEST SWAP1 DUP2 MLOAD DUP2 MSTORE PUSH1 0x1 DUP1 PUSH1 0xA0 SHL SUB PUSH1 0x20 DUP4 ADD MLOAD AND PUSH1 0x20 DUP3 ADD MSTORE PUSH1 0x40 DUP3 ADD MLOAD PUSH1 0x40 DUP3 ADD MSTORE PUSH1 0xC0 DUP1 PUSH2 0x1C3C PUSH1 0x60 DUP6 ADD MLOAD PUSH1 0xE0 PUSH1 0x60 DUP7 ADD MSTORE PUSH1 0xE0 DUP6 ADD SWAP1 PUSH2 0x1BDA JUMP JUMPDEST SWAP4 PUSH1 0x80 DUP2 ADD MLOAD ISZERO ISZERO PUSH1 0x80 DUP6 ADD MSTORE PUSH1 0xA0 DUP2 ADD MLOAD PUSH1 0xA0 DUP6 ADD MSTORE ADD MLOAD SWAP2 ADD MSTORE SWAP1 JUMP JUMPDEST SWAP1 DUP1 PUSH1 0x20 DUP4 MLOAD SWAP2 DUP3 DUP2 MSTORE ADD SWAP2 PUSH1 0x20 DUP1 DUP4 PUSH1 0x5 SHL DUP4 ADD ADD SWAP5 ADD SWAP3 PUSH1 0x0 SWAP2 JUMPDEST DUP4 DUP4 LT PUSH2 0x1C87 JUMPI POP POP POP POP POP SWAP1 JUMP JUMPDEST SWAP1 SWAP2 SWAP3 SWAP4 SWAP5 PUSH1 0x20 DUP1 PUSH2 0x1CA5 PUSH1 0x1 SWAP4 PUSH1 0x1F NOT DUP7 DUP3 SUB ADD DUP8 MSTORE DUP10 MLOAD PUSH2 0x1BFF JUMP JUMPDEST SWAP8 ADD SWAP4 ADD SWAP4 ADD SWAP2 SWAP4 SWAP3 SWAP1 PUSH2 0x1C78 JUMP JUMPDEST PUSH1 0x44 CALLDATALOAD SWAP1 DUP2 ISZERO ISZERO DUP3 SUB PUSH2 0x42F JUMPI JUMP JUMPDEST PUSH1 0xE0 DUP2 ADD SWAP1 DUP2 LT PUSH8 0xFFFFFFFFFFFFFFFF DUP3 GT OR PUSH2 0x1CDF JUMPI PUSH1 0x40 MSTORE JUMP JUMPDEST PUSH4 0x4E487B71 PUSH1 0xE0 SHL PUSH1 0x0 MSTORE PUSH1 0x41 PUSH1 0x4 MSTORE PUSH1 0x24 PUSH1 0x0 REVERT JUMPDEST SWAP1 PUSH1 0x1F DUP1 NOT SWAP2 ADD AND DUP2 ADD SWAP1 DUP2 LT PUSH8 0xFFFFFFFFFFFFFFFF DUP3 GT OR PUSH2 0x1CDF JUMPI PUSH1 0x40 MSTORE JUMP JUMPDEST PUSH8 0xFFFFFFFFFFFFFFFF DUP2 GT PUSH2 0x1CDF JUMPI PUSH1 0x1F ADD PUSH1 0x1F NOT AND PUSH1 0x20 ADD SWAP1 JUMP JUMPDEST PUSH8 0xFFFFFFFFFFFFFFFF DUP2 GT PUSH2 0x1CDF JUMPI PUSH1 0x5 SHL PUSH1 0x20 ADD SWAP1 JUMP JUMPDEST MLOAD SWAP1 PUSH1 0x1 PUSH1 0x1 PUSH1 0xA0 SHL SUB DUP3 AND DUP3 SUB PUSH2 0x42F JUMPI JUMP JUMPDEST SWAP2 SWAP1 SWAP2 PUSH1 0xE0 DUP2 DUP5 SUB SLT PUSH2 0x42F JUMPI PUSH1 0x40 MLOAD SWAP1 PUSH2 0x1D79 DUP3 PUSH2 0x1CC3 JUMP JUMPDEST DUP2 SWAP4 DUP2 MLOAD DUP4 MSTORE PUSH2 0x1D8B PUSH1 0x20 DUP4 ADD PUSH2 0x1D4B JUMP JUMPDEST PUSH1 0x20 DUP5 ADD MSTORE PUSH1 0x40 DUP3 ADD MLOAD PUSH1 0x40 DUP5 ADD MSTORE PUSH1 0x60 DUP3 ADD MLOAD PUSH8 0xFFFFFFFFFFFFFFFF DUP2 GT PUSH2 0x42F JUMPI DUP3 ADD DUP2 PUSH1 0x1F DUP3 ADD SLT ISZERO PUSH2 0x42F JUMPI DUP1 MLOAD PUSH2 0x1DC6 DUP2 PUSH2 0x1D17 JUMP JUMPDEST SWAP3 PUSH2 0x1DD4 PUSH1 0x40 MLOAD SWAP5 DUP6 PUSH2 0x1CF5 JUMP JUMPDEST DUP2 DUP5 MSTORE PUSH1 0x20 DUP3 DUP5 ADD ADD GT PUSH2 0x42F JUMPI PUSH2 0x1DF2 SWAP2 PUSH1 0x20 DUP1 DUP6 ADD SWAP2 ADD PUSH2 0x1BB7 JUMP JUMPDEST PUSH1 0x60 DUP4 ADD MSTORE PUSH1 0x80 DUP2 ADD MLOAD DUP1 ISZERO ISZERO DUP2 SUB PUSH2 0x42F JUMPI PUSH1 0xC0 SWAP2 DUP3 SWAP2 PUSH1 0x80 DUP6 ADD MSTORE PUSH1 0xA0 DUP2 ADD MLOAD PUSH1 0xA0 DUP6 ADD MSTORE ADD MLOAD SWAP2 ADD MSTORE JUMP JUMPDEST SWAP2 SWAP1 PUSH1 0x40 DUP4 DUP3 SUB SLT PUSH2 0x42F JUMPI DUP3 MLOAD PUSH8 0xFFFFFFFFFFFFFFFF DUP2 GT PUSH2 0x42F JUMPI DUP4 ADD SWAP1 DUP1 PUSH1 0x1F DUP4 ADD SLT ISZERO PUSH2 0x42F JUMPI DUP2 MLOAD PUSH2 0x1E56 DUP2 PUSH2 0x1D33 JUMP JUMPDEST SWAP3 PUSH2 0x1E64 PUSH1 0x40 MLOAD SWAP5 DUP6 PUSH2 0x1CF5 JUMP JUMPDEST DUP2 DUP5 MSTORE PUSH1 0x20 DUP1 DUP6 ADD SWAP3 PUSH1 0x5 SHL DUP3 ADD ADD SWAP2 DUP4 DUP4 GT PUSH2 0x42F JUMPI PUSH1 0x20 DUP3 ADD SWAP1 JUMPDEST DUP4 DUP3 LT PUSH2 0x1E96 JUMPI POP POP POP POP POP PUSH1 0x20 SWAP1 SWAP3 ADD MLOAD SWAP1 JUMP JUMPDEST DUP2 MLOAD PUSH8 0xFFFFFFFFFFFFFFFF DUP2 GT PUSH2 0x42F JUMPI PUSH1 0x20 SWAP2 PUSH2 0x1EB9 DUP8 DUP5 DUP1 SWAP5 DUP9 ADD ADD PUSH2 0x1D5F JUMP JUMPDEST DUP2 MSTORE ADD SWAP2 ADD SWAP1 PUSH2 0x1E81 JUMP JUMPDEST DUP1 MLOAD DUP3 LT ISZERO PUSH2 0x1ED8 JUMPI PUSH1 0x20 SWAP2 PUSH1 0x5 SHL ADD ADD SWAP1 JUMP JUMPDEST PUSH4 0x4E487B71 PUSH1 0xE0 SHL PUSH1 0x0 MSTORE PUSH1 0x32 PUSH1 0x4 MSTORE PUSH1 0x24 PUSH1 0x0 REVERT JUMPDEST PUSH1 0x0 NOT DUP2 EQ PUSH2 0x1EFD JUMPI PUSH1 0x1 ADD SWAP1 JUMP JUMPDEST PUSH4 0x4E487B71 PUSH1 0xE0 SHL PUSH1 0x0 MSTORE PUSH1 0x11 PUSH1 0x4 MSTORE PUSH1 0x24 PUSH1 0x0 REVERT JUMPDEST PUSH1 0x40 MLOAD SWAP1 PUSH2 0x1F20 DUP3 PUSH2 0x1CC3 JUMP JUMPDEST PUSH1 0x0 PUSH1 0xC0 DUP4 DUP3 DUP2 MSTORE DUP3 PUSH1 0x20 DUP3 ADD MSTORE DUP3 PUSH1 0x40 DUP3 ADD MSTORE PUSH1 0x60 DUP1 DUP3 ADD MSTORE DUP3 PUSH1 0x80 DUP3 ADD MSTORE DUP3 PUSH1 0xA0 DUP3 ADD MSTORE ADD MSTORE JUMP JUMPDEST SWAP1 PUSH2 0x1F54 DUP3 PUSH2 0x1D33 JUMP JUMPDEST PUSH2 0x1F61 PUSH1 0x40 MLOAD SWAP2 DUP3 PUSH2 0x1CF5 JUMP JUMPDEST DUP3 DUP2 MSTORE DUP1 SWAP3 PUSH2 0x1F72 PUSH1 0x1F NOT SWAP2 PUSH2 0x1D33 JUMP JUMPDEST ADD SWAP1 PUSH1 0x0 JUMPDEST DUP3 DUP2 LT PUSH2 0x1F83 JUMPI POP POP POP JUMP JUMPDEST PUSH1 0x20 SWAP1 PUSH2 0x1F8E PUSH2 0x1F13 JUMP JUMPDEST DUP3 DUP3 DUP6 ADD ADD MSTORE ADD PUSH2 0x1F77 JUMP JUMPDEST SWAP1 PUSH1 0x20 DUP3 DUP3 SUB SLT PUSH2 0x42F JUMPI DUP2 MLOAD PUSH8 0xFFFFFFFFFFFFFFFF DUP2 GT PUSH2 0x42F JUMPI PUSH2 0x1FC0 SWAP3 ADD PUSH2 0x1D5F JUMP JUMPDEST SWAP1 JUMP JUMPDEST ISZERO PUSH2 0x1FCA JUMPI JUMP JUMPDEST PUSH1 0x40 MLOAD PUSH3 0x461BCD PUSH1 0xE5 SHL DUP2 MSTORE PUSH1 0x20 PUSH1 0x4 DUP3 ADD MSTORE PUSH1 0x1A PUSH1 0x24 DUP3 ADD MSTORE PUSH32 0x5072696365206F7574206F6620616C6C6F7765642072616E6765000000000000 PUSH1 0x44 DUP3 ADD MSTORE PUSH1 0x64 SWAP1 REVERT JUMPDEST PUSH1 0x40 SWAP1 PUSH2 0x1FC0 SWAP4 SWAP3 DUP2 MSTORE DUP2 PUSH1 0x20 DUP3 ADD MSTORE ADD SWAP1 PUSH2 0x1BFF JUMP JUMPDEST PUSH1 0xFF PUSH1 0x0 SLOAD PUSH1 0xA0 SHR AND PUSH2 0x2035 JUMPI JUMP JUMPDEST PUSH4 0xD93C0665 PUSH1 0xE0 SHL PUSH1 0x0 MSTORE PUSH1 0x4 PUSH1 0x0 REVERT JUMPDEST PUSH1 0x2 PUSH1 0x1 SLOAD EQ PUSH2 0x2057 JUMPI PUSH1 0x2 PUSH1 0x1 SSTORE JUMP JUMPDEST PUSH4 0x3EE5AEB5 PUSH1 0xE0 SHL PUSH1 0x0 MSTORE PUSH1 0x4 PUSH1 0x0 REVERT JUMPDEST PUSH1 0x0 SLOAD PUSH1 0x1 PUSH1 0x1 PUSH1 0xA0 SHL SUB AND CALLER SUB PUSH2 0x207C JUMPI JUMP JUMPDEST PUSH4 0x118CDAA7 PUSH1 0xE0 SHL PUSH1 0x0 MSTORE CALLER PUSH1 0x4 MSTORE PUSH1 0x24 PUSH1 0x0 REVERT INVALID LOG2 PUSH5 0x6970667358 0x22 SLT KECCAK256 0xAF GT 0xB0 SLT 0xE5 ADDRESS 0x24 LOG1 0xBA 0xB2 PC PUSH8 0x8F70F2524FC82673 STOP 0xA7 RETURN DUP6 ORIGIN SDIV PUSH5 0xCFEFED0530 PUSH5 0x736F6C6343 STOP ADDMOD SHR STOP CALLER "
        },
        "methodIdentifiers": {
          "MAX_MONGO_DATA_LENGTH()": "e67d86f1",
          "MAX_PRICE_PER_SESSION()": "d4f38d04",
          "MIN_PRICE_PER_SESSION()": "09115e97",
          "REGISTRATION_COOLDOWN()": "b0ff6383",
          "adminContract()": "c05c5e94",
          "deactivateNetwork(uint256)": "4b9791e8",
          "getActiveHostNetworks(address)": "2b2a748c",
          "getAllActiveNetworks()": "16cb6eff",
          "getContractStats()": "dfe6b5d6",
          "getCurrentHostingFee()": "89ea28d9",
          "getHostNetworks(address)": "79f0dc57",
          "getHostStats(address)": "764ac734",
          "getHostedNetworkById(uint256)": "cd83fb9a",
          "getNetworksPaginated(uint256,uint256)": "fa9c81a4",
          "getTreasuryAddress()": "e0024604",
          "isHost(address)": "eb2931b7",
          "isRegisteredHost(address)": "867f1a09",
          "lastRegistrationTime(address)": "7f6e8cbf",
          "networkToHost(uint256)": "43355214",
          "owner()": "8da5cb5b",
          "pause()": "8456cb59",
          "paused()": "5c975abb",
          "registerNetwork(uint256,string,bool)": "900e41b1",
          "renounceOwnership()": "715018a6",
          "setAdminContract(address)": "63a812f9",
          "setUsdtContract(address)": "576338a5",
          "storageContract()": "11ce0267",
          "transferOwnership(address)": "f2fde38b",
          "unpause()": "3f4ba83a",
          "updateNetwork(uint256,uint256,bool)": "1b63fe67",
          "usdt()": "2f48ab7d"
        }
      }
    }
  }
}