{
  "contracts/ZaaNetAdmin.sol": {
    "ZaaNetAdmin": {
      "abi": [
        {
          "inputs": [
            {
              "internalType": "address",
              "name": "_storageContract",
              "type": "address"
            },
            {
              "internalType": "address",
              "name": "_treasuryAddress",
              "type": "address"
            },
            {
              "internalType": "address",
              "name": "_paymentAddress",
              "type": "address"
            },
            {
              "internalType": "uint256",
              "name": "_platformFeePercent",
              "type": "uint256"
            },
            {
              "internalType": "uint256",
              "name": "_hostingFee",
              "type": "uint256"
            }
          ],
          "stateMutability": "nonpayable",
          "type": "constructor"
        },
        {
          "inputs": [],
          "name": "EnforcedPause",
          "type": "error"
        },
        {
          "inputs": [],
          "name": "ExpectedPause",
          "type": "error"
        },
        {
          "inputs": [
            {
              "internalType": "address",
              "name": "owner",
              "type": "address"
            }
          ],
          "name": "OwnableInvalidOwner",
          "type": "error"
        },
        {
          "inputs": [
            {
              "internalType": "address",
              "name": "account",
              "type": "address"
            }
          ],
          "name": "OwnableUnauthorizedAccount",
          "type": "error"
        },
        {
          "inputs": [],
          "name": "ReentrancyGuardReentrantCall",
          "type": "error"
        },
        {
          "anonymous": false,
          "inputs": [
            {
              "indexed": true,
              "internalType": "address",
              "name": "triggeredBy",
              "type": "address"
            }
          ],
          "name": "AdminPaused",
          "type": "event"
        },
        {
          "anonymous": false,
          "inputs": [
            {
              "indexed": true,
              "internalType": "address",
              "name": "triggeredBy",
              "type": "address"
            }
          ],
          "name": "AdminUnpaused",
          "type": "event"
        },
        {
          "anonymous": false,
          "inputs": [
            {
              "indexed": true,
              "internalType": "address",
              "name": "storageContract",
              "type": "address"
            },
            {
              "indexed": false,
              "internalType": "uint256",
              "name": "timestamp",
              "type": "uint256"
            }
          ],
          "name": "ContractsInitialized",
          "type": "event"
        },
        {
          "anonymous": false,
          "inputs": [
            {
              "indexed": false,
              "internalType": "bool",
              "name": "enabled",
              "type": "bool"
            },
            {
              "indexed": true,
              "internalType": "address",
              "name": "triggeredBy",
              "type": "address"
            }
          ],
          "name": "EmergencyModeToggled",
          "type": "event"
        },
        {
          "anonymous": false,
          "inputs": [
            {
              "indexed": true,
              "internalType": "address",
              "name": "operator",
              "type": "address"
            },
            {
              "indexed": false,
              "internalType": "bool",
              "name": "status",
              "type": "bool"
            },
            {
              "indexed": true,
              "internalType": "address",
              "name": "updatedBy",
              "type": "address"
            }
          ],
          "name": "EmergencyOperatorUpdated",
          "type": "event"
        },
        {
          "anonymous": false,
          "inputs": [
            {
              "indexed": true,
              "internalType": "uint256",
              "name": "oldFee",
              "type": "uint256"
            },
            {
              "indexed": true,
              "internalType": "uint256",
              "name": "newFee",
              "type": "uint256"
            },
            {
              "indexed": true,
              "internalType": "address",
              "name": "changedBy",
              "type": "address"
            }
          ],
          "name": "HostingFeeUpdated",
          "type": "event"
        },
        {
          "anonymous": false,
          "inputs": [
            {
              "indexed": true,
              "internalType": "address",
              "name": "previousOwner",
              "type": "address"
            },
            {
              "indexed": true,
              "internalType": "address",
              "name": "newOwner",
              "type": "address"
            }
          ],
          "name": "OwnershipTransferred",
          "type": "event"
        },
        {
          "anonymous": false,
          "inputs": [
            {
              "indexed": false,
              "internalType": "address",
              "name": "account",
              "type": "address"
            }
          ],
          "name": "Paused",
          "type": "event"
        },
        {
          "anonymous": false,
          "inputs": [
            {
              "indexed": true,
              "internalType": "uint256",
              "name": "oldFee",
              "type": "uint256"
            },
            {
              "indexed": true,
              "internalType": "uint256",
              "name": "newFee",
              "type": "uint256"
            },
            {
              "indexed": true,
              "internalType": "address",
              "name": "changedBy",
              "type": "address"
            }
          ],
          "name": "PlatformFeeUpdated",
          "type": "event"
        },
        {
          "anonymous": false,
          "inputs": [
            {
              "indexed": true,
              "internalType": "address",
              "name": "oldTreasury",
              "type": "address"
            },
            {
              "indexed": true,
              "internalType": "address",
              "name": "newTreasury",
              "type": "address"
            },
            {
              "indexed": true,
              "internalType": "address",
              "name": "changedBy",
              "type": "address"
            }
          ],
          "name": "TreasuryUpdated",
          "type": "event"
        },
        {
          "anonymous": false,
          "inputs": [
            {
              "indexed": false,
              "internalType": "address",
              "name": "account",
              "type": "address"
            }
          ],
          "name": "Unpaused",
          "type": "event"
        },
        {
          "inputs": [],
          "name": "MAX_HOSTING_FEE",
          "outputs": [
            {
              "internalType": "uint256",
              "name": "",
              "type": "uint256"
            }
          ],
          "stateMutability": "view",
          "type": "function"
        },
        {
          "inputs": [],
          "name": "MAX_PLATFORM_FEE",
          "outputs": [
            {
              "internalType": "uint256",
              "name": "",
              "type": "uint256"
            }
          ],
          "stateMutability": "view",
          "type": "function"
        },
        {
          "inputs": [],
          "name": "MIN_HOSTING_FEE",
          "outputs": [
            {
              "internalType": "uint256",
              "name": "",
              "type": "uint256"
            }
          ],
          "stateMutability": "view",
          "type": "function"
        },
        {
          "inputs": [],
          "name": "MIN_PLATFORM_FEE",
          "outputs": [
            {
              "internalType": "uint256",
              "name": "",
              "type": "uint256"
            }
          ],
          "stateMutability": "view",
          "type": "function"
        },
        {
          "inputs": [],
          "name": "admin",
          "outputs": [
            {
              "internalType": "address",
              "name": "",
              "type": "address"
            }
          ],
          "stateMutability": "view",
          "type": "function"
        },
        {
          "inputs": [
            {
              "internalType": "uint256",
              "name": "amount",
              "type": "uint256"
            }
          ],
          "name": "calculatePlatformFee",
          "outputs": [
            {
              "internalType": "uint256",
              "name": "",
              "type": "uint256"
            }
          ],
          "stateMutability": "view",
          "type": "function"
        },
        {
          "inputs": [
            {
              "internalType": "uint256",
              "name": "networkId",
              "type": "uint256"
            }
          ],
          "name": "emergencyDeactivateNetwork",
          "outputs": [],
          "stateMutability": "nonpayable",
          "type": "function"
        },
        {
          "inputs": [],
          "name": "emergencyMode",
          "outputs": [
            {
              "internalType": "bool",
              "name": "",
              "type": "bool"
            }
          ],
          "stateMutability": "view",
          "type": "function"
        },
        {
          "inputs": [
            {
              "internalType": "address",
              "name": "",
              "type": "address"
            }
          ],
          "name": "emergencyOperators",
          "outputs": [
            {
              "internalType": "bool",
              "name": "",
              "type": "bool"
            }
          ],
          "stateMutability": "view",
          "type": "function"
        },
        {
          "inputs": [
            {
              "internalType": "uint256",
              "name": "_newFee",
              "type": "uint256"
            }
          ],
          "name": "emergencySetHostingFee",
          "outputs": [],
          "stateMutability": "nonpayable",
          "type": "function"
        },
        {
          "inputs": [
            {
              "internalType": "uint256",
              "name": "_newFeePercent",
              "type": "uint256"
            }
          ],
          "name": "emergencySetPlatformFee",
          "outputs": [],
          "stateMutability": "nonpayable",
          "type": "function"
        },
        {
          "inputs": [
            {
              "internalType": "uint256",
              "name": "",
              "type": "uint256"
            }
          ],
          "name": "feeHistory",
          "outputs": [
            {
              "internalType": "uint256",
              "name": "oldFee",
              "type": "uint256"
            },
            {
              "internalType": "uint256",
              "name": "newFee",
              "type": "uint256"
            },
            {
              "internalType": "uint256",
              "name": "timestamp",
              "type": "uint256"
            },
            {
              "internalType": "address",
              "name": "changedBy",
              "type": "address"
            }
          ],
          "stateMutability": "view",
          "type": "function"
        },
        {
          "inputs": [],
          "name": "getAdminStats",
          "outputs": [
            {
              "internalType": "uint256",
              "name": "totalFeeChanges",
              "type": "uint256"
            },
            {
              "internalType": "uint256",
              "name": "totalTreasuryChanges",
              "type": "uint256"
            },
            {
              "internalType": "uint256",
              "name": "totalHostingFeeChanges",
              "type": "uint256"
            },
            {
              "internalType": "bool",
              "name": "isEmergencyMode",
              "type": "bool"
            },
            {
              "internalType": "uint256",
              "name": "currentPlatformFee",
              "type": "uint256"
            },
            {
              "internalType": "uint256",
              "name": "currentHostingFee",
              "type": "uint256"
            },
            {
              "internalType": "address",
              "name": "currentTreasury",
              "type": "address"
            }
          ],
          "stateMutability": "view",
          "type": "function"
        },
        {
          "inputs": [],
          "name": "getCurrentFees",
          "outputs": [
            {
              "internalType": "uint256",
              "name": "platformFeePercentage",
              "type": "uint256"
            },
            {
              "internalType": "uint256",
              "name": "hostingFeeAmount",
              "type": "uint256"
            }
          ],
          "stateMutability": "view",
          "type": "function"
        },
        {
          "inputs": [],
          "name": "getFeeHistory",
          "outputs": [
            {
              "components": [
                {
                  "internalType": "uint256",
                  "name": "oldFee",
                  "type": "uint256"
                },
                {
                  "internalType": "uint256",
                  "name": "newFee",
                  "type": "uint256"
                },
                {
                  "internalType": "uint256",
                  "name": "timestamp",
                  "type": "uint256"
                },
                {
                  "internalType": "address",
                  "name": "changedBy",
                  "type": "address"
                }
              ],
              "internalType": "struct ZaaNetAdmin.FeeChange[]",
              "name": "",
              "type": "tuple[]"
            }
          ],
          "stateMutability": "view",
          "type": "function"
        },
        {
          "inputs": [],
          "name": "getHostingFeeHistory",
          "outputs": [
            {
              "components": [
                {
                  "internalType": "uint256",
                  "name": "oldFee",
                  "type": "uint256"
                },
                {
                  "internalType": "uint256",
                  "name": "newFee",
                  "type": "uint256"
                },
                {
                  "internalType": "uint256",
                  "name": "timestamp",
                  "type": "uint256"
                },
                {
                  "internalType": "address",
                  "name": "changedBy",
                  "type": "address"
                }
              ],
              "internalType": "struct ZaaNetAdmin.HostingFeeChange[]",
              "name": "",
              "type": "tuple[]"
            }
          ],
          "stateMutability": "view",
          "type": "function"
        },
        {
          "inputs": [],
          "name": "getLatestFeeChange",
          "outputs": [
            {
              "components": [
                {
                  "internalType": "uint256",
                  "name": "oldFee",
                  "type": "uint256"
                },
                {
                  "internalType": "uint256",
                  "name": "newFee",
                  "type": "uint256"
                },
                {
                  "internalType": "uint256",
                  "name": "timestamp",
                  "type": "uint256"
                },
                {
                  "internalType": "address",
                  "name": "changedBy",
                  "type": "address"
                }
              ],
              "internalType": "struct ZaaNetAdmin.FeeChange",
              "name": "",
              "type": "tuple"
            }
          ],
          "stateMutability": "view",
          "type": "function"
        },
        {
          "inputs": [],
          "name": "getLatestHostingFeeChange",
          "outputs": [
            {
              "components": [
                {
                  "internalType": "uint256",
                  "name": "oldFee",
                  "type": "uint256"
                },
                {
                  "internalType": "uint256",
                  "name": "newFee",
                  "type": "uint256"
                },
                {
                  "internalType": "uint256",
                  "name": "timestamp",
                  "type": "uint256"
                },
                {
                  "internalType": "address",
                  "name": "changedBy",
                  "type": "address"
                }
              ],
              "internalType": "struct ZaaNetAdmin.HostingFeeChange",
              "name": "",
              "type": "tuple"
            }
          ],
          "stateMutability": "view",
          "type": "function"
        },
        {
          "inputs": [],
          "name": "getLatestTreasuryChange",
          "outputs": [
            {
              "components": [
                {
                  "internalType": "address",
                  "name": "oldTreasury",
                  "type": "address"
                },
                {
                  "internalType": "address",
                  "name": "newTreasury",
                  "type": "address"
                },
                {
                  "internalType": "uint256",
                  "name": "timestamp",
                  "type": "uint256"
                },
                {
                  "internalType": "address",
                  "name": "changedBy",
                  "type": "address"
                }
              ],
              "internalType": "struct ZaaNetAdmin.TreasuryChange",
              "name": "",
              "type": "tuple"
            }
          ],
          "stateMutability": "view",
          "type": "function"
        },
        {
          "inputs": [],
          "name": "getPlatformFeeBasisPoints",
          "outputs": [
            {
              "internalType": "uint256",
              "name": "",
              "type": "uint256"
            }
          ],
          "stateMutability": "view",
          "type": "function"
        },
        {
          "inputs": [],
          "name": "getTreasuryHistory",
          "outputs": [
            {
              "components": [
                {
                  "internalType": "address",
                  "name": "oldTreasury",
                  "type": "address"
                },
                {
                  "internalType": "address",
                  "name": "newTreasury",
                  "type": "address"
                },
                {
                  "internalType": "uint256",
                  "name": "timestamp",
                  "type": "uint256"
                },
                {
                  "internalType": "address",
                  "name": "changedBy",
                  "type": "address"
                }
              ],
              "internalType": "struct ZaaNetAdmin.TreasuryChange[]",
              "name": "",
              "type": "tuple[]"
            }
          ],
          "stateMutability": "view",
          "type": "function"
        },
        {
          "inputs": [],
          "name": "hostingFee",
          "outputs": [
            {
              "internalType": "uint256",
              "name": "",
              "type": "uint256"
            }
          ],
          "stateMutability": "view",
          "type": "function"
        },
        {
          "inputs": [
            {
              "internalType": "uint256",
              "name": "",
              "type": "uint256"
            }
          ],
          "name": "hostingFeeHistory",
          "outputs": [
            {
              "internalType": "uint256",
              "name": "oldFee",
              "type": "uint256"
            },
            {
              "internalType": "uint256",
              "name": "newFee",
              "type": "uint256"
            },
            {
              "internalType": "uint256",
              "name": "timestamp",
              "type": "uint256"
            },
            {
              "internalType": "address",
              "name": "changedBy",
              "type": "address"
            }
          ],
          "stateMutability": "view",
          "type": "function"
        },
        {
          "inputs": [
            {
              "internalType": "address",
              "name": "operator",
              "type": "address"
            }
          ],
          "name": "isEmergencyOperator",
          "outputs": [
            {
              "internalType": "bool",
              "name": "",
              "type": "bool"
            }
          ],
          "stateMutability": "view",
          "type": "function"
        },
        {
          "inputs": [],
          "name": "owner",
          "outputs": [
            {
              "internalType": "address",
              "name": "",
              "type": "address"
            }
          ],
          "stateMutability": "view",
          "type": "function"
        },
        {
          "inputs": [],
          "name": "pause",
          "outputs": [],
          "stateMutability": "nonpayable",
          "type": "function"
        },
        {
          "inputs": [],
          "name": "paused",
          "outputs": [
            {
              "internalType": "bool",
              "name": "",
              "type": "bool"
            }
          ],
          "stateMutability": "view",
          "type": "function"
        },
        {
          "inputs": [],
          "name": "payment",
          "outputs": [
            {
              "internalType": "address",
              "name": "",
              "type": "address"
            }
          ],
          "stateMutability": "view",
          "type": "function"
        },
        {
          "inputs": [],
          "name": "paymentAddress",
          "outputs": [
            {
              "internalType": "address",
              "name": "",
              "type": "address"
            }
          ],
          "stateMutability": "view",
          "type": "function"
        },
        {
          "inputs": [],
          "name": "platformFeePercent",
          "outputs": [
            {
              "internalType": "uint256",
              "name": "",
              "type": "uint256"
            }
          ],
          "stateMutability": "view",
          "type": "function"
        },
        {
          "inputs": [],
          "name": "renounceOwnership",
          "outputs": [],
          "stateMutability": "nonpayable",
          "type": "function"
        },
        {
          "inputs": [
            {
              "internalType": "address",
              "name": "operator",
              "type": "address"
            },
            {
              "internalType": "bool",
              "name": "status",
              "type": "bool"
            }
          ],
          "name": "setEmergencyOperator",
          "outputs": [],
          "stateMutability": "nonpayable",
          "type": "function"
        },
        {
          "inputs": [
            {
              "internalType": "uint256",
              "name": "_newFee",
              "type": "uint256"
            }
          ],
          "name": "setHostingFee",
          "outputs": [],
          "stateMutability": "nonpayable",
          "type": "function"
        },
        {
          "inputs": [
            {
              "internalType": "address",
              "name": "_newPaymentAddress",
              "type": "address"
            }
          ],
          "name": "setPaymentAddress",
          "outputs": [],
          "stateMutability": "nonpayable",
          "type": "function"
        },
        {
          "inputs": [
            {
              "internalType": "uint256",
              "name": "_newFeePercent",
              "type": "uint256"
            }
          ],
          "name": "setPlatformFee",
          "outputs": [],
          "stateMutability": "nonpayable",
          "type": "function"
        },
        {
          "inputs": [
            {
              "internalType": "address",
              "name": "_newTreasuryAddress",
              "type": "address"
            }
          ],
          "name": "setTreasuryAddress",
          "outputs": [],
          "stateMutability": "nonpayable",
          "type": "function"
        },
        {
          "inputs": [],
          "name": "storageContract",
          "outputs": [
            {
              "internalType": "contract ZaaNetStorage",
              "name": "",
              "type": "address"
            }
          ],
          "stateMutability": "view",
          "type": "function"
        },
        {
          "inputs": [],
          "name": "toggleEmergencyMode",
          "outputs": [],
          "stateMutability": "nonpayable",
          "type": "function"
        },
        {
          "inputs": [
            {
              "internalType": "address",
              "name": "newOwner",
              "type": "address"
            }
          ],
          "name": "transferOwnership",
          "outputs": [],
          "stateMutability": "nonpayable",
          "type": "function"
        },
        {
          "inputs": [],
          "name": "treasury",
          "outputs": [
            {
              "internalType": "address",
              "name": "",
              "type": "address"
            }
          ],
          "stateMutability": "view",
          "type": "function"
        },
        {
          "inputs": [],
          "name": "treasuryAddress",
          "outputs": [
            {
              "internalType": "address",
              "name": "",
              "type": "address"
            }
          ],
          "stateMutability": "view",
          "type": "function"
        },
        {
          "inputs": [
            {
              "internalType": "uint256",
              "name": "",
              "type": "uint256"
            }
          ],
          "name": "treasuryHistory",
          "outputs": [
            {
              "internalType": "address",
              "name": "oldTreasury",
              "type": "address"
            },
            {
              "internalType": "address",
              "name": "newTreasury",
              "type": "address"
            },
            {
              "internalType": "uint256",
              "name": "timestamp",
              "type": "uint256"
            },
            {
              "internalType": "address",
              "name": "changedBy",
              "type": "address"
            }
          ],
          "stateMutability": "view",
          "type": "function"
        },
        {
          "inputs": [],
          "name": "unpause",
          "outputs": [],
          "stateMutability": "nonpayable",
          "type": "function"
        }
      ],
      "evm": {
        "bytecode": {
          "linkReferences": {},
          "object": "6080604052346105c2576040516000611ed83881900390601f8201601f191684016001600160401b038111858210176105ae579180859260a0946040528339810103126105ab5761004f826105e6565b9061005c602084016105e6565b92610069604082016105e6565b9260806060830151920151933315610597578354336001600160a01b031982168117865560405197916001600160a01b03167f8be0079c531659141344cd1fd0a4f28419497f9722a3daafe3b4186f6b6457e08780a3600180556007805460ff191690556001600160a01b0316958615610555575060018310158061054a575b156104f5576001600160a01b0316156104a1576305f5e1008411610449576001600160a01b031680610405575b50600380546001600160a01b031916851790556005819055600683905561013b6105c7565b908282526020820152426040820152336060820152600954680100000000000000008110156103f1576001810160095560095481101561039f57600983526101aa9190839060021b7f6e1540171b6c0c960b71a7020d9f60077f6af931a8bbf590da0223dacf75c7af016105fa565b6101b26105c7565b9281845260208401908152604084014281526060850191338352600a5495680100000000000000008710156103dd5760018701600a55600a548710156103c957600a909452925160029590951b7fc65a7bb8d6351c1cf70c95a316cc6a92839c986682d98bc35f958f4883f9d2a8810180546001600160a01b03199081166001600160a01b039889161790915593517fc65a7bb8d6351c1cf70c95a316cc6a92839c986682d98bc35f958f4883f9d2a982018054861691881691909117905590517fc65a7bb8d6351c1cf70c95a316cc6a92839c986682d98bc35f958f4883f9d2aa82015590517fc65a7bb8d6351c1cf70c95a316cc6a92839c986682d98bc35f958f4883f9d2ab90910180549092169316929092179091556102d36105c7565b90600082526020820152426040820152336060820152600b5490680100000000000000008210156103b35760018201600b55600091600b5481101561039f57600b9092526103489160009060021b7f0175b7a638427703f0dbe7bb9bbf987a2551717b34e79f33b5b1008d1fa01db9016105fa565b3360005260086020526040600020600160ff198254161790556040516001815233907f1d05944b75552398d6505993a2bc80206d8219c4454def4cfd2e97793edbbfce60203392a360405161187f90816106598239f35b634e487b7160e01b83526032600452602483fd5b634e487b7160e01b600052604160045260246000fd5b634e487b7160e01b85526032600452602485fd5b634e487b7160e01b85526041600452602485fd5b634e487b7160e01b83526041600452602483fd5b600280546001600160a01b031916821790556040514281527f7f7d6e7886dca58922d0593a44928fb5066cd0e04369c371d72eb96e61368fa890602090a238610116565b60405162461bcd60e51b815260206004820152602a60248201527f486f7374696e6720666565206d757374206265206265747765656e203020616e60448201526919080c4c0c081554d11560b21b6064820152608490fd5b60405162461bcd60e51b815260206004820152602660248201527f5061796d656e7420616464726573732063616e6e6f74206265207a65726f206160448201526564647265737360d01b6064820152608490fd5b60405162461bcd60e51b815260206004820152602760248201527f506c6174666f726d20666565206d757374206265206265747765656e20312520604482015266616e642032302560c81b6064820152608490fd5b5060148311156100e9565b62461bcd60e51b815260206004820152601f60248201527f54726561737572792063616e6e6f74206265207a65726f2061646472657373006044820152606490fd5b631e4fbdf760e01b84526004849052602484fd5b80fd5b634e487b7160e01b84526041600452602484fd5b600080fd5b60405190608082016001600160401b038111838210176103b357604052565b51906001600160a01b03821682036105c257565b9190610642578051825560208101516001830155604081015160028301556060015160039190910180546001600160a01b0319166001600160a01b0392909216919091179055565b634e487b7160e01b600052600060045260246000fdfe6080604052600436101561001257600080fd5b6000803560e01c806302e88899146113cf5780630905f560146113ac57806309705de81461075d5780630cbab4f7146113755780630d35a1671461134d57806311ce02671461132457806312e8e2c31461127557806318b4f23b146111c65780633998a681146111aa5780633f4ba83a1461111757806342f6487a14610b135780634863687e14611052578063492adaa814610f5c5780634c17b53014610ed35780635071f27b14610e5057806354d7494114610e345780635707ed4514610d3f5780635a2f406f14610c4f5780635c975abb14610c2a5780635e1e100414610b3c57806361d027b3146105e2578063633423be14610b135780636605bfda146109475780636f04d9941461092b578063715018a6146108d157806371908a03146108ac5780637a9b93c6146108795780638456cb59146107e15780638c639a85146107c35780638da5cb5b1461079c578063a10eb3541461075d578063a380b86b146106f7578063bb8f0b65146106d8578063bbeecdf014610669578063c116d9361461060b578063c5f956af146105e2578063d2643f1d1461050f578063d4ab4b401461041a578063e53377eb146103b0578063ebe7fdaa14610392578063edfbf4f1146102a5578063f2fde38b1461021f5763f851a440146101f657600080fd5b3461021c578060031936011261021c57546040516001600160a01b039091168152602090f35b80fd5b503461021c57602036600319011261021c5761023961149f565b610241611820565b6001600160a01b031680156102915781546001600160a01b03198116821783556001600160a01b03167f8be0079c531659141344cd1fd0a4f28419497f9722a3daafe3b4186f6b6457e08380a380f35b631e4fbdf760e01b82526004829052602482fd5b503461021c57602036600319011261021c576004356102c2611820565b6102d160ff6007541615611549565b6305f5e100811161034257600654906102ec82821415611595565b806006556103196040516102ff816115d1565b8381528260208201524260408201523360608201526117fb565b33917feb710718efc8ce303613ea1c9fb97a21bd1154a827cdb5ed5607eadd10e8cf968480a480f35b60405162461bcd60e51b815260206004820152602260248201527f466565206d757374206265206265747765656e203020616e6420313030205553604482015261111560f21b6064820152608490fd5b503461021c578060031936011261021c576020600654604051908152f35b503461021c57602036600319011261021c57600435600b54811015610416576103d89061150e565b50805460018201546002830154600390930154604080519384526020840192909252908201929092526001600160a01b039091166060820152608090f35b5080fd5b503461021c578060031936011261021c57600b54610437816117a8565b6104446040519182611603565b818152600b83526020810191837f0175b7a638427703f0dbe7bb9bbf987a2551717b34e79f33b5b1008d1fa01db9845b8383106104f157868587604051928392602084019060208552518091526040840192915b8181106104a6575050500390f35b9193509160206080826104e360019488516060908051835260208101516020840152604081015160408401528160018060a01b0391015116910152565b019401910191849392610498565b60046020600192610501856117c0565b815201920192019190610474565b503461021c578060031936011261021c57610528611741565b50600b5490811561059d57600019820191821161058957608061055361054d8461150e565b506117c0565b61058760405180926060908051835260208101516020840152604081015160408401528160018060a01b0391015116910152565bf35b634e487b7160e01b81526011600452602490fd5b60405162461bcd60e51b815260206004820152601f60248201527f4e6f20686f7374696e6720666565206368616e676573207265636f72646564006044820152606490fd5b503461021c578060031936011261021c576003546040516001600160a01b039091168152602090f35b503461021c578060031936011261021c5760e0600954600a54600b5460ff60075416600554906006549260018060a01b0360035416946040519687526020870152604086015215156060850152608084015260a083015260c0820152f35b503461021c57602036600319011261021c57600435338252600860205260ff60408320541680156106c5575b61069e906116b0565b6106ae6305f5e1008211156116f5565b60065490806006556103196040516102ff816115d1565b5081546001600160a01b03163314610695565b503461021c578060031936011261021c5760206040516305f5e1008152f35b503461021c57602036600319011261021c5760043590600a5482101561021c576080610722836114ef565b50805460018201546002830154600390930154604080516001600160a01b039485168152928416602084015282019390935291166060820152f35b503461021c57602036600319011261021c5760209060ff906040906001600160a01b0361078861149f565b168152600884522054166040519015158152f35b503461021c578060031936011261021c57546040516001600160a01b039091168152602090f35b503461021c578060031936011261021c576020600554604051908152f35b503461021c578060031936011261021c576107fa611820565b805460ff8160a01c1661086a5760ff60a01b1916600160a01b1781556040513381527f62e78cea01bee320cd4e420270b5ea74000d11b0c9f74754ebdbfc544b05a25890602090a1337ff9c91e483ce8bc4cc31645e7cc0f01a3371813e76469a71104841507f01402908280a280f35b63d93c066560e01b8252600482fd5b503461021c578060031936011261021c576005549060648202918083046064149015171561058957602082604051908152f35b503461021c578060031936011261021c57604060055460065482519182526020820152f35b503461021c578060031936011261021c576108ea611820565b80546001600160a01b03198116825581906001600160a01b03167f8be0079c531659141344cd1fd0a4f28419497f9722a3daafe3b4186f6b6457e08280a380f35b503461021c578060031936011261021c57602060405160018152f35b503461021c57602036600319011261021c5761096161149f565b610969611820565b61097860ff6007541615611549565b6001600160a01b03168015610ace576003546001600160a01b0381169190828214610a94576001600160a01b03191681176003556040516109b8816115d1565b82815260208101828152604082014281526060830191338352600a54600160401b811015610a80578060016109f09201600a556114ef565b949094610a6c575184546001600160a01b03199081166001600160a01b03928316178655915160018601805484169183169190911790559151600285015591516003939093018054909216921691909117905533917f23c12d5579081c5f1077c04a6b1c114d0f3de239e81a436836d30ecb099ffa138480a480f35b634e487b7160e01b88526004889052602488fd5b634e487b7160e01b88526041600452602488fd5b60405162461bcd60e51b8152602060048201526012602482015271151c99585cdd5c9e481d5b98da185b99d95960721b6044820152606490fd5b60405162461bcd60e51b815260206004820152601860248201527f496e76616c6964207472656173757279206164647265737300000000000000006044820152606490fd5b503461021c578060031936011261021c576004546040516001600160a01b039091168152602090f35b503461021c57602036600319011261021c57610b5661149f565b610b5e611820565b610b6d60ff6007541615611549565b6001600160a01b03168015610be5576004546001600160a01b0381168214610ba0576001600160a01b0319161760045580f35b60405162461bcd60e51b815260206004820152601960248201527f5061796d656e74206164647265737320756e6368616e676564000000000000006044820152606490fd5b60405162461bcd60e51b815260206004820152601760248201527f496e76616c6964207061796d656e7420616464726573730000000000000000006044820152606490fd5b503461021c578060031936011261021c5760ff6020915460a01c166040519015158152f35b503461021c57602036600319011261021c57338152600860205260ff6040822054168015610d2c575b610c81906116b0565b6002546001600160a01b03168015610ce7578082913b15610ce457818091602460405180958193635a2f406f60e01b835260043560048401525af18015610cd757610cc95780f35b610cd291611603565b388180f35b50604051903d90823e3d90fd5b50fd5b60405162461bcd60e51b815260206004820152601760248201527f53746f72616765206e6f7420696e697469616c697a65640000000000000000006044820152606490fd5b5080546001600160a01b03163314610c78565b503461021c578060031936011261021c57600954610d5c816117a8565b610d696040519182611603565b818152600983526020810191837f6e1540171b6c0c960b71a7020d9f60077f6af931a8bbf590da0223dacf75c7af845b838310610e1657868587604051928392602084019060208552518091526040840192915b818110610dcb575050500390f35b919350916020608082610e0860019488516060908051835260208101516020840152604081015160408401528160018060a01b0391015116910152565b019401910191849392610dbd565b60046020600192610e26856117c0565b815201920192019190610d99565b503461021c578060031936011261021c57602090604051908152f35b503461021c578060031936011261021c57610e69611741565b50600954908115610e8e57600019820191821161058957608061055361054d846114ba565b60405162461bcd60e51b815260206004820152601760248201527f4e6f20666565206368616e676573207265636f726465640000000000000000006044820152606490fd5b503461021c578060031936011261021c57338152600860205260ff6040822054168015610f49575b610f04906116b0565b60075460ff8082161516809160ff19161760075560405190151581527fc35ed978e97c366b3a5f9375508bcfbca850fca66bf334b9477118918e6eaa4060203392a280f35b5080546001600160a01b03163314610efb565b503461021c578060031936011261021c57600a54610f79816117a8565b610f866040519182611603565b818152600a83526020810191837fc65a7bb8d6351c1cf70c95a316cc6a92839c986682d98bc35f958f4883f9d2a8845b83831061103457868587604051928392602084019060208552518091526040840192915b818110610fe8575050500390f35b825180516001600160a01b039081168652602080830151821681880152604080840151908801526060928301519091169186019190915286955060809094019390920191600101610fda565b6004602060019261104485611766565b815201920192019190610fb6565b503461021c578060031936011261021c5761106b611741565b50600a549081156110d2576000198201918211610589576080611096611090846114ef565b50611766565b6040805182516001600160a01b039081168252602080850151821690830152838301519282019290925260609283015190911691810191909152f35b60405162461bcd60e51b815260206004820152601c60248201527f4e6f207472656173757279206368616e676573207265636f72646564000000006044820152606490fd5b503461021c578060031936011261021c57611130611820565b805460ff8160a01c161561119b5760ff60a01b191681556040513381527f5db9ee0a495bf2e6ff9c91a7834c1ba4fdd244a5e8aa4e537bd38aeae4b073aa90602090a1337fcc2b689b01792ccc45f7d02099e9ef3ffd7058e45803395690c61efdd0f0c6348280a280f35b638dfc202b60e01b8252600482fd5b503461021c578060031936011261021c57602060405160148152f35b503461021c57602036600319011261021c57600435338252600860205260ff6040832054168015611262575b6111fb906116b0565b61120860148211156116f5565b600554908060055561123960405161121f816115d1565b838152826020820152426040820152336060820152611683565b33917f9e74d2175d1604ca094d3c60971771fb54aa1a0adbadcedcb69c48cfbd4feb998480a480f35b5081546001600160a01b031633146111f2565b503461021c57602036600319011261021c57600435611292611820565b6112a160ff6007541615611549565b600181101580611319575b156112d457600554906112c182821415611595565b8060055561123960405161121f816115d1565b60405162461bcd60e51b815260206004820152601e60248201527f466565206d757374206265206265747765656e20312520616e642032302500006044820152606490fd5b5060148111156112ac565b503461021c578060031936011261021c576002546040516001600160a01b039091168152602090f35b503461021c57602036600319011261021c57600435600954811015610416576103d8906114ba565b503461021c57602036600319011261021c576005546004358181029291811591840414171561058957602082606460405191048152f35b503461021c578060031936011261021c57602060ff600754166040519015158152f35b503461021c57604036600319011261021c576113e961149f565b6024359081151580920361149b576113ff611820565b6001600160a01b031680156114565780835260086020526040832060ff1981541660ff84161790556040519182527f1d05944b75552398d6505993a2bc80206d8219c4454def4cfd2e97793edbbfce60203393a380f35b60405162461bcd60e51b815260206004820152601860248201527f496e76616c6964206f70657261746f72206164647265737300000000000000006044820152606490fd5b8280fd5b600435906001600160a01b03821682036114b557565b600080fd5b6009548110156114d957600960005260206000209060021b0190600090565b634e487b7160e01b600052603260045260246000fd5b600a548110156114d957600a60005260206000209060021b0190600090565b600b548110156114d957600b60005260206000209060021b0190600090565b80548210156114d95760005260206000209060021b0190600090565b1561155057565b60405162461bcd60e51b815260206004820152601860248201527f53797374656d20696e20656d657267656e6379206d6f646500000000000000006044820152606490fd5b1561159c57565b60405162461bcd60e51b815260206004820152600d60248201526c119959481d5b98da185b99d959609a1b6044820152606490fd5b6080810190811067ffffffffffffffff8211176115ed57604052565b634e487b7160e01b600052604160045260246000fd5b90601f8019910116810190811067ffffffffffffffff8211176115ed57604052565b919061166d578051825560208101516001830155604081015160028301556060015160039190910180546001600160a01b0319166001600160a01b0392909216919091179055565b634e487b7160e01b600052600060045260246000fd5b60095490600160401b8210156115ed576116a88260016116ae9401600955600961152d565b90611625565b565b156116b757565b60405162461bcd60e51b81526020600482015260166024820152752737ba1032b6b2b933b2b731bc9037b832b930ba37b960511b6044820152606490fd5b156116fc57565b60405162461bcd60e51b815260206004820152601960248201527f4665652063616e6e6f7420657863656564206d6178696d756d000000000000006044820152606490fd5b6040519061174e826115d1565b60006060838281528260208201528260408201520152565b90604051611773816115d1565b82546001600160a01b039081168252600184015481166020830152600284015460408301526003909301549092166060830152565b67ffffffffffffffff81116115ed5760051b60200190565b906040516117cd816115d1565b8254815260018301546020820152600283015460408201526003909201546001600160a01b03166060830152565b600b5490600160401b8210156115ed576116a88260016116ae9401600b55600b61152d565b6000546001600160a01b0316330361183457565b63118cdaa760e01b6000523360045260246000fdfea26469706673582212202ec1dbb426e6f48326e8ddc06496e0a9ba734c4ba5f8400d0f3ffa515578a70064736f6c634300081c0033",
          "opcodes": "PUSH1 0x80 PUSH1 0x40 MSTORE CALLVALUE PUSH2 0x5C2 JUMPI PUSH1 0x40 MLOAD PUSH1 0x0 PUSH2 0x1ED8 CODESIZE DUP2 SWAP1 SUB SWAP1 PUSH1 0x1F DUP3 ADD PUSH1 0x1F NOT AND DUP5 ADD PUSH1 0x1 PUSH1 0x1 PUSH1 0x40 SHL SUB DUP2 GT DUP6 DUP3 LT OR PUSH2 0x5AE JUMPI SWAP2 DUP1 DUP6 SWAP3 PUSH1 0xA0 SWAP5 PUSH1 0x40 MSTORE DUP4 CODECOPY DUP2 ADD SUB SLT PUSH2 0x5AB JUMPI PUSH2 0x4F DUP3 PUSH2 0x5E6 JUMP JUMPDEST SWAP1 PUSH2 0x5C PUSH1 0x20 DUP5 ADD PUSH2 0x5E6 JUMP JUMPDEST SWAP3 PUSH2 0x69 PUSH1 0x40 DUP3 ADD PUSH2 0x5E6 JUMP JUMPDEST SWAP3 PUSH1 0x80 PUSH1 0x60 DUP4 ADD MLOAD SWAP3 ADD MLOAD SWAP4 CALLER ISZERO PUSH2 0x597 JUMPI DUP4 SLOAD CALLER PUSH1 0x1 PUSH1 0x1 PUSH1 0xA0 SHL SUB NOT DUP3 AND DUP2 OR DUP7 SSTORE PUSH1 0x40 MLOAD SWAP8 SWAP2 PUSH1 0x1 PUSH1 0x1 PUSH1 0xA0 SHL SUB AND PUSH32 0x8BE0079C531659141344CD1FD0A4F28419497F9722A3DAAFE3B4186F6B6457E0 DUP8 DUP1 LOG3 PUSH1 0x1 DUP1 SSTORE PUSH1 0x7 DUP1 SLOAD PUSH1 0xFF NOT AND SWAP1 SSTORE PUSH1 0x1 PUSH1 0x1 PUSH1 0xA0 SHL SUB AND SWAP6 DUP7 ISZERO PUSH2 0x555 JUMPI POP PUSH1 0x1 DUP4 LT ISZERO DUP1 PUSH2 0x54A JUMPI JUMPDEST ISZERO PUSH2 0x4F5 JUMPI PUSH1 0x1 PUSH1 0x1 PUSH1 0xA0 SHL SUB AND ISZERO PUSH2 0x4A1 JUMPI PUSH4 0x5F5E100 DUP5 GT PUSH2 0x449 JUMPI PUSH1 0x1 PUSH1 0x1 PUSH1 0xA0 SHL SUB AND DUP1 PUSH2 0x405 JUMPI JUMPDEST POP PUSH1 0x3 DUP1 SLOAD PUSH1 0x1 PUSH1 0x1 PUSH1 0xA0 SHL SUB NOT AND DUP6 OR SWAP1 SSTORE PUSH1 0x5 DUP2 SWAP1 SSTORE PUSH1 0x6 DUP4 SWAP1 SSTORE PUSH2 0x13B PUSH2 0x5C7 JUMP JUMPDEST SWAP1 DUP3 DUP3 MSTORE PUSH1 0x20 DUP3 ADD MSTORE TIMESTAMP PUSH1 0x40 DUP3 ADD MSTORE CALLER PUSH1 0x60 DUP3 ADD MSTORE PUSH1 0x9 SLOAD PUSH9 0x10000000000000000 DUP2 LT ISZERO PUSH2 0x3F1 JUMPI PUSH1 0x1 DUP2 ADD PUSH1 0x9 SSTORE PUSH1 0x9 SLOAD DUP2 LT ISZERO PUSH2 0x39F JUMPI PUSH1 0x9 DUP4 MSTORE PUSH2 0x1AA SWAP2 SWAP1 DUP4 SWAP1 PUSH1 0x2 SHL PUSH32 0x6E1540171B6C0C960B71A7020D9F60077F6AF931A8BBF590DA0223DACF75C7AF ADD PUSH2 0x5FA JUMP JUMPDEST PUSH2 0x1B2 PUSH2 0x5C7 JUMP JUMPDEST SWAP3 DUP2 DUP5 MSTORE PUSH1 0x20 DUP5 ADD SWAP1 DUP2 MSTORE PUSH1 0x40 DUP5 ADD TIMESTAMP DUP2 MSTORE PUSH1 0x60 DUP6 ADD SWAP2 CALLER DUP4 MSTORE PUSH1 0xA SLOAD SWAP6 PUSH9 0x10000000000000000 DUP8 LT ISZERO PUSH2 0x3DD JUMPI PUSH1 0x1 DUP8 ADD PUSH1 0xA SSTORE PUSH1 0xA SLOAD DUP8 LT ISZERO PUSH2 0x3C9 JUMPI PUSH1 0xA SWAP1 SWAP5 MSTORE SWAP3 MLOAD PUSH1 0x2 SWAP6 SWAP1 SWAP6 SHL PUSH32 0xC65A7BB8D6351C1CF70C95A316CC6A92839C986682D98BC35F958F4883F9D2A8 DUP2 ADD DUP1 SLOAD PUSH1 0x1 PUSH1 0x1 PUSH1 0xA0 SHL SUB NOT SWAP1 DUP2 AND PUSH1 0x1 PUSH1 0x1 PUSH1 0xA0 SHL SUB SWAP9 DUP10 AND OR SWAP1 SWAP2 SSTORE SWAP4 MLOAD PUSH32 0xC65A7BB8D6351C1CF70C95A316CC6A92839C986682D98BC35F958F4883F9D2A9 DUP3 ADD DUP1 SLOAD DUP7 AND SWAP2 DUP9 AND SWAP2 SWAP1 SWAP2 OR SWAP1 SSTORE SWAP1 MLOAD PUSH32 0xC65A7BB8D6351C1CF70C95A316CC6A92839C986682D98BC35F958F4883F9D2AA DUP3 ADD SSTORE SWAP1 MLOAD PUSH32 0xC65A7BB8D6351C1CF70C95A316CC6A92839C986682D98BC35F958F4883F9D2AB SWAP1 SWAP2 ADD DUP1 SLOAD SWAP1 SWAP3 AND SWAP4 AND SWAP3 SWAP1 SWAP3 OR SWAP1 SWAP2 SSTORE PUSH2 0x2D3 PUSH2 0x5C7 JUMP JUMPDEST SWAP1 PUSH1 0x0 DUP3 MSTORE PUSH1 0x20 DUP3 ADD MSTORE TIMESTAMP PUSH1 0x40 DUP3 ADD MSTORE CALLER PUSH1 0x60 DUP3 ADD MSTORE PUSH1 0xB SLOAD SWAP1 PUSH9 0x10000000000000000 DUP3 LT ISZERO PUSH2 0x3B3 JUMPI PUSH1 0x1 DUP3 ADD PUSH1 0xB SSTORE PUSH1 0x0 SWAP2 PUSH1 0xB SLOAD DUP2 LT ISZERO PUSH2 0x39F JUMPI PUSH1 0xB SWAP1 SWAP3 MSTORE PUSH2 0x348 SWAP2 PUSH1 0x0 SWAP1 PUSH1 0x2 SHL PUSH32 0x175B7A638427703F0DBE7BB9BBF987A2551717B34E79F33B5B1008D1FA01DB9 ADD PUSH2 0x5FA JUMP JUMPDEST CALLER PUSH1 0x0 MSTORE PUSH1 0x8 PUSH1 0x20 MSTORE PUSH1 0x40 PUSH1 0x0 KECCAK256 PUSH1 0x1 PUSH1 0xFF NOT DUP3 SLOAD AND OR SWAP1 SSTORE PUSH1 0x40 MLOAD PUSH1 0x1 DUP2 MSTORE CALLER SWAP1 PUSH32 0x1D05944B75552398D6505993A2BC80206D8219C4454DEF4CFD2E97793EDBBFCE PUSH1 0x20 CALLER SWAP3 LOG3 PUSH1 0x40 MLOAD PUSH2 0x187F SWAP1 DUP2 PUSH2 0x659 DUP3 CODECOPY RETURN JUMPDEST PUSH4 0x4E487B71 PUSH1 0xE0 SHL DUP4 MSTORE PUSH1 0x32 PUSH1 0x4 MSTORE PUSH1 0x24 DUP4 REVERT JUMPDEST PUSH4 0x4E487B71 PUSH1 0xE0 SHL PUSH1 0x0 MSTORE PUSH1 0x41 PUSH1 0x4 MSTORE PUSH1 0x24 PUSH1 0x0 REVERT JUMPDEST PUSH4 0x4E487B71 PUSH1 0xE0 SHL DUP6 MSTORE PUSH1 0x32 PUSH1 0x4 MSTORE PUSH1 0x24 DUP6 REVERT JUMPDEST PUSH4 0x4E487B71 PUSH1 0xE0 SHL DUP6 MSTORE PUSH1 0x41 PUSH1 0x4 MSTORE PUSH1 0x24 DUP6 REVERT JUMPDEST PUSH4 0x4E487B71 PUSH1 0xE0 SHL DUP4 MSTORE PUSH1 0x41 PUSH1 0x4 MSTORE PUSH1 0x24 DUP4 REVERT JUMPDEST PUSH1 0x2 DUP1 SLOAD PUSH1 0x1 PUSH1 0x1 PUSH1 0xA0 SHL SUB NOT AND DUP3 OR SWAP1 SSTORE PUSH1 0x40 MLOAD TIMESTAMP DUP2 MSTORE PUSH32 0x7F7D6E7886DCA58922D0593A44928FB5066CD0E04369C371D72EB96E61368FA8 SWAP1 PUSH1 0x20 SWAP1 LOG2 CODESIZE PUSH2 0x116 JUMP JUMPDEST PUSH1 0x40 MLOAD PUSH3 0x461BCD PUSH1 0xE5 SHL DUP2 MSTORE PUSH1 0x20 PUSH1 0x4 DUP3 ADD MSTORE PUSH1 0x2A PUSH1 0x24 DUP3 ADD MSTORE PUSH32 0x486F7374696E6720666565206D757374206265206265747765656E203020616E PUSH1 0x44 DUP3 ADD MSTORE PUSH10 0x19080C4C0C081554D115 PUSH1 0xB2 SHL PUSH1 0x64 DUP3 ADD MSTORE PUSH1 0x84 SWAP1 REVERT JUMPDEST PUSH1 0x40 MLOAD PUSH3 0x461BCD PUSH1 0xE5 SHL DUP2 MSTORE PUSH1 0x20 PUSH1 0x4 DUP3 ADD MSTORE PUSH1 0x26 PUSH1 0x24 DUP3 ADD MSTORE PUSH32 0x5061796D656E7420616464726573732063616E6E6F74206265207A65726F2061 PUSH1 0x44 DUP3 ADD MSTORE PUSH6 0x646472657373 PUSH1 0xD0 SHL PUSH1 0x64 DUP3 ADD MSTORE PUSH1 0x84 SWAP1 REVERT JUMPDEST PUSH1 0x40 MLOAD PUSH3 0x461BCD PUSH1 0xE5 SHL DUP2 MSTORE PUSH1 0x20 PUSH1 0x4 DUP3 ADD MSTORE PUSH1 0x27 PUSH1 0x24 DUP3 ADD MSTORE PUSH32 0x506C6174666F726D20666565206D757374206265206265747765656E20312520 PUSH1 0x44 DUP3 ADD MSTORE PUSH7 0x616E6420323025 PUSH1 0xC8 SHL PUSH1 0x64 DUP3 ADD MSTORE PUSH1 0x84 SWAP1 REVERT JUMPDEST POP PUSH1 0x14 DUP4 GT ISZERO PUSH2 0xE9 JUMP JUMPDEST PUSH3 0x461BCD PUSH1 0xE5 SHL DUP2 MSTORE PUSH1 0x20 PUSH1 0x4 DUP3 ADD MSTORE PUSH1 0x1F PUSH1 0x24 DUP3 ADD MSTORE PUSH32 0x54726561737572792063616E6E6F74206265207A65726F206164647265737300 PUSH1 0x44 DUP3 ADD MSTORE PUSH1 0x64 SWAP1 REVERT JUMPDEST PUSH4 0x1E4FBDF7 PUSH1 0xE0 SHL DUP5 MSTORE PUSH1 0x4 DUP5 SWAP1 MSTORE PUSH1 0x24 DUP5 REVERT JUMPDEST DUP1 REVERT JUMPDEST PUSH4 0x4E487B71 PUSH1 0xE0 SHL DUP5 MSTORE PUSH1 0x41 PUSH1 0x4 MSTORE PUSH1 0x24 DUP5 REVERT JUMPDEST PUSH1 0x0 DUP1 REVERT JUMPDEST PUSH1 0x40 MLOAD SWAP1 PUSH1 0x80 DUP3 ADD PUSH1 0x1 PUSH1 0x1 PUSH1 0x40 SHL SUB DUP2 GT DUP4 DUP3 LT OR PUSH2 0x3B3 JUMPI PUSH1 0x40 MSTORE JUMP JUMPDEST MLOAD SWAP1 PUSH1 0x1 PUSH1 0x1 PUSH1 0xA0 SHL SUB DUP3 AND DUP3 SUB PUSH2 0x5C2 JUMPI JUMP JUMPDEST SWAP2 SWAP1 PUSH2 0x642 JUMPI DUP1 MLOAD DUP3 SSTORE PUSH1 0x20 DUP2 ADD MLOAD PUSH1 0x1 DUP4 ADD SSTORE PUSH1 0x40 DUP2 ADD MLOAD PUSH1 0x2 DUP4 ADD SSTORE PUSH1 0x60 ADD MLOAD PUSH1 0x3 SWAP2 SWAP1 SWAP2 ADD DUP1 SLOAD PUSH1 0x1 PUSH1 0x1 PUSH1 0xA0 SHL SUB NOT AND PUSH1 0x1 PUSH1 0x1 PUSH1 0xA0 SHL SUB SWAP3 SWAP1 SWAP3 AND SWAP2 SWAP1 SWAP2 OR SWAP1 SSTORE JUMP JUMPDEST PUSH4 0x4E487B71 PUSH1 0xE0 SHL PUSH1 0x0 MSTORE PUSH1 0x0 PUSH1 0x4 MSTORE PUSH1 0x24 PUSH1 0x0 REVERT INVALID PUSH1 0x80 PUSH1 0x40 MSTORE PUSH1 0x4 CALLDATASIZE LT ISZERO PUSH2 0x12 JUMPI PUSH1 0x0 DUP1 REVERT JUMPDEST PUSH1 0x0 DUP1 CALLDATALOAD PUSH1 0xE0 SHR DUP1 PUSH4 0x2E88899 EQ PUSH2 0x13CF JUMPI DUP1 PUSH4 0x905F560 EQ PUSH2 0x13AC JUMPI DUP1 PUSH4 0x9705DE8 EQ PUSH2 0x75D JUMPI DUP1 PUSH4 0xCBAB4F7 EQ PUSH2 0x1375 JUMPI DUP1 PUSH4 0xD35A167 EQ PUSH2 0x134D JUMPI DUP1 PUSH4 0x11CE0267 EQ PUSH2 0x1324 JUMPI DUP1 PUSH4 0x12E8E2C3 EQ PUSH2 0x1275 JUMPI DUP1 PUSH4 0x18B4F23B EQ PUSH2 0x11C6 JUMPI DUP1 PUSH4 0x3998A681 EQ PUSH2 0x11AA JUMPI DUP1 PUSH4 0x3F4BA83A EQ PUSH2 0x1117 JUMPI DUP1 PUSH4 0x42F6487A EQ PUSH2 0xB13 JUMPI DUP1 PUSH4 0x4863687E EQ PUSH2 0x1052 JUMPI DUP1 PUSH4 0x492ADAA8 EQ PUSH2 0xF5C JUMPI DUP1 PUSH4 0x4C17B530 EQ PUSH2 0xED3 JUMPI DUP1 PUSH4 0x5071F27B EQ PUSH2 0xE50 JUMPI DUP1 PUSH4 0x54D74941 EQ PUSH2 0xE34 JUMPI DUP1 PUSH4 0x5707ED45 EQ PUSH2 0xD3F JUMPI DUP1 PUSH4 0x5A2F406F EQ PUSH2 0xC4F JUMPI DUP1 PUSH4 0x5C975ABB EQ PUSH2 0xC2A JUMPI DUP1 PUSH4 0x5E1E1004 EQ PUSH2 0xB3C JUMPI DUP1 PUSH4 0x61D027B3 EQ PUSH2 0x5E2 JUMPI DUP1 PUSH4 0x633423BE EQ PUSH2 0xB13 JUMPI DUP1 PUSH4 0x6605BFDA EQ PUSH2 0x947 JUMPI DUP1 PUSH4 0x6F04D994 EQ PUSH2 0x92B JUMPI DUP1 PUSH4 0x715018A6 EQ PUSH2 0x8D1 JUMPI DUP1 PUSH4 0x71908A03 EQ PUSH2 0x8AC JUMPI DUP1 PUSH4 0x7A9B93C6 EQ PUSH2 0x879 JUMPI DUP1 PUSH4 0x8456CB59 EQ PUSH2 0x7E1 JUMPI DUP1 PUSH4 0x8C639A85 EQ PUSH2 0x7C3 JUMPI DUP1 PUSH4 0x8DA5CB5B EQ PUSH2 0x79C JUMPI DUP1 PUSH4 0xA10EB354 EQ PUSH2 0x75D JUMPI DUP1 PUSH4 0xA380B86B EQ PUSH2 0x6F7 JUMPI DUP1 PUSH4 0xBB8F0B65 EQ PUSH2 0x6D8 JUMPI DUP1 PUSH4 0xBBEECDF0 EQ PUSH2 0x669 JUMPI DUP1 PUSH4 0xC116D936 EQ PUSH2 0x60B JUMPI DUP1 PUSH4 0xC5F956AF EQ PUSH2 0x5E2 JUMPI DUP1 PUSH4 0xD2643F1D EQ PUSH2 0x50F JUMPI DUP1 PUSH4 0xD4AB4B40 EQ PUSH2 0x41A JUMPI DUP1 PUSH4 0xE53377EB EQ PUSH2 0x3B0 JUMPI DUP1 PUSH4 0xEBE7FDAA EQ PUSH2 0x392 JUMPI DUP1 PUSH4 0xEDFBF4F1 EQ PUSH2 0x2A5 JUMPI DUP1 PUSH4 0xF2FDE38B EQ PUSH2 0x21F JUMPI PUSH4 0xF851A440 EQ PUSH2 0x1F6 JUMPI PUSH1 0x0 DUP1 REVERT JUMPDEST CALLVALUE PUSH2 0x21C JUMPI DUP1 PUSH1 0x3 NOT CALLDATASIZE ADD SLT PUSH2 0x21C JUMPI SLOAD PUSH1 0x40 MLOAD PUSH1 0x1 PUSH1 0x1 PUSH1 0xA0 SHL SUB SWAP1 SWAP2 AND DUP2 MSTORE PUSH1 0x20 SWAP1 RETURN JUMPDEST DUP1 REVERT JUMPDEST POP CALLVALUE PUSH2 0x21C JUMPI PUSH1 0x20 CALLDATASIZE PUSH1 0x3 NOT ADD SLT PUSH2 0x21C JUMPI PUSH2 0x239 PUSH2 0x149F JUMP JUMPDEST PUSH2 0x241 PUSH2 0x1820 JUMP JUMPDEST PUSH1 0x1 PUSH1 0x1 PUSH1 0xA0 SHL SUB AND DUP1 ISZERO PUSH2 0x291 JUMPI DUP2 SLOAD PUSH1 0x1 PUSH1 0x1 PUSH1 0xA0 SHL SUB NOT DUP2 AND DUP3 OR DUP4 SSTORE PUSH1 0x1 PUSH1 0x1 PUSH1 0xA0 SHL SUB AND PUSH32 0x8BE0079C531659141344CD1FD0A4F28419497F9722A3DAAFE3B4186F6B6457E0 DUP4 DUP1 LOG3 DUP1 RETURN JUMPDEST PUSH4 0x1E4FBDF7 PUSH1 0xE0 SHL DUP3 MSTORE PUSH1 0x4 DUP3 SWAP1 MSTORE PUSH1 0x24 DUP3 REVERT JUMPDEST POP CALLVALUE PUSH2 0x21C JUMPI PUSH1 0x20 CALLDATASIZE PUSH1 0x3 NOT ADD SLT PUSH2 0x21C JUMPI PUSH1 0x4 CALLDATALOAD PUSH2 0x2C2 PUSH2 0x1820 JUMP JUMPDEST PUSH2 0x2D1 PUSH1 0xFF PUSH1 0x7 SLOAD AND ISZERO PUSH2 0x1549 JUMP JUMPDEST PUSH4 0x5F5E100 DUP2 GT PUSH2 0x342 JUMPI PUSH1 0x6 SLOAD SWAP1 PUSH2 0x2EC DUP3 DUP3 EQ ISZERO PUSH2 0x1595 JUMP JUMPDEST DUP1 PUSH1 0x6 SSTORE PUSH2 0x319 PUSH1 0x40 MLOAD PUSH2 0x2FF DUP2 PUSH2 0x15D1 JUMP JUMPDEST DUP4 DUP2 MSTORE DUP3 PUSH1 0x20 DUP3 ADD MSTORE TIMESTAMP PUSH1 0x40 DUP3 ADD MSTORE CALLER PUSH1 0x60 DUP3 ADD MSTORE PUSH2 0x17FB JUMP JUMPDEST CALLER SWAP2 PUSH32 0xEB710718EFC8CE303613EA1C9FB97A21BD1154A827CDB5ED5607EADD10E8CF96 DUP5 DUP1 LOG4 DUP1 RETURN JUMPDEST PUSH1 0x40 MLOAD PUSH3 0x461BCD PUSH1 0xE5 SHL DUP2 MSTORE PUSH1 0x20 PUSH1 0x4 DUP3 ADD MSTORE PUSH1 0x22 PUSH1 0x24 DUP3 ADD MSTORE PUSH32 0x466565206D757374206265206265747765656E203020616E6420313030205553 PUSH1 0x44 DUP3 ADD MSTORE PUSH2 0x1115 PUSH1 0xF2 SHL PUSH1 0x64 DUP3 ADD MSTORE PUSH1 0x84 SWAP1 REVERT JUMPDEST POP CALLVALUE PUSH2 0x21C JUMPI DUP1 PUSH1 0x3 NOT CALLDATASIZE ADD SLT PUSH2 0x21C JUMPI PUSH1 0x20 PUSH1 0x6 SLOAD PUSH1 0x40 MLOAD SWAP1 DUP2 MSTORE RETURN JUMPDEST POP CALLVALUE PUSH2 0x21C JUMPI PUSH1 0x20 CALLDATASIZE PUSH1 0x3 NOT ADD SLT PUSH2 0x21C JUMPI PUSH1 0x4 CALLDATALOAD PUSH1 0xB SLOAD DUP2 LT ISZERO PUSH2 0x416 JUMPI PUSH2 0x3D8 SWAP1 PUSH2 0x150E JUMP JUMPDEST POP DUP1 SLOAD PUSH1 0x1 DUP3 ADD SLOAD PUSH1 0x2 DUP4 ADD SLOAD PUSH1 0x3 SWAP1 SWAP4 ADD SLOAD PUSH1 0x40 DUP1 MLOAD SWAP4 DUP5 MSTORE PUSH1 0x20 DUP5 ADD SWAP3 SWAP1 SWAP3 MSTORE SWAP1 DUP3 ADD SWAP3 SWAP1 SWAP3 MSTORE PUSH1 0x1 PUSH1 0x1 PUSH1 0xA0 SHL SUB SWAP1 SWAP2 AND PUSH1 0x60 DUP3 ADD MSTORE PUSH1 0x80 SWAP1 RETURN JUMPDEST POP DUP1 REVERT JUMPDEST POP CALLVALUE PUSH2 0x21C JUMPI DUP1 PUSH1 0x3 NOT CALLDATASIZE ADD SLT PUSH2 0x21C JUMPI PUSH1 0xB SLOAD PUSH2 0x437 DUP2 PUSH2 0x17A8 JUMP JUMPDEST PUSH2 0x444 PUSH1 0x40 MLOAD SWAP2 DUP3 PUSH2 0x1603 JUMP JUMPDEST DUP2 DUP2 MSTORE PUSH1 0xB DUP4 MSTORE PUSH1 0x20 DUP2 ADD SWAP2 DUP4 PUSH32 0x175B7A638427703F0DBE7BB9BBF987A2551717B34E79F33B5B1008D1FA01DB9 DUP5 JUMPDEST DUP4 DUP4 LT PUSH2 0x4F1 JUMPI DUP7 DUP6 DUP8 PUSH1 0x40 MLOAD SWAP3 DUP4 SWAP3 PUSH1 0x20 DUP5 ADD SWAP1 PUSH1 0x20 DUP6 MSTORE MLOAD DUP1 SWAP2 MSTORE PUSH1 0x40 DUP5 ADD SWAP3 SWAP2 JUMPDEST DUP2 DUP2 LT PUSH2 0x4A6 JUMPI POP POP POP SUB SWAP1 RETURN JUMPDEST SWAP2 SWAP4 POP SWAP2 PUSH1 0x20 PUSH1 0x80 DUP3 PUSH2 0x4E3 PUSH1 0x1 SWAP5 DUP9 MLOAD PUSH1 0x60 SWAP1 DUP1 MLOAD DUP4 MSTORE PUSH1 0x20 DUP2 ADD MLOAD PUSH1 0x20 DUP5 ADD MSTORE PUSH1 0x40 DUP2 ADD MLOAD PUSH1 0x40 DUP5 ADD MSTORE DUP2 PUSH1 0x1 DUP1 PUSH1 0xA0 SHL SUB SWAP2 ADD MLOAD AND SWAP2 ADD MSTORE JUMP JUMPDEST ADD SWAP5 ADD SWAP2 ADD SWAP2 DUP5 SWAP4 SWAP3 PUSH2 0x498 JUMP JUMPDEST PUSH1 0x4 PUSH1 0x20 PUSH1 0x1 SWAP3 PUSH2 0x501 DUP6 PUSH2 0x17C0 JUMP JUMPDEST DUP2 MSTORE ADD SWAP3 ADD SWAP3 ADD SWAP2 SWAP1 PUSH2 0x474 JUMP JUMPDEST POP CALLVALUE PUSH2 0x21C JUMPI DUP1 PUSH1 0x3 NOT CALLDATASIZE ADD SLT PUSH2 0x21C JUMPI PUSH2 0x528 PUSH2 0x1741 JUMP JUMPDEST POP PUSH1 0xB SLOAD SWAP1 DUP2 ISZERO PUSH2 0x59D JUMPI PUSH1 0x0 NOT DUP3 ADD SWAP2 DUP3 GT PUSH2 0x589 JUMPI PUSH1 0x80 PUSH2 0x553 PUSH2 0x54D DUP5 PUSH2 0x150E JUMP JUMPDEST POP PUSH2 0x17C0 JUMP JUMPDEST PUSH2 0x587 PUSH1 0x40 MLOAD DUP1 SWAP3 PUSH1 0x60 SWAP1 DUP1 MLOAD DUP4 MSTORE PUSH1 0x20 DUP2 ADD MLOAD PUSH1 0x20 DUP5 ADD MSTORE PUSH1 0x40 DUP2 ADD MLOAD PUSH1 0x40 DUP5 ADD MSTORE DUP2 PUSH1 0x1 DUP1 PUSH1 0xA0 SHL SUB SWAP2 ADD MLOAD AND SWAP2 ADD MSTORE JUMP JUMPDEST RETURN JUMPDEST PUSH4 0x4E487B71 PUSH1 0xE0 SHL DUP2 MSTORE PUSH1 0x11 PUSH1 0x4 MSTORE PUSH1 0x24 SWAP1 REVERT JUMPDEST PUSH1 0x40 MLOAD PUSH3 0x461BCD PUSH1 0xE5 SHL DUP2 MSTORE PUSH1 0x20 PUSH1 0x4 DUP3 ADD MSTORE PUSH1 0x1F PUSH1 0x24 DUP3 ADD MSTORE PUSH32 0x4E6F20686F7374696E6720666565206368616E676573207265636F7264656400 PUSH1 0x44 DUP3 ADD MSTORE PUSH1 0x64 SWAP1 REVERT JUMPDEST POP CALLVALUE PUSH2 0x21C JUMPI DUP1 PUSH1 0x3 NOT CALLDATASIZE ADD SLT PUSH2 0x21C JUMPI PUSH1 0x3 SLOAD PUSH1 0x40 MLOAD PUSH1 0x1 PUSH1 0x1 PUSH1 0xA0 SHL SUB SWAP1 SWAP2 AND DUP2 MSTORE PUSH1 0x20 SWAP1 RETURN JUMPDEST POP CALLVALUE PUSH2 0x21C JUMPI DUP1 PUSH1 0x3 NOT CALLDATASIZE ADD SLT PUSH2 0x21C JUMPI PUSH1 0xE0 PUSH1 0x9 SLOAD PUSH1 0xA SLOAD PUSH1 0xB SLOAD PUSH1 0xFF PUSH1 0x7 SLOAD AND PUSH1 0x5 SLOAD SWAP1 PUSH1 0x6 SLOAD SWAP3 PUSH1 0x1 DUP1 PUSH1 0xA0 SHL SUB PUSH1 0x3 SLOAD AND SWAP5 PUSH1 0x40 MLOAD SWAP7 DUP8 MSTORE PUSH1 0x20 DUP8 ADD MSTORE PUSH1 0x40 DUP7 ADD MSTORE ISZERO ISZERO PUSH1 0x60 DUP6 ADD MSTORE PUSH1 0x80 DUP5 ADD MSTORE PUSH1 0xA0 DUP4 ADD MSTORE PUSH1 0xC0 DUP3 ADD MSTORE RETURN JUMPDEST POP CALLVALUE PUSH2 0x21C JUMPI PUSH1 0x20 CALLDATASIZE PUSH1 0x3 NOT ADD SLT PUSH2 0x21C JUMPI PUSH1 0x4 CALLDATALOAD CALLER DUP3 MSTORE PUSH1 0x8 PUSH1 0x20 MSTORE PUSH1 0xFF PUSH1 0x40 DUP4 KECCAK256 SLOAD AND DUP1 ISZERO PUSH2 0x6C5 JUMPI JUMPDEST PUSH2 0x69E SWAP1 PUSH2 0x16B0 JUMP JUMPDEST PUSH2 0x6AE PUSH4 0x5F5E100 DUP3 GT ISZERO PUSH2 0x16F5 JUMP JUMPDEST PUSH1 0x6 SLOAD SWAP1 DUP1 PUSH1 0x6 SSTORE PUSH2 0x319 PUSH1 0x40 MLOAD PUSH2 0x2FF DUP2 PUSH2 0x15D1 JUMP JUMPDEST POP DUP2 SLOAD PUSH1 0x1 PUSH1 0x1 PUSH1 0xA0 SHL SUB AND CALLER EQ PUSH2 0x695 JUMP JUMPDEST POP CALLVALUE PUSH2 0x21C JUMPI DUP1 PUSH1 0x3 NOT CALLDATASIZE ADD SLT PUSH2 0x21C JUMPI PUSH1 0x20 PUSH1 0x40 MLOAD PUSH4 0x5F5E100 DUP2 MSTORE RETURN JUMPDEST POP CALLVALUE PUSH2 0x21C JUMPI PUSH1 0x20 CALLDATASIZE PUSH1 0x3 NOT ADD SLT PUSH2 0x21C JUMPI PUSH1 0x4 CALLDATALOAD SWAP1 PUSH1 0xA SLOAD DUP3 LT ISZERO PUSH2 0x21C JUMPI PUSH1 0x80 PUSH2 0x722 DUP4 PUSH2 0x14EF JUMP JUMPDEST POP DUP1 SLOAD PUSH1 0x1 DUP3 ADD SLOAD PUSH1 0x2 DUP4 ADD SLOAD PUSH1 0x3 SWAP1 SWAP4 ADD SLOAD PUSH1 0x40 DUP1 MLOAD PUSH1 0x1 PUSH1 0x1 PUSH1 0xA0 SHL SUB SWAP5 DUP6 AND DUP2 MSTORE SWAP3 DUP5 AND PUSH1 0x20 DUP5 ADD MSTORE DUP3 ADD SWAP4 SWAP1 SWAP4 MSTORE SWAP2 AND PUSH1 0x60 DUP3 ADD MSTORE RETURN JUMPDEST POP CALLVALUE PUSH2 0x21C JUMPI PUSH1 0x20 CALLDATASIZE PUSH1 0x3 NOT ADD SLT PUSH2 0x21C JUMPI PUSH1 0x20 SWAP1 PUSH1 0xFF SWAP1 PUSH1 0x40 SWAP1 PUSH1 0x1 PUSH1 0x1 PUSH1 0xA0 SHL SUB PUSH2 0x788 PUSH2 0x149F JUMP JUMPDEST AND DUP2 MSTORE PUSH1 0x8 DUP5 MSTORE KECCAK256 SLOAD AND PUSH1 0x40 MLOAD SWAP1 ISZERO ISZERO DUP2 MSTORE RETURN JUMPDEST POP CALLVALUE PUSH2 0x21C JUMPI DUP1 PUSH1 0x3 NOT CALLDATASIZE ADD SLT PUSH2 0x21C JUMPI SLOAD PUSH1 0x40 MLOAD PUSH1 0x1 PUSH1 0x1 PUSH1 0xA0 SHL SUB SWAP1 SWAP2 AND DUP2 MSTORE PUSH1 0x20 SWAP1 RETURN JUMPDEST POP CALLVALUE PUSH2 0x21C JUMPI DUP1 PUSH1 0x3 NOT CALLDATASIZE ADD SLT PUSH2 0x21C JUMPI PUSH1 0x20 PUSH1 0x5 SLOAD PUSH1 0x40 MLOAD SWAP1 DUP2 MSTORE RETURN JUMPDEST POP CALLVALUE PUSH2 0x21C JUMPI DUP1 PUSH1 0x3 NOT CALLDATASIZE ADD SLT PUSH2 0x21C JUMPI PUSH2 0x7FA PUSH2 0x1820 JUMP JUMPDEST DUP1 SLOAD PUSH1 0xFF DUP2 PUSH1 0xA0 SHR AND PUSH2 0x86A JUMPI PUSH1 0xFF PUSH1 0xA0 SHL NOT AND PUSH1 0x1 PUSH1 0xA0 SHL OR DUP2 SSTORE PUSH1 0x40 MLOAD CALLER DUP2 MSTORE PUSH32 0x62E78CEA01BEE320CD4E420270B5EA74000D11B0C9F74754EBDBFC544B05A258 SWAP1 PUSH1 0x20 SWAP1 LOG1 CALLER PUSH32 0xF9C91E483CE8BC4CC31645E7CC0F01A3371813E76469A71104841507F0140290 DUP3 DUP1 LOG2 DUP1 RETURN JUMPDEST PUSH4 0xD93C0665 PUSH1 0xE0 SHL DUP3 MSTORE PUSH1 0x4 DUP3 REVERT JUMPDEST POP CALLVALUE PUSH2 0x21C JUMPI DUP1 PUSH1 0x3 NOT CALLDATASIZE ADD SLT PUSH2 0x21C JUMPI PUSH1 0x5 SLOAD SWAP1 PUSH1 0x64 DUP3 MUL SWAP2 DUP1 DUP4 DIV PUSH1 0x64 EQ SWAP1 ISZERO OR ISZERO PUSH2 0x589 JUMPI PUSH1 0x20 DUP3 PUSH1 0x40 MLOAD SWAP1 DUP2 MSTORE RETURN JUMPDEST POP CALLVALUE PUSH2 0x21C JUMPI DUP1 PUSH1 0x3 NOT CALLDATASIZE ADD SLT PUSH2 0x21C JUMPI PUSH1 0x40 PUSH1 0x5 SLOAD PUSH1 0x6 SLOAD DUP3 MLOAD SWAP2 DUP3 MSTORE PUSH1 0x20 DUP3 ADD MSTORE RETURN JUMPDEST POP CALLVALUE PUSH2 0x21C JUMPI DUP1 PUSH1 0x3 NOT CALLDATASIZE ADD SLT PUSH2 0x21C JUMPI PUSH2 0x8EA PUSH2 0x1820 JUMP JUMPDEST DUP1 SLOAD PUSH1 0x1 PUSH1 0x1 PUSH1 0xA0 SHL SUB NOT DUP2 AND DUP3 SSTORE DUP2 SWAP1 PUSH1 0x1 PUSH1 0x1 PUSH1 0xA0 SHL SUB AND PUSH32 0x8BE0079C531659141344CD1FD0A4F28419497F9722A3DAAFE3B4186F6B6457E0 DUP3 DUP1 LOG3 DUP1 RETURN JUMPDEST POP CALLVALUE PUSH2 0x21C JUMPI DUP1 PUSH1 0x3 NOT CALLDATASIZE ADD SLT PUSH2 0x21C JUMPI PUSH1 0x20 PUSH1 0x40 MLOAD PUSH1 0x1 DUP2 MSTORE RETURN JUMPDEST POP CALLVALUE PUSH2 0x21C JUMPI PUSH1 0x20 CALLDATASIZE PUSH1 0x3 NOT ADD SLT PUSH2 0x21C JUMPI PUSH2 0x961 PUSH2 0x149F JUMP JUMPDEST PUSH2 0x969 PUSH2 0x1820 JUMP JUMPDEST PUSH2 0x978 PUSH1 0xFF PUSH1 0x7 SLOAD AND ISZERO PUSH2 0x1549 JUMP JUMPDEST PUSH1 0x1 PUSH1 0x1 PUSH1 0xA0 SHL SUB AND DUP1 ISZERO PUSH2 0xACE JUMPI PUSH1 0x3 SLOAD PUSH1 0x1 PUSH1 0x1 PUSH1 0xA0 SHL SUB DUP2 AND SWAP2 SWAP1 DUP3 DUP3 EQ PUSH2 0xA94 JUMPI PUSH1 0x1 PUSH1 0x1 PUSH1 0xA0 SHL SUB NOT AND DUP2 OR PUSH1 0x3 SSTORE PUSH1 0x40 MLOAD PUSH2 0x9B8 DUP2 PUSH2 0x15D1 JUMP JUMPDEST DUP3 DUP2 MSTORE PUSH1 0x20 DUP2 ADD DUP3 DUP2 MSTORE PUSH1 0x40 DUP3 ADD TIMESTAMP DUP2 MSTORE PUSH1 0x60 DUP4 ADD SWAP2 CALLER DUP4 MSTORE PUSH1 0xA SLOAD PUSH1 0x1 PUSH1 0x40 SHL DUP2 LT ISZERO PUSH2 0xA80 JUMPI DUP1 PUSH1 0x1 PUSH2 0x9F0 SWAP3 ADD PUSH1 0xA SSTORE PUSH2 0x14EF JUMP JUMPDEST SWAP5 SWAP1 SWAP5 PUSH2 0xA6C JUMPI MLOAD DUP5 SLOAD PUSH1 0x1 PUSH1 0x1 PUSH1 0xA0 SHL SUB NOT SWAP1 DUP2 AND PUSH1 0x1 PUSH1 0x1 PUSH1 0xA0 SHL SUB SWAP3 DUP4 AND OR DUP7 SSTORE SWAP2 MLOAD PUSH1 0x1 DUP7 ADD DUP1 SLOAD DUP5 AND SWAP2 DUP4 AND SWAP2 SWAP1 SWAP2 OR SWAP1 SSTORE SWAP2 MLOAD PUSH1 0x2 DUP6 ADD SSTORE SWAP2 MLOAD PUSH1 0x3 SWAP4 SWAP1 SWAP4 ADD DUP1 SLOAD SWAP1 SWAP3 AND SWAP3 AND SWAP2 SWAP1 SWAP2 OR SWAP1 SSTORE CALLER SWAP2 PUSH32 0x23C12D5579081C5F1077C04A6B1C114D0F3DE239E81A436836D30ECB099FFA13 DUP5 DUP1 LOG4 DUP1 RETURN JUMPDEST PUSH4 0x4E487B71 PUSH1 0xE0 SHL DUP9 MSTORE PUSH1 0x4 DUP9 SWAP1 MSTORE PUSH1 0x24 DUP9 REVERT JUMPDEST PUSH4 0x4E487B71 PUSH1 0xE0 SHL DUP9 MSTORE PUSH1 0x41 PUSH1 0x4 MSTORE PUSH1 0x24 DUP9 REVERT JUMPDEST PUSH1 0x40 MLOAD PUSH3 0x461BCD PUSH1 0xE5 SHL DUP2 MSTORE PUSH1 0x20 PUSH1 0x4 DUP3 ADD MSTORE PUSH1 0x12 PUSH1 0x24 DUP3 ADD MSTORE PUSH18 0x151C99585CDD5C9E481D5B98DA185B99D959 PUSH1 0x72 SHL PUSH1 0x44 DUP3 ADD MSTORE PUSH1 0x64 SWAP1 REVERT JUMPDEST PUSH1 0x40 MLOAD PUSH3 0x461BCD PUSH1 0xE5 SHL DUP2 MSTORE PUSH1 0x20 PUSH1 0x4 DUP3 ADD MSTORE PUSH1 0x18 PUSH1 0x24 DUP3 ADD MSTORE PUSH32 0x496E76616C696420747265617375727920616464726573730000000000000000 PUSH1 0x44 DUP3 ADD MSTORE PUSH1 0x64 SWAP1 REVERT JUMPDEST POP CALLVALUE PUSH2 0x21C JUMPI DUP1 PUSH1 0x3 NOT CALLDATASIZE ADD SLT PUSH2 0x21C JUMPI PUSH1 0x4 SLOAD PUSH1 0x40 MLOAD PUSH1 0x1 PUSH1 0x1 PUSH1 0xA0 SHL SUB SWAP1 SWAP2 AND DUP2 MSTORE PUSH1 0x20 SWAP1 RETURN JUMPDEST POP CALLVALUE PUSH2 0x21C JUMPI PUSH1 0x20 CALLDATASIZE PUSH1 0x3 NOT ADD SLT PUSH2 0x21C JUMPI PUSH2 0xB56 PUSH2 0x149F JUMP JUMPDEST PUSH2 0xB5E PUSH2 0x1820 JUMP JUMPDEST PUSH2 0xB6D PUSH1 0xFF PUSH1 0x7 SLOAD AND ISZERO PUSH2 0x1549 JUMP JUMPDEST PUSH1 0x1 PUSH1 0x1 PUSH1 0xA0 SHL SUB AND DUP1 ISZERO PUSH2 0xBE5 JUMPI PUSH1 0x4 SLOAD PUSH1 0x1 PUSH1 0x1 PUSH1 0xA0 SHL SUB DUP2 AND DUP3 EQ PUSH2 0xBA0 JUMPI PUSH1 0x1 PUSH1 0x1 PUSH1 0xA0 SHL SUB NOT AND OR PUSH1 0x4 SSTORE DUP1 RETURN JUMPDEST PUSH1 0x40 MLOAD PUSH3 0x461BCD PUSH1 0xE5 SHL DUP2 MSTORE PUSH1 0x20 PUSH1 0x4 DUP3 ADD MSTORE PUSH1 0x19 PUSH1 0x24 DUP3 ADD MSTORE PUSH32 0x5061796D656E74206164647265737320756E6368616E67656400000000000000 PUSH1 0x44 DUP3 ADD MSTORE PUSH1 0x64 SWAP1 REVERT JUMPDEST PUSH1 0x40 MLOAD PUSH3 0x461BCD PUSH1 0xE5 SHL DUP2 MSTORE PUSH1 0x20 PUSH1 0x4 DUP3 ADD MSTORE PUSH1 0x17 PUSH1 0x24 DUP3 ADD MSTORE PUSH32 0x496E76616C6964207061796D656E742061646472657373000000000000000000 PUSH1 0x44 DUP3 ADD MSTORE PUSH1 0x64 SWAP1 REVERT JUMPDEST POP CALLVALUE PUSH2 0x21C JUMPI DUP1 PUSH1 0x3 NOT CALLDATASIZE ADD SLT PUSH2 0x21C JUMPI PUSH1 0xFF PUSH1 0x20 SWAP2 SLOAD PUSH1 0xA0 SHR AND PUSH1 0x40 MLOAD SWAP1 ISZERO ISZERO DUP2 MSTORE RETURN JUMPDEST POP CALLVALUE PUSH2 0x21C JUMPI PUSH1 0x20 CALLDATASIZE PUSH1 0x3 NOT ADD SLT PUSH2 0x21C JUMPI CALLER DUP2 MSTORE PUSH1 0x8 PUSH1 0x20 MSTORE PUSH1 0xFF PUSH1 0x40 DUP3 KECCAK256 SLOAD AND DUP1 ISZERO PUSH2 0xD2C JUMPI JUMPDEST PUSH2 0xC81 SWAP1 PUSH2 0x16B0 JUMP JUMPDEST PUSH1 0x2 SLOAD PUSH1 0x1 PUSH1 0x1 PUSH1 0xA0 SHL SUB AND DUP1 ISZERO PUSH2 0xCE7 JUMPI DUP1 DUP3 SWAP2 EXTCODESIZE ISZERO PUSH2 0xCE4 JUMPI DUP2 DUP1 SWAP2 PUSH1 0x24 PUSH1 0x40 MLOAD DUP1 SWAP6 DUP2 SWAP4 PUSH4 0x5A2F406F PUSH1 0xE0 SHL DUP4 MSTORE PUSH1 0x4 CALLDATALOAD PUSH1 0x4 DUP5 ADD MSTORE GAS CALL DUP1 ISZERO PUSH2 0xCD7 JUMPI PUSH2 0xCC9 JUMPI DUP1 RETURN JUMPDEST PUSH2 0xCD2 SWAP2 PUSH2 0x1603 JUMP JUMPDEST CODESIZE DUP2 DUP1 RETURN JUMPDEST POP PUSH1 0x40 MLOAD SWAP1 RETURNDATASIZE SWAP1 DUP3 RETURNDATACOPY RETURNDATASIZE SWAP1 REVERT JUMPDEST POP REVERT JUMPDEST PUSH1 0x40 MLOAD PUSH3 0x461BCD PUSH1 0xE5 SHL DUP2 MSTORE PUSH1 0x20 PUSH1 0x4 DUP3 ADD MSTORE PUSH1 0x17 PUSH1 0x24 DUP3 ADD MSTORE PUSH32 0x53746F72616765206E6F7420696E697469616C697A6564000000000000000000 PUSH1 0x44 DUP3 ADD MSTORE PUSH1 0x64 SWAP1 REVERT JUMPDEST POP DUP1 SLOAD PUSH1 0x1 PUSH1 0x1 PUSH1 0xA0 SHL SUB AND CALLER EQ PUSH2 0xC78 JUMP JUMPDEST POP CALLVALUE PUSH2 0x21C JUMPI DUP1 PUSH1 0x3 NOT CALLDATASIZE ADD SLT PUSH2 0x21C JUMPI PUSH1 0x9 SLOAD PUSH2 0xD5C DUP2 PUSH2 0x17A8 JUMP JUMPDEST PUSH2 0xD69 PUSH1 0x40 MLOAD SWAP2 DUP3 PUSH2 0x1603 JUMP JUMPDEST DUP2 DUP2 MSTORE PUSH1 0x9 DUP4 MSTORE PUSH1 0x20 DUP2 ADD SWAP2 DUP4 PUSH32 0x6E1540171B6C0C960B71A7020D9F60077F6AF931A8BBF590DA0223DACF75C7AF DUP5 JUMPDEST DUP4 DUP4 LT PUSH2 0xE16 JUMPI DUP7 DUP6 DUP8 PUSH1 0x40 MLOAD SWAP3 DUP4 SWAP3 PUSH1 0x20 DUP5 ADD SWAP1 PUSH1 0x20 DUP6 MSTORE MLOAD DUP1 SWAP2 MSTORE PUSH1 0x40 DUP5 ADD SWAP3 SWAP2 JUMPDEST DUP2 DUP2 LT PUSH2 0xDCB JUMPI POP POP POP SUB SWAP1 RETURN JUMPDEST SWAP2 SWAP4 POP SWAP2 PUSH1 0x20 PUSH1 0x80 DUP3 PUSH2 0xE08 PUSH1 0x1 SWAP5 DUP9 MLOAD PUSH1 0x60 SWAP1 DUP1 MLOAD DUP4 MSTORE PUSH1 0x20 DUP2 ADD MLOAD PUSH1 0x20 DUP5 ADD MSTORE PUSH1 0x40 DUP2 ADD MLOAD PUSH1 0x40 DUP5 ADD MSTORE DUP2 PUSH1 0x1 DUP1 PUSH1 0xA0 SHL SUB SWAP2 ADD MLOAD AND SWAP2 ADD MSTORE JUMP JUMPDEST ADD SWAP5 ADD SWAP2 ADD SWAP2 DUP5 SWAP4 SWAP3 PUSH2 0xDBD JUMP JUMPDEST PUSH1 0x4 PUSH1 0x20 PUSH1 0x1 SWAP3 PUSH2 0xE26 DUP6 PUSH2 0x17C0 JUMP JUMPDEST DUP2 MSTORE ADD SWAP3 ADD SWAP3 ADD SWAP2 SWAP1 PUSH2 0xD99 JUMP JUMPDEST POP CALLVALUE PUSH2 0x21C JUMPI DUP1 PUSH1 0x3 NOT CALLDATASIZE ADD SLT PUSH2 0x21C JUMPI PUSH1 0x20 SWAP1 PUSH1 0x40 MLOAD SWAP1 DUP2 MSTORE RETURN JUMPDEST POP CALLVALUE PUSH2 0x21C JUMPI DUP1 PUSH1 0x3 NOT CALLDATASIZE ADD SLT PUSH2 0x21C JUMPI PUSH2 0xE69 PUSH2 0x1741 JUMP JUMPDEST POP PUSH1 0x9 SLOAD SWAP1 DUP2 ISZERO PUSH2 0xE8E JUMPI PUSH1 0x0 NOT DUP3 ADD SWAP2 DUP3 GT PUSH2 0x589 JUMPI PUSH1 0x80 PUSH2 0x553 PUSH2 0x54D DUP5 PUSH2 0x14BA JUMP JUMPDEST PUSH1 0x40 MLOAD PUSH3 0x461BCD PUSH1 0xE5 SHL DUP2 MSTORE PUSH1 0x20 PUSH1 0x4 DUP3 ADD MSTORE PUSH1 0x17 PUSH1 0x24 DUP3 ADD MSTORE PUSH32 0x4E6F20666565206368616E676573207265636F72646564000000000000000000 PUSH1 0x44 DUP3 ADD MSTORE PUSH1 0x64 SWAP1 REVERT JUMPDEST POP CALLVALUE PUSH2 0x21C JUMPI DUP1 PUSH1 0x3 NOT CALLDATASIZE ADD SLT PUSH2 0x21C JUMPI CALLER DUP2 MSTORE PUSH1 0x8 PUSH1 0x20 MSTORE PUSH1 0xFF PUSH1 0x40 DUP3 KECCAK256 SLOAD AND DUP1 ISZERO PUSH2 0xF49 JUMPI JUMPDEST PUSH2 0xF04 SWAP1 PUSH2 0x16B0 JUMP JUMPDEST PUSH1 0x7 SLOAD PUSH1 0xFF DUP1 DUP3 AND ISZERO AND DUP1 SWAP2 PUSH1 0xFF NOT AND OR PUSH1 0x7 SSTORE PUSH1 0x40 MLOAD SWAP1 ISZERO ISZERO DUP2 MSTORE PUSH32 0xC35ED978E97C366B3A5F9375508BCFBCA850FCA66BF334B9477118918E6EAA40 PUSH1 0x20 CALLER SWAP3 LOG2 DUP1 RETURN JUMPDEST POP DUP1 SLOAD PUSH1 0x1 PUSH1 0x1 PUSH1 0xA0 SHL SUB AND CALLER EQ PUSH2 0xEFB JUMP JUMPDEST POP CALLVALUE PUSH2 0x21C JUMPI DUP1 PUSH1 0x3 NOT CALLDATASIZE ADD SLT PUSH2 0x21C JUMPI PUSH1 0xA SLOAD PUSH2 0xF79 DUP2 PUSH2 0x17A8 JUMP JUMPDEST PUSH2 0xF86 PUSH1 0x40 MLOAD SWAP2 DUP3 PUSH2 0x1603 JUMP JUMPDEST DUP2 DUP2 MSTORE PUSH1 0xA DUP4 MSTORE PUSH1 0x20 DUP2 ADD SWAP2 DUP4 PUSH32 0xC65A7BB8D6351C1CF70C95A316CC6A92839C986682D98BC35F958F4883F9D2A8 DUP5 JUMPDEST DUP4 DUP4 LT PUSH2 0x1034 JUMPI DUP7 DUP6 DUP8 PUSH1 0x40 MLOAD SWAP3 DUP4 SWAP3 PUSH1 0x20 DUP5 ADD SWAP1 PUSH1 0x20 DUP6 MSTORE MLOAD DUP1 SWAP2 MSTORE PUSH1 0x40 DUP5 ADD SWAP3 SWAP2 JUMPDEST DUP2 DUP2 LT PUSH2 0xFE8 JUMPI POP POP POP SUB SWAP1 RETURN JUMPDEST DUP3 MLOAD DUP1 MLOAD PUSH1 0x1 PUSH1 0x1 PUSH1 0xA0 SHL SUB SWAP1 DUP2 AND DUP7 MSTORE PUSH1 0x20 DUP1 DUP4 ADD MLOAD DUP3 AND DUP2 DUP9 ADD MSTORE PUSH1 0x40 DUP1 DUP5 ADD MLOAD SWAP1 DUP9 ADD MSTORE PUSH1 0x60 SWAP3 DUP4 ADD MLOAD SWAP1 SWAP2 AND SWAP2 DUP7 ADD SWAP2 SWAP1 SWAP2 MSTORE DUP7 SWAP6 POP PUSH1 0x80 SWAP1 SWAP5 ADD SWAP4 SWAP1 SWAP3 ADD SWAP2 PUSH1 0x1 ADD PUSH2 0xFDA JUMP JUMPDEST PUSH1 0x4 PUSH1 0x20 PUSH1 0x1 SWAP3 PUSH2 0x1044 DUP6 PUSH2 0x1766 JUMP JUMPDEST DUP2 MSTORE ADD SWAP3 ADD SWAP3 ADD SWAP2 SWAP1 PUSH2 0xFB6 JUMP JUMPDEST POP CALLVALUE PUSH2 0x21C JUMPI DUP1 PUSH1 0x3 NOT CALLDATASIZE ADD SLT PUSH2 0x21C JUMPI PUSH2 0x106B PUSH2 0x1741 JUMP JUMPDEST POP PUSH1 0xA SLOAD SWAP1 DUP2 ISZERO PUSH2 0x10D2 JUMPI PUSH1 0x0 NOT DUP3 ADD SWAP2 DUP3 GT PUSH2 0x589 JUMPI PUSH1 0x80 PUSH2 0x1096 PUSH2 0x1090 DUP5 PUSH2 0x14EF JUMP JUMPDEST POP PUSH2 0x1766 JUMP JUMPDEST PUSH1 0x40 DUP1 MLOAD DUP3 MLOAD PUSH1 0x1 PUSH1 0x1 PUSH1 0xA0 SHL SUB SWAP1 DUP2 AND DUP3 MSTORE PUSH1 0x20 DUP1 DUP6 ADD MLOAD DUP3 AND SWAP1 DUP4 ADD MSTORE DUP4 DUP4 ADD MLOAD SWAP3 DUP3 ADD SWAP3 SWAP1 SWAP3 MSTORE PUSH1 0x60 SWAP3 DUP4 ADD MLOAD SWAP1 SWAP2 AND SWAP2 DUP2 ADD SWAP2 SWAP1 SWAP2 MSTORE RETURN JUMPDEST PUSH1 0x40 MLOAD PUSH3 0x461BCD PUSH1 0xE5 SHL DUP2 MSTORE PUSH1 0x20 PUSH1 0x4 DUP3 ADD MSTORE PUSH1 0x1C PUSH1 0x24 DUP3 ADD MSTORE PUSH32 0x4E6F207472656173757279206368616E676573207265636F7264656400000000 PUSH1 0x44 DUP3 ADD MSTORE PUSH1 0x64 SWAP1 REVERT JUMPDEST POP CALLVALUE PUSH2 0x21C JUMPI DUP1 PUSH1 0x3 NOT CALLDATASIZE ADD SLT PUSH2 0x21C JUMPI PUSH2 0x1130 PUSH2 0x1820 JUMP JUMPDEST DUP1 SLOAD PUSH1 0xFF DUP2 PUSH1 0xA0 SHR AND ISZERO PUSH2 0x119B JUMPI PUSH1 0xFF PUSH1 0xA0 SHL NOT AND DUP2 SSTORE PUSH1 0x40 MLOAD CALLER DUP2 MSTORE PUSH32 0x5DB9EE0A495BF2E6FF9C91A7834C1BA4FDD244A5E8AA4E537BD38AEAE4B073AA SWAP1 PUSH1 0x20 SWAP1 LOG1 CALLER PUSH32 0xCC2B689B01792CCC45F7D02099E9EF3FFD7058E45803395690C61EFDD0F0C634 DUP3 DUP1 LOG2 DUP1 RETURN JUMPDEST PUSH4 0x8DFC202B PUSH1 0xE0 SHL DUP3 MSTORE PUSH1 0x4 DUP3 REVERT JUMPDEST POP CALLVALUE PUSH2 0x21C JUMPI DUP1 PUSH1 0x3 NOT CALLDATASIZE ADD SLT PUSH2 0x21C JUMPI PUSH1 0x20 PUSH1 0x40 MLOAD PUSH1 0x14 DUP2 MSTORE RETURN JUMPDEST POP CALLVALUE PUSH2 0x21C JUMPI PUSH1 0x20 CALLDATASIZE PUSH1 0x3 NOT ADD SLT PUSH2 0x21C JUMPI PUSH1 0x4 CALLDATALOAD CALLER DUP3 MSTORE PUSH1 0x8 PUSH1 0x20 MSTORE PUSH1 0xFF PUSH1 0x40 DUP4 KECCAK256 SLOAD AND DUP1 ISZERO PUSH2 0x1262 JUMPI JUMPDEST PUSH2 0x11FB SWAP1 PUSH2 0x16B0 JUMP JUMPDEST PUSH2 0x1208 PUSH1 0x14 DUP3 GT ISZERO PUSH2 0x16F5 JUMP JUMPDEST PUSH1 0x5 SLOAD SWAP1 DUP1 PUSH1 0x5 SSTORE PUSH2 0x1239 PUSH1 0x40 MLOAD PUSH2 0x121F DUP2 PUSH2 0x15D1 JUMP JUMPDEST DUP4 DUP2 MSTORE DUP3 PUSH1 0x20 DUP3 ADD MSTORE TIMESTAMP PUSH1 0x40 DUP3 ADD MSTORE CALLER PUSH1 0x60 DUP3 ADD MSTORE PUSH2 0x1683 JUMP JUMPDEST CALLER SWAP2 PUSH32 0x9E74D2175D1604CA094D3C60971771FB54AA1A0ADBADCEDCB69C48CFBD4FEB99 DUP5 DUP1 LOG4 DUP1 RETURN JUMPDEST POP DUP2 SLOAD PUSH1 0x1 PUSH1 0x1 PUSH1 0xA0 SHL SUB AND CALLER EQ PUSH2 0x11F2 JUMP JUMPDEST POP CALLVALUE PUSH2 0x21C JUMPI PUSH1 0x20 CALLDATASIZE PUSH1 0x3 NOT ADD SLT PUSH2 0x21C JUMPI PUSH1 0x4 CALLDATALOAD PUSH2 0x1292 PUSH2 0x1820 JUMP JUMPDEST PUSH2 0x12A1 PUSH1 0xFF PUSH1 0x7 SLOAD AND ISZERO PUSH2 0x1549 JUMP JUMPDEST PUSH1 0x1 DUP2 LT ISZERO DUP1 PUSH2 0x1319 JUMPI JUMPDEST ISZERO PUSH2 0x12D4 JUMPI PUSH1 0x5 SLOAD SWAP1 PUSH2 0x12C1 DUP3 DUP3 EQ ISZERO PUSH2 0x1595 JUMP JUMPDEST DUP1 PUSH1 0x5 SSTORE PUSH2 0x1239 PUSH1 0x40 MLOAD PUSH2 0x121F DUP2 PUSH2 0x15D1 JUMP JUMPDEST PUSH1 0x40 MLOAD PUSH3 0x461BCD PUSH1 0xE5 SHL DUP2 MSTORE PUSH1 0x20 PUSH1 0x4 DUP3 ADD MSTORE PUSH1 0x1E PUSH1 0x24 DUP3 ADD MSTORE PUSH32 0x466565206D757374206265206265747765656E20312520616E64203230250000 PUSH1 0x44 DUP3 ADD MSTORE PUSH1 0x64 SWAP1 REVERT JUMPDEST POP PUSH1 0x14 DUP2 GT ISZERO PUSH2 0x12AC JUMP JUMPDEST POP CALLVALUE PUSH2 0x21C JUMPI DUP1 PUSH1 0x3 NOT CALLDATASIZE ADD SLT PUSH2 0x21C JUMPI PUSH1 0x2 SLOAD PUSH1 0x40 MLOAD PUSH1 0x1 PUSH1 0x1 PUSH1 0xA0 SHL SUB SWAP1 SWAP2 AND DUP2 MSTORE PUSH1 0x20 SWAP1 RETURN JUMPDEST POP CALLVALUE PUSH2 0x21C JUMPI PUSH1 0x20 CALLDATASIZE PUSH1 0x3 NOT ADD SLT PUSH2 0x21C JUMPI PUSH1 0x4 CALLDATALOAD PUSH1 0x9 SLOAD DUP2 LT ISZERO PUSH2 0x416 JUMPI PUSH2 0x3D8 SWAP1 PUSH2 0x14BA JUMP JUMPDEST POP CALLVALUE PUSH2 0x21C JUMPI PUSH1 0x20 CALLDATASIZE PUSH1 0x3 NOT ADD SLT PUSH2 0x21C JUMPI PUSH1 0x5 SLOAD PUSH1 0x4 CALLDATALOAD DUP2 DUP2 MUL SWAP3 SWAP2 DUP2 ISZERO SWAP2 DUP5 DIV EQ OR ISZERO PUSH2 0x589 JUMPI PUSH1 0x20 DUP3 PUSH1 0x64 PUSH1 0x40 MLOAD SWAP2 DIV DUP2 MSTORE RETURN JUMPDEST POP CALLVALUE PUSH2 0x21C JUMPI DUP1 PUSH1 0x3 NOT CALLDATASIZE ADD SLT PUSH2 0x21C JUMPI PUSH1 0x20 PUSH1 0xFF PUSH1 0x7 SLOAD AND PUSH1 0x40 MLOAD SWAP1 ISZERO ISZERO DUP2 MSTORE RETURN JUMPDEST POP CALLVALUE PUSH2 0x21C JUMPI PUSH1 0x40 CALLDATASIZE PUSH1 0x3 NOT ADD SLT PUSH2 0x21C JUMPI PUSH2 0x13E9 PUSH2 0x149F JUMP JUMPDEST PUSH1 0x24 CALLDATALOAD SWAP1 DUP2 ISZERO ISZERO DUP1 SWAP3 SUB PUSH2 0x149B JUMPI PUSH2 0x13FF PUSH2 0x1820 JUMP JUMPDEST PUSH1 0x1 PUSH1 0x1 PUSH1 0xA0 SHL SUB AND DUP1 ISZERO PUSH2 0x1456 JUMPI DUP1 DUP4 MSTORE PUSH1 0x8 PUSH1 0x20 MSTORE PUSH1 0x40 DUP4 KECCAK256 PUSH1 0xFF NOT DUP2 SLOAD AND PUSH1 0xFF DUP5 AND OR SWAP1 SSTORE PUSH1 0x40 MLOAD SWAP2 DUP3 MSTORE PUSH32 0x1D05944B75552398D6505993A2BC80206D8219C4454DEF4CFD2E97793EDBBFCE PUSH1 0x20 CALLER SWAP4 LOG3 DUP1 RETURN JUMPDEST PUSH1 0x40 MLOAD PUSH3 0x461BCD PUSH1 0xE5 SHL DUP2 MSTORE PUSH1 0x20 PUSH1 0x4 DUP3 ADD MSTORE PUSH1 0x18 PUSH1 0x24 DUP3 ADD MSTORE PUSH32 0x496E76616C6964206F70657261746F7220616464726573730000000000000000 PUSH1 0x44 DUP3 ADD MSTORE PUSH1 0x64 SWAP1 REVERT JUMPDEST DUP3 DUP1 REVERT JUMPDEST PUSH1 0x4 CALLDATALOAD SWAP1 PUSH1 0x1 PUSH1 0x1 PUSH1 0xA0 SHL SUB DUP3 AND DUP3 SUB PUSH2 0x14B5 JUMPI JUMP JUMPDEST PUSH1 0x0 DUP1 REVERT JUMPDEST PUSH1 0x9 SLOAD DUP2 LT ISZERO PUSH2 0x14D9 JUMPI PUSH1 0x9 PUSH1 0x0 MSTORE PUSH1 0x20 PUSH1 0x0 KECCAK256 SWAP1 PUSH1 0x2 SHL ADD SWAP1 PUSH1 0x0 SWAP1 JUMP JUMPDEST PUSH4 0x4E487B71 PUSH1 0xE0 SHL PUSH1 0x0 MSTORE PUSH1 0x32 PUSH1 0x4 MSTORE PUSH1 0x24 PUSH1 0x0 REVERT JUMPDEST PUSH1 0xA SLOAD DUP2 LT ISZERO PUSH2 0x14D9 JUMPI PUSH1 0xA PUSH1 0x0 MSTORE PUSH1 0x20 PUSH1 0x0 KECCAK256 SWAP1 PUSH1 0x2 SHL ADD SWAP1 PUSH1 0x0 SWAP1 JUMP JUMPDEST PUSH1 0xB SLOAD DUP2 LT ISZERO PUSH2 0x14D9 JUMPI PUSH1 0xB PUSH1 0x0 MSTORE PUSH1 0x20 PUSH1 0x0 KECCAK256 SWAP1 PUSH1 0x2 SHL ADD SWAP1 PUSH1 0x0 SWAP1 JUMP JUMPDEST DUP1 SLOAD DUP3 LT ISZERO PUSH2 0x14D9 JUMPI PUSH1 0x0 MSTORE PUSH1 0x20 PUSH1 0x0 KECCAK256 SWAP1 PUSH1 0x2 SHL ADD SWAP1 PUSH1 0x0 SWAP1 JUMP JUMPDEST ISZERO PUSH2 0x1550 JUMPI JUMP JUMPDEST PUSH1 0x40 MLOAD PUSH3 0x461BCD PUSH1 0xE5 SHL DUP2 MSTORE PUSH1 0x20 PUSH1 0x4 DUP3 ADD MSTORE PUSH1 0x18 PUSH1 0x24 DUP3 ADD MSTORE PUSH32 0x53797374656D20696E20656D657267656E6379206D6F64650000000000000000 PUSH1 0x44 DUP3 ADD MSTORE PUSH1 0x64 SWAP1 REVERT JUMPDEST ISZERO PUSH2 0x159C JUMPI JUMP JUMPDEST PUSH1 0x40 MLOAD PUSH3 0x461BCD PUSH1 0xE5 SHL DUP2 MSTORE PUSH1 0x20 PUSH1 0x4 DUP3 ADD MSTORE PUSH1 0xD PUSH1 0x24 DUP3 ADD MSTORE PUSH13 0x119959481D5B98DA185B99D959 PUSH1 0x9A SHL PUSH1 0x44 DUP3 ADD MSTORE PUSH1 0x64 SWAP1 REVERT JUMPDEST PUSH1 0x80 DUP2 ADD SWAP1 DUP2 LT PUSH8 0xFFFFFFFFFFFFFFFF DUP3 GT OR PUSH2 0x15ED JUMPI PUSH1 0x40 MSTORE JUMP JUMPDEST PUSH4 0x4E487B71 PUSH1 0xE0 SHL PUSH1 0x0 MSTORE PUSH1 0x41 PUSH1 0x4 MSTORE PUSH1 0x24 PUSH1 0x0 REVERT JUMPDEST SWAP1 PUSH1 0x1F DUP1 NOT SWAP2 ADD AND DUP2 ADD SWAP1 DUP2 LT PUSH8 0xFFFFFFFFFFFFFFFF DUP3 GT OR PUSH2 0x15ED JUMPI PUSH1 0x40 MSTORE JUMP JUMPDEST SWAP2 SWAP1 PUSH2 0x166D JUMPI DUP1 MLOAD DUP3 SSTORE PUSH1 0x20 DUP2 ADD MLOAD PUSH1 0x1 DUP4 ADD SSTORE PUSH1 0x40 DUP2 ADD MLOAD PUSH1 0x2 DUP4 ADD SSTORE PUSH1 0x60 ADD MLOAD PUSH1 0x3 SWAP2 SWAP1 SWAP2 ADD DUP1 SLOAD PUSH1 0x1 PUSH1 0x1 PUSH1 0xA0 SHL SUB NOT AND PUSH1 0x1 PUSH1 0x1 PUSH1 0xA0 SHL SUB SWAP3 SWAP1 SWAP3 AND SWAP2 SWAP1 SWAP2 OR SWAP1 SSTORE JUMP JUMPDEST PUSH4 0x4E487B71 PUSH1 0xE0 SHL PUSH1 0x0 MSTORE PUSH1 0x0 PUSH1 0x4 MSTORE PUSH1 0x24 PUSH1 0x0 REVERT JUMPDEST PUSH1 0x9 SLOAD SWAP1 PUSH1 0x1 PUSH1 0x40 SHL DUP3 LT ISZERO PUSH2 0x15ED JUMPI PUSH2 0x16A8 DUP3 PUSH1 0x1 PUSH2 0x16AE SWAP5 ADD PUSH1 0x9 SSTORE PUSH1 0x9 PUSH2 0x152D JUMP JUMPDEST SWAP1 PUSH2 0x1625 JUMP JUMPDEST JUMP JUMPDEST ISZERO PUSH2 0x16B7 JUMPI JUMP JUMPDEST PUSH1 0x40 MLOAD PUSH3 0x461BCD PUSH1 0xE5 SHL DUP2 MSTORE PUSH1 0x20 PUSH1 0x4 DUP3 ADD MSTORE PUSH1 0x16 PUSH1 0x24 DUP3 ADD MSTORE PUSH22 0x2737BA1032B6B2B933B2B731BC9037B832B930BA37B9 PUSH1 0x51 SHL PUSH1 0x44 DUP3 ADD MSTORE PUSH1 0x64 SWAP1 REVERT JUMPDEST ISZERO PUSH2 0x16FC JUMPI JUMP JUMPDEST PUSH1 0x40 MLOAD PUSH3 0x461BCD PUSH1 0xE5 SHL DUP2 MSTORE PUSH1 0x20 PUSH1 0x4 DUP3 ADD MSTORE PUSH1 0x19 PUSH1 0x24 DUP3 ADD MSTORE PUSH32 0x4665652063616E6E6F7420657863656564206D6178696D756D00000000000000 PUSH1 0x44 DUP3 ADD MSTORE PUSH1 0x64 SWAP1 REVERT JUMPDEST PUSH1 0x40 MLOAD SWAP1 PUSH2 0x174E DUP3 PUSH2 0x15D1 JUMP JUMPDEST PUSH1 0x0 PUSH1 0x60 DUP4 DUP3 DUP2 MSTORE DUP3 PUSH1 0x20 DUP3 ADD MSTORE DUP3 PUSH1 0x40 DUP3 ADD MSTORE ADD MSTORE JUMP JUMPDEST SWAP1 PUSH1 0x40 MLOAD PUSH2 0x1773 DUP2 PUSH2 0x15D1 JUMP JUMPDEST DUP3 SLOAD PUSH1 0x1 PUSH1 0x1 PUSH1 0xA0 SHL SUB SWAP1 DUP2 AND DUP3 MSTORE PUSH1 0x1 DUP5 ADD SLOAD DUP2 AND PUSH1 0x20 DUP4 ADD MSTORE PUSH1 0x2 DUP5 ADD SLOAD PUSH1 0x40 DUP4 ADD MSTORE PUSH1 0x3 SWAP1 SWAP4 ADD SLOAD SWAP1 SWAP3 AND PUSH1 0x60 DUP4 ADD MSTORE JUMP JUMPDEST PUSH8 0xFFFFFFFFFFFFFFFF DUP2 GT PUSH2 0x15ED JUMPI PUSH1 0x5 SHL PUSH1 0x20 ADD SWAP1 JUMP JUMPDEST SWAP1 PUSH1 0x40 MLOAD PUSH2 0x17CD DUP2 PUSH2 0x15D1 JUMP JUMPDEST DUP3 SLOAD DUP2 MSTORE PUSH1 0x1 DUP4 ADD SLOAD PUSH1 0x20 DUP3 ADD MSTORE PUSH1 0x2 DUP4 ADD SLOAD PUSH1 0x40 DUP3 ADD MSTORE PUSH1 0x3 SWAP1 SWAP3 ADD SLOAD PUSH1 0x1 PUSH1 0x1 PUSH1 0xA0 SHL SUB AND PUSH1 0x60 DUP4 ADD MSTORE JUMP JUMPDEST PUSH1 0xB SLOAD SWAP1 PUSH1 0x1 PUSH1 0x40 SHL DUP3 LT ISZERO PUSH2 0x15ED JUMPI PUSH2 0x16A8 DUP3 PUSH1 0x1 PUSH2 0x16AE SWAP5 ADD PUSH1 0xB SSTORE PUSH1 0xB PUSH2 0x152D JUMP JUMPDEST PUSH1 0x0 SLOAD PUSH1 0x1 PUSH1 0x1 PUSH1 0xA0 SHL SUB AND CALLER SUB PUSH2 0x1834 JUMPI JUMP JUMPDEST PUSH4 0x118CDAA7 PUSH1 0xE0 SHL PUSH1 0x0 MSTORE CALLER PUSH1 0x4 MSTORE PUSH1 0x24 PUSH1 0x0 REVERT INVALID LOG2 PUSH5 0x6970667358 0x22 SLT KECCAK256 0x2E 0xC1 0xDB 0xB4 0x26 0xE6 DELEGATECALL DUP4 0x26 0xE8 0xDD 0xC0 PUSH5 0x96E0A9BA73 0x4C 0x4B 0xA5 0xF8 BLOCKHASH 0xD 0xF EXTCODEHASH STATICCALL MLOAD SSTORE PUSH25 0xA70064736F6C634300081C0033000000000000000000000000 "
        },
        "methodIdentifiers": {
          "MAX_HOSTING_FEE()": "bb8f0b65",
          "MAX_PLATFORM_FEE()": "3998a681",
          "MIN_HOSTING_FEE()": "54d74941",
          "MIN_PLATFORM_FEE()": "6f04d994",
          "admin()": "f851a440",
          "calculatePlatformFee(uint256)": "0cbab4f7",
          "emergencyDeactivateNetwork(uint256)": "5a2f406f",
          "emergencyMode()": "0905f560",
          "emergencyOperators(address)": "09705de8",
          "emergencySetHostingFee(uint256)": "bbeecdf0",
          "emergencySetPlatformFee(uint256)": "18b4f23b",
          "feeHistory(uint256)": "0d35a167",
          "getAdminStats()": "c116d936",
          "getCurrentFees()": "71908a03",
          "getFeeHistory()": "5707ed45",
          "getHostingFeeHistory()": "d4ab4b40",
          "getLatestFeeChange()": "5071f27b",
          "getLatestHostingFeeChange()": "d2643f1d",
          "getLatestTreasuryChange()": "4863687e",
          "getPlatformFeeBasisPoints()": "7a9b93c6",
          "getTreasuryHistory()": "492adaa8",
          "hostingFee()": "ebe7fdaa",
          "hostingFeeHistory(uint256)": "e53377eb",
          "isEmergencyOperator(address)": "a10eb354",
          "owner()": "8da5cb5b",
          "pause()": "8456cb59",
          "paused()": "5c975abb",
          "payment()": "42f6487a",
          "paymentAddress()": "633423be",
          "platformFeePercent()": "8c639a85",
          "renounceOwnership()": "715018a6",
          "setEmergencyOperator(address,bool)": "02e88899",
          "setHostingFee(uint256)": "edfbf4f1",
          "setPaymentAddress(address)": "5e1e1004",
          "setPlatformFee(uint256)": "12e8e2c3",
          "setTreasuryAddress(address)": "6605bfda",
          "storageContract()": "11ce0267",
          "toggleEmergencyMode()": "4c17b530",
          "transferOwnership(address)": "f2fde38b",
          "treasury()": "61d027b3",
          "treasuryAddress()": "c5f956af",
          "treasuryHistory(uint256)": "a380b86b",
          "unpause()": "3f4ba83a"
        }
      }
    }
  }
}