{
  "contracts/ZaanetContract.sol": {
    "ZaanetContract": {
      "abi": [
        {
          "inputs": [],
          "stateMutability": "nonpayable",
          "type": "constructor"
        },
        {
          "inputs": [],
          "name": "EnforcedPause",
          "type": "error"
        },
        {
          "inputs": [],
          "name": "ExpectedPause",
          "type": "error"
        },
        {
          "inputs": [],
          "name": "ReentrancyGuardReentrantCall",
          "type": "error"
        },
        {
          "anonymous": false,
          "inputs": [
            {
              "indexed": false,
              "internalType": "uint256",
              "name": "newFeePercent",
              "type": "uint256"
            }
          ],
          "name": "FeePercentUpdated",
          "type": "event"
        },
        {
          "anonymous": false,
          "inputs": [
            {
              "indexed": false,
              "internalType": "uint256",
              "name": "id",
              "type": "uint256"
            },
            {
              "indexed": false,
              "internalType": "address",
              "name": "hostAddress",
              "type": "address"
            }
          ],
          "name": "HostDeleted",
          "type": "event"
        },
        {
          "anonymous": false,
          "inputs": [
            {
              "indexed": false,
              "internalType": "uint256",
              "name": "id",
              "type": "uint256"
            },
            {
              "indexed": false,
              "internalType": "address",
              "name": "hostAddress",
              "type": "address"
            }
          ],
          "name": "HostedNetworkUpdated",
          "type": "event"
        },
        {
          "anonymous": false,
          "inputs": [
            {
              "indexed": false,
              "internalType": "uint256",
              "name": "id",
              "type": "uint256"
            },
            {
              "indexed": false,
              "internalType": "address",
              "name": "hostAddress",
              "type": "address"
            }
          ],
          "name": "NewNetworkHosted",
          "type": "event"
        },
        {
          "anonymous": false,
          "inputs": [
            {
              "indexed": false,
              "internalType": "address",
              "name": "account",
              "type": "address"
            }
          ],
          "name": "Paused",
          "type": "event"
        },
        {
          "anonymous": false,
          "inputs": [
            {
              "indexed": false,
              "internalType": "uint256",
              "name": "id",
              "type": "uint256"
            },
            {
              "indexed": false,
              "internalType": "address",
              "name": "user",
              "type": "address"
            },
            {
              "indexed": false,
              "internalType": "uint256",
              "name": "amount",
              "type": "uint256"
            },
            {
              "indexed": false,
              "internalType": "uint256",
              "name": "timestamp",
              "type": "uint256"
            }
          ],
          "name": "PaymentReceived",
          "type": "event"
        },
        {
          "anonymous": false,
          "inputs": [
            {
              "indexed": false,
              "internalType": "address",
              "name": "account",
              "type": "address"
            }
          ],
          "name": "Unpaused",
          "type": "event"
        },
        {
          "inputs": [],
          "name": "MAX_HOSTS",
          "outputs": [
            {
              "internalType": "uint256",
              "name": "",
              "type": "uint256"
            }
          ],
          "stateMutability": "view",
          "type": "function"
        },
        {
          "inputs": [
            {
              "internalType": "uint256",
              "name": "_id",
              "type": "uint256"
            }
          ],
          "name": "acceptPayment",
          "outputs": [],
          "stateMutability": "payable",
          "type": "function"
        },
        {
          "inputs": [
            {
              "internalType": "uint256",
              "name": "_id",
              "type": "uint256"
            }
          ],
          "name": "deleteHostedNetwork",
          "outputs": [],
          "stateMutability": "nonpayable",
          "type": "function"
        },
        {
          "inputs": [
            {
              "internalType": "uint256",
              "name": "_id",
              "type": "uint256"
            }
          ],
          "name": "getHostedNetworkById",
          "outputs": [
            {
              "components": [
                {
                  "internalType": "uint256",
                  "name": "id",
                  "type": "uint256"
                },
                {
                  "internalType": "address",
                  "name": "hostAddress",
                  "type": "address"
                },
                {
                  "internalType": "string",
                  "name": "name",
                  "type": "string"
                },
                {
                  "internalType": "string",
                  "name": "passwordCID",
                  "type": "string"
                },
                {
                  "components": [
                    {
                      "internalType": "string",
                      "name": "city",
                      "type": "string"
                    },
                    {
                      "internalType": "string",
                      "name": "country",
                      "type": "string"
                    },
                    {
                      "internalType": "string",
                      "name": "area",
                      "type": "string"
                    },
                    {
                      "internalType": "string",
                      "name": "latitude",
                      "type": "string"
                    },
                    {
                      "internalType": "string",
                      "name": "longitude",
                      "type": "string"
                    }
                  ],
                  "internalType": "struct ZaanetContract.Location",
                  "name": "location",
                  "type": "tuple"
                },
                {
                  "internalType": "string",
                  "name": "wifispeed",
                  "type": "string"
                },
                {
                  "internalType": "uint256",
                  "name": "price",
                  "type": "uint256"
                },
                {
                  "internalType": "string",
                  "name": "description",
                  "type": "string"
                },
                {
                  "internalType": "string",
                  "name": "imageCID",
                  "type": "string"
                },
                {
                  "internalType": "bool",
                  "name": "isActive",
                  "type": "bool"
                },
                {
                  "internalType": "uint256",
                  "name": "createdAt",
                  "type": "uint256"
                },
                {
                  "internalType": "uint256",
                  "name": "updatedAt",
                  "type": "uint256"
                }
              ],
              "internalType": "struct ZaanetContract.ZaanetHost",
              "name": "",
              "type": "tuple"
            }
          ],
          "stateMutability": "view",
          "type": "function"
        },
        {
          "inputs": [
            {
              "internalType": "address",
              "name": "_host",
              "type": "address"
            }
          ],
          "name": "getHostedNetworksByAddress",
          "outputs": [
            {
              "components": [
                {
                  "internalType": "uint256",
                  "name": "id",
                  "type": "uint256"
                },
                {
                  "internalType": "address",
                  "name": "hostAddress",
                  "type": "address"
                },
                {
                  "internalType": "string",
                  "name": "name",
                  "type": "string"
                },
                {
                  "internalType": "string",
                  "name": "passwordCID",
                  "type": "string"
                },
                {
                  "components": [
                    {
                      "internalType": "string",
                      "name": "city",
                      "type": "string"
                    },
                    {
                      "internalType": "string",
                      "name": "country",
                      "type": "string"
                    },
                    {
                      "internalType": "string",
                      "name": "area",
                      "type": "string"
                    },
                    {
                      "internalType": "string",
                      "name": "latitude",
                      "type": "string"
                    },
                    {
                      "internalType": "string",
                      "name": "longitude",
                      "type": "string"
                    }
                  ],
                  "internalType": "struct ZaanetContract.Location",
                  "name": "location",
                  "type": "tuple"
                },
                {
                  "internalType": "string",
                  "name": "wifispeed",
                  "type": "string"
                },
                {
                  "internalType": "uint256",
                  "name": "price",
                  "type": "uint256"
                },
                {
                  "internalType": "string",
                  "name": "description",
                  "type": "string"
                },
                {
                  "internalType": "string",
                  "name": "imageCID",
                  "type": "string"
                },
                {
                  "internalType": "bool",
                  "name": "isActive",
                  "type": "bool"
                },
                {
                  "internalType": "uint256",
                  "name": "createdAt",
                  "type": "uint256"
                },
                {
                  "internalType": "uint256",
                  "name": "updatedAt",
                  "type": "uint256"
                }
              ],
              "internalType": "struct ZaanetContract.ZaanetHost[]",
              "name": "",
              "type": "tuple[]"
            }
          ],
          "stateMutability": "view",
          "type": "function"
        },
        {
          "inputs": [
            {
              "internalType": "uint256",
              "name": "_id",
              "type": "uint256"
            }
          ],
          "name": "getPasswordCID",
          "outputs": [
            {
              "internalType": "string",
              "name": "",
              "type": "string"
            }
          ],
          "stateMutability": "view",
          "type": "function"
        },
        {
          "inputs": [
            {
              "internalType": "uint256",
              "name": "",
              "type": "uint256"
            },
            {
              "internalType": "address",
              "name": "",
              "type": "address"
            }
          ],
          "name": "hasPaid",
          "outputs": [
            {
              "internalType": "bool",
              "name": "",
              "type": "bool"
            }
          ],
          "stateMutability": "view",
          "type": "function"
        },
        {
          "inputs": [
            {
              "internalType": "string",
              "name": "_name",
              "type": "string"
            },
            {
              "internalType": "string",
              "name": "_passwordCID",
              "type": "string"
            },
            {
              "internalType": "string",
              "name": "_city",
              "type": "string"
            },
            {
              "internalType": "string",
              "name": "_country",
              "type": "string"
            },
            {
              "internalType": "string",
              "name": "_area",
              "type": "string"
            },
            {
              "internalType": "string",
              "name": "_latitude",
              "type": "string"
            },
            {
              "internalType": "string",
              "name": "_longitude",
              "type": "string"
            },
            {
              "internalType": "string",
              "name": "_wifispeed",
              "type": "string"
            },
            {
              "internalType": "uint256",
              "name": "_price",
              "type": "uint256"
            },
            {
              "internalType": "string",
              "name": "_description",
              "type": "string"
            },
            {
              "internalType": "string",
              "name": "_imageCID",
              "type": "string"
            }
          ],
          "name": "hostANetwork",
          "outputs": [],
          "stateMutability": "nonpayable",
          "type": "function"
        },
        {
          "inputs": [
            {
              "internalType": "uint256",
              "name": "",
              "type": "uint256"
            }
          ],
          "name": "hostedNetworkById",
          "outputs": [
            {
              "internalType": "uint256",
              "name": "id",
              "type": "uint256"
            },
            {
              "internalType": "address",
              "name": "hostAddress",
              "type": "address"
            },
            {
              "internalType": "string",
              "name": "name",
              "type": "string"
            },
            {
              "internalType": "string",
              "name": "passwordCID",
              "type": "string"
            },
            {
              "components": [
                {
                  "internalType": "string",
                  "name": "city",
                  "type": "string"
                },
                {
                  "internalType": "string",
                  "name": "country",
                  "type": "string"
                },
                {
                  "internalType": "string",
                  "name": "area",
                  "type": "string"
                },
                {
                  "internalType": "string",
                  "name": "latitude",
                  "type": "string"
                },
                {
                  "internalType": "string",
                  "name": "longitude",
                  "type": "string"
                }
              ],
              "internalType": "struct ZaanetContract.Location",
              "name": "location",
              "type": "tuple"
            },
            {
              "internalType": "string",
              "name": "wifispeed",
              "type": "string"
            },
            {
              "internalType": "uint256",
              "name": "price",
              "type": "uint256"
            },
            {
              "internalType": "string",
              "name": "description",
              "type": "string"
            },
            {
              "internalType": "string",
              "name": "imageCID",
              "type": "string"
            },
            {
              "internalType": "bool",
              "name": "isActive",
              "type": "bool"
            },
            {
              "internalType": "uint256",
              "name": "createdAt",
              "type": "uint256"
            },
            {
              "internalType": "uint256",
              "name": "updatedAt",
              "type": "uint256"
            }
          ],
          "stateMutability": "view",
          "type": "function"
        },
        {
          "inputs": [
            {
              "internalType": "address",
              "name": "",
              "type": "address"
            },
            {
              "internalType": "uint256",
              "name": "",
              "type": "uint256"
            }
          ],
          "name": "hostedNetworksByAddress",
          "outputs": [
            {
              "internalType": "uint256",
              "name": "id",
              "type": "uint256"
            },
            {
              "internalType": "address",
              "name": "hostAddress",
              "type": "address"
            },
            {
              "internalType": "string",
              "name": "name",
              "type": "string"
            },
            {
              "internalType": "string",
              "name": "passwordCID",
              "type": "string"
            },
            {
              "components": [
                {
                  "internalType": "string",
                  "name": "city",
                  "type": "string"
                },
                {
                  "internalType": "string",
                  "name": "country",
                  "type": "string"
                },
                {
                  "internalType": "string",
                  "name": "area",
                  "type": "string"
                },
                {
                  "internalType": "string",
                  "name": "latitude",
                  "type": "string"
                },
                {
                  "internalType": "string",
                  "name": "longitude",
                  "type": "string"
                }
              ],
              "internalType": "struct ZaanetContract.Location",
              "name": "location",
              "type": "tuple"
            },
            {
              "internalType": "string",
              "name": "wifispeed",
              "type": "string"
            },
            {
              "internalType": "uint256",
              "name": "price",
              "type": "uint256"
            },
            {
              "internalType": "string",
              "name": "description",
              "type": "string"
            },
            {
              "internalType": "string",
              "name": "imageCID",
              "type": "string"
            },
            {
              "internalType": "bool",
              "name": "isActive",
              "type": "bool"
            },
            {
              "internalType": "uint256",
              "name": "createdAt",
              "type": "uint256"
            },
            {
              "internalType": "uint256",
              "name": "updatedAt",
              "type": "uint256"
            }
          ],
          "stateMutability": "view",
          "type": "function"
        },
        {
          "inputs": [
            {
              "internalType": "address",
              "name": "",
              "type": "address"
            }
          ],
          "name": "isHost",
          "outputs": [
            {
              "internalType": "bool",
              "name": "",
              "type": "bool"
            }
          ],
          "stateMutability": "view",
          "type": "function"
        },
        {
          "inputs": [],
          "name": "networkIdCounter",
          "outputs": [
            {
              "internalType": "uint256",
              "name": "",
              "type": "uint256"
            }
          ],
          "stateMutability": "view",
          "type": "function"
        },
        {
          "inputs": [
            {
              "internalType": "address",
              "name": "",
              "type": "address"
            },
            {
              "internalType": "uint256",
              "name": "",
              "type": "uint256"
            }
          ],
          "name": "networkIdsByAddress",
          "outputs": [
            {
              "internalType": "uint256",
              "name": "",
              "type": "uint256"
            }
          ],
          "stateMutability": "view",
          "type": "function"
        },
        {
          "inputs": [],
          "name": "owner",
          "outputs": [
            {
              "internalType": "address",
              "name": "",
              "type": "address"
            }
          ],
          "stateMutability": "view",
          "type": "function"
        },
        {
          "inputs": [],
          "name": "pause",
          "outputs": [],
          "stateMutability": "nonpayable",
          "type": "function"
        },
        {
          "inputs": [],
          "name": "paused",
          "outputs": [
            {
              "internalType": "bool",
              "name": "",
              "type": "bool"
            }
          ],
          "stateMutability": "view",
          "type": "function"
        },
        {
          "inputs": [
            {
              "internalType": "address",
              "name": "",
              "type": "address"
            }
          ],
          "name": "totalEarnedByAddress",
          "outputs": [
            {
              "internalType": "uint256",
              "name": "",
              "type": "uint256"
            }
          ],
          "stateMutability": "view",
          "type": "function"
        },
        {
          "inputs": [
            {
              "internalType": "uint256",
              "name": "",
              "type": "uint256"
            }
          ],
          "name": "totalEarnedByHostedNetwork",
          "outputs": [
            {
              "internalType": "uint256",
              "name": "",
              "type": "uint256"
            }
          ],
          "stateMutability": "view",
          "type": "function"
        },
        {
          "inputs": [],
          "name": "unpause",
          "outputs": [],
          "stateMutability": "nonpayable",
          "type": "function"
        },
        {
          "inputs": [
            {
              "internalType": "uint256",
              "name": "_id",
              "type": "uint256"
            },
            {
              "components": [
                {
                  "internalType": "string",
                  "name": "name",
                  "type": "string"
                },
                {
                  "internalType": "string",
                  "name": "passwordCID",
                  "type": "string"
                },
                {
                  "internalType": "string",
                  "name": "city",
                  "type": "string"
                },
                {
                  "internalType": "string",
                  "name": "country",
                  "type": "string"
                },
                {
                  "internalType": "string",
                  "name": "area",
                  "type": "string"
                },
                {
                  "internalType": "string",
                  "name": "latitude",
                  "type": "string"
                },
                {
                  "internalType": "string",
                  "name": "longitude",
                  "type": "string"
                },
                {
                  "internalType": "string",
                  "name": "wifispeed",
                  "type": "string"
                },
                {
                  "internalType": "uint256",
                  "name": "price",
                  "type": "uint256"
                },
                {
                  "internalType": "string",
                  "name": "description",
                  "type": "string"
                },
                {
                  "internalType": "string",
                  "name": "imageCID",
                  "type": "string"
                },
                {
                  "internalType": "bool",
                  "name": "isActive",
                  "type": "bool"
                }
              ],
              "internalType": "struct ZaanetContract.UpdateNetworkParams",
              "name": "params",
              "type": "tuple"
            }
          ],
          "name": "updateHostedNetwork",
          "outputs": [],
          "stateMutability": "nonpayable",
          "type": "function"
        },
        {
          "inputs": [
            {
              "internalType": "uint256",
              "name": "_newFeePercent",
              "type": "uint256"
            }
          ],
          "name": "updateZaanetFeePercent",
          "outputs": [],
          "stateMutability": "nonpayable",
          "type": "function"
        },
        {
          "inputs": [],
          "name": "withdrawFees",
          "outputs": [],
          "stateMutability": "nonpayable",
          "type": "function"
        },
        {
          "inputs": [],
          "name": "zaanetFeePercent",
          "outputs": [
            {
              "internalType": "uint256",
              "name": "",
              "type": "uint256"
            }
          ],
          "stateMutability": "view",
          "type": "function"
        }
      ],
      "evm": {
        "bytecode": {
          "linkReferences": {},
          "object": "60806040526005600355348015601457600080fd5b50600160008190555033600460006101000a81548173ffffffffffffffffffffffffffffffffffffffff021916908373ffffffffffffffffffffffffffffffffffffffff1602179055506000600281905550615f38806100756000396000f3fe6080604052600436106101405760003560e01c80638456cb59116100b6578063bf846e041161006f578063bf846e0414610441578063c87b66161461045d578063cd83fb9a1461049a578063d8bc7fff146104d7578063eb2931b714610514578063efd3268e1461055157610140565b80638456cb59146103315780638da5cb5b146103485780638e1daeec14610373578063aeba84611461039c578063b6202c78146103c7578063bc3ede291461040457610140565b80633f4ba83a116101085780633f4ba83a14610247578063476343ee1461025e5780634d0e5d13146102755780635c975abb146102b257806361043f59146102dd57806377e7eba51461030657610140565b8063034148001461014557806306eaca0f1461016e57806320765bd1146101ab578063217c682d146101d4578063357740a3146101ff575b600080fd5b34801561015157600080fd5b5061016c600480360381019061016791906147f3565b610599565b005b34801561017a57600080fd5b50610195600480360381019061019091906148ad565b610b13565b6040516101a291906148e9565b60405180910390f35b3480156101b757600080fd5b506101d260048036038101906101cd9190614904565b610b2b565b005b3480156101e057600080fd5b506101e9611032565b6040516101f691906148e9565b60405180910390f35b34801561020b57600080fd5b5061022660048036038101906102219190614931565b611038565b60405161023e9c9b9a99989796959493929190614aea565b60405180910390f35b34801561025357600080fd5b5061025c61165e565b005b34801561026a57600080fd5b506102736116f8565b005b34801561028157600080fd5b5061029c60048036038101906102979190614931565b61183c565b6040516102a991906148e9565b60405180910390f35b3480156102be57600080fd5b506102c761186d565b6040516102d49190614bce565b60405180910390f35b3480156102e957600080fd5b5061030460048036038101906102ff9190614904565b611884565b005b34801561031257600080fd5b5061031b6119dd565b60405161032891906148e9565b60405180910390f35b34801561033d57600080fd5b506103466119e2565b005b34801561035457600080fd5b5061035d611a7c565b60405161036a9190614be9565b60405180910390f35b34801561037f57600080fd5b5061039a60048036038101906103959190614c04565b611aa2565b005b3480156103a857600080fd5b506103b1612115565b6040516103be91906148e9565b60405180910390f35b3480156103d357600080fd5b506103ee60048036038101906103e991906148ad565b61211b565b6040516103fb91906150b8565b60405180910390f35b34801561041057600080fd5b5061042b60048036038101906104269190614904565b612921565b60405161043891906148e9565b60405180910390f35b61045b60048036038101906104569190614904565b612939565b005b34801561046957600080fd5b50610484600480360381019061047f9190614904565b613250565b60405161049191906150da565b60405180910390f35b3480156104a657600080fd5b506104c160048036038101906104bc9190614904565b6133ee565b6040516104ce9190615223565b60405180910390f35b3480156104e357600080fd5b506104fe60048036038101906104f99190615245565b613ad6565b60405161050b9190614bce565b60405180910390f35b34801561052057600080fd5b5061053b600480360381019061053691906148ad565b613b05565b6040516105489190614bce565b60405180910390f35b34801561055d57600080fd5b5061057860048036038101906105739190614904565b613b25565b6040516105909c9b9a99989796959493929190614aea565b60405180910390f35b6105a161413e565b60006008600084815260200190815260200160002060000154036105fa576040517f08c379a00000000000000000000000000000000000000000000000000000000081526004016105f1906152d1565b60405180910390fd5b3373ffffffffffffffffffffffffffffffffffffffff166008600084815260200190815260200160002060010160009054906101000a900473ffffffffffffffffffffffffffffffffffffffff1673ffffffffffffffffffffffffffffffffffffffff161461069e576040517f08c379a00000000000000000000000000000000000000000000000000000000081526004016106959061533d565b60405180910390fd5b6000816000015151116106e6576040517f08c379a00000000000000000000000000000000000000000000000000000000081526004016106dd906153a9565b60405180910390fd5b60008160200151511161072e576040517f08c379a000000000000000000000000000000000000000000000000000000000815260040161072590615415565b60405180910390fd5b600081610100015111610776576040517f08c379a000000000000000000000000000000000000000000000000000000000815260040161076d90615481565b60405180910390fd5b600060086000848152602001908152602001600020905081600001518160020190816107a291906156ad565b5081602001518160030190816107b891906156ad565b506040518060a001604052808360400151815260200183606001518152602001836080015181526020018360a0015181526020018360c0015181525081600401600082015181600001908161080d91906156ad565b50602082015181600101908161082391906156ad565b50604082015181600201908161083991906156ad565b50606082015181600301908161084f91906156ad565b50608082015181600401908161086591906156ad565b509050508160e0015181600901908161087e91906156ad565b5081610100015181600a018190555081610120015181600b0190816108a391906156ad565b5081610140015181600c0190816108ba91906156ad565b504281600f018190555081610160015181600d0160006101000a81548160ff02191690831515021790555080600560003373ffffffffffffffffffffffffffffffffffffffff1673ffffffffffffffffffffffffffffffffffffffff1681526020019081526020016000206000858152602001908152602001600020600082015481600001556001820160009054906101000a900473ffffffffffffffffffffffffffffffffffffffff168160010160006101000a81548173ffffffffffffffffffffffffffffffffffffffff021916908373ffffffffffffffffffffffffffffffffffffffff160217905550600282018160020190816109bb9190615795565b50600382018160030190816109d09190615795565b506004820181600401600082018160000190816109ed9190615795565b5060018201816001019081610a029190615795565b5060028201816002019081610a179190615795565b5060038201816003019081610a2c9190615795565b5060048201816004019081610a419190615795565b50505060098201816009019081610a589190615795565b50600a82015481600a0155600b820181600b019081610a779190615795565b50600c820181600c019081610a8c9190615795565b50600d820160009054906101000a900460ff1681600d0160006101000a81548160ff021916908315150217905550600e82015481600e0155600f82015481600f01559050507f1b405fec10a051ff3085c73e2e829750feb4a5367f94813845e70a2094674354816000015433604051610b0692919061587d565b60405180910390a1505050565b600b6020528060005260406000206000915090505481565b610b3361413e565b60006008600083815260200190815260200160002090506000816000015403610b91576040517f08c379a0000000000000000000000000000000000000000000000000000000008152600401610b88906152d1565b60405180910390fd5b3373ffffffffffffffffffffffffffffffffffffffff168160010160009054906101000a900473ffffffffffffffffffffffffffffffffffffffff1673ffffffffffffffffffffffffffffffffffffffff1614610c23576040517f08c379a0000000000000000000000000000000000000000000000000000000008152600401610c1a906158f2565b60405180910390fd5b600860008381526020019081526020016000206000808201600090556001820160006101000a81549073ffffffffffffffffffffffffffffffffffffffff0219169055600282016000610c7691906142dc565b600382016000610c8691906142dc565b6004820160008082016000610c9b91906142dc565b600182016000610cab91906142dc565b600282016000610cbb91906142dc565b600382016000610ccb91906142dc565b600482016000610cdb91906142dc565b5050600982016000610ced91906142dc565b600a820160009055600b82016000610d0591906142dc565b600c82016000610d1591906142dc565b600d820160006101000a81549060ff0219169055600e820160009055600f8201600090555050600560003373ffffffffffffffffffffffffffffffffffffffff1673ffffffffffffffffffffffffffffffffffffffff16815260200190815260200160002060008381526020019081526020016000206000808201600090556001820160006101000a81549073ffffffffffffffffffffffffffffffffffffffff0219169055600282016000610dcb91906142dc565b600382016000610ddb91906142dc565b6004820160008082016000610df091906142dc565b600182016000610e0091906142dc565b600282016000610e1091906142dc565b600382016000610e2091906142dc565b600482016000610e3091906142dc565b5050600982016000610e4291906142dc565b600a820160009055600b82016000610e5a91906142dc565b600c82016000610e6a91906142dc565b600d820160006101000a81549060ff0219169055600e820160009055600f82016000905550506000600660003373ffffffffffffffffffffffffffffffffffffffff1673ffffffffffffffffffffffffffffffffffffffff168152602001908152602001600020905060005b8180549050811015610f8e5783828281548110610ef657610ef5615912565b5b906000526020600020015403610f81578160018380549050610f189190615970565b81548110610f2957610f28615912565b5b9060005260206000200154828281548110610f4757610f46615912565b5b906000526020600020018190555081805480610f6657610f656159a4565b5b60019003818190600052602060002001600090559055610f8e565b8080600101915050610ed6565b506000818054905003610ff4576000600760003373ffffffffffffffffffffffffffffffffffffffff1673ffffffffffffffffffffffffffffffffffffffff16815260200190815260200160002060006101000a81548160ff0219169083151502179055505b7f730235942568740698ea239cf71ee4b193696db908a2aa74401b28a743e25d19833360405161102592919061587d565b60405180910390a1505050565b60025481565b6005602052816000526040600020602052806000526040600020600091509150508060000154908060010160009054906101000a900473ffffffffffffffffffffffffffffffffffffffff1690806002018054611094906154d0565b80601f01602080910402602001604051908101604052809291908181526020018280546110c0906154d0565b801561110d5780601f106110e25761010080835404028352916020019161110d565b820191906000526020600020905b8154815290600101906020018083116110f057829003601f168201915b505050505090806003018054611122906154d0565b80601f016020809104026020016040519081016040528092919081815260200182805461114e906154d0565b801561119b5780601f106111705761010080835404028352916020019161119b565b820191906000526020600020905b81548152906001019060200180831161117e57829003601f168201915b505050505090806004016040518060a00160405290816000820180546111c0906154d0565b80601f01602080910402602001604051908101604052809291908181526020018280546111ec906154d0565b80156112395780601f1061120e57610100808354040283529160200191611239565b820191906000526020600020905b81548152906001019060200180831161121c57829003601f168201915b50505050508152602001600182018054611252906154d0565b80601f016020809104026020016040519081016040528092919081815260200182805461127e906154d0565b80156112cb5780601f106112a0576101008083540402835291602001916112cb565b820191906000526020600020905b8154815290600101906020018083116112ae57829003601f168201915b505050505081526020016002820180546112e4906154d0565b80601f0160208091040260200160405190810160405280929190818152602001828054611310906154d0565b801561135d5780601f106113325761010080835404028352916020019161135d565b820191906000526020600020905b81548152906001019060200180831161134057829003601f168201915b50505050508152602001600382018054611376906154d0565b80601f01602080910402602001604051908101604052809291908181526020018280546113a2906154d0565b80156113ef5780601f106113c4576101008083540402835291602001916113ef565b820191906000526020600020905b8154815290600101906020018083116113d257829003601f168201915b50505050508152602001600482018054611408906154d0565b80601f0160208091040260200160405190810160405280929190818152602001828054611434906154d0565b80156114815780601f1061145657610100808354040283529160200191611481565b820191906000526020600020905b81548152906001019060200180831161146457829003601f168201915b5050505050815250509080600901805461149a906154d0565b80601f01602080910402602001604051908101604052809291908181526020018280546114c6906154d0565b80156115135780601f106114e857610100808354040283529160200191611513565b820191906000526020600020905b8154815290600101906020018083116114f657829003601f168201915b50505050509080600a01549080600b01805461152e906154d0565b80601f016020809104026020016040519081016040528092919081815260200182805461155a906154d0565b80156115a75780601f1061157c576101008083540402835291602001916115a7565b820191906000526020600020905b81548152906001019060200180831161158a57829003601f168201915b50505050509080600c0180546115bc906154d0565b80601f01602080910402602001604051908101604052809291908181526020018280546115e8906154d0565b80156116355780601f1061160a57610100808354040283529160200191611635565b820191906000526020600020905b81548152906001019060200180831161161857829003601f168201915b50505050509080600d0160009054906101000a900460ff169080600e01549080600f015490508c565b600460009054906101000a900473ffffffffffffffffffffffffffffffffffffffff1673ffffffffffffffffffffffffffffffffffffffff163373ffffffffffffffffffffffffffffffffffffffff16146116ee576040517f08c379a00000000000000000000000000000000000000000000000000000000081526004016116e590615a1f565b60405180910390fd5b6116f661417f565b565b600460009054906101000a900473ffffffffffffffffffffffffffffffffffffffff1673ffffffffffffffffffffffffffffffffffffffff163373ffffffffffffffffffffffffffffffffffffffff1614611788576040517f08c379a000000000000000000000000000000000000000000000000000000000815260040161177f90615a1f565b60405180910390fd5b6000479050600081116117d0576040517f08c379a00000000000000000000000000000000000000000000000000000000081526004016117c790615a8b565b60405180910390fd5b600460009054906101000a900473ffffffffffffffffffffffffffffffffffffffff1673ffffffffffffffffffffffffffffffffffffffff166108fc829081150290604051600060405180830381858888f19350505050158015611838573d6000803e3d6000fd5b5050565b6006602052816000526040600020818154811061185857600080fd5b90600052602060002001600091509150505481565b6000600160009054906101000a900460ff16905090565b600460009054906101000a900473ffffffffffffffffffffffffffffffffffffffff1673ffffffffffffffffffffffffffffffffffffffff163373ffffffffffffffffffffffffffffffffffffffff1614611914576040517f08c379a000000000000000000000000000000000000000000000000000000000815260040161190b90615a1f565b60405180910390fd5b6064811115611958576040517f08c379a000000000000000000000000000000000000000000000000000000000815260040161194f90615af7565b60405180910390fd5b600181101561199c576040517f08c379a000000000000000000000000000000000000000000000000000000000815260040161199390615b63565b60405180910390fd5b806003819055507f64d1887078a96d281ed60dd69ba75bfb6b5cd2cb4c2d2538b2eb7816a4c646ea816040516119d291906148e9565b60405180910390a150565b600381565b600460009054906101000a900473ffffffffffffffffffffffffffffffffffffffff1673ffffffffffffffffffffffffffffffffffffffff163373ffffffffffffffffffffffffffffffffffffffff1614611a72576040517f08c379a0000000000000000000000000000000000000000000000000000000008152600401611a6990615a1f565b60405180910390fd5b611a7a6141e2565b565b600460009054906101000a900473ffffffffffffffffffffffffffffffffffffffff1681565b611aaa61413e565b6003600660003373ffffffffffffffffffffffffffffffffffffffff1673ffffffffffffffffffffffffffffffffffffffff1681526020019081526020016000208054905010611b2f576040517f08c379a0000000000000000000000000000000000000000000000000000000008152600401611b2690615bcf565b60405180910390fd5b60008b5111611b73576040517f08c379a0000000000000000000000000000000000000000000000000000000008152600401611b6a906153a9565b60405180910390fd5b60008a5111611bb7576040517f08c379a0000000000000000000000000000000000000000000000000000000008152600401611bae90615415565b60405180910390fd5b60008311611bfa576040517f08c379a0000000000000000000000000000000000000000000000000000000008152600401611bf190615c3b565b60405180910390fd5b60026000815480929190611c0d90615c5b565b9190505550600060405180610180016040528060025481526020013373ffffffffffffffffffffffffffffffffffffffff1681526020018d81526020018c81526020016040518060a001604052808d81526020018c81526020018b81526020018a815260200189815250815260200186815260200185815260200184815260200183815260200160011515815260200142815260200142815250905080600560003373ffffffffffffffffffffffffffffffffffffffff1673ffffffffffffffffffffffffffffffffffffffff168152602001908152602001600020600060025481526020019081526020016000206000820151816000015560208201518160010160006101000a81548173ffffffffffffffffffffffffffffffffffffffff021916908373ffffffffffffffffffffffffffffffffffffffff1602179055506040820151816002019081611d6291906156ad565b506060820151816003019081611d7891906156ad565b506080820151816004016000820151816000019081611d9791906156ad565b506020820151816001019081611dad91906156ad565b506040820151816002019081611dc391906156ad565b506060820151816003019081611dd991906156ad565b506080820151816004019081611def91906156ad565b50505060a0820151816009019081611e0791906156ad565b5060c082015181600a015560e082015181600b019081611e2791906156ad565b5061010082015181600c019081611e3e91906156ad565b5061012082015181600d0160006101000a81548160ff02191690831515021790555061014082015181600e015561016082015181600f0155905050600660003373ffffffffffffffffffffffffffffffffffffffff1673ffffffffffffffffffffffffffffffffffffffff1681526020019081526020016000206002549080600181540180825580915050600190039060005260206000200160009091909190915055806008600060025481526020019081526020016000206000820151816000015560208201518160010160006101000a81548173ffffffffffffffffffffffffffffffffffffffff021916908373ffffffffffffffffffffffffffffffffffffffff1602179055506040820151816002019081611f5d91906156ad565b506060820151816003019081611f7391906156ad565b506080820151816004016000820151816000019081611f9291906156ad565b506020820151816001019081611fa891906156ad565b506040820151816002019081611fbe91906156ad565b506060820151816003019081611fd491906156ad565b506080820151816004019081611fea91906156ad565b50505060a082015181600901908161200291906156ad565b5060c082015181600a015560e082015181600b01908161202291906156ad565b5061010082015181600c01908161203991906156ad565b5061012082015181600d0160006101000a81548160ff02191690831515021790555061014082015181600e015561016082015181600f01559050506001600760003373ffffffffffffffffffffffffffffffffffffffff1673ffffffffffffffffffffffffffffffffffffffff16815260200190815260200160002060006101000a81548160ff0219169083151502179055507faa6ea937647a143ac1963bc631eebf4e2808e8df788a660ac48e2b6f25417af3600254336040516120ff92919061587d565b60405180910390a1505050505050505050505050565b60035481565b60606000600660008473ffffffffffffffffffffffffffffffffffffffff1673ffffffffffffffffffffffffffffffffffffffff1681526020019081526020016000208054806020026020016040519081016040528092919081815260200182805480156121a857602002820191906000526020600020905b815481526020019060010190808311612194575b505050505090506000815167ffffffffffffffff8111156121cc576121cb614447565b5b60405190808252806020026020018201604052801561220557816020015b6121f261431c565b8152602001906001900390816121ea5790505b50905060005b825181101561291657600560008673ffffffffffffffffffffffffffffffffffffffff1673ffffffffffffffffffffffffffffffffffffffff168152602001908152602001600020600084838151811061226857612267615912565b5b6020026020010151815260200190815260200160002060405180610180016040529081600082015481526020016001820160009054906101000a900473ffffffffffffffffffffffffffffffffffffffff1673ffffffffffffffffffffffffffffffffffffffff1673ffffffffffffffffffffffffffffffffffffffff1681526020016002820180546122fa906154d0565b80601f0160208091040260200160405190810160405280929190818152602001828054612326906154d0565b80156123735780601f1061234857610100808354040283529160200191612373565b820191906000526020600020905b81548152906001019060200180831161235657829003601f168201915b5050505050815260200160038201805461238c906154d0565b80601f01602080910402602001604051908101604052809291908181526020018280546123b8906154d0565b80156124055780601f106123da57610100808354040283529160200191612405565b820191906000526020600020905b8154815290600101906020018083116123e857829003601f168201915b50505050508152602001600482016040518060a001604052908160008201805461242e906154d0565b80601f016020809104026020016040519081016040528092919081815260200182805461245a906154d0565b80156124a75780601f1061247c576101008083540402835291602001916124a7565b820191906000526020600020905b81548152906001019060200180831161248a57829003601f168201915b505050505081526020016001820180546124c0906154d0565b80601f01602080910402602001604051908101604052809291908181526020018280546124ec906154d0565b80156125395780601f1061250e57610100808354040283529160200191612539565b820191906000526020600020905b81548152906001019060200180831161251c57829003601f168201915b50505050508152602001600282018054612552906154d0565b80601f016020809104026020016040519081016040528092919081815260200182805461257e906154d0565b80156125cb5780601f106125a0576101008083540402835291602001916125cb565b820191906000526020600020905b8154815290600101906020018083116125ae57829003601f168201915b505050505081526020016003820180546125e4906154d0565b80601f0160208091040260200160405190810160405280929190818152602001828054612610906154d0565b801561265d5780601f106126325761010080835404028352916020019161265d565b820191906000526020600020905b81548152906001019060200180831161264057829003601f168201915b50505050508152602001600482018054612676906154d0565b80601f01602080910402602001604051908101604052809291908181526020018280546126a2906154d0565b80156126ef5780601f106126c4576101008083540402835291602001916126ef565b820191906000526020600020905b8154815290600101906020018083116126d257829003601f168201915b505050505081525050815260200160098201805461270c906154d0565b80601f0160208091040260200160405190810160405280929190818152602001828054612738906154d0565b80156127855780601f1061275a57610100808354040283529160200191612785565b820191906000526020600020905b81548152906001019060200180831161276857829003601f168201915b50505050508152602001600a8201548152602001600b820180546127a8906154d0565b80601f01602080910402602001604051908101604052809291908181526020018280546127d4906154d0565b80156128215780601f106127f657610100808354040283529160200191612821565b820191906000526020600020905b81548152906001019060200180831161280457829003601f168201915b50505050508152602001600c8201805461283a906154d0565b80601f0160208091040260200160405190810160405280929190818152602001828054612866906154d0565b80156128b35780601f10612888576101008083540402835291602001916128b3565b820191906000526020600020905b81548152906001019060200180831161289657829003601f168201915b50505050508152602001600d820160009054906101000a900460ff16151515158152602001600e8201548152602001600f820154815250508282815181106128fe576128fd615912565b5b6020026020010181905250808060010191505061220b565b508092505050919050565b600a6020528060005260406000206000915090505481565b612941614244565b61294961413e565b60006008600083815260200190815260200160002060405180610180016040529081600082015481526020016001820160009054906101000a900473ffffffffffffffffffffffffffffffffffffffff1673ffffffffffffffffffffffffffffffffffffffff1673ffffffffffffffffffffffffffffffffffffffff1681526020016002820180546129da906154d0565b80601f0160208091040260200160405190810160405280929190818152602001828054612a06906154d0565b8015612a535780601f10612a2857610100808354040283529160200191612a53565b820191906000526020600020905b815481529060010190602001808311612a3657829003601f168201915b50505050508152602001600382018054612a6c906154d0565b80601f0160208091040260200160405190810160405280929190818152602001828054612a98906154d0565b8015612ae55780601f10612aba57610100808354040283529160200191612ae5565b820191906000526020600020905b815481529060010190602001808311612ac857829003601f168201915b50505050508152602001600482016040518060a0016040529081600082018054612b0e906154d0565b80601f0160208091040260200160405190810160405280929190818152602001828054612b3a906154d0565b8015612b875780601f10612b5c57610100808354040283529160200191612b87565b820191906000526020600020905b815481529060010190602001808311612b6a57829003601f168201915b50505050508152602001600182018054612ba0906154d0565b80601f0160208091040260200160405190810160405280929190818152602001828054612bcc906154d0565b8015612c195780601f10612bee57610100808354040283529160200191612c19565b820191906000526020600020905b815481529060010190602001808311612bfc57829003601f168201915b50505050508152602001600282018054612c32906154d0565b80601f0160208091040260200160405190810160405280929190818152602001828054612c5e906154d0565b8015612cab5780601f10612c8057610100808354040283529160200191612cab565b820191906000526020600020905b815481529060010190602001808311612c8e57829003601f168201915b50505050508152602001600382018054612cc4906154d0565b80601f0160208091040260200160405190810160405280929190818152602001828054612cf0906154d0565b8015612d3d5780601f10612d1257610100808354040283529160200191612d3d565b820191906000526020600020905b815481529060010190602001808311612d2057829003601f168201915b50505050508152602001600482018054612d56906154d0565b80601f0160208091040260200160405190810160405280929190818152602001828054612d82906154d0565b8015612dcf5780601f10612da457610100808354040283529160200191612dcf565b820191906000526020600020905b815481529060010190602001808311612db257829003601f168201915b5050505050815250508152602001600982018054612dec906154d0565b80601f0160208091040260200160405190810160405280929190818152602001828054612e18906154d0565b8015612e655780601f10612e3a57610100808354040283529160200191612e65565b820191906000526020600020905b815481529060010190602001808311612e4857829003601f168201915b50505050508152602001600a8201548152602001600b82018054612e88906154d0565b80601f0160208091040260200160405190810160405280929190818152602001828054612eb4906154d0565b8015612f015780601f10612ed657610100808354040283529160200191612f01565b820191906000526020600020905b815481529060010190602001808311612ee457829003601f168201915b50505050508152602001600c82018054612f1a906154d0565b80601f0160208091040260200160405190810160405280929190818152602001828054612f46906154d0565b8015612f935780601f10612f6857610100808354040283529160200191612f93565b820191906000526020600020905b815481529060010190602001808311612f7657829003601f168201915b50505050508152602001600d820160009054906101000a900460ff16151515158152602001600e8201548152602001600f8201548152505090506000816000015103613014576040517f08c379a000000000000000000000000000000000000000000000000000000000815260040161300b906152d1565b60405180910390fd5b806101200151613059576040517f08c379a000000000000000000000000000000000000000000000000000000000815260040161305090615cef565b60405180910390fd5b8060c00151341461309f576040517f08c379a000000000000000000000000000000000000000000000000000000000815260040161309690615d5b565b60405180910390fd5b60006064600354346130b19190615d7b565b6130bb9190615dec565b9050600081346130cb9190615970565b905060016009600086815260200190815260200160002060003373ffffffffffffffffffffffffffffffffffffffff1673ffffffffffffffffffffffffffffffffffffffff16815260200190815260200160002060006101000a81548160ff0219169083151502179055507f1ccb44f7994f1a3d2e759376c53231768e4c9cd9b230ad05d26d158cf6ac66cf8433344260405161316b9493929190615e1d565b60405180910390a1826020015173ffffffffffffffffffffffffffffffffffffffff166108fc829081150290604051600060405180830381858888f193505050501580156131bd573d6000803e3d6000fd5b5080600a600086815260200190815260200160002060008282546131e19190615e62565b9250508190555080600b6000856020015173ffffffffffffffffffffffffffffffffffffffff1673ffffffffffffffffffffffffffffffffffffffff168152602001908152602001600020600082825461323b9190615e62565b9250508190555050505061324d61428a565b50565b606060006008600084815260200190815260200160002060000154036132ab576040517f08c379a00000000000000000000000000000000000000000000000000000000081526004016132a2906152d1565b60405180910390fd5b6009600083815260200190815260200160002060003373ffffffffffffffffffffffffffffffffffffffff1673ffffffffffffffffffffffffffffffffffffffff16815260200190815260200160002060009054906101000a900460ff16613348576040517f08c379a000000000000000000000000000000000000000000000000000000000815260040161333f90615ee2565b60405180910390fd5b600860008381526020019081526020016000206003018054613369906154d0565b80601f0160208091040260200160405190810160405280929190818152602001828054613395906154d0565b80156133e25780601f106133b7576101008083540402835291602001916133e2565b820191906000526020600020905b8154815290600101906020018083116133c557829003601f168201915b50505050509050919050565b6133f661431c565b600060086000848152602001908152602001600020600001540361344f576040517f08c379a0000000000000000000000000000000000000000000000000000000008152600401613446906152d1565b60405180910390fd5b6008600083815260200190815260200160002060405180610180016040529081600082015481526020016001820160009054906101000a900473ffffffffffffffffffffffffffffffffffffffff1673ffffffffffffffffffffffffffffffffffffffff1673ffffffffffffffffffffffffffffffffffffffff1681526020016002820180546134de906154d0565b80601f016020809104026020016040519081016040528092919081815260200182805461350a906154d0565b80156135575780601f1061352c57610100808354040283529160200191613557565b820191906000526020600020905b81548152906001019060200180831161353a57829003601f168201915b50505050508152602001600382018054613570906154d0565b80601f016020809104026020016040519081016040528092919081815260200182805461359c906154d0565b80156135e95780601f106135be576101008083540402835291602001916135e9565b820191906000526020600020905b8154815290600101906020018083116135cc57829003601f168201915b50505050508152602001600482016040518060a0016040529081600082018054613612906154d0565b80601f016020809104026020016040519081016040528092919081815260200182805461363e906154d0565b801561368b5780601f106136605761010080835404028352916020019161368b565b820191906000526020600020905b81548152906001019060200180831161366e57829003601f168201915b505050505081526020016001820180546136a4906154d0565b80601f01602080910402602001604051908101604052809291908181526020018280546136d0906154d0565b801561371d5780601f106136f25761010080835404028352916020019161371d565b820191906000526020600020905b81548152906001019060200180831161370057829003601f168201915b50505050508152602001600282018054613736906154d0565b80601f0160208091040260200160405190810160405280929190818152602001828054613762906154d0565b80156137af5780601f10613784576101008083540402835291602001916137af565b820191906000526020600020905b81548152906001019060200180831161379257829003601f168201915b505050505081526020016003820180546137c8906154d0565b80601f01602080910402602001604051908101604052809291908181526020018280546137f4906154d0565b80156138415780601f1061381657610100808354040283529160200191613841565b820191906000526020600020905b81548152906001019060200180831161382457829003601f168201915b5050505050815260200160048201805461385a906154d0565b80601f0160208091040260200160405190810160405280929190818152602001828054613886906154d0565b80156138d35780601f106138a8576101008083540402835291602001916138d3565b820191906000526020600020905b8154815290600101906020018083116138b657829003601f168201915b50505050508152505081526020016009820180546138f0906154d0565b80601f016020809104026020016040519081016040528092919081815260200182805461391c906154d0565b80156139695780601f1061393e57610100808354040283529160200191613969565b820191906000526020600020905b81548152906001019060200180831161394c57829003601f168201915b50505050508152602001600a8201548152602001600b8201805461398c906154d0565b80601f01602080910402602001604051908101604052809291908181526020018280546139b8906154d0565b8015613a055780601f106139da57610100808354040283529160200191613a05565b820191906000526020600020905b8154815290600101906020018083116139e857829003601f168201915b50505050508152602001600c82018054613a1e906154d0565b80601f0160208091040260200160405190810160405280929190818152602001828054613a4a906154d0565b8015613a975780601f10613a6c57610100808354040283529160200191613a97565b820191906000526020600020905b815481529060010190602001808311613a7a57829003601f168201915b50505050508152602001600d820160009054906101000a900460ff16151515158152602001600e8201548152602001600f820154815250509050919050565b60096020528160005260406000206020528060005260406000206000915091509054906101000a900460ff1681565b60076020528060005260406000206000915054906101000a900460ff1681565b60086020528060005260406000206000915090508060000154908060010160009054906101000a900473ffffffffffffffffffffffffffffffffffffffff1690806002018054613b74906154d0565b80601f0160208091040260200160405190810160405280929190818152602001828054613ba0906154d0565b8015613bed5780601f10613bc257610100808354040283529160200191613bed565b820191906000526020600020905b815481529060010190602001808311613bd057829003601f168201915b505050505090806003018054613c02906154d0565b80601f0160208091040260200160405190810160405280929190818152602001828054613c2e906154d0565b8015613c7b5780601f10613c5057610100808354040283529160200191613c7b565b820191906000526020600020905b815481529060010190602001808311613c5e57829003601f168201915b505050505090806004016040518060a0016040529081600082018054613ca0906154d0565b80601f0160208091040260200160405190810160405280929190818152602001828054613ccc906154d0565b8015613d195780601f10613cee57610100808354040283529160200191613d19565b820191906000526020600020905b815481529060010190602001808311613cfc57829003601f168201915b50505050508152602001600182018054613d32906154d0565b80601f0160208091040260200160405190810160405280929190818152602001828054613d5e906154d0565b8015613dab5780601f10613d8057610100808354040283529160200191613dab565b820191906000526020600020905b815481529060010190602001808311613d8e57829003601f168201915b50505050508152602001600282018054613dc4906154d0565b80601f0160208091040260200160405190810160405280929190818152602001828054613df0906154d0565b8015613e3d5780601f10613e1257610100808354040283529160200191613e3d565b820191906000526020600020905b815481529060010190602001808311613e2057829003601f168201915b50505050508152602001600382018054613e56906154d0565b80601f0160208091040260200160405190810160405280929190818152602001828054613e82906154d0565b8015613ecf5780601f10613ea457610100808354040283529160200191613ecf565b820191906000526020600020905b815481529060010190602001808311613eb257829003601f168201915b50505050508152602001600482018054613ee8906154d0565b80601f0160208091040260200160405190810160405280929190818152602001828054613f14906154d0565b8015613f615780601f10613f3657610100808354040283529160200191613f61565b820191906000526020600020905b815481529060010190602001808311613f4457829003601f168201915b50505050508152505090806009018054613f7a906154d0565b80601f0160208091040260200160405190810160405280929190818152602001828054613fa6906154d0565b8015613ff35780601f10613fc857610100808354040283529160200191613ff3565b820191906000526020600020905b815481529060010190602001808311613fd657829003601f168201915b50505050509080600a01549080600b01805461400e906154d0565b80601f016020809104026020016040519081016040528092919081815260200182805461403a906154d0565b80156140875780601f1061405c57610100808354040283529160200191614087565b820191906000526020600020905b81548152906001019060200180831161406a57829003601f168201915b50505050509080600c01805461409c906154d0565b80601f01602080910402602001604051908101604052809291908181526020018280546140c8906154d0565b80156141155780601f106140ea57610100808354040283529160200191614115565b820191906000526020600020905b8154815290600101906020018083116140f857829003601f168201915b50505050509080600d0160009054906101000a900460ff169080600e01549080600f015490508c565b61414661186d565b1561417d576040517fd93c066500000000000000000000000000000000000000000000000000000000815260040160405180910390fd5b565b614187614294565b6000600160006101000a81548160ff0219169083151502179055507f5db9ee0a495bf2e6ff9c91a7834c1ba4fdd244a5e8aa4e537bd38aeae4b073aa6141cb6142d4565b6040516141d89190614be9565b60405180910390a1565b6141ea61413e565b60018060006101000a81548160ff0219169083151502179055507f62e78cea01bee320cd4e420270b5ea74000d11b0c9f74754ebdbfc544b05a25861422d6142d4565b60405161423a9190614be9565b60405180910390a1565b600260005403614280576040517f3ee5aeb500000000000000000000000000000000000000000000000000000000815260040160405180910390fd5b6002600081905550565b6001600081905550565b61429c61186d565b6142d2576040517f8dfc202b00000000000000000000000000000000000000000000000000000000815260040160405180910390fd5b565b600033905090565b5080546142e8906154d0565b6000825580601f106142fa5750614319565b601f016020900490600052602060002090810190614318919061439b565b5b50565b60405180610180016040528060008152602001600073ffffffffffffffffffffffffffffffffffffffff16815260200160608152602001606081526020016143626143b8565b81526020016060815260200160008152602001606081526020016060815260200160001515815260200160008152602001600081525090565b5b808211156143b457600081600090555060010161439c565b5090565b6040518060a0016040528060608152602001606081526020016060815260200160608152602001606081525090565b6000604051905090565b600080fd5b600080fd5b6000819050919050565b61440e816143fb565b811461441957600080fd5b50565b60008135905061442b81614405565b92915050565b600080fd5b6000601f19601f8301169050919050565b7f4e487b7100000000000000000000000000000000000000000000000000000000600052604160045260246000fd5b61447f82614436565b810181811067ffffffffffffffff8211171561449e5761449d614447565b5b80604052505050565b60006144b16143e7565b90506144bd8282614476565b919050565b600080fd5b600080fd5b600080fd5b600067ffffffffffffffff8211156144ec576144eb614447565b5b6144f582614436565b9050602081019050919050565b82818337600083830152505050565b600061452461451f846144d1565b6144a7565b9050828152602081018484840111156145405761453f6144cc565b5b61454b848285614502565b509392505050565b600082601f830112614568576145676144c7565b5b8135614578848260208601614511565b91505092915050565b60008115159050919050565b61459681614581565b81146145a157600080fd5b50565b6000813590506145b38161458d565b92915050565b600061018082840312156145d0576145cf614431565b5b6145db6101806144a7565b9050600082013567ffffffffffffffff8111156145fb576145fa6144c2565b5b61460784828501614553565b600083015250602082013567ffffffffffffffff81111561462b5761462a6144c2565b5b61463784828501614553565b602083015250604082013567ffffffffffffffff81111561465b5761465a6144c2565b5b61466784828501614553565b604083015250606082013567ffffffffffffffff81111561468b5761468a6144c2565b5b61469784828501614553565b606083015250608082013567ffffffffffffffff8111156146bb576146ba6144c2565b5b6146c784828501614553565b60808301525060a082013567ffffffffffffffff8111156146eb576146ea6144c2565b5b6146f784828501614553565b60a08301525060c082013567ffffffffffffffff81111561471b5761471a6144c2565b5b61472784828501614553565b60c08301525060e082013567ffffffffffffffff81111561474b5761474a6144c2565b5b61475784828501614553565b60e08301525061010061476c8482850161441c565b6101008301525061012082013567ffffffffffffffff811115614792576147916144c2565b5b61479e84828501614553565b6101208301525061014082013567ffffffffffffffff8111156147c4576147c36144c2565b5b6147d084828501614553565b610140830152506101606147e6848285016145a4565b6101608301525092915050565b6000806040838503121561480a576148096143f1565b5b60006148188582860161441c565b925050602083013567ffffffffffffffff811115614839576148386143f6565b5b614845858286016145b9565b9150509250929050565b600073ffffffffffffffffffffffffffffffffffffffff82169050919050565b600061487a8261484f565b9050919050565b61488a8161486f565b811461489557600080fd5b50565b6000813590506148a781614881565b92915050565b6000602082840312156148c3576148c26143f1565b5b60006148d184828501614898565b91505092915050565b6148e3816143fb565b82525050565b60006020820190506148fe60008301846148da565b92915050565b60006020828403121561491a576149196143f1565b5b60006149288482850161441c565b91505092915050565b60008060408385031215614948576149476143f1565b5b600061495685828601614898565b92505060206149678582860161441c565b9150509250929050565b61497a8161486f565b82525050565b600081519050919050565b600082825260208201905092915050565b60005b838110156149ba57808201518184015260208101905061499f565b60008484015250505050565b60006149d182614980565b6149db818561498b565b93506149eb81856020860161499c565b6149f481614436565b840191505092915050565b600082825260208201905092915050565b6000614a1b82614980565b614a2581856149ff565b9350614a3581856020860161499c565b614a3e81614436565b840191505092915050565b600060a0830160008301518482036000860152614a668282614a10565b91505060208301518482036020860152614a808282614a10565b91505060408301518482036040860152614a9a8282614a10565b91505060608301518482036060860152614ab48282614a10565b91505060808301518482036080860152614ace8282614a10565b9150508091505092915050565b614ae481614581565b82525050565b600061018082019050614b00600083018f6148da565b614b0d602083018e614971565b8181036040830152614b1f818d6149c6565b90508181036060830152614b33818c6149c6565b90508181036080830152614b47818b614a49565b905081810360a0830152614b5b818a6149c6565b9050614b6a60c08301896148da565b81810360e0830152614b7c81886149c6565b9050818103610100830152614b9181876149c6565b9050614ba1610120830186614adb565b614baf6101408301856148da565b614bbd6101608301846148da565b9d9c50505050505050505050505050565b6000602082019050614be36000830184614adb565b92915050565b6000602082019050614bfe6000830184614971565b92915050565b60008060008060008060008060008060006101608c8e031215614c2a57614c296143f1565b5b60008c013567ffffffffffffffff811115614c4857614c476143f6565b5b614c548e828f01614553565b9b505060208c013567ffffffffffffffff811115614c7557614c746143f6565b5b614c818e828f01614553565b9a505060408c013567ffffffffffffffff811115614ca257614ca16143f6565b5b614cae8e828f01614553565b99505060608c013567ffffffffffffffff811115614ccf57614cce6143f6565b5b614cdb8e828f01614553565b98505060808c013567ffffffffffffffff811115614cfc57614cfb6143f6565b5b614d088e828f01614553565b97505060a08c013567ffffffffffffffff811115614d2957614d286143f6565b5b614d358e828f01614553565b96505060c08c013567ffffffffffffffff811115614d5657614d556143f6565b5b614d628e828f01614553565b95505060e08c013567ffffffffffffffff811115614d8357614d826143f6565b5b614d8f8e828f01614553565b945050610100614da18e828f0161441c565b9350506101208c013567ffffffffffffffff811115614dc357614dc26143f6565b5b614dcf8e828f01614553565b9250506101408c013567ffffffffffffffff811115614df157614df06143f6565b5b614dfd8e828f01614553565b9150509295989b509295989b9093969950565b600081519050919050565b600082825260208201905092915050565b6000819050602082019050919050565b614e45816143fb565b82525050565b614e548161486f565b82525050565b600060a0830160008301518482036000860152614e778282614a10565b91505060208301518482036020860152614e918282614a10565b91505060408301518482036040860152614eab8282614a10565b91505060608301518482036060860152614ec58282614a10565b91505060808301518482036080860152614edf8282614a10565b9150508091505092915050565b614ef581614581565b82525050565b600061018083016000830151614f146000860182614e3c565b506020830151614f276020860182614e4b565b5060408301518482036040860152614f3f8282614a10565b91505060608301518482036060860152614f598282614a10565b91505060808301518482036080860152614f738282614e5a565b91505060a083015184820360a0860152614f8d8282614a10565b91505060c0830151614fa260c0860182614e3c565b5060e083015184820360e0860152614fba8282614a10565b915050610100830151848203610100860152614fd68282614a10565b915050610120830151614fed610120860182614eec565b50610140830151615002610140860182614e3c565b50610160830151615017610160860182614e3c565b508091505092915050565b600061502e8383614efb565b905092915050565b6000602082019050919050565b600061504e82614e10565b6150588185614e1b565b93508360208202850161506a85614e2c565b8060005b858110156150a657848403895281516150878582615022565b945061509283615036565b925060208a0199505060018101905061506e565b50829750879550505050505092915050565b600060208201905081810360008301526150d28184615043565b905092915050565b600060208201905081810360008301526150f481846149c6565b905092915050565b6000610180830160008301516151156000860182614e3c565b5060208301516151286020860182614e4b565b50604083015184820360408601526151408282614a10565b9150506060830151848203606086015261515a8282614a10565b915050608083015184820360808601526151748282614e5a565b91505060a083015184820360a086015261518e8282614a10565b91505060c08301516151a360c0860182614e3c565b5060e083015184820360e08601526151bb8282614a10565b9150506101008301518482036101008601526151d78282614a10565b9150506101208301516151ee610120860182614eec565b50610140830151615203610140860182614e3c565b50610160830151615218610160860182614e3c565b508091505092915050565b6000602082019050818103600083015261523d81846150fc565b905092915050565b6000806040838503121561525c5761525b6143f1565b5b600061526a8582860161441c565b925050602061527b85828601614898565b9150509250929050565b7f4e6574776f726b206e6f74206578697374000000000000000000000000000000600082015250565b60006152bb60118361498b565b91506152c682615285565b602082019050919050565b600060208201905081810360008301526152ea816152ae565b9050919050565b7f596f7520617265206e6f742074686520686f7374000000000000000000000000600082015250565b600061532760148361498b565b9150615332826152f1565b602082019050919050565b600060208201905081810360008301526153568161531a565b9050919050565b7f4e616d6520656d70747900000000000000000000000000000000000000000000600082015250565b6000615393600a8361498b565b915061539e8261535d565b602082019050919050565b600060208201905081810360008301526153c281615386565b9050919050565b7f50617373776f7264207265717569726564000000000000000000000000000000600082015250565b60006153ff60118361498b565b915061540a826153c9565b602082019050919050565b6000602082019050818103600083015261542e816153f2565b9050919050565b7f50726963652063616e2774206265203000000000000000000000000000000000600082015250565b600061546b60108361498b565b915061547682615435565b602082019050919050565b6000602082019050818103600083015261549a8161545e565b9050919050565b7f4e487b7100000000000000000000000000000000000000000000000000000000600052602260045260246000fd5b600060028204905060018216806154e857607f821691505b6020821081036154fb576154fa6154a1565b5b50919050565b60008190508160005260206000209050919050565b60006020601f8301049050919050565b600082821b905092915050565b6000600883026155637fffffffffffffffffffffffffffffffffffffffffffffffffffffffffffffffff82615526565b61556d8683615526565b95508019841693508086168417925050509392505050565b6000819050919050565b60006155aa6155a56155a0846143fb565b615585565b6143fb565b9050919050565b6000819050919050565b6155c48361558f565b6155d86155d0826155b1565b848454615533565b825550505050565b600090565b6155ed6155e0565b6155f88184846155bb565b505050565b5b8181101561561c576156116000826155e5565b6001810190506155fe565b5050565b601f8211156156615761563281615501565b61563b84615516565b8101602085101561564a578190505b61565e61565685615516565b8301826155fd565b50505b505050565b600082821c905092915050565b600061568460001984600802615666565b1980831691505092915050565b600061569d8383615673565b9150826002028217905092915050565b6156b682614980565b67ffffffffffffffff8111156156cf576156ce614447565b5b6156d982546154d0565b6156e4828285615620565b600060209050601f8311600181146157175760008415615705578287015190505b61570f8582615691565b865550615777565b601f19841661572586615501565b60005b8281101561574d57848901518255600182019150602085019450602081019050615728565b8683101561576a5784890151615766601f891682615673565b8355505b6001600288020188555050505b505050505050565b60008154905061578e816154d0565b9050919050565b8181036157a357505061587b565b6157ac8261577f565b67ffffffffffffffff8111156157c5576157c4614447565b5b6157cf82546154d0565b6157da828285615620565b6000601f83116001811461580957600084156157f7578287015490505b6158018582615691565b865550615874565b601f19841661581787615501565b965061582286615501565b60005b8281101561584a57848901548255600182019150600185019450602081019050615825565b868310156158675784890154615863601f891682615673565b8355505b6001600288020188555050505b5050505050505b565b600060408201905061589260008301856148da565b61589f6020830184614971565b9392505050565b7f4f6e6c792074686520686f737400000000000000000000000000000000000000600082015250565b60006158dc600d8361498b565b91506158e7826158a6565b602082019050919050565b6000602082019050818103600083015261590b816158cf565b9050919050565b7f4e487b7100000000000000000000000000000000000000000000000000000000600052603260045260246000fd5b7f4e487b7100000000000000000000000000000000000000000000000000000000600052601160045260246000fd5b600061597b826143fb565b9150615986836143fb565b925082820390508181111561599e5761599d615941565b5b92915050565b7f4e487b7100000000000000000000000000000000000000000000000000000000600052603160045260246000fd5b7f4e6f742074686520636f6e7472616374206f776e657200000000000000000000600082015250565b6000615a0960168361498b565b9150615a14826159d3565b602082019050919050565b60006020820190508181036000830152615a38816159fc565b9050919050565b7f4e6f206665657320746f20776974686472617700000000000000000000000000600082015250565b6000615a7560138361498b565b9150615a8082615a3f565b602082019050919050565b60006020820190508181036000830152615aa481615a68565b9050919050565b7f43616e2774206578636565642031303025000000000000000000000000000000600082015250565b6000615ae160118361498b565b9150615aec82615aab565b602082019050919050565b60006020820190508181036000830152615b1081615ad4565b9050919050565b7f4d7573742062652061746c656173742031250000000000000000000000000000600082015250565b6000615b4d60128361498b565b9150615b5882615b17565b602082019050919050565b60006020820190508181036000830152615b7c81615b40565b9050919050565b7f4d617820686f7374732072656163686564000000000000000000000000000000600082015250565b6000615bb960118361498b565b9150615bc482615b83565b602082019050919050565b60006020820190508181036000830152615be881615bac565b9050919050565b7f5072696365206d7573742062652067726561746572207468616e203000000000600082015250565b6000615c25601c8361498b565b9150615c3082615bef565b602082019050919050565b60006020820190508181036000830152615c5481615c18565b9050919050565b6000615c66826143fb565b91507fffffffffffffffffffffffffffffffffffffffffffffffffffffffffffffffff8203615c9857615c97615941565b5b600182019050919050565b7f4e6574776f726b206e6f74206163746976650000000000000000000000000000600082015250565b6000615cd960128361498b565b9150615ce482615ca3565b602082019050919050565b60006020820190508181036000830152615d0881615ccc565b9050919050565b7f496e636f7272656374207061796d656e7420616d6f756e740000000000000000600082015250565b6000615d4560188361498b565b9150615d5082615d0f565b602082019050919050565b60006020820190508181036000830152615d7481615d38565b9050919050565b6000615d86826143fb565b9150615d91836143fb565b9250828202615d9f816143fb565b91508282048414831517615db657615db5615941565b5b5092915050565b7f4e487b7100000000000000000000000000000000000000000000000000000000600052601260045260246000fd5b6000615df7826143fb565b9150615e02836143fb565b925082615e1257615e11615dbd565b5b828204905092915050565b6000608082019050615e3260008301876148da565b615e3f6020830186614971565b615e4c60408301856148da565b615e5960608301846148da565b95945050505050565b6000615e6d826143fb565b9150615e78836143fb565b9250828201905080821115615e9057615e8f615941565b5b92915050565b7f5061796d656e7420726571756972656400000000000000000000000000000000600082015250565b6000615ecc60108361498b565b9150615ed782615e96565b602082019050919050565b60006020820190508181036000830152615efb81615ebf565b905091905056fea2646970667358221220cd69d521303fc093b479c4350ff71caa95a24a1329e0ac9adb121183058790db64736f6c634300081c0033",
          "opcodes": "PUSH1 0x80 PUSH1 0x40 MSTORE PUSH1 0x5 PUSH1 0x3 SSTORE CALLVALUE DUP1 ISZERO PUSH1 0x14 JUMPI PUSH1 0x0 DUP1 REVERT JUMPDEST POP PUSH1 0x1 PUSH1 0x0 DUP2 SWAP1 SSTORE POP CALLER PUSH1 0x4 PUSH1 0x0 PUSH2 0x100 EXP DUP2 SLOAD DUP2 PUSH20 0xFFFFFFFFFFFFFFFFFFFFFFFFFFFFFFFFFFFFFFFF MUL NOT AND SWAP1 DUP4 PUSH20 0xFFFFFFFFFFFFFFFFFFFFFFFFFFFFFFFFFFFFFFFF AND MUL OR SWAP1 SSTORE POP PUSH1 0x0 PUSH1 0x2 DUP2 SWAP1 SSTORE POP PUSH2 0x5F38 DUP1 PUSH2 0x75 PUSH1 0x0 CODECOPY PUSH1 0x0 RETURN INVALID PUSH1 0x80 PUSH1 0x40 MSTORE PUSH1 0x4 CALLDATASIZE LT PUSH2 0x140 JUMPI PUSH1 0x0 CALLDATALOAD PUSH1 0xE0 SHR DUP1 PUSH4 0x8456CB59 GT PUSH2 0xB6 JUMPI DUP1 PUSH4 0xBF846E04 GT PUSH2 0x6F JUMPI DUP1 PUSH4 0xBF846E04 EQ PUSH2 0x441 JUMPI DUP1 PUSH4 0xC87B6616 EQ PUSH2 0x45D JUMPI DUP1 PUSH4 0xCD83FB9A EQ PUSH2 0x49A JUMPI DUP1 PUSH4 0xD8BC7FFF EQ PUSH2 0x4D7 JUMPI DUP1 PUSH4 0xEB2931B7 EQ PUSH2 0x514 JUMPI DUP1 PUSH4 0xEFD3268E EQ PUSH2 0x551 JUMPI PUSH2 0x140 JUMP JUMPDEST DUP1 PUSH4 0x8456CB59 EQ PUSH2 0x331 JUMPI DUP1 PUSH4 0x8DA5CB5B EQ PUSH2 0x348 JUMPI DUP1 PUSH4 0x8E1DAEEC EQ PUSH2 0x373 JUMPI DUP1 PUSH4 0xAEBA8461 EQ PUSH2 0x39C JUMPI DUP1 PUSH4 0xB6202C78 EQ PUSH2 0x3C7 JUMPI DUP1 PUSH4 0xBC3EDE29 EQ PUSH2 0x404 JUMPI PUSH2 0x140 JUMP JUMPDEST DUP1 PUSH4 0x3F4BA83A GT PUSH2 0x108 JUMPI DUP1 PUSH4 0x3F4BA83A EQ PUSH2 0x247 JUMPI DUP1 PUSH4 0x476343EE EQ PUSH2 0x25E JUMPI DUP1 PUSH4 0x4D0E5D13 EQ PUSH2 0x275 JUMPI DUP1 PUSH4 0x5C975ABB EQ PUSH2 0x2B2 JUMPI DUP1 PUSH4 0x61043F59 EQ PUSH2 0x2DD JUMPI DUP1 PUSH4 0x77E7EBA5 EQ PUSH2 0x306 JUMPI PUSH2 0x140 JUMP JUMPDEST DUP1 PUSH4 0x3414800 EQ PUSH2 0x145 JUMPI DUP1 PUSH4 0x6EACA0F EQ PUSH2 0x16E JUMPI DUP1 PUSH4 0x20765BD1 EQ PUSH2 0x1AB JUMPI DUP1 PUSH4 0x217C682D EQ PUSH2 0x1D4 JUMPI DUP1 PUSH4 0x357740A3 EQ PUSH2 0x1FF JUMPI JUMPDEST PUSH1 0x0 DUP1 REVERT JUMPDEST CALLVALUE DUP1 ISZERO PUSH2 0x151 JUMPI PUSH1 0x0 DUP1 REVERT JUMPDEST POP PUSH2 0x16C PUSH1 0x4 DUP1 CALLDATASIZE SUB DUP2 ADD SWAP1 PUSH2 0x167 SWAP2 SWAP1 PUSH2 0x47F3 JUMP JUMPDEST PUSH2 0x599 JUMP JUMPDEST STOP JUMPDEST CALLVALUE DUP1 ISZERO PUSH2 0x17A JUMPI PUSH1 0x0 DUP1 REVERT JUMPDEST POP PUSH2 0x195 PUSH1 0x4 DUP1 CALLDATASIZE SUB DUP2 ADD SWAP1 PUSH2 0x190 SWAP2 SWAP1 PUSH2 0x48AD JUMP JUMPDEST PUSH2 0xB13 JUMP JUMPDEST PUSH1 0x40 MLOAD PUSH2 0x1A2 SWAP2 SWAP1 PUSH2 0x48E9 JUMP JUMPDEST PUSH1 0x40 MLOAD DUP1 SWAP2 SUB SWAP1 RETURN JUMPDEST CALLVALUE DUP1 ISZERO PUSH2 0x1B7 JUMPI PUSH1 0x0 DUP1 REVERT JUMPDEST POP PUSH2 0x1D2 PUSH1 0x4 DUP1 CALLDATASIZE SUB DUP2 ADD SWAP1 PUSH2 0x1CD SWAP2 SWAP1 PUSH2 0x4904 JUMP JUMPDEST PUSH2 0xB2B JUMP JUMPDEST STOP JUMPDEST CALLVALUE DUP1 ISZERO PUSH2 0x1E0 JUMPI PUSH1 0x0 DUP1 REVERT JUMPDEST POP PUSH2 0x1E9 PUSH2 0x1032 JUMP JUMPDEST PUSH1 0x40 MLOAD PUSH2 0x1F6 SWAP2 SWAP1 PUSH2 0x48E9 JUMP JUMPDEST PUSH1 0x40 MLOAD DUP1 SWAP2 SUB SWAP1 RETURN JUMPDEST CALLVALUE DUP1 ISZERO PUSH2 0x20B JUMPI PUSH1 0x0 DUP1 REVERT JUMPDEST POP PUSH2 0x226 PUSH1 0x4 DUP1 CALLDATASIZE SUB DUP2 ADD SWAP1 PUSH2 0x221 SWAP2 SWAP1 PUSH2 0x4931 JUMP JUMPDEST PUSH2 0x1038 JUMP JUMPDEST PUSH1 0x40 MLOAD PUSH2 0x23E SWAP13 SWAP12 SWAP11 SWAP10 SWAP9 SWAP8 SWAP7 SWAP6 SWAP5 SWAP4 SWAP3 SWAP2 SWAP1 PUSH2 0x4AEA JUMP JUMPDEST PUSH1 0x40 MLOAD DUP1 SWAP2 SUB SWAP1 RETURN JUMPDEST CALLVALUE DUP1 ISZERO PUSH2 0x253 JUMPI PUSH1 0x0 DUP1 REVERT JUMPDEST POP PUSH2 0x25C PUSH2 0x165E JUMP JUMPDEST STOP JUMPDEST CALLVALUE DUP1 ISZERO PUSH2 0x26A JUMPI PUSH1 0x0 DUP1 REVERT JUMPDEST POP PUSH2 0x273 PUSH2 0x16F8 JUMP JUMPDEST STOP JUMPDEST CALLVALUE DUP1 ISZERO PUSH2 0x281 JUMPI PUSH1 0x0 DUP1 REVERT JUMPDEST POP PUSH2 0x29C PUSH1 0x4 DUP1 CALLDATASIZE SUB DUP2 ADD SWAP1 PUSH2 0x297 SWAP2 SWAP1 PUSH2 0x4931 JUMP JUMPDEST PUSH2 0x183C JUMP JUMPDEST PUSH1 0x40 MLOAD PUSH2 0x2A9 SWAP2 SWAP1 PUSH2 0x48E9 JUMP JUMPDEST PUSH1 0x40 MLOAD DUP1 SWAP2 SUB SWAP1 RETURN JUMPDEST CALLVALUE DUP1 ISZERO PUSH2 0x2BE JUMPI PUSH1 0x0 DUP1 REVERT JUMPDEST POP PUSH2 0x2C7 PUSH2 0x186D JUMP JUMPDEST PUSH1 0x40 MLOAD PUSH2 0x2D4 SWAP2 SWAP1 PUSH2 0x4BCE JUMP JUMPDEST PUSH1 0x40 MLOAD DUP1 SWAP2 SUB SWAP1 RETURN JUMPDEST CALLVALUE DUP1 ISZERO PUSH2 0x2E9 JUMPI PUSH1 0x0 DUP1 REVERT JUMPDEST POP PUSH2 0x304 PUSH1 0x4 DUP1 CALLDATASIZE SUB DUP2 ADD SWAP1 PUSH2 0x2FF SWAP2 SWAP1 PUSH2 0x4904 JUMP JUMPDEST PUSH2 0x1884 JUMP JUMPDEST STOP JUMPDEST CALLVALUE DUP1 ISZERO PUSH2 0x312 JUMPI PUSH1 0x0 DUP1 REVERT JUMPDEST POP PUSH2 0x31B PUSH2 0x19DD JUMP JUMPDEST PUSH1 0x40 MLOAD PUSH2 0x328 SWAP2 SWAP1 PUSH2 0x48E9 JUMP JUMPDEST PUSH1 0x40 MLOAD DUP1 SWAP2 SUB SWAP1 RETURN JUMPDEST CALLVALUE DUP1 ISZERO PUSH2 0x33D JUMPI PUSH1 0x0 DUP1 REVERT JUMPDEST POP PUSH2 0x346 PUSH2 0x19E2 JUMP JUMPDEST STOP JUMPDEST CALLVALUE DUP1 ISZERO PUSH2 0x354 JUMPI PUSH1 0x0 DUP1 REVERT JUMPDEST POP PUSH2 0x35D PUSH2 0x1A7C JUMP JUMPDEST PUSH1 0x40 MLOAD PUSH2 0x36A SWAP2 SWAP1 PUSH2 0x4BE9 JUMP JUMPDEST PUSH1 0x40 MLOAD DUP1 SWAP2 SUB SWAP1 RETURN JUMPDEST CALLVALUE DUP1 ISZERO PUSH2 0x37F JUMPI PUSH1 0x0 DUP1 REVERT JUMPDEST POP PUSH2 0x39A PUSH1 0x4 DUP1 CALLDATASIZE SUB DUP2 ADD SWAP1 PUSH2 0x395 SWAP2 SWAP1 PUSH2 0x4C04 JUMP JUMPDEST PUSH2 0x1AA2 JUMP JUMPDEST STOP JUMPDEST CALLVALUE DUP1 ISZERO PUSH2 0x3A8 JUMPI PUSH1 0x0 DUP1 REVERT JUMPDEST POP PUSH2 0x3B1 PUSH2 0x2115 JUMP JUMPDEST PUSH1 0x40 MLOAD PUSH2 0x3BE SWAP2 SWAP1 PUSH2 0x48E9 JUMP JUMPDEST PUSH1 0x40 MLOAD DUP1 SWAP2 SUB SWAP1 RETURN JUMPDEST CALLVALUE DUP1 ISZERO PUSH2 0x3D3 JUMPI PUSH1 0x0 DUP1 REVERT JUMPDEST POP PUSH2 0x3EE PUSH1 0x4 DUP1 CALLDATASIZE SUB DUP2 ADD SWAP1 PUSH2 0x3E9 SWAP2 SWAP1 PUSH2 0x48AD JUMP JUMPDEST PUSH2 0x211B JUMP JUMPDEST PUSH1 0x40 MLOAD PUSH2 0x3FB SWAP2 SWAP1 PUSH2 0x50B8 JUMP JUMPDEST PUSH1 0x40 MLOAD DUP1 SWAP2 SUB SWAP1 RETURN JUMPDEST CALLVALUE DUP1 ISZERO PUSH2 0x410 JUMPI PUSH1 0x0 DUP1 REVERT JUMPDEST POP PUSH2 0x42B PUSH1 0x4 DUP1 CALLDATASIZE SUB DUP2 ADD SWAP1 PUSH2 0x426 SWAP2 SWAP1 PUSH2 0x4904 JUMP JUMPDEST PUSH2 0x2921 JUMP JUMPDEST PUSH1 0x40 MLOAD PUSH2 0x438 SWAP2 SWAP1 PUSH2 0x48E9 JUMP JUMPDEST PUSH1 0x40 MLOAD DUP1 SWAP2 SUB SWAP1 RETURN JUMPDEST PUSH2 0x45B PUSH1 0x4 DUP1 CALLDATASIZE SUB DUP2 ADD SWAP1 PUSH2 0x456 SWAP2 SWAP1 PUSH2 0x4904 JUMP JUMPDEST PUSH2 0x2939 JUMP JUMPDEST STOP JUMPDEST CALLVALUE DUP1 ISZERO PUSH2 0x469 JUMPI PUSH1 0x0 DUP1 REVERT JUMPDEST POP PUSH2 0x484 PUSH1 0x4 DUP1 CALLDATASIZE SUB DUP2 ADD SWAP1 PUSH2 0x47F SWAP2 SWAP1 PUSH2 0x4904 JUMP JUMPDEST PUSH2 0x3250 JUMP JUMPDEST PUSH1 0x40 MLOAD PUSH2 0x491 SWAP2 SWAP1 PUSH2 0x50DA JUMP JUMPDEST PUSH1 0x40 MLOAD DUP1 SWAP2 SUB SWAP1 RETURN JUMPDEST CALLVALUE DUP1 ISZERO PUSH2 0x4A6 JUMPI PUSH1 0x0 DUP1 REVERT JUMPDEST POP PUSH2 0x4C1 PUSH1 0x4 DUP1 CALLDATASIZE SUB DUP2 ADD SWAP1 PUSH2 0x4BC SWAP2 SWAP1 PUSH2 0x4904 JUMP JUMPDEST PUSH2 0x33EE JUMP JUMPDEST PUSH1 0x40 MLOAD PUSH2 0x4CE SWAP2 SWAP1 PUSH2 0x5223 JUMP JUMPDEST PUSH1 0x40 MLOAD DUP1 SWAP2 SUB SWAP1 RETURN JUMPDEST CALLVALUE DUP1 ISZERO PUSH2 0x4E3 JUMPI PUSH1 0x0 DUP1 REVERT JUMPDEST POP PUSH2 0x4FE PUSH1 0x4 DUP1 CALLDATASIZE SUB DUP2 ADD SWAP1 PUSH2 0x4F9 SWAP2 SWAP1 PUSH2 0x5245 JUMP JUMPDEST PUSH2 0x3AD6 JUMP JUMPDEST PUSH1 0x40 MLOAD PUSH2 0x50B SWAP2 SWAP1 PUSH2 0x4BCE JUMP JUMPDEST PUSH1 0x40 MLOAD DUP1 SWAP2 SUB SWAP1 RETURN JUMPDEST CALLVALUE DUP1 ISZERO PUSH2 0x520 JUMPI PUSH1 0x0 DUP1 REVERT JUMPDEST POP PUSH2 0x53B PUSH1 0x4 DUP1 CALLDATASIZE SUB DUP2 ADD SWAP1 PUSH2 0x536 SWAP2 SWAP1 PUSH2 0x48AD JUMP JUMPDEST PUSH2 0x3B05 JUMP JUMPDEST PUSH1 0x40 MLOAD PUSH2 0x548 SWAP2 SWAP1 PUSH2 0x4BCE JUMP JUMPDEST PUSH1 0x40 MLOAD DUP1 SWAP2 SUB SWAP1 RETURN JUMPDEST CALLVALUE DUP1 ISZERO PUSH2 0x55D JUMPI PUSH1 0x0 DUP1 REVERT JUMPDEST POP PUSH2 0x578 PUSH1 0x4 DUP1 CALLDATASIZE SUB DUP2 ADD SWAP1 PUSH2 0x573 SWAP2 SWAP1 PUSH2 0x4904 JUMP JUMPDEST PUSH2 0x3B25 JUMP JUMPDEST PUSH1 0x40 MLOAD PUSH2 0x590 SWAP13 SWAP12 SWAP11 SWAP10 SWAP9 SWAP8 SWAP7 SWAP6 SWAP5 SWAP4 SWAP3 SWAP2 SWAP1 PUSH2 0x4AEA JUMP JUMPDEST PUSH1 0x40 MLOAD DUP1 SWAP2 SUB SWAP1 RETURN JUMPDEST PUSH2 0x5A1 PUSH2 0x413E JUMP JUMPDEST PUSH1 0x0 PUSH1 0x8 PUSH1 0x0 DUP5 DUP2 MSTORE PUSH1 0x20 ADD SWAP1 DUP2 MSTORE PUSH1 0x20 ADD PUSH1 0x0 KECCAK256 PUSH1 0x0 ADD SLOAD SUB PUSH2 0x5FA JUMPI PUSH1 0x40 MLOAD PUSH32 0x8C379A000000000000000000000000000000000000000000000000000000000 DUP2 MSTORE PUSH1 0x4 ADD PUSH2 0x5F1 SWAP1 PUSH2 0x52D1 JUMP JUMPDEST PUSH1 0x40 MLOAD DUP1 SWAP2 SUB SWAP1 REVERT JUMPDEST CALLER PUSH20 0xFFFFFFFFFFFFFFFFFFFFFFFFFFFFFFFFFFFFFFFF AND PUSH1 0x8 PUSH1 0x0 DUP5 DUP2 MSTORE PUSH1 0x20 ADD SWAP1 DUP2 MSTORE PUSH1 0x20 ADD PUSH1 0x0 KECCAK256 PUSH1 0x1 ADD PUSH1 0x0 SWAP1 SLOAD SWAP1 PUSH2 0x100 EXP SWAP1 DIV PUSH20 0xFFFFFFFFFFFFFFFFFFFFFFFFFFFFFFFFFFFFFFFF AND PUSH20 0xFFFFFFFFFFFFFFFFFFFFFFFFFFFFFFFFFFFFFFFF AND EQ PUSH2 0x69E JUMPI PUSH1 0x40 MLOAD PUSH32 0x8C379A000000000000000000000000000000000000000000000000000000000 DUP2 MSTORE PUSH1 0x4 ADD PUSH2 0x695 SWAP1 PUSH2 0x533D JUMP JUMPDEST PUSH1 0x40 MLOAD DUP1 SWAP2 SUB SWAP1 REVERT JUMPDEST PUSH1 0x0 DUP2 PUSH1 0x0 ADD MLOAD MLOAD GT PUSH2 0x6E6 JUMPI PUSH1 0x40 MLOAD PUSH32 0x8C379A000000000000000000000000000000000000000000000000000000000 DUP2 MSTORE PUSH1 0x4 ADD PUSH2 0x6DD SWAP1 PUSH2 0x53A9 JUMP JUMPDEST PUSH1 0x40 MLOAD DUP1 SWAP2 SUB SWAP1 REVERT JUMPDEST PUSH1 0x0 DUP2 PUSH1 0x20 ADD MLOAD MLOAD GT PUSH2 0x72E JUMPI PUSH1 0x40 MLOAD PUSH32 0x8C379A000000000000000000000000000000000000000000000000000000000 DUP2 MSTORE PUSH1 0x4 ADD PUSH2 0x725 SWAP1 PUSH2 0x5415 JUMP JUMPDEST PUSH1 0x40 MLOAD DUP1 SWAP2 SUB SWAP1 REVERT JUMPDEST PUSH1 0x0 DUP2 PUSH2 0x100 ADD MLOAD GT PUSH2 0x776 JUMPI PUSH1 0x40 MLOAD PUSH32 0x8C379A000000000000000000000000000000000000000000000000000000000 DUP2 MSTORE PUSH1 0x4 ADD PUSH2 0x76D SWAP1 PUSH2 0x5481 JUMP JUMPDEST PUSH1 0x40 MLOAD DUP1 SWAP2 SUB SWAP1 REVERT JUMPDEST PUSH1 0x0 PUSH1 0x8 PUSH1 0x0 DUP5 DUP2 MSTORE PUSH1 0x20 ADD SWAP1 DUP2 MSTORE PUSH1 0x20 ADD PUSH1 0x0 KECCAK256 SWAP1 POP DUP2 PUSH1 0x0 ADD MLOAD DUP2 PUSH1 0x2 ADD SWAP1 DUP2 PUSH2 0x7A2 SWAP2 SWAP1 PUSH2 0x56AD JUMP JUMPDEST POP DUP2 PUSH1 0x20 ADD MLOAD DUP2 PUSH1 0x3 ADD SWAP1 DUP2 PUSH2 0x7B8 SWAP2 SWAP1 PUSH2 0x56AD JUMP JUMPDEST POP PUSH1 0x40 MLOAD DUP1 PUSH1 0xA0 ADD PUSH1 0x40 MSTORE DUP1 DUP4 PUSH1 0x40 ADD MLOAD DUP2 MSTORE PUSH1 0x20 ADD DUP4 PUSH1 0x60 ADD MLOAD DUP2 MSTORE PUSH1 0x20 ADD DUP4 PUSH1 0x80 ADD MLOAD DUP2 MSTORE PUSH1 0x20 ADD DUP4 PUSH1 0xA0 ADD MLOAD DUP2 MSTORE PUSH1 0x20 ADD DUP4 PUSH1 0xC0 ADD MLOAD DUP2 MSTORE POP DUP2 PUSH1 0x4 ADD PUSH1 0x0 DUP3 ADD MLOAD DUP2 PUSH1 0x0 ADD SWAP1 DUP2 PUSH2 0x80D SWAP2 SWAP1 PUSH2 0x56AD JUMP JUMPDEST POP PUSH1 0x20 DUP3 ADD MLOAD DUP2 PUSH1 0x1 ADD SWAP1 DUP2 PUSH2 0x823 SWAP2 SWAP1 PUSH2 0x56AD JUMP JUMPDEST POP PUSH1 0x40 DUP3 ADD MLOAD DUP2 PUSH1 0x2 ADD SWAP1 DUP2 PUSH2 0x839 SWAP2 SWAP1 PUSH2 0x56AD JUMP JUMPDEST POP PUSH1 0x60 DUP3 ADD MLOAD DUP2 PUSH1 0x3 ADD SWAP1 DUP2 PUSH2 0x84F SWAP2 SWAP1 PUSH2 0x56AD JUMP JUMPDEST POP PUSH1 0x80 DUP3 ADD MLOAD DUP2 PUSH1 0x4 ADD SWAP1 DUP2 PUSH2 0x865 SWAP2 SWAP1 PUSH2 0x56AD JUMP JUMPDEST POP SWAP1 POP POP DUP2 PUSH1 0xE0 ADD MLOAD DUP2 PUSH1 0x9 ADD SWAP1 DUP2 PUSH2 0x87E SWAP2 SWAP1 PUSH2 0x56AD JUMP JUMPDEST POP DUP2 PUSH2 0x100 ADD MLOAD DUP2 PUSH1 0xA ADD DUP2 SWAP1 SSTORE POP DUP2 PUSH2 0x120 ADD MLOAD DUP2 PUSH1 0xB ADD SWAP1 DUP2 PUSH2 0x8A3 SWAP2 SWAP1 PUSH2 0x56AD JUMP JUMPDEST POP DUP2 PUSH2 0x140 ADD MLOAD DUP2 PUSH1 0xC ADD SWAP1 DUP2 PUSH2 0x8BA SWAP2 SWAP1 PUSH2 0x56AD JUMP JUMPDEST POP TIMESTAMP DUP2 PUSH1 0xF ADD DUP2 SWAP1 SSTORE POP DUP2 PUSH2 0x160 ADD MLOAD DUP2 PUSH1 0xD ADD PUSH1 0x0 PUSH2 0x100 EXP DUP2 SLOAD DUP2 PUSH1 0xFF MUL NOT AND SWAP1 DUP4 ISZERO ISZERO MUL OR SWAP1 SSTORE POP DUP1 PUSH1 0x5 PUSH1 0x0 CALLER PUSH20 0xFFFFFFFFFFFFFFFFFFFFFFFFFFFFFFFFFFFFFFFF AND PUSH20 0xFFFFFFFFFFFFFFFFFFFFFFFFFFFFFFFFFFFFFFFF AND DUP2 MSTORE PUSH1 0x20 ADD SWAP1 DUP2 MSTORE PUSH1 0x20 ADD PUSH1 0x0 KECCAK256 PUSH1 0x0 DUP6 DUP2 MSTORE PUSH1 0x20 ADD SWAP1 DUP2 MSTORE PUSH1 0x20 ADD PUSH1 0x0 KECCAK256 PUSH1 0x0 DUP3 ADD SLOAD DUP2 PUSH1 0x0 ADD SSTORE PUSH1 0x1 DUP3 ADD PUSH1 0x0 SWAP1 SLOAD SWAP1 PUSH2 0x100 EXP SWAP1 DIV PUSH20 0xFFFFFFFFFFFFFFFFFFFFFFFFFFFFFFFFFFFFFFFF AND DUP2 PUSH1 0x1 ADD PUSH1 0x0 PUSH2 0x100 EXP DUP2 SLOAD DUP2 PUSH20 0xFFFFFFFFFFFFFFFFFFFFFFFFFFFFFFFFFFFFFFFF MUL NOT AND SWAP1 DUP4 PUSH20 0xFFFFFFFFFFFFFFFFFFFFFFFFFFFFFFFFFFFFFFFF AND MUL OR SWAP1 SSTORE POP PUSH1 0x2 DUP3 ADD DUP2 PUSH1 0x2 ADD SWAP1 DUP2 PUSH2 0x9BB SWAP2 SWAP1 PUSH2 0x5795 JUMP JUMPDEST POP PUSH1 0x3 DUP3 ADD DUP2 PUSH1 0x3 ADD SWAP1 DUP2 PUSH2 0x9D0 SWAP2 SWAP1 PUSH2 0x5795 JUMP JUMPDEST POP PUSH1 0x4 DUP3 ADD DUP2 PUSH1 0x4 ADD PUSH1 0x0 DUP3 ADD DUP2 PUSH1 0x0 ADD SWAP1 DUP2 PUSH2 0x9ED SWAP2 SWAP1 PUSH2 0x5795 JUMP JUMPDEST POP PUSH1 0x1 DUP3 ADD DUP2 PUSH1 0x1 ADD SWAP1 DUP2 PUSH2 0xA02 SWAP2 SWAP1 PUSH2 0x5795 JUMP JUMPDEST POP PUSH1 0x2 DUP3 ADD DUP2 PUSH1 0x2 ADD SWAP1 DUP2 PUSH2 0xA17 SWAP2 SWAP1 PUSH2 0x5795 JUMP JUMPDEST POP PUSH1 0x3 DUP3 ADD DUP2 PUSH1 0x3 ADD SWAP1 DUP2 PUSH2 0xA2C SWAP2 SWAP1 PUSH2 0x5795 JUMP JUMPDEST POP PUSH1 0x4 DUP3 ADD DUP2 PUSH1 0x4 ADD SWAP1 DUP2 PUSH2 0xA41 SWAP2 SWAP1 PUSH2 0x5795 JUMP JUMPDEST POP POP POP PUSH1 0x9 DUP3 ADD DUP2 PUSH1 0x9 ADD SWAP1 DUP2 PUSH2 0xA58 SWAP2 SWAP1 PUSH2 0x5795 JUMP JUMPDEST POP PUSH1 0xA DUP3 ADD SLOAD DUP2 PUSH1 0xA ADD SSTORE PUSH1 0xB DUP3 ADD DUP2 PUSH1 0xB ADD SWAP1 DUP2 PUSH2 0xA77 SWAP2 SWAP1 PUSH2 0x5795 JUMP JUMPDEST POP PUSH1 0xC DUP3 ADD DUP2 PUSH1 0xC ADD SWAP1 DUP2 PUSH2 0xA8C SWAP2 SWAP1 PUSH2 0x5795 JUMP JUMPDEST POP PUSH1 0xD DUP3 ADD PUSH1 0x0 SWAP1 SLOAD SWAP1 PUSH2 0x100 EXP SWAP1 DIV PUSH1 0xFF AND DUP2 PUSH1 0xD ADD PUSH1 0x0 PUSH2 0x100 EXP DUP2 SLOAD DUP2 PUSH1 0xFF MUL NOT AND SWAP1 DUP4 ISZERO ISZERO MUL OR SWAP1 SSTORE POP PUSH1 0xE DUP3 ADD SLOAD DUP2 PUSH1 0xE ADD SSTORE PUSH1 0xF DUP3 ADD SLOAD DUP2 PUSH1 0xF ADD SSTORE SWAP1 POP POP PUSH32 0x1B405FEC10A051FF3085C73E2E829750FEB4A5367F94813845E70A2094674354 DUP2 PUSH1 0x0 ADD SLOAD CALLER PUSH1 0x40 MLOAD PUSH2 0xB06 SWAP3 SWAP2 SWAP1 PUSH2 0x587D JUMP JUMPDEST PUSH1 0x40 MLOAD DUP1 SWAP2 SUB SWAP1 LOG1 POP POP POP JUMP JUMPDEST PUSH1 0xB PUSH1 0x20 MSTORE DUP1 PUSH1 0x0 MSTORE PUSH1 0x40 PUSH1 0x0 KECCAK256 PUSH1 0x0 SWAP2 POP SWAP1 POP SLOAD DUP2 JUMP JUMPDEST PUSH2 0xB33 PUSH2 0x413E JUMP JUMPDEST PUSH1 0x0 PUSH1 0x8 PUSH1 0x0 DUP4 DUP2 MSTORE PUSH1 0x20 ADD SWAP1 DUP2 MSTORE PUSH1 0x20 ADD PUSH1 0x0 KECCAK256 SWAP1 POP PUSH1 0x0 DUP2 PUSH1 0x0 ADD SLOAD SUB PUSH2 0xB91 JUMPI PUSH1 0x40 MLOAD PUSH32 0x8C379A000000000000000000000000000000000000000000000000000000000 DUP2 MSTORE PUSH1 0x4 ADD PUSH2 0xB88 SWAP1 PUSH2 0x52D1 JUMP JUMPDEST PUSH1 0x40 MLOAD DUP1 SWAP2 SUB SWAP1 REVERT JUMPDEST CALLER PUSH20 0xFFFFFFFFFFFFFFFFFFFFFFFFFFFFFFFFFFFFFFFF AND DUP2 PUSH1 0x1 ADD PUSH1 0x0 SWAP1 SLOAD SWAP1 PUSH2 0x100 EXP SWAP1 DIV PUSH20 0xFFFFFFFFFFFFFFFFFFFFFFFFFFFFFFFFFFFFFFFF AND PUSH20 0xFFFFFFFFFFFFFFFFFFFFFFFFFFFFFFFFFFFFFFFF AND EQ PUSH2 0xC23 JUMPI PUSH1 0x40 MLOAD PUSH32 0x8C379A000000000000000000000000000000000000000000000000000000000 DUP2 MSTORE PUSH1 0x4 ADD PUSH2 0xC1A SWAP1 PUSH2 0x58F2 JUMP JUMPDEST PUSH1 0x40 MLOAD DUP1 SWAP2 SUB SWAP1 REVERT JUMPDEST PUSH1 0x8 PUSH1 0x0 DUP4 DUP2 MSTORE PUSH1 0x20 ADD SWAP1 DUP2 MSTORE PUSH1 0x20 ADD PUSH1 0x0 KECCAK256 PUSH1 0x0 DUP1 DUP3 ADD PUSH1 0x0 SWAP1 SSTORE PUSH1 0x1 DUP3 ADD PUSH1 0x0 PUSH2 0x100 EXP DUP2 SLOAD SWAP1 PUSH20 0xFFFFFFFFFFFFFFFFFFFFFFFFFFFFFFFFFFFFFFFF MUL NOT AND SWAP1 SSTORE PUSH1 0x2 DUP3 ADD PUSH1 0x0 PUSH2 0xC76 SWAP2 SWAP1 PUSH2 0x42DC JUMP JUMPDEST PUSH1 0x3 DUP3 ADD PUSH1 0x0 PUSH2 0xC86 SWAP2 SWAP1 PUSH2 0x42DC JUMP JUMPDEST PUSH1 0x4 DUP3 ADD PUSH1 0x0 DUP1 DUP3 ADD PUSH1 0x0 PUSH2 0xC9B SWAP2 SWAP1 PUSH2 0x42DC JUMP JUMPDEST PUSH1 0x1 DUP3 ADD PUSH1 0x0 PUSH2 0xCAB SWAP2 SWAP1 PUSH2 0x42DC JUMP JUMPDEST PUSH1 0x2 DUP3 ADD PUSH1 0x0 PUSH2 0xCBB SWAP2 SWAP1 PUSH2 0x42DC JUMP JUMPDEST PUSH1 0x3 DUP3 ADD PUSH1 0x0 PUSH2 0xCCB SWAP2 SWAP1 PUSH2 0x42DC JUMP JUMPDEST PUSH1 0x4 DUP3 ADD PUSH1 0x0 PUSH2 0xCDB SWAP2 SWAP1 PUSH2 0x42DC JUMP JUMPDEST POP POP PUSH1 0x9 DUP3 ADD PUSH1 0x0 PUSH2 0xCED SWAP2 SWAP1 PUSH2 0x42DC JUMP JUMPDEST PUSH1 0xA DUP3 ADD PUSH1 0x0 SWAP1 SSTORE PUSH1 0xB DUP3 ADD PUSH1 0x0 PUSH2 0xD05 SWAP2 SWAP1 PUSH2 0x42DC JUMP JUMPDEST PUSH1 0xC DUP3 ADD PUSH1 0x0 PUSH2 0xD15 SWAP2 SWAP1 PUSH2 0x42DC JUMP JUMPDEST PUSH1 0xD DUP3 ADD PUSH1 0x0 PUSH2 0x100 EXP DUP2 SLOAD SWAP1 PUSH1 0xFF MUL NOT AND SWAP1 SSTORE PUSH1 0xE DUP3 ADD PUSH1 0x0 SWAP1 SSTORE PUSH1 0xF DUP3 ADD PUSH1 0x0 SWAP1 SSTORE POP POP PUSH1 0x5 PUSH1 0x0 CALLER PUSH20 0xFFFFFFFFFFFFFFFFFFFFFFFFFFFFFFFFFFFFFFFF AND PUSH20 0xFFFFFFFFFFFFFFFFFFFFFFFFFFFFFFFFFFFFFFFF AND DUP2 MSTORE PUSH1 0x20 ADD SWAP1 DUP2 MSTORE PUSH1 0x20 ADD PUSH1 0x0 KECCAK256 PUSH1 0x0 DUP4 DUP2 MSTORE PUSH1 0x20 ADD SWAP1 DUP2 MSTORE PUSH1 0x20 ADD PUSH1 0x0 KECCAK256 PUSH1 0x0 DUP1 DUP3 ADD PUSH1 0x0 SWAP1 SSTORE PUSH1 0x1 DUP3 ADD PUSH1 0x0 PUSH2 0x100 EXP DUP2 SLOAD SWAP1 PUSH20 0xFFFFFFFFFFFFFFFFFFFFFFFFFFFFFFFFFFFFFFFF MUL NOT AND SWAP1 SSTORE PUSH1 0x2 DUP3 ADD PUSH1 0x0 PUSH2 0xDCB SWAP2 SWAP1 PUSH2 0x42DC JUMP JUMPDEST PUSH1 0x3 DUP3 ADD PUSH1 0x0 PUSH2 0xDDB SWAP2 SWAP1 PUSH2 0x42DC JUMP JUMPDEST PUSH1 0x4 DUP3 ADD PUSH1 0x0 DUP1 DUP3 ADD PUSH1 0x0 PUSH2 0xDF0 SWAP2 SWAP1 PUSH2 0x42DC JUMP JUMPDEST PUSH1 0x1 DUP3 ADD PUSH1 0x0 PUSH2 0xE00 SWAP2 SWAP1 PUSH2 0x42DC JUMP JUMPDEST PUSH1 0x2 DUP3 ADD PUSH1 0x0 PUSH2 0xE10 SWAP2 SWAP1 PUSH2 0x42DC JUMP JUMPDEST PUSH1 0x3 DUP3 ADD PUSH1 0x0 PUSH2 0xE20 SWAP2 SWAP1 PUSH2 0x42DC JUMP JUMPDEST PUSH1 0x4 DUP3 ADD PUSH1 0x0 PUSH2 0xE30 SWAP2 SWAP1 PUSH2 0x42DC JUMP JUMPDEST POP POP PUSH1 0x9 DUP3 ADD PUSH1 0x0 PUSH2 0xE42 SWAP2 SWAP1 PUSH2 0x42DC JUMP JUMPDEST PUSH1 0xA DUP3 ADD PUSH1 0x0 SWAP1 SSTORE PUSH1 0xB DUP3 ADD PUSH1 0x0 PUSH2 0xE5A SWAP2 SWAP1 PUSH2 0x42DC JUMP JUMPDEST PUSH1 0xC DUP3 ADD PUSH1 0x0 PUSH2 0xE6A SWAP2 SWAP1 PUSH2 0x42DC JUMP JUMPDEST PUSH1 0xD DUP3 ADD PUSH1 0x0 PUSH2 0x100 EXP DUP2 SLOAD SWAP1 PUSH1 0xFF MUL NOT AND SWAP1 SSTORE PUSH1 0xE DUP3 ADD PUSH1 0x0 SWAP1 SSTORE PUSH1 0xF DUP3 ADD PUSH1 0x0 SWAP1 SSTORE POP POP PUSH1 0x0 PUSH1 0x6 PUSH1 0x0 CALLER PUSH20 0xFFFFFFFFFFFFFFFFFFFFFFFFFFFFFFFFFFFFFFFF AND PUSH20 0xFFFFFFFFFFFFFFFFFFFFFFFFFFFFFFFFFFFFFFFF AND DUP2 MSTORE PUSH1 0x20 ADD SWAP1 DUP2 MSTORE PUSH1 0x20 ADD PUSH1 0x0 KECCAK256 SWAP1 POP PUSH1 0x0 JUMPDEST DUP2 DUP1 SLOAD SWAP1 POP DUP2 LT ISZERO PUSH2 0xF8E JUMPI DUP4 DUP3 DUP3 DUP2 SLOAD DUP2 LT PUSH2 0xEF6 JUMPI PUSH2 0xEF5 PUSH2 0x5912 JUMP JUMPDEST JUMPDEST SWAP1 PUSH1 0x0 MSTORE PUSH1 0x20 PUSH1 0x0 KECCAK256 ADD SLOAD SUB PUSH2 0xF81 JUMPI DUP2 PUSH1 0x1 DUP4 DUP1 SLOAD SWAP1 POP PUSH2 0xF18 SWAP2 SWAP1 PUSH2 0x5970 JUMP JUMPDEST DUP2 SLOAD DUP2 LT PUSH2 0xF29 JUMPI PUSH2 0xF28 PUSH2 0x5912 JUMP JUMPDEST JUMPDEST SWAP1 PUSH1 0x0 MSTORE PUSH1 0x20 PUSH1 0x0 KECCAK256 ADD SLOAD DUP3 DUP3 DUP2 SLOAD DUP2 LT PUSH2 0xF47 JUMPI PUSH2 0xF46 PUSH2 0x5912 JUMP JUMPDEST JUMPDEST SWAP1 PUSH1 0x0 MSTORE PUSH1 0x20 PUSH1 0x0 KECCAK256 ADD DUP2 SWAP1 SSTORE POP DUP2 DUP1 SLOAD DUP1 PUSH2 0xF66 JUMPI PUSH2 0xF65 PUSH2 0x59A4 JUMP JUMPDEST JUMPDEST PUSH1 0x1 SWAP1 SUB DUP2 DUP2 SWAP1 PUSH1 0x0 MSTORE PUSH1 0x20 PUSH1 0x0 KECCAK256 ADD PUSH1 0x0 SWAP1 SSTORE SWAP1 SSTORE PUSH2 0xF8E JUMP JUMPDEST DUP1 DUP1 PUSH1 0x1 ADD SWAP2 POP POP PUSH2 0xED6 JUMP JUMPDEST POP PUSH1 0x0 DUP2 DUP1 SLOAD SWAP1 POP SUB PUSH2 0xFF4 JUMPI PUSH1 0x0 PUSH1 0x7 PUSH1 0x0 CALLER PUSH20 0xFFFFFFFFFFFFFFFFFFFFFFFFFFFFFFFFFFFFFFFF AND PUSH20 0xFFFFFFFFFFFFFFFFFFFFFFFFFFFFFFFFFFFFFFFF AND DUP2 MSTORE PUSH1 0x20 ADD SWAP1 DUP2 MSTORE PUSH1 0x20 ADD PUSH1 0x0 KECCAK256 PUSH1 0x0 PUSH2 0x100 EXP DUP2 SLOAD DUP2 PUSH1 0xFF MUL NOT AND SWAP1 DUP4 ISZERO ISZERO MUL OR SWAP1 SSTORE POP JUMPDEST PUSH32 0x730235942568740698EA239CF71EE4B193696DB908A2AA74401B28A743E25D19 DUP4 CALLER PUSH1 0x40 MLOAD PUSH2 0x1025 SWAP3 SWAP2 SWAP1 PUSH2 0x587D JUMP JUMPDEST PUSH1 0x40 MLOAD DUP1 SWAP2 SUB SWAP1 LOG1 POP POP POP JUMP JUMPDEST PUSH1 0x2 SLOAD DUP2 JUMP JUMPDEST PUSH1 0x5 PUSH1 0x20 MSTORE DUP2 PUSH1 0x0 MSTORE PUSH1 0x40 PUSH1 0x0 KECCAK256 PUSH1 0x20 MSTORE DUP1 PUSH1 0x0 MSTORE PUSH1 0x40 PUSH1 0x0 KECCAK256 PUSH1 0x0 SWAP2 POP SWAP2 POP POP DUP1 PUSH1 0x0 ADD SLOAD SWAP1 DUP1 PUSH1 0x1 ADD PUSH1 0x0 SWAP1 SLOAD SWAP1 PUSH2 0x100 EXP SWAP1 DIV PUSH20 0xFFFFFFFFFFFFFFFFFFFFFFFFFFFFFFFFFFFFFFFF AND SWAP1 DUP1 PUSH1 0x2 ADD DUP1 SLOAD PUSH2 0x1094 SWAP1 PUSH2 0x54D0 JUMP JUMPDEST DUP1 PUSH1 0x1F ADD PUSH1 0x20 DUP1 SWAP2 DIV MUL PUSH1 0x20 ADD PUSH1 0x40 MLOAD SWAP1 DUP2 ADD PUSH1 0x40 MSTORE DUP1 SWAP3 SWAP2 SWAP1 DUP2 DUP2 MSTORE PUSH1 0x20 ADD DUP3 DUP1 SLOAD PUSH2 0x10C0 SWAP1 PUSH2 0x54D0 JUMP JUMPDEST DUP1 ISZERO PUSH2 0x110D JUMPI DUP1 PUSH1 0x1F LT PUSH2 0x10E2 JUMPI PUSH2 0x100 DUP1 DUP4 SLOAD DIV MUL DUP4 MSTORE SWAP2 PUSH1 0x20 ADD SWAP2 PUSH2 0x110D JUMP JUMPDEST DUP3 ADD SWAP2 SWAP1 PUSH1 0x0 MSTORE PUSH1 0x20 PUSH1 0x0 KECCAK256 SWAP1 JUMPDEST DUP2 SLOAD DUP2 MSTORE SWAP1 PUSH1 0x1 ADD SWAP1 PUSH1 0x20 ADD DUP1 DUP4 GT PUSH2 0x10F0 JUMPI DUP3 SWAP1 SUB PUSH1 0x1F AND DUP3 ADD SWAP2 JUMPDEST POP POP POP POP POP SWAP1 DUP1 PUSH1 0x3 ADD DUP1 SLOAD PUSH2 0x1122 SWAP1 PUSH2 0x54D0 JUMP JUMPDEST DUP1 PUSH1 0x1F ADD PUSH1 0x20 DUP1 SWAP2 DIV MUL PUSH1 0x20 ADD PUSH1 0x40 MLOAD SWAP1 DUP2 ADD PUSH1 0x40 MSTORE DUP1 SWAP3 SWAP2 SWAP1 DUP2 DUP2 MSTORE PUSH1 0x20 ADD DUP3 DUP1 SLOAD PUSH2 0x114E SWAP1 PUSH2 0x54D0 JUMP JUMPDEST DUP1 ISZERO PUSH2 0x119B JUMPI DUP1 PUSH1 0x1F LT PUSH2 0x1170 JUMPI PUSH2 0x100 DUP1 DUP4 SLOAD DIV MUL DUP4 MSTORE SWAP2 PUSH1 0x20 ADD SWAP2 PUSH2 0x119B JUMP JUMPDEST DUP3 ADD SWAP2 SWAP1 PUSH1 0x0 MSTORE PUSH1 0x20 PUSH1 0x0 KECCAK256 SWAP1 JUMPDEST DUP2 SLOAD DUP2 MSTORE SWAP1 PUSH1 0x1 ADD SWAP1 PUSH1 0x20 ADD DUP1 DUP4 GT PUSH2 0x117E JUMPI DUP3 SWAP1 SUB PUSH1 0x1F AND DUP3 ADD SWAP2 JUMPDEST POP POP POP POP POP SWAP1 DUP1 PUSH1 0x4 ADD PUSH1 0x40 MLOAD DUP1 PUSH1 0xA0 ADD PUSH1 0x40 MSTORE SWAP1 DUP2 PUSH1 0x0 DUP3 ADD DUP1 SLOAD PUSH2 0x11C0 SWAP1 PUSH2 0x54D0 JUMP JUMPDEST DUP1 PUSH1 0x1F ADD PUSH1 0x20 DUP1 SWAP2 DIV MUL PUSH1 0x20 ADD PUSH1 0x40 MLOAD SWAP1 DUP2 ADD PUSH1 0x40 MSTORE DUP1 SWAP3 SWAP2 SWAP1 DUP2 DUP2 MSTORE PUSH1 0x20 ADD DUP3 DUP1 SLOAD PUSH2 0x11EC SWAP1 PUSH2 0x54D0 JUMP JUMPDEST DUP1 ISZERO PUSH2 0x1239 JUMPI DUP1 PUSH1 0x1F LT PUSH2 0x120E JUMPI PUSH2 0x100 DUP1 DUP4 SLOAD DIV MUL DUP4 MSTORE SWAP2 PUSH1 0x20 ADD SWAP2 PUSH2 0x1239 JUMP JUMPDEST DUP3 ADD SWAP2 SWAP1 PUSH1 0x0 MSTORE PUSH1 0x20 PUSH1 0x0 KECCAK256 SWAP1 JUMPDEST DUP2 SLOAD DUP2 MSTORE SWAP1 PUSH1 0x1 ADD SWAP1 PUSH1 0x20 ADD DUP1 DUP4 GT PUSH2 0x121C JUMPI DUP3 SWAP1 SUB PUSH1 0x1F AND DUP3 ADD SWAP2 JUMPDEST POP POP POP POP POP DUP2 MSTORE PUSH1 0x20 ADD PUSH1 0x1 DUP3 ADD DUP1 SLOAD PUSH2 0x1252 SWAP1 PUSH2 0x54D0 JUMP JUMPDEST DUP1 PUSH1 0x1F ADD PUSH1 0x20 DUP1 SWAP2 DIV MUL PUSH1 0x20 ADD PUSH1 0x40 MLOAD SWAP1 DUP2 ADD PUSH1 0x40 MSTORE DUP1 SWAP3 SWAP2 SWAP1 DUP2 DUP2 MSTORE PUSH1 0x20 ADD DUP3 DUP1 SLOAD PUSH2 0x127E SWAP1 PUSH2 0x54D0 JUMP JUMPDEST DUP1 ISZERO PUSH2 0x12CB JUMPI DUP1 PUSH1 0x1F LT PUSH2 0x12A0 JUMPI PUSH2 0x100 DUP1 DUP4 SLOAD DIV MUL DUP4 MSTORE SWAP2 PUSH1 0x20 ADD SWAP2 PUSH2 0x12CB JUMP JUMPDEST DUP3 ADD SWAP2 SWAP1 PUSH1 0x0 MSTORE PUSH1 0x20 PUSH1 0x0 KECCAK256 SWAP1 JUMPDEST DUP2 SLOAD DUP2 MSTORE SWAP1 PUSH1 0x1 ADD SWAP1 PUSH1 0x20 ADD DUP1 DUP4 GT PUSH2 0x12AE JUMPI DUP3 SWAP1 SUB PUSH1 0x1F AND DUP3 ADD SWAP2 JUMPDEST POP POP POP POP POP DUP2 MSTORE PUSH1 0x20 ADD PUSH1 0x2 DUP3 ADD DUP1 SLOAD PUSH2 0x12E4 SWAP1 PUSH2 0x54D0 JUMP JUMPDEST DUP1 PUSH1 0x1F ADD PUSH1 0x20 DUP1 SWAP2 DIV MUL PUSH1 0x20 ADD PUSH1 0x40 MLOAD SWAP1 DUP2 ADD PUSH1 0x40 MSTORE DUP1 SWAP3 SWAP2 SWAP1 DUP2 DUP2 MSTORE PUSH1 0x20 ADD DUP3 DUP1 SLOAD PUSH2 0x1310 SWAP1 PUSH2 0x54D0 JUMP JUMPDEST DUP1 ISZERO PUSH2 0x135D JUMPI DUP1 PUSH1 0x1F LT PUSH2 0x1332 JUMPI PUSH2 0x100 DUP1 DUP4 SLOAD DIV MUL DUP4 MSTORE SWAP2 PUSH1 0x20 ADD SWAP2 PUSH2 0x135D JUMP JUMPDEST DUP3 ADD SWAP2 SWAP1 PUSH1 0x0 MSTORE PUSH1 0x20 PUSH1 0x0 KECCAK256 SWAP1 JUMPDEST DUP2 SLOAD DUP2 MSTORE SWAP1 PUSH1 0x1 ADD SWAP1 PUSH1 0x20 ADD DUP1 DUP4 GT PUSH2 0x1340 JUMPI DUP3 SWAP1 SUB PUSH1 0x1F AND DUP3 ADD SWAP2 JUMPDEST POP POP POP POP POP DUP2 MSTORE PUSH1 0x20 ADD PUSH1 0x3 DUP3 ADD DUP1 SLOAD PUSH2 0x1376 SWAP1 PUSH2 0x54D0 JUMP JUMPDEST DUP1 PUSH1 0x1F ADD PUSH1 0x20 DUP1 SWAP2 DIV MUL PUSH1 0x20 ADD PUSH1 0x40 MLOAD SWAP1 DUP2 ADD PUSH1 0x40 MSTORE DUP1 SWAP3 SWAP2 SWAP1 DUP2 DUP2 MSTORE PUSH1 0x20 ADD DUP3 DUP1 SLOAD PUSH2 0x13A2 SWAP1 PUSH2 0x54D0 JUMP JUMPDEST DUP1 ISZERO PUSH2 0x13EF JUMPI DUP1 PUSH1 0x1F LT PUSH2 0x13C4 JUMPI PUSH2 0x100 DUP1 DUP4 SLOAD DIV MUL DUP4 MSTORE SWAP2 PUSH1 0x20 ADD SWAP2 PUSH2 0x13EF JUMP JUMPDEST DUP3 ADD SWAP2 SWAP1 PUSH1 0x0 MSTORE PUSH1 0x20 PUSH1 0x0 KECCAK256 SWAP1 JUMPDEST DUP2 SLOAD DUP2 MSTORE SWAP1 PUSH1 0x1 ADD SWAP1 PUSH1 0x20 ADD DUP1 DUP4 GT PUSH2 0x13D2 JUMPI DUP3 SWAP1 SUB PUSH1 0x1F AND DUP3 ADD SWAP2 JUMPDEST POP POP POP POP POP DUP2 MSTORE PUSH1 0x20 ADD PUSH1 0x4 DUP3 ADD DUP1 SLOAD PUSH2 0x1408 SWAP1 PUSH2 0x54D0 JUMP JUMPDEST DUP1 PUSH1 0x1F ADD PUSH1 0x20 DUP1 SWAP2 DIV MUL PUSH1 0x20 ADD PUSH1 0x40 MLOAD SWAP1 DUP2 ADD PUSH1 0x40 MSTORE DUP1 SWAP3 SWAP2 SWAP1 DUP2 DUP2 MSTORE PUSH1 0x20 ADD DUP3 DUP1 SLOAD PUSH2 0x1434 SWAP1 PUSH2 0x54D0 JUMP JUMPDEST DUP1 ISZERO PUSH2 0x1481 JUMPI DUP1 PUSH1 0x1F LT PUSH2 0x1456 JUMPI PUSH2 0x100 DUP1 DUP4 SLOAD DIV MUL DUP4 MSTORE SWAP2 PUSH1 0x20 ADD SWAP2 PUSH2 0x1481 JUMP JUMPDEST DUP3 ADD SWAP2 SWAP1 PUSH1 0x0 MSTORE PUSH1 0x20 PUSH1 0x0 KECCAK256 SWAP1 JUMPDEST DUP2 SLOAD DUP2 MSTORE SWAP1 PUSH1 0x1 ADD SWAP1 PUSH1 0x20 ADD DUP1 DUP4 GT PUSH2 0x1464 JUMPI DUP3 SWAP1 SUB PUSH1 0x1F AND DUP3 ADD SWAP2 JUMPDEST POP POP POP POP POP DUP2 MSTORE POP POP SWAP1 DUP1 PUSH1 0x9 ADD DUP1 SLOAD PUSH2 0x149A SWAP1 PUSH2 0x54D0 JUMP JUMPDEST DUP1 PUSH1 0x1F ADD PUSH1 0x20 DUP1 SWAP2 DIV MUL PUSH1 0x20 ADD PUSH1 0x40 MLOAD SWAP1 DUP2 ADD PUSH1 0x40 MSTORE DUP1 SWAP3 SWAP2 SWAP1 DUP2 DUP2 MSTORE PUSH1 0x20 ADD DUP3 DUP1 SLOAD PUSH2 0x14C6 SWAP1 PUSH2 0x54D0 JUMP JUMPDEST DUP1 ISZERO PUSH2 0x1513 JUMPI DUP1 PUSH1 0x1F LT PUSH2 0x14E8 JUMPI PUSH2 0x100 DUP1 DUP4 SLOAD DIV MUL DUP4 MSTORE SWAP2 PUSH1 0x20 ADD SWAP2 PUSH2 0x1513 JUMP JUMPDEST DUP3 ADD SWAP2 SWAP1 PUSH1 0x0 MSTORE PUSH1 0x20 PUSH1 0x0 KECCAK256 SWAP1 JUMPDEST DUP2 SLOAD DUP2 MSTORE SWAP1 PUSH1 0x1 ADD SWAP1 PUSH1 0x20 ADD DUP1 DUP4 GT PUSH2 0x14F6 JUMPI DUP3 SWAP1 SUB PUSH1 0x1F AND DUP3 ADD SWAP2 JUMPDEST POP POP POP POP POP SWAP1 DUP1 PUSH1 0xA ADD SLOAD SWAP1 DUP1 PUSH1 0xB ADD DUP1 SLOAD PUSH2 0x152E SWAP1 PUSH2 0x54D0 JUMP JUMPDEST DUP1 PUSH1 0x1F ADD PUSH1 0x20 DUP1 SWAP2 DIV MUL PUSH1 0x20 ADD PUSH1 0x40 MLOAD SWAP1 DUP2 ADD PUSH1 0x40 MSTORE DUP1 SWAP3 SWAP2 SWAP1 DUP2 DUP2 MSTORE PUSH1 0x20 ADD DUP3 DUP1 SLOAD PUSH2 0x155A SWAP1 PUSH2 0x54D0 JUMP JUMPDEST DUP1 ISZERO PUSH2 0x15A7 JUMPI DUP1 PUSH1 0x1F LT PUSH2 0x157C JUMPI PUSH2 0x100 DUP1 DUP4 SLOAD DIV MUL DUP4 MSTORE SWAP2 PUSH1 0x20 ADD SWAP2 PUSH2 0x15A7 JUMP JUMPDEST DUP3 ADD SWAP2 SWAP1 PUSH1 0x0 MSTORE PUSH1 0x20 PUSH1 0x0 KECCAK256 SWAP1 JUMPDEST DUP2 SLOAD DUP2 MSTORE SWAP1 PUSH1 0x1 ADD SWAP1 PUSH1 0x20 ADD DUP1 DUP4 GT PUSH2 0x158A JUMPI DUP3 SWAP1 SUB PUSH1 0x1F AND DUP3 ADD SWAP2 JUMPDEST POP POP POP POP POP SWAP1 DUP1 PUSH1 0xC ADD DUP1 SLOAD PUSH2 0x15BC SWAP1 PUSH2 0x54D0 JUMP JUMPDEST DUP1 PUSH1 0x1F ADD PUSH1 0x20 DUP1 SWAP2 DIV MUL PUSH1 0x20 ADD PUSH1 0x40 MLOAD SWAP1 DUP2 ADD PUSH1 0x40 MSTORE DUP1 SWAP3 SWAP2 SWAP1 DUP2 DUP2 MSTORE PUSH1 0x20 ADD DUP3 DUP1 SLOAD PUSH2 0x15E8 SWAP1 PUSH2 0x54D0 JUMP JUMPDEST DUP1 ISZERO PUSH2 0x1635 JUMPI DUP1 PUSH1 0x1F LT PUSH2 0x160A JUMPI PUSH2 0x100 DUP1 DUP4 SLOAD DIV MUL DUP4 MSTORE SWAP2 PUSH1 0x20 ADD SWAP2 PUSH2 0x1635 JUMP JUMPDEST DUP3 ADD SWAP2 SWAP1 PUSH1 0x0 MSTORE PUSH1 0x20 PUSH1 0x0 KECCAK256 SWAP1 JUMPDEST DUP2 SLOAD DUP2 MSTORE SWAP1 PUSH1 0x1 ADD SWAP1 PUSH1 0x20 ADD DUP1 DUP4 GT PUSH2 0x1618 JUMPI DUP3 SWAP1 SUB PUSH1 0x1F AND DUP3 ADD SWAP2 JUMPDEST POP POP POP POP POP SWAP1 DUP1 PUSH1 0xD ADD PUSH1 0x0 SWAP1 SLOAD SWAP1 PUSH2 0x100 EXP SWAP1 DIV PUSH1 0xFF AND SWAP1 DUP1 PUSH1 0xE ADD SLOAD SWAP1 DUP1 PUSH1 0xF ADD SLOAD SWAP1 POP DUP13 JUMP JUMPDEST PUSH1 0x4 PUSH1 0x0 SWAP1 SLOAD SWAP1 PUSH2 0x100 EXP SWAP1 DIV PUSH20 0xFFFFFFFFFFFFFFFFFFFFFFFFFFFFFFFFFFFFFFFF AND PUSH20 0xFFFFFFFFFFFFFFFFFFFFFFFFFFFFFFFFFFFFFFFF AND CALLER PUSH20 0xFFFFFFFFFFFFFFFFFFFFFFFFFFFFFFFFFFFFFFFF AND EQ PUSH2 0x16EE JUMPI PUSH1 0x40 MLOAD PUSH32 0x8C379A000000000000000000000000000000000000000000000000000000000 DUP2 MSTORE PUSH1 0x4 ADD PUSH2 0x16E5 SWAP1 PUSH2 0x5A1F JUMP JUMPDEST PUSH1 0x40 MLOAD DUP1 SWAP2 SUB SWAP1 REVERT JUMPDEST PUSH2 0x16F6 PUSH2 0x417F JUMP JUMPDEST JUMP JUMPDEST PUSH1 0x4 PUSH1 0x0 SWAP1 SLOAD SWAP1 PUSH2 0x100 EXP SWAP1 DIV PUSH20 0xFFFFFFFFFFFFFFFFFFFFFFFFFFFFFFFFFFFFFFFF AND PUSH20 0xFFFFFFFFFFFFFFFFFFFFFFFFFFFFFFFFFFFFFFFF AND CALLER PUSH20 0xFFFFFFFFFFFFFFFFFFFFFFFFFFFFFFFFFFFFFFFF AND EQ PUSH2 0x1788 JUMPI PUSH1 0x40 MLOAD PUSH32 0x8C379A000000000000000000000000000000000000000000000000000000000 DUP2 MSTORE PUSH1 0x4 ADD PUSH2 0x177F SWAP1 PUSH2 0x5A1F JUMP JUMPDEST PUSH1 0x40 MLOAD DUP1 SWAP2 SUB SWAP1 REVERT JUMPDEST PUSH1 0x0 SELFBALANCE SWAP1 POP PUSH1 0x0 DUP2 GT PUSH2 0x17D0 JUMPI PUSH1 0x40 MLOAD PUSH32 0x8C379A000000000000000000000000000000000000000000000000000000000 DUP2 MSTORE PUSH1 0x4 ADD PUSH2 0x17C7 SWAP1 PUSH2 0x5A8B JUMP JUMPDEST PUSH1 0x40 MLOAD DUP1 SWAP2 SUB SWAP1 REVERT JUMPDEST PUSH1 0x4 PUSH1 0x0 SWAP1 SLOAD SWAP1 PUSH2 0x100 EXP SWAP1 DIV PUSH20 0xFFFFFFFFFFFFFFFFFFFFFFFFFFFFFFFFFFFFFFFF AND PUSH20 0xFFFFFFFFFFFFFFFFFFFFFFFFFFFFFFFFFFFFFFFF AND PUSH2 0x8FC DUP3 SWAP1 DUP2 ISZERO MUL SWAP1 PUSH1 0x40 MLOAD PUSH1 0x0 PUSH1 0x40 MLOAD DUP1 DUP4 SUB DUP2 DUP6 DUP9 DUP9 CALL SWAP4 POP POP POP POP ISZERO DUP1 ISZERO PUSH2 0x1838 JUMPI RETURNDATASIZE PUSH1 0x0 DUP1 RETURNDATACOPY RETURNDATASIZE PUSH1 0x0 REVERT JUMPDEST POP POP JUMP JUMPDEST PUSH1 0x6 PUSH1 0x20 MSTORE DUP2 PUSH1 0x0 MSTORE PUSH1 0x40 PUSH1 0x0 KECCAK256 DUP2 DUP2 SLOAD DUP2 LT PUSH2 0x1858 JUMPI PUSH1 0x0 DUP1 REVERT JUMPDEST SWAP1 PUSH1 0x0 MSTORE PUSH1 0x20 PUSH1 0x0 KECCAK256 ADD PUSH1 0x0 SWAP2 POP SWAP2 POP POP SLOAD DUP2 JUMP JUMPDEST PUSH1 0x0 PUSH1 0x1 PUSH1 0x0 SWAP1 SLOAD SWAP1 PUSH2 0x100 EXP SWAP1 DIV PUSH1 0xFF AND SWAP1 POP SWAP1 JUMP JUMPDEST PUSH1 0x4 PUSH1 0x0 SWAP1 SLOAD SWAP1 PUSH2 0x100 EXP SWAP1 DIV PUSH20 0xFFFFFFFFFFFFFFFFFFFFFFFFFFFFFFFFFFFFFFFF AND PUSH20 0xFFFFFFFFFFFFFFFFFFFFFFFFFFFFFFFFFFFFFFFF AND CALLER PUSH20 0xFFFFFFFFFFFFFFFFFFFFFFFFFFFFFFFFFFFFFFFF AND EQ PUSH2 0x1914 JUMPI PUSH1 0x40 MLOAD PUSH32 0x8C379A000000000000000000000000000000000000000000000000000000000 DUP2 MSTORE PUSH1 0x4 ADD PUSH2 0x190B SWAP1 PUSH2 0x5A1F JUMP JUMPDEST PUSH1 0x40 MLOAD DUP1 SWAP2 SUB SWAP1 REVERT JUMPDEST PUSH1 0x64 DUP2 GT ISZERO PUSH2 0x1958 JUMPI PUSH1 0x40 MLOAD PUSH32 0x8C379A000000000000000000000000000000000000000000000000000000000 DUP2 MSTORE PUSH1 0x4 ADD PUSH2 0x194F SWAP1 PUSH2 0x5AF7 JUMP JUMPDEST PUSH1 0x40 MLOAD DUP1 SWAP2 SUB SWAP1 REVERT JUMPDEST PUSH1 0x1 DUP2 LT ISZERO PUSH2 0x199C JUMPI PUSH1 0x40 MLOAD PUSH32 0x8C379A000000000000000000000000000000000000000000000000000000000 DUP2 MSTORE PUSH1 0x4 ADD PUSH2 0x1993 SWAP1 PUSH2 0x5B63 JUMP JUMPDEST PUSH1 0x40 MLOAD DUP1 SWAP2 SUB SWAP1 REVERT JUMPDEST DUP1 PUSH1 0x3 DUP2 SWAP1 SSTORE POP PUSH32 0x64D1887078A96D281ED60DD69BA75BFB6B5CD2CB4C2D2538B2EB7816A4C646EA DUP2 PUSH1 0x40 MLOAD PUSH2 0x19D2 SWAP2 SWAP1 PUSH2 0x48E9 JUMP JUMPDEST PUSH1 0x40 MLOAD DUP1 SWAP2 SUB SWAP1 LOG1 POP JUMP JUMPDEST PUSH1 0x3 DUP2 JUMP JUMPDEST PUSH1 0x4 PUSH1 0x0 SWAP1 SLOAD SWAP1 PUSH2 0x100 EXP SWAP1 DIV PUSH20 0xFFFFFFFFFFFFFFFFFFFFFFFFFFFFFFFFFFFFFFFF AND PUSH20 0xFFFFFFFFFFFFFFFFFFFFFFFFFFFFFFFFFFFFFFFF AND CALLER PUSH20 0xFFFFFFFFFFFFFFFFFFFFFFFFFFFFFFFFFFFFFFFF AND EQ PUSH2 0x1A72 JUMPI PUSH1 0x40 MLOAD PUSH32 0x8C379A000000000000000000000000000000000000000000000000000000000 DUP2 MSTORE PUSH1 0x4 ADD PUSH2 0x1A69 SWAP1 PUSH2 0x5A1F JUMP JUMPDEST PUSH1 0x40 MLOAD DUP1 SWAP2 SUB SWAP1 REVERT JUMPDEST PUSH2 0x1A7A PUSH2 0x41E2 JUMP JUMPDEST JUMP JUMPDEST PUSH1 0x4 PUSH1 0x0 SWAP1 SLOAD SWAP1 PUSH2 0x100 EXP SWAP1 DIV PUSH20 0xFFFFFFFFFFFFFFFFFFFFFFFFFFFFFFFFFFFFFFFF AND DUP2 JUMP JUMPDEST PUSH2 0x1AAA PUSH2 0x413E JUMP JUMPDEST PUSH1 0x3 PUSH1 0x6 PUSH1 0x0 CALLER PUSH20 0xFFFFFFFFFFFFFFFFFFFFFFFFFFFFFFFFFFFFFFFF AND PUSH20 0xFFFFFFFFFFFFFFFFFFFFFFFFFFFFFFFFFFFFFFFF AND DUP2 MSTORE PUSH1 0x20 ADD SWAP1 DUP2 MSTORE PUSH1 0x20 ADD PUSH1 0x0 KECCAK256 DUP1 SLOAD SWAP1 POP LT PUSH2 0x1B2F JUMPI PUSH1 0x40 MLOAD PUSH32 0x8C379A000000000000000000000000000000000000000000000000000000000 DUP2 MSTORE PUSH1 0x4 ADD PUSH2 0x1B26 SWAP1 PUSH2 0x5BCF JUMP JUMPDEST PUSH1 0x40 MLOAD DUP1 SWAP2 SUB SWAP1 REVERT JUMPDEST PUSH1 0x0 DUP12 MLOAD GT PUSH2 0x1B73 JUMPI PUSH1 0x40 MLOAD PUSH32 0x8C379A000000000000000000000000000000000000000000000000000000000 DUP2 MSTORE PUSH1 0x4 ADD PUSH2 0x1B6A SWAP1 PUSH2 0x53A9 JUMP JUMPDEST PUSH1 0x40 MLOAD DUP1 SWAP2 SUB SWAP1 REVERT JUMPDEST PUSH1 0x0 DUP11 MLOAD GT PUSH2 0x1BB7 JUMPI PUSH1 0x40 MLOAD PUSH32 0x8C379A000000000000000000000000000000000000000000000000000000000 DUP2 MSTORE PUSH1 0x4 ADD PUSH2 0x1BAE SWAP1 PUSH2 0x5415 JUMP JUMPDEST PUSH1 0x40 MLOAD DUP1 SWAP2 SUB SWAP1 REVERT JUMPDEST PUSH1 0x0 DUP4 GT PUSH2 0x1BFA JUMPI PUSH1 0x40 MLOAD PUSH32 0x8C379A000000000000000000000000000000000000000000000000000000000 DUP2 MSTORE PUSH1 0x4 ADD PUSH2 0x1BF1 SWAP1 PUSH2 0x5C3B JUMP JUMPDEST PUSH1 0x40 MLOAD DUP1 SWAP2 SUB SWAP1 REVERT JUMPDEST PUSH1 0x2 PUSH1 0x0 DUP2 SLOAD DUP1 SWAP3 SWAP2 SWAP1 PUSH2 0x1C0D SWAP1 PUSH2 0x5C5B JUMP JUMPDEST SWAP2 SWAP1 POP SSTORE POP PUSH1 0x0 PUSH1 0x40 MLOAD DUP1 PUSH2 0x180 ADD PUSH1 0x40 MSTORE DUP1 PUSH1 0x2 SLOAD DUP2 MSTORE PUSH1 0x20 ADD CALLER PUSH20 0xFFFFFFFFFFFFFFFFFFFFFFFFFFFFFFFFFFFFFFFF AND DUP2 MSTORE PUSH1 0x20 ADD DUP14 DUP2 MSTORE PUSH1 0x20 ADD DUP13 DUP2 MSTORE PUSH1 0x20 ADD PUSH1 0x40 MLOAD DUP1 PUSH1 0xA0 ADD PUSH1 0x40 MSTORE DUP1 DUP14 DUP2 MSTORE PUSH1 0x20 ADD DUP13 DUP2 MSTORE PUSH1 0x20 ADD DUP12 DUP2 MSTORE PUSH1 0x20 ADD DUP11 DUP2 MSTORE PUSH1 0x20 ADD DUP10 DUP2 MSTORE POP DUP2 MSTORE PUSH1 0x20 ADD DUP7 DUP2 MSTORE PUSH1 0x20 ADD DUP6 DUP2 MSTORE PUSH1 0x20 ADD DUP5 DUP2 MSTORE PUSH1 0x20 ADD DUP4 DUP2 MSTORE PUSH1 0x20 ADD PUSH1 0x1 ISZERO ISZERO DUP2 MSTORE PUSH1 0x20 ADD TIMESTAMP DUP2 MSTORE PUSH1 0x20 ADD TIMESTAMP DUP2 MSTORE POP SWAP1 POP DUP1 PUSH1 0x5 PUSH1 0x0 CALLER PUSH20 0xFFFFFFFFFFFFFFFFFFFFFFFFFFFFFFFFFFFFFFFF AND PUSH20 0xFFFFFFFFFFFFFFFFFFFFFFFFFFFFFFFFFFFFFFFF AND DUP2 MSTORE PUSH1 0x20 ADD SWAP1 DUP2 MSTORE PUSH1 0x20 ADD PUSH1 0x0 KECCAK256 PUSH1 0x0 PUSH1 0x2 SLOAD DUP2 MSTORE PUSH1 0x20 ADD SWAP1 DUP2 MSTORE PUSH1 0x20 ADD PUSH1 0x0 KECCAK256 PUSH1 0x0 DUP3 ADD MLOAD DUP2 PUSH1 0x0 ADD SSTORE PUSH1 0x20 DUP3 ADD MLOAD DUP2 PUSH1 0x1 ADD PUSH1 0x0 PUSH2 0x100 EXP DUP2 SLOAD DUP2 PUSH20 0xFFFFFFFFFFFFFFFFFFFFFFFFFFFFFFFFFFFFFFFF MUL NOT AND SWAP1 DUP4 PUSH20 0xFFFFFFFFFFFFFFFFFFFFFFFFFFFFFFFFFFFFFFFF AND MUL OR SWAP1 SSTORE POP PUSH1 0x40 DUP3 ADD MLOAD DUP2 PUSH1 0x2 ADD SWAP1 DUP2 PUSH2 0x1D62 SWAP2 SWAP1 PUSH2 0x56AD JUMP JUMPDEST POP PUSH1 0x60 DUP3 ADD MLOAD DUP2 PUSH1 0x3 ADD SWAP1 DUP2 PUSH2 0x1D78 SWAP2 SWAP1 PUSH2 0x56AD JUMP JUMPDEST POP PUSH1 0x80 DUP3 ADD MLOAD DUP2 PUSH1 0x4 ADD PUSH1 0x0 DUP3 ADD MLOAD DUP2 PUSH1 0x0 ADD SWAP1 DUP2 PUSH2 0x1D97 SWAP2 SWAP1 PUSH2 0x56AD JUMP JUMPDEST POP PUSH1 0x20 DUP3 ADD MLOAD DUP2 PUSH1 0x1 ADD SWAP1 DUP2 PUSH2 0x1DAD SWAP2 SWAP1 PUSH2 0x56AD JUMP JUMPDEST POP PUSH1 0x40 DUP3 ADD MLOAD DUP2 PUSH1 0x2 ADD SWAP1 DUP2 PUSH2 0x1DC3 SWAP2 SWAP1 PUSH2 0x56AD JUMP JUMPDEST POP PUSH1 0x60 DUP3 ADD MLOAD DUP2 PUSH1 0x3 ADD SWAP1 DUP2 PUSH2 0x1DD9 SWAP2 SWAP1 PUSH2 0x56AD JUMP JUMPDEST POP PUSH1 0x80 DUP3 ADD MLOAD DUP2 PUSH1 0x4 ADD SWAP1 DUP2 PUSH2 0x1DEF SWAP2 SWAP1 PUSH2 0x56AD JUMP JUMPDEST POP POP POP PUSH1 0xA0 DUP3 ADD MLOAD DUP2 PUSH1 0x9 ADD SWAP1 DUP2 PUSH2 0x1E07 SWAP2 SWAP1 PUSH2 0x56AD JUMP JUMPDEST POP PUSH1 0xC0 DUP3 ADD MLOAD DUP2 PUSH1 0xA ADD SSTORE PUSH1 0xE0 DUP3 ADD MLOAD DUP2 PUSH1 0xB ADD SWAP1 DUP2 PUSH2 0x1E27 SWAP2 SWAP1 PUSH2 0x56AD JUMP JUMPDEST POP PUSH2 0x100 DUP3 ADD MLOAD DUP2 PUSH1 0xC ADD SWAP1 DUP2 PUSH2 0x1E3E SWAP2 SWAP1 PUSH2 0x56AD JUMP JUMPDEST POP PUSH2 0x120 DUP3 ADD MLOAD DUP2 PUSH1 0xD ADD PUSH1 0x0 PUSH2 0x100 EXP DUP2 SLOAD DUP2 PUSH1 0xFF MUL NOT AND SWAP1 DUP4 ISZERO ISZERO MUL OR SWAP1 SSTORE POP PUSH2 0x140 DUP3 ADD MLOAD DUP2 PUSH1 0xE ADD SSTORE PUSH2 0x160 DUP3 ADD MLOAD DUP2 PUSH1 0xF ADD SSTORE SWAP1 POP POP PUSH1 0x6 PUSH1 0x0 CALLER PUSH20 0xFFFFFFFFFFFFFFFFFFFFFFFFFFFFFFFFFFFFFFFF AND PUSH20 0xFFFFFFFFFFFFFFFFFFFFFFFFFFFFFFFFFFFFFFFF AND DUP2 MSTORE PUSH1 0x20 ADD SWAP1 DUP2 MSTORE PUSH1 0x20 ADD PUSH1 0x0 KECCAK256 PUSH1 0x2 SLOAD SWAP1 DUP1 PUSH1 0x1 DUP2 SLOAD ADD DUP1 DUP3 SSTORE DUP1 SWAP2 POP POP PUSH1 0x1 SWAP1 SUB SWAP1 PUSH1 0x0 MSTORE PUSH1 0x20 PUSH1 0x0 KECCAK256 ADD PUSH1 0x0 SWAP1 SWAP2 SWAP1 SWAP2 SWAP1 SWAP2 POP SSTORE DUP1 PUSH1 0x8 PUSH1 0x0 PUSH1 0x2 SLOAD DUP2 MSTORE PUSH1 0x20 ADD SWAP1 DUP2 MSTORE PUSH1 0x20 ADD PUSH1 0x0 KECCAK256 PUSH1 0x0 DUP3 ADD MLOAD DUP2 PUSH1 0x0 ADD SSTORE PUSH1 0x20 DUP3 ADD MLOAD DUP2 PUSH1 0x1 ADD PUSH1 0x0 PUSH2 0x100 EXP DUP2 SLOAD DUP2 PUSH20 0xFFFFFFFFFFFFFFFFFFFFFFFFFFFFFFFFFFFFFFFF MUL NOT AND SWAP1 DUP4 PUSH20 0xFFFFFFFFFFFFFFFFFFFFFFFFFFFFFFFFFFFFFFFF AND MUL OR SWAP1 SSTORE POP PUSH1 0x40 DUP3 ADD MLOAD DUP2 PUSH1 0x2 ADD SWAP1 DUP2 PUSH2 0x1F5D SWAP2 SWAP1 PUSH2 0x56AD JUMP JUMPDEST POP PUSH1 0x60 DUP3 ADD MLOAD DUP2 PUSH1 0x3 ADD SWAP1 DUP2 PUSH2 0x1F73 SWAP2 SWAP1 PUSH2 0x56AD JUMP JUMPDEST POP PUSH1 0x80 DUP3 ADD MLOAD DUP2 PUSH1 0x4 ADD PUSH1 0x0 DUP3 ADD MLOAD DUP2 PUSH1 0x0 ADD SWAP1 DUP2 PUSH2 0x1F92 SWAP2 SWAP1 PUSH2 0x56AD JUMP JUMPDEST POP PUSH1 0x20 DUP3 ADD MLOAD DUP2 PUSH1 0x1 ADD SWAP1 DUP2 PUSH2 0x1FA8 SWAP2 SWAP1 PUSH2 0x56AD JUMP JUMPDEST POP PUSH1 0x40 DUP3 ADD MLOAD DUP2 PUSH1 0x2 ADD SWAP1 DUP2 PUSH2 0x1FBE SWAP2 SWAP1 PUSH2 0x56AD JUMP JUMPDEST POP PUSH1 0x60 DUP3 ADD MLOAD DUP2 PUSH1 0x3 ADD SWAP1 DUP2 PUSH2 0x1FD4 SWAP2 SWAP1 PUSH2 0x56AD JUMP JUMPDEST POP PUSH1 0x80 DUP3 ADD MLOAD DUP2 PUSH1 0x4 ADD SWAP1 DUP2 PUSH2 0x1FEA SWAP2 SWAP1 PUSH2 0x56AD JUMP JUMPDEST POP POP POP PUSH1 0xA0 DUP3 ADD MLOAD DUP2 PUSH1 0x9 ADD SWAP1 DUP2 PUSH2 0x2002 SWAP2 SWAP1 PUSH2 0x56AD JUMP JUMPDEST POP PUSH1 0xC0 DUP3 ADD MLOAD DUP2 PUSH1 0xA ADD SSTORE PUSH1 0xE0 DUP3 ADD MLOAD DUP2 PUSH1 0xB ADD SWAP1 DUP2 PUSH2 0x2022 SWAP2 SWAP1 PUSH2 0x56AD JUMP JUMPDEST POP PUSH2 0x100 DUP3 ADD MLOAD DUP2 PUSH1 0xC ADD SWAP1 DUP2 PUSH2 0x2039 SWAP2 SWAP1 PUSH2 0x56AD JUMP JUMPDEST POP PUSH2 0x120 DUP3 ADD MLOAD DUP2 PUSH1 0xD ADD PUSH1 0x0 PUSH2 0x100 EXP DUP2 SLOAD DUP2 PUSH1 0xFF MUL NOT AND SWAP1 DUP4 ISZERO ISZERO MUL OR SWAP1 SSTORE POP PUSH2 0x140 DUP3 ADD MLOAD DUP2 PUSH1 0xE ADD SSTORE PUSH2 0x160 DUP3 ADD MLOAD DUP2 PUSH1 0xF ADD SSTORE SWAP1 POP POP PUSH1 0x1 PUSH1 0x7 PUSH1 0x0 CALLER PUSH20 0xFFFFFFFFFFFFFFFFFFFFFFFFFFFFFFFFFFFFFFFF AND PUSH20 0xFFFFFFFFFFFFFFFFFFFFFFFFFFFFFFFFFFFFFFFF AND DUP2 MSTORE PUSH1 0x20 ADD SWAP1 DUP2 MSTORE PUSH1 0x20 ADD PUSH1 0x0 KECCAK256 PUSH1 0x0 PUSH2 0x100 EXP DUP2 SLOAD DUP2 PUSH1 0xFF MUL NOT AND SWAP1 DUP4 ISZERO ISZERO MUL OR SWAP1 SSTORE POP PUSH32 0xAA6EA937647A143AC1963BC631EEBF4E2808E8DF788A660AC48E2B6F25417AF3 PUSH1 0x2 SLOAD CALLER PUSH1 0x40 MLOAD PUSH2 0x20FF SWAP3 SWAP2 SWAP1 PUSH2 0x587D JUMP JUMPDEST PUSH1 0x40 MLOAD DUP1 SWAP2 SUB SWAP1 LOG1 POP POP POP POP POP POP POP POP POP POP POP POP JUMP JUMPDEST PUSH1 0x3 SLOAD DUP2 JUMP JUMPDEST PUSH1 0x60 PUSH1 0x0 PUSH1 0x6 PUSH1 0x0 DUP5 PUSH20 0xFFFFFFFFFFFFFFFFFFFFFFFFFFFFFFFFFFFFFFFF AND PUSH20 0xFFFFFFFFFFFFFFFFFFFFFFFFFFFFFFFFFFFFFFFF AND DUP2 MSTORE PUSH1 0x20 ADD SWAP1 DUP2 MSTORE PUSH1 0x20 ADD PUSH1 0x0 KECCAK256 DUP1 SLOAD DUP1 PUSH1 0x20 MUL PUSH1 0x20 ADD PUSH1 0x40 MLOAD SWAP1 DUP2 ADD PUSH1 0x40 MSTORE DUP1 SWAP3 SWAP2 SWAP1 DUP2 DUP2 MSTORE PUSH1 0x20 ADD DUP3 DUP1 SLOAD DUP1 ISZERO PUSH2 0x21A8 JUMPI PUSH1 0x20 MUL DUP3 ADD SWAP2 SWAP1 PUSH1 0x0 MSTORE PUSH1 0x20 PUSH1 0x0 KECCAK256 SWAP1 JUMPDEST DUP2 SLOAD DUP2 MSTORE PUSH1 0x20 ADD SWAP1 PUSH1 0x1 ADD SWAP1 DUP1 DUP4 GT PUSH2 0x2194 JUMPI JUMPDEST POP POP POP POP POP SWAP1 POP PUSH1 0x0 DUP2 MLOAD PUSH8 0xFFFFFFFFFFFFFFFF DUP2 GT ISZERO PUSH2 0x21CC JUMPI PUSH2 0x21CB PUSH2 0x4447 JUMP JUMPDEST JUMPDEST PUSH1 0x40 MLOAD SWAP1 DUP1 DUP3 MSTORE DUP1 PUSH1 0x20 MUL PUSH1 0x20 ADD DUP3 ADD PUSH1 0x40 MSTORE DUP1 ISZERO PUSH2 0x2205 JUMPI DUP2 PUSH1 0x20 ADD JUMPDEST PUSH2 0x21F2 PUSH2 0x431C JUMP JUMPDEST DUP2 MSTORE PUSH1 0x20 ADD SWAP1 PUSH1 0x1 SWAP1 SUB SWAP1 DUP2 PUSH2 0x21EA JUMPI SWAP1 POP JUMPDEST POP SWAP1 POP PUSH1 0x0 JUMPDEST DUP3 MLOAD DUP2 LT ISZERO PUSH2 0x2916 JUMPI PUSH1 0x5 PUSH1 0x0 DUP7 PUSH20 0xFFFFFFFFFFFFFFFFFFFFFFFFFFFFFFFFFFFFFFFF AND PUSH20 0xFFFFFFFFFFFFFFFFFFFFFFFFFFFFFFFFFFFFFFFF AND DUP2 MSTORE PUSH1 0x20 ADD SWAP1 DUP2 MSTORE PUSH1 0x20 ADD PUSH1 0x0 KECCAK256 PUSH1 0x0 DUP5 DUP4 DUP2 MLOAD DUP2 LT PUSH2 0x2268 JUMPI PUSH2 0x2267 PUSH2 0x5912 JUMP JUMPDEST JUMPDEST PUSH1 0x20 MUL PUSH1 0x20 ADD ADD MLOAD DUP2 MSTORE PUSH1 0x20 ADD SWAP1 DUP2 MSTORE PUSH1 0x20 ADD PUSH1 0x0 KECCAK256 PUSH1 0x40 MLOAD DUP1 PUSH2 0x180 ADD PUSH1 0x40 MSTORE SWAP1 DUP2 PUSH1 0x0 DUP3 ADD SLOAD DUP2 MSTORE PUSH1 0x20 ADD PUSH1 0x1 DUP3 ADD PUSH1 0x0 SWAP1 SLOAD SWAP1 PUSH2 0x100 EXP SWAP1 DIV PUSH20 0xFFFFFFFFFFFFFFFFFFFFFFFFFFFFFFFFFFFFFFFF AND PUSH20 0xFFFFFFFFFFFFFFFFFFFFFFFFFFFFFFFFFFFFFFFF AND PUSH20 0xFFFFFFFFFFFFFFFFFFFFFFFFFFFFFFFFFFFFFFFF AND DUP2 MSTORE PUSH1 0x20 ADD PUSH1 0x2 DUP3 ADD DUP1 SLOAD PUSH2 0x22FA SWAP1 PUSH2 0x54D0 JUMP JUMPDEST DUP1 PUSH1 0x1F ADD PUSH1 0x20 DUP1 SWAP2 DIV MUL PUSH1 0x20 ADD PUSH1 0x40 MLOAD SWAP1 DUP2 ADD PUSH1 0x40 MSTORE DUP1 SWAP3 SWAP2 SWAP1 DUP2 DUP2 MSTORE PUSH1 0x20 ADD DUP3 DUP1 SLOAD PUSH2 0x2326 SWAP1 PUSH2 0x54D0 JUMP JUMPDEST DUP1 ISZERO PUSH2 0x2373 JUMPI DUP1 PUSH1 0x1F LT PUSH2 0x2348 JUMPI PUSH2 0x100 DUP1 DUP4 SLOAD DIV MUL DUP4 MSTORE SWAP2 PUSH1 0x20 ADD SWAP2 PUSH2 0x2373 JUMP JUMPDEST DUP3 ADD SWAP2 SWAP1 PUSH1 0x0 MSTORE PUSH1 0x20 PUSH1 0x0 KECCAK256 SWAP1 JUMPDEST DUP2 SLOAD DUP2 MSTORE SWAP1 PUSH1 0x1 ADD SWAP1 PUSH1 0x20 ADD DUP1 DUP4 GT PUSH2 0x2356 JUMPI DUP3 SWAP1 SUB PUSH1 0x1F AND DUP3 ADD SWAP2 JUMPDEST POP POP POP POP POP DUP2 MSTORE PUSH1 0x20 ADD PUSH1 0x3 DUP3 ADD DUP1 SLOAD PUSH2 0x238C SWAP1 PUSH2 0x54D0 JUMP JUMPDEST DUP1 PUSH1 0x1F ADD PUSH1 0x20 DUP1 SWAP2 DIV MUL PUSH1 0x20 ADD PUSH1 0x40 MLOAD SWAP1 DUP2 ADD PUSH1 0x40 MSTORE DUP1 SWAP3 SWAP2 SWAP1 DUP2 DUP2 MSTORE PUSH1 0x20 ADD DUP3 DUP1 SLOAD PUSH2 0x23B8 SWAP1 PUSH2 0x54D0 JUMP JUMPDEST DUP1 ISZERO PUSH2 0x2405 JUMPI DUP1 PUSH1 0x1F LT PUSH2 0x23DA JUMPI PUSH2 0x100 DUP1 DUP4 SLOAD DIV MUL DUP4 MSTORE SWAP2 PUSH1 0x20 ADD SWAP2 PUSH2 0x2405 JUMP JUMPDEST DUP3 ADD SWAP2 SWAP1 PUSH1 0x0 MSTORE PUSH1 0x20 PUSH1 0x0 KECCAK256 SWAP1 JUMPDEST DUP2 SLOAD DUP2 MSTORE SWAP1 PUSH1 0x1 ADD SWAP1 PUSH1 0x20 ADD DUP1 DUP4 GT PUSH2 0x23E8 JUMPI DUP3 SWAP1 SUB PUSH1 0x1F AND DUP3 ADD SWAP2 JUMPDEST POP POP POP POP POP DUP2 MSTORE PUSH1 0x20 ADD PUSH1 0x4 DUP3 ADD PUSH1 0x40 MLOAD DUP1 PUSH1 0xA0 ADD PUSH1 0x40 MSTORE SWAP1 DUP2 PUSH1 0x0 DUP3 ADD DUP1 SLOAD PUSH2 0x242E SWAP1 PUSH2 0x54D0 JUMP JUMPDEST DUP1 PUSH1 0x1F ADD PUSH1 0x20 DUP1 SWAP2 DIV MUL PUSH1 0x20 ADD PUSH1 0x40 MLOAD SWAP1 DUP2 ADD PUSH1 0x40 MSTORE DUP1 SWAP3 SWAP2 SWAP1 DUP2 DUP2 MSTORE PUSH1 0x20 ADD DUP3 DUP1 SLOAD PUSH2 0x245A SWAP1 PUSH2 0x54D0 JUMP JUMPDEST DUP1 ISZERO PUSH2 0x24A7 JUMPI DUP1 PUSH1 0x1F LT PUSH2 0x247C JUMPI PUSH2 0x100 DUP1 DUP4 SLOAD DIV MUL DUP4 MSTORE SWAP2 PUSH1 0x20 ADD SWAP2 PUSH2 0x24A7 JUMP JUMPDEST DUP3 ADD SWAP2 SWAP1 PUSH1 0x0 MSTORE PUSH1 0x20 PUSH1 0x0 KECCAK256 SWAP1 JUMPDEST DUP2 SLOAD DUP2 MSTORE SWAP1 PUSH1 0x1 ADD SWAP1 PUSH1 0x20 ADD DUP1 DUP4 GT PUSH2 0x248A JUMPI DUP3 SWAP1 SUB PUSH1 0x1F AND DUP3 ADD SWAP2 JUMPDEST POP POP POP POP POP DUP2 MSTORE PUSH1 0x20 ADD PUSH1 0x1 DUP3 ADD DUP1 SLOAD PUSH2 0x24C0 SWAP1 PUSH2 0x54D0 JUMP JUMPDEST DUP1 PUSH1 0x1F ADD PUSH1 0x20 DUP1 SWAP2 DIV MUL PUSH1 0x20 ADD PUSH1 0x40 MLOAD SWAP1 DUP2 ADD PUSH1 0x40 MSTORE DUP1 SWAP3 SWAP2 SWAP1 DUP2 DUP2 MSTORE PUSH1 0x20 ADD DUP3 DUP1 SLOAD PUSH2 0x24EC SWAP1 PUSH2 0x54D0 JUMP JUMPDEST DUP1 ISZERO PUSH2 0x2539 JUMPI DUP1 PUSH1 0x1F LT PUSH2 0x250E JUMPI PUSH2 0x100 DUP1 DUP4 SLOAD DIV MUL DUP4 MSTORE SWAP2 PUSH1 0x20 ADD SWAP2 PUSH2 0x2539 JUMP JUMPDEST DUP3 ADD SWAP2 SWAP1 PUSH1 0x0 MSTORE PUSH1 0x20 PUSH1 0x0 KECCAK256 SWAP1 JUMPDEST DUP2 SLOAD DUP2 MSTORE SWAP1 PUSH1 0x1 ADD SWAP1 PUSH1 0x20 ADD DUP1 DUP4 GT PUSH2 0x251C JUMPI DUP3 SWAP1 SUB PUSH1 0x1F AND DUP3 ADD SWAP2 JUMPDEST POP POP POP POP POP DUP2 MSTORE PUSH1 0x20 ADD PUSH1 0x2 DUP3 ADD DUP1 SLOAD PUSH2 0x2552 SWAP1 PUSH2 0x54D0 JUMP JUMPDEST DUP1 PUSH1 0x1F ADD PUSH1 0x20 DUP1 SWAP2 DIV MUL PUSH1 0x20 ADD PUSH1 0x40 MLOAD SWAP1 DUP2 ADD PUSH1 0x40 MSTORE DUP1 SWAP3 SWAP2 SWAP1 DUP2 DUP2 MSTORE PUSH1 0x20 ADD DUP3 DUP1 SLOAD PUSH2 0x257E SWAP1 PUSH2 0x54D0 JUMP JUMPDEST DUP1 ISZERO PUSH2 0x25CB JUMPI DUP1 PUSH1 0x1F LT PUSH2 0x25A0 JUMPI PUSH2 0x100 DUP1 DUP4 SLOAD DIV MUL DUP4 MSTORE SWAP2 PUSH1 0x20 ADD SWAP2 PUSH2 0x25CB JUMP JUMPDEST DUP3 ADD SWAP2 SWAP1 PUSH1 0x0 MSTORE PUSH1 0x20 PUSH1 0x0 KECCAK256 SWAP1 JUMPDEST DUP2 SLOAD DUP2 MSTORE SWAP1 PUSH1 0x1 ADD SWAP1 PUSH1 0x20 ADD DUP1 DUP4 GT PUSH2 0x25AE JUMPI DUP3 SWAP1 SUB PUSH1 0x1F AND DUP3 ADD SWAP2 JUMPDEST POP POP POP POP POP DUP2 MSTORE PUSH1 0x20 ADD PUSH1 0x3 DUP3 ADD DUP1 SLOAD PUSH2 0x25E4 SWAP1 PUSH2 0x54D0 JUMP JUMPDEST DUP1 PUSH1 0x1F ADD PUSH1 0x20 DUP1 SWAP2 DIV MUL PUSH1 0x20 ADD PUSH1 0x40 MLOAD SWAP1 DUP2 ADD PUSH1 0x40 MSTORE DUP1 SWAP3 SWAP2 SWAP1 DUP2 DUP2 MSTORE PUSH1 0x20 ADD DUP3 DUP1 SLOAD PUSH2 0x2610 SWAP1 PUSH2 0x54D0 JUMP JUMPDEST DUP1 ISZERO PUSH2 0x265D JUMPI DUP1 PUSH1 0x1F LT PUSH2 0x2632 JUMPI PUSH2 0x100 DUP1 DUP4 SLOAD DIV MUL DUP4 MSTORE SWAP2 PUSH1 0x20 ADD SWAP2 PUSH2 0x265D JUMP JUMPDEST DUP3 ADD SWAP2 SWAP1 PUSH1 0x0 MSTORE PUSH1 0x20 PUSH1 0x0 KECCAK256 SWAP1 JUMPDEST DUP2 SLOAD DUP2 MSTORE SWAP1 PUSH1 0x1 ADD SWAP1 PUSH1 0x20 ADD DUP1 DUP4 GT PUSH2 0x2640 JUMPI DUP3 SWAP1 SUB PUSH1 0x1F AND DUP3 ADD SWAP2 JUMPDEST POP POP POP POP POP DUP2 MSTORE PUSH1 0x20 ADD PUSH1 0x4 DUP3 ADD DUP1 SLOAD PUSH2 0x2676 SWAP1 PUSH2 0x54D0 JUMP JUMPDEST DUP1 PUSH1 0x1F ADD PUSH1 0x20 DUP1 SWAP2 DIV MUL PUSH1 0x20 ADD PUSH1 0x40 MLOAD SWAP1 DUP2 ADD PUSH1 0x40 MSTORE DUP1 SWAP3 SWAP2 SWAP1 DUP2 DUP2 MSTORE PUSH1 0x20 ADD DUP3 DUP1 SLOAD PUSH2 0x26A2 SWAP1 PUSH2 0x54D0 JUMP JUMPDEST DUP1 ISZERO PUSH2 0x26EF JUMPI DUP1 PUSH1 0x1F LT PUSH2 0x26C4 JUMPI PUSH2 0x100 DUP1 DUP4 SLOAD DIV MUL DUP4 MSTORE SWAP2 PUSH1 0x20 ADD SWAP2 PUSH2 0x26EF JUMP JUMPDEST DUP3 ADD SWAP2 SWAP1 PUSH1 0x0 MSTORE PUSH1 0x20 PUSH1 0x0 KECCAK256 SWAP1 JUMPDEST DUP2 SLOAD DUP2 MSTORE SWAP1 PUSH1 0x1 ADD SWAP1 PUSH1 0x20 ADD DUP1 DUP4 GT PUSH2 0x26D2 JUMPI DUP3 SWAP1 SUB PUSH1 0x1F AND DUP3 ADD SWAP2 JUMPDEST POP POP POP POP POP DUP2 MSTORE POP POP DUP2 MSTORE PUSH1 0x20 ADD PUSH1 0x9 DUP3 ADD DUP1 SLOAD PUSH2 0x270C SWAP1 PUSH2 0x54D0 JUMP JUMPDEST DUP1 PUSH1 0x1F ADD PUSH1 0x20 DUP1 SWAP2 DIV MUL PUSH1 0x20 ADD PUSH1 0x40 MLOAD SWAP1 DUP2 ADD PUSH1 0x40 MSTORE DUP1 SWAP3 SWAP2 SWAP1 DUP2 DUP2 MSTORE PUSH1 0x20 ADD DUP3 DUP1 SLOAD PUSH2 0x2738 SWAP1 PUSH2 0x54D0 JUMP JUMPDEST DUP1 ISZERO PUSH2 0x2785 JUMPI DUP1 PUSH1 0x1F LT PUSH2 0x275A JUMPI PUSH2 0x100 DUP1 DUP4 SLOAD DIV MUL DUP4 MSTORE SWAP2 PUSH1 0x20 ADD SWAP2 PUSH2 0x2785 JUMP JUMPDEST DUP3 ADD SWAP2 SWAP1 PUSH1 0x0 MSTORE PUSH1 0x20 PUSH1 0x0 KECCAK256 SWAP1 JUMPDEST DUP2 SLOAD DUP2 MSTORE SWAP1 PUSH1 0x1 ADD SWAP1 PUSH1 0x20 ADD DUP1 DUP4 GT PUSH2 0x2768 JUMPI DUP3 SWAP1 SUB PUSH1 0x1F AND DUP3 ADD SWAP2 JUMPDEST POP POP POP POP POP DUP2 MSTORE PUSH1 0x20 ADD PUSH1 0xA DUP3 ADD SLOAD DUP2 MSTORE PUSH1 0x20 ADD PUSH1 0xB DUP3 ADD DUP1 SLOAD PUSH2 0x27A8 SWAP1 PUSH2 0x54D0 JUMP JUMPDEST DUP1 PUSH1 0x1F ADD PUSH1 0x20 DUP1 SWAP2 DIV MUL PUSH1 0x20 ADD PUSH1 0x40 MLOAD SWAP1 DUP2 ADD PUSH1 0x40 MSTORE DUP1 SWAP3 SWAP2 SWAP1 DUP2 DUP2 MSTORE PUSH1 0x20 ADD DUP3 DUP1 SLOAD PUSH2 0x27D4 SWAP1 PUSH2 0x54D0 JUMP JUMPDEST DUP1 ISZERO PUSH2 0x2821 JUMPI DUP1 PUSH1 0x1F LT PUSH2 0x27F6 JUMPI PUSH2 0x100 DUP1 DUP4 SLOAD DIV MUL DUP4 MSTORE SWAP2 PUSH1 0x20 ADD SWAP2 PUSH2 0x2821 JUMP JUMPDEST DUP3 ADD SWAP2 SWAP1 PUSH1 0x0 MSTORE PUSH1 0x20 PUSH1 0x0 KECCAK256 SWAP1 JUMPDEST DUP2 SLOAD DUP2 MSTORE SWAP1 PUSH1 0x1 ADD SWAP1 PUSH1 0x20 ADD DUP1 DUP4 GT PUSH2 0x2804 JUMPI DUP3 SWAP1 SUB PUSH1 0x1F AND DUP3 ADD SWAP2 JUMPDEST POP POP POP POP POP DUP2 MSTORE PUSH1 0x20 ADD PUSH1 0xC DUP3 ADD DUP1 SLOAD PUSH2 0x283A SWAP1 PUSH2 0x54D0 JUMP JUMPDEST DUP1 PUSH1 0x1F ADD PUSH1 0x20 DUP1 SWAP2 DIV MUL PUSH1 0x20 ADD PUSH1 0x40 MLOAD SWAP1 DUP2 ADD PUSH1 0x40 MSTORE DUP1 SWAP3 SWAP2 SWAP1 DUP2 DUP2 MSTORE PUSH1 0x20 ADD DUP3 DUP1 SLOAD PUSH2 0x2866 SWAP1 PUSH2 0x54D0 JUMP JUMPDEST DUP1 ISZERO PUSH2 0x28B3 JUMPI DUP1 PUSH1 0x1F LT PUSH2 0x2888 JUMPI PUSH2 0x100 DUP1 DUP4 SLOAD DIV MUL DUP4 MSTORE SWAP2 PUSH1 0x20 ADD SWAP2 PUSH2 0x28B3 JUMP JUMPDEST DUP3 ADD SWAP2 SWAP1 PUSH1 0x0 MSTORE PUSH1 0x20 PUSH1 0x0 KECCAK256 SWAP1 JUMPDEST DUP2 SLOAD DUP2 MSTORE SWAP1 PUSH1 0x1 ADD SWAP1 PUSH1 0x20 ADD DUP1 DUP4 GT PUSH2 0x2896 JUMPI DUP3 SWAP1 SUB PUSH1 0x1F AND DUP3 ADD SWAP2 JUMPDEST POP POP POP POP POP DUP2 MSTORE PUSH1 0x20 ADD PUSH1 0xD DUP3 ADD PUSH1 0x0 SWAP1 SLOAD SWAP1 PUSH2 0x100 EXP SWAP1 DIV PUSH1 0xFF AND ISZERO ISZERO ISZERO ISZERO DUP2 MSTORE PUSH1 0x20 ADD PUSH1 0xE DUP3 ADD SLOAD DUP2 MSTORE PUSH1 0x20 ADD PUSH1 0xF DUP3 ADD SLOAD DUP2 MSTORE POP POP DUP3 DUP3 DUP2 MLOAD DUP2 LT PUSH2 0x28FE JUMPI PUSH2 0x28FD PUSH2 0x5912 JUMP JUMPDEST JUMPDEST PUSH1 0x20 MUL PUSH1 0x20 ADD ADD DUP2 SWAP1 MSTORE POP DUP1 DUP1 PUSH1 0x1 ADD SWAP2 POP POP PUSH2 0x220B JUMP JUMPDEST POP DUP1 SWAP3 POP POP POP SWAP2 SWAP1 POP JUMP JUMPDEST PUSH1 0xA PUSH1 0x20 MSTORE DUP1 PUSH1 0x0 MSTORE PUSH1 0x40 PUSH1 0x0 KECCAK256 PUSH1 0x0 SWAP2 POP SWAP1 POP SLOAD DUP2 JUMP JUMPDEST PUSH2 0x2941 PUSH2 0x4244 JUMP JUMPDEST PUSH2 0x2949 PUSH2 0x413E JUMP JUMPDEST PUSH1 0x0 PUSH1 0x8 PUSH1 0x0 DUP4 DUP2 MSTORE PUSH1 0x20 ADD SWAP1 DUP2 MSTORE PUSH1 0x20 ADD PUSH1 0x0 KECCAK256 PUSH1 0x40 MLOAD DUP1 PUSH2 0x180 ADD PUSH1 0x40 MSTORE SWAP1 DUP2 PUSH1 0x0 DUP3 ADD SLOAD DUP2 MSTORE PUSH1 0x20 ADD PUSH1 0x1 DUP3 ADD PUSH1 0x0 SWAP1 SLOAD SWAP1 PUSH2 0x100 EXP SWAP1 DIV PUSH20 0xFFFFFFFFFFFFFFFFFFFFFFFFFFFFFFFFFFFFFFFF AND PUSH20 0xFFFFFFFFFFFFFFFFFFFFFFFFFFFFFFFFFFFFFFFF AND PUSH20 0xFFFFFFFFFFFFFFFFFFFFFFFFFFFFFFFFFFFFFFFF AND DUP2 MSTORE PUSH1 0x20 ADD PUSH1 0x2 DUP3 ADD DUP1 SLOAD PUSH2 0x29DA SWAP1 PUSH2 0x54D0 JUMP JUMPDEST DUP1 PUSH1 0x1F ADD PUSH1 0x20 DUP1 SWAP2 DIV MUL PUSH1 0x20 ADD PUSH1 0x40 MLOAD SWAP1 DUP2 ADD PUSH1 0x40 MSTORE DUP1 SWAP3 SWAP2 SWAP1 DUP2 DUP2 MSTORE PUSH1 0x20 ADD DUP3 DUP1 SLOAD PUSH2 0x2A06 SWAP1 PUSH2 0x54D0 JUMP JUMPDEST DUP1 ISZERO PUSH2 0x2A53 JUMPI DUP1 PUSH1 0x1F LT PUSH2 0x2A28 JUMPI PUSH2 0x100 DUP1 DUP4 SLOAD DIV MUL DUP4 MSTORE SWAP2 PUSH1 0x20 ADD SWAP2 PUSH2 0x2A53 JUMP JUMPDEST DUP3 ADD SWAP2 SWAP1 PUSH1 0x0 MSTORE PUSH1 0x20 PUSH1 0x0 KECCAK256 SWAP1 JUMPDEST DUP2 SLOAD DUP2 MSTORE SWAP1 PUSH1 0x1 ADD SWAP1 PUSH1 0x20 ADD DUP1 DUP4 GT PUSH2 0x2A36 JUMPI DUP3 SWAP1 SUB PUSH1 0x1F AND DUP3 ADD SWAP2 JUMPDEST POP POP POP POP POP DUP2 MSTORE PUSH1 0x20 ADD PUSH1 0x3 DUP3 ADD DUP1 SLOAD PUSH2 0x2A6C SWAP1 PUSH2 0x54D0 JUMP JUMPDEST DUP1 PUSH1 0x1F ADD PUSH1 0x20 DUP1 SWAP2 DIV MUL PUSH1 0x20 ADD PUSH1 0x40 MLOAD SWAP1 DUP2 ADD PUSH1 0x40 MSTORE DUP1 SWAP3 SWAP2 SWAP1 DUP2 DUP2 MSTORE PUSH1 0x20 ADD DUP3 DUP1 SLOAD PUSH2 0x2A98 SWAP1 PUSH2 0x54D0 JUMP JUMPDEST DUP1 ISZERO PUSH2 0x2AE5 JUMPI DUP1 PUSH1 0x1F LT PUSH2 0x2ABA JUMPI PUSH2 0x100 DUP1 DUP4 SLOAD DIV MUL DUP4 MSTORE SWAP2 PUSH1 0x20 ADD SWAP2 PUSH2 0x2AE5 JUMP JUMPDEST DUP3 ADD SWAP2 SWAP1 PUSH1 0x0 MSTORE PUSH1 0x20 PUSH1 0x0 KECCAK256 SWAP1 JUMPDEST DUP2 SLOAD DUP2 MSTORE SWAP1 PUSH1 0x1 ADD SWAP1 PUSH1 0x20 ADD DUP1 DUP4 GT PUSH2 0x2AC8 JUMPI DUP3 SWAP1 SUB PUSH1 0x1F AND DUP3 ADD SWAP2 JUMPDEST POP POP POP POP POP DUP2 MSTORE PUSH1 0x20 ADD PUSH1 0x4 DUP3 ADD PUSH1 0x40 MLOAD DUP1 PUSH1 0xA0 ADD PUSH1 0x40 MSTORE SWAP1 DUP2 PUSH1 0x0 DUP3 ADD DUP1 SLOAD PUSH2 0x2B0E SWAP1 PUSH2 0x54D0 JUMP JUMPDEST DUP1 PUSH1 0x1F ADD PUSH1 0x20 DUP1 SWAP2 DIV MUL PUSH1 0x20 ADD PUSH1 0x40 MLOAD SWAP1 DUP2 ADD PUSH1 0x40 MSTORE DUP1 SWAP3 SWAP2 SWAP1 DUP2 DUP2 MSTORE PUSH1 0x20 ADD DUP3 DUP1 SLOAD PUSH2 0x2B3A SWAP1 PUSH2 0x54D0 JUMP JUMPDEST DUP1 ISZERO PUSH2 0x2B87 JUMPI DUP1 PUSH1 0x1F LT PUSH2 0x2B5C JUMPI PUSH2 0x100 DUP1 DUP4 SLOAD DIV MUL DUP4 MSTORE SWAP2 PUSH1 0x20 ADD SWAP2 PUSH2 0x2B87 JUMP JUMPDEST DUP3 ADD SWAP2 SWAP1 PUSH1 0x0 MSTORE PUSH1 0x20 PUSH1 0x0 KECCAK256 SWAP1 JUMPDEST DUP2 SLOAD DUP2 MSTORE SWAP1 PUSH1 0x1 ADD SWAP1 PUSH1 0x20 ADD DUP1 DUP4 GT PUSH2 0x2B6A JUMPI DUP3 SWAP1 SUB PUSH1 0x1F AND DUP3 ADD SWAP2 JUMPDEST POP POP POP POP POP DUP2 MSTORE PUSH1 0x20 ADD PUSH1 0x1 DUP3 ADD DUP1 SLOAD PUSH2 0x2BA0 SWAP1 PUSH2 0x54D0 JUMP JUMPDEST DUP1 PUSH1 0x1F ADD PUSH1 0x20 DUP1 SWAP2 DIV MUL PUSH1 0x20 ADD PUSH1 0x40 MLOAD SWAP1 DUP2 ADD PUSH1 0x40 MSTORE DUP1 SWAP3 SWAP2 SWAP1 DUP2 DUP2 MSTORE PUSH1 0x20 ADD DUP3 DUP1 SLOAD PUSH2 0x2BCC SWAP1 PUSH2 0x54D0 JUMP JUMPDEST DUP1 ISZERO PUSH2 0x2C19 JUMPI DUP1 PUSH1 0x1F LT PUSH2 0x2BEE JUMPI PUSH2 0x100 DUP1 DUP4 SLOAD DIV MUL DUP4 MSTORE SWAP2 PUSH1 0x20 ADD SWAP2 PUSH2 0x2C19 JUMP JUMPDEST DUP3 ADD SWAP2 SWAP1 PUSH1 0x0 MSTORE PUSH1 0x20 PUSH1 0x0 KECCAK256 SWAP1 JUMPDEST DUP2 SLOAD DUP2 MSTORE SWAP1 PUSH1 0x1 ADD SWAP1 PUSH1 0x20 ADD DUP1 DUP4 GT PUSH2 0x2BFC JUMPI DUP3 SWAP1 SUB PUSH1 0x1F AND DUP3 ADD SWAP2 JUMPDEST POP POP POP POP POP DUP2 MSTORE PUSH1 0x20 ADD PUSH1 0x2 DUP3 ADD DUP1 SLOAD PUSH2 0x2C32 SWAP1 PUSH2 0x54D0 JUMP JUMPDEST DUP1 PUSH1 0x1F ADD PUSH1 0x20 DUP1 SWAP2 DIV MUL PUSH1 0x20 ADD PUSH1 0x40 MLOAD SWAP1 DUP2 ADD PUSH1 0x40 MSTORE DUP1 SWAP3 SWAP2 SWAP1 DUP2 DUP2 MSTORE PUSH1 0x20 ADD DUP3 DUP1 SLOAD PUSH2 0x2C5E SWAP1 PUSH2 0x54D0 JUMP JUMPDEST DUP1 ISZERO PUSH2 0x2CAB JUMPI DUP1 PUSH1 0x1F LT PUSH2 0x2C80 JUMPI PUSH2 0x100 DUP1 DUP4 SLOAD DIV MUL DUP4 MSTORE SWAP2 PUSH1 0x20 ADD SWAP2 PUSH2 0x2CAB JUMP JUMPDEST DUP3 ADD SWAP2 SWAP1 PUSH1 0x0 MSTORE PUSH1 0x20 PUSH1 0x0 KECCAK256 SWAP1 JUMPDEST DUP2 SLOAD DUP2 MSTORE SWAP1 PUSH1 0x1 ADD SWAP1 PUSH1 0x20 ADD DUP1 DUP4 GT PUSH2 0x2C8E JUMPI DUP3 SWAP1 SUB PUSH1 0x1F AND DUP3 ADD SWAP2 JUMPDEST POP POP POP POP POP DUP2 MSTORE PUSH1 0x20 ADD PUSH1 0x3 DUP3 ADD DUP1 SLOAD PUSH2 0x2CC4 SWAP1 PUSH2 0x54D0 JUMP JUMPDEST DUP1 PUSH1 0x1F ADD PUSH1 0x20 DUP1 SWAP2 DIV MUL PUSH1 0x20 ADD PUSH1 0x40 MLOAD SWAP1 DUP2 ADD PUSH1 0x40 MSTORE DUP1 SWAP3 SWAP2 SWAP1 DUP2 DUP2 MSTORE PUSH1 0x20 ADD DUP3 DUP1 SLOAD PUSH2 0x2CF0 SWAP1 PUSH2 0x54D0 JUMP JUMPDEST DUP1 ISZERO PUSH2 0x2D3D JUMPI DUP1 PUSH1 0x1F LT PUSH2 0x2D12 JUMPI PUSH2 0x100 DUP1 DUP4 SLOAD DIV MUL DUP4 MSTORE SWAP2 PUSH1 0x20 ADD SWAP2 PUSH2 0x2D3D JUMP JUMPDEST DUP3 ADD SWAP2 SWAP1 PUSH1 0x0 MSTORE PUSH1 0x20 PUSH1 0x0 KECCAK256 SWAP1 JUMPDEST DUP2 SLOAD DUP2 MSTORE SWAP1 PUSH1 0x1 ADD SWAP1 PUSH1 0x20 ADD DUP1 DUP4 GT PUSH2 0x2D20 JUMPI DUP3 SWAP1 SUB PUSH1 0x1F AND DUP3 ADD SWAP2 JUMPDEST POP POP POP POP POP DUP2 MSTORE PUSH1 0x20 ADD PUSH1 0x4 DUP3 ADD DUP1 SLOAD PUSH2 0x2D56 SWAP1 PUSH2 0x54D0 JUMP JUMPDEST DUP1 PUSH1 0x1F ADD PUSH1 0x20 DUP1 SWAP2 DIV MUL PUSH1 0x20 ADD PUSH1 0x40 MLOAD SWAP1 DUP2 ADD PUSH1 0x40 MSTORE DUP1 SWAP3 SWAP2 SWAP1 DUP2 DUP2 MSTORE PUSH1 0x20 ADD DUP3 DUP1 SLOAD PUSH2 0x2D82 SWAP1 PUSH2 0x54D0 JUMP JUMPDEST DUP1 ISZERO PUSH2 0x2DCF JUMPI DUP1 PUSH1 0x1F LT PUSH2 0x2DA4 JUMPI PUSH2 0x100 DUP1 DUP4 SLOAD DIV MUL DUP4 MSTORE SWAP2 PUSH1 0x20 ADD SWAP2 PUSH2 0x2DCF JUMP JUMPDEST DUP3 ADD SWAP2 SWAP1 PUSH1 0x0 MSTORE PUSH1 0x20 PUSH1 0x0 KECCAK256 SWAP1 JUMPDEST DUP2 SLOAD DUP2 MSTORE SWAP1 PUSH1 0x1 ADD SWAP1 PUSH1 0x20 ADD DUP1 DUP4 GT PUSH2 0x2DB2 JUMPI DUP3 SWAP1 SUB PUSH1 0x1F AND DUP3 ADD SWAP2 JUMPDEST POP POP POP POP POP DUP2 MSTORE POP POP DUP2 MSTORE PUSH1 0x20 ADD PUSH1 0x9 DUP3 ADD DUP1 SLOAD PUSH2 0x2DEC SWAP1 PUSH2 0x54D0 JUMP JUMPDEST DUP1 PUSH1 0x1F ADD PUSH1 0x20 DUP1 SWAP2 DIV MUL PUSH1 0x20 ADD PUSH1 0x40 MLOAD SWAP1 DUP2 ADD PUSH1 0x40 MSTORE DUP1 SWAP3 SWAP2 SWAP1 DUP2 DUP2 MSTORE PUSH1 0x20 ADD DUP3 DUP1 SLOAD PUSH2 0x2E18 SWAP1 PUSH2 0x54D0 JUMP JUMPDEST DUP1 ISZERO PUSH2 0x2E65 JUMPI DUP1 PUSH1 0x1F LT PUSH2 0x2E3A JUMPI PUSH2 0x100 DUP1 DUP4 SLOAD DIV MUL DUP4 MSTORE SWAP2 PUSH1 0x20 ADD SWAP2 PUSH2 0x2E65 JUMP JUMPDEST DUP3 ADD SWAP2 SWAP1 PUSH1 0x0 MSTORE PUSH1 0x20 PUSH1 0x0 KECCAK256 SWAP1 JUMPDEST DUP2 SLOAD DUP2 MSTORE SWAP1 PUSH1 0x1 ADD SWAP1 PUSH1 0x20 ADD DUP1 DUP4 GT PUSH2 0x2E48 JUMPI DUP3 SWAP1 SUB PUSH1 0x1F AND DUP3 ADD SWAP2 JUMPDEST POP POP POP POP POP DUP2 MSTORE PUSH1 0x20 ADD PUSH1 0xA DUP3 ADD SLOAD DUP2 MSTORE PUSH1 0x20 ADD PUSH1 0xB DUP3 ADD DUP1 SLOAD PUSH2 0x2E88 SWAP1 PUSH2 0x54D0 JUMP JUMPDEST DUP1 PUSH1 0x1F ADD PUSH1 0x20 DUP1 SWAP2 DIV MUL PUSH1 0x20 ADD PUSH1 0x40 MLOAD SWAP1 DUP2 ADD PUSH1 0x40 MSTORE DUP1 SWAP3 SWAP2 SWAP1 DUP2 DUP2 MSTORE PUSH1 0x20 ADD DUP3 DUP1 SLOAD PUSH2 0x2EB4 SWAP1 PUSH2 0x54D0 JUMP JUMPDEST DUP1 ISZERO PUSH2 0x2F01 JUMPI DUP1 PUSH1 0x1F LT PUSH2 0x2ED6 JUMPI PUSH2 0x100 DUP1 DUP4 SLOAD DIV MUL DUP4 MSTORE SWAP2 PUSH1 0x20 ADD SWAP2 PUSH2 0x2F01 JUMP JUMPDEST DUP3 ADD SWAP2 SWAP1 PUSH1 0x0 MSTORE PUSH1 0x20 PUSH1 0x0 KECCAK256 SWAP1 JUMPDEST DUP2 SLOAD DUP2 MSTORE SWAP1 PUSH1 0x1 ADD SWAP1 PUSH1 0x20 ADD DUP1 DUP4 GT PUSH2 0x2EE4 JUMPI DUP3 SWAP1 SUB PUSH1 0x1F AND DUP3 ADD SWAP2 JUMPDEST POP POP POP POP POP DUP2 MSTORE PUSH1 0x20 ADD PUSH1 0xC DUP3 ADD DUP1 SLOAD PUSH2 0x2F1A SWAP1 PUSH2 0x54D0 JUMP JUMPDEST DUP1 PUSH1 0x1F ADD PUSH1 0x20 DUP1 SWAP2 DIV MUL PUSH1 0x20 ADD PUSH1 0x40 MLOAD SWAP1 DUP2 ADD PUSH1 0x40 MSTORE DUP1 SWAP3 SWAP2 SWAP1 DUP2 DUP2 MSTORE PUSH1 0x20 ADD DUP3 DUP1 SLOAD PUSH2 0x2F46 SWAP1 PUSH2 0x54D0 JUMP JUMPDEST DUP1 ISZERO PUSH2 0x2F93 JUMPI DUP1 PUSH1 0x1F LT PUSH2 0x2F68 JUMPI PUSH2 0x100 DUP1 DUP4 SLOAD DIV MUL DUP4 MSTORE SWAP2 PUSH1 0x20 ADD SWAP2 PUSH2 0x2F93 JUMP JUMPDEST DUP3 ADD SWAP2 SWAP1 PUSH1 0x0 MSTORE PUSH1 0x20 PUSH1 0x0 KECCAK256 SWAP1 JUMPDEST DUP2 SLOAD DUP2 MSTORE SWAP1 PUSH1 0x1 ADD SWAP1 PUSH1 0x20 ADD DUP1 DUP4 GT PUSH2 0x2F76 JUMPI DUP3 SWAP1 SUB PUSH1 0x1F AND DUP3 ADD SWAP2 JUMPDEST POP POP POP POP POP DUP2 MSTORE PUSH1 0x20 ADD PUSH1 0xD DUP3 ADD PUSH1 0x0 SWAP1 SLOAD SWAP1 PUSH2 0x100 EXP SWAP1 DIV PUSH1 0xFF AND ISZERO ISZERO ISZERO ISZERO DUP2 MSTORE PUSH1 0x20 ADD PUSH1 0xE DUP3 ADD SLOAD DUP2 MSTORE PUSH1 0x20 ADD PUSH1 0xF DUP3 ADD SLOAD DUP2 MSTORE POP POP SWAP1 POP PUSH1 0x0 DUP2 PUSH1 0x0 ADD MLOAD SUB PUSH2 0x3014 JUMPI PUSH1 0x40 MLOAD PUSH32 0x8C379A000000000000000000000000000000000000000000000000000000000 DUP2 MSTORE PUSH1 0x4 ADD PUSH2 0x300B SWAP1 PUSH2 0x52D1 JUMP JUMPDEST PUSH1 0x40 MLOAD DUP1 SWAP2 SUB SWAP1 REVERT JUMPDEST DUP1 PUSH2 0x120 ADD MLOAD PUSH2 0x3059 JUMPI PUSH1 0x40 MLOAD PUSH32 0x8C379A000000000000000000000000000000000000000000000000000000000 DUP2 MSTORE PUSH1 0x4 ADD PUSH2 0x3050 SWAP1 PUSH2 0x5CEF JUMP JUMPDEST PUSH1 0x40 MLOAD DUP1 SWAP2 SUB SWAP1 REVERT JUMPDEST DUP1 PUSH1 0xC0 ADD MLOAD CALLVALUE EQ PUSH2 0x309F JUMPI PUSH1 0x40 MLOAD PUSH32 0x8C379A000000000000000000000000000000000000000000000000000000000 DUP2 MSTORE PUSH1 0x4 ADD PUSH2 0x3096 SWAP1 PUSH2 0x5D5B JUMP JUMPDEST PUSH1 0x40 MLOAD DUP1 SWAP2 SUB SWAP1 REVERT JUMPDEST PUSH1 0x0 PUSH1 0x64 PUSH1 0x3 SLOAD CALLVALUE PUSH2 0x30B1 SWAP2 SWAP1 PUSH2 0x5D7B JUMP JUMPDEST PUSH2 0x30BB SWAP2 SWAP1 PUSH2 0x5DEC JUMP JUMPDEST SWAP1 POP PUSH1 0x0 DUP2 CALLVALUE PUSH2 0x30CB SWAP2 SWAP1 PUSH2 0x5970 JUMP JUMPDEST SWAP1 POP PUSH1 0x1 PUSH1 0x9 PUSH1 0x0 DUP7 DUP2 MSTORE PUSH1 0x20 ADD SWAP1 DUP2 MSTORE PUSH1 0x20 ADD PUSH1 0x0 KECCAK256 PUSH1 0x0 CALLER PUSH20 0xFFFFFFFFFFFFFFFFFFFFFFFFFFFFFFFFFFFFFFFF AND PUSH20 0xFFFFFFFFFFFFFFFFFFFFFFFFFFFFFFFFFFFFFFFF AND DUP2 MSTORE PUSH1 0x20 ADD SWAP1 DUP2 MSTORE PUSH1 0x20 ADD PUSH1 0x0 KECCAK256 PUSH1 0x0 PUSH2 0x100 EXP DUP2 SLOAD DUP2 PUSH1 0xFF MUL NOT AND SWAP1 DUP4 ISZERO ISZERO MUL OR SWAP1 SSTORE POP PUSH32 0x1CCB44F7994F1A3D2E759376C53231768E4C9CD9B230AD05D26D158CF6AC66CF DUP5 CALLER CALLVALUE TIMESTAMP PUSH1 0x40 MLOAD PUSH2 0x316B SWAP5 SWAP4 SWAP3 SWAP2 SWAP1 PUSH2 0x5E1D JUMP JUMPDEST PUSH1 0x40 MLOAD DUP1 SWAP2 SUB SWAP1 LOG1 DUP3 PUSH1 0x20 ADD MLOAD PUSH20 0xFFFFFFFFFFFFFFFFFFFFFFFFFFFFFFFFFFFFFFFF AND PUSH2 0x8FC DUP3 SWAP1 DUP2 ISZERO MUL SWAP1 PUSH1 0x40 MLOAD PUSH1 0x0 PUSH1 0x40 MLOAD DUP1 DUP4 SUB DUP2 DUP6 DUP9 DUP9 CALL SWAP4 POP POP POP POP ISZERO DUP1 ISZERO PUSH2 0x31BD JUMPI RETURNDATASIZE PUSH1 0x0 DUP1 RETURNDATACOPY RETURNDATASIZE PUSH1 0x0 REVERT JUMPDEST POP DUP1 PUSH1 0xA PUSH1 0x0 DUP7 DUP2 MSTORE PUSH1 0x20 ADD SWAP1 DUP2 MSTORE PUSH1 0x20 ADD PUSH1 0x0 KECCAK256 PUSH1 0x0 DUP3 DUP3 SLOAD PUSH2 0x31E1 SWAP2 SWAP1 PUSH2 0x5E62 JUMP JUMPDEST SWAP3 POP POP DUP2 SWAP1 SSTORE POP DUP1 PUSH1 0xB PUSH1 0x0 DUP6 PUSH1 0x20 ADD MLOAD PUSH20 0xFFFFFFFFFFFFFFFFFFFFFFFFFFFFFFFFFFFFFFFF AND PUSH20 0xFFFFFFFFFFFFFFFFFFFFFFFFFFFFFFFFFFFFFFFF AND DUP2 MSTORE PUSH1 0x20 ADD SWAP1 DUP2 MSTORE PUSH1 0x20 ADD PUSH1 0x0 KECCAK256 PUSH1 0x0 DUP3 DUP3 SLOAD PUSH2 0x323B SWAP2 SWAP1 PUSH2 0x5E62 JUMP JUMPDEST SWAP3 POP POP DUP2 SWAP1 SSTORE POP POP POP POP PUSH2 0x324D PUSH2 0x428A JUMP JUMPDEST POP JUMP JUMPDEST PUSH1 0x60 PUSH1 0x0 PUSH1 0x8 PUSH1 0x0 DUP5 DUP2 MSTORE PUSH1 0x20 ADD SWAP1 DUP2 MSTORE PUSH1 0x20 ADD PUSH1 0x0 KECCAK256 PUSH1 0x0 ADD SLOAD SUB PUSH2 0x32AB JUMPI PUSH1 0x40 MLOAD PUSH32 0x8C379A000000000000000000000000000000000000000000000000000000000 DUP2 MSTORE PUSH1 0x4 ADD PUSH2 0x32A2 SWAP1 PUSH2 0x52D1 JUMP JUMPDEST PUSH1 0x40 MLOAD DUP1 SWAP2 SUB SWAP1 REVERT JUMPDEST PUSH1 0x9 PUSH1 0x0 DUP4 DUP2 MSTORE PUSH1 0x20 ADD SWAP1 DUP2 MSTORE PUSH1 0x20 ADD PUSH1 0x0 KECCAK256 PUSH1 0x0 CALLER PUSH20 0xFFFFFFFFFFFFFFFFFFFFFFFFFFFFFFFFFFFFFFFF AND PUSH20 0xFFFFFFFFFFFFFFFFFFFFFFFFFFFFFFFFFFFFFFFF AND DUP2 MSTORE PUSH1 0x20 ADD SWAP1 DUP2 MSTORE PUSH1 0x20 ADD PUSH1 0x0 KECCAK256 PUSH1 0x0 SWAP1 SLOAD SWAP1 PUSH2 0x100 EXP SWAP1 DIV PUSH1 0xFF AND PUSH2 0x3348 JUMPI PUSH1 0x40 MLOAD PUSH32 0x8C379A000000000000000000000000000000000000000000000000000000000 DUP2 MSTORE PUSH1 0x4 ADD PUSH2 0x333F SWAP1 PUSH2 0x5EE2 JUMP JUMPDEST PUSH1 0x40 MLOAD DUP1 SWAP2 SUB SWAP1 REVERT JUMPDEST PUSH1 0x8 PUSH1 0x0 DUP4 DUP2 MSTORE PUSH1 0x20 ADD SWAP1 DUP2 MSTORE PUSH1 0x20 ADD PUSH1 0x0 KECCAK256 PUSH1 0x3 ADD DUP1 SLOAD PUSH2 0x3369 SWAP1 PUSH2 0x54D0 JUMP JUMPDEST DUP1 PUSH1 0x1F ADD PUSH1 0x20 DUP1 SWAP2 DIV MUL PUSH1 0x20 ADD PUSH1 0x40 MLOAD SWAP1 DUP2 ADD PUSH1 0x40 MSTORE DUP1 SWAP3 SWAP2 SWAP1 DUP2 DUP2 MSTORE PUSH1 0x20 ADD DUP3 DUP1 SLOAD PUSH2 0x3395 SWAP1 PUSH2 0x54D0 JUMP JUMPDEST DUP1 ISZERO PUSH2 0x33E2 JUMPI DUP1 PUSH1 0x1F LT PUSH2 0x33B7 JUMPI PUSH2 0x100 DUP1 DUP4 SLOAD DIV MUL DUP4 MSTORE SWAP2 PUSH1 0x20 ADD SWAP2 PUSH2 0x33E2 JUMP JUMPDEST DUP3 ADD SWAP2 SWAP1 PUSH1 0x0 MSTORE PUSH1 0x20 PUSH1 0x0 KECCAK256 SWAP1 JUMPDEST DUP2 SLOAD DUP2 MSTORE SWAP1 PUSH1 0x1 ADD SWAP1 PUSH1 0x20 ADD DUP1 DUP4 GT PUSH2 0x33C5 JUMPI DUP3 SWAP1 SUB PUSH1 0x1F AND DUP3 ADD SWAP2 JUMPDEST POP POP POP POP POP SWAP1 POP SWAP2 SWAP1 POP JUMP JUMPDEST PUSH2 0x33F6 PUSH2 0x431C JUMP JUMPDEST PUSH1 0x0 PUSH1 0x8 PUSH1 0x0 DUP5 DUP2 MSTORE PUSH1 0x20 ADD SWAP1 DUP2 MSTORE PUSH1 0x20 ADD PUSH1 0x0 KECCAK256 PUSH1 0x0 ADD SLOAD SUB PUSH2 0x344F JUMPI PUSH1 0x40 MLOAD PUSH32 0x8C379A000000000000000000000000000000000000000000000000000000000 DUP2 MSTORE PUSH1 0x4 ADD PUSH2 0x3446 SWAP1 PUSH2 0x52D1 JUMP JUMPDEST PUSH1 0x40 MLOAD DUP1 SWAP2 SUB SWAP1 REVERT JUMPDEST PUSH1 0x8 PUSH1 0x0 DUP4 DUP2 MSTORE PUSH1 0x20 ADD SWAP1 DUP2 MSTORE PUSH1 0x20 ADD PUSH1 0x0 KECCAK256 PUSH1 0x40 MLOAD DUP1 PUSH2 0x180 ADD PUSH1 0x40 MSTORE SWAP1 DUP2 PUSH1 0x0 DUP3 ADD SLOAD DUP2 MSTORE PUSH1 0x20 ADD PUSH1 0x1 DUP3 ADD PUSH1 0x0 SWAP1 SLOAD SWAP1 PUSH2 0x100 EXP SWAP1 DIV PUSH20 0xFFFFFFFFFFFFFFFFFFFFFFFFFFFFFFFFFFFFFFFF AND PUSH20 0xFFFFFFFFFFFFFFFFFFFFFFFFFFFFFFFFFFFFFFFF AND PUSH20 0xFFFFFFFFFFFFFFFFFFFFFFFFFFFFFFFFFFFFFFFF AND DUP2 MSTORE PUSH1 0x20 ADD PUSH1 0x2 DUP3 ADD DUP1 SLOAD PUSH2 0x34DE SWAP1 PUSH2 0x54D0 JUMP JUMPDEST DUP1 PUSH1 0x1F ADD PUSH1 0x20 DUP1 SWAP2 DIV MUL PUSH1 0x20 ADD PUSH1 0x40 MLOAD SWAP1 DUP2 ADD PUSH1 0x40 MSTORE DUP1 SWAP3 SWAP2 SWAP1 DUP2 DUP2 MSTORE PUSH1 0x20 ADD DUP3 DUP1 SLOAD PUSH2 0x350A SWAP1 PUSH2 0x54D0 JUMP JUMPDEST DUP1 ISZERO PUSH2 0x3557 JUMPI DUP1 PUSH1 0x1F LT PUSH2 0x352C JUMPI PUSH2 0x100 DUP1 DUP4 SLOAD DIV MUL DUP4 MSTORE SWAP2 PUSH1 0x20 ADD SWAP2 PUSH2 0x3557 JUMP JUMPDEST DUP3 ADD SWAP2 SWAP1 PUSH1 0x0 MSTORE PUSH1 0x20 PUSH1 0x0 KECCAK256 SWAP1 JUMPDEST DUP2 SLOAD DUP2 MSTORE SWAP1 PUSH1 0x1 ADD SWAP1 PUSH1 0x20 ADD DUP1 DUP4 GT PUSH2 0x353A JUMPI DUP3 SWAP1 SUB PUSH1 0x1F AND DUP3 ADD SWAP2 JUMPDEST POP POP POP POP POP DUP2 MSTORE PUSH1 0x20 ADD PUSH1 0x3 DUP3 ADD DUP1 SLOAD PUSH2 0x3570 SWAP1 PUSH2 0x54D0 JUMP JUMPDEST DUP1 PUSH1 0x1F ADD PUSH1 0x20 DUP1 SWAP2 DIV MUL PUSH1 0x20 ADD PUSH1 0x40 MLOAD SWAP1 DUP2 ADD PUSH1 0x40 MSTORE DUP1 SWAP3 SWAP2 SWAP1 DUP2 DUP2 MSTORE PUSH1 0x20 ADD DUP3 DUP1 SLOAD PUSH2 0x359C SWAP1 PUSH2 0x54D0 JUMP JUMPDEST DUP1 ISZERO PUSH2 0x35E9 JUMPI DUP1 PUSH1 0x1F LT PUSH2 0x35BE JUMPI PUSH2 0x100 DUP1 DUP4 SLOAD DIV MUL DUP4 MSTORE SWAP2 PUSH1 0x20 ADD SWAP2 PUSH2 0x35E9 JUMP JUMPDEST DUP3 ADD SWAP2 SWAP1 PUSH1 0x0 MSTORE PUSH1 0x20 PUSH1 0x0 KECCAK256 SWAP1 JUMPDEST DUP2 SLOAD DUP2 MSTORE SWAP1 PUSH1 0x1 ADD SWAP1 PUSH1 0x20 ADD DUP1 DUP4 GT PUSH2 0x35CC JUMPI DUP3 SWAP1 SUB PUSH1 0x1F AND DUP3 ADD SWAP2 JUMPDEST POP POP POP POP POP DUP2 MSTORE PUSH1 0x20 ADD PUSH1 0x4 DUP3 ADD PUSH1 0x40 MLOAD DUP1 PUSH1 0xA0 ADD PUSH1 0x40 MSTORE SWAP1 DUP2 PUSH1 0x0 DUP3 ADD DUP1 SLOAD PUSH2 0x3612 SWAP1 PUSH2 0x54D0 JUMP JUMPDEST DUP1 PUSH1 0x1F ADD PUSH1 0x20 DUP1 SWAP2 DIV MUL PUSH1 0x20 ADD PUSH1 0x40 MLOAD SWAP1 DUP2 ADD PUSH1 0x40 MSTORE DUP1 SWAP3 SWAP2 SWAP1 DUP2 DUP2 MSTORE PUSH1 0x20 ADD DUP3 DUP1 SLOAD PUSH2 0x363E SWAP1 PUSH2 0x54D0 JUMP JUMPDEST DUP1 ISZERO PUSH2 0x368B JUMPI DUP1 PUSH1 0x1F LT PUSH2 0x3660 JUMPI PUSH2 0x100 DUP1 DUP4 SLOAD DIV MUL DUP4 MSTORE SWAP2 PUSH1 0x20 ADD SWAP2 PUSH2 0x368B JUMP JUMPDEST DUP3 ADD SWAP2 SWAP1 PUSH1 0x0 MSTORE PUSH1 0x20 PUSH1 0x0 KECCAK256 SWAP1 JUMPDEST DUP2 SLOAD DUP2 MSTORE SWAP1 PUSH1 0x1 ADD SWAP1 PUSH1 0x20 ADD DUP1 DUP4 GT PUSH2 0x366E JUMPI DUP3 SWAP1 SUB PUSH1 0x1F AND DUP3 ADD SWAP2 JUMPDEST POP POP POP POP POP DUP2 MSTORE PUSH1 0x20 ADD PUSH1 0x1 DUP3 ADD DUP1 SLOAD PUSH2 0x36A4 SWAP1 PUSH2 0x54D0 JUMP JUMPDEST DUP1 PUSH1 0x1F ADD PUSH1 0x20 DUP1 SWAP2 DIV MUL PUSH1 0x20 ADD PUSH1 0x40 MLOAD SWAP1 DUP2 ADD PUSH1 0x40 MSTORE DUP1 SWAP3 SWAP2 SWAP1 DUP2 DUP2 MSTORE PUSH1 0x20 ADD DUP3 DUP1 SLOAD PUSH2 0x36D0 SWAP1 PUSH2 0x54D0 JUMP JUMPDEST DUP1 ISZERO PUSH2 0x371D JUMPI DUP1 PUSH1 0x1F LT PUSH2 0x36F2 JUMPI PUSH2 0x100 DUP1 DUP4 SLOAD DIV MUL DUP4 MSTORE SWAP2 PUSH1 0x20 ADD SWAP2 PUSH2 0x371D JUMP JUMPDEST DUP3 ADD SWAP2 SWAP1 PUSH1 0x0 MSTORE PUSH1 0x20 PUSH1 0x0 KECCAK256 SWAP1 JUMPDEST DUP2 SLOAD DUP2 MSTORE SWAP1 PUSH1 0x1 ADD SWAP1 PUSH1 0x20 ADD DUP1 DUP4 GT PUSH2 0x3700 JUMPI DUP3 SWAP1 SUB PUSH1 0x1F AND DUP3 ADD SWAP2 JUMPDEST POP POP POP POP POP DUP2 MSTORE PUSH1 0x20 ADD PUSH1 0x2 DUP3 ADD DUP1 SLOAD PUSH2 0x3736 SWAP1 PUSH2 0x54D0 JUMP JUMPDEST DUP1 PUSH1 0x1F ADD PUSH1 0x20 DUP1 SWAP2 DIV MUL PUSH1 0x20 ADD PUSH1 0x40 MLOAD SWAP1 DUP2 ADD PUSH1 0x40 MSTORE DUP1 SWAP3 SWAP2 SWAP1 DUP2 DUP2 MSTORE PUSH1 0x20 ADD DUP3 DUP1 SLOAD PUSH2 0x3762 SWAP1 PUSH2 0x54D0 JUMP JUMPDEST DUP1 ISZERO PUSH2 0x37AF JUMPI DUP1 PUSH1 0x1F LT PUSH2 0x3784 JUMPI PUSH2 0x100 DUP1 DUP4 SLOAD DIV MUL DUP4 MSTORE SWAP2 PUSH1 0x20 ADD SWAP2 PUSH2 0x37AF JUMP JUMPDEST DUP3 ADD SWAP2 SWAP1 PUSH1 0x0 MSTORE PUSH1 0x20 PUSH1 0x0 KECCAK256 SWAP1 JUMPDEST DUP2 SLOAD DUP2 MSTORE SWAP1 PUSH1 0x1 ADD SWAP1 PUSH1 0x20 ADD DUP1 DUP4 GT PUSH2 0x3792 JUMPI DUP3 SWAP1 SUB PUSH1 0x1F AND DUP3 ADD SWAP2 JUMPDEST POP POP POP POP POP DUP2 MSTORE PUSH1 0x20 ADD PUSH1 0x3 DUP3 ADD DUP1 SLOAD PUSH2 0x37C8 SWAP1 PUSH2 0x54D0 JUMP JUMPDEST DUP1 PUSH1 0x1F ADD PUSH1 0x20 DUP1 SWAP2 DIV MUL PUSH1 0x20 ADD PUSH1 0x40 MLOAD SWAP1 DUP2 ADD PUSH1 0x40 MSTORE DUP1 SWAP3 SWAP2 SWAP1 DUP2 DUP2 MSTORE PUSH1 0x20 ADD DUP3 DUP1 SLOAD PUSH2 0x37F4 SWAP1 PUSH2 0x54D0 JUMP JUMPDEST DUP1 ISZERO PUSH2 0x3841 JUMPI DUP1 PUSH1 0x1F LT PUSH2 0x3816 JUMPI PUSH2 0x100 DUP1 DUP4 SLOAD DIV MUL DUP4 MSTORE SWAP2 PUSH1 0x20 ADD SWAP2 PUSH2 0x3841 JUMP JUMPDEST DUP3 ADD SWAP2 SWAP1 PUSH1 0x0 MSTORE PUSH1 0x20 PUSH1 0x0 KECCAK256 SWAP1 JUMPDEST DUP2 SLOAD DUP2 MSTORE SWAP1 PUSH1 0x1 ADD SWAP1 PUSH1 0x20 ADD DUP1 DUP4 GT PUSH2 0x3824 JUMPI DUP3 SWAP1 SUB PUSH1 0x1F AND DUP3 ADD SWAP2 JUMPDEST POP POP POP POP POP DUP2 MSTORE PUSH1 0x20 ADD PUSH1 0x4 DUP3 ADD DUP1 SLOAD PUSH2 0x385A SWAP1 PUSH2 0x54D0 JUMP JUMPDEST DUP1 PUSH1 0x1F ADD PUSH1 0x20 DUP1 SWAP2 DIV MUL PUSH1 0x20 ADD PUSH1 0x40 MLOAD SWAP1 DUP2 ADD PUSH1 0x40 MSTORE DUP1 SWAP3 SWAP2 SWAP1 DUP2 DUP2 MSTORE PUSH1 0x20 ADD DUP3 DUP1 SLOAD PUSH2 0x3886 SWAP1 PUSH2 0x54D0 JUMP JUMPDEST DUP1 ISZERO PUSH2 0x38D3 JUMPI DUP1 PUSH1 0x1F LT PUSH2 0x38A8 JUMPI PUSH2 0x100 DUP1 DUP4 SLOAD DIV MUL DUP4 MSTORE SWAP2 PUSH1 0x20 ADD SWAP2 PUSH2 0x38D3 JUMP JUMPDEST DUP3 ADD SWAP2 SWAP1 PUSH1 0x0 MSTORE PUSH1 0x20 PUSH1 0x0 KECCAK256 SWAP1 JUMPDEST DUP2 SLOAD DUP2 MSTORE SWAP1 PUSH1 0x1 ADD SWAP1 PUSH1 0x20 ADD DUP1 DUP4 GT PUSH2 0x38B6 JUMPI DUP3 SWAP1 SUB PUSH1 0x1F AND DUP3 ADD SWAP2 JUMPDEST POP POP POP POP POP DUP2 MSTORE POP POP DUP2 MSTORE PUSH1 0x20 ADD PUSH1 0x9 DUP3 ADD DUP1 SLOAD PUSH2 0x38F0 SWAP1 PUSH2 0x54D0 JUMP JUMPDEST DUP1 PUSH1 0x1F ADD PUSH1 0x20 DUP1 SWAP2 DIV MUL PUSH1 0x20 ADD PUSH1 0x40 MLOAD SWAP1 DUP2 ADD PUSH1 0x40 MSTORE DUP1 SWAP3 SWAP2 SWAP1 DUP2 DUP2 MSTORE PUSH1 0x20 ADD DUP3 DUP1 SLOAD PUSH2 0x391C SWAP1 PUSH2 0x54D0 JUMP JUMPDEST DUP1 ISZERO PUSH2 0x3969 JUMPI DUP1 PUSH1 0x1F LT PUSH2 0x393E JUMPI PUSH2 0x100 DUP1 DUP4 SLOAD DIV MUL DUP4 MSTORE SWAP2 PUSH1 0x20 ADD SWAP2 PUSH2 0x3969 JUMP JUMPDEST DUP3 ADD SWAP2 SWAP1 PUSH1 0x0 MSTORE PUSH1 0x20 PUSH1 0x0 KECCAK256 SWAP1 JUMPDEST DUP2 SLOAD DUP2 MSTORE SWAP1 PUSH1 0x1 ADD SWAP1 PUSH1 0x20 ADD DUP1 DUP4 GT PUSH2 0x394C JUMPI DUP3 SWAP1 SUB PUSH1 0x1F AND DUP3 ADD SWAP2 JUMPDEST POP POP POP POP POP DUP2 MSTORE PUSH1 0x20 ADD PUSH1 0xA DUP3 ADD SLOAD DUP2 MSTORE PUSH1 0x20 ADD PUSH1 0xB DUP3 ADD DUP1 SLOAD PUSH2 0x398C SWAP1 PUSH2 0x54D0 JUMP JUMPDEST DUP1 PUSH1 0x1F ADD PUSH1 0x20 DUP1 SWAP2 DIV MUL PUSH1 0x20 ADD PUSH1 0x40 MLOAD SWAP1 DUP2 ADD PUSH1 0x40 MSTORE DUP1 SWAP3 SWAP2 SWAP1 DUP2 DUP2 MSTORE PUSH1 0x20 ADD DUP3 DUP1 SLOAD PUSH2 0x39B8 SWAP1 PUSH2 0x54D0 JUMP JUMPDEST DUP1 ISZERO PUSH2 0x3A05 JUMPI DUP1 PUSH1 0x1F LT PUSH2 0x39DA JUMPI PUSH2 0x100 DUP1 DUP4 SLOAD DIV MUL DUP4 MSTORE SWAP2 PUSH1 0x20 ADD SWAP2 PUSH2 0x3A05 JUMP JUMPDEST DUP3 ADD SWAP2 SWAP1 PUSH1 0x0 MSTORE PUSH1 0x20 PUSH1 0x0 KECCAK256 SWAP1 JUMPDEST DUP2 SLOAD DUP2 MSTORE SWAP1 PUSH1 0x1 ADD SWAP1 PUSH1 0x20 ADD DUP1 DUP4 GT PUSH2 0x39E8 JUMPI DUP3 SWAP1 SUB PUSH1 0x1F AND DUP3 ADD SWAP2 JUMPDEST POP POP POP POP POP DUP2 MSTORE PUSH1 0x20 ADD PUSH1 0xC DUP3 ADD DUP1 SLOAD PUSH2 0x3A1E SWAP1 PUSH2 0x54D0 JUMP JUMPDEST DUP1 PUSH1 0x1F ADD PUSH1 0x20 DUP1 SWAP2 DIV MUL PUSH1 0x20 ADD PUSH1 0x40 MLOAD SWAP1 DUP2 ADD PUSH1 0x40 MSTORE DUP1 SWAP3 SWAP2 SWAP1 DUP2 DUP2 MSTORE PUSH1 0x20 ADD DUP3 DUP1 SLOAD PUSH2 0x3A4A SWAP1 PUSH2 0x54D0 JUMP JUMPDEST DUP1 ISZERO PUSH2 0x3A97 JUMPI DUP1 PUSH1 0x1F LT PUSH2 0x3A6C JUMPI PUSH2 0x100 DUP1 DUP4 SLOAD DIV MUL DUP4 MSTORE SWAP2 PUSH1 0x20 ADD SWAP2 PUSH2 0x3A97 JUMP JUMPDEST DUP3 ADD SWAP2 SWAP1 PUSH1 0x0 MSTORE PUSH1 0x20 PUSH1 0x0 KECCAK256 SWAP1 JUMPDEST DUP2 SLOAD DUP2 MSTORE SWAP1 PUSH1 0x1 ADD SWAP1 PUSH1 0x20 ADD DUP1 DUP4 GT PUSH2 0x3A7A JUMPI DUP3 SWAP1 SUB PUSH1 0x1F AND DUP3 ADD SWAP2 JUMPDEST POP POP POP POP POP DUP2 MSTORE PUSH1 0x20 ADD PUSH1 0xD DUP3 ADD PUSH1 0x0 SWAP1 SLOAD SWAP1 PUSH2 0x100 EXP SWAP1 DIV PUSH1 0xFF AND ISZERO ISZERO ISZERO ISZERO DUP2 MSTORE PUSH1 0x20 ADD PUSH1 0xE DUP3 ADD SLOAD DUP2 MSTORE PUSH1 0x20 ADD PUSH1 0xF DUP3 ADD SLOAD DUP2 MSTORE POP POP SWAP1 POP SWAP2 SWAP1 POP JUMP JUMPDEST PUSH1 0x9 PUSH1 0x20 MSTORE DUP2 PUSH1 0x0 MSTORE PUSH1 0x40 PUSH1 0x0 KECCAK256 PUSH1 0x20 MSTORE DUP1 PUSH1 0x0 MSTORE PUSH1 0x40 PUSH1 0x0 KECCAK256 PUSH1 0x0 SWAP2 POP SWAP2 POP SWAP1 SLOAD SWAP1 PUSH2 0x100 EXP SWAP1 DIV PUSH1 0xFF AND DUP2 JUMP JUMPDEST PUSH1 0x7 PUSH1 0x20 MSTORE DUP1 PUSH1 0x0 MSTORE PUSH1 0x40 PUSH1 0x0 KECCAK256 PUSH1 0x0 SWAP2 POP SLOAD SWAP1 PUSH2 0x100 EXP SWAP1 DIV PUSH1 0xFF AND DUP2 JUMP JUMPDEST PUSH1 0x8 PUSH1 0x20 MSTORE DUP1 PUSH1 0x0 MSTORE PUSH1 0x40 PUSH1 0x0 KECCAK256 PUSH1 0x0 SWAP2 POP SWAP1 POP DUP1 PUSH1 0x0 ADD SLOAD SWAP1 DUP1 PUSH1 0x1 ADD PUSH1 0x0 SWAP1 SLOAD SWAP1 PUSH2 0x100 EXP SWAP1 DIV PUSH20 0xFFFFFFFFFFFFFFFFFFFFFFFFFFFFFFFFFFFFFFFF AND SWAP1 DUP1 PUSH1 0x2 ADD DUP1 SLOAD PUSH2 0x3B74 SWAP1 PUSH2 0x54D0 JUMP JUMPDEST DUP1 PUSH1 0x1F ADD PUSH1 0x20 DUP1 SWAP2 DIV MUL PUSH1 0x20 ADD PUSH1 0x40 MLOAD SWAP1 DUP2 ADD PUSH1 0x40 MSTORE DUP1 SWAP3 SWAP2 SWAP1 DUP2 DUP2 MSTORE PUSH1 0x20 ADD DUP3 DUP1 SLOAD PUSH2 0x3BA0 SWAP1 PUSH2 0x54D0 JUMP JUMPDEST DUP1 ISZERO PUSH2 0x3BED JUMPI DUP1 PUSH1 0x1F LT PUSH2 0x3BC2 JUMPI PUSH2 0x100 DUP1 DUP4 SLOAD DIV MUL DUP4 MSTORE SWAP2 PUSH1 0x20 ADD SWAP2 PUSH2 0x3BED JUMP JUMPDEST DUP3 ADD SWAP2 SWAP1 PUSH1 0x0 MSTORE PUSH1 0x20 PUSH1 0x0 KECCAK256 SWAP1 JUMPDEST DUP2 SLOAD DUP2 MSTORE SWAP1 PUSH1 0x1 ADD SWAP1 PUSH1 0x20 ADD DUP1 DUP4 GT PUSH2 0x3BD0 JUMPI DUP3 SWAP1 SUB PUSH1 0x1F AND DUP3 ADD SWAP2 JUMPDEST POP POP POP POP POP SWAP1 DUP1 PUSH1 0x3 ADD DUP1 SLOAD PUSH2 0x3C02 SWAP1 PUSH2 0x54D0 JUMP JUMPDEST DUP1 PUSH1 0x1F ADD PUSH1 0x20 DUP1 SWAP2 DIV MUL PUSH1 0x20 ADD PUSH1 0x40 MLOAD SWAP1 DUP2 ADD PUSH1 0x40 MSTORE DUP1 SWAP3 SWAP2 SWAP1 DUP2 DUP2 MSTORE PUSH1 0x20 ADD DUP3 DUP1 SLOAD PUSH2 0x3C2E SWAP1 PUSH2 0x54D0 JUMP JUMPDEST DUP1 ISZERO PUSH2 0x3C7B JUMPI DUP1 PUSH1 0x1F LT PUSH2 0x3C50 JUMPI PUSH2 0x100 DUP1 DUP4 SLOAD DIV MUL DUP4 MSTORE SWAP2 PUSH1 0x20 ADD SWAP2 PUSH2 0x3C7B JUMP JUMPDEST DUP3 ADD SWAP2 SWAP1 PUSH1 0x0 MSTORE PUSH1 0x20 PUSH1 0x0 KECCAK256 SWAP1 JUMPDEST DUP2 SLOAD DUP2 MSTORE SWAP1 PUSH1 0x1 ADD SWAP1 PUSH1 0x20 ADD DUP1 DUP4 GT PUSH2 0x3C5E JUMPI DUP3 SWAP1 SUB PUSH1 0x1F AND DUP3 ADD SWAP2 JUMPDEST POP POP POP POP POP SWAP1 DUP1 PUSH1 0x4 ADD PUSH1 0x40 MLOAD DUP1 PUSH1 0xA0 ADD PUSH1 0x40 MSTORE SWAP1 DUP2 PUSH1 0x0 DUP3 ADD DUP1 SLOAD PUSH2 0x3CA0 SWAP1 PUSH2 0x54D0 JUMP JUMPDEST DUP1 PUSH1 0x1F ADD PUSH1 0x20 DUP1 SWAP2 DIV MUL PUSH1 0x20 ADD PUSH1 0x40 MLOAD SWAP1 DUP2 ADD PUSH1 0x40 MSTORE DUP1 SWAP3 SWAP2 SWAP1 DUP2 DUP2 MSTORE PUSH1 0x20 ADD DUP3 DUP1 SLOAD PUSH2 0x3CCC SWAP1 PUSH2 0x54D0 JUMP JUMPDEST DUP1 ISZERO PUSH2 0x3D19 JUMPI DUP1 PUSH1 0x1F LT PUSH2 0x3CEE JUMPI PUSH2 0x100 DUP1 DUP4 SLOAD DIV MUL DUP4 MSTORE SWAP2 PUSH1 0x20 ADD SWAP2 PUSH2 0x3D19 JUMP JUMPDEST DUP3 ADD SWAP2 SWAP1 PUSH1 0x0 MSTORE PUSH1 0x20 PUSH1 0x0 KECCAK256 SWAP1 JUMPDEST DUP2 SLOAD DUP2 MSTORE SWAP1 PUSH1 0x1 ADD SWAP1 PUSH1 0x20 ADD DUP1 DUP4 GT PUSH2 0x3CFC JUMPI DUP3 SWAP1 SUB PUSH1 0x1F AND DUP3 ADD SWAP2 JUMPDEST POP POP POP POP POP DUP2 MSTORE PUSH1 0x20 ADD PUSH1 0x1 DUP3 ADD DUP1 SLOAD PUSH2 0x3D32 SWAP1 PUSH2 0x54D0 JUMP JUMPDEST DUP1 PUSH1 0x1F ADD PUSH1 0x20 DUP1 SWAP2 DIV MUL PUSH1 0x20 ADD PUSH1 0x40 MLOAD SWAP1 DUP2 ADD PUSH1 0x40 MSTORE DUP1 SWAP3 SWAP2 SWAP1 DUP2 DUP2 MSTORE PUSH1 0x20 ADD DUP3 DUP1 SLOAD PUSH2 0x3D5E SWAP1 PUSH2 0x54D0 JUMP JUMPDEST DUP1 ISZERO PUSH2 0x3DAB JUMPI DUP1 PUSH1 0x1F LT PUSH2 0x3D80 JUMPI PUSH2 0x100 DUP1 DUP4 SLOAD DIV MUL DUP4 MSTORE SWAP2 PUSH1 0x20 ADD SWAP2 PUSH2 0x3DAB JUMP JUMPDEST DUP3 ADD SWAP2 SWAP1 PUSH1 0x0 MSTORE PUSH1 0x20 PUSH1 0x0 KECCAK256 SWAP1 JUMPDEST DUP2 SLOAD DUP2 MSTORE SWAP1 PUSH1 0x1 ADD SWAP1 PUSH1 0x20 ADD DUP1 DUP4 GT PUSH2 0x3D8E JUMPI DUP3 SWAP1 SUB PUSH1 0x1F AND DUP3 ADD SWAP2 JUMPDEST POP POP POP POP POP DUP2 MSTORE PUSH1 0x20 ADD PUSH1 0x2 DUP3 ADD DUP1 SLOAD PUSH2 0x3DC4 SWAP1 PUSH2 0x54D0 JUMP JUMPDEST DUP1 PUSH1 0x1F ADD PUSH1 0x20 DUP1 SWAP2 DIV MUL PUSH1 0x20 ADD PUSH1 0x40 MLOAD SWAP1 DUP2 ADD PUSH1 0x40 MSTORE DUP1 SWAP3 SWAP2 SWAP1 DUP2 DUP2 MSTORE PUSH1 0x20 ADD DUP3 DUP1 SLOAD PUSH2 0x3DF0 SWAP1 PUSH2 0x54D0 JUMP JUMPDEST DUP1 ISZERO PUSH2 0x3E3D JUMPI DUP1 PUSH1 0x1F LT PUSH2 0x3E12 JUMPI PUSH2 0x100 DUP1 DUP4 SLOAD DIV MUL DUP4 MSTORE SWAP2 PUSH1 0x20 ADD SWAP2 PUSH2 0x3E3D JUMP JUMPDEST DUP3 ADD SWAP2 SWAP1 PUSH1 0x0 MSTORE PUSH1 0x20 PUSH1 0x0 KECCAK256 SWAP1 JUMPDEST DUP2 SLOAD DUP2 MSTORE SWAP1 PUSH1 0x1 ADD SWAP1 PUSH1 0x20 ADD DUP1 DUP4 GT PUSH2 0x3E20 JUMPI DUP3 SWAP1 SUB PUSH1 0x1F AND DUP3 ADD SWAP2 JUMPDEST POP POP POP POP POP DUP2 MSTORE PUSH1 0x20 ADD PUSH1 0x3 DUP3 ADD DUP1 SLOAD PUSH2 0x3E56 SWAP1 PUSH2 0x54D0 JUMP JUMPDEST DUP1 PUSH1 0x1F ADD PUSH1 0x20 DUP1 SWAP2 DIV MUL PUSH1 0x20 ADD PUSH1 0x40 MLOAD SWAP1 DUP2 ADD PUSH1 0x40 MSTORE DUP1 SWAP3 SWAP2 SWAP1 DUP2 DUP2 MSTORE PUSH1 0x20 ADD DUP3 DUP1 SLOAD PUSH2 0x3E82 SWAP1 PUSH2 0x54D0 JUMP JUMPDEST DUP1 ISZERO PUSH2 0x3ECF JUMPI DUP1 PUSH1 0x1F LT PUSH2 0x3EA4 JUMPI PUSH2 0x100 DUP1 DUP4 SLOAD DIV MUL DUP4 MSTORE SWAP2 PUSH1 0x20 ADD SWAP2 PUSH2 0x3ECF JUMP JUMPDEST DUP3 ADD SWAP2 SWAP1 PUSH1 0x0 MSTORE PUSH1 0x20 PUSH1 0x0 KECCAK256 SWAP1 JUMPDEST DUP2 SLOAD DUP2 MSTORE SWAP1 PUSH1 0x1 ADD SWAP1 PUSH1 0x20 ADD DUP1 DUP4 GT PUSH2 0x3EB2 JUMPI DUP3 SWAP1 SUB PUSH1 0x1F AND DUP3 ADD SWAP2 JUMPDEST POP POP POP POP POP DUP2 MSTORE PUSH1 0x20 ADD PUSH1 0x4 DUP3 ADD DUP1 SLOAD PUSH2 0x3EE8 SWAP1 PUSH2 0x54D0 JUMP JUMPDEST DUP1 PUSH1 0x1F ADD PUSH1 0x20 DUP1 SWAP2 DIV MUL PUSH1 0x20 ADD PUSH1 0x40 MLOAD SWAP1 DUP2 ADD PUSH1 0x40 MSTORE DUP1 SWAP3 SWAP2 SWAP1 DUP2 DUP2 MSTORE PUSH1 0x20 ADD DUP3 DUP1 SLOAD PUSH2 0x3F14 SWAP1 PUSH2 0x54D0 JUMP JUMPDEST DUP1 ISZERO PUSH2 0x3F61 JUMPI DUP1 PUSH1 0x1F LT PUSH2 0x3F36 JUMPI PUSH2 0x100 DUP1 DUP4 SLOAD DIV MUL DUP4 MSTORE SWAP2 PUSH1 0x20 ADD SWAP2 PUSH2 0x3F61 JUMP JUMPDEST DUP3 ADD SWAP2 SWAP1 PUSH1 0x0 MSTORE PUSH1 0x20 PUSH1 0x0 KECCAK256 SWAP1 JUMPDEST DUP2 SLOAD DUP2 MSTORE SWAP1 PUSH1 0x1 ADD SWAP1 PUSH1 0x20 ADD DUP1 DUP4 GT PUSH2 0x3F44 JUMPI DUP3 SWAP1 SUB PUSH1 0x1F AND DUP3 ADD SWAP2 JUMPDEST POP POP POP POP POP DUP2 MSTORE POP POP SWAP1 DUP1 PUSH1 0x9 ADD DUP1 SLOAD PUSH2 0x3F7A SWAP1 PUSH2 0x54D0 JUMP JUMPDEST DUP1 PUSH1 0x1F ADD PUSH1 0x20 DUP1 SWAP2 DIV MUL PUSH1 0x20 ADD PUSH1 0x40 MLOAD SWAP1 DUP2 ADD PUSH1 0x40 MSTORE DUP1 SWAP3 SWAP2 SWAP1 DUP2 DUP2 MSTORE PUSH1 0x20 ADD DUP3 DUP1 SLOAD PUSH2 0x3FA6 SWAP1 PUSH2 0x54D0 JUMP JUMPDEST DUP1 ISZERO PUSH2 0x3FF3 JUMPI DUP1 PUSH1 0x1F LT PUSH2 0x3FC8 JUMPI PUSH2 0x100 DUP1 DUP4 SLOAD DIV MUL DUP4 MSTORE SWAP2 PUSH1 0x20 ADD SWAP2 PUSH2 0x3FF3 JUMP JUMPDEST DUP3 ADD SWAP2 SWAP1 PUSH1 0x0 MSTORE PUSH1 0x20 PUSH1 0x0 KECCAK256 SWAP1 JUMPDEST DUP2 SLOAD DUP2 MSTORE SWAP1 PUSH1 0x1 ADD SWAP1 PUSH1 0x20 ADD DUP1 DUP4 GT PUSH2 0x3FD6 JUMPI DUP3 SWAP1 SUB PUSH1 0x1F AND DUP3 ADD SWAP2 JUMPDEST POP POP POP POP POP SWAP1 DUP1 PUSH1 0xA ADD SLOAD SWAP1 DUP1 PUSH1 0xB ADD DUP1 SLOAD PUSH2 0x400E SWAP1 PUSH2 0x54D0 JUMP JUMPDEST DUP1 PUSH1 0x1F ADD PUSH1 0x20 DUP1 SWAP2 DIV MUL PUSH1 0x20 ADD PUSH1 0x40 MLOAD SWAP1 DUP2 ADD PUSH1 0x40 MSTORE DUP1 SWAP3 SWAP2 SWAP1 DUP2 DUP2 MSTORE PUSH1 0x20 ADD DUP3 DUP1 SLOAD PUSH2 0x403A SWAP1 PUSH2 0x54D0 JUMP JUMPDEST DUP1 ISZERO PUSH2 0x4087 JUMPI DUP1 PUSH1 0x1F LT PUSH2 0x405C JUMPI PUSH2 0x100 DUP1 DUP4 SLOAD DIV MUL DUP4 MSTORE SWAP2 PUSH1 0x20 ADD SWAP2 PUSH2 0x4087 JUMP JUMPDEST DUP3 ADD SWAP2 SWAP1 PUSH1 0x0 MSTORE PUSH1 0x20 PUSH1 0x0 KECCAK256 SWAP1 JUMPDEST DUP2 SLOAD DUP2 MSTORE SWAP1 PUSH1 0x1 ADD SWAP1 PUSH1 0x20 ADD DUP1 DUP4 GT PUSH2 0x406A JUMPI DUP3 SWAP1 SUB PUSH1 0x1F AND DUP3 ADD SWAP2 JUMPDEST POP POP POP POP POP SWAP1 DUP1 PUSH1 0xC ADD DUP1 SLOAD PUSH2 0x409C SWAP1 PUSH2 0x54D0 JUMP JUMPDEST DUP1 PUSH1 0x1F ADD PUSH1 0x20 DUP1 SWAP2 DIV MUL PUSH1 0x20 ADD PUSH1 0x40 MLOAD SWAP1 DUP2 ADD PUSH1 0x40 MSTORE DUP1 SWAP3 SWAP2 SWAP1 DUP2 DUP2 MSTORE PUSH1 0x20 ADD DUP3 DUP1 SLOAD PUSH2 0x40C8 SWAP1 PUSH2 0x54D0 JUMP JUMPDEST DUP1 ISZERO PUSH2 0x4115 JUMPI DUP1 PUSH1 0x1F LT PUSH2 0x40EA JUMPI PUSH2 0x100 DUP1 DUP4 SLOAD DIV MUL DUP4 MSTORE SWAP2 PUSH1 0x20 ADD SWAP2 PUSH2 0x4115 JUMP JUMPDEST DUP3 ADD SWAP2 SWAP1 PUSH1 0x0 MSTORE PUSH1 0x20 PUSH1 0x0 KECCAK256 SWAP1 JUMPDEST DUP2 SLOAD DUP2 MSTORE SWAP1 PUSH1 0x1 ADD SWAP1 PUSH1 0x20 ADD DUP1 DUP4 GT PUSH2 0x40F8 JUMPI DUP3 SWAP1 SUB PUSH1 0x1F AND DUP3 ADD SWAP2 JUMPDEST POP POP POP POP POP SWAP1 DUP1 PUSH1 0xD ADD PUSH1 0x0 SWAP1 SLOAD SWAP1 PUSH2 0x100 EXP SWAP1 DIV PUSH1 0xFF AND SWAP1 DUP1 PUSH1 0xE ADD SLOAD SWAP1 DUP1 PUSH1 0xF ADD SLOAD SWAP1 POP DUP13 JUMP JUMPDEST PUSH2 0x4146 PUSH2 0x186D JUMP JUMPDEST ISZERO PUSH2 0x417D JUMPI PUSH1 0x40 MLOAD PUSH32 0xD93C066500000000000000000000000000000000000000000000000000000000 DUP2 MSTORE PUSH1 0x4 ADD PUSH1 0x40 MLOAD DUP1 SWAP2 SUB SWAP1 REVERT JUMPDEST JUMP JUMPDEST PUSH2 0x4187 PUSH2 0x4294 JUMP JUMPDEST PUSH1 0x0 PUSH1 0x1 PUSH1 0x0 PUSH2 0x100 EXP DUP2 SLOAD DUP2 PUSH1 0xFF MUL NOT AND SWAP1 DUP4 ISZERO ISZERO MUL OR SWAP1 SSTORE POP PUSH32 0x5DB9EE0A495BF2E6FF9C91A7834C1BA4FDD244A5E8AA4E537BD38AEAE4B073AA PUSH2 0x41CB PUSH2 0x42D4 JUMP JUMPDEST PUSH1 0x40 MLOAD PUSH2 0x41D8 SWAP2 SWAP1 PUSH2 0x4BE9 JUMP JUMPDEST PUSH1 0x40 MLOAD DUP1 SWAP2 SUB SWAP1 LOG1 JUMP JUMPDEST PUSH2 0x41EA PUSH2 0x413E JUMP JUMPDEST PUSH1 0x1 DUP1 PUSH1 0x0 PUSH2 0x100 EXP DUP2 SLOAD DUP2 PUSH1 0xFF MUL NOT AND SWAP1 DUP4 ISZERO ISZERO MUL OR SWAP1 SSTORE POP PUSH32 0x62E78CEA01BEE320CD4E420270B5EA74000D11B0C9F74754EBDBFC544B05A258 PUSH2 0x422D PUSH2 0x42D4 JUMP JUMPDEST PUSH1 0x40 MLOAD PUSH2 0x423A SWAP2 SWAP1 PUSH2 0x4BE9 JUMP JUMPDEST PUSH1 0x40 MLOAD DUP1 SWAP2 SUB SWAP1 LOG1 JUMP JUMPDEST PUSH1 0x2 PUSH1 0x0 SLOAD SUB PUSH2 0x4280 JUMPI PUSH1 0x40 MLOAD PUSH32 0x3EE5AEB500000000000000000000000000000000000000000000000000000000 DUP2 MSTORE PUSH1 0x4 ADD PUSH1 0x40 MLOAD DUP1 SWAP2 SUB SWAP1 REVERT JUMPDEST PUSH1 0x2 PUSH1 0x0 DUP2 SWAP1 SSTORE POP JUMP JUMPDEST PUSH1 0x1 PUSH1 0x0 DUP2 SWAP1 SSTORE POP JUMP JUMPDEST PUSH2 0x429C PUSH2 0x186D JUMP JUMPDEST PUSH2 0x42D2 JUMPI PUSH1 0x40 MLOAD PUSH32 0x8DFC202B00000000000000000000000000000000000000000000000000000000 DUP2 MSTORE PUSH1 0x4 ADD PUSH1 0x40 MLOAD DUP1 SWAP2 SUB SWAP1 REVERT JUMPDEST JUMP JUMPDEST PUSH1 0x0 CALLER SWAP1 POP SWAP1 JUMP JUMPDEST POP DUP1 SLOAD PUSH2 0x42E8 SWAP1 PUSH2 0x54D0 JUMP JUMPDEST PUSH1 0x0 DUP3 SSTORE DUP1 PUSH1 0x1F LT PUSH2 0x42FA JUMPI POP PUSH2 0x4319 JUMP JUMPDEST PUSH1 0x1F ADD PUSH1 0x20 SWAP1 DIV SWAP1 PUSH1 0x0 MSTORE PUSH1 0x20 PUSH1 0x0 KECCAK256 SWAP1 DUP2 ADD SWAP1 PUSH2 0x4318 SWAP2 SWAP1 PUSH2 0x439B JUMP JUMPDEST JUMPDEST POP JUMP JUMPDEST PUSH1 0x40 MLOAD DUP1 PUSH2 0x180 ADD PUSH1 0x40 MSTORE DUP1 PUSH1 0x0 DUP2 MSTORE PUSH1 0x20 ADD PUSH1 0x0 PUSH20 0xFFFFFFFFFFFFFFFFFFFFFFFFFFFFFFFFFFFFFFFF AND DUP2 MSTORE PUSH1 0x20 ADD PUSH1 0x60 DUP2 MSTORE PUSH1 0x20 ADD PUSH1 0x60 DUP2 MSTORE PUSH1 0x20 ADD PUSH2 0x4362 PUSH2 0x43B8 JUMP JUMPDEST DUP2 MSTORE PUSH1 0x20 ADD PUSH1 0x60 DUP2 MSTORE PUSH1 0x20 ADD PUSH1 0x0 DUP2 MSTORE PUSH1 0x20 ADD PUSH1 0x60 DUP2 MSTORE PUSH1 0x20 ADD PUSH1 0x60 DUP2 MSTORE PUSH1 0x20 ADD PUSH1 0x0 ISZERO ISZERO DUP2 MSTORE PUSH1 0x20 ADD PUSH1 0x0 DUP2 MSTORE PUSH1 0x20 ADD PUSH1 0x0 DUP2 MSTORE POP SWAP1 JUMP JUMPDEST JUMPDEST DUP1 DUP3 GT ISZERO PUSH2 0x43B4 JUMPI PUSH1 0x0 DUP2 PUSH1 0x0 SWAP1 SSTORE POP PUSH1 0x1 ADD PUSH2 0x439C JUMP JUMPDEST POP SWAP1 JUMP JUMPDEST PUSH1 0x40 MLOAD DUP1 PUSH1 0xA0 ADD PUSH1 0x40 MSTORE DUP1 PUSH1 0x60 DUP2 MSTORE PUSH1 0x20 ADD PUSH1 0x60 DUP2 MSTORE PUSH1 0x20 ADD PUSH1 0x60 DUP2 MSTORE PUSH1 0x20 ADD PUSH1 0x60 DUP2 MSTORE PUSH1 0x20 ADD PUSH1 0x60 DUP2 MSTORE POP SWAP1 JUMP JUMPDEST PUSH1 0x0 PUSH1 0x40 MLOAD SWAP1 POP SWAP1 JUMP JUMPDEST PUSH1 0x0 DUP1 REVERT JUMPDEST PUSH1 0x0 DUP1 REVERT JUMPDEST PUSH1 0x0 DUP2 SWAP1 POP SWAP2 SWAP1 POP JUMP JUMPDEST PUSH2 0x440E DUP2 PUSH2 0x43FB JUMP JUMPDEST DUP2 EQ PUSH2 0x4419 JUMPI PUSH1 0x0 DUP1 REVERT JUMPDEST POP JUMP JUMPDEST PUSH1 0x0 DUP2 CALLDATALOAD SWAP1 POP PUSH2 0x442B DUP2 PUSH2 0x4405 JUMP JUMPDEST SWAP3 SWAP2 POP POP JUMP JUMPDEST PUSH1 0x0 DUP1 REVERT JUMPDEST PUSH1 0x0 PUSH1 0x1F NOT PUSH1 0x1F DUP4 ADD AND SWAP1 POP SWAP2 SWAP1 POP JUMP JUMPDEST PUSH32 0x4E487B7100000000000000000000000000000000000000000000000000000000 PUSH1 0x0 MSTORE PUSH1 0x41 PUSH1 0x4 MSTORE PUSH1 0x24 PUSH1 0x0 REVERT JUMPDEST PUSH2 0x447F DUP3 PUSH2 0x4436 JUMP JUMPDEST DUP2 ADD DUP2 DUP2 LT PUSH8 0xFFFFFFFFFFFFFFFF DUP3 GT OR ISZERO PUSH2 0x449E JUMPI PUSH2 0x449D PUSH2 0x4447 JUMP JUMPDEST JUMPDEST DUP1 PUSH1 0x40 MSTORE POP POP POP JUMP JUMPDEST PUSH1 0x0 PUSH2 0x44B1 PUSH2 0x43E7 JUMP JUMPDEST SWAP1 POP PUSH2 0x44BD DUP3 DUP3 PUSH2 0x4476 JUMP JUMPDEST SWAP2 SWAP1 POP JUMP JUMPDEST PUSH1 0x0 DUP1 REVERT JUMPDEST PUSH1 0x0 DUP1 REVERT JUMPDEST PUSH1 0x0 DUP1 REVERT JUMPDEST PUSH1 0x0 PUSH8 0xFFFFFFFFFFFFFFFF DUP3 GT ISZERO PUSH2 0x44EC JUMPI PUSH2 0x44EB PUSH2 0x4447 JUMP JUMPDEST JUMPDEST PUSH2 0x44F5 DUP3 PUSH2 0x4436 JUMP JUMPDEST SWAP1 POP PUSH1 0x20 DUP2 ADD SWAP1 POP SWAP2 SWAP1 POP JUMP JUMPDEST DUP3 DUP2 DUP4 CALLDATACOPY PUSH1 0x0 DUP4 DUP4 ADD MSTORE POP POP POP JUMP JUMPDEST PUSH1 0x0 PUSH2 0x4524 PUSH2 0x451F DUP5 PUSH2 0x44D1 JUMP JUMPDEST PUSH2 0x44A7 JUMP JUMPDEST SWAP1 POP DUP3 DUP2 MSTORE PUSH1 0x20 DUP2 ADD DUP5 DUP5 DUP5 ADD GT ISZERO PUSH2 0x4540 JUMPI PUSH2 0x453F PUSH2 0x44CC JUMP JUMPDEST JUMPDEST PUSH2 0x454B DUP5 DUP3 DUP6 PUSH2 0x4502 JUMP JUMPDEST POP SWAP4 SWAP3 POP POP POP JUMP JUMPDEST PUSH1 0x0 DUP3 PUSH1 0x1F DUP4 ADD SLT PUSH2 0x4568 JUMPI PUSH2 0x4567 PUSH2 0x44C7 JUMP JUMPDEST JUMPDEST DUP2 CALLDATALOAD PUSH2 0x4578 DUP5 DUP3 PUSH1 0x20 DUP7 ADD PUSH2 0x4511 JUMP JUMPDEST SWAP2 POP POP SWAP3 SWAP2 POP POP JUMP JUMPDEST PUSH1 0x0 DUP2 ISZERO ISZERO SWAP1 POP SWAP2 SWAP1 POP JUMP JUMPDEST PUSH2 0x4596 DUP2 PUSH2 0x4581 JUMP JUMPDEST DUP2 EQ PUSH2 0x45A1 JUMPI PUSH1 0x0 DUP1 REVERT JUMPDEST POP JUMP JUMPDEST PUSH1 0x0 DUP2 CALLDATALOAD SWAP1 POP PUSH2 0x45B3 DUP2 PUSH2 0x458D JUMP JUMPDEST SWAP3 SWAP2 POP POP JUMP JUMPDEST PUSH1 0x0 PUSH2 0x180 DUP3 DUP5 SUB SLT ISZERO PUSH2 0x45D0 JUMPI PUSH2 0x45CF PUSH2 0x4431 JUMP JUMPDEST JUMPDEST PUSH2 0x45DB PUSH2 0x180 PUSH2 0x44A7 JUMP JUMPDEST SWAP1 POP PUSH1 0x0 DUP3 ADD CALLDATALOAD PUSH8 0xFFFFFFFFFFFFFFFF DUP2 GT ISZERO PUSH2 0x45FB JUMPI PUSH2 0x45FA PUSH2 0x44C2 JUMP JUMPDEST JUMPDEST PUSH2 0x4607 DUP5 DUP3 DUP6 ADD PUSH2 0x4553 JUMP JUMPDEST PUSH1 0x0 DUP4 ADD MSTORE POP PUSH1 0x20 DUP3 ADD CALLDATALOAD PUSH8 0xFFFFFFFFFFFFFFFF DUP2 GT ISZERO PUSH2 0x462B JUMPI PUSH2 0x462A PUSH2 0x44C2 JUMP JUMPDEST JUMPDEST PUSH2 0x4637 DUP5 DUP3 DUP6 ADD PUSH2 0x4553 JUMP JUMPDEST PUSH1 0x20 DUP4 ADD MSTORE POP PUSH1 0x40 DUP3 ADD CALLDATALOAD PUSH8 0xFFFFFFFFFFFFFFFF DUP2 GT ISZERO PUSH2 0x465B JUMPI PUSH2 0x465A PUSH2 0x44C2 JUMP JUMPDEST JUMPDEST PUSH2 0x4667 DUP5 DUP3 DUP6 ADD PUSH2 0x4553 JUMP JUMPDEST PUSH1 0x40 DUP4 ADD MSTORE POP PUSH1 0x60 DUP3 ADD CALLDATALOAD PUSH8 0xFFFFFFFFFFFFFFFF DUP2 GT ISZERO PUSH2 0x468B JUMPI PUSH2 0x468A PUSH2 0x44C2 JUMP JUMPDEST JUMPDEST PUSH2 0x4697 DUP5 DUP3 DUP6 ADD PUSH2 0x4553 JUMP JUMPDEST PUSH1 0x60 DUP4 ADD MSTORE POP PUSH1 0x80 DUP3 ADD CALLDATALOAD PUSH8 0xFFFFFFFFFFFFFFFF DUP2 GT ISZERO PUSH2 0x46BB JUMPI PUSH2 0x46BA PUSH2 0x44C2 JUMP JUMPDEST JUMPDEST PUSH2 0x46C7 DUP5 DUP3 DUP6 ADD PUSH2 0x4553 JUMP JUMPDEST PUSH1 0x80 DUP4 ADD MSTORE POP PUSH1 0xA0 DUP3 ADD CALLDATALOAD PUSH8 0xFFFFFFFFFFFFFFFF DUP2 GT ISZERO PUSH2 0x46EB JUMPI PUSH2 0x46EA PUSH2 0x44C2 JUMP JUMPDEST JUMPDEST PUSH2 0x46F7 DUP5 DUP3 DUP6 ADD PUSH2 0x4553 JUMP JUMPDEST PUSH1 0xA0 DUP4 ADD MSTORE POP PUSH1 0xC0 DUP3 ADD CALLDATALOAD PUSH8 0xFFFFFFFFFFFFFFFF DUP2 GT ISZERO PUSH2 0x471B JUMPI PUSH2 0x471A PUSH2 0x44C2 JUMP JUMPDEST JUMPDEST PUSH2 0x4727 DUP5 DUP3 DUP6 ADD PUSH2 0x4553 JUMP JUMPDEST PUSH1 0xC0 DUP4 ADD MSTORE POP PUSH1 0xE0 DUP3 ADD CALLDATALOAD PUSH8 0xFFFFFFFFFFFFFFFF DUP2 GT ISZERO PUSH2 0x474B JUMPI PUSH2 0x474A PUSH2 0x44C2 JUMP JUMPDEST JUMPDEST PUSH2 0x4757 DUP5 DUP3 DUP6 ADD PUSH2 0x4553 JUMP JUMPDEST PUSH1 0xE0 DUP4 ADD MSTORE POP PUSH2 0x100 PUSH2 0x476C DUP5 DUP3 DUP6 ADD PUSH2 0x441C JUMP JUMPDEST PUSH2 0x100 DUP4 ADD MSTORE POP PUSH2 0x120 DUP3 ADD CALLDATALOAD PUSH8 0xFFFFFFFFFFFFFFFF DUP2 GT ISZERO PUSH2 0x4792 JUMPI PUSH2 0x4791 PUSH2 0x44C2 JUMP JUMPDEST JUMPDEST PUSH2 0x479E DUP5 DUP3 DUP6 ADD PUSH2 0x4553 JUMP JUMPDEST PUSH2 0x120 DUP4 ADD MSTORE POP PUSH2 0x140 DUP3 ADD CALLDATALOAD PUSH8 0xFFFFFFFFFFFFFFFF DUP2 GT ISZERO PUSH2 0x47C4 JUMPI PUSH2 0x47C3 PUSH2 0x44C2 JUMP JUMPDEST JUMPDEST PUSH2 0x47D0 DUP5 DUP3 DUP6 ADD PUSH2 0x4553 JUMP JUMPDEST PUSH2 0x140 DUP4 ADD MSTORE POP PUSH2 0x160 PUSH2 0x47E6 DUP5 DUP3 DUP6 ADD PUSH2 0x45A4 JUMP JUMPDEST PUSH2 0x160 DUP4 ADD MSTORE POP SWAP3 SWAP2 POP POP JUMP JUMPDEST PUSH1 0x0 DUP1 PUSH1 0x40 DUP4 DUP6 SUB SLT ISZERO PUSH2 0x480A JUMPI PUSH2 0x4809 PUSH2 0x43F1 JUMP JUMPDEST JUMPDEST PUSH1 0x0 PUSH2 0x4818 DUP6 DUP3 DUP7 ADD PUSH2 0x441C JUMP JUMPDEST SWAP3 POP POP PUSH1 0x20 DUP4 ADD CALLDATALOAD PUSH8 0xFFFFFFFFFFFFFFFF DUP2 GT ISZERO PUSH2 0x4839 JUMPI PUSH2 0x4838 PUSH2 0x43F6 JUMP JUMPDEST JUMPDEST PUSH2 0x4845 DUP6 DUP3 DUP7 ADD PUSH2 0x45B9 JUMP JUMPDEST SWAP2 POP POP SWAP3 POP SWAP3 SWAP1 POP JUMP JUMPDEST PUSH1 0x0 PUSH20 0xFFFFFFFFFFFFFFFFFFFFFFFFFFFFFFFFFFFFFFFF DUP3 AND SWAP1 POP SWAP2 SWAP1 POP JUMP JUMPDEST PUSH1 0x0 PUSH2 0x487A DUP3 PUSH2 0x484F JUMP JUMPDEST SWAP1 POP SWAP2 SWAP1 POP JUMP JUMPDEST PUSH2 0x488A DUP2 PUSH2 0x486F JUMP JUMPDEST DUP2 EQ PUSH2 0x4895 JUMPI PUSH1 0x0 DUP1 REVERT JUMPDEST POP JUMP JUMPDEST PUSH1 0x0 DUP2 CALLDATALOAD SWAP1 POP PUSH2 0x48A7 DUP2 PUSH2 0x4881 JUMP JUMPDEST SWAP3 SWAP2 POP POP JUMP JUMPDEST PUSH1 0x0 PUSH1 0x20 DUP3 DUP5 SUB SLT ISZERO PUSH2 0x48C3 JUMPI PUSH2 0x48C2 PUSH2 0x43F1 JUMP JUMPDEST JUMPDEST PUSH1 0x0 PUSH2 0x48D1 DUP5 DUP3 DUP6 ADD PUSH2 0x4898 JUMP JUMPDEST SWAP2 POP POP SWAP3 SWAP2 POP POP JUMP JUMPDEST PUSH2 0x48E3 DUP2 PUSH2 0x43FB JUMP JUMPDEST DUP3 MSTORE POP POP JUMP JUMPDEST PUSH1 0x0 PUSH1 0x20 DUP3 ADD SWAP1 POP PUSH2 0x48FE PUSH1 0x0 DUP4 ADD DUP5 PUSH2 0x48DA JUMP JUMPDEST SWAP3 SWAP2 POP POP JUMP JUMPDEST PUSH1 0x0 PUSH1 0x20 DUP3 DUP5 SUB SLT ISZERO PUSH2 0x491A JUMPI PUSH2 0x4919 PUSH2 0x43F1 JUMP JUMPDEST JUMPDEST PUSH1 0x0 PUSH2 0x4928 DUP5 DUP3 DUP6 ADD PUSH2 0x441C JUMP JUMPDEST SWAP2 POP POP SWAP3 SWAP2 POP POP JUMP JUMPDEST PUSH1 0x0 DUP1 PUSH1 0x40 DUP4 DUP6 SUB SLT ISZERO PUSH2 0x4948 JUMPI PUSH2 0x4947 PUSH2 0x43F1 JUMP JUMPDEST JUMPDEST PUSH1 0x0 PUSH2 0x4956 DUP6 DUP3 DUP7 ADD PUSH2 0x4898 JUMP JUMPDEST SWAP3 POP POP PUSH1 0x20 PUSH2 0x4967 DUP6 DUP3 DUP7 ADD PUSH2 0x441C JUMP JUMPDEST SWAP2 POP POP SWAP3 POP SWAP3 SWAP1 POP JUMP JUMPDEST PUSH2 0x497A DUP2 PUSH2 0x486F JUMP JUMPDEST DUP3 MSTORE POP POP JUMP JUMPDEST PUSH1 0x0 DUP2 MLOAD SWAP1 POP SWAP2 SWAP1 POP JUMP JUMPDEST PUSH1 0x0 DUP3 DUP3 MSTORE PUSH1 0x20 DUP3 ADD SWAP1 POP SWAP3 SWAP2 POP POP JUMP JUMPDEST PUSH1 0x0 JUMPDEST DUP4 DUP2 LT ISZERO PUSH2 0x49BA JUMPI DUP1 DUP3 ADD MLOAD DUP2 DUP5 ADD MSTORE PUSH1 0x20 DUP2 ADD SWAP1 POP PUSH2 0x499F JUMP JUMPDEST PUSH1 0x0 DUP5 DUP5 ADD MSTORE POP POP POP POP JUMP JUMPDEST PUSH1 0x0 PUSH2 0x49D1 DUP3 PUSH2 0x4980 JUMP JUMPDEST PUSH2 0x49DB DUP2 DUP6 PUSH2 0x498B JUMP JUMPDEST SWAP4 POP PUSH2 0x49EB DUP2 DUP6 PUSH1 0x20 DUP7 ADD PUSH2 0x499C JUMP JUMPDEST PUSH2 0x49F4 DUP2 PUSH2 0x4436 JUMP JUMPDEST DUP5 ADD SWAP2 POP POP SWAP3 SWAP2 POP POP JUMP JUMPDEST PUSH1 0x0 DUP3 DUP3 MSTORE PUSH1 0x20 DUP3 ADD SWAP1 POP SWAP3 SWAP2 POP POP JUMP JUMPDEST PUSH1 0x0 PUSH2 0x4A1B DUP3 PUSH2 0x4980 JUMP JUMPDEST PUSH2 0x4A25 DUP2 DUP6 PUSH2 0x49FF JUMP JUMPDEST SWAP4 POP PUSH2 0x4A35 DUP2 DUP6 PUSH1 0x20 DUP7 ADD PUSH2 0x499C JUMP JUMPDEST PUSH2 0x4A3E DUP2 PUSH2 0x4436 JUMP JUMPDEST DUP5 ADD SWAP2 POP POP SWAP3 SWAP2 POP POP JUMP JUMPDEST PUSH1 0x0 PUSH1 0xA0 DUP4 ADD PUSH1 0x0 DUP4 ADD MLOAD DUP5 DUP3 SUB PUSH1 0x0 DUP7 ADD MSTORE PUSH2 0x4A66 DUP3 DUP3 PUSH2 0x4A10 JUMP JUMPDEST SWAP2 POP POP PUSH1 0x20 DUP4 ADD MLOAD DUP5 DUP3 SUB PUSH1 0x20 DUP7 ADD MSTORE PUSH2 0x4A80 DUP3 DUP3 PUSH2 0x4A10 JUMP JUMPDEST SWAP2 POP POP PUSH1 0x40 DUP4 ADD MLOAD DUP5 DUP3 SUB PUSH1 0x40 DUP7 ADD MSTORE PUSH2 0x4A9A DUP3 DUP3 PUSH2 0x4A10 JUMP JUMPDEST SWAP2 POP POP PUSH1 0x60 DUP4 ADD MLOAD DUP5 DUP3 SUB PUSH1 0x60 DUP7 ADD MSTORE PUSH2 0x4AB4 DUP3 DUP3 PUSH2 0x4A10 JUMP JUMPDEST SWAP2 POP POP PUSH1 0x80 DUP4 ADD MLOAD DUP5 DUP3 SUB PUSH1 0x80 DUP7 ADD MSTORE PUSH2 0x4ACE DUP3 DUP3 PUSH2 0x4A10 JUMP JUMPDEST SWAP2 POP POP DUP1 SWAP2 POP POP SWAP3 SWAP2 POP POP JUMP JUMPDEST PUSH2 0x4AE4 DUP2 PUSH2 0x4581 JUMP JUMPDEST DUP3 MSTORE POP POP JUMP JUMPDEST PUSH1 0x0 PUSH2 0x180 DUP3 ADD SWAP1 POP PUSH2 0x4B00 PUSH1 0x0 DUP4 ADD DUP16 PUSH2 0x48DA JUMP JUMPDEST PUSH2 0x4B0D PUSH1 0x20 DUP4 ADD DUP15 PUSH2 0x4971 JUMP JUMPDEST DUP2 DUP2 SUB PUSH1 0x40 DUP4 ADD MSTORE PUSH2 0x4B1F DUP2 DUP14 PUSH2 0x49C6 JUMP JUMPDEST SWAP1 POP DUP2 DUP2 SUB PUSH1 0x60 DUP4 ADD MSTORE PUSH2 0x4B33 DUP2 DUP13 PUSH2 0x49C6 JUMP JUMPDEST SWAP1 POP DUP2 DUP2 SUB PUSH1 0x80 DUP4 ADD MSTORE PUSH2 0x4B47 DUP2 DUP12 PUSH2 0x4A49 JUMP JUMPDEST SWAP1 POP DUP2 DUP2 SUB PUSH1 0xA0 DUP4 ADD MSTORE PUSH2 0x4B5B DUP2 DUP11 PUSH2 0x49C6 JUMP JUMPDEST SWAP1 POP PUSH2 0x4B6A PUSH1 0xC0 DUP4 ADD DUP10 PUSH2 0x48DA JUMP JUMPDEST DUP2 DUP2 SUB PUSH1 0xE0 DUP4 ADD MSTORE PUSH2 0x4B7C DUP2 DUP9 PUSH2 0x49C6 JUMP JUMPDEST SWAP1 POP DUP2 DUP2 SUB PUSH2 0x100 DUP4 ADD MSTORE PUSH2 0x4B91 DUP2 DUP8 PUSH2 0x49C6 JUMP JUMPDEST SWAP1 POP PUSH2 0x4BA1 PUSH2 0x120 DUP4 ADD DUP7 PUSH2 0x4ADB JUMP JUMPDEST PUSH2 0x4BAF PUSH2 0x140 DUP4 ADD DUP6 PUSH2 0x48DA JUMP JUMPDEST PUSH2 0x4BBD PUSH2 0x160 DUP4 ADD DUP5 PUSH2 0x48DA JUMP JUMPDEST SWAP14 SWAP13 POP POP POP POP POP POP POP POP POP POP POP POP POP JUMP JUMPDEST PUSH1 0x0 PUSH1 0x20 DUP3 ADD SWAP1 POP PUSH2 0x4BE3 PUSH1 0x0 DUP4 ADD DUP5 PUSH2 0x4ADB JUMP JUMPDEST SWAP3 SWAP2 POP POP JUMP JUMPDEST PUSH1 0x0 PUSH1 0x20 DUP3 ADD SWAP1 POP PUSH2 0x4BFE PUSH1 0x0 DUP4 ADD DUP5 PUSH2 0x4971 JUMP JUMPDEST SWAP3 SWAP2 POP POP JUMP JUMPDEST PUSH1 0x0 DUP1 PUSH1 0x0 DUP1 PUSH1 0x0 DUP1 PUSH1 0x0 DUP1 PUSH1 0x0 DUP1 PUSH1 0x0 PUSH2 0x160 DUP13 DUP15 SUB SLT ISZERO PUSH2 0x4C2A JUMPI PUSH2 0x4C29 PUSH2 0x43F1 JUMP JUMPDEST JUMPDEST PUSH1 0x0 DUP13 ADD CALLDATALOAD PUSH8 0xFFFFFFFFFFFFFFFF DUP2 GT ISZERO PUSH2 0x4C48 JUMPI PUSH2 0x4C47 PUSH2 0x43F6 JUMP JUMPDEST JUMPDEST PUSH2 0x4C54 DUP15 DUP3 DUP16 ADD PUSH2 0x4553 JUMP JUMPDEST SWAP12 POP POP PUSH1 0x20 DUP13 ADD CALLDATALOAD PUSH8 0xFFFFFFFFFFFFFFFF DUP2 GT ISZERO PUSH2 0x4C75 JUMPI PUSH2 0x4C74 PUSH2 0x43F6 JUMP JUMPDEST JUMPDEST PUSH2 0x4C81 DUP15 DUP3 DUP16 ADD PUSH2 0x4553 JUMP JUMPDEST SWAP11 POP POP PUSH1 0x40 DUP13 ADD CALLDATALOAD PUSH8 0xFFFFFFFFFFFFFFFF DUP2 GT ISZERO PUSH2 0x4CA2 JUMPI PUSH2 0x4CA1 PUSH2 0x43F6 JUMP JUMPDEST JUMPDEST PUSH2 0x4CAE DUP15 DUP3 DUP16 ADD PUSH2 0x4553 JUMP JUMPDEST SWAP10 POP POP PUSH1 0x60 DUP13 ADD CALLDATALOAD PUSH8 0xFFFFFFFFFFFFFFFF DUP2 GT ISZERO PUSH2 0x4CCF JUMPI PUSH2 0x4CCE PUSH2 0x43F6 JUMP JUMPDEST JUMPDEST PUSH2 0x4CDB DUP15 DUP3 DUP16 ADD PUSH2 0x4553 JUMP JUMPDEST SWAP9 POP POP PUSH1 0x80 DUP13 ADD CALLDATALOAD PUSH8 0xFFFFFFFFFFFFFFFF DUP2 GT ISZERO PUSH2 0x4CFC JUMPI PUSH2 0x4CFB PUSH2 0x43F6 JUMP JUMPDEST JUMPDEST PUSH2 0x4D08 DUP15 DUP3 DUP16 ADD PUSH2 0x4553 JUMP JUMPDEST SWAP8 POP POP PUSH1 0xA0 DUP13 ADD CALLDATALOAD PUSH8 0xFFFFFFFFFFFFFFFF DUP2 GT ISZERO PUSH2 0x4D29 JUMPI PUSH2 0x4D28 PUSH2 0x43F6 JUMP JUMPDEST JUMPDEST PUSH2 0x4D35 DUP15 DUP3 DUP16 ADD PUSH2 0x4553 JUMP JUMPDEST SWAP7 POP POP PUSH1 0xC0 DUP13 ADD CALLDATALOAD PUSH8 0xFFFFFFFFFFFFFFFF DUP2 GT ISZERO PUSH2 0x4D56 JUMPI PUSH2 0x4D55 PUSH2 0x43F6 JUMP JUMPDEST JUMPDEST PUSH2 0x4D62 DUP15 DUP3 DUP16 ADD PUSH2 0x4553 JUMP JUMPDEST SWAP6 POP POP PUSH1 0xE0 DUP13 ADD CALLDATALOAD PUSH8 0xFFFFFFFFFFFFFFFF DUP2 GT ISZERO PUSH2 0x4D83 JUMPI PUSH2 0x4D82 PUSH2 0x43F6 JUMP JUMPDEST JUMPDEST PUSH2 0x4D8F DUP15 DUP3 DUP16 ADD PUSH2 0x4553 JUMP JUMPDEST SWAP5 POP POP PUSH2 0x100 PUSH2 0x4DA1 DUP15 DUP3 DUP16 ADD PUSH2 0x441C JUMP JUMPDEST SWAP4 POP POP PUSH2 0x120 DUP13 ADD CALLDATALOAD PUSH8 0xFFFFFFFFFFFFFFFF DUP2 GT ISZERO PUSH2 0x4DC3 JUMPI PUSH2 0x4DC2 PUSH2 0x43F6 JUMP JUMPDEST JUMPDEST PUSH2 0x4DCF DUP15 DUP3 DUP16 ADD PUSH2 0x4553 JUMP JUMPDEST SWAP3 POP POP PUSH2 0x140 DUP13 ADD CALLDATALOAD PUSH8 0xFFFFFFFFFFFFFFFF DUP2 GT ISZERO PUSH2 0x4DF1 JUMPI PUSH2 0x4DF0 PUSH2 0x43F6 JUMP JUMPDEST JUMPDEST PUSH2 0x4DFD DUP15 DUP3 DUP16 ADD PUSH2 0x4553 JUMP JUMPDEST SWAP2 POP POP SWAP3 SWAP6 SWAP9 SWAP12 POP SWAP3 SWAP6 SWAP9 SWAP12 SWAP1 SWAP4 SWAP7 SWAP10 POP JUMP JUMPDEST PUSH1 0x0 DUP2 MLOAD SWAP1 POP SWAP2 SWAP1 POP JUMP JUMPDEST PUSH1 0x0 DUP3 DUP3 MSTORE PUSH1 0x20 DUP3 ADD SWAP1 POP SWAP3 SWAP2 POP POP JUMP JUMPDEST PUSH1 0x0 DUP2 SWAP1 POP PUSH1 0x20 DUP3 ADD SWAP1 POP SWAP2 SWAP1 POP JUMP JUMPDEST PUSH2 0x4E45 DUP2 PUSH2 0x43FB JUMP JUMPDEST DUP3 MSTORE POP POP JUMP JUMPDEST PUSH2 0x4E54 DUP2 PUSH2 0x486F JUMP JUMPDEST DUP3 MSTORE POP POP JUMP JUMPDEST PUSH1 0x0 PUSH1 0xA0 DUP4 ADD PUSH1 0x0 DUP4 ADD MLOAD DUP5 DUP3 SUB PUSH1 0x0 DUP7 ADD MSTORE PUSH2 0x4E77 DUP3 DUP3 PUSH2 0x4A10 JUMP JUMPDEST SWAP2 POP POP PUSH1 0x20 DUP4 ADD MLOAD DUP5 DUP3 SUB PUSH1 0x20 DUP7 ADD MSTORE PUSH2 0x4E91 DUP3 DUP3 PUSH2 0x4A10 JUMP JUMPDEST SWAP2 POP POP PUSH1 0x40 DUP4 ADD MLOAD DUP5 DUP3 SUB PUSH1 0x40 DUP7 ADD MSTORE PUSH2 0x4EAB DUP3 DUP3 PUSH2 0x4A10 JUMP JUMPDEST SWAP2 POP POP PUSH1 0x60 DUP4 ADD MLOAD DUP5 DUP3 SUB PUSH1 0x60 DUP7 ADD MSTORE PUSH2 0x4EC5 DUP3 DUP3 PUSH2 0x4A10 JUMP JUMPDEST SWAP2 POP POP PUSH1 0x80 DUP4 ADD MLOAD DUP5 DUP3 SUB PUSH1 0x80 DUP7 ADD MSTORE PUSH2 0x4EDF DUP3 DUP3 PUSH2 0x4A10 JUMP JUMPDEST SWAP2 POP POP DUP1 SWAP2 POP POP SWAP3 SWAP2 POP POP JUMP JUMPDEST PUSH2 0x4EF5 DUP2 PUSH2 0x4581 JUMP JUMPDEST DUP3 MSTORE POP POP JUMP JUMPDEST PUSH1 0x0 PUSH2 0x180 DUP4 ADD PUSH1 0x0 DUP4 ADD MLOAD PUSH2 0x4F14 PUSH1 0x0 DUP7 ADD DUP3 PUSH2 0x4E3C JUMP JUMPDEST POP PUSH1 0x20 DUP4 ADD MLOAD PUSH2 0x4F27 PUSH1 0x20 DUP7 ADD DUP3 PUSH2 0x4E4B JUMP JUMPDEST POP PUSH1 0x40 DUP4 ADD MLOAD DUP5 DUP3 SUB PUSH1 0x40 DUP7 ADD MSTORE PUSH2 0x4F3F DUP3 DUP3 PUSH2 0x4A10 JUMP JUMPDEST SWAP2 POP POP PUSH1 0x60 DUP4 ADD MLOAD DUP5 DUP3 SUB PUSH1 0x60 DUP7 ADD MSTORE PUSH2 0x4F59 DUP3 DUP3 PUSH2 0x4A10 JUMP JUMPDEST SWAP2 POP POP PUSH1 0x80 DUP4 ADD MLOAD DUP5 DUP3 SUB PUSH1 0x80 DUP7 ADD MSTORE PUSH2 0x4F73 DUP3 DUP3 PUSH2 0x4E5A JUMP JUMPDEST SWAP2 POP POP PUSH1 0xA0 DUP4 ADD MLOAD DUP5 DUP3 SUB PUSH1 0xA0 DUP7 ADD MSTORE PUSH2 0x4F8D DUP3 DUP3 PUSH2 0x4A10 JUMP JUMPDEST SWAP2 POP POP PUSH1 0xC0 DUP4 ADD MLOAD PUSH2 0x4FA2 PUSH1 0xC0 DUP7 ADD DUP3 PUSH2 0x4E3C JUMP JUMPDEST POP PUSH1 0xE0 DUP4 ADD MLOAD DUP5 DUP3 SUB PUSH1 0xE0 DUP7 ADD MSTORE PUSH2 0x4FBA DUP3 DUP3 PUSH2 0x4A10 JUMP JUMPDEST SWAP2 POP POP PUSH2 0x100 DUP4 ADD MLOAD DUP5 DUP3 SUB PUSH2 0x100 DUP7 ADD MSTORE PUSH2 0x4FD6 DUP3 DUP3 PUSH2 0x4A10 JUMP JUMPDEST SWAP2 POP POP PUSH2 0x120 DUP4 ADD MLOAD PUSH2 0x4FED PUSH2 0x120 DUP7 ADD DUP3 PUSH2 0x4EEC JUMP JUMPDEST POP PUSH2 0x140 DUP4 ADD MLOAD PUSH2 0x5002 PUSH2 0x140 DUP7 ADD DUP3 PUSH2 0x4E3C JUMP JUMPDEST POP PUSH2 0x160 DUP4 ADD MLOAD PUSH2 0x5017 PUSH2 0x160 DUP7 ADD DUP3 PUSH2 0x4E3C JUMP JUMPDEST POP DUP1 SWAP2 POP POP SWAP3 SWAP2 POP POP JUMP JUMPDEST PUSH1 0x0 PUSH2 0x502E DUP4 DUP4 PUSH2 0x4EFB JUMP JUMPDEST SWAP1 POP SWAP3 SWAP2 POP POP JUMP JUMPDEST PUSH1 0x0 PUSH1 0x20 DUP3 ADD SWAP1 POP SWAP2 SWAP1 POP JUMP JUMPDEST PUSH1 0x0 PUSH2 0x504E DUP3 PUSH2 0x4E10 JUMP JUMPDEST PUSH2 0x5058 DUP2 DUP6 PUSH2 0x4E1B JUMP JUMPDEST SWAP4 POP DUP4 PUSH1 0x20 DUP3 MUL DUP6 ADD PUSH2 0x506A DUP6 PUSH2 0x4E2C JUMP JUMPDEST DUP1 PUSH1 0x0 JUMPDEST DUP6 DUP2 LT ISZERO PUSH2 0x50A6 JUMPI DUP5 DUP5 SUB DUP10 MSTORE DUP2 MLOAD PUSH2 0x5087 DUP6 DUP3 PUSH2 0x5022 JUMP JUMPDEST SWAP5 POP PUSH2 0x5092 DUP4 PUSH2 0x5036 JUMP JUMPDEST SWAP3 POP PUSH1 0x20 DUP11 ADD SWAP10 POP POP PUSH1 0x1 DUP2 ADD SWAP1 POP PUSH2 0x506E JUMP JUMPDEST POP DUP3 SWAP8 POP DUP8 SWAP6 POP POP POP POP POP POP SWAP3 SWAP2 POP POP JUMP JUMPDEST PUSH1 0x0 PUSH1 0x20 DUP3 ADD SWAP1 POP DUP2 DUP2 SUB PUSH1 0x0 DUP4 ADD MSTORE PUSH2 0x50D2 DUP2 DUP5 PUSH2 0x5043 JUMP JUMPDEST SWAP1 POP SWAP3 SWAP2 POP POP JUMP JUMPDEST PUSH1 0x0 PUSH1 0x20 DUP3 ADD SWAP1 POP DUP2 DUP2 SUB PUSH1 0x0 DUP4 ADD MSTORE PUSH2 0x50F4 DUP2 DUP5 PUSH2 0x49C6 JUMP JUMPDEST SWAP1 POP SWAP3 SWAP2 POP POP JUMP JUMPDEST PUSH1 0x0 PUSH2 0x180 DUP4 ADD PUSH1 0x0 DUP4 ADD MLOAD PUSH2 0x5115 PUSH1 0x0 DUP7 ADD DUP3 PUSH2 0x4E3C JUMP JUMPDEST POP PUSH1 0x20 DUP4 ADD MLOAD PUSH2 0x5128 PUSH1 0x20 DUP7 ADD DUP3 PUSH2 0x4E4B JUMP JUMPDEST POP PUSH1 0x40 DUP4 ADD MLOAD DUP5 DUP3 SUB PUSH1 0x40 DUP7 ADD MSTORE PUSH2 0x5140 DUP3 DUP3 PUSH2 0x4A10 JUMP JUMPDEST SWAP2 POP POP PUSH1 0x60 DUP4 ADD MLOAD DUP5 DUP3 SUB PUSH1 0x60 DUP7 ADD MSTORE PUSH2 0x515A DUP3 DUP3 PUSH2 0x4A10 JUMP JUMPDEST SWAP2 POP POP PUSH1 0x80 DUP4 ADD MLOAD DUP5 DUP3 SUB PUSH1 0x80 DUP7 ADD MSTORE PUSH2 0x5174 DUP3 DUP3 PUSH2 0x4E5A JUMP JUMPDEST SWAP2 POP POP PUSH1 0xA0 DUP4 ADD MLOAD DUP5 DUP3 SUB PUSH1 0xA0 DUP7 ADD MSTORE PUSH2 0x518E DUP3 DUP3 PUSH2 0x4A10 JUMP JUMPDEST SWAP2 POP POP PUSH1 0xC0 DUP4 ADD MLOAD PUSH2 0x51A3 PUSH1 0xC0 DUP7 ADD DUP3 PUSH2 0x4E3C JUMP JUMPDEST POP PUSH1 0xE0 DUP4 ADD MLOAD DUP5 DUP3 SUB PUSH1 0xE0 DUP7 ADD MSTORE PUSH2 0x51BB DUP3 DUP3 PUSH2 0x4A10 JUMP JUMPDEST SWAP2 POP POP PUSH2 0x100 DUP4 ADD MLOAD DUP5 DUP3 SUB PUSH2 0x100 DUP7 ADD MSTORE PUSH2 0x51D7 DUP3 DUP3 PUSH2 0x4A10 JUMP JUMPDEST SWAP2 POP POP PUSH2 0x120 DUP4 ADD MLOAD PUSH2 0x51EE PUSH2 0x120 DUP7 ADD DUP3 PUSH2 0x4EEC JUMP JUMPDEST POP PUSH2 0x140 DUP4 ADD MLOAD PUSH2 0x5203 PUSH2 0x140 DUP7 ADD DUP3 PUSH2 0x4E3C JUMP JUMPDEST POP PUSH2 0x160 DUP4 ADD MLOAD PUSH2 0x5218 PUSH2 0x160 DUP7 ADD DUP3 PUSH2 0x4E3C JUMP JUMPDEST POP DUP1 SWAP2 POP POP SWAP3 SWAP2 POP POP JUMP JUMPDEST PUSH1 0x0 PUSH1 0x20 DUP3 ADD SWAP1 POP DUP2 DUP2 SUB PUSH1 0x0 DUP4 ADD MSTORE PUSH2 0x523D DUP2 DUP5 PUSH2 0x50FC JUMP JUMPDEST SWAP1 POP SWAP3 SWAP2 POP POP JUMP JUMPDEST PUSH1 0x0 DUP1 PUSH1 0x40 DUP4 DUP6 SUB SLT ISZERO PUSH2 0x525C JUMPI PUSH2 0x525B PUSH2 0x43F1 JUMP JUMPDEST JUMPDEST PUSH1 0x0 PUSH2 0x526A DUP6 DUP3 DUP7 ADD PUSH2 0x441C JUMP JUMPDEST SWAP3 POP POP PUSH1 0x20 PUSH2 0x527B DUP6 DUP3 DUP7 ADD PUSH2 0x4898 JUMP JUMPDEST SWAP2 POP POP SWAP3 POP SWAP3 SWAP1 POP JUMP JUMPDEST PUSH32 0x4E6574776F726B206E6F74206578697374000000000000000000000000000000 PUSH1 0x0 DUP3 ADD MSTORE POP JUMP JUMPDEST PUSH1 0x0 PUSH2 0x52BB PUSH1 0x11 DUP4 PUSH2 0x498B JUMP JUMPDEST SWAP2 POP PUSH2 0x52C6 DUP3 PUSH2 0x5285 JUMP JUMPDEST PUSH1 0x20 DUP3 ADD SWAP1 POP SWAP2 SWAP1 POP JUMP JUMPDEST PUSH1 0x0 PUSH1 0x20 DUP3 ADD SWAP1 POP DUP2 DUP2 SUB PUSH1 0x0 DUP4 ADD MSTORE PUSH2 0x52EA DUP2 PUSH2 0x52AE JUMP JUMPDEST SWAP1 POP SWAP2 SWAP1 POP JUMP JUMPDEST PUSH32 0x596F7520617265206E6F742074686520686F7374000000000000000000000000 PUSH1 0x0 DUP3 ADD MSTORE POP JUMP JUMPDEST PUSH1 0x0 PUSH2 0x5327 PUSH1 0x14 DUP4 PUSH2 0x498B JUMP JUMPDEST SWAP2 POP PUSH2 0x5332 DUP3 PUSH2 0x52F1 JUMP JUMPDEST PUSH1 0x20 DUP3 ADD SWAP1 POP SWAP2 SWAP1 POP JUMP JUMPDEST PUSH1 0x0 PUSH1 0x20 DUP3 ADD SWAP1 POP DUP2 DUP2 SUB PUSH1 0x0 DUP4 ADD MSTORE PUSH2 0x5356 DUP2 PUSH2 0x531A JUMP JUMPDEST SWAP1 POP SWAP2 SWAP1 POP JUMP JUMPDEST PUSH32 0x4E616D6520656D70747900000000000000000000000000000000000000000000 PUSH1 0x0 DUP3 ADD MSTORE POP JUMP JUMPDEST PUSH1 0x0 PUSH2 0x5393 PUSH1 0xA DUP4 PUSH2 0x498B JUMP JUMPDEST SWAP2 POP PUSH2 0x539E DUP3 PUSH2 0x535D JUMP JUMPDEST PUSH1 0x20 DUP3 ADD SWAP1 POP SWAP2 SWAP1 POP JUMP JUMPDEST PUSH1 0x0 PUSH1 0x20 DUP3 ADD SWAP1 POP DUP2 DUP2 SUB PUSH1 0x0 DUP4 ADD MSTORE PUSH2 0x53C2 DUP2 PUSH2 0x5386 JUMP JUMPDEST SWAP1 POP SWAP2 SWAP1 POP JUMP JUMPDEST PUSH32 0x50617373776F7264207265717569726564000000000000000000000000000000 PUSH1 0x0 DUP3 ADD MSTORE POP JUMP JUMPDEST PUSH1 0x0 PUSH2 0x53FF PUSH1 0x11 DUP4 PUSH2 0x498B JUMP JUMPDEST SWAP2 POP PUSH2 0x540A DUP3 PUSH2 0x53C9 JUMP JUMPDEST PUSH1 0x20 DUP3 ADD SWAP1 POP SWAP2 SWAP1 POP JUMP JUMPDEST PUSH1 0x0 PUSH1 0x20 DUP3 ADD SWAP1 POP DUP2 DUP2 SUB PUSH1 0x0 DUP4 ADD MSTORE PUSH2 0x542E DUP2 PUSH2 0x53F2 JUMP JUMPDEST SWAP1 POP SWAP2 SWAP1 POP JUMP JUMPDEST PUSH32 0x50726963652063616E2774206265203000000000000000000000000000000000 PUSH1 0x0 DUP3 ADD MSTORE POP JUMP JUMPDEST PUSH1 0x0 PUSH2 0x546B PUSH1 0x10 DUP4 PUSH2 0x498B JUMP JUMPDEST SWAP2 POP PUSH2 0x5476 DUP3 PUSH2 0x5435 JUMP JUMPDEST PUSH1 0x20 DUP3 ADD SWAP1 POP SWAP2 SWAP1 POP JUMP JUMPDEST PUSH1 0x0 PUSH1 0x20 DUP3 ADD SWAP1 POP DUP2 DUP2 SUB PUSH1 0x0 DUP4 ADD MSTORE PUSH2 0x549A DUP2 PUSH2 0x545E JUMP JUMPDEST SWAP1 POP SWAP2 SWAP1 POP JUMP JUMPDEST PUSH32 0x4E487B7100000000000000000000000000000000000000000000000000000000 PUSH1 0x0 MSTORE PUSH1 0x22 PUSH1 0x4 MSTORE PUSH1 0x24 PUSH1 0x0 REVERT JUMPDEST PUSH1 0x0 PUSH1 0x2 DUP3 DIV SWAP1 POP PUSH1 0x1 DUP3 AND DUP1 PUSH2 0x54E8 JUMPI PUSH1 0x7F DUP3 AND SWAP2 POP JUMPDEST PUSH1 0x20 DUP3 LT DUP2 SUB PUSH2 0x54FB JUMPI PUSH2 0x54FA PUSH2 0x54A1 JUMP JUMPDEST JUMPDEST POP SWAP2 SWAP1 POP JUMP JUMPDEST PUSH1 0x0 DUP2 SWAP1 POP DUP2 PUSH1 0x0 MSTORE PUSH1 0x20 PUSH1 0x0 KECCAK256 SWAP1 POP SWAP2 SWAP1 POP JUMP JUMPDEST PUSH1 0x0 PUSH1 0x20 PUSH1 0x1F DUP4 ADD DIV SWAP1 POP SWAP2 SWAP1 POP JUMP JUMPDEST PUSH1 0x0 DUP3 DUP3 SHL SWAP1 POP SWAP3 SWAP2 POP POP JUMP JUMPDEST PUSH1 0x0 PUSH1 0x8 DUP4 MUL PUSH2 0x5563 PUSH32 0xFFFFFFFFFFFFFFFFFFFFFFFFFFFFFFFFFFFFFFFFFFFFFFFFFFFFFFFFFFFFFFFF DUP3 PUSH2 0x5526 JUMP JUMPDEST PUSH2 0x556D DUP7 DUP4 PUSH2 0x5526 JUMP JUMPDEST SWAP6 POP DUP1 NOT DUP5 AND SWAP4 POP DUP1 DUP7 AND DUP5 OR SWAP3 POP POP POP SWAP4 SWAP3 POP POP POP JUMP JUMPDEST PUSH1 0x0 DUP2 SWAP1 POP SWAP2 SWAP1 POP JUMP JUMPDEST PUSH1 0x0 PUSH2 0x55AA PUSH2 0x55A5 PUSH2 0x55A0 DUP5 PUSH2 0x43FB JUMP JUMPDEST PUSH2 0x5585 JUMP JUMPDEST PUSH2 0x43FB JUMP JUMPDEST SWAP1 POP SWAP2 SWAP1 POP JUMP JUMPDEST PUSH1 0x0 DUP2 SWAP1 POP SWAP2 SWAP1 POP JUMP JUMPDEST PUSH2 0x55C4 DUP4 PUSH2 0x558F JUMP JUMPDEST PUSH2 0x55D8 PUSH2 0x55D0 DUP3 PUSH2 0x55B1 JUMP JUMPDEST DUP5 DUP5 SLOAD PUSH2 0x5533 JUMP JUMPDEST DUP3 SSTORE POP POP POP POP JUMP JUMPDEST PUSH1 0x0 SWAP1 JUMP JUMPDEST PUSH2 0x55ED PUSH2 0x55E0 JUMP JUMPDEST PUSH2 0x55F8 DUP2 DUP5 DUP5 PUSH2 0x55BB JUMP JUMPDEST POP POP POP JUMP JUMPDEST JUMPDEST DUP2 DUP2 LT ISZERO PUSH2 0x561C JUMPI PUSH2 0x5611 PUSH1 0x0 DUP3 PUSH2 0x55E5 JUMP JUMPDEST PUSH1 0x1 DUP2 ADD SWAP1 POP PUSH2 0x55FE JUMP JUMPDEST POP POP JUMP JUMPDEST PUSH1 0x1F DUP3 GT ISZERO PUSH2 0x5661 JUMPI PUSH2 0x5632 DUP2 PUSH2 0x5501 JUMP JUMPDEST PUSH2 0x563B DUP5 PUSH2 0x5516 JUMP JUMPDEST DUP2 ADD PUSH1 0x20 DUP6 LT ISZERO PUSH2 0x564A JUMPI DUP2 SWAP1 POP JUMPDEST PUSH2 0x565E PUSH2 0x5656 DUP6 PUSH2 0x5516 JUMP JUMPDEST DUP4 ADD DUP3 PUSH2 0x55FD JUMP JUMPDEST POP POP JUMPDEST POP POP POP JUMP JUMPDEST PUSH1 0x0 DUP3 DUP3 SHR SWAP1 POP SWAP3 SWAP2 POP POP JUMP JUMPDEST PUSH1 0x0 PUSH2 0x5684 PUSH1 0x0 NOT DUP5 PUSH1 0x8 MUL PUSH2 0x5666 JUMP JUMPDEST NOT DUP1 DUP4 AND SWAP2 POP POP SWAP3 SWAP2 POP POP JUMP JUMPDEST PUSH1 0x0 PUSH2 0x569D DUP4 DUP4 PUSH2 0x5673 JUMP JUMPDEST SWAP2 POP DUP3 PUSH1 0x2 MUL DUP3 OR SWAP1 POP SWAP3 SWAP2 POP POP JUMP JUMPDEST PUSH2 0x56B6 DUP3 PUSH2 0x4980 JUMP JUMPDEST PUSH8 0xFFFFFFFFFFFFFFFF DUP2 GT ISZERO PUSH2 0x56CF JUMPI PUSH2 0x56CE PUSH2 0x4447 JUMP JUMPDEST JUMPDEST PUSH2 0x56D9 DUP3 SLOAD PUSH2 0x54D0 JUMP JUMPDEST PUSH2 0x56E4 DUP3 DUP3 DUP6 PUSH2 0x5620 JUMP JUMPDEST PUSH1 0x0 PUSH1 0x20 SWAP1 POP PUSH1 0x1F DUP4 GT PUSH1 0x1 DUP2 EQ PUSH2 0x5717 JUMPI PUSH1 0x0 DUP5 ISZERO PUSH2 0x5705 JUMPI DUP3 DUP8 ADD MLOAD SWAP1 POP JUMPDEST PUSH2 0x570F DUP6 DUP3 PUSH2 0x5691 JUMP JUMPDEST DUP7 SSTORE POP PUSH2 0x5777 JUMP JUMPDEST PUSH1 0x1F NOT DUP5 AND PUSH2 0x5725 DUP7 PUSH2 0x5501 JUMP JUMPDEST PUSH1 0x0 JUMPDEST DUP3 DUP2 LT ISZERO PUSH2 0x574D JUMPI DUP5 DUP10 ADD MLOAD DUP3 SSTORE PUSH1 0x1 DUP3 ADD SWAP2 POP PUSH1 0x20 DUP6 ADD SWAP5 POP PUSH1 0x20 DUP2 ADD SWAP1 POP PUSH2 0x5728 JUMP JUMPDEST DUP7 DUP4 LT ISZERO PUSH2 0x576A JUMPI DUP5 DUP10 ADD MLOAD PUSH2 0x5766 PUSH1 0x1F DUP10 AND DUP3 PUSH2 0x5673 JUMP JUMPDEST DUP4 SSTORE POP JUMPDEST PUSH1 0x1 PUSH1 0x2 DUP9 MUL ADD DUP9 SSTORE POP POP POP JUMPDEST POP POP POP POP POP POP JUMP JUMPDEST PUSH1 0x0 DUP2 SLOAD SWAP1 POP PUSH2 0x578E DUP2 PUSH2 0x54D0 JUMP JUMPDEST SWAP1 POP SWAP2 SWAP1 POP JUMP JUMPDEST DUP2 DUP2 SUB PUSH2 0x57A3 JUMPI POP POP PUSH2 0x587B JUMP JUMPDEST PUSH2 0x57AC DUP3 PUSH2 0x577F JUMP JUMPDEST PUSH8 0xFFFFFFFFFFFFFFFF DUP2 GT ISZERO PUSH2 0x57C5 JUMPI PUSH2 0x57C4 PUSH2 0x4447 JUMP JUMPDEST JUMPDEST PUSH2 0x57CF DUP3 SLOAD PUSH2 0x54D0 JUMP JUMPDEST PUSH2 0x57DA DUP3 DUP3 DUP6 PUSH2 0x5620 JUMP JUMPDEST PUSH1 0x0 PUSH1 0x1F DUP4 GT PUSH1 0x1 DUP2 EQ PUSH2 0x5809 JUMPI PUSH1 0x0 DUP5 ISZERO PUSH2 0x57F7 JUMPI DUP3 DUP8 ADD SLOAD SWAP1 POP JUMPDEST PUSH2 0x5801 DUP6 DUP3 PUSH2 0x5691 JUMP JUMPDEST DUP7 SSTORE POP PUSH2 0x5874 JUMP JUMPDEST PUSH1 0x1F NOT DUP5 AND PUSH2 0x5817 DUP8 PUSH2 0x5501 JUMP JUMPDEST SWAP7 POP PUSH2 0x5822 DUP7 PUSH2 0x5501 JUMP JUMPDEST PUSH1 0x0 JUMPDEST DUP3 DUP2 LT ISZERO PUSH2 0x584A JUMPI DUP5 DUP10 ADD SLOAD DUP3 SSTORE PUSH1 0x1 DUP3 ADD SWAP2 POP PUSH1 0x1 DUP6 ADD SWAP5 POP PUSH1 0x20 DUP2 ADD SWAP1 POP PUSH2 0x5825 JUMP JUMPDEST DUP7 DUP4 LT ISZERO PUSH2 0x5867 JUMPI DUP5 DUP10 ADD SLOAD PUSH2 0x5863 PUSH1 0x1F DUP10 AND DUP3 PUSH2 0x5673 JUMP JUMPDEST DUP4 SSTORE POP JUMPDEST PUSH1 0x1 PUSH1 0x2 DUP9 MUL ADD DUP9 SSTORE POP POP POP JUMPDEST POP POP POP POP POP POP JUMPDEST JUMP JUMPDEST PUSH1 0x0 PUSH1 0x40 DUP3 ADD SWAP1 POP PUSH2 0x5892 PUSH1 0x0 DUP4 ADD DUP6 PUSH2 0x48DA JUMP JUMPDEST PUSH2 0x589F PUSH1 0x20 DUP4 ADD DUP5 PUSH2 0x4971 JUMP JUMPDEST SWAP4 SWAP3 POP POP POP JUMP JUMPDEST PUSH32 0x4F6E6C792074686520686F737400000000000000000000000000000000000000 PUSH1 0x0 DUP3 ADD MSTORE POP JUMP JUMPDEST PUSH1 0x0 PUSH2 0x58DC PUSH1 0xD DUP4 PUSH2 0x498B JUMP JUMPDEST SWAP2 POP PUSH2 0x58E7 DUP3 PUSH2 0x58A6 JUMP JUMPDEST PUSH1 0x20 DUP3 ADD SWAP1 POP SWAP2 SWAP1 POP JUMP JUMPDEST PUSH1 0x0 PUSH1 0x20 DUP3 ADD SWAP1 POP DUP2 DUP2 SUB PUSH1 0x0 DUP4 ADD MSTORE PUSH2 0x590B DUP2 PUSH2 0x58CF JUMP JUMPDEST SWAP1 POP SWAP2 SWAP1 POP JUMP JUMPDEST PUSH32 0x4E487B7100000000000000000000000000000000000000000000000000000000 PUSH1 0x0 MSTORE PUSH1 0x32 PUSH1 0x4 MSTORE PUSH1 0x24 PUSH1 0x0 REVERT JUMPDEST PUSH32 0x4E487B7100000000000000000000000000000000000000000000000000000000 PUSH1 0x0 MSTORE PUSH1 0x11 PUSH1 0x4 MSTORE PUSH1 0x24 PUSH1 0x0 REVERT JUMPDEST PUSH1 0x0 PUSH2 0x597B DUP3 PUSH2 0x43FB JUMP JUMPDEST SWAP2 POP PUSH2 0x5986 DUP4 PUSH2 0x43FB JUMP JUMPDEST SWAP3 POP DUP3 DUP3 SUB SWAP1 POP DUP2 DUP2 GT ISZERO PUSH2 0x599E JUMPI PUSH2 0x599D PUSH2 0x5941 JUMP JUMPDEST JUMPDEST SWAP3 SWAP2 POP POP JUMP JUMPDEST PUSH32 0x4E487B7100000000000000000000000000000000000000000000000000000000 PUSH1 0x0 MSTORE PUSH1 0x31 PUSH1 0x4 MSTORE PUSH1 0x24 PUSH1 0x0 REVERT JUMPDEST PUSH32 0x4E6F742074686520636F6E7472616374206F776E657200000000000000000000 PUSH1 0x0 DUP3 ADD MSTORE POP JUMP JUMPDEST PUSH1 0x0 PUSH2 0x5A09 PUSH1 0x16 DUP4 PUSH2 0x498B JUMP JUMPDEST SWAP2 POP PUSH2 0x5A14 DUP3 PUSH2 0x59D3 JUMP JUMPDEST PUSH1 0x20 DUP3 ADD SWAP1 POP SWAP2 SWAP1 POP JUMP JUMPDEST PUSH1 0x0 PUSH1 0x20 DUP3 ADD SWAP1 POP DUP2 DUP2 SUB PUSH1 0x0 DUP4 ADD MSTORE PUSH2 0x5A38 DUP2 PUSH2 0x59FC JUMP JUMPDEST SWAP1 POP SWAP2 SWAP1 POP JUMP JUMPDEST PUSH32 0x4E6F206665657320746F20776974686472617700000000000000000000000000 PUSH1 0x0 DUP3 ADD MSTORE POP JUMP JUMPDEST PUSH1 0x0 PUSH2 0x5A75 PUSH1 0x13 DUP4 PUSH2 0x498B JUMP JUMPDEST SWAP2 POP PUSH2 0x5A80 DUP3 PUSH2 0x5A3F JUMP JUMPDEST PUSH1 0x20 DUP3 ADD SWAP1 POP SWAP2 SWAP1 POP JUMP JUMPDEST PUSH1 0x0 PUSH1 0x20 DUP3 ADD SWAP1 POP DUP2 DUP2 SUB PUSH1 0x0 DUP4 ADD MSTORE PUSH2 0x5AA4 DUP2 PUSH2 0x5A68 JUMP JUMPDEST SWAP1 POP SWAP2 SWAP1 POP JUMP JUMPDEST PUSH32 0x43616E2774206578636565642031303025000000000000000000000000000000 PUSH1 0x0 DUP3 ADD MSTORE POP JUMP JUMPDEST PUSH1 0x0 PUSH2 0x5AE1 PUSH1 0x11 DUP4 PUSH2 0x498B JUMP JUMPDEST SWAP2 POP PUSH2 0x5AEC DUP3 PUSH2 0x5AAB JUMP JUMPDEST PUSH1 0x20 DUP3 ADD SWAP1 POP SWAP2 SWAP1 POP JUMP JUMPDEST PUSH1 0x0 PUSH1 0x20 DUP3 ADD SWAP1 POP DUP2 DUP2 SUB PUSH1 0x0 DUP4 ADD MSTORE PUSH2 0x5B10 DUP2 PUSH2 0x5AD4 JUMP JUMPDEST SWAP1 POP SWAP2 SWAP1 POP JUMP JUMPDEST PUSH32 0x4D7573742062652061746C656173742031250000000000000000000000000000 PUSH1 0x0 DUP3 ADD MSTORE POP JUMP JUMPDEST PUSH1 0x0 PUSH2 0x5B4D PUSH1 0x12 DUP4 PUSH2 0x498B JUMP JUMPDEST SWAP2 POP PUSH2 0x5B58 DUP3 PUSH2 0x5B17 JUMP JUMPDEST PUSH1 0x20 DUP3 ADD SWAP1 POP SWAP2 SWAP1 POP JUMP JUMPDEST PUSH1 0x0 PUSH1 0x20 DUP3 ADD SWAP1 POP DUP2 DUP2 SUB PUSH1 0x0 DUP4 ADD MSTORE PUSH2 0x5B7C DUP2 PUSH2 0x5B40 JUMP JUMPDEST SWAP1 POP SWAP2 SWAP1 POP JUMP JUMPDEST PUSH32 0x4D617820686F7374732072656163686564000000000000000000000000000000 PUSH1 0x0 DUP3 ADD MSTORE POP JUMP JUMPDEST PUSH1 0x0 PUSH2 0x5BB9 PUSH1 0x11 DUP4 PUSH2 0x498B JUMP JUMPDEST SWAP2 POP PUSH2 0x5BC4 DUP3 PUSH2 0x5B83 JUMP JUMPDEST PUSH1 0x20 DUP3 ADD SWAP1 POP SWAP2 SWAP1 POP JUMP JUMPDEST PUSH1 0x0 PUSH1 0x20 DUP3 ADD SWAP1 POP DUP2 DUP2 SUB PUSH1 0x0 DUP4 ADD MSTORE PUSH2 0x5BE8 DUP2 PUSH2 0x5BAC JUMP JUMPDEST SWAP1 POP SWAP2 SWAP1 POP JUMP JUMPDEST PUSH32 0x5072696365206D7573742062652067726561746572207468616E203000000000 PUSH1 0x0 DUP3 ADD MSTORE POP JUMP JUMPDEST PUSH1 0x0 PUSH2 0x5C25 PUSH1 0x1C DUP4 PUSH2 0x498B JUMP JUMPDEST SWAP2 POP PUSH2 0x5C30 DUP3 PUSH2 0x5BEF JUMP JUMPDEST PUSH1 0x20 DUP3 ADD SWAP1 POP SWAP2 SWAP1 POP JUMP JUMPDEST PUSH1 0x0 PUSH1 0x20 DUP3 ADD SWAP1 POP DUP2 DUP2 SUB PUSH1 0x0 DUP4 ADD MSTORE PUSH2 0x5C54 DUP2 PUSH2 0x5C18 JUMP JUMPDEST SWAP1 POP SWAP2 SWAP1 POP JUMP JUMPDEST PUSH1 0x0 PUSH2 0x5C66 DUP3 PUSH2 0x43FB JUMP JUMPDEST SWAP2 POP PUSH32 0xFFFFFFFFFFFFFFFFFFFFFFFFFFFFFFFFFFFFFFFFFFFFFFFFFFFFFFFFFFFFFFFF DUP3 SUB PUSH2 0x5C98 JUMPI PUSH2 0x5C97 PUSH2 0x5941 JUMP JUMPDEST JUMPDEST PUSH1 0x1 DUP3 ADD SWAP1 POP SWAP2 SWAP1 POP JUMP JUMPDEST PUSH32 0x4E6574776F726B206E6F74206163746976650000000000000000000000000000 PUSH1 0x0 DUP3 ADD MSTORE POP JUMP JUMPDEST PUSH1 0x0 PUSH2 0x5CD9 PUSH1 0x12 DUP4 PUSH2 0x498B JUMP JUMPDEST SWAP2 POP PUSH2 0x5CE4 DUP3 PUSH2 0x5CA3 JUMP JUMPDEST PUSH1 0x20 DUP3 ADD SWAP1 POP SWAP2 SWAP1 POP JUMP JUMPDEST PUSH1 0x0 PUSH1 0x20 DUP3 ADD SWAP1 POP DUP2 DUP2 SUB PUSH1 0x0 DUP4 ADD MSTORE PUSH2 0x5D08 DUP2 PUSH2 0x5CCC JUMP JUMPDEST SWAP1 POP SWAP2 SWAP1 POP JUMP JUMPDEST PUSH32 0x496E636F7272656374207061796D656E7420616D6F756E740000000000000000 PUSH1 0x0 DUP3 ADD MSTORE POP JUMP JUMPDEST PUSH1 0x0 PUSH2 0x5D45 PUSH1 0x18 DUP4 PUSH2 0x498B JUMP JUMPDEST SWAP2 POP PUSH2 0x5D50 DUP3 PUSH2 0x5D0F JUMP JUMPDEST PUSH1 0x20 DUP3 ADD SWAP1 POP SWAP2 SWAP1 POP JUMP JUMPDEST PUSH1 0x0 PUSH1 0x20 DUP3 ADD SWAP1 POP DUP2 DUP2 SUB PUSH1 0x0 DUP4 ADD MSTORE PUSH2 0x5D74 DUP2 PUSH2 0x5D38 JUMP JUMPDEST SWAP1 POP SWAP2 SWAP1 POP JUMP JUMPDEST PUSH1 0x0 PUSH2 0x5D86 DUP3 PUSH2 0x43FB JUMP JUMPDEST SWAP2 POP PUSH2 0x5D91 DUP4 PUSH2 0x43FB JUMP JUMPDEST SWAP3 POP DUP3 DUP3 MUL PUSH2 0x5D9F DUP2 PUSH2 0x43FB JUMP JUMPDEST SWAP2 POP DUP3 DUP3 DIV DUP5 EQ DUP4 ISZERO OR PUSH2 0x5DB6 JUMPI PUSH2 0x5DB5 PUSH2 0x5941 JUMP JUMPDEST JUMPDEST POP SWAP3 SWAP2 POP POP JUMP JUMPDEST PUSH32 0x4E487B7100000000000000000000000000000000000000000000000000000000 PUSH1 0x0 MSTORE PUSH1 0x12 PUSH1 0x4 MSTORE PUSH1 0x24 PUSH1 0x0 REVERT JUMPDEST PUSH1 0x0 PUSH2 0x5DF7 DUP3 PUSH2 0x43FB JUMP JUMPDEST SWAP2 POP PUSH2 0x5E02 DUP4 PUSH2 0x43FB JUMP JUMPDEST SWAP3 POP DUP3 PUSH2 0x5E12 JUMPI PUSH2 0x5E11 PUSH2 0x5DBD JUMP JUMPDEST JUMPDEST DUP3 DUP3 DIV SWAP1 POP SWAP3 SWAP2 POP POP JUMP JUMPDEST PUSH1 0x0 PUSH1 0x80 DUP3 ADD SWAP1 POP PUSH2 0x5E32 PUSH1 0x0 DUP4 ADD DUP8 PUSH2 0x48DA JUMP JUMPDEST PUSH2 0x5E3F PUSH1 0x20 DUP4 ADD DUP7 PUSH2 0x4971 JUMP JUMPDEST PUSH2 0x5E4C PUSH1 0x40 DUP4 ADD DUP6 PUSH2 0x48DA JUMP JUMPDEST PUSH2 0x5E59 PUSH1 0x60 DUP4 ADD DUP5 PUSH2 0x48DA JUMP JUMPDEST SWAP6 SWAP5 POP POP POP POP POP JUMP JUMPDEST PUSH1 0x0 PUSH2 0x5E6D DUP3 PUSH2 0x43FB JUMP JUMPDEST SWAP2 POP PUSH2 0x5E78 DUP4 PUSH2 0x43FB JUMP JUMPDEST SWAP3 POP DUP3 DUP3 ADD SWAP1 POP DUP1 DUP3 GT ISZERO PUSH2 0x5E90 JUMPI PUSH2 0x5E8F PUSH2 0x5941 JUMP JUMPDEST JUMPDEST SWAP3 SWAP2 POP POP JUMP JUMPDEST PUSH32 0x5061796D656E7420726571756972656400000000000000000000000000000000 PUSH1 0x0 DUP3 ADD MSTORE POP JUMP JUMPDEST PUSH1 0x0 PUSH2 0x5ECC PUSH1 0x10 DUP4 PUSH2 0x498B JUMP JUMPDEST SWAP2 POP PUSH2 0x5ED7 DUP3 PUSH2 0x5E96 JUMP JUMPDEST PUSH1 0x20 DUP3 ADD SWAP1 POP SWAP2 SWAP1 POP JUMP JUMPDEST PUSH1 0x0 PUSH1 0x20 DUP3 ADD SWAP1 POP DUP2 DUP2 SUB PUSH1 0x0 DUP4 ADD MSTORE PUSH2 0x5EFB DUP2 PUSH2 0x5EBF JUMP JUMPDEST SWAP1 POP SWAP2 SWAP1 POP JUMP INVALID LOG2 PUSH5 0x6970667358 0x22 SLT KECCAK256 0xCD PUSH10 0xD521303FC093B479C435 0xF 0xF7 SHR 0xAA SWAP6 LOG2 BLOBBASEFEE SGT 0x29 0xE0 0xAC SWAP11 0xDB SLT GT DUP4 SDIV DUP8 SWAP1 0xDB PUSH5 0x736F6C6343 STOP ADDMOD SHR STOP CALLER "
        },
        "methodIdentifiers": {
          "MAX_HOSTS()": "77e7eba5",
          "acceptPayment(uint256)": "bf846e04",
          "deleteHostedNetwork(uint256)": "20765bd1",
          "getHostedNetworkById(uint256)": "cd83fb9a",
          "getHostedNetworksByAddress(address)": "b6202c78",
          "getPasswordCID(uint256)": "c87b6616",
          "hasPaid(uint256,address)": "d8bc7fff",
          "hostANetwork(string,string,string,string,string,string,string,string,uint256,string,string)": "8e1daeec",
          "hostedNetworkById(uint256)": "efd3268e",
          "hostedNetworksByAddress(address,uint256)": "357740a3",
          "isHost(address)": "eb2931b7",
          "networkIdCounter()": "217c682d",
          "networkIdsByAddress(address,uint256)": "4d0e5d13",
          "owner()": "8da5cb5b",
          "pause()": "8456cb59",
          "paused()": "5c975abb",
          "totalEarnedByAddress(address)": "06eaca0f",
          "totalEarnedByHostedNetwork(uint256)": "bc3ede29",
          "unpause()": "3f4ba83a",
          "updateHostedNetwork(uint256,(string,string,string,string,string,string,string,string,uint256,string,string,bool))": "03414800",
          "updateZaanetFeePercent(uint256)": "61043f59",
          "withdrawFees()": "476343ee",
          "zaanetFeePercent()": "aeba8461"
        }
      }
    }
  }
}