{
  "contracts/ZaaNetNetwork.sol": {
    "ZaaNetNetwork": {
      "abi": [
        {
          "inputs": [
            {
              "internalType": "address",
              "name": "_storageContract",
              "type": "address"
            },
            {
              "internalType": "address",
              "name": "_adminContract",
              "type": "address"
            },
            {
              "internalType": "address",
              "name": "_usdt",
              "type": "address"
            }
          ],
          "stateMutability": "nonpayable",
          "type": "constructor"
        },
        {
          "inputs": [],
          "name": "EnforcedPause",
          "type": "error"
        },
        {
          "inputs": [],
          "name": "ExpectedPause",
          "type": "error"
        },
        {
          "inputs": [
            {
              "internalType": "address",
              "name": "owner",
              "type": "address"
            }
          ],
          "name": "OwnableInvalidOwner",
          "type": "error"
        },
        {
          "inputs": [
            {
              "internalType": "address",
              "name": "account",
              "type": "address"
            }
          ],
          "name": "OwnableUnauthorizedAccount",
          "type": "error"
        },
        {
          "inputs": [],
          "name": "ReentrancyGuardReentrantCall",
          "type": "error"
        },
        {
          "inputs": [
            {
              "internalType": "address",
              "name": "token",
              "type": "address"
            }
          ],
          "name": "SafeERC20FailedOperation",
          "type": "error"
        },
        {
          "anonymous": false,
          "inputs": [
            {
              "indexed": true,
              "internalType": "address",
              "name": "host",
              "type": "address"
            }
          ],
          "name": "HostAdded",
          "type": "event"
        },
        {
          "anonymous": false,
          "inputs": [
            {
              "indexed": true,
              "internalType": "address",
              "name": "host",
              "type": "address"
            },
            {
              "indexed": false,
              "internalType": "uint256",
              "name": "amount",
              "type": "uint256"
            },
            {
              "indexed": false,
              "internalType": "uint256",
              "name": "timestamp",
              "type": "uint256"
            }
          ],
          "name": "HostingFeePaid",
          "type": "event"
        },
        {
          "anonymous": false,
          "inputs": [
            {
              "indexed": true,
              "internalType": "uint256",
              "name": "networkId",
              "type": "uint256"
            },
            {
              "indexed": false,
              "internalType": "uint256",
              "name": "oldPrice",
              "type": "uint256"
            },
            {
              "indexed": false,
              "internalType": "uint256",
              "name": "newPrice",
              "type": "uint256"
            }
          ],
          "name": "NetworkPriceUpdated",
          "type": "event"
        },
        {
          "anonymous": false,
          "inputs": [
            {
              "indexed": true,
              "internalType": "uint256",
              "name": "networkId",
              "type": "uint256"
            },
            {
              "indexed": true,
              "internalType": "address",
              "name": "hostAddress",
              "type": "address"
            },
            {
              "indexed": false,
              "internalType": "string",
              "name": "mongoDataId",
              "type": "string"
            },
            {
              "indexed": false,
              "internalType": "uint256",
              "name": "pricePerSession",
              "type": "uint256"
            },
            {
              "indexed": false,
              "internalType": "bool",
              "name": "isActive",
              "type": "bool"
            },
            {
              "indexed": false,
              "internalType": "uint256",
              "name": "hostingFeePaid",
              "type": "uint256"
            },
            {
              "indexed": false,
              "internalType": "uint256",
              "name": "timestamp",
              "type": "uint256"
            }
          ],
          "name": "NetworkRegistered",
          "type": "event"
        },
        {
          "anonymous": false,
          "inputs": [
            {
              "indexed": true,
              "internalType": "uint256",
              "name": "networkId",
              "type": "uint256"
            },
            {
              "indexed": false,
              "internalType": "bool",
              "name": "oldStatus",
              "type": "bool"
            },
            {
              "indexed": false,
              "internalType": "bool",
              "name": "newStatus",
              "type": "bool"
            }
          ],
          "name": "NetworkStatusChanged",
          "type": "event"
        },
        {
          "anonymous": false,
          "inputs": [
            {
              "indexed": true,
              "internalType": "uint256",
              "name": "networkId",
              "type": "uint256"
            },
            {
              "indexed": true,
              "internalType": "address",
              "name": "hostAddress",
              "type": "address"
            },
            {
              "indexed": false,
              "internalType": "uint256",
              "name": "pricePerSession",
              "type": "uint256"
            },
            {
              "indexed": false,
              "internalType": "string",
              "name": "mongoDataId",
              "type": "string"
            },
            {
              "indexed": false,
              "internalType": "bool",
              "name": "isActive",
              "type": "bool"
            }
          ],
          "name": "NetworkUpdated",
          "type": "event"
        },
        {
          "anonymous": false,
          "inputs": [
            {
              "indexed": true,
              "internalType": "address",
              "name": "previousOwner",
              "type": "address"
            },
            {
              "indexed": true,
              "internalType": "address",
              "name": "newOwner",
              "type": "address"
            }
          ],
          "name": "OwnershipTransferred",
          "type": "event"
        },
        {
          "anonymous": false,
          "inputs": [
            {
              "indexed": false,
              "internalType": "address",
              "name": "account",
              "type": "address"
            }
          ],
          "name": "Paused",
          "type": "event"
        },
        {
          "anonymous": false,
          "inputs": [
            {
              "indexed": false,
              "internalType": "address",
              "name": "account",
              "type": "address"
            }
          ],
          "name": "Unpaused",
          "type": "event"
        },
        {
          "inputs": [],
          "name": "MAX_MONGO_DATA_LENGTH",
          "outputs": [
            {
              "internalType": "uint256",
              "name": "",
              "type": "uint256"
            }
          ],
          "stateMutability": "view",
          "type": "function"
        },
        {
          "inputs": [],
          "name": "MAX_PRICE_PER_SESSION",
          "outputs": [
            {
              "internalType": "uint256",
              "name": "",
              "type": "uint256"
            }
          ],
          "stateMutability": "view",
          "type": "function"
        },
        {
          "inputs": [],
          "name": "MIN_PRICE_PER_SESSION",
          "outputs": [
            {
              "internalType": "uint256",
              "name": "",
              "type": "uint256"
            }
          ],
          "stateMutability": "view",
          "type": "function"
        },
        {
          "inputs": [],
          "name": "REGISTRATION_COOLDOWN",
          "outputs": [
            {
              "internalType": "uint256",
              "name": "",
              "type": "uint256"
            }
          ],
          "stateMutability": "view",
          "type": "function"
        },
        {
          "inputs": [],
          "name": "adminContract",
          "outputs": [
            {
              "internalType": "contract IZaaNetAdmin",
              "name": "",
              "type": "address"
            }
          ],
          "stateMutability": "view",
          "type": "function"
        },
        {
          "inputs": [
            {
              "internalType": "uint256",
              "name": "_networkId",
              "type": "uint256"
            }
          ],
          "name": "deactivateNetwork",
          "outputs": [],
          "stateMutability": "nonpayable",
          "type": "function"
        },
        {
          "inputs": [
            {
              "internalType": "address",
              "name": "hostAddress",
              "type": "address"
            }
          ],
          "name": "getActiveHostNetworks",
          "outputs": [
            {
              "components": [
                {
                  "internalType": "uint256",
                  "name": "id",
                  "type": "uint256"
                },
                {
                  "internalType": "address",
                  "name": "hostAddress",
                  "type": "address"
                },
                {
                  "internalType": "uint256",
                  "name": "pricePerSession",
                  "type": "uint256"
                },
                {
                  "internalType": "string",
                  "name": "mongoDataId",
                  "type": "string"
                },
                {
                  "internalType": "bool",
                  "name": "isActive",
                  "type": "bool"
                },
                {
                  "internalType": "uint256",
                  "name": "createdAt",
                  "type": "uint256"
                },
                {
                  "internalType": "uint256",
                  "name": "updatedAt",
                  "type": "uint256"
                }
              ],
              "internalType": "struct ZaaNetStorage.Network[]",
              "name": "",
              "type": "tuple[]"
            }
          ],
          "stateMutability": "view",
          "type": "function"
        },
        {
          "inputs": [],
          "name": "getAllActiveNetworks",
          "outputs": [
            {
              "components": [
                {
                  "internalType": "uint256",
                  "name": "id",
                  "type": "uint256"
                },
                {
                  "internalType": "address",
                  "name": "hostAddress",
                  "type": "address"
                },
                {
                  "internalType": "uint256",
                  "name": "pricePerSession",
                  "type": "uint256"
                },
                {
                  "internalType": "string",
                  "name": "mongoDataId",
                  "type": "string"
                },
                {
                  "internalType": "bool",
                  "name": "isActive",
                  "type": "bool"
                },
                {
                  "internalType": "uint256",
                  "name": "createdAt",
                  "type": "uint256"
                },
                {
                  "internalType": "uint256",
                  "name": "updatedAt",
                  "type": "uint256"
                }
              ],
              "internalType": "struct ZaaNetStorage.Network[]",
              "name": "",
              "type": "tuple[]"
            }
          ],
          "stateMutability": "view",
          "type": "function"
        },
        {
          "inputs": [],
          "name": "getContractStats",
          "outputs": [
            {
              "internalType": "uint256",
              "name": "totalNetworks",
              "type": "uint256"
            }
          ],
          "stateMutability": "view",
          "type": "function"
        },
        {
          "inputs": [],
          "name": "getCurrentHostingFee",
          "outputs": [
            {
              "internalType": "uint256",
              "name": "",
              "type": "uint256"
            }
          ],
          "stateMutability": "view",
          "type": "function"
        },
        {
          "inputs": [
            {
              "internalType": "address",
              "name": "hostAddress",
              "type": "address"
            }
          ],
          "name": "getHostNetworks",
          "outputs": [
            {
              "internalType": "uint256[]",
              "name": "",
              "type": "uint256[]"
            }
          ],
          "stateMutability": "view",
          "type": "function"
        },
        {
          "inputs": [
            {
              "internalType": "address",
              "name": "hostAddress",
              "type": "address"
            }
          ],
          "name": "getHostStats",
          "outputs": [
            {
              "internalType": "uint256",
              "name": "totalNetworks",
              "type": "uint256"
            },
            {
              "internalType": "uint256",
              "name": "activeNetworks",
              "type": "uint256"
            },
            {
              "internalType": "uint256",
              "name": "totalEarnings",
              "type": "uint256"
            }
          ],
          "stateMutability": "view",
          "type": "function"
        },
        {
          "inputs": [
            {
              "internalType": "uint256",
              "name": "_networkId",
              "type": "uint256"
            }
          ],
          "name": "getHostedNetworkById",
          "outputs": [
            {
              "components": [
                {
                  "internalType": "uint256",
                  "name": "id",
                  "type": "uint256"
                },
                {
                  "internalType": "address",
                  "name": "hostAddress",
                  "type": "address"
                },
                {
                  "internalType": "uint256",
                  "name": "pricePerSession",
                  "type": "uint256"
                },
                {
                  "internalType": "string",
                  "name": "mongoDataId",
                  "type": "string"
                },
                {
                  "internalType": "bool",
                  "name": "isActive",
                  "type": "bool"
                },
                {
                  "internalType": "uint256",
                  "name": "createdAt",
                  "type": "uint256"
                },
                {
                  "internalType": "uint256",
                  "name": "updatedAt",
                  "type": "uint256"
                }
              ],
              "internalType": "struct ZaaNetStorage.Network",
              "name": "",
              "type": "tuple"
            }
          ],
          "stateMutability": "view",
          "type": "function"
        },
        {
          "inputs": [
            {
              "internalType": "uint256",
              "name": "offset",
              "type": "uint256"
            },
            {
              "internalType": "uint256",
              "name": "limit",
              "type": "uint256"
            }
          ],
          "name": "getNetworksPaginated",
          "outputs": [
            {
              "components": [
                {
                  "internalType": "uint256",
                  "name": "id",
                  "type": "uint256"
                },
                {
                  "internalType": "address",
                  "name": "hostAddress",
                  "type": "address"
                },
                {
                  "internalType": "uint256",
                  "name": "pricePerSession",
                  "type": "uint256"
                },
                {
                  "internalType": "string",
                  "name": "mongoDataId",
                  "type": "string"
                },
                {
                  "internalType": "bool",
                  "name": "isActive",
                  "type": "bool"
                },
                {
                  "internalType": "uint256",
                  "name": "createdAt",
                  "type": "uint256"
                },
                {
                  "internalType": "uint256",
                  "name": "updatedAt",
                  "type": "uint256"
                }
              ],
              "internalType": "struct ZaaNetStorage.Network[]",
              "name": "networks",
              "type": "tuple[]"
            },
            {
              "internalType": "uint256",
              "name": "totalCount",
              "type": "uint256"
            }
          ],
          "stateMutability": "view",
          "type": "function"
        },
        {
          "inputs": [],
          "name": "getTreasuryAddress",
          "outputs": [
            {
              "internalType": "address",
              "name": "",
              "type": "address"
            }
          ],
          "stateMutability": "view",
          "type": "function"
        },
        {
          "inputs": [
            {
              "internalType": "address",
              "name": "",
              "type": "address"
            }
          ],
          "name": "isHost",
          "outputs": [
            {
              "internalType": "bool",
              "name": "",
              "type": "bool"
            }
          ],
          "stateMutability": "view",
          "type": "function"
        },
        {
          "inputs": [
            {
              "internalType": "address",
              "name": "hostAddress",
              "type": "address"
            }
          ],
          "name": "isRegisteredHost",
          "outputs": [
            {
              "internalType": "bool",
              "name": "",
              "type": "bool"
            }
          ],
          "stateMutability": "view",
          "type": "function"
        },
        {
          "inputs": [
            {
              "internalType": "address",
              "name": "",
              "type": "address"
            }
          ],
          "name": "lastRegistrationTime",
          "outputs": [
            {
              "internalType": "uint256",
              "name": "",
              "type": "uint256"
            }
          ],
          "stateMutability": "view",
          "type": "function"
        },
        {
          "inputs": [
            {
              "internalType": "uint256",
              "name": "",
              "type": "uint256"
            }
          ],
          "name": "networkToHost",
          "outputs": [
            {
              "internalType": "address",
              "name": "",
              "type": "address"
            }
          ],
          "stateMutability": "view",
          "type": "function"
        },
        {
          "inputs": [],
          "name": "owner",
          "outputs": [
            {
              "internalType": "address",
              "name": "",
              "type": "address"
            }
          ],
          "stateMutability": "view",
          "type": "function"
        },
        {
          "inputs": [],
          "name": "pause",
          "outputs": [],
          "stateMutability": "nonpayable",
          "type": "function"
        },
        {
          "inputs": [],
          "name": "paused",
          "outputs": [
            {
              "internalType": "bool",
              "name": "",
              "type": "bool"
            }
          ],
          "stateMutability": "view",
          "type": "function"
        },
        {
          "inputs": [
            {
              "internalType": "uint256",
              "name": "_pricePerSession",
              "type": "uint256"
            },
            {
              "internalType": "string",
              "name": "_mongoDataId",
              "type": "string"
            },
            {
              "internalType": "bool",
              "name": "_isActive",
              "type": "bool"
            }
          ],
          "name": "registerNetwork",
          "outputs": [],
          "stateMutability": "nonpayable",
          "type": "function"
        },
        {
          "inputs": [],
          "name": "renounceOwnership",
          "outputs": [],
          "stateMutability": "nonpayable",
          "type": "function"
        },
        {
          "inputs": [
            {
              "internalType": "address",
              "name": "_newAdminContract",
              "type": "address"
            }
          ],
          "name": "setAdminContract",
          "outputs": [],
          "stateMutability": "nonpayable",
          "type": "function"
        },
        {
          "inputs": [
            {
              "internalType": "address",
              "name": "_newUsdt",
              "type": "address"
            }
          ],
          "name": "setUsdtContract",
          "outputs": [],
          "stateMutability": "nonpayable",
          "type": "function"
        },
        {
          "inputs": [],
          "name": "storageContract",
          "outputs": [
            {
              "internalType": "contract ZaaNetStorage",
              "name": "",
              "type": "address"
            }
          ],
          "stateMutability": "view",
          "type": "function"
        },
        {
          "inputs": [
            {
              "internalType": "address",
              "name": "newOwner",
              "type": "address"
            }
          ],
          "name": "transferOwnership",
          "outputs": [],
          "stateMutability": "nonpayable",
          "type": "function"
        },
        {
          "inputs": [],
          "name": "unpause",
          "outputs": [],
          "stateMutability": "nonpayable",
          "type": "function"
        },
        {
          "inputs": [
            {
              "internalType": "uint256",
              "name": "_networkId",
              "type": "uint256"
            },
            {
              "internalType": "uint256",
              "name": "_pricePerSession",
              "type": "uint256"
            },
            {
              "internalType": "bool",
              "name": "_isActive",
              "type": "bool"
            }
          ],
          "name": "updateNetwork",
          "outputs": [],
          "stateMutability": "nonpayable",
          "type": "function"
        },
        {
          "inputs": [],
          "name": "usdt",
          "outputs": [
            {
              "internalType": "contract IERC20",
              "name": "",
              "type": "address"
            }
          ],
          "stateMutability": "view",
          "type": "function"
        }
      ],
      "evm": {
        "bytecode": {
          "linkReferences": {},
          "object": "60803461020657601f6122bb38819003918201601f19168301916001600160401b0383118484101761020b578084926060946040528339810103126102065761004781610221565b90610060604061005960208401610221565b9201610221565b9033156101f05760008054336001600160a01b0319821681178355604051959290916001600160a01b0316907f8be0079c531659141344cd1fd0a4f28419497f9722a3daafe3b4186f6b6457e09080a3600180556001600160a01b03169283156101ae57506001600160a01b0316908115610169576001600160a01b03169182156101245760018060a01b0319600254161760025560018060a01b0319600354161760035560018060a01b0319600454161760045560405161208590816102368239f35b60405162461bcd60e51b815260206004820152601d60248201527f496e76616c6964205553445420636f6e747261637420616464726573730000006044820152606490fd5b60405162461bcd60e51b815260206004820152601e60248201527f496e76616c69642061646d696e20636f6e7472616374206164647265737300006044820152606490fd5b62461bcd60e51b815260206004820181905260248201527f496e76616c69642073746f7261676520636f6e747261637420616464726573736044820152606490fd5b631e4fbdf760e01b600052600060045260246000fd5b600080fd5b634e487b7160e01b600052604160045260246000fd5b51906001600160a01b03821682036102065756fe608080604052600436101561001357600080fd5b600090813560e01c90816309115e9714611b595750806311ce026714611b3057806316cb6eff14611a2e5780631b63fe67146117cd5780632b2a748c1461160b5780632f48ab7d146115e25780633f4ba83a1461157457806343355214146115415780634b9791e8146111d1578063576338a5146111495780635c975abb1461112457806363a812f91461109b578063715018a614611041578063764ac73414610eac57806379f0dc5714610df35780637f6e8cbf14610db65780638456cb5914610d55578063867f1a09146102b357806389ea28d914610d065780638da5cb5b14610cdf578063900e41b114610542578063b0ff638314610526578063c05c5e94146104fd578063cd83fb9a1461045b578063d4f38d041461043c578063dfe6b5d6146103b4578063e002460414610311578063e67d86f1146102f5578063eb2931b7146102b3578063f2fde38b146102255763fa9c81a41461017657600080fd5b3461022257604036600319011261022257600254604051633ea7206960e21b81526004803590820152602480359082015291908190839060449082906001600160a01b03165afa8015610215576101e5928280926101ef575b5050604051928392604084526040840190611c19565b9060208301520390f35b90915061020e92503d8091833e6102068183611cb3565b810190611dde565b38806101cf565b50604051903d90823e3d90fd5b80fd5b5034610222576020366003190112610222576004356001600160a01b038116908190036102af57610254612026565b801561029b5781546001600160a01b03198116821783556001600160a01b03167f8be0079c531659141344cd1fd0a4f28419497f9722a3daafe3b4186f6b6457e08380a380f35b631e4fbdf760e01b82526004829052602482fd5b5080fd5b5034610222576020366003190112610222576004356001600160a01b038116908190036102af5760408260ff9260209452600584522054166040519015158152f35b5034610222578060031936011261022257602060405160c88152f35b503461022257806003193601126102225760035460405163c5f956af60e01b81529190602090839060049082906001600160a01b03165afa9081156103a857809161036b575b6040516001600160a01b0383168152602090f35b90506020823d6020116103a0575b8161038660209383611cb3565b81010312610222575061039a602091611d09565b38610357565b3d9150610379565b604051903d90823e3d90fd5b503461022257806003193601126102225760025460405163217c682d60e01b81529190602090839060049082906001600160a01b03165afa9081156103a85790610404575b602090604051908152f35b506020813d602011610434575b8161041e60209383611cb3565b8101031261042f57602090516103f9565b600080fd5b3d9150610411565b503461022257806003193601126102225760206040516302faf0808152f35b503461022257602036600319011261022257610475611ed1565b506002546040516395ea571760e01b81526004803590820152908290829060249082906001600160a01b03165afa9081156104f257826104cb93926104cf575b5050604051918291602083526020830190611bbd565b0390f35b6104eb92503d8091833e6104e38183611cb3565b810190611f58565b38806104b5565b6040513d84823e3d90fd5b50346102225780600319360112610222576003546040516001600160a01b039091168152602090f35b50346102225780600319360112610222576020604051603c8152f35b5034610222576060366003190112610222576024359060043567ffffffffffffffff83116102af57366023840112156102af57826004013561058381611cd5565b936105916040519586611cb3565b8185523660248383010111610a425781849260246020930183880137850101526105b9611c72565b926105c2611fe4565b6105ca612004565b33835260086020526040832054603c8101809111610ccb574210610c865761271082101580610c78575b6105fd90611f81565b80518015159081610c6c575b5015610c27576003546040516375f3fed560e11b81526001600160a01b0390911694602082600481895afa918215610a46578592610bf0575b5060206004966040519788809263c5f956af60e01b82525afa958615610a46578596610bb4575b5081151580610ba2575b6108d2575b6002546040516329487fe360e11b8152959650939493602090859060049082908a906001600160a01b03165af19384156108c7578694610893575b508560018060a01b036002541691604051906106ce82611c81565b8682523360208301528760408301528560608301521515928360808301524260a08301524260c0830152803b1561088f57604051631430350760e21b81529183918391829084908290610725908d60048401611fcd565b03925af180156104f257610876575b505033865260066020526040862080549068010000000000000000821015610862576001820180825582101561084e577fd93f4aea01982a4687b0d757a8314f57b6a77742cf98d21bc9bdb24ef543a4dc9493929186918952602089200155848752600760205260408720336001600160601b0360a01b8254161790553387526008602052426040882055338752600560205260ff6040882054161561080d575b6107ea6040519360a0855260a0850190611b98565b956020840152604083015260608201524260808201528033940390a36001805580f35b33808852600560205260408820805460ff191660011790557f8ff9310abede1de3c5d3fdbb7cf09c40bc8258ca75c0f949ad92f964deac98b38880a26107d5565b634e487b7160e01b88526032600452602488fd5b634e487b7160e01b88526041600452602488fd5b8161088091611cb3565b61088b578538610734565b8580fd5b8280fd5b9093506020813d6020116108bf575b816108af60209383611cb3565b8101031261042f575192386106b3565b3d91506108a2565b6040513d88823e3d90fd5b600480546040516370a0823160e01b815233928101929092526001600160a01b031696906020816024818b5afa908115610b0b579084918891610b6d575b5010610b1657604051636eb1769f60e11b81523360048201523060248201526020816044818b5afa908115610b0b579084918891610ad6575b5010610a7d576040516323b872dd60e01b60208281019182523360248401526001600160a01b03909316604483015260648083018690528252879161098f608482611cb3565b5190828a5af115610a725784513d610a695750853b155b610a555760025494955092938593906001600160a01b0316803b15610a51578480916024604051809481936369009a1360e01b83528860048401525af1908115610a46578591610a2d575b50506040518281524260208201527fac5b35db873b0c878683cbeac0fc736acd48ea6480742bafd3ba483dd715882460403392a2939293610678565b81610a3791611cb3565b610a425783386109f1565b8380fd5b6040513d87823e3d90fd5b8480fd5b635274afe760e01b85526004869052602485fd5b600114156109a6565b6040513d86823e3d90fd5b60405162461bcd60e51b815260206004820152602b60248201527f496e73756666696369656e74205553445420616c6c6f77616e636520666f722060448201526a686f7374696e672066656560a81b6064820152608490fd5b9150506020813d602011610b03575b81610af260209383611cb3565b8101031261042f5783905138610949565b3d9150610ae5565b6040513d89823e3d90fd5b60405162461bcd60e51b815260206004820152602960248201527f496e73756666696369656e7420555344542062616c616e636520666f7220686f6044820152687374696e672066656560b81b6064820152608490fd5b9150506020813d602011610b9a575b81610b8960209383611cb3565b8101031261042f5783905138610910565b3d9150610b7c565b506001600160a01b0386161515610673565b9095506020813d602011610be8575b81610bd060209383611cb3565b81010312610a5157610be190611d09565b9438610669565b3d9150610bc3565b9591506020863d602011610c1f575b81610c0c60209383611cb3565b8101031261042f57945190946020610642565b3d9150610bff565b60405162461bcd60e51b815260206004820152601a60248201527f496e76616c6964204d6f6e676f446174614944206c656e6774680000000000006044820152606490fd5b60c89150111538610609565b506302faf0808211156105f4565b60405162461bcd60e51b815260206004820152601c60248201527f526567697374726174696f6e20636f6f6c646f776e20616374697665000000006044820152606490fd5b634e487b7160e01b84526011600452602484fd5b5034610222578060031936011261022257546040516001600160a01b039091168152602090f35b50346102225780600319360112610222576003546040516375f3fed560e11b81529190602090839060049082906001600160a01b03165afa9081156103a8579061040457602090604051908152f35b5034610222578060031936011261022257610d6e612026565b610d76611fe4565b805460ff60a01b1916600160a01b1781556040513381527f62e78cea01bee320cd4e420270b5ea74000d11b0c9f74754ebdbfc544b05a25890602090a180f35b5034610222576020366003190112610222576004356001600160a01b038116908190036102af578160409160209352600883522054604051908152f35b5034610222576020366003190112610222576004356001600160a01b038116908190036102af578152600660205260408120604051908160208254918281520190819285526020852090855b818110610e965750505082610e55910383611cb3565b604051928392602084019060208552518091526040840192915b818110610e7d575050500390f35b8251845285945060209384019390920191600101610e6f565b8254845260209093019260019283019201610e3f565b5034610222576020366003190112610222576004356001600160a01b038116908190036102af57818183526006602052604083205460018060a01b03600254169060405193636d65573f60e01b8552806004860152602085602481865afa9485156108c757869561100d575b508552600660205260408520906040518083602082955493848152019089526020892092895b818110610ff4575050610f5392500383611cb3565b855b8251811015610fdd57610f688184611e82565b51604051906395ea571760e01b825260048201528781602481885afa8015610fd2576080918991610fb8575b500151610fa4575b600101610f55565b93610fb0600191611eac565b949050610f9c565b610fcc91503d808b833e6104e38183611cb3565b38610f94565b6040513d8a823e3d90fd5b606082878760405192835260208301526040820152f35b8454835260019485019487945060209093019201610f3e565b9094506020813d602011611039575b8161102960209383611cb3565b8101031261042f57519338610f18565b3d915061101c565b503461022257806003193601126102225761105a612026565b80546001600160a01b03198116825581906001600160a01b03167f8be0079c531659141344cd1fd0a4f28419497f9722a3daafe3b4186f6b6457e08280a380f35b5034610222576020366003190112610222576004356001600160a01b038116908190036102af576110ca612026565b80156110e6576001600160601b0360a01b600354161760035580f35b60405162461bcd60e51b8152602060048201526016602482015275125b9d985b1a590818591b5a5b8818dbdb9d1c9858dd60521b6044820152606490fd5b503461022257806003193601126102225760ff6020915460a01c166040519015158152f35b5034610222576020366003190112610222576004356001600160a01b038116908190036102af57611178612026565b8015611194576001600160601b0360a01b600454161760045580f35b60405162461bcd60e51b8152602060048201526015602482015274125b9d985b1a59081554d1150818dbdb9d1c9858dd605a1b6044820152606490fd5b5034610222576020366003190112610222576004356111ee611fe4565b6002546040516395ea571760e01b815260048101839052908390829060249082906001600160a01b03165afa90811561153657839161151c575b5060208101516001600160a01b031633036114d7576080810151156114925760409081015160025491516395ea571760e01b8152600481018490529092916001600160a01b03168482602481845afa918215610a46578592611476575b506020820151336001600160a01b039091160361143a576127108410158061142c575b6112b190611f81565b846040830151926080810151151590606081019360a08551920151604051926112d984611c81565b888452336020850152896040850152606084015284608084015260a08301524260c0830152803b15610a425761132a8492918392604051968780948193631430350760e21b83528d60048401611fcd565b03925af192831561021557869361140f575b5050908161139193928286897f54505b9e522263d538acc1f6de9658c2ae4fd39b8771f562481c2d375d1c1f2d98036113d8575b50506113a1575b505051604051948552606060208601526060850190611b98565b928460408201528033940390a380f35b60407fb061566845b6680f66461fbe29235493f3aa355419d464d868114a32e0e7ae7b918151908152896020820152a28338611377565b60407f07d20e42fbc3910f3e2536c15bfb3d2deec361f7b0534c071570af6608429f019181519081528b6020820152a28238611370565b81929493509061141e91611cb3565b61088b57908390863861133c565b506302faf0808411156112a8565b60405162461bcd60e51b81526020600482015260146024820152734f6e6c7920686f73742063616e2075706461746560601b6044820152606490fd5b61148b9192503d8087833e6104e38183611cb3565b9038611285565b60405162461bcd60e51b815260206004820152601860248201527f4e6574776f726b20616c726561647920696e61637469766500000000000000006044820152606490fd5b60405162461bcd60e51b815260206004820152601860248201527f4f6e6c7920686f73742063616e206465616374697661746500000000000000006044820152606490fd5b61153091503d8085833e6104e38183611cb3565b38611228565b6040513d85823e3d90fd5b503461022257602036600319011261022257602090600435815260078252604060018060a01b0391205416604051908152f35b503461022257806003193601126102225761158d612026565b805460ff8160a01c16156115d35760ff60a01b191681556040513381527f5db9ee0a495bf2e6ff9c91a7834c1ba4fdd244a5e8aa4e537bd38aeae4b073aa90602090a180f35b638dfc202b60e01b8252600482fd5b50346102225780600319360112610222576004546040516001600160a01b039091168152602090f35b5034610222576020366003190112610222576004356001600160a01b038116908190036102af5781526006602052604081206040518082602082945493848152019085526020852092855b8181106117b457505061166b92500382611cb3565b60025482906001600160a01b031681805b84518110156116f95761168f8186611e82565b51604051906395ea571760e01b825260048201528281602481875afa80156115365760809184916116df575b5001516116cb575b60010161167c565b926116d7600191611eac565b9390506116c3565b6116f391503d8086833e6104e38183611cb3565b386116bb565b50509061170590611f08565b8390845b845181101561179e5761171c8186611e82565b51604051906395ea571760e01b825260048201528681602481885afa908115610b0b578791611784575b50608081015161175a575b50600101611709565b8361177d9161176c6001949686611e82565b526117778185611e82565b50611eac565b9290611751565b61179891503d8089833e6104e38183611cb3565b38611746565b604051602080825281906104cb90820185611c19565b8454835260019485019486945060209093019201611656565b5034610222576060366003190112610222576024356004356117ed611c72565b916117f6611fe4565b6117fe612004565b6002546040516395ea571760e01b815260048101849052906001600160a01b03168582602481845afa9182156108c7578692611a12575b506020820151336001600160a01b039091160361143a5761271083101580611a04575b61186190611f81565b6040820151866080840151151592606085019460a08651910151986040519161188983611c81565b898352336020840152886040840152606083015215159889608083015260a08201524260c0820152813b1561088f5782916118db91604051948580948193631430350760e21b83528d60048401611fcd565b03925af18015610fd2576119c2575b509184611941928185877f54505b9e522263d538acc1f6de9658c2ae4fd39b8771f562481c2d375d1c1f2d98970361198b575b5050878103611954575b505051604051928352606060208401526060830190611b98565b9360408201528033940390a36001805580f35b60407fb061566845b6680f66461fbe29235493f3aa355419d464d868114a32e0e7ae7b918151908152896020820152a28438611927565b60407f07d20e42fbc3910f3e2536c15bfb3d2deec361f7b0534c071570af6608429f01918151908152886020820152a2813861191d565b6119419286896119f77f54505b9e522263d538acc1f6de9658c2ae4fd39b8771f562481c2d375d1c1f2d9897959b8395611cb3565b99939596505092506118ea565b506302faf080831115611858565b611a279192503d8088833e6104e38183611cb3565b9038611835565b5034610222578060031936011261022257600254604051633ea7206960e21b8152600481018390526064602482015291908190839060449082906001600160a01b03165afa918215610215578192611b13575b5080815b8351811015611abe576080611a9a8286611e82565b510151611aaa575b600101611a85565b90611ab6600191611eac565b919050611aa2565b50611ac890611f08565b815b835181101561179e576080611adf8286611e82565b510151611aef575b600101611aca565b91611b0b600191611b008587611e82565b5161176c8286611e82565b929050611ae7565b611b289192503d8084833e6102068183611cb3565b509038611a81565b50346102225780600319360112610222576002546040516001600160a01b039091168152602090f35b9050346102af57816003193601126102af578061271060209252f35b60005b838110611b885750506000910152565b8181015183820152602001611b78565b90602091611bb181518092818552858086019101611b75565b601f01601f1916010190565b908151815260018060a01b0360208301511660208201526040820151604082015260c080611bfa606085015160e0606086015260e0850190611b98565b9360808101511515608085015260a081015160a0850152015191015290565b9080602083519182815201916020808360051b8301019401926000915b838310611c4557505050505090565b9091929394602080611c63600193601f198682030187528951611bbd565b97019301930191939290611c36565b60443590811515820361042f57565b60e0810190811067ffffffffffffffff821117611c9d57604052565b634e487b7160e01b600052604160045260246000fd5b90601f8019910116810190811067ffffffffffffffff821117611c9d57604052565b67ffffffffffffffff8111611c9d57601f01601f191660200190565b67ffffffffffffffff8111611c9d5760051b60200190565b51906001600160a01b038216820361042f57565b91909160e08184031261042f5760405190611d3782611c81565b819381518352611d4960208301611d09565b602084015260408201516040840152606082015167ffffffffffffffff811161042f57820181601f8201121561042f578051611d8481611cd5565b92611d926040519485611cb3565b8184526020828401011161042f57611db09160208085019101611b75565b60608301526080810151801515810361042f5760c0918291608085015260a081015160a08501520151910152565b919060408382031261042f57825167ffffffffffffffff811161042f5783019080601f8301121561042f578151611e1481611cf1565b92611e226040519485611cb3565b81845260208085019260051b8201019183831161042f5760208201905b838210611e5457505050505060209092015190565b815167ffffffffffffffff811161042f57602091611e7787848094880101611d1d565b815201910190611e3f565b8051821015611e965760209160051b010190565b634e487b7160e01b600052603260045260246000fd5b6000198114611ebb5760010190565b634e487b7160e01b600052601160045260246000fd5b60405190611ede82611c81565b600060c0838281528260208201528260408201526060808201528260808201528260a08201520152565b90611f1282611cf1565b611f1f6040519182611cb3565b8281528092611f30601f1991611cf1565b019060005b828110611f4157505050565b602090611f4c611ed1565b82828501015201611f35565b9060208282031261042f57815167ffffffffffffffff811161042f57611f7e9201611d1d565b90565b15611f8857565b60405162461bcd60e51b815260206004820152601a60248201527f5072696365206f7574206f6620616c6c6f7765642072616e67650000000000006044820152606490fd5b604090611f7e939281528160208201520190611bbd565b60ff60005460a01c16611ff357565b63d93c066560e01b60005260046000fd5b600260015414612015576002600155565b633ee5aeb560e01b60005260046000fd5b6000546001600160a01b0316330361203a57565b63118cdaa760e01b6000523360045260246000fdfea26469706673582212200ef369e340644e88beb1ec708092be77e13b6388a3b9087dd4a2a7fc8415d96f64736f6c634300081c0033",
          "opcodes": "PUSH1 0x80 CALLVALUE PUSH2 0x206 JUMPI PUSH1 0x1F PUSH2 0x22BB CODESIZE DUP2 SWAP1 SUB SWAP2 DUP3 ADD PUSH1 0x1F NOT AND DUP4 ADD SWAP2 PUSH1 0x1 PUSH1 0x1 PUSH1 0x40 SHL SUB DUP4 GT DUP5 DUP5 LT OR PUSH2 0x20B JUMPI DUP1 DUP5 SWAP3 PUSH1 0x60 SWAP5 PUSH1 0x40 MSTORE DUP4 CODECOPY DUP2 ADD SUB SLT PUSH2 0x206 JUMPI PUSH2 0x47 DUP2 PUSH2 0x221 JUMP JUMPDEST SWAP1 PUSH2 0x60 PUSH1 0x40 PUSH2 0x59 PUSH1 0x20 DUP5 ADD PUSH2 0x221 JUMP JUMPDEST SWAP3 ADD PUSH2 0x221 JUMP JUMPDEST SWAP1 CALLER ISZERO PUSH2 0x1F0 JUMPI PUSH1 0x0 DUP1 SLOAD CALLER PUSH1 0x1 PUSH1 0x1 PUSH1 0xA0 SHL SUB NOT DUP3 AND DUP2 OR DUP4 SSTORE PUSH1 0x40 MLOAD SWAP6 SWAP3 SWAP1 SWAP2 PUSH1 0x1 PUSH1 0x1 PUSH1 0xA0 SHL SUB AND SWAP1 PUSH32 0x8BE0079C531659141344CD1FD0A4F28419497F9722A3DAAFE3B4186F6B6457E0 SWAP1 DUP1 LOG3 PUSH1 0x1 DUP1 SSTORE PUSH1 0x1 PUSH1 0x1 PUSH1 0xA0 SHL SUB AND SWAP3 DUP4 ISZERO PUSH2 0x1AE JUMPI POP PUSH1 0x1 PUSH1 0x1 PUSH1 0xA0 SHL SUB AND SWAP1 DUP2 ISZERO PUSH2 0x169 JUMPI PUSH1 0x1 PUSH1 0x1 PUSH1 0xA0 SHL SUB AND SWAP2 DUP3 ISZERO PUSH2 0x124 JUMPI PUSH1 0x1 DUP1 PUSH1 0xA0 SHL SUB NOT PUSH1 0x2 SLOAD AND OR PUSH1 0x2 SSTORE PUSH1 0x1 DUP1 PUSH1 0xA0 SHL SUB NOT PUSH1 0x3 SLOAD AND OR PUSH1 0x3 SSTORE PUSH1 0x1 DUP1 PUSH1 0xA0 SHL SUB NOT PUSH1 0x4 SLOAD AND OR PUSH1 0x4 SSTORE PUSH1 0x40 MLOAD PUSH2 0x2085 SWAP1 DUP2 PUSH2 0x236 DUP3 CODECOPY RETURN JUMPDEST PUSH1 0x40 MLOAD PUSH3 0x461BCD PUSH1 0xE5 SHL DUP2 MSTORE PUSH1 0x20 PUSH1 0x4 DUP3 ADD MSTORE PUSH1 0x1D PUSH1 0x24 DUP3 ADD MSTORE PUSH32 0x496E76616C6964205553445420636F6E74726163742061646472657373000000 PUSH1 0x44 DUP3 ADD MSTORE PUSH1 0x64 SWAP1 REVERT JUMPDEST PUSH1 0x40 MLOAD PUSH3 0x461BCD PUSH1 0xE5 SHL DUP2 MSTORE PUSH1 0x20 PUSH1 0x4 DUP3 ADD MSTORE PUSH1 0x1E PUSH1 0x24 DUP3 ADD MSTORE PUSH32 0x496E76616C69642061646D696E20636F6E747261637420616464726573730000 PUSH1 0x44 DUP3 ADD MSTORE PUSH1 0x64 SWAP1 REVERT JUMPDEST PUSH3 0x461BCD PUSH1 0xE5 SHL DUP2 MSTORE PUSH1 0x20 PUSH1 0x4 DUP3 ADD DUP2 SWAP1 MSTORE PUSH1 0x24 DUP3 ADD MSTORE PUSH32 0x496E76616C69642073746F7261676520636F6E74726163742061646472657373 PUSH1 0x44 DUP3 ADD MSTORE PUSH1 0x64 SWAP1 REVERT JUMPDEST PUSH4 0x1E4FBDF7 PUSH1 0xE0 SHL PUSH1 0x0 MSTORE PUSH1 0x0 PUSH1 0x4 MSTORE PUSH1 0x24 PUSH1 0x0 REVERT JUMPDEST PUSH1 0x0 DUP1 REVERT JUMPDEST PUSH4 0x4E487B71 PUSH1 0xE0 SHL PUSH1 0x0 MSTORE PUSH1 0x41 PUSH1 0x4 MSTORE PUSH1 0x24 PUSH1 0x0 REVERT JUMPDEST MLOAD SWAP1 PUSH1 0x1 PUSH1 0x1 PUSH1 0xA0 SHL SUB DUP3 AND DUP3 SUB PUSH2 0x206 JUMPI JUMP INVALID PUSH1 0x80 DUP1 PUSH1 0x40 MSTORE PUSH1 0x4 CALLDATASIZE LT ISZERO PUSH2 0x13 JUMPI PUSH1 0x0 DUP1 REVERT JUMPDEST PUSH1 0x0 SWAP1 DUP2 CALLDATALOAD PUSH1 0xE0 SHR SWAP1 DUP2 PUSH4 0x9115E97 EQ PUSH2 0x1B59 JUMPI POP DUP1 PUSH4 0x11CE0267 EQ PUSH2 0x1B30 JUMPI DUP1 PUSH4 0x16CB6EFF EQ PUSH2 0x1A2E JUMPI DUP1 PUSH4 0x1B63FE67 EQ PUSH2 0x17CD JUMPI DUP1 PUSH4 0x2B2A748C EQ PUSH2 0x160B JUMPI DUP1 PUSH4 0x2F48AB7D EQ PUSH2 0x15E2 JUMPI DUP1 PUSH4 0x3F4BA83A EQ PUSH2 0x1574 JUMPI DUP1 PUSH4 0x43355214 EQ PUSH2 0x1541 JUMPI DUP1 PUSH4 0x4B9791E8 EQ PUSH2 0x11D1 JUMPI DUP1 PUSH4 0x576338A5 EQ PUSH2 0x1149 JUMPI DUP1 PUSH4 0x5C975ABB EQ PUSH2 0x1124 JUMPI DUP1 PUSH4 0x63A812F9 EQ PUSH2 0x109B JUMPI DUP1 PUSH4 0x715018A6 EQ PUSH2 0x1041 JUMPI DUP1 PUSH4 0x764AC734 EQ PUSH2 0xEAC JUMPI DUP1 PUSH4 0x79F0DC57 EQ PUSH2 0xDF3 JUMPI DUP1 PUSH4 0x7F6E8CBF EQ PUSH2 0xDB6 JUMPI DUP1 PUSH4 0x8456CB59 EQ PUSH2 0xD55 JUMPI DUP1 PUSH4 0x867F1A09 EQ PUSH2 0x2B3 JUMPI DUP1 PUSH4 0x89EA28D9 EQ PUSH2 0xD06 JUMPI DUP1 PUSH4 0x8DA5CB5B EQ PUSH2 0xCDF JUMPI DUP1 PUSH4 0x900E41B1 EQ PUSH2 0x542 JUMPI DUP1 PUSH4 0xB0FF6383 EQ PUSH2 0x526 JUMPI DUP1 PUSH4 0xC05C5E94 EQ PUSH2 0x4FD JUMPI DUP1 PUSH4 0xCD83FB9A EQ PUSH2 0x45B JUMPI DUP1 PUSH4 0xD4F38D04 EQ PUSH2 0x43C JUMPI DUP1 PUSH4 0xDFE6B5D6 EQ PUSH2 0x3B4 JUMPI DUP1 PUSH4 0xE0024604 EQ PUSH2 0x311 JUMPI DUP1 PUSH4 0xE67D86F1 EQ PUSH2 0x2F5 JUMPI DUP1 PUSH4 0xEB2931B7 EQ PUSH2 0x2B3 JUMPI DUP1 PUSH4 0xF2FDE38B EQ PUSH2 0x225 JUMPI PUSH4 0xFA9C81A4 EQ PUSH2 0x176 JUMPI PUSH1 0x0 DUP1 REVERT JUMPDEST CALLVALUE PUSH2 0x222 JUMPI PUSH1 0x40 CALLDATASIZE PUSH1 0x3 NOT ADD SLT PUSH2 0x222 JUMPI PUSH1 0x2 SLOAD PUSH1 0x40 MLOAD PUSH4 0x3EA72069 PUSH1 0xE2 SHL DUP2 MSTORE PUSH1 0x4 DUP1 CALLDATALOAD SWAP1 DUP3 ADD MSTORE PUSH1 0x24 DUP1 CALLDATALOAD SWAP1 DUP3 ADD MSTORE SWAP2 SWAP1 DUP2 SWAP1 DUP4 SWAP1 PUSH1 0x44 SWAP1 DUP3 SWAP1 PUSH1 0x1 PUSH1 0x1 PUSH1 0xA0 SHL SUB AND GAS STATICCALL DUP1 ISZERO PUSH2 0x215 JUMPI PUSH2 0x1E5 SWAP3 DUP3 DUP1 SWAP3 PUSH2 0x1EF JUMPI JUMPDEST POP POP PUSH1 0x40 MLOAD SWAP3 DUP4 SWAP3 PUSH1 0x40 DUP5 MSTORE PUSH1 0x40 DUP5 ADD SWAP1 PUSH2 0x1C19 JUMP JUMPDEST SWAP1 PUSH1 0x20 DUP4 ADD MSTORE SUB SWAP1 RETURN JUMPDEST SWAP1 SWAP2 POP PUSH2 0x20E SWAP3 POP RETURNDATASIZE DUP1 SWAP2 DUP4 RETURNDATACOPY PUSH2 0x206 DUP2 DUP4 PUSH2 0x1CB3 JUMP JUMPDEST DUP2 ADD SWAP1 PUSH2 0x1DDE JUMP JUMPDEST CODESIZE DUP1 PUSH2 0x1CF JUMP JUMPDEST POP PUSH1 0x40 MLOAD SWAP1 RETURNDATASIZE SWAP1 DUP3 RETURNDATACOPY RETURNDATASIZE SWAP1 REVERT JUMPDEST DUP1 REVERT JUMPDEST POP CALLVALUE PUSH2 0x222 JUMPI PUSH1 0x20 CALLDATASIZE PUSH1 0x3 NOT ADD SLT PUSH2 0x222 JUMPI PUSH1 0x4 CALLDATALOAD PUSH1 0x1 PUSH1 0x1 PUSH1 0xA0 SHL SUB DUP2 AND SWAP1 DUP2 SWAP1 SUB PUSH2 0x2AF JUMPI PUSH2 0x254 PUSH2 0x2026 JUMP JUMPDEST DUP1 ISZERO PUSH2 0x29B JUMPI DUP2 SLOAD PUSH1 0x1 PUSH1 0x1 PUSH1 0xA0 SHL SUB NOT DUP2 AND DUP3 OR DUP4 SSTORE PUSH1 0x1 PUSH1 0x1 PUSH1 0xA0 SHL SUB AND PUSH32 0x8BE0079C531659141344CD1FD0A4F28419497F9722A3DAAFE3B4186F6B6457E0 DUP4 DUP1 LOG3 DUP1 RETURN JUMPDEST PUSH4 0x1E4FBDF7 PUSH1 0xE0 SHL DUP3 MSTORE PUSH1 0x4 DUP3 SWAP1 MSTORE PUSH1 0x24 DUP3 REVERT JUMPDEST POP DUP1 REVERT JUMPDEST POP CALLVALUE PUSH2 0x222 JUMPI PUSH1 0x20 CALLDATASIZE PUSH1 0x3 NOT ADD SLT PUSH2 0x222 JUMPI PUSH1 0x4 CALLDATALOAD PUSH1 0x1 PUSH1 0x1 PUSH1 0xA0 SHL SUB DUP2 AND SWAP1 DUP2 SWAP1 SUB PUSH2 0x2AF JUMPI PUSH1 0x40 DUP3 PUSH1 0xFF SWAP3 PUSH1 0x20 SWAP5 MSTORE PUSH1 0x5 DUP5 MSTORE KECCAK256 SLOAD AND PUSH1 0x40 MLOAD SWAP1 ISZERO ISZERO DUP2 MSTORE RETURN JUMPDEST POP CALLVALUE PUSH2 0x222 JUMPI DUP1 PUSH1 0x3 NOT CALLDATASIZE ADD SLT PUSH2 0x222 JUMPI PUSH1 0x20 PUSH1 0x40 MLOAD PUSH1 0xC8 DUP2 MSTORE RETURN JUMPDEST POP CALLVALUE PUSH2 0x222 JUMPI DUP1 PUSH1 0x3 NOT CALLDATASIZE ADD SLT PUSH2 0x222 JUMPI PUSH1 0x3 SLOAD PUSH1 0x40 MLOAD PUSH4 0xC5F956AF PUSH1 0xE0 SHL DUP2 MSTORE SWAP2 SWAP1 PUSH1 0x20 SWAP1 DUP4 SWAP1 PUSH1 0x4 SWAP1 DUP3 SWAP1 PUSH1 0x1 PUSH1 0x1 PUSH1 0xA0 SHL SUB AND GAS STATICCALL SWAP1 DUP2 ISZERO PUSH2 0x3A8 JUMPI DUP1 SWAP2 PUSH2 0x36B JUMPI JUMPDEST PUSH1 0x40 MLOAD PUSH1 0x1 PUSH1 0x1 PUSH1 0xA0 SHL SUB DUP4 AND DUP2 MSTORE PUSH1 0x20 SWAP1 RETURN JUMPDEST SWAP1 POP PUSH1 0x20 DUP3 RETURNDATASIZE PUSH1 0x20 GT PUSH2 0x3A0 JUMPI JUMPDEST DUP2 PUSH2 0x386 PUSH1 0x20 SWAP4 DUP4 PUSH2 0x1CB3 JUMP JUMPDEST DUP2 ADD SUB SLT PUSH2 0x222 JUMPI POP PUSH2 0x39A PUSH1 0x20 SWAP2 PUSH2 0x1D09 JUMP JUMPDEST CODESIZE PUSH2 0x357 JUMP JUMPDEST RETURNDATASIZE SWAP2 POP PUSH2 0x379 JUMP JUMPDEST PUSH1 0x40 MLOAD SWAP1 RETURNDATASIZE SWAP1 DUP3 RETURNDATACOPY RETURNDATASIZE SWAP1 REVERT JUMPDEST POP CALLVALUE PUSH2 0x222 JUMPI DUP1 PUSH1 0x3 NOT CALLDATASIZE ADD SLT PUSH2 0x222 JUMPI PUSH1 0x2 SLOAD PUSH1 0x40 MLOAD PUSH4 0x217C682D PUSH1 0xE0 SHL DUP2 MSTORE SWAP2 SWAP1 PUSH1 0x20 SWAP1 DUP4 SWAP1 PUSH1 0x4 SWAP1 DUP3 SWAP1 PUSH1 0x1 PUSH1 0x1 PUSH1 0xA0 SHL SUB AND GAS STATICCALL SWAP1 DUP2 ISZERO PUSH2 0x3A8 JUMPI SWAP1 PUSH2 0x404 JUMPI JUMPDEST PUSH1 0x20 SWAP1 PUSH1 0x40 MLOAD SWAP1 DUP2 MSTORE RETURN JUMPDEST POP PUSH1 0x20 DUP2 RETURNDATASIZE PUSH1 0x20 GT PUSH2 0x434 JUMPI JUMPDEST DUP2 PUSH2 0x41E PUSH1 0x20 SWAP4 DUP4 PUSH2 0x1CB3 JUMP JUMPDEST DUP2 ADD SUB SLT PUSH2 0x42F JUMPI PUSH1 0x20 SWAP1 MLOAD PUSH2 0x3F9 JUMP JUMPDEST PUSH1 0x0 DUP1 REVERT JUMPDEST RETURNDATASIZE SWAP2 POP PUSH2 0x411 JUMP JUMPDEST POP CALLVALUE PUSH2 0x222 JUMPI DUP1 PUSH1 0x3 NOT CALLDATASIZE ADD SLT PUSH2 0x222 JUMPI PUSH1 0x20 PUSH1 0x40 MLOAD PUSH4 0x2FAF080 DUP2 MSTORE RETURN JUMPDEST POP CALLVALUE PUSH2 0x222 JUMPI PUSH1 0x20 CALLDATASIZE PUSH1 0x3 NOT ADD SLT PUSH2 0x222 JUMPI PUSH2 0x475 PUSH2 0x1ED1 JUMP JUMPDEST POP PUSH1 0x2 SLOAD PUSH1 0x40 MLOAD PUSH4 0x95EA5717 PUSH1 0xE0 SHL DUP2 MSTORE PUSH1 0x4 DUP1 CALLDATALOAD SWAP1 DUP3 ADD MSTORE SWAP1 DUP3 SWAP1 DUP3 SWAP1 PUSH1 0x24 SWAP1 DUP3 SWAP1 PUSH1 0x1 PUSH1 0x1 PUSH1 0xA0 SHL SUB AND GAS STATICCALL SWAP1 DUP2 ISZERO PUSH2 0x4F2 JUMPI DUP3 PUSH2 0x4CB SWAP4 SWAP3 PUSH2 0x4CF JUMPI JUMPDEST POP POP PUSH1 0x40 MLOAD SWAP2 DUP3 SWAP2 PUSH1 0x20 DUP4 MSTORE PUSH1 0x20 DUP4 ADD SWAP1 PUSH2 0x1BBD JUMP JUMPDEST SUB SWAP1 RETURN JUMPDEST PUSH2 0x4EB SWAP3 POP RETURNDATASIZE DUP1 SWAP2 DUP4 RETURNDATACOPY PUSH2 0x4E3 DUP2 DUP4 PUSH2 0x1CB3 JUMP JUMPDEST DUP2 ADD SWAP1 PUSH2 0x1F58 JUMP JUMPDEST CODESIZE DUP1 PUSH2 0x4B5 JUMP JUMPDEST PUSH1 0x40 MLOAD RETURNDATASIZE DUP5 DUP3 RETURNDATACOPY RETURNDATASIZE SWAP1 REVERT JUMPDEST POP CALLVALUE PUSH2 0x222 JUMPI DUP1 PUSH1 0x3 NOT CALLDATASIZE ADD SLT PUSH2 0x222 JUMPI PUSH1 0x3 SLOAD PUSH1 0x40 MLOAD PUSH1 0x1 PUSH1 0x1 PUSH1 0xA0 SHL SUB SWAP1 SWAP2 AND DUP2 MSTORE PUSH1 0x20 SWAP1 RETURN JUMPDEST POP CALLVALUE PUSH2 0x222 JUMPI DUP1 PUSH1 0x3 NOT CALLDATASIZE ADD SLT PUSH2 0x222 JUMPI PUSH1 0x20 PUSH1 0x40 MLOAD PUSH1 0x3C DUP2 MSTORE RETURN JUMPDEST POP CALLVALUE PUSH2 0x222 JUMPI PUSH1 0x60 CALLDATASIZE PUSH1 0x3 NOT ADD SLT PUSH2 0x222 JUMPI PUSH1 0x24 CALLDATALOAD SWAP1 PUSH1 0x4 CALLDATALOAD PUSH8 0xFFFFFFFFFFFFFFFF DUP4 GT PUSH2 0x2AF JUMPI CALLDATASIZE PUSH1 0x23 DUP5 ADD SLT ISZERO PUSH2 0x2AF JUMPI DUP3 PUSH1 0x4 ADD CALLDATALOAD PUSH2 0x583 DUP2 PUSH2 0x1CD5 JUMP JUMPDEST SWAP4 PUSH2 0x591 PUSH1 0x40 MLOAD SWAP6 DUP7 PUSH2 0x1CB3 JUMP JUMPDEST DUP2 DUP6 MSTORE CALLDATASIZE PUSH1 0x24 DUP4 DUP4 ADD ADD GT PUSH2 0xA42 JUMPI DUP2 DUP5 SWAP3 PUSH1 0x24 PUSH1 0x20 SWAP4 ADD DUP4 DUP9 ADD CALLDATACOPY DUP6 ADD ADD MSTORE PUSH2 0x5B9 PUSH2 0x1C72 JUMP JUMPDEST SWAP3 PUSH2 0x5C2 PUSH2 0x1FE4 JUMP JUMPDEST PUSH2 0x5CA PUSH2 0x2004 JUMP JUMPDEST CALLER DUP4 MSTORE PUSH1 0x8 PUSH1 0x20 MSTORE PUSH1 0x40 DUP4 KECCAK256 SLOAD PUSH1 0x3C DUP2 ADD DUP1 SWAP2 GT PUSH2 0xCCB JUMPI TIMESTAMP LT PUSH2 0xC86 JUMPI PUSH2 0x2710 DUP3 LT ISZERO DUP1 PUSH2 0xC78 JUMPI JUMPDEST PUSH2 0x5FD SWAP1 PUSH2 0x1F81 JUMP JUMPDEST DUP1 MLOAD DUP1 ISZERO ISZERO SWAP1 DUP2 PUSH2 0xC6C JUMPI JUMPDEST POP ISZERO PUSH2 0xC27 JUMPI PUSH1 0x3 SLOAD PUSH1 0x40 MLOAD PUSH4 0x75F3FED5 PUSH1 0xE1 SHL DUP2 MSTORE PUSH1 0x1 PUSH1 0x1 PUSH1 0xA0 SHL SUB SWAP1 SWAP2 AND SWAP5 PUSH1 0x20 DUP3 PUSH1 0x4 DUP2 DUP10 GAS STATICCALL SWAP2 DUP3 ISZERO PUSH2 0xA46 JUMPI DUP6 SWAP3 PUSH2 0xBF0 JUMPI JUMPDEST POP PUSH1 0x20 PUSH1 0x4 SWAP7 PUSH1 0x40 MLOAD SWAP8 DUP9 DUP1 SWAP3 PUSH4 0xC5F956AF PUSH1 0xE0 SHL DUP3 MSTORE GAS STATICCALL SWAP6 DUP7 ISZERO PUSH2 0xA46 JUMPI DUP6 SWAP7 PUSH2 0xBB4 JUMPI JUMPDEST POP DUP2 ISZERO ISZERO DUP1 PUSH2 0xBA2 JUMPI JUMPDEST PUSH2 0x8D2 JUMPI JUMPDEST PUSH1 0x2 SLOAD PUSH1 0x40 MLOAD PUSH4 0x29487FE3 PUSH1 0xE1 SHL DUP2 MSTORE SWAP6 SWAP7 POP SWAP4 SWAP5 SWAP4 PUSH1 0x20 SWAP1 DUP6 SWAP1 PUSH1 0x4 SWAP1 DUP3 SWAP1 DUP11 SWAP1 PUSH1 0x1 PUSH1 0x1 PUSH1 0xA0 SHL SUB AND GAS CALL SWAP4 DUP5 ISZERO PUSH2 0x8C7 JUMPI DUP7 SWAP5 PUSH2 0x893 JUMPI JUMPDEST POP DUP6 PUSH1 0x1 DUP1 PUSH1 0xA0 SHL SUB PUSH1 0x2 SLOAD AND SWAP2 PUSH1 0x40 MLOAD SWAP1 PUSH2 0x6CE DUP3 PUSH2 0x1C81 JUMP JUMPDEST DUP7 DUP3 MSTORE CALLER PUSH1 0x20 DUP4 ADD MSTORE DUP8 PUSH1 0x40 DUP4 ADD MSTORE DUP6 PUSH1 0x60 DUP4 ADD MSTORE ISZERO ISZERO SWAP3 DUP4 PUSH1 0x80 DUP4 ADD MSTORE TIMESTAMP PUSH1 0xA0 DUP4 ADD MSTORE TIMESTAMP PUSH1 0xC0 DUP4 ADD MSTORE DUP1 EXTCODESIZE ISZERO PUSH2 0x88F JUMPI PUSH1 0x40 MLOAD PUSH4 0x14303507 PUSH1 0xE2 SHL DUP2 MSTORE SWAP2 DUP4 SWAP2 DUP4 SWAP2 DUP3 SWAP1 DUP5 SWAP1 DUP3 SWAP1 PUSH2 0x725 SWAP1 DUP14 PUSH1 0x4 DUP5 ADD PUSH2 0x1FCD JUMP JUMPDEST SUB SWAP3 GAS CALL DUP1 ISZERO PUSH2 0x4F2 JUMPI PUSH2 0x876 JUMPI JUMPDEST POP POP CALLER DUP7 MSTORE PUSH1 0x6 PUSH1 0x20 MSTORE PUSH1 0x40 DUP7 KECCAK256 DUP1 SLOAD SWAP1 PUSH9 0x10000000000000000 DUP3 LT ISZERO PUSH2 0x862 JUMPI PUSH1 0x1 DUP3 ADD DUP1 DUP3 SSTORE DUP3 LT ISZERO PUSH2 0x84E JUMPI PUSH32 0xD93F4AEA01982A4687B0D757A8314F57B6A77742CF98D21BC9BDB24EF543A4DC SWAP5 SWAP4 SWAP3 SWAP2 DUP7 SWAP2 DUP10 MSTORE PUSH1 0x20 DUP10 KECCAK256 ADD SSTORE DUP5 DUP8 MSTORE PUSH1 0x7 PUSH1 0x20 MSTORE PUSH1 0x40 DUP8 KECCAK256 CALLER PUSH1 0x1 PUSH1 0x1 PUSH1 0x60 SHL SUB PUSH1 0xA0 SHL DUP3 SLOAD AND OR SWAP1 SSTORE CALLER DUP8 MSTORE PUSH1 0x8 PUSH1 0x20 MSTORE TIMESTAMP PUSH1 0x40 DUP9 KECCAK256 SSTORE CALLER DUP8 MSTORE PUSH1 0x5 PUSH1 0x20 MSTORE PUSH1 0xFF PUSH1 0x40 DUP9 KECCAK256 SLOAD AND ISZERO PUSH2 0x80D JUMPI JUMPDEST PUSH2 0x7EA PUSH1 0x40 MLOAD SWAP4 PUSH1 0xA0 DUP6 MSTORE PUSH1 0xA0 DUP6 ADD SWAP1 PUSH2 0x1B98 JUMP JUMPDEST SWAP6 PUSH1 0x20 DUP5 ADD MSTORE PUSH1 0x40 DUP4 ADD MSTORE PUSH1 0x60 DUP3 ADD MSTORE TIMESTAMP PUSH1 0x80 DUP3 ADD MSTORE DUP1 CALLER SWAP5 SUB SWAP1 LOG3 PUSH1 0x1 DUP1 SSTORE DUP1 RETURN JUMPDEST CALLER DUP1 DUP9 MSTORE PUSH1 0x5 PUSH1 0x20 MSTORE PUSH1 0x40 DUP9 KECCAK256 DUP1 SLOAD PUSH1 0xFF NOT AND PUSH1 0x1 OR SWAP1 SSTORE PUSH32 0x8FF9310ABEDE1DE3C5D3FDBB7CF09C40BC8258CA75C0F949AD92F964DEAC98B3 DUP9 DUP1 LOG2 PUSH2 0x7D5 JUMP JUMPDEST PUSH4 0x4E487B71 PUSH1 0xE0 SHL DUP9 MSTORE PUSH1 0x32 PUSH1 0x4 MSTORE PUSH1 0x24 DUP9 REVERT JUMPDEST PUSH4 0x4E487B71 PUSH1 0xE0 SHL DUP9 MSTORE PUSH1 0x41 PUSH1 0x4 MSTORE PUSH1 0x24 DUP9 REVERT JUMPDEST DUP2 PUSH2 0x880 SWAP2 PUSH2 0x1CB3 JUMP JUMPDEST PUSH2 0x88B JUMPI DUP6 CODESIZE PUSH2 0x734 JUMP JUMPDEST DUP6 DUP1 REVERT JUMPDEST DUP3 DUP1 REVERT JUMPDEST SWAP1 SWAP4 POP PUSH1 0x20 DUP2 RETURNDATASIZE PUSH1 0x20 GT PUSH2 0x8BF JUMPI JUMPDEST DUP2 PUSH2 0x8AF PUSH1 0x20 SWAP4 DUP4 PUSH2 0x1CB3 JUMP JUMPDEST DUP2 ADD SUB SLT PUSH2 0x42F JUMPI MLOAD SWAP3 CODESIZE PUSH2 0x6B3 JUMP JUMPDEST RETURNDATASIZE SWAP2 POP PUSH2 0x8A2 JUMP JUMPDEST PUSH1 0x40 MLOAD RETURNDATASIZE DUP9 DUP3 RETURNDATACOPY RETURNDATASIZE SWAP1 REVERT JUMPDEST PUSH1 0x4 DUP1 SLOAD PUSH1 0x40 MLOAD PUSH4 0x70A08231 PUSH1 0xE0 SHL DUP2 MSTORE CALLER SWAP3 DUP2 ADD SWAP3 SWAP1 SWAP3 MSTORE PUSH1 0x1 PUSH1 0x1 PUSH1 0xA0 SHL SUB AND SWAP7 SWAP1 PUSH1 0x20 DUP2 PUSH1 0x24 DUP2 DUP12 GAS STATICCALL SWAP1 DUP2 ISZERO PUSH2 0xB0B JUMPI SWAP1 DUP5 SWAP2 DUP9 SWAP2 PUSH2 0xB6D JUMPI JUMPDEST POP LT PUSH2 0xB16 JUMPI PUSH1 0x40 MLOAD PUSH4 0x6EB1769F PUSH1 0xE1 SHL DUP2 MSTORE CALLER PUSH1 0x4 DUP3 ADD MSTORE ADDRESS PUSH1 0x24 DUP3 ADD MSTORE PUSH1 0x20 DUP2 PUSH1 0x44 DUP2 DUP12 GAS STATICCALL SWAP1 DUP2 ISZERO PUSH2 0xB0B JUMPI SWAP1 DUP5 SWAP2 DUP9 SWAP2 PUSH2 0xAD6 JUMPI JUMPDEST POP LT PUSH2 0xA7D JUMPI PUSH1 0x40 MLOAD PUSH4 0x23B872DD PUSH1 0xE0 SHL PUSH1 0x20 DUP3 DUP2 ADD SWAP2 DUP3 MSTORE CALLER PUSH1 0x24 DUP5 ADD MSTORE PUSH1 0x1 PUSH1 0x1 PUSH1 0xA0 SHL SUB SWAP1 SWAP4 AND PUSH1 0x44 DUP4 ADD MSTORE PUSH1 0x64 DUP1 DUP4 ADD DUP7 SWAP1 MSTORE DUP3 MSTORE DUP8 SWAP2 PUSH2 0x98F PUSH1 0x84 DUP3 PUSH2 0x1CB3 JUMP JUMPDEST MLOAD SWAP1 DUP3 DUP11 GAS CALL ISZERO PUSH2 0xA72 JUMPI DUP5 MLOAD RETURNDATASIZE PUSH2 0xA69 JUMPI POP DUP6 EXTCODESIZE ISZERO JUMPDEST PUSH2 0xA55 JUMPI PUSH1 0x2 SLOAD SWAP5 SWAP6 POP SWAP3 SWAP4 DUP6 SWAP4 SWAP1 PUSH1 0x1 PUSH1 0x1 PUSH1 0xA0 SHL SUB AND DUP1 EXTCODESIZE ISZERO PUSH2 0xA51 JUMPI DUP5 DUP1 SWAP2 PUSH1 0x24 PUSH1 0x40 MLOAD DUP1 SWAP5 DUP2 SWAP4 PUSH4 0x69009A13 PUSH1 0xE0 SHL DUP4 MSTORE DUP9 PUSH1 0x4 DUP5 ADD MSTORE GAS CALL SWAP1 DUP2 ISZERO PUSH2 0xA46 JUMPI DUP6 SWAP2 PUSH2 0xA2D JUMPI JUMPDEST POP POP PUSH1 0x40 MLOAD DUP3 DUP2 MSTORE TIMESTAMP PUSH1 0x20 DUP3 ADD MSTORE PUSH32 0xAC5B35DB873B0C878683CBEAC0FC736ACD48EA6480742BAFD3BA483DD7158824 PUSH1 0x40 CALLER SWAP3 LOG2 SWAP4 SWAP3 SWAP4 PUSH2 0x678 JUMP JUMPDEST DUP2 PUSH2 0xA37 SWAP2 PUSH2 0x1CB3 JUMP JUMPDEST PUSH2 0xA42 JUMPI DUP4 CODESIZE PUSH2 0x9F1 JUMP JUMPDEST DUP4 DUP1 REVERT JUMPDEST PUSH1 0x40 MLOAD RETURNDATASIZE DUP8 DUP3 RETURNDATACOPY RETURNDATASIZE SWAP1 REVERT JUMPDEST DUP5 DUP1 REVERT JUMPDEST PUSH4 0x5274AFE7 PUSH1 0xE0 SHL DUP6 MSTORE PUSH1 0x4 DUP7 SWAP1 MSTORE PUSH1 0x24 DUP6 REVERT JUMPDEST PUSH1 0x1 EQ ISZERO PUSH2 0x9A6 JUMP JUMPDEST PUSH1 0x40 MLOAD RETURNDATASIZE DUP7 DUP3 RETURNDATACOPY RETURNDATASIZE SWAP1 REVERT JUMPDEST PUSH1 0x40 MLOAD PUSH3 0x461BCD PUSH1 0xE5 SHL DUP2 MSTORE PUSH1 0x20 PUSH1 0x4 DUP3 ADD MSTORE PUSH1 0x2B PUSH1 0x24 DUP3 ADD MSTORE PUSH32 0x496E73756666696369656E74205553445420616C6C6F77616E636520666F7220 PUSH1 0x44 DUP3 ADD MSTORE PUSH11 0x686F7374696E6720666565 PUSH1 0xA8 SHL PUSH1 0x64 DUP3 ADD MSTORE PUSH1 0x84 SWAP1 REVERT JUMPDEST SWAP2 POP POP PUSH1 0x20 DUP2 RETURNDATASIZE PUSH1 0x20 GT PUSH2 0xB03 JUMPI JUMPDEST DUP2 PUSH2 0xAF2 PUSH1 0x20 SWAP4 DUP4 PUSH2 0x1CB3 JUMP JUMPDEST DUP2 ADD SUB SLT PUSH2 0x42F JUMPI DUP4 SWAP1 MLOAD CODESIZE PUSH2 0x949 JUMP JUMPDEST RETURNDATASIZE SWAP2 POP PUSH2 0xAE5 JUMP JUMPDEST PUSH1 0x40 MLOAD RETURNDATASIZE DUP10 DUP3 RETURNDATACOPY RETURNDATASIZE SWAP1 REVERT JUMPDEST PUSH1 0x40 MLOAD PUSH3 0x461BCD PUSH1 0xE5 SHL DUP2 MSTORE PUSH1 0x20 PUSH1 0x4 DUP3 ADD MSTORE PUSH1 0x29 PUSH1 0x24 DUP3 ADD MSTORE PUSH32 0x496E73756666696369656E7420555344542062616C616E636520666F7220686F PUSH1 0x44 DUP3 ADD MSTORE PUSH9 0x7374696E6720666565 PUSH1 0xB8 SHL PUSH1 0x64 DUP3 ADD MSTORE PUSH1 0x84 SWAP1 REVERT JUMPDEST SWAP2 POP POP PUSH1 0x20 DUP2 RETURNDATASIZE PUSH1 0x20 GT PUSH2 0xB9A JUMPI JUMPDEST DUP2 PUSH2 0xB89 PUSH1 0x20 SWAP4 DUP4 PUSH2 0x1CB3 JUMP JUMPDEST DUP2 ADD SUB SLT PUSH2 0x42F JUMPI DUP4 SWAP1 MLOAD CODESIZE PUSH2 0x910 JUMP JUMPDEST RETURNDATASIZE SWAP2 POP PUSH2 0xB7C JUMP JUMPDEST POP PUSH1 0x1 PUSH1 0x1 PUSH1 0xA0 SHL SUB DUP7 AND ISZERO ISZERO PUSH2 0x673 JUMP JUMPDEST SWAP1 SWAP6 POP PUSH1 0x20 DUP2 RETURNDATASIZE PUSH1 0x20 GT PUSH2 0xBE8 JUMPI JUMPDEST DUP2 PUSH2 0xBD0 PUSH1 0x20 SWAP4 DUP4 PUSH2 0x1CB3 JUMP JUMPDEST DUP2 ADD SUB SLT PUSH2 0xA51 JUMPI PUSH2 0xBE1 SWAP1 PUSH2 0x1D09 JUMP JUMPDEST SWAP5 CODESIZE PUSH2 0x669 JUMP JUMPDEST RETURNDATASIZE SWAP2 POP PUSH2 0xBC3 JUMP JUMPDEST SWAP6 SWAP2 POP PUSH1 0x20 DUP7 RETURNDATASIZE PUSH1 0x20 GT PUSH2 0xC1F JUMPI JUMPDEST DUP2 PUSH2 0xC0C PUSH1 0x20 SWAP4 DUP4 PUSH2 0x1CB3 JUMP JUMPDEST DUP2 ADD SUB SLT PUSH2 0x42F JUMPI SWAP5 MLOAD SWAP1 SWAP5 PUSH1 0x20 PUSH2 0x642 JUMP JUMPDEST RETURNDATASIZE SWAP2 POP PUSH2 0xBFF JUMP JUMPDEST PUSH1 0x40 MLOAD PUSH3 0x461BCD PUSH1 0xE5 SHL DUP2 MSTORE PUSH1 0x20 PUSH1 0x4 DUP3 ADD MSTORE PUSH1 0x1A PUSH1 0x24 DUP3 ADD MSTORE PUSH32 0x496E76616C6964204D6F6E676F446174614944206C656E677468000000000000 PUSH1 0x44 DUP3 ADD MSTORE PUSH1 0x64 SWAP1 REVERT JUMPDEST PUSH1 0xC8 SWAP2 POP GT ISZERO CODESIZE PUSH2 0x609 JUMP JUMPDEST POP PUSH4 0x2FAF080 DUP3 GT ISZERO PUSH2 0x5F4 JUMP JUMPDEST PUSH1 0x40 MLOAD PUSH3 0x461BCD PUSH1 0xE5 SHL DUP2 MSTORE PUSH1 0x20 PUSH1 0x4 DUP3 ADD MSTORE PUSH1 0x1C PUSH1 0x24 DUP3 ADD MSTORE PUSH32 0x526567697374726174696F6E20636F6F6C646F776E2061637469766500000000 PUSH1 0x44 DUP3 ADD MSTORE PUSH1 0x64 SWAP1 REVERT JUMPDEST PUSH4 0x4E487B71 PUSH1 0xE0 SHL DUP5 MSTORE PUSH1 0x11 PUSH1 0x4 MSTORE PUSH1 0x24 DUP5 REVERT JUMPDEST POP CALLVALUE PUSH2 0x222 JUMPI DUP1 PUSH1 0x3 NOT CALLDATASIZE ADD SLT PUSH2 0x222 JUMPI SLOAD PUSH1 0x40 MLOAD PUSH1 0x1 PUSH1 0x1 PUSH1 0xA0 SHL SUB SWAP1 SWAP2 AND DUP2 MSTORE PUSH1 0x20 SWAP1 RETURN JUMPDEST POP CALLVALUE PUSH2 0x222 JUMPI DUP1 PUSH1 0x3 NOT CALLDATASIZE ADD SLT PUSH2 0x222 JUMPI PUSH1 0x3 SLOAD PUSH1 0x40 MLOAD PUSH4 0x75F3FED5 PUSH1 0xE1 SHL DUP2 MSTORE SWAP2 SWAP1 PUSH1 0x20 SWAP1 DUP4 SWAP1 PUSH1 0x4 SWAP1 DUP3 SWAP1 PUSH1 0x1 PUSH1 0x1 PUSH1 0xA0 SHL SUB AND GAS STATICCALL SWAP1 DUP2 ISZERO PUSH2 0x3A8 JUMPI SWAP1 PUSH2 0x404 JUMPI PUSH1 0x20 SWAP1 PUSH1 0x40 MLOAD SWAP1 DUP2 MSTORE RETURN JUMPDEST POP CALLVALUE PUSH2 0x222 JUMPI DUP1 PUSH1 0x3 NOT CALLDATASIZE ADD SLT PUSH2 0x222 JUMPI PUSH2 0xD6E PUSH2 0x2026 JUMP JUMPDEST PUSH2 0xD76 PUSH2 0x1FE4 JUMP JUMPDEST DUP1 SLOAD PUSH1 0xFF PUSH1 0xA0 SHL NOT AND PUSH1 0x1 PUSH1 0xA0 SHL OR DUP2 SSTORE PUSH1 0x40 MLOAD CALLER DUP2 MSTORE PUSH32 0x62E78CEA01BEE320CD4E420270B5EA74000D11B0C9F74754EBDBFC544B05A258 SWAP1 PUSH1 0x20 SWAP1 LOG1 DUP1 RETURN JUMPDEST POP CALLVALUE PUSH2 0x222 JUMPI PUSH1 0x20 CALLDATASIZE PUSH1 0x3 NOT ADD SLT PUSH2 0x222 JUMPI PUSH1 0x4 CALLDATALOAD PUSH1 0x1 PUSH1 0x1 PUSH1 0xA0 SHL SUB DUP2 AND SWAP1 DUP2 SWAP1 SUB PUSH2 0x2AF JUMPI DUP2 PUSH1 0x40 SWAP2 PUSH1 0x20 SWAP4 MSTORE PUSH1 0x8 DUP4 MSTORE KECCAK256 SLOAD PUSH1 0x40 MLOAD SWAP1 DUP2 MSTORE RETURN JUMPDEST POP CALLVALUE PUSH2 0x222 JUMPI PUSH1 0x20 CALLDATASIZE PUSH1 0x3 NOT ADD SLT PUSH2 0x222 JUMPI PUSH1 0x4 CALLDATALOAD PUSH1 0x1 PUSH1 0x1 PUSH1 0xA0 SHL SUB DUP2 AND SWAP1 DUP2 SWAP1 SUB PUSH2 0x2AF JUMPI DUP2 MSTORE PUSH1 0x6 PUSH1 0x20 MSTORE PUSH1 0x40 DUP2 KECCAK256 PUSH1 0x40 MLOAD SWAP1 DUP2 PUSH1 0x20 DUP3 SLOAD SWAP2 DUP3 DUP2 MSTORE ADD SWAP1 DUP2 SWAP3 DUP6 MSTORE PUSH1 0x20 DUP6 KECCAK256 SWAP1 DUP6 JUMPDEST DUP2 DUP2 LT PUSH2 0xE96 JUMPI POP POP POP DUP3 PUSH2 0xE55 SWAP2 SUB DUP4 PUSH2 0x1CB3 JUMP JUMPDEST PUSH1 0x40 MLOAD SWAP3 DUP4 SWAP3 PUSH1 0x20 DUP5 ADD SWAP1 PUSH1 0x20 DUP6 MSTORE MLOAD DUP1 SWAP2 MSTORE PUSH1 0x40 DUP5 ADD SWAP3 SWAP2 JUMPDEST DUP2 DUP2 LT PUSH2 0xE7D JUMPI POP POP POP SUB SWAP1 RETURN JUMPDEST DUP3 MLOAD DUP5 MSTORE DUP6 SWAP5 POP PUSH1 0x20 SWAP4 DUP5 ADD SWAP4 SWAP1 SWAP3 ADD SWAP2 PUSH1 0x1 ADD PUSH2 0xE6F JUMP JUMPDEST DUP3 SLOAD DUP5 MSTORE PUSH1 0x20 SWAP1 SWAP4 ADD SWAP3 PUSH1 0x1 SWAP3 DUP4 ADD SWAP3 ADD PUSH2 0xE3F JUMP JUMPDEST POP CALLVALUE PUSH2 0x222 JUMPI PUSH1 0x20 CALLDATASIZE PUSH1 0x3 NOT ADD SLT PUSH2 0x222 JUMPI PUSH1 0x4 CALLDATALOAD PUSH1 0x1 PUSH1 0x1 PUSH1 0xA0 SHL SUB DUP2 AND SWAP1 DUP2 SWAP1 SUB PUSH2 0x2AF JUMPI DUP2 DUP2 DUP4 MSTORE PUSH1 0x6 PUSH1 0x20 MSTORE PUSH1 0x40 DUP4 KECCAK256 SLOAD PUSH1 0x1 DUP1 PUSH1 0xA0 SHL SUB PUSH1 0x2 SLOAD AND SWAP1 PUSH1 0x40 MLOAD SWAP4 PUSH4 0x6D65573F PUSH1 0xE0 SHL DUP6 MSTORE DUP1 PUSH1 0x4 DUP7 ADD MSTORE PUSH1 0x20 DUP6 PUSH1 0x24 DUP2 DUP7 GAS STATICCALL SWAP5 DUP6 ISZERO PUSH2 0x8C7 JUMPI DUP7 SWAP6 PUSH2 0x100D JUMPI JUMPDEST POP DUP6 MSTORE PUSH1 0x6 PUSH1 0x20 MSTORE PUSH1 0x40 DUP6 KECCAK256 SWAP1 PUSH1 0x40 MLOAD DUP1 DUP4 PUSH1 0x20 DUP3 SWAP6 SLOAD SWAP4 DUP5 DUP2 MSTORE ADD SWAP1 DUP10 MSTORE PUSH1 0x20 DUP10 KECCAK256 SWAP3 DUP10 JUMPDEST DUP2 DUP2 LT PUSH2 0xFF4 JUMPI POP POP PUSH2 0xF53 SWAP3 POP SUB DUP4 PUSH2 0x1CB3 JUMP JUMPDEST DUP6 JUMPDEST DUP3 MLOAD DUP2 LT ISZERO PUSH2 0xFDD JUMPI PUSH2 0xF68 DUP2 DUP5 PUSH2 0x1E82 JUMP JUMPDEST MLOAD PUSH1 0x40 MLOAD SWAP1 PUSH4 0x95EA5717 PUSH1 0xE0 SHL DUP3 MSTORE PUSH1 0x4 DUP3 ADD MSTORE DUP8 DUP2 PUSH1 0x24 DUP2 DUP9 GAS STATICCALL DUP1 ISZERO PUSH2 0xFD2 JUMPI PUSH1 0x80 SWAP2 DUP10 SWAP2 PUSH2 0xFB8 JUMPI JUMPDEST POP ADD MLOAD PUSH2 0xFA4 JUMPI JUMPDEST PUSH1 0x1 ADD PUSH2 0xF55 JUMP JUMPDEST SWAP4 PUSH2 0xFB0 PUSH1 0x1 SWAP2 PUSH2 0x1EAC JUMP JUMPDEST SWAP5 SWAP1 POP PUSH2 0xF9C JUMP JUMPDEST PUSH2 0xFCC SWAP2 POP RETURNDATASIZE DUP1 DUP12 DUP4 RETURNDATACOPY PUSH2 0x4E3 DUP2 DUP4 PUSH2 0x1CB3 JUMP JUMPDEST CODESIZE PUSH2 0xF94 JUMP JUMPDEST PUSH1 0x40 MLOAD RETURNDATASIZE DUP11 DUP3 RETURNDATACOPY RETURNDATASIZE SWAP1 REVERT JUMPDEST PUSH1 0x60 DUP3 DUP8 DUP8 PUSH1 0x40 MLOAD SWAP3 DUP4 MSTORE PUSH1 0x20 DUP4 ADD MSTORE PUSH1 0x40 DUP3 ADD MSTORE RETURN JUMPDEST DUP5 SLOAD DUP4 MSTORE PUSH1 0x1 SWAP5 DUP6 ADD SWAP5 DUP8 SWAP5 POP PUSH1 0x20 SWAP1 SWAP4 ADD SWAP3 ADD PUSH2 0xF3E JUMP JUMPDEST SWAP1 SWAP5 POP PUSH1 0x20 DUP2 RETURNDATASIZE PUSH1 0x20 GT PUSH2 0x1039 JUMPI JUMPDEST DUP2 PUSH2 0x1029 PUSH1 0x20 SWAP4 DUP4 PUSH2 0x1CB3 JUMP JUMPDEST DUP2 ADD SUB SLT PUSH2 0x42F JUMPI MLOAD SWAP4 CODESIZE PUSH2 0xF18 JUMP JUMPDEST RETURNDATASIZE SWAP2 POP PUSH2 0x101C JUMP JUMPDEST POP CALLVALUE PUSH2 0x222 JUMPI DUP1 PUSH1 0x3 NOT CALLDATASIZE ADD SLT PUSH2 0x222 JUMPI PUSH2 0x105A PUSH2 0x2026 JUMP JUMPDEST DUP1 SLOAD PUSH1 0x1 PUSH1 0x1 PUSH1 0xA0 SHL SUB NOT DUP2 AND DUP3 SSTORE DUP2 SWAP1 PUSH1 0x1 PUSH1 0x1 PUSH1 0xA0 SHL SUB AND PUSH32 0x8BE0079C531659141344CD1FD0A4F28419497F9722A3DAAFE3B4186F6B6457E0 DUP3 DUP1 LOG3 DUP1 RETURN JUMPDEST POP CALLVALUE PUSH2 0x222 JUMPI PUSH1 0x20 CALLDATASIZE PUSH1 0x3 NOT ADD SLT PUSH2 0x222 JUMPI PUSH1 0x4 CALLDATALOAD PUSH1 0x1 PUSH1 0x1 PUSH1 0xA0 SHL SUB DUP2 AND SWAP1 DUP2 SWAP1 SUB PUSH2 0x2AF JUMPI PUSH2 0x10CA PUSH2 0x2026 JUMP JUMPDEST DUP1 ISZERO PUSH2 0x10E6 JUMPI PUSH1 0x1 PUSH1 0x1 PUSH1 0x60 SHL SUB PUSH1 0xA0 SHL PUSH1 0x3 SLOAD AND OR PUSH1 0x3 SSTORE DUP1 RETURN JUMPDEST PUSH1 0x40 MLOAD PUSH3 0x461BCD PUSH1 0xE5 SHL DUP2 MSTORE PUSH1 0x20 PUSH1 0x4 DUP3 ADD MSTORE PUSH1 0x16 PUSH1 0x24 DUP3 ADD MSTORE PUSH22 0x125B9D985B1A590818591B5A5B8818DBDB9D1C9858DD PUSH1 0x52 SHL PUSH1 0x44 DUP3 ADD MSTORE PUSH1 0x64 SWAP1 REVERT JUMPDEST POP CALLVALUE PUSH2 0x222 JUMPI DUP1 PUSH1 0x3 NOT CALLDATASIZE ADD SLT PUSH2 0x222 JUMPI PUSH1 0xFF PUSH1 0x20 SWAP2 SLOAD PUSH1 0xA0 SHR AND PUSH1 0x40 MLOAD SWAP1 ISZERO ISZERO DUP2 MSTORE RETURN JUMPDEST POP CALLVALUE PUSH2 0x222 JUMPI PUSH1 0x20 CALLDATASIZE PUSH1 0x3 NOT ADD SLT PUSH2 0x222 JUMPI PUSH1 0x4 CALLDATALOAD PUSH1 0x1 PUSH1 0x1 PUSH1 0xA0 SHL SUB DUP2 AND SWAP1 DUP2 SWAP1 SUB PUSH2 0x2AF JUMPI PUSH2 0x1178 PUSH2 0x2026 JUMP JUMPDEST DUP1 ISZERO PUSH2 0x1194 JUMPI PUSH1 0x1 PUSH1 0x1 PUSH1 0x60 SHL SUB PUSH1 0xA0 SHL PUSH1 0x4 SLOAD AND OR PUSH1 0x4 SSTORE DUP1 RETURN JUMPDEST PUSH1 0x40 MLOAD PUSH3 0x461BCD PUSH1 0xE5 SHL DUP2 MSTORE PUSH1 0x20 PUSH1 0x4 DUP3 ADD MSTORE PUSH1 0x15 PUSH1 0x24 DUP3 ADD MSTORE PUSH21 0x125B9D985B1A59081554D1150818DBDB9D1C9858DD PUSH1 0x5A SHL PUSH1 0x44 DUP3 ADD MSTORE PUSH1 0x64 SWAP1 REVERT JUMPDEST POP CALLVALUE PUSH2 0x222 JUMPI PUSH1 0x20 CALLDATASIZE PUSH1 0x3 NOT ADD SLT PUSH2 0x222 JUMPI PUSH1 0x4 CALLDATALOAD PUSH2 0x11EE PUSH2 0x1FE4 JUMP JUMPDEST PUSH1 0x2 SLOAD PUSH1 0x40 MLOAD PUSH4 0x95EA5717 PUSH1 0xE0 SHL DUP2 MSTORE PUSH1 0x4 DUP2 ADD DUP4 SWAP1 MSTORE SWAP1 DUP4 SWAP1 DUP3 SWAP1 PUSH1 0x24 SWAP1 DUP3 SWAP1 PUSH1 0x1 PUSH1 0x1 PUSH1 0xA0 SHL SUB AND GAS STATICCALL SWAP1 DUP2 ISZERO PUSH2 0x1536 JUMPI DUP4 SWAP2 PUSH2 0x151C JUMPI JUMPDEST POP PUSH1 0x20 DUP2 ADD MLOAD PUSH1 0x1 PUSH1 0x1 PUSH1 0xA0 SHL SUB AND CALLER SUB PUSH2 0x14D7 JUMPI PUSH1 0x80 DUP2 ADD MLOAD ISZERO PUSH2 0x1492 JUMPI PUSH1 0x40 SWAP1 DUP2 ADD MLOAD PUSH1 0x2 SLOAD SWAP2 MLOAD PUSH4 0x95EA5717 PUSH1 0xE0 SHL DUP2 MSTORE PUSH1 0x4 DUP2 ADD DUP5 SWAP1 MSTORE SWAP1 SWAP3 SWAP2 PUSH1 0x1 PUSH1 0x1 PUSH1 0xA0 SHL SUB AND DUP5 DUP3 PUSH1 0x24 DUP2 DUP5 GAS STATICCALL SWAP2 DUP3 ISZERO PUSH2 0xA46 JUMPI DUP6 SWAP3 PUSH2 0x1476 JUMPI JUMPDEST POP PUSH1 0x20 DUP3 ADD MLOAD CALLER PUSH1 0x1 PUSH1 0x1 PUSH1 0xA0 SHL SUB SWAP1 SWAP2 AND SUB PUSH2 0x143A JUMPI PUSH2 0x2710 DUP5 LT ISZERO DUP1 PUSH2 0x142C JUMPI JUMPDEST PUSH2 0x12B1 SWAP1 PUSH2 0x1F81 JUMP JUMPDEST DUP5 PUSH1 0x40 DUP4 ADD MLOAD SWAP3 PUSH1 0x80 DUP2 ADD MLOAD ISZERO ISZERO SWAP1 PUSH1 0x60 DUP2 ADD SWAP4 PUSH1 0xA0 DUP6 MLOAD SWAP3 ADD MLOAD PUSH1 0x40 MLOAD SWAP3 PUSH2 0x12D9 DUP5 PUSH2 0x1C81 JUMP JUMPDEST DUP9 DUP5 MSTORE CALLER PUSH1 0x20 DUP6 ADD MSTORE DUP10 PUSH1 0x40 DUP6 ADD MSTORE PUSH1 0x60 DUP5 ADD MSTORE DUP5 PUSH1 0x80 DUP5 ADD MSTORE PUSH1 0xA0 DUP4 ADD MSTORE TIMESTAMP PUSH1 0xC0 DUP4 ADD MSTORE DUP1 EXTCODESIZE ISZERO PUSH2 0xA42 JUMPI PUSH2 0x132A DUP5 SWAP3 SWAP2 DUP4 SWAP3 PUSH1 0x40 MLOAD SWAP7 DUP8 DUP1 SWAP5 DUP2 SWAP4 PUSH4 0x14303507 PUSH1 0xE2 SHL DUP4 MSTORE DUP14 PUSH1 0x4 DUP5 ADD PUSH2 0x1FCD JUMP JUMPDEST SUB SWAP3 GAS CALL SWAP3 DUP4 ISZERO PUSH2 0x215 JUMPI DUP7 SWAP4 PUSH2 0x140F JUMPI JUMPDEST POP POP SWAP1 DUP2 PUSH2 0x1391 SWAP4 SWAP3 DUP3 DUP7 DUP10 PUSH32 0x54505B9E522263D538ACC1F6DE9658C2AE4FD39B8771F562481C2D375D1C1F2D SWAP9 SUB PUSH2 0x13D8 JUMPI JUMPDEST POP POP PUSH2 0x13A1 JUMPI JUMPDEST POP POP MLOAD PUSH1 0x40 MLOAD SWAP5 DUP6 MSTORE PUSH1 0x60 PUSH1 0x20 DUP7 ADD MSTORE PUSH1 0x60 DUP6 ADD SWAP1 PUSH2 0x1B98 JUMP JUMPDEST SWAP3 DUP5 PUSH1 0x40 DUP3 ADD MSTORE DUP1 CALLER SWAP5 SUB SWAP1 LOG3 DUP1 RETURN JUMPDEST PUSH1 0x40 PUSH32 0xB061566845B6680F66461FBE29235493F3AA355419D464D868114A32E0E7AE7B SWAP2 DUP2 MLOAD SWAP1 DUP2 MSTORE DUP10 PUSH1 0x20 DUP3 ADD MSTORE LOG2 DUP4 CODESIZE PUSH2 0x1377 JUMP JUMPDEST PUSH1 0x40 PUSH32 0x7D20E42FBC3910F3E2536C15BFB3D2DEEC361F7B0534C071570AF6608429F01 SWAP2 DUP2 MLOAD SWAP1 DUP2 MSTORE DUP12 PUSH1 0x20 DUP3 ADD MSTORE LOG2 DUP3 CODESIZE PUSH2 0x1370 JUMP JUMPDEST DUP2 SWAP3 SWAP5 SWAP4 POP SWAP1 PUSH2 0x141E SWAP2 PUSH2 0x1CB3 JUMP JUMPDEST PUSH2 0x88B JUMPI SWAP1 DUP4 SWAP1 DUP7 CODESIZE PUSH2 0x133C JUMP JUMPDEST POP PUSH4 0x2FAF080 DUP5 GT ISZERO PUSH2 0x12A8 JUMP JUMPDEST PUSH1 0x40 MLOAD PUSH3 0x461BCD PUSH1 0xE5 SHL DUP2 MSTORE PUSH1 0x20 PUSH1 0x4 DUP3 ADD MSTORE PUSH1 0x14 PUSH1 0x24 DUP3 ADD MSTORE PUSH20 0x4F6E6C7920686F73742063616E20757064617465 PUSH1 0x60 SHL PUSH1 0x44 DUP3 ADD MSTORE PUSH1 0x64 SWAP1 REVERT JUMPDEST PUSH2 0x148B SWAP2 SWAP3 POP RETURNDATASIZE DUP1 DUP8 DUP4 RETURNDATACOPY PUSH2 0x4E3 DUP2 DUP4 PUSH2 0x1CB3 JUMP JUMPDEST SWAP1 CODESIZE PUSH2 0x1285 JUMP JUMPDEST PUSH1 0x40 MLOAD PUSH3 0x461BCD PUSH1 0xE5 SHL DUP2 MSTORE PUSH1 0x20 PUSH1 0x4 DUP3 ADD MSTORE PUSH1 0x18 PUSH1 0x24 DUP3 ADD MSTORE PUSH32 0x4E6574776F726B20616C726561647920696E6163746976650000000000000000 PUSH1 0x44 DUP3 ADD MSTORE PUSH1 0x64 SWAP1 REVERT JUMPDEST PUSH1 0x40 MLOAD PUSH3 0x461BCD PUSH1 0xE5 SHL DUP2 MSTORE PUSH1 0x20 PUSH1 0x4 DUP3 ADD MSTORE PUSH1 0x18 PUSH1 0x24 DUP3 ADD MSTORE PUSH32 0x4F6E6C7920686F73742063616E20646561637469766174650000000000000000 PUSH1 0x44 DUP3 ADD MSTORE PUSH1 0x64 SWAP1 REVERT JUMPDEST PUSH2 0x1530 SWAP2 POP RETURNDATASIZE DUP1 DUP6 DUP4 RETURNDATACOPY PUSH2 0x4E3 DUP2 DUP4 PUSH2 0x1CB3 JUMP JUMPDEST CODESIZE PUSH2 0x1228 JUMP JUMPDEST PUSH1 0x40 MLOAD RETURNDATASIZE DUP6 DUP3 RETURNDATACOPY RETURNDATASIZE SWAP1 REVERT JUMPDEST POP CALLVALUE PUSH2 0x222 JUMPI PUSH1 0x20 CALLDATASIZE PUSH1 0x3 NOT ADD SLT PUSH2 0x222 JUMPI PUSH1 0x20 SWAP1 PUSH1 0x4 CALLDATALOAD DUP2 MSTORE PUSH1 0x7 DUP3 MSTORE PUSH1 0x40 PUSH1 0x1 DUP1 PUSH1 0xA0 SHL SUB SWAP2 KECCAK256 SLOAD AND PUSH1 0x40 MLOAD SWAP1 DUP2 MSTORE RETURN JUMPDEST POP CALLVALUE PUSH2 0x222 JUMPI DUP1 PUSH1 0x3 NOT CALLDATASIZE ADD SLT PUSH2 0x222 JUMPI PUSH2 0x158D PUSH2 0x2026 JUMP JUMPDEST DUP1 SLOAD PUSH1 0xFF DUP2 PUSH1 0xA0 SHR AND ISZERO PUSH2 0x15D3 JUMPI PUSH1 0xFF PUSH1 0xA0 SHL NOT AND DUP2 SSTORE PUSH1 0x40 MLOAD CALLER DUP2 MSTORE PUSH32 0x5DB9EE0A495BF2E6FF9C91A7834C1BA4FDD244A5E8AA4E537BD38AEAE4B073AA SWAP1 PUSH1 0x20 SWAP1 LOG1 DUP1 RETURN JUMPDEST PUSH4 0x8DFC202B PUSH1 0xE0 SHL DUP3 MSTORE PUSH1 0x4 DUP3 REVERT JUMPDEST POP CALLVALUE PUSH2 0x222 JUMPI DUP1 PUSH1 0x3 NOT CALLDATASIZE ADD SLT PUSH2 0x222 JUMPI PUSH1 0x4 SLOAD PUSH1 0x40 MLOAD PUSH1 0x1 PUSH1 0x1 PUSH1 0xA0 SHL SUB SWAP1 SWAP2 AND DUP2 MSTORE PUSH1 0x20 SWAP1 RETURN JUMPDEST POP CALLVALUE PUSH2 0x222 JUMPI PUSH1 0x20 CALLDATASIZE PUSH1 0x3 NOT ADD SLT PUSH2 0x222 JUMPI PUSH1 0x4 CALLDATALOAD PUSH1 0x1 PUSH1 0x1 PUSH1 0xA0 SHL SUB DUP2 AND SWAP1 DUP2 SWAP1 SUB PUSH2 0x2AF JUMPI DUP2 MSTORE PUSH1 0x6 PUSH1 0x20 MSTORE PUSH1 0x40 DUP2 KECCAK256 PUSH1 0x40 MLOAD DUP1 DUP3 PUSH1 0x20 DUP3 SWAP5 SLOAD SWAP4 DUP5 DUP2 MSTORE ADD SWAP1 DUP6 MSTORE PUSH1 0x20 DUP6 KECCAK256 SWAP3 DUP6 JUMPDEST DUP2 DUP2 LT PUSH2 0x17B4 JUMPI POP POP PUSH2 0x166B SWAP3 POP SUB DUP3 PUSH2 0x1CB3 JUMP JUMPDEST PUSH1 0x2 SLOAD DUP3 SWAP1 PUSH1 0x1 PUSH1 0x1 PUSH1 0xA0 SHL SUB AND DUP2 DUP1 JUMPDEST DUP5 MLOAD DUP2 LT ISZERO PUSH2 0x16F9 JUMPI PUSH2 0x168F DUP2 DUP7 PUSH2 0x1E82 JUMP JUMPDEST MLOAD PUSH1 0x40 MLOAD SWAP1 PUSH4 0x95EA5717 PUSH1 0xE0 SHL DUP3 MSTORE PUSH1 0x4 DUP3 ADD MSTORE DUP3 DUP2 PUSH1 0x24 DUP2 DUP8 GAS STATICCALL DUP1 ISZERO PUSH2 0x1536 JUMPI PUSH1 0x80 SWAP2 DUP5 SWAP2 PUSH2 0x16DF JUMPI JUMPDEST POP ADD MLOAD PUSH2 0x16CB JUMPI JUMPDEST PUSH1 0x1 ADD PUSH2 0x167C JUMP JUMPDEST SWAP3 PUSH2 0x16D7 PUSH1 0x1 SWAP2 PUSH2 0x1EAC JUMP JUMPDEST SWAP4 SWAP1 POP PUSH2 0x16C3 JUMP JUMPDEST PUSH2 0x16F3 SWAP2 POP RETURNDATASIZE DUP1 DUP7 DUP4 RETURNDATACOPY PUSH2 0x4E3 DUP2 DUP4 PUSH2 0x1CB3 JUMP JUMPDEST CODESIZE PUSH2 0x16BB JUMP JUMPDEST POP POP SWAP1 PUSH2 0x1705 SWAP1 PUSH2 0x1F08 JUMP JUMPDEST DUP4 SWAP1 DUP5 JUMPDEST DUP5 MLOAD DUP2 LT ISZERO PUSH2 0x179E JUMPI PUSH2 0x171C DUP2 DUP7 PUSH2 0x1E82 JUMP JUMPDEST MLOAD PUSH1 0x40 MLOAD SWAP1 PUSH4 0x95EA5717 PUSH1 0xE0 SHL DUP3 MSTORE PUSH1 0x4 DUP3 ADD MSTORE DUP7 DUP2 PUSH1 0x24 DUP2 DUP9 GAS STATICCALL SWAP1 DUP2 ISZERO PUSH2 0xB0B JUMPI DUP8 SWAP2 PUSH2 0x1784 JUMPI JUMPDEST POP PUSH1 0x80 DUP2 ADD MLOAD PUSH2 0x175A JUMPI JUMPDEST POP PUSH1 0x1 ADD PUSH2 0x1709 JUMP JUMPDEST DUP4 PUSH2 0x177D SWAP2 PUSH2 0x176C PUSH1 0x1 SWAP5 SWAP7 DUP7 PUSH2 0x1E82 JUMP JUMPDEST MSTORE PUSH2 0x1777 DUP2 DUP6 PUSH2 0x1E82 JUMP JUMPDEST POP PUSH2 0x1EAC JUMP JUMPDEST SWAP3 SWAP1 PUSH2 0x1751 JUMP JUMPDEST PUSH2 0x1798 SWAP2 POP RETURNDATASIZE DUP1 DUP10 DUP4 RETURNDATACOPY PUSH2 0x4E3 DUP2 DUP4 PUSH2 0x1CB3 JUMP JUMPDEST CODESIZE PUSH2 0x1746 JUMP JUMPDEST PUSH1 0x40 MLOAD PUSH1 0x20 DUP1 DUP3 MSTORE DUP2 SWAP1 PUSH2 0x4CB SWAP1 DUP3 ADD DUP6 PUSH2 0x1C19 JUMP JUMPDEST DUP5 SLOAD DUP4 MSTORE PUSH1 0x1 SWAP5 DUP6 ADD SWAP5 DUP7 SWAP5 POP PUSH1 0x20 SWAP1 SWAP4 ADD SWAP3 ADD PUSH2 0x1656 JUMP JUMPDEST POP CALLVALUE PUSH2 0x222 JUMPI PUSH1 0x60 CALLDATASIZE PUSH1 0x3 NOT ADD SLT PUSH2 0x222 JUMPI PUSH1 0x24 CALLDATALOAD PUSH1 0x4 CALLDATALOAD PUSH2 0x17ED PUSH2 0x1C72 JUMP JUMPDEST SWAP2 PUSH2 0x17F6 PUSH2 0x1FE4 JUMP JUMPDEST PUSH2 0x17FE PUSH2 0x2004 JUMP JUMPDEST PUSH1 0x2 SLOAD PUSH1 0x40 MLOAD PUSH4 0x95EA5717 PUSH1 0xE0 SHL DUP2 MSTORE PUSH1 0x4 DUP2 ADD DUP5 SWAP1 MSTORE SWAP1 PUSH1 0x1 PUSH1 0x1 PUSH1 0xA0 SHL SUB AND DUP6 DUP3 PUSH1 0x24 DUP2 DUP5 GAS STATICCALL SWAP2 DUP3 ISZERO PUSH2 0x8C7 JUMPI DUP7 SWAP3 PUSH2 0x1A12 JUMPI JUMPDEST POP PUSH1 0x20 DUP3 ADD MLOAD CALLER PUSH1 0x1 PUSH1 0x1 PUSH1 0xA0 SHL SUB SWAP1 SWAP2 AND SUB PUSH2 0x143A JUMPI PUSH2 0x2710 DUP4 LT ISZERO DUP1 PUSH2 0x1A04 JUMPI JUMPDEST PUSH2 0x1861 SWAP1 PUSH2 0x1F81 JUMP JUMPDEST PUSH1 0x40 DUP3 ADD MLOAD DUP7 PUSH1 0x80 DUP5 ADD MLOAD ISZERO ISZERO SWAP3 PUSH1 0x60 DUP6 ADD SWAP5 PUSH1 0xA0 DUP7 MLOAD SWAP2 ADD MLOAD SWAP9 PUSH1 0x40 MLOAD SWAP2 PUSH2 0x1889 DUP4 PUSH2 0x1C81 JUMP JUMPDEST DUP10 DUP4 MSTORE CALLER PUSH1 0x20 DUP5 ADD MSTORE DUP9 PUSH1 0x40 DUP5 ADD MSTORE PUSH1 0x60 DUP4 ADD MSTORE ISZERO ISZERO SWAP9 DUP10 PUSH1 0x80 DUP4 ADD MSTORE PUSH1 0xA0 DUP3 ADD MSTORE TIMESTAMP PUSH1 0xC0 DUP3 ADD MSTORE DUP2 EXTCODESIZE ISZERO PUSH2 0x88F JUMPI DUP3 SWAP2 PUSH2 0x18DB SWAP2 PUSH1 0x40 MLOAD SWAP5 DUP6 DUP1 SWAP5 DUP2 SWAP4 PUSH4 0x14303507 PUSH1 0xE2 SHL DUP4 MSTORE DUP14 PUSH1 0x4 DUP5 ADD PUSH2 0x1FCD JUMP JUMPDEST SUB SWAP3 GAS CALL DUP1 ISZERO PUSH2 0xFD2 JUMPI PUSH2 0x19C2 JUMPI JUMPDEST POP SWAP2 DUP5 PUSH2 0x1941 SWAP3 DUP2 DUP6 DUP8 PUSH32 0x54505B9E522263D538ACC1F6DE9658C2AE4FD39B8771F562481C2D375D1C1F2D SWAP9 SWAP8 SUB PUSH2 0x198B JUMPI JUMPDEST POP POP DUP8 DUP2 SUB PUSH2 0x1954 JUMPI JUMPDEST POP POP MLOAD PUSH1 0x40 MLOAD SWAP3 DUP4 MSTORE PUSH1 0x60 PUSH1 0x20 DUP5 ADD MSTORE PUSH1 0x60 DUP4 ADD SWAP1 PUSH2 0x1B98 JUMP JUMPDEST SWAP4 PUSH1 0x40 DUP3 ADD MSTORE DUP1 CALLER SWAP5 SUB SWAP1 LOG3 PUSH1 0x1 DUP1 SSTORE DUP1 RETURN JUMPDEST PUSH1 0x40 PUSH32 0xB061566845B6680F66461FBE29235493F3AA355419D464D868114A32E0E7AE7B SWAP2 DUP2 MLOAD SWAP1 DUP2 MSTORE DUP10 PUSH1 0x20 DUP3 ADD MSTORE LOG2 DUP5 CODESIZE PUSH2 0x1927 JUMP JUMPDEST PUSH1 0x40 PUSH32 0x7D20E42FBC3910F3E2536C15BFB3D2DEEC361F7B0534C071570AF6608429F01 SWAP2 DUP2 MLOAD SWAP1 DUP2 MSTORE DUP9 PUSH1 0x20 DUP3 ADD MSTORE LOG2 DUP2 CODESIZE PUSH2 0x191D JUMP JUMPDEST PUSH2 0x1941 SWAP3 DUP7 DUP10 PUSH2 0x19F7 PUSH32 0x54505B9E522263D538ACC1F6DE9658C2AE4FD39B8771F562481C2D375D1C1F2D SWAP9 SWAP8 SWAP6 SWAP12 DUP4 SWAP6 PUSH2 0x1CB3 JUMP JUMPDEST SWAP10 SWAP4 SWAP6 SWAP7 POP POP SWAP3 POP PUSH2 0x18EA JUMP JUMPDEST POP PUSH4 0x2FAF080 DUP4 GT ISZERO PUSH2 0x1858 JUMP JUMPDEST PUSH2 0x1A27 SWAP2 SWAP3 POP RETURNDATASIZE DUP1 DUP9 DUP4 RETURNDATACOPY PUSH2 0x4E3 DUP2 DUP4 PUSH2 0x1CB3 JUMP JUMPDEST SWAP1 CODESIZE PUSH2 0x1835 JUMP JUMPDEST POP CALLVALUE PUSH2 0x222 JUMPI DUP1 PUSH1 0x3 NOT CALLDATASIZE ADD SLT PUSH2 0x222 JUMPI PUSH1 0x2 SLOAD PUSH1 0x40 MLOAD PUSH4 0x3EA72069 PUSH1 0xE2 SHL DUP2 MSTORE PUSH1 0x4 DUP2 ADD DUP4 SWAP1 MSTORE PUSH1 0x64 PUSH1 0x24 DUP3 ADD MSTORE SWAP2 SWAP1 DUP2 SWAP1 DUP4 SWAP1 PUSH1 0x44 SWAP1 DUP3 SWAP1 PUSH1 0x1 PUSH1 0x1 PUSH1 0xA0 SHL SUB AND GAS STATICCALL SWAP2 DUP3 ISZERO PUSH2 0x215 JUMPI DUP2 SWAP3 PUSH2 0x1B13 JUMPI JUMPDEST POP DUP1 DUP2 JUMPDEST DUP4 MLOAD DUP2 LT ISZERO PUSH2 0x1ABE JUMPI PUSH1 0x80 PUSH2 0x1A9A DUP3 DUP7 PUSH2 0x1E82 JUMP JUMPDEST MLOAD ADD MLOAD PUSH2 0x1AAA JUMPI JUMPDEST PUSH1 0x1 ADD PUSH2 0x1A85 JUMP JUMPDEST SWAP1 PUSH2 0x1AB6 PUSH1 0x1 SWAP2 PUSH2 0x1EAC JUMP JUMPDEST SWAP2 SWAP1 POP PUSH2 0x1AA2 JUMP JUMPDEST POP PUSH2 0x1AC8 SWAP1 PUSH2 0x1F08 JUMP JUMPDEST DUP2 JUMPDEST DUP4 MLOAD DUP2 LT ISZERO PUSH2 0x179E JUMPI PUSH1 0x80 PUSH2 0x1ADF DUP3 DUP7 PUSH2 0x1E82 JUMP JUMPDEST MLOAD ADD MLOAD PUSH2 0x1AEF JUMPI JUMPDEST PUSH1 0x1 ADD PUSH2 0x1ACA JUMP JUMPDEST SWAP2 PUSH2 0x1B0B PUSH1 0x1 SWAP2 PUSH2 0x1B00 DUP6 DUP8 PUSH2 0x1E82 JUMP JUMPDEST MLOAD PUSH2 0x176C DUP3 DUP7 PUSH2 0x1E82 JUMP JUMPDEST SWAP3 SWAP1 POP PUSH2 0x1AE7 JUMP JUMPDEST PUSH2 0x1B28 SWAP2 SWAP3 POP RETURNDATASIZE DUP1 DUP5 DUP4 RETURNDATACOPY PUSH2 0x206 DUP2 DUP4 PUSH2 0x1CB3 JUMP JUMPDEST POP SWAP1 CODESIZE PUSH2 0x1A81 JUMP JUMPDEST POP CALLVALUE PUSH2 0x222 JUMPI DUP1 PUSH1 0x3 NOT CALLDATASIZE ADD SLT PUSH2 0x222 JUMPI PUSH1 0x2 SLOAD PUSH1 0x40 MLOAD PUSH1 0x1 PUSH1 0x1 PUSH1 0xA0 SHL SUB SWAP1 SWAP2 AND DUP2 MSTORE PUSH1 0x20 SWAP1 RETURN JUMPDEST SWAP1 POP CALLVALUE PUSH2 0x2AF JUMPI DUP2 PUSH1 0x3 NOT CALLDATASIZE ADD SLT PUSH2 0x2AF JUMPI DUP1 PUSH2 0x2710 PUSH1 0x20 SWAP3 MSTORE RETURN JUMPDEST PUSH1 0x0 JUMPDEST DUP4 DUP2 LT PUSH2 0x1B88 JUMPI POP POP PUSH1 0x0 SWAP2 ADD MSTORE JUMP JUMPDEST DUP2 DUP2 ADD MLOAD DUP4 DUP3 ADD MSTORE PUSH1 0x20 ADD PUSH2 0x1B78 JUMP JUMPDEST SWAP1 PUSH1 0x20 SWAP2 PUSH2 0x1BB1 DUP2 MLOAD DUP1 SWAP3 DUP2 DUP6 MSTORE DUP6 DUP1 DUP7 ADD SWAP2 ADD PUSH2 0x1B75 JUMP JUMPDEST PUSH1 0x1F ADD PUSH1 0x1F NOT AND ADD ADD SWAP1 JUMP JUMPDEST SWAP1 DUP2 MLOAD DUP2 MSTORE PUSH1 0x1 DUP1 PUSH1 0xA0 SHL SUB PUSH1 0x20 DUP4 ADD MLOAD AND PUSH1 0x20 DUP3 ADD MSTORE PUSH1 0x40 DUP3 ADD MLOAD PUSH1 0x40 DUP3 ADD MSTORE PUSH1 0xC0 DUP1 PUSH2 0x1BFA PUSH1 0x60 DUP6 ADD MLOAD PUSH1 0xE0 PUSH1 0x60 DUP7 ADD MSTORE PUSH1 0xE0 DUP6 ADD SWAP1 PUSH2 0x1B98 JUMP JUMPDEST SWAP4 PUSH1 0x80 DUP2 ADD MLOAD ISZERO ISZERO PUSH1 0x80 DUP6 ADD MSTORE PUSH1 0xA0 DUP2 ADD MLOAD PUSH1 0xA0 DUP6 ADD MSTORE ADD MLOAD SWAP2 ADD MSTORE SWAP1 JUMP JUMPDEST SWAP1 DUP1 PUSH1 0x20 DUP4 MLOAD SWAP2 DUP3 DUP2 MSTORE ADD SWAP2 PUSH1 0x20 DUP1 DUP4 PUSH1 0x5 SHL DUP4 ADD ADD SWAP5 ADD SWAP3 PUSH1 0x0 SWAP2 JUMPDEST DUP4 DUP4 LT PUSH2 0x1C45 JUMPI POP POP POP POP POP SWAP1 JUMP JUMPDEST SWAP1 SWAP2 SWAP3 SWAP4 SWAP5 PUSH1 0x20 DUP1 PUSH2 0x1C63 PUSH1 0x1 SWAP4 PUSH1 0x1F NOT DUP7 DUP3 SUB ADD DUP8 MSTORE DUP10 MLOAD PUSH2 0x1BBD JUMP JUMPDEST SWAP8 ADD SWAP4 ADD SWAP4 ADD SWAP2 SWAP4 SWAP3 SWAP1 PUSH2 0x1C36 JUMP JUMPDEST PUSH1 0x44 CALLDATALOAD SWAP1 DUP2 ISZERO ISZERO DUP3 SUB PUSH2 0x42F JUMPI JUMP JUMPDEST PUSH1 0xE0 DUP2 ADD SWAP1 DUP2 LT PUSH8 0xFFFFFFFFFFFFFFFF DUP3 GT OR PUSH2 0x1C9D JUMPI PUSH1 0x40 MSTORE JUMP JUMPDEST PUSH4 0x4E487B71 PUSH1 0xE0 SHL PUSH1 0x0 MSTORE PUSH1 0x41 PUSH1 0x4 MSTORE PUSH1 0x24 PUSH1 0x0 REVERT JUMPDEST SWAP1 PUSH1 0x1F DUP1 NOT SWAP2 ADD AND DUP2 ADD SWAP1 DUP2 LT PUSH8 0xFFFFFFFFFFFFFFFF DUP3 GT OR PUSH2 0x1C9D JUMPI PUSH1 0x40 MSTORE JUMP JUMPDEST PUSH8 0xFFFFFFFFFFFFFFFF DUP2 GT PUSH2 0x1C9D JUMPI PUSH1 0x1F ADD PUSH1 0x1F NOT AND PUSH1 0x20 ADD SWAP1 JUMP JUMPDEST PUSH8 0xFFFFFFFFFFFFFFFF DUP2 GT PUSH2 0x1C9D JUMPI PUSH1 0x5 SHL PUSH1 0x20 ADD SWAP1 JUMP JUMPDEST MLOAD SWAP1 PUSH1 0x1 PUSH1 0x1 PUSH1 0xA0 SHL SUB DUP3 AND DUP3 SUB PUSH2 0x42F JUMPI JUMP JUMPDEST SWAP2 SWAP1 SWAP2 PUSH1 0xE0 DUP2 DUP5 SUB SLT PUSH2 0x42F JUMPI PUSH1 0x40 MLOAD SWAP1 PUSH2 0x1D37 DUP3 PUSH2 0x1C81 JUMP JUMPDEST DUP2 SWAP4 DUP2 MLOAD DUP4 MSTORE PUSH2 0x1D49 PUSH1 0x20 DUP4 ADD PUSH2 0x1D09 JUMP JUMPDEST PUSH1 0x20 DUP5 ADD MSTORE PUSH1 0x40 DUP3 ADD MLOAD PUSH1 0x40 DUP5 ADD MSTORE PUSH1 0x60 DUP3 ADD MLOAD PUSH8 0xFFFFFFFFFFFFFFFF DUP2 GT PUSH2 0x42F JUMPI DUP3 ADD DUP2 PUSH1 0x1F DUP3 ADD SLT ISZERO PUSH2 0x42F JUMPI DUP1 MLOAD PUSH2 0x1D84 DUP2 PUSH2 0x1CD5 JUMP JUMPDEST SWAP3 PUSH2 0x1D92 PUSH1 0x40 MLOAD SWAP5 DUP6 PUSH2 0x1CB3 JUMP JUMPDEST DUP2 DUP5 MSTORE PUSH1 0x20 DUP3 DUP5 ADD ADD GT PUSH2 0x42F JUMPI PUSH2 0x1DB0 SWAP2 PUSH1 0x20 DUP1 DUP6 ADD SWAP2 ADD PUSH2 0x1B75 JUMP JUMPDEST PUSH1 0x60 DUP4 ADD MSTORE PUSH1 0x80 DUP2 ADD MLOAD DUP1 ISZERO ISZERO DUP2 SUB PUSH2 0x42F JUMPI PUSH1 0xC0 SWAP2 DUP3 SWAP2 PUSH1 0x80 DUP6 ADD MSTORE PUSH1 0xA0 DUP2 ADD MLOAD PUSH1 0xA0 DUP6 ADD MSTORE ADD MLOAD SWAP2 ADD MSTORE JUMP JUMPDEST SWAP2 SWAP1 PUSH1 0x40 DUP4 DUP3 SUB SLT PUSH2 0x42F JUMPI DUP3 MLOAD PUSH8 0xFFFFFFFFFFFFFFFF DUP2 GT PUSH2 0x42F JUMPI DUP4 ADD SWAP1 DUP1 PUSH1 0x1F DUP4 ADD SLT ISZERO PUSH2 0x42F JUMPI DUP2 MLOAD PUSH2 0x1E14 DUP2 PUSH2 0x1CF1 JUMP JUMPDEST SWAP3 PUSH2 0x1E22 PUSH1 0x40 MLOAD SWAP5 DUP6 PUSH2 0x1CB3 JUMP JUMPDEST DUP2 DUP5 MSTORE PUSH1 0x20 DUP1 DUP6 ADD SWAP3 PUSH1 0x5 SHL DUP3 ADD ADD SWAP2 DUP4 DUP4 GT PUSH2 0x42F JUMPI PUSH1 0x20 DUP3 ADD SWAP1 JUMPDEST DUP4 DUP3 LT PUSH2 0x1E54 JUMPI POP POP POP POP POP PUSH1 0x20 SWAP1 SWAP3 ADD MLOAD SWAP1 JUMP JUMPDEST DUP2 MLOAD PUSH8 0xFFFFFFFFFFFFFFFF DUP2 GT PUSH2 0x42F JUMPI PUSH1 0x20 SWAP2 PUSH2 0x1E77 DUP8 DUP5 DUP1 SWAP5 DUP9 ADD ADD PUSH2 0x1D1D JUMP JUMPDEST DUP2 MSTORE ADD SWAP2 ADD SWAP1 PUSH2 0x1E3F JUMP JUMPDEST DUP1 MLOAD DUP3 LT ISZERO PUSH2 0x1E96 JUMPI PUSH1 0x20 SWAP2 PUSH1 0x5 SHL ADD ADD SWAP1 JUMP JUMPDEST PUSH4 0x4E487B71 PUSH1 0xE0 SHL PUSH1 0x0 MSTORE PUSH1 0x32 PUSH1 0x4 MSTORE PUSH1 0x24 PUSH1 0x0 REVERT JUMPDEST PUSH1 0x0 NOT DUP2 EQ PUSH2 0x1EBB JUMPI PUSH1 0x1 ADD SWAP1 JUMP JUMPDEST PUSH4 0x4E487B71 PUSH1 0xE0 SHL PUSH1 0x0 MSTORE PUSH1 0x11 PUSH1 0x4 MSTORE PUSH1 0x24 PUSH1 0x0 REVERT JUMPDEST PUSH1 0x40 MLOAD SWAP1 PUSH2 0x1EDE DUP3 PUSH2 0x1C81 JUMP JUMPDEST PUSH1 0x0 PUSH1 0xC0 DUP4 DUP3 DUP2 MSTORE DUP3 PUSH1 0x20 DUP3 ADD MSTORE DUP3 PUSH1 0x40 DUP3 ADD MSTORE PUSH1 0x60 DUP1 DUP3 ADD MSTORE DUP3 PUSH1 0x80 DUP3 ADD MSTORE DUP3 PUSH1 0xA0 DUP3 ADD MSTORE ADD MSTORE JUMP JUMPDEST SWAP1 PUSH2 0x1F12 DUP3 PUSH2 0x1CF1 JUMP JUMPDEST PUSH2 0x1F1F PUSH1 0x40 MLOAD SWAP2 DUP3 PUSH2 0x1CB3 JUMP JUMPDEST DUP3 DUP2 MSTORE DUP1 SWAP3 PUSH2 0x1F30 PUSH1 0x1F NOT SWAP2 PUSH2 0x1CF1 JUMP JUMPDEST ADD SWAP1 PUSH1 0x0 JUMPDEST DUP3 DUP2 LT PUSH2 0x1F41 JUMPI POP POP POP JUMP JUMPDEST PUSH1 0x20 SWAP1 PUSH2 0x1F4C PUSH2 0x1ED1 JUMP JUMPDEST DUP3 DUP3 DUP6 ADD ADD MSTORE ADD PUSH2 0x1F35 JUMP JUMPDEST SWAP1 PUSH1 0x20 DUP3 DUP3 SUB SLT PUSH2 0x42F JUMPI DUP2 MLOAD PUSH8 0xFFFFFFFFFFFFFFFF DUP2 GT PUSH2 0x42F JUMPI PUSH2 0x1F7E SWAP3 ADD PUSH2 0x1D1D JUMP JUMPDEST SWAP1 JUMP JUMPDEST ISZERO PUSH2 0x1F88 JUMPI JUMP JUMPDEST PUSH1 0x40 MLOAD PUSH3 0x461BCD PUSH1 0xE5 SHL DUP2 MSTORE PUSH1 0x20 PUSH1 0x4 DUP3 ADD MSTORE PUSH1 0x1A PUSH1 0x24 DUP3 ADD MSTORE PUSH32 0x5072696365206F7574206F6620616C6C6F7765642072616E6765000000000000 PUSH1 0x44 DUP3 ADD MSTORE PUSH1 0x64 SWAP1 REVERT JUMPDEST PUSH1 0x40 SWAP1 PUSH2 0x1F7E SWAP4 SWAP3 DUP2 MSTORE DUP2 PUSH1 0x20 DUP3 ADD MSTORE ADD SWAP1 PUSH2 0x1BBD JUMP JUMPDEST PUSH1 0xFF PUSH1 0x0 SLOAD PUSH1 0xA0 SHR AND PUSH2 0x1FF3 JUMPI JUMP JUMPDEST PUSH4 0xD93C0665 PUSH1 0xE0 SHL PUSH1 0x0 MSTORE PUSH1 0x4 PUSH1 0x0 REVERT JUMPDEST PUSH1 0x2 PUSH1 0x1 SLOAD EQ PUSH2 0x2015 JUMPI PUSH1 0x2 PUSH1 0x1 SSTORE JUMP JUMPDEST PUSH4 0x3EE5AEB5 PUSH1 0xE0 SHL PUSH1 0x0 MSTORE PUSH1 0x4 PUSH1 0x0 REVERT JUMPDEST PUSH1 0x0 SLOAD PUSH1 0x1 PUSH1 0x1 PUSH1 0xA0 SHL SUB AND CALLER SUB PUSH2 0x203A JUMPI JUMP JUMPDEST PUSH4 0x118CDAA7 PUSH1 0xE0 SHL PUSH1 0x0 MSTORE CALLER PUSH1 0x4 MSTORE PUSH1 0x24 PUSH1 0x0 REVERT INVALID LOG2 PUSH5 0x6970667358 0x22 SLT KECCAK256 0xE RETURN PUSH10 0xE340644E88BEB1EC7080 SWAP3 0xBE PUSH24 0xE13B6388A3B9087DD4A2A7FC8415D96F64736F6C63430008 SHR STOP CALLER "
        },
        "methodIdentifiers": {
          "MAX_MONGO_DATA_LENGTH()": "e67d86f1",
          "MAX_PRICE_PER_SESSION()": "d4f38d04",
          "MIN_PRICE_PER_SESSION()": "09115e97",
          "REGISTRATION_COOLDOWN()": "b0ff6383",
          "adminContract()": "c05c5e94",
          "deactivateNetwork(uint256)": "4b9791e8",
          "getActiveHostNetworks(address)": "2b2a748c",
          "getAllActiveNetworks()": "16cb6eff",
          "getContractStats()": "dfe6b5d6",
          "getCurrentHostingFee()": "89ea28d9",
          "getHostNetworks(address)": "79f0dc57",
          "getHostStats(address)": "764ac734",
          "getHostedNetworkById(uint256)": "cd83fb9a",
          "getNetworksPaginated(uint256,uint256)": "fa9c81a4",
          "getTreasuryAddress()": "e0024604",
          "isHost(address)": "eb2931b7",
          "isRegisteredHost(address)": "867f1a09",
          "lastRegistrationTime(address)": "7f6e8cbf",
          "networkToHost(uint256)": "43355214",
          "owner()": "8da5cb5b",
          "pause()": "8456cb59",
          "paused()": "5c975abb",
          "registerNetwork(uint256,string,bool)": "900e41b1",
          "renounceOwnership()": "715018a6",
          "setAdminContract(address)": "63a812f9",
          "setUsdtContract(address)": "576338a5",
          "storageContract()": "11ce0267",
          "transferOwnership(address)": "f2fde38b",
          "unpause()": "3f4ba83a",
          "updateNetwork(uint256,uint256,bool)": "1b63fe67",
          "usdt()": "2f48ab7d"
        }
      }
    }
  }
}